:100000000C94580D0C94190E0C94190E0C94190E96
:100010000C94190E0C94190E0C9416680C94190E6D
:100020000C94190E0C94190E0C94190E0C94190EB4
:100030000C94190E0C94190E0C94190E0C94566312
:100040000C94190E0C94190E0C94190E0C94190E94
:100050000C94190E0C94190E0C94190E0C94190E84
:100060002020202058202D2045786974204261737B
:10007000654D6F6E2C20636F6E66696775726520C3
:100080006E6574776F726B20616E64207374617239
:1000900074205765625365727665720020202020B7
:1000A00045202D2045746865726E657420636F6EFF
:1000B00074726F6C6C657220726561642F777269FF
:1000C00074650A202020204A202D204A756D70205A
:1000D000746F20626F6F746C6F616465720A2020A8
:1000E000202053202D205352414D20726561642FF2
:1000F0007772697465002020202042202D205365EE
:100100006E642062726F61646361737473000A507D
:100110007265737320616E79206F66207468652044
:10012000666F6C6C6F77696E67206B6579733A00E8
:10013000507265737320616E79206B657920746FDE
:100140002073746F700A004261642049502061641A
:100150006472657373000A4661696C656420746F2C
:1001600020636F6E666967757265206E6574776F60
:10017000726B2076696120444843503A2045746888
:1001800065726E75742073746F70706564210A07F0
:10019000000A4661696C656420746F20636F6E6647
:1001A0006967757265206E6574776F726B20696E12
:1001B000746572666163653A2045746865726E7530
:1001C000742073746F70706564210A07003C2F748B
:1001D00061626C653E3C2F666F726D3E0D0A3C2F6E
:1001E000626F64793E0D0A3C2F68746D6C3E003C72
:1001F00074723E3C2F74723E003C48544D4C3E3C61
:10020000484541443E3C5449544C453E53686F7701
:1002100020506F7274733C2F5449544C453E3C2F10
:10022000484541443E3C424F44593E3C666F726DE6
:1002300020616374696F6E3D226367692D62696E28
:100240002F736574706F7274732E636769222065F3
:100250006E63747970653D22746578742F706C617B
:10026000696E223E203C5441424C4520424F52444C
:1002700045523E3C74723E3C74643E4269743C2F6D
:1002800074643E3C74643E373C2F74643E3C74643A
:100290003E363C2F74643E3C74643E353C2F74649F
:1002A0003E3C74643E343C2F74643E3C74643E3384
:1002B0003C2F74643E3C74643E323C2F74643E3C7C
:1002C00074643E313C2F74643E3C74643E303C2F79
:1002D00074643E3C2F74723E0D0A003C2F54414220
:1002E0004C453E3C2F424F44593E3C2F48544D4CC8
:1002F0003E0D0A003C464F4E5420434F4C4F523D5A
:10030000234343303030303E45535441424C3C2F20
:10031000464F4E543E003C54443E25733A25753CAE
:100320002F54443E3C54443E003C54523E3C5444C2
:100330003E253034583C2F54443E3C54443E5443B4
:10034000503C2F54443E3C54443E25733A25753C62
:100350002F54443E003C48544D4C3E3C484541449B
:100360003E3C5449544C453E53686F772054687264
:10037000656164733C2F5449544C453E3C2F4845BD
:1003800041443E3C424F44593E3C5441424C45203E
:10039000424F524445523E3C54523E3C54483E48E3
:1003A000616E646C653C2F54483E3C54483E547921
:1003B00070653C2F54483E3C54483E4C6F63616C22
:1003C0003C2F54483E3C54483E52656D6F74653C2A
:1003D0002F54483E3C54483E5374617475733C2F0F
:1003E00054483E3C2F54523E0D0A003C2F5441428B
:1003F0004C453E3C2F424F44593E3C2F48544D4CB7
:100400003E003C54523E3C54443E253034583C2F30
:1004100054443E3C54443E256C753C2F54443E3C71
:1004200054443E256C753C2F54443E3C54443E2578
:100430003034583C2F54443E3C54443E25303458CC
:100440003C2F54443E3C2F54523E0D0A003C544134
:10045000424C4520424F524445523E3C54523E3C51
:1004600054483E48616E646C653C2F54483E3C5491
:10047000483E436F756E74646F776E3C2F54483EF0
:100480003C54483E5469636B2052656C6F61643C18
:100490002F54483E3C54483E43616C6C6261636B30
:1004A0003C42523E416464726573733C2F54483E33
:1004B0003C54483E43616C6C6261636B3C42523E0B
:1004C000417267756D656E743C2F54483E3C2F54E5
:1004D000523E0D0A000D0A4350552072756E6E692A
:1004E0006E672061742025752E25303475204D48A7
:1004F0007A3C62723E0D0A003C48544D4C3E3C48EA
:100500004541443E3C5449544C453E4E75742F4F32
:10051000532054696D6572733C2F5449544C453EC9
:100520003C2F484541443E3C424F44593E003C54D8
:10053000523E3C54443E253034583C2F54443E3CBB
:1005400054443E25733C2F54443E3C54443E257550
:100550003C2F54443E3C54443E25733C2F54443E6F
:100560003C54443E253034583C2F54443E3C544483
:100570003E253034583C2F54443E3C54443E2530B4
:1005800034583C2F54443E3C54443E25753C2F5433
:10059000443E3C54443E25733C2F54443E3C2F542F
:1005A000523E0D0A003C2F5441424C453E3C2F42E6
:1005B0004F44593E3C2F48544D4C3E003C54414220
:1005C0004C4520424F524445523E3C54523E3C54CE
:1005D000483E48616E646C653C2F54483E3C54482C
:1005E0003E4E616D653C2F54483E3C54483E50722F
:1005F000696F726974793C2F54483E3C54483E53AD
:1006000074617475733C2F54483E3C54483E4576A3
:10061000656E743C42523E51756575653C2F544879
:100620003E3C54483E54696D65723C2F54483E3CF4
:1006300054483E537461636B2D3C42523E706F6967
:100640006E7465723C2F54483E3C54483E46726579
:10065000653C42523E537461636B3C2F54483E3CB0
:100660002F54523E0D0A003C48544D4C3E3C4845E8
:1006700041443E3C5449544C453E4E75742F4F53B3
:1006800020546872656164733C2F5449544C453E54
:100690003C2F484541443E3C424F44593E3C683122
:1006A0003E4E75742F4F5320546872656164733CDD
:1006B0002F68313E0D0A0020636865636B65643DF9
:1006C00022636865636B656422003C74643E3C6928
:1006D0006E70757420747970653D22636865636B14
:1006E000626F7822206E616D653D2225732220762F
:1006F000616C75653D2225752220003C74723E3C7C
:1007000074643E25733C2F74643E00474946383973
:1007100061A8003900F7FF00000000C0C0C0FEFE65
:10072000FEFDFDFDFCFCFCFAFAFAF9F9F9F8F8F81F
:10073000F7F7F7F6F6F6F5F5F5F4F4F4F3F3F3F16D
:10074000F1F1F0F0F0EFEFEFEEEEEEEDEDEDECECC1
:10075000ECEBEBEBEAEAEAE8E8E8E7E7E7E6E6E60F
:10076000E5E5E5E4E4E4E3E3E3E2E2E2E1E1E1E05C
:10077000E0E0DEDEDEDDDDDDDCDCDCDBDBDBDADAAF
:10078000DAD9D9D9D8D8D8D7D7D7D6D6D6D5D5D5F6
:10079000D3D3D3D2D2D2D0D0D0CECECECDCDCDCC5D
:1007A000CCCCCBCBCBC8C8C8C7C7C7C5C5C5C4C4CC
:1007B000C4C3C3C3C2C2C2C1C1C1C0C0C0BFBFBF26
:1007C000BEBEBEBDBDBDBCBCBCBABABAB9B9B9B873
:1007D000B8B8B7B7B7B6B6B6B5B5B5B4B4B4B3B3C1
:1007E000B3B1B1B1B0B0B0AFAFAFAEAEAEADADAD15
:1007F000ACACACABABABA9A9A9A8A8A8A6A6A6A56A
:10080000A5A5A3A3A3A1A1A19F9F9F9E9E9E9D9DE1
:100810009D9C9C9C9B9B9B9A9A9A99999998989835
:10082000979797969696959595949494939393927B
:1008300092929191919090908E8E8E8D8D8D8C8CC8
:100840008C8B8B8B8A8A8A89898988888887878715
:10085000868686858585848484838383828282815B
:1008600081818080807F7F7F7E7E7E7D7D7D7C7CA0
:100870007C7B7B7B7A7A7A787878777777767676EE
:10088000757575747474737373727272717171703B
:1008900070706E6E6E6D6D6D6B6B6B6A6A6A696996
:1008A00069686868666666646464636363616161FD
:1008B0005F5F5F5E5E5E5C5C5C5B5B5B5A5A5A5876
:1008C00058585656565555555454545353535151E0
:1008D000515050504F4F4F4E4E4E4C4C4C4B4B4B3B
:1008E0004A4A4A484848474747464646444444439C
:1008F00043434141414040403E3E3E3D3D3D3C3C06
:100900003C3B3B3B3A3A3A38383837373735353560
:100910003232323030302E2E2E2C2C2C2B2B2B2AF8
:100920002A2A282828272727252525242424222267
:10093000222121211F1F1F1D1D1D1B1B1B191919E2
:100940001818181717171616161414141212121056
:1009500010100F0F0F0D0D0D0A0A0A0909090606DE
:100960000604040403030302020200000000000066
:100970000000000000000000000000000000000077
:100980000000000000000000000000000000000067
:100990000000000000000000000000000000000057
:1009A0000000000000000000000000000000000047
:1009B0000000000000000000000000000000000037
:1009C0000000000000000000000000000000000027
:1009D0000000000000000000000000000000000017
:1009E0000000000000000000000000000000000007
:1009F00000000000000000000000000000000000F7
:100A000000000000000000000000000000000000E6
:100A1000000000000000000021F9040100000100B6
:100A20002C00000000A80039000008FF0003081C8B
:100A300048B0A0C18308076AA93320A1C387102347
:100A40004A9C48B1A2C58B0E49F4F20502A3C78F98
:100A500020438A1C39F00F00004048AA5CC9B2A5A7
:100A6000C511C24E527149B3A6CD957C4E0240735A
:100A7000B3A7CF9F1073C43C6907A8D1A33E2F9C96
:100A8000D209A00FD2A7504736F050A312530083CB
:100A9000A26A6DD9A0A34A0544FE60C275F5A42CD4
:100AA000175B074E5D4143070F1B2F4C604090368C
:100AB000A109287E30ED52194353D9B2BCC4D045A8
:100AC0006A00C30E359154D9EA258C18B161BF7400
:100AD000D13275E80C11130E046C75D0028C255DB3
:100AE0004C47262053ECAFE945148C82808208B431
:100AF00069D3C548E931E20169051C67429916D9F5
:100B000000D0EBD79632DC1420A108A259BF93EB9A
:100B100084958785819B05280001942A794803865E
:100B20000014CBF44939D3534008B8FFD430645093
:100B30002DEFE84F12CBA464F04A0930D25422EBD7
:100B40003DA41500AF88CC085125FDC9443FB81716
:100B500052033CF8B18A7F08FE5702490F00514703
:100B600028A5F907520BC100A0840F41C8A1422F4C
:100B7000081633CA193770D080661409E040084956
:100B8000F4E14A840926C84B18157834400640EC35
:100B9000B1628B007C044127DA41C1072CBC34C20E
:100BA0006282BB7012481A4EF8F0C2091E5800C18A
:100BB000030F4060810729C4708418817032148E3D
:100BC0005C02B04A15A94D44C0094D14624B9727E9
:100BD000799400213ADDC20A9A7F15F30B2EB3B83F
:100BE000920A2AA8A4E2CA2CB95408E79F5EFAD157
:100BF0000408091C4440032634710727F4FDE95119
:100C00001980462A6997C368C287185028B1C4144E
:100C1000691852DDA4695E64412EA0966AEAA9387B
:100C200062840187A8B6EAEAAB3A61FF24C01CB02F
:100C3000D66AEBA41E1D30062DB7F6EA6B82208122
:100C4000A0C52DBF166BEC5F212D41EAB1CC1A1B5C
:100C5000D2033108E1C41883803264B3D89ECA52EB
:100C6000042FD4416CB6E0824A131EE1961B694BF7
:100C70000FC8418CB9ECA2C9D20EBAB5DBEA242E5A
:100C800074F10930B0AA740019F2BA5A4C0E021964
:100C9000F0021B996C692A492530D2AFAB7690A837
:100CA00056A286CCB2AEB8213150856B0B9F2AC9B3
:100CB000030E3DF042148178C22BA021E54049C6C5
:100CC000A816934703139D28031361D031C825B09C
:100CD000F889E04729183231CAA6FAC2450B1B2C05
:100CE00070D1000840A0810A3510E104166198F126
:100CF000861C71C801071A64709169103460E4C1E0
:100D00001D06834A8C2EB0A0224A279548D2C822BD
:100D10008CA4AD76249360D20929A8C0824BD7AFAA
:100D2000E662091D4BB400415D066DFF60462C7FF5
:100D3000CA694B2A90F491861548E0D0C2081D5824
:100D40003001040E30A0400208546E39020A28D047
:100D5000C003114C60C1062254F9831254906147BC
:100D60001F7DF0B1C752A7F2928A2054E8ED3054AB
:100D700015D490072F5CF6520A2483C001850E28F3
:100D800058F0DC511C38026B2C813CF182784649CA
:100D9000C0831DA65CEB5D31B6382206102658A034
:100DA00000DF0B8821FDA9C10012414F16B8408514
:100DB00021E725C84A2256BCF0C0EC7C0FD4832B17
:100DC000B63632414B02748003168344DFA2276992
:100DD000C84107E20711100CC2569508934866B047
:100DE000053F8442173B430F316671093B402105A3
:100DF000DB23A0440620041EC1AA121A18491D12A2
:100E0000F48B510CA20B3BF800FC34D832370C03A6
:100E100056A2B8006FBCE00ABA694718BB68C5247F
:100E20002C58030F4460852CBCC80BF14EF6AA4326
:100E300014402A2E484215C040862E508109407821
:100E400081073218449618C0089B78951A8058C5B7
:100E50002E1AA401369843277E811E61104E107110
:100E600000C314A4C08536108213BB284B31AEE0FA
:100E7000C53A42C4001CF0C11702918953ACE21577
:100E8000B0B0D3281EB106204C91002B1480012E47
:100E9000C0040F32050A768C24440800010C74A0AB
:100EA000031BA800032AF2802CF88229C1D88124D0
:100EB00047591319004E27ACB0002957C99214B0F6
:100EC000EE248C181F2B6729121090822986601E31
:100ED0002D7789910E6482296768082F8759110937
:100EE000284227C460023197399104D84127B85865
:100EF0001033A7E990015C6128A7E00035B789901D
:100F00001E7CAB127BE3A6380772822C02A011E193
:100F10001CA73823800540BC41960F0908003BE020
:100F200082201881085508431F1C31FF8952A8E20E
:100F300092C0F8C52E1A063BAC28081BACA0430F84
:100F40002E20AF8FC0248905B9D18D0472B05FED1A
:100F500044046C0806EA94354766A1031CC918C509
:100F600022F2208624D0A0030F58C0DC7A4200036E
:100F70003C33011C30C5513088B9AC7D491DCE18B9
:100F8000451D6204948A5649201A980225A8718E3C
:100F9000B5A9A31BBAA8C41CA4C08208FC665E380D
:100FA000A2A654A78AB0D3848B029130074D67C79D
:100FB000AC73A0831A88C8804F20B326985060076E
:100FC00067C88433F6E6A5AB304B1DD0584520A644
:100FD0008082051072281B321455F7CAD75F092486
:100FE0000BD310624183B40E5EDC60290D208112A8
:100FF000EC108A66980D8E1CED062DF870040D64B9
:1010000088A2BEEA2BC23C23B4CE76B65E0F5DD476
:101010001D87321E1468E275BB4B473586C013121C
:1010200038E10D93E005385285155BFF75541DE2DC
:10103000F8C523C09082811DD100861A8B67876B0B
:101040005588FE44402DA5C900B0A08C39EE0E4550
:10105000AB8592943A228C666D755DE178862B069D
:10106000C1851734605E6A3A64731072121D852060
:1010700085BE949D6A59FB979494E182AA241D56DB
:10108000BADA8D5E78E20F5DC841052EDBAB99546C
:1010900075BC1B598C669A808BA55D577428920687
:1010A0000AD033DD8D6C40097490442926898A5317
:1010B0005CE2107600430F3AC0801A0D8DB30D0626
:1010C000304664D29608740117376BE12C30C0BAF1
:1010D00094CC0D514F8D5678432CE20047C4001339
:1010E00071001444A18D99EA528B6F05136EEB8346
:1010F0008A54A0E216D628875BB7AA0E509864A53A
:101100001A59CE70A3F21FE3D6B827079BC8004434
:10111000800544AC82197DBAAE3ABA090C4694E116
:10112000082DA04002A692800BD0E0DF0A8830256F
:10113000931CC12197D08BC657EEE91D0762800929
:10114000AC800644A08218C0100628E8C004DF3531
:10115000A478AD7986C0A62D1D77906E9E27CD43CD
:1011600001152C21A102566356008BED98432B6587
:10117000A5B4A8592534CE4A8BB8514518C20220CF
:10118000814BD0661DE2500294464D6BAF0C40017E
:101190000D184C00149089ED3CE303BDAAB5B09B3B
:1011A000820111CC053887D8920B3FB1002B0FFB81
:1011B000D9FC3B7600E070B3AB30A2CAD0CE764FFC
:1011C000E632912E1CAB5976809232B54DEE8E846C
:1011D000A52D4F90C6396CF605888CBBDCF0A62295
:1011E0001E65900B177EA3080140009EE3CD6F841F
:1011F000E011039658B7367EC09A7E1B7CC43786B2
:10120000D2196A310C3FD4AF220101003B656E6CEC
:101210006F676F2E67696600474946383961470036
:101220003900F7FF00000000C0C0C0FEFEFEFDFD5B
:10123000FDFCFCFCFAFAFAF9F9F9F8F8F8F7F7F717
:10124000F6F6F6F5F5F5F4F4F4F3F3F3F1F1F1F065
:10125000F0F0EFEFEFEEEEEEEDEDEDECECECEAEAB8
:10126000EAE8E8E8E7E7E7E6E6E6E5E5E5E4E4E41A
:10127000E3E3E3E2E2E2E1E1E1E0E0E0DEDEDEDD65
:10128000DDDDDCDCDCDBDBDBD9D9D9D8D8D8D7D7BE
:10129000D7D5D5D5D3D3D3D2D2D2CDCDCDCACACA44
:1012A000C6C6C6C5C5C5C2C2C2BEBEBEBDBDBDBC2A
:1012B000BCBCBABABAB9B9B9B8B8B8B5B5B5B4B4AE
:1012C000B4B2B2B2B1B1B1B0B0B0AEAEAEACACAC23
:1012D000ABABABA9A9A9A7A7A7A5A5A5A4A4A4A2A0
:1012E000A2A2A1A1A1A0A0A09F9F9F9C9C9C9B9B10
:1012F0009B9999999494949393939292928C8C8CB9
:101300008B8B8B8888888787878585858484848272
:1013100082828181818080807F7F7F7D7D7D7C7CDA
:101320007C7B7B7B7979797777777474747373734B
:101330007272727171716F6F6F6E6E6E6D6D6D6CBA
:101340006C6C6B6B6B6A6A6A696969646464636319
:10135000636060605F5F5F5E5E5E5C5C5C5B5B5BAE
:101360005A5A5A5656565555555454545151514F30
:101370004F4F4E4E4E4C4C4C4B4B4B4848484747BA
:10138000474646464444444343434141414040402C
:101390003D3D3D3737373535353232323030302B01
:1013A0002B2B2828282525252424242222221E1EF2
:1013B0001E1D1D1D191919181818141414121212B3
:1013C0001010100F0F0F0D0D0D0909090606060468
:1013D00004040303030202020000000000000000F6
:1013E00000000000000000000000000000000000FD
:1013F00000000000000000000000000000000000ED
:1014000000000000000000000000000000000000DC
:1014100000000000000000000000000000000000CC
:1014200000000000000000000000000000000000BC
:1014300000000000000000000000000000000000AC
:10144000000000000000000000000000000000009C
:10145000000000000000000000000000000000008C
:10146000000000000000000000000000000000007C
:10147000000000000000000000000000000000006C
:10148000000000000000000000000000000000005C
:10149000000000000000000000000000000000004C
:1014A000000000000000000000000000000000003C
:1014B000000000000000000000000000000000002C
:1014C000000000000000000000000000000000001C
:1014D000000000000000000000000000000000000C
:1014E00000000000000000000000000000000000FC
:1014F00000000000000000000000000000000000EC
:1015000000000000000000000000000000000000DB
:1015100000000000000000000000000000000000CB
:10152000000000000021F90401000001002C00006F
:101530000000470039000008FF0003081C48B0A065
:10154000C183050D2460D0A041020308234A9C48B2
:10155000D1E0820E2864004962054C9A356FE0BCE8
:101560005983C6CB93202F4620A8C8B26580010FAF
:1015700038B01852A5CD9F438D00E8DCC9B327A42D
:10158000447DB4E4F070C0A551811040B438F2C578
:101590000EA29E50A34A05A0E80C8E0D472522D02E
:1015A0000003CA9B3E83204D1D4B96A7A034310AF1
:1015B000641558C0838B267116959D4B97279A14F6
:1015C000461BA850E20650DDBF801D6DF950910703
:1015D00018408F002B565C68875A898B23472E430F
:1015E00002B2E4CB7F0BD98888B9735D22083D8BAA
:1015F000260BA9880083A3534FDDD2A0A0EAD750C1
:10160000C52C2008BBF6CE2BA705DAB60DC9C7C07E
:10161000DDB61BD1D00DBCF6A112018ADBAE334181
:10162000F9DF447FF2B821B3850A94254CA454D93C
:101630003266CD1C3E429C97C6958304C6090F11A5
:1016400020461CA0A00206F1511FE9617262655696
:10165000F83C076969317B2D71F18A9871C305FEE9
:10166000B9A61C1F5CFC204281070167481833584B
:10167000C02067B0F9D1850D13E4366168A9E10196
:10168000C50B186C58516787E011C50D26B426228A
:101690004B912D4207163C9840C08A47D5F508214A
:1016A0006C385143080ED0E8DF5885ECA1C6143DD4
:1016B000A82081863EFA07092381DC7146164F185F
:1016C000A1C30A23508064921396900104091470F8
:1016D0002596608629E698649669E69968A6A9E643
:1016E0009A6CB6E9E69B70C629E79C74D669E79DBB
:1016F00078E6A9E79E7CF6E9E79F80065A5140000C
:101700003BF561216E30B1C20381DA79677986CA0F
:10171000F7984E84A071840957665780014381442D
:10172000A85979CAC7C821735CA103080A045A27BB
:1017300048F8817AD2743399AF38C81A489CC06887
:10174000A39C125594AB9122471520694451C307BD
:10175000990AE8695A90F2FA6A8F545525C81B5ABB
:1017600008F10207A99689269ECA2A4B59206F6C58
:1017700031840C1ECC69D8AA44259B2DA855957898
:10178000C8207AA4E1851340CCD0410367397A2779
:1017900097E7E61B00113FE41043091B44C0009E7D
:1017A00059DACBAABE08938494A0672AB925BE094A
:1017B00023AC649249991BF1C51867ACF1C61C773C
:1017C000ECF1C720872CF2C824976CF2C928A7AC8B
:1017D000F2CA2CB7ECF2CB30C72CF3CC34D76CF375
:1017E000CD38E7ACF3490101003B656E7461696C6B
:1017F0002E676966003C68746D6C3E0D0A3C686536
:1018000061643E0D0A3C7469746C653E457468659C
:10181000726E757420426173654D6F6E3C2F7469F2
:10182000746C653E0D0A3C2F686561643E0D0A3C90
:10183000626F64793E0D0A0D0A3C63656E746572D1
:101840003E0D0A3C696D67207372633D22656E6CC4
:101850006F676F2E676966223E3C696D6720737201
:10186000633D22656E7461696C2E676966223E3C39
:10187000703E0D0A3C68313E45746865726E757441
:1018800020426173654D6F6E20485454502053655B
:10189000727665723C2F68313E0D0A0D0A3C61205C
:1018A000687265663D226367692D62696E2F746890
:1018B00072656164732E636769223E4C697374209C
:1018C000746872656164733C2F613E3C703E0D0A22
:1018D0003C6120687265663D226367692D62696EAE
:1018E0002F74696D65722E636769223E4C6973744B
:1018F0002074696D6572733C2F613E3C703E0D0A29
:101900003C6120687265663D226367692D62696E7D
:101910002F736F636B6574732E636769223E4C6926
:10192000737420736F636B6574733C2F613E3C70FE
:101930003E0D0A3C6120687265663D226367692D31
:1019400062696E2F706F7274732E636769223E49ED
:101950002F4F20706F7274733C2F613E3C703E0DB0
:101960000A3C2F63656E7465723E0D0A0D0A3C2FAA
:10197000626F64793E0D0A696E6465782E68746DD5
:101980006C005757572D41757468656E74696361B3
:1019900074653A204261736963207265616C6D3DC4
:1019A000222573220D0A003C48544D4C3E3C4845CC
:1019B00041443E3C5449544C453E25642025733CEB
:1019C0002F5449544C453E3C2F484541443E3C42EF
:1019D0004F44593E25642025733C2F424F44593EC5
:1019E0003C2F48544D4C3E00436F6E6E65637469E6
:1019F0006F6E3A20636C6F73650D0A0D0A00436FBA
:101A00006E74656E742D4C656E6774683A20256C33
:101A1000640D0A00436F6E74656E742D54797065A1
:101A20003A2025730D0A00485454502F25642E2562
:101A3000642025642025730D0A5365727665723A19
:101A40002045746865726E75742025730D0A00FF59
:101A5000FFFFFFFFFFFFFFFFFFFF3EFFFFFF3F34E2
:101A600035363738393A3B3C3DFFFFFFFFFFFFFF7C
:101A7000000102030405060708090A0B0C0D0E0FEE
:101A800010111213141516171819FFFFFFFFFFFF8F
:101A90001A1B1C1D1E1F202122232425262728292E
:101AA0002A2B2C2D2E2F30313233FFFFFFFFFF006A
:101AB00011241FBECFEFDFE0DEBFCDBF19E0A0E6EF
:101AC000B0E0E6EBFBEF0FEF03950BBF04C0D8953A
:101AD0000D923196C8F3A638B107C9F71AE0A6E807
:101AE000B9E001C01D92AF3FB107E1F78EB78F702B
:101AF0008EBF6FEF7EE06F5F7A408FEF9AE00E94BB
:101B0000FD5A40E060E070E086EB98E00E941D61C5
:101B10000E94FA199093910A8093900A40912E099D
:101B200050912F096DE772E08FE792E00E94E27317
:101B30000E946561892B31F065E872E08BEE9AE0D6
:101B40000E94B97C8EE892E00E941D2A9091BE0A04
:101B50003091BF0A2091C00A892F832382238F3FAF
:101B600019F0932B922B49F4AEEBBAE0EDE9F2E0D9
:101B700086E001900D928150E1F76091D00A70915A
:101B8000D10A8091D20A9091D30A0E94BE27682F71
:101B9000792F8EE09AE00E94B97C6091C80A70911A
:101BA000C90A8091CA0A9091CB0A0E94BE27682F69
:101BB000792F8FE49AE00E94B97C6091CC0A7091F1
:101BC000CD0A8091CE0A9091CF0A0E94BE27682F3D
:101BD000792F8FE29AE00E94B97CAFE6BAE0EEEB93
:101BE000FAE086E001900D928150E1F70E94D00E5C
:101BF00060918609709187096115710571F080E027
:101C000090E10E94FD5A20E831E040E050E066ECAF
:101C100071E183E992E00E94D06180E80E94235C38
:101C200064EF71E080E090E00E94D75DF9CF0C9402
:101C300000000C940000DF92EF92FF920F931F932D
:101C4000CF93DF9301E0EE24C0E0D0E0102F109599
:101C50001F7E802F806187BB18BB64E670E080E048
:101C600090E00E94B01F86B3811711F01827E12A77
:101C7000000F2196C830D10549F717BAEE2029F494
:101C800001E0DD24C0E0D0E012C08E2D99279F93A3
:101C90008F9380E690E09F938F930E941A7501E0E6
:101CA000DD24C0E0D0E00F900F900F900F90102F28
:101CB000109501BB12BB68EE73E080E090E00E94DB
:101CC000B01F80B380628117B1F099279F938F93E3
:101CD000812F99279F938F9384E790E09F938F9311
:101CE0000E941A75D02A8DB79EB706960FB6F89443
:101CF0009EBF0FBE8DBF000F2196C830D105B9F62B
:101D000011BADD2019F404E0FF2416C08D2D9927A7
:101D10009F938F9380E890E09F938F930E941A7512
:101D200004E0FF240F900F900F900F9005C080E00B
:101D300090E02EC0003251F1102F109502B913B966
:101D400068EE73E080E090E00E94B01F81B1836292
:101D50008113F02A000F71F712B8FF2071F08F2D58
:101D600099279F938F9384E990E09F938F930E948C
:101D70001A750F900F900F900F90EE2021F4DD2038
:101D800011F4FF20A1F28FEF9FEF02C000E4D4CF47
:101D9000DF91CF911F910F91FF90EF90DF90089509
:101DA0006F927F928F929F92AF92BF92CF92DF926B
:101DB000EF92FF920F931F93CF93DF93CDB7DEB7D0
:101DC00060970FB6F894DEBF0FBECDBF0E9486614C
:101DD0009F938F938091A9029091AA029F938F93D2
:101DE00088EA90E09F938F930E941A7580EC90E0B0
:101DF0009F938F930E941A758DEC90E09F938F9321
:101E00000E941A7584ED90E09F938F930E941A753B
:101E10008AED90E00E9443758091900A9091910A1A
:101E20002DB73EB7245F3F4F0FB6F8943EBF0FBEAD
:101E30002DBF97FD0DC09F938F9384EE90E09F93ED
:101E40008F930E941A750F900F900F900F9004C0FF
:101E50008AEF90E00E94437581E191E09F938F9318
:101E60000E941A750E94C012909387098093860978
:101E70009F938F9387E291E09F938F930E941A75AF
:101E800081E391E09F938F930E941A758091860958
:101E90009091870990938A098093890989E899E04C
:101EA0000E944012282F809388094DB75EB7485F83
:101EB0005F4F0FB6F8945EBF0FBE4DBF8823C9F0C9
:101EC0008091890990918A099F938F93822F9927F6
:101ED0009F938F9387E491E09F938F930E941A754D
:101EE0008DB79EB706960FB6F8949EBF0FBE8DBFF6
:101EF00004C08FE591E00E94437584E691E09F93D2
:101F00008F930E941A750E94551360938B097093EA
:101F10008C0980938D0990938E099F938F937F9363
:101F20006F938AE791E09F938F930E941A7585E8DB
:101F300091E09F938F930E941A750E94FE16EDB751
:101F4000FEB73A960FB6F894FEBF0FBEEDBF892BD1
:101F500079F00E949213892B29F010922E0A8BE9B6
:101F600091E00BC081E080932E0A81EA91E005C0E8
:101F700082E080932E0A8BEA91E00E944375809163
:101F80002E0A882389F085EB91E09F938F930E941E
:101F90001A750F900F9080912E0A813019F40E94CB
:101FA000A61302C00E9401198BEC91E09F938F93BE
:101FB0000E941A750E941B0E0F900F90892B21F41E
:101FC00081EE91E00E9443758091900A9091910A70
:101FD00097FDC7C10E94F2198823E1F78EE091E0D6
:101FE0000E94C3758091860990918709892B21F001
:101FF00086EF90E00E94C3758CE990E00E94C37563
:1020000080918609909187098050904240F080919C
:102010002E0A882321F080E690E00E94C3750E947A
:10202000F2198823E1F38032D1F3209186093091AF
:10203000870940E22030340728F08837A1F188353D
:1020400019F431C0232B71F0823611F0823451F42F
:1020500080912E0A813019F40E940514BBCF0E9492
:10206000EC17B8CF853611F0853451F480912E0AE3
:10207000813019F40E942B16ADCF0E941017AACF01
:102080008A3611F08A3439F484EE91E00E94437567
:102090000C9400F89FCF833719F0833509F09ACF5D
:1020A0000E94E01197CF8091740A99279F938F9394
:1020B0008091730A99279F938F938091720A992731
:1020C0009F938F938091710A99279F938F9380910B
:1020D000700A99279F938F9380916F0A99279F93F6
:1020E0008F938FEE91E09F938F930E941A7552E920
:1020F000E52E5AE0F52E60E270E09F2D8E2D0E94B5
:10210000891AFF2DEE2D01900020E9F73197EE1985
:10211000FF098DB79EB70E960FB6F8949EBF0FBEFF
:102120008DBF309709F45CC02E2F3F2F40E050E068
:10213000FF2DEE2D11C0908190334CF0892F8A53E2
:10214000873028F08D508A3110F0973614F02DE04A
:1021500030E04F5F5F4F31964217530764F32D30E5
:102160003105ACF520FD33C0822E932E95948794D3
:1021700035E7C32E3AE0D32EC818D908AA24BB24C9
:1021800022E9E22E2AE0F22E1EC0FF2DEE2D8081E4
:102190000E94C01F082F192FFF2DEE2D81810E9454
:1021A000C01F94E0000F111F9A95E1F7800FFD2DDD
:1021B000EC2D8193CE2EDF2E0894A11CB11C22E0C1
:1021C00030E0E20EF31EA814B904FCF209C089E164
:1021D00092E09F938F930E941A750F900F9063CF98
:1021E0008BEE9AE09F938F9389E292E09F938F9377
:1021F0000E941A756FE070E08C2F9D2F01960E944F
:10220000891A6EE07AE08AE392E00E94C71A8EE0B3
:102210009AE00E946A270F900F900F900F9061151F
:1022200071058105910509F441C06FE47AE085E408
:1022300092E00E94C71A6FE27AE08EE492E00E9478
:10224000C71A8FE29AE00E946A276115710581051D
:10225000910509F442C08EE09AE00E946A27A62EFA
:10226000B72EC82ED92E8FE49AE00E946A27662ED8
:10227000772E882E992E8FE29AE00E946A27E62E0A
:10228000F72E082F192F8FE49AE00E946A27A620C4
:10229000B720C820D920E622F72208231923AE143C
:1022A000BF04C006D10609F095CE17C08CE592E0B8
:1022B0009F938F930E941A7560E270E082E99AE022
:1022C0000E94891A0F900F908091920A882329F01A
:1022D000893519F0893709F07DCE8BE792E00E94AD
:1022E00043758EE09AE00E946A276093D00A70934B
:1022F000D10A8093D20A9093D30A8FE49AE00E9485
:102300006A276093C80A7093C90A8093CA0A909397
:10231000CB0A8FE29AE00E946A276093CC0A7093FE
:10232000CD0A8093CE0A9093CF0AAEEBBAE0EFE6E7
:10233000FAE086E001900D928150E1F70E940A2AAE
:102340008981882361F04FE050E06C2F7D2F6F5F13
:102350007F4F8BEE9AE00E94EA7C1092FA0A0E946C
:102360004C6160960FB6F894DEBF0FBECDBFDF9113
:10237000CF911F910F91FF90EF90DF90CF90BF9082
:10238000AF909F908F907F906F9008950E94355EE0
:1023900020E033E040E050E066E07BE188E992E055
:1023A0000E94D0618EEF0E94235C0E94A95CFDCF49
:1023B00085B78F7785BF1BBA8FEF8ABB15BA089593
:1023C000CF93DF938BEA92E00E94437580E391E024
:1023D0009F938F930E94A175CFEFDFEF0F900F9027
:1023E00021E030E040E050E080E12030380720F488
:1023F000F32FE22FF06102C0F32FE22F832F9927F2
:10240000822B8083220F331F4F5F5F4F4031510576
:1024100059F741E050E060E070E080E1403058075B
:1024200020F4F52FE42FF06102C0F52FE42F208176
:10243000852F9927842B281711F0CE2FDF2F440FDB
:10244000551F6F5F7F4F6031710539F768E873E1A1
:1024500080E090E00E94B01F0E94F219882309F4E6
:10246000BFCFDF93CF9387EC92E09F938F930E942F
:102470001A750F900F900F900F90DF91CF910895E4
:102480001F93CF93DF93B92FA82F2D913C911197D4
:102490002050304F81E0809301FFE0E0F0E103C085
:1024A0008083E050FF4FE217F307D0F3109200FF54
:1024B000E0E0F0E103C01082E050FF4FE217F307C5
:1024C000D0F381E0809301FFC0E0D0E105C08881B6
:1024D000813031F0C050DF4FC217D307C0F346C080
:1024E000209709F443C02C1B3D0B2D933C9311E026
:1024F000E12FFF27E050F1401083E050FF4F40E014
:1025000050E46E2F7F2F8C2F9D2F0E94737CFD2F08
:10251000EC2F04C08081811731F5319680E4E030E2
:10252000F807C0F3E0E0F0E105C080818823D9F42A
:10253000E050FF4FEC17FD07C0F390E011C0E92F0A
:10254000FF27E050F1409083FD2FEC2F04C08081E5
:10255000891749F4319680E4E030F807C0F39F5FB3
:10256000911769F706C0812F992706C080E090E097
:1025700003C01F5FC1F3BCCFDF91CF911F910895BE
:10258000EF92FF920F931F93CF93DF93CDB7DEB7F8
:1025900024970FB6F894DEBF0FBECDBF19828FEF20
:1025A0008A8385E58B838AEA8C8380E885BF00E097
:1025B00010E1EFEFEE2EFE2E89819A81AB81BC8176
:1025C000F12FE02F80839183A283B38344E050E016
:1025D0006C2F7D2F6F5F7F4F912F802F0E94557C36
:1025E000892B29F0E02EF12E0894E108F108005023
:1025F0001C4FE016F10600F700E010E10AC040E0D1
:1026000051E06FEF70E0912F802F0E94737C00509B
:102610001F4FE016F10698F7E0E0F0E121E031C04D
:1026200080818F3F59F08081809580939109F0934C
:102630009309E093920981E090E01DC0208391E02E
:102640008081891729F4990F9083992319F0F8CF85
:10265000992321F48081882399F004C0808190958A
:10266000892301C0808180939109F0939309E093BD
:10267000920982E090E09093900980938F0904C0C2
:102680003196EE16FF0660F69F2D8E2D8F5F9F40D0
:1026900024960FB6F894DEBF0FBECDBFDF91CF9169
:1026A0001F910F91FF90EF900895C498BC9AB89B2A
:1026B000C09AB99ABA9AC39A8CE58DB98EB18EB97F
:1026C0008FB1C49A87E58FB9779BFECF8FB11FB8C2
:1026D000779BFECF8FB1C498992787FD05C060E036
:1026E00070E020E030E016C0869586958F708330CC
:1026F00019F460E072E00CC0853019F460E074E019
:1027000007C0873019F460E078E002C060E070E054
:1027100028E031E01DB888279927442755270E94D3
:10272000257D089580910083807C19F081E280935B
:10273000008380910A8390910B838055904719F014
:102740008FEF9FEF089580E090E008951F9310E0D1
:1027500006C081EE92E00E94437553C011E0149AC6
:102760001C9A60ED77E080E090E00E94B01F1C981A
:1027700060E27EE480E090E00E94B01F112321F42B
:102780008091078387FD1FC080911F8380931F83E3
:1027900060E47DE083E090E00E94B01F20E030E044
:1027A0008091078387FD0FC02F5F3F4F2F3F31057B
:1027B000B9F789ED92E00E9443758091900A90915B
:1027C000910A97FDCCCF80910A8390910B8320E7EB
:1027D0008035920709F4BDCF9F938F9384EE92E0EA
:1027E0009F938F930E941A750F900F900F900F90E8
:1027F000112309F4B3CF8091900A9091910A97FD2B
:10280000ADCF80E090E01F910895AF92BF92CF923C
:10281000DF92EF92FF920F931F93CF93DF93CDB789
:10282000DEB726970FB6F894DEBF0FBECDBFAC2F34
:10283000BD2F1196E7ECF3E086E001900D928150F8
:10284000E1F78AE093E09F938F930E941A751092AC
:102850000F838FEF8093078382E28093008300E0F1
:102860000F900F908DE193E09F938F930E941A75C4
:1028700010911F8364EF71E080E090E00E94B01F30
:1028800010931F8390E00F900F908091078387FF34
:1028900053C080910A83803509F04EC080910B832C
:1028A000803709F049C081EE92E00E94437589E2C9
:1028B00093E09F938F930E941A7560E47DE083E01C
:1028C00090E00E94B01F81EE8093008380EC8093A3
:1028D00001831092068310E2109305831092018306
:1028E00060E573EC80E090E00E94B01F81E280938D
:1028F000008388E480930E8310920A8310920B83E6
:1029000010930C8382E080930D8380E48093048392
:102910008FE5809303838CE48093018380E680932A
:1029200002838FEF8093078381E680930083A0E08A
:10293000B0E00F900F9024C09F5F943109F0A5CFB5
:1029400089ED92E00E9443750A30A9F487E393E091
:102950000E944375149A1C9A60EA76E881E090E040
:102960000E94B01F1C9860E970ED83E090E00E9427
:10297000B01F0BE077CF0F5F043108F473CF5AC15B
:10298000FD2FEC2FEA0FFB1F8181AF5FBC478C93BB
:10299000A050B348A630B10599F7E8E0F3E81192EA
:1029A00023E8E031F207D9F78CE48093078381E2D2
:1029B0008093008384E080930C838FEF8093078360
:1029C00010920F8382E28093008310920D8360E463
:1029D00072E48FE090E00E94B01F80E493E00E94D8
:1029E000437582EE8093008380910383082F112723
:1029F000912F802F807C9070009721F0803C910572
:102A000079F521C085E493E09F938F930E941A7516
:102A10000F900F9003FF08C080E593E09F938F9382
:102A20000E941A750F900F9005FF08C08EE593E085
:102A30009F938F930E941A750F900F9004FF18C0F8
:102A400083E693E00FC088E693E09F938F930E9404
:102A50001A750F900F9003FF0BC080E593E002C042
:102A600081E793E09F938F930E941A750F900F90C8
:102A700002FF08C08FE793E09F938F930E941A751F
:102A80000F900F9003701070012B41F085E893E0D8
:102A90009F938F930E941A750F900F9080910483DB
:102AA00082958F709927877090709F938F938EE88F
:102AB00093E09F938F930E941A75809105830F90E6
:102AC0000F900F900F909927807C90708034910523
:102AD00081F0813491051CF4892B41F018C08038B5
:102AE000910551F0803C910591F409C085E993E08E
:102AF00008C08BE993E005C084EA93E002C08DEA48
:102B000093E09F938F930E941A750F900F908AE025
:102B100090E00E943C7582E280930083EE24FF24C3
:102B20000027112760E271EA87E090E00E94B01F61
:102B3000AE2CBF2CC02ED12E0894A11CB11CC11CE0
:102B4000D11C1F930F93FF92EF9286EB93E09F931C
:102B50008F930E941A758CED80930A8385E0809391
:102B60000B831092088380E48093098382E1809331
:102B700000838FEF80931083809310838093108362
:102B80008093108380931083809310838981809336
:102B900010838A81809310838B81809310838C8132
:102BA000809310838D81809310838E818093108316
:102BB00088E0809310831092108380E090E02DB71E
:102BC0003EB72A5F3F4F0FB6F8943EBF0FBE2DBFF2
:102BD00010921083019635E08C3D9307C9F782E28D
:102BE0008093008320E030E08091078386FD05C05C
:102BF0002F5F3F4F25313105B9F790E4909307835C
:102C00008CED8093058385E0809306839093048305
:102C100086E2809300830E94F219882359F460E1D0
:102C200077E280E090E00E94B01F1D2D0C2DFB2C60
:102C3000EA2C78CF26960FB6F894DEBF0FBECDBF34
:102C4000DF91CF911F910F91FF90EF90DF90CF9088
:102C5000BF90AF90089580E391E09F938F930E947F
:102C6000A1750F900F9081E28093008380910A8379
:102C700090910B839F938F938BEB93E09F938F9314
:102C80000E941A750E94F2190F900F900F900F90EA
:102C9000882349F386EC93E00E9443750895E82F5A
:102CA00083E080930EC0809108C08A7F982F98603F
:102CB00020E0782F7960582F5D60709308C05093A2
:102CC00008C02F5F2132C9F7909308C0492F446094
:102CD000409308C0709308C0509308C0662349F021
:102CE000909308C0409308C0709308C0509308C0E8
:102CF00008C0709308C0509308C0909308C04093D8
:102D000008C080E0909308C0409308C08F5F853072
:102D1000C9F760E120E030E08E2F862329F0709320
:102D200008C0509308C004C0909308C0409308C0E6
:102D300066952F5F3F4F2530310571F7909308C09E
:102D4000892F9927089560E00E944F16482F477FEA
:102D5000409308C0642F6460609308C020E030E0B6
:102D600050E0409308C0609308C0220F331F809149
:102D700008C099279695879581709070282B392BDC
:102D80005F5F503171F7409308C0932F822F0895F1
:102D9000CF93DF93D72FC62F61E00E944F16282FC5
:102DA000F82FF160F09308C0E82FE560E09308C0C9
:102DB000809308C0382F3460309308C060E070E81A
:102DC00040E050E08C2F9D2F86239723892B29F0FC
:102DD000F09308C0E09308C004C0209308C030936B
:102DE00008C0769567954F5F5F4F4031510551F7A9
:102DF000277F209308C0DF91CF91089580910FC065
:102E0000833359F483E080930EC080910AC0807FA1
:102E1000803919F480E090E008958FEF9FEF0895D6
:102E200080E391E09F938F930E94A1750F900F9084
:102E300083E080930EC080910AC099279F938F935F
:102E40008DEC93E09F938F930E941A750E94F21964
:102E50000F900F900F900F90882351F381EE93E025
:102E60000E9443750895CF93DF93D92FC82F0AC0CE
:102E7000809100C080FF0CC060ED77E080E090E0C2
:102E80000E94B01F21978FEFCF3FD80789F705C069
:102E9000CD2B19F48FEF9FEF02C080E090E0DF911F
:102EA000CF9108951F9310920DC010920EC01092F2
:102EB00004C080E8809305C011E010930EC010920A
:102EC00000C0809301C060E27EE480E090E00E9458
:102ED000B01F10920EC0109204C0109205C0109244
:102EE00000C0109201C010930EC010920CC088E078
:102EF00080930DC082E080930EC080E4809300C078
:102F000088EE93E00E943317892B19F08FEF9FEF23
:102F100002C080E090E01F910895CF93DF9360E0BE
:102F200070E880E00E94C816C0E0D0E060EA76E871
:102F300081E090E00E94B01F80E00E94A31697FFFE
:102F400006C0C430D10509F442C02196EFCF60E439
:102F50007DE083E090E00E94B01F82E10E94A31612
:102F600060EC7FE383E10E94C81610920EC080E1FE
:102F700080930AC088E080930BC061EE71E084E02A
:102F80000E94C816C0E0D0E08C2F9D2F8F779070E4
:102F9000892B59F460E072E180E00E94C81660E479
:102FA0007DE083E090E00E94B01F81E00E94A316C4
:102FB00085FF03C080E090E00CC060EE73E984E020
:102FC00090E00E94B01F2196C032D105E9F68FEF44
:102FD0009FEFDF91CF910895DF92EF92FF920F93D1
:102FE0001F93CF93DF93CDB7DEB726970FB6F89434
:102FF000DEBF0FBECDBFAC2FBD2F1196E6E7F4E0CC
:1030000086E001900D928150E1F782EE93E09F936C
:103010008F930E941A750E9452170F900F90892B60
:1030200019F086EF93E013C083E080930EC087E031
:1030300080930CC010920EC081E8809300C0109263
:1030400001C00E948D17892B59F083E094E00E9403
:103050004375C9C087E194E0FACF84E294E0F7CFEA
:1030600081E080930EC020E030E0A4E0B0ECFD2FC2
:10307000EC2F319681918D932F5F3F4F2630310594
:10308000C9F78FE094E00E944375EE24FF240027E7
:10309000112760E271EA87E090E00E94B01F1F9361
:1030A0000F93FF92EF9282E194E09F938F930E949F
:1030B0001A7582E080930EC0B0E2DB2ED09200C081
:1030C00084E690E00E9433172DB73EB72A5F3F4F4A
:1030D0000FB6F8943EBF0FBE2DBF892B09F0BACFB3
:1030E00088E080930DC080910CC083FD22C08DE1EB
:1030F00094E00E94437560E271EA87E090E00E94EC
:10310000B01F80910CC083FD14C080E4809300C088
:1031100088EE93E00E943317D09200C084E690E0DE
:103120000E943317892B09F05EC080910CC083FF89
:103130005AC010920DC0809103C0809302C01092BB
:1031400006C080E4809307C0109208C0109208C0A7
:103150008CED809308C085E0809309C08FEF809349
:1031600008C0809308C0809308C0809308C08093F3
:1031700008C0809308C08981809308C08A818093A9
:1031800008C08B81809308C08C81809308C08D819A
:10319000809308C08E81809308C088E0809308C027
:1031A000109208C08BED95E0109208C001973FEF98
:1031B0008F3F9307C9F7109208C0109208C084E6A9
:1031C00090E00E943317892B09F047CF80EC809361
:1031D00000C00E94F219882331F40894E11CF11C0C
:1031E000011D111D56CF26960FB6F894DEBF0FBEF7
:1031F000CDBFDF91CF911F910F91FF90EF90DF90A6
:1032000008950F931F9315980E945217892B19F058
:1032100086EF93E042C00D9B03C08CE294E03DC07A
:1032200083E080930EC087E080930CC010920EC0A4
:10323000109204C081E0809305C081E8809300C0B3
:10324000109201C00E948D17892B31F083E094E029
:1032500024C086E394E021C082E080930EC080E227
:10326000809300C084E690E00E943317892BB9F464
:1032700088E080930DC01FEF08C0115051F360ED3E
:1032800077E080E090E00E94B01F80910CC083FF47
:10329000F4CF0D9998C081E494E00E94437586E3D1
:1032A00094E08CC086EF93E085C000E082E08093DC
:1032B0000EC080E2809300C084E690E00E94331745
:1032C000892B11F41FEF0CC088E494E073C01150F7
:1032D00009F46EC060ED77E080E090E00E94B01FDE
:1032E00080910CC083FFF3CF809103C0809302C014
:1032F000109206C0109207C0E0E0F0E060E070E0DD
:1033000041E050E02FEF3FEF609306C0872F9927F1
:10331000809307C0209308C0409306C0852F99274B
:10332000809307C0832F9927809308C0319621503E
:1033300030406E5F7F4F4E5F5F4F84E0E030F807B4
:1033400019F740E050E020E030E0209306C0932FD2
:10335000822F9062892F9927809307C0809108C09F
:10336000909109C0809590958417950771F4482F26
:10337000592F4F5F5F4F2E5F3F4F94E0403059070A
:1033800020F30F5F033029F191CF5F934F939F9309
:103390008F9385E594E09F938F930E941A758DB764
:1033A0009EB706960FB6F8949EBF0FBE8DBF04C0A1
:1033B00086E394E00E9443758BE694E00E94437597
:1033C0008FEF9FEF0CC00E945217892B09F46DCF2D
:1033D00069CF8FE094E00E94437580E090E01F91F8
:1033E0000F9108955F9903C080E090E008958CB13B
:1033F00099270895AF92BF92CF92DF92EF92FF92FA
:103400000F931F93CF93DF93CDB7DEB765970FB6BA
:10341000F894DEBF0FBECDBFAC2FBD2F1196E6E8EE
:10342000F4E085E101900D928150E1F788E18AB9DD
:1034300021E0A22E55C0FF2DEE2D8081C82EDD2467
:1034400068EE73E080E090E00E94B01F5F998CB15D
:10345000C9B868EE73E080E090E00E94B01F5F9909
:103460008CB100E010E05F9911C068EE73E080E07D
:1034700090E00E94B01F0F5F1F4F0832110531F01E
:10348000F2CF02E010E091E0B92E03C001E010E0BD
:10349000BB245F9B06C08CB1803271F4BB2089F3E2
:1034A00025C0BB2031F064E670E080E090E00E942F
:1034B000B01F0F5F1F4F69F70894E11CF11C8C2FA0
:1034C0009D2F4696E816F90609F0B5CFA394F0E1D2
:1034D000AF1631F487E189B98FEFC82ED82E06C018
:1034E000EC2EFD2E0894E11CF11CA5CF9D2D8C2DFA
:1034F00065960FB6F894DEBF0FBECDBFDF91CF91BA
:103500001F910F91FF90EF90DF90CF90BF90AF9001
:103510000895CF92DF92EF92FF920F931F93CF9374
:10352000DF93082F192FC62ED72E5F998CB1EE246A
:10353000FF249D2D8C2D01978E159F05B4F05F9B68
:10354000FECF8CB1C82FDD278C2FCC23C1F3C03226
:1035500060F099270E943C75F12FE02FC1930E2F48
:103560001F2F0894E11CF11CE4CFF12FE02F1082F3
:103570008AE090E00E943C759F2D8E2DDF91CF91C7
:103580001F910F91FF90EF90DF90CF9008950F93D0
:103590001F93CF93DF93082F192FD72FC62FDF93B9
:1035A000CF931F930F938CE794E09F938F930E9488
:1035B0001A7560E270E082E99AE00E94891A2DB7DC
:1035C0003EB72A5F3F4F0FB6F8943EBF0FBE2DBFE8
:1035D000892BA9F082E99AE00E946A276F5F7F4FEA
:1035E0008F4F9F4F39F062E97AE08C2F9D2F0E9418
:1035F000B97C05C087E491E00E94C375D0CF8C2FC1
:103600009D2FDF91CF911F910F91089580912E0AE8
:10361000813039F445E060E073E889ED98E00E947C
:103620001D618EE09AE00E946A27A62EB72EC82E52
:10363000D92E611571058105910549F18FE49AE054
:103640000E946A27E62EF72E082F192F5D2D4C2D8C
:103650003B2D2A2D6FE67AE08BE994E00E94F32956
:10366000892BC9F181E991E09F938F930E94A17505
:103670000F900F908091900A9091910A97FD28C029
:1036800068EE73E080E090E00E94D75DF9CF20E61D
:103690003AEE40E050E06FE67AE08BE994E00E9479
:1036A000C43C892BC1F086E591E09F938F930E94E3
:1036B000A1750F900F908091900A9091910A97FDBB
:1036C00007C068EE73E080E090E00E94D75DF9CF1C
:1036D000F8940E9400006091C40A7091C50A80911C
:1036E000C60A9091C70A0E94BE279F938F9380912C
:1036F000C30A99279F938F938091C20A99279F931A
:103700008F938091C10A99279F938F938091C00ACC
:1037100099279F938F938091BF0A99279F938F93A7
:103720008091BE0A99279F938F9380EA94E09F939C
:103730008F930E941A756091C80A7091C90A80918E
:10374000CA0A9091CB0A0E94BE279F938F938BEC5D
:1037500094E09F938F930E941A758EE09AE00E94E6
:103760006A272DB73EB72C5E3F4F0FB6F8943EBF89
:103770000FBE2DBF6115710581059105A1F10FE205
:103780001AE0912F802F0E946A276115710581052B
:10379000910549F18091900A9091910A97FD0CC092
:1037A0001F930F9384ED94E09F938F930E941A755B
:1037B0000F900F900F900F90912F802F0E946A27EB
:1037C00029EDC22E28E0D22EE62EF72E082F192F33
:1037D00020E030E040E050E060E070E080E090E029
:1037E0000E94232625C02091CC0A3091CD0A409119
:1037F000CE0A5091CF0A2115310541055105C1F07E
:103800008091900A9091910A97FD12C0952F842F74
:10381000732F622F0E94BE279F938F9384EE94E0B4
:103820009F938F930E941A750F900F900F900F9097
:1038300080912E0A813019F0E0E0F0E004C0E091C0
:10384000E808F091E90867817085818592850E947A
:10385000BE279F938F938DEE94E09F938F930E944A
:103860001A7540E060E070E08FE798E00E941D610B
:103870006FE67CE183E195E00E942B4D67E07EE1FD
:103880008FE195E00E942B4D63EC7EE189E295E0AB
:103890000E942B4D66E57DE185E395E00E942B4D6E
:1038A0000F900F900F900F900E948424E82EF92E15
:1038B00060E570E00E941C256FE375E09F2D8E2D62
:1038C0000E949B72082F192F0E94C552912F802FA2
:1038D0000E9457729F2D8E2D0E94E423E5CF0F93F7
:1038E0001F93CF93DF93082F192FC091DA0AD0913D
:1038F000DB0A23E435E048EC50E00E94BD512FEF95
:103900003FEF4FEF5FEF66E475E0912F802F0E944D
:103910007951712F602F87E696E00E948875712F8C
:10392000602F8CEB95E00E9488754BC0EB89FC8979
:1039300080819181A281B3818F5E9E4BAD4ABE4D45
:1039400019F080E595E002C085E595E02889398980
:103950004F89588D9F938F93932F822F8E1B9F0B90
:103960009F938F933F932F938D899E899F938F93DE
:103970005F934F93EF85FF27EE0FFF1FE05AF94F3C
:10398000808191819F938F938A8999279F938F93A9
:103990002696DF93CF932697DF93CF938EE295E021
:1039A0009F938F931F930F930E9469750990D881FD
:1039B000C02D8DB79EB746960FB6F8949EBF0FBE2A
:1039C0008DBF209709F0B2CF712F602F85EA95E067
:1039D0000E948875912F802F0E94F27280E090E003
:1039E000DF91CF911F910F910895CF92DF92EF92C7
:1039F000FF920F931F93CF93DF93D92FC82FC62E1B
:103A0000D72EE42E7F936F938BEF96E09F938F9347
:103A1000DF93CF930E94697547E0F42E2DB73EB730
:103A20002A5F3F4F0FB6F8943EBF0FBE2DBF0F2D3C
:103A300011271F930F93DF92CF928AEC96E09F930A
:103A40008F93DF93CF930E9469758E2D992702C0C3
:103A5000959587950A95E2F72DB73EB7285F3F4FBA
:103A60000FB6F8943EBF0FBE2DBF80FF06C06C2F6F
:103A70007D2F87EB96E00E9488756C2F7D2F88E55F
:103A800095E00E94D874FA943FEFF31681F66C2FFC
:103A90007D2F81E695E00E94D874DF91CF911F9130
:103AA0000F91FF90EF90DF90CF900895EF92FF92EB
:103AB0000F931F93082F192F23E435E048EC50E0B3
:103AC0000E94BD512FEF3FEF4FEF5FEF66E475E0CF
:103AD000912F802F0E947951712F602F89EF91E0F3
:103AE0000E9488754AB369E675E0912F802F0E9485
:103AF000F51C49B36EE675E0912F802F0E94F51CEE
:103B00004BB363E775E0912F802F0E94F51C5FEEA9
:103B1000E52E51E0F52E712F602F9F2D8E2D0E94E6
:103B2000887547B369E775E0912F802F0E94F51CD7
:103B300046B36EE775E0912F802F0E94F51C48B3C5
:103B400063E875E0912F802F0E94F51C712F602F84
:103B50009F2D8E2D0E94887545B369E875E0912FE1
:103B6000802F0E94F51C712F602F9F2D8E2D0E949B
:103B7000887541B36FE875E0912F802F0E94F51C86
:103B800040B364E975E0912F802F0E94F51C42B389
:103B900069E975E0912F802F0E94F51C712F602F2D
:103BA0009F2D8E2D0E94887542B16FE975E0912F8F
:103BB000802F0E94F51C41B164EA75E0912F802F9F
:103BC0000E94F51C43B169EA75E0912F802F0E9495
:103BD000F51C712F602F9F2D8E2D0E94887540B18E
:103BE0006FEA75E0912F802F0E94F51C712F602FD6
:103BF0008DEC91E00E948875912F802F0E94F272C7
:103C000080E090E01F910F91FF90EF9008958F92C8
:103C10009F92AF92BF92CF92DF92EF92FF920F935B
:103C20001F93CF93DF93882E992E23E435E048EC41
:103C300050E00E94BD512FEF3FEF4FEF5FEF66E482
:103C400075E0992D882D0E947951792D682D88EF86
:103C500094E00E9488750E948D62E62EF72E082F50
:103C6000192F20E432E44FE050E00E94757DA22E2F
:103C7000B32EC42ED52E20E432E44FE050E09D2D2B
:103C80008C2D7B2D6A2D0E94257DE61AF70A080BE4
:103C9000190B912F802F7F2D6E2D24E630E040E010
:103CA00050E00E94757D3F932F93BF92AF9285EDB8
:103CB00094E09F938F939F928F920E946975C09119
:103CC000E20AD091E30A8DB79EB708960FB6F89432
:103CD0009EBF0FBE8DBF2097E9F1792D682D8DE431
:103CE00094E00E948875EE24FF2400271127888520
:103CF0009985AA85BB85E80EF91E0A1F1B1F8E85B4
:103D00009F859F938F938C859D859F938F938C81A7
:103D10009D81AE81BF81BF93AF939F938F931F937C
:103D20000F93FF92EF92DF93CF9382E094E09F9303
:103D30008F939F928F920E9469750990D881C02DB0
:103D40008DB79EB742960FB6F8949EBF0FBE8DBF3B
:103D5000209769F6792D682D8BEE93E00E94887587
:103D6000992D882D0E94F27280E090E0DF91CF9132
:103D70001F910F91FF90EF90DF90CF90BF90AF9089
:103D80009F908F900895EF92FF920F931F93CF9380
:103D9000DF93D92FC82F23E435E048EC50E00E9490
:103DA000BD512FEF3FEF4FEF5FEF66E475E08C2FD3
:103DB0009D2F0E9479516C2F7D2F85E593E00E9405
:103DC00088750FB6F8940F92E0909409F0909509D9
:103DD000AEC0FF2DEE2D008D118D002E012F102D68
:103DE00064897589868997890E94BE271F930F93DE
:103DF0009F938F93FF92EF9289E293E09F938F932B
:103E0000DF93CF930E946975FF2DEE2D068D178DE0
:103E1000002E012F102D628D738D848D958D0E9443
:103E2000BE271F930F939F938F9386E193E09F93F9
:103E30008F93DF93CF930E946975FF2DEE2D8389B9
:103E40002DB73EB72E5E3F4F0FB6F8943EBF0FBE64
:103E50002DBF853009F442C0863088F4823019F1D4
:103E6000833038F4882309F44DC0813009F04FC005
:103E700015C08330E9F0843009F049C01EC0883095
:103E8000B9F1893030F48630F9F0873009F03FC05D
:103E90002AC08930F1F08A30D1F52FC06C2F7D2FE8
:103EA00084EB95E038C06C2F7D2F8BEB95E033C011
:103EB0006C2F7D2F83EC95E02EC06C2F7D2F84EF2F
:103EC00092E00E94887529C06C2F7D2F8BEC95E0C5
:103ED00022C06C2F7D2F84ED95E01DC06C2F7D2FAF
:103EE0008DED95E018C06C2F7D2F87EE95E013C007
:103EF0006C2F7D2F8FEE95E00EC06C2F7D2F87EFFE
:103F000095E009C06C2F7D2F80E096E004C06C2FF7
:103F10007D2F87E096E00E94D8746C2F7D2F8DE076
:103F200096E00E94D874FF2DEE2DE080F180E11420
:103F3000F10409F04ECF0F900FBE6C2F7D2F8BED4B
:103F400092E00E9488758C2F9D2F0E94F27280E073
:103F500090E0DF91CF911F910F91FF90EF90089526
:103F600020E030E040E050E005C000002F5F3F4F10
:103F70004F4F5F4F2617370748075907B4F3089587
:103F8000982F80538A3030F4892F992787FD909598
:103F9000C0970895892F8156863038F4892F992744
:103FA00087FD9095875590400895892F81548630DC
:103FB00018F080E090E00895892F992787FD90956B
:103FC000C79708950F931F93CF93DF93082F192F4F
:103FD000C0919409D0919509FD2FEC2F1CC0808DC4
:103FE000918D80179107A1F4828D938DA48DB58D4D
:103FF00082179307A407B50759F4868D978D861706
:10400000970731F48389882319F08E2F9F2F18C0CA
:104010000190F081E02D309711F70EC08B8981302F
:1040200041F4888D998D8017910719F48C2F9D2F5D
:1040300007C00990D881C02D209781F780E090E0DB
:10404000DF91CF911F910F910895CF93DF93F92FB7
:10405000E82FD52FC42F892B09F459C080E1623095
:104060007807E1F080E16330780744F4623071054D
:1040700069F06150704109F044C032C080E16530A0
:104080007807B1F066507041E1F51AC0452B69F12F
:104090002230310551F5EE5AFF4F07C0452B29F16B
:1040A0002230310511F5E85BFF4F8081918124C0FA
:1040B000452BD9F024303105C1F4E659FF4F07C034
:1040C000452B99F02430310581F4EA59FF4F808166
:1040D0009181A281B38188839983AA83BB830EC017
:1040E000452B19F02230310529F0E05AFF4F86E1C7
:1040F00090E00BC0818992899983888380E090E069
:1041000008C0E05AFF4F8AE397E2918380838FEFE4
:104110009FEFDF91CF910895F92FE82F892B19F4A4
:1041200086E397E20895E05AFF4F808191810895D8
:10413000CF93DF93B92FA82FD52FC42F6A307105E5
:1041400061F06A30710534F06B30710599F06C30B4
:10415000710519F08FEF9FEF19C0FB2FEA2FE65B77
:10416000FF4FAA5BBF4F8D919C9120813181821BB3
:10417000930B04C0F92FE82F85859685AA27BB27C6
:1041800088839983AA83BB8380E090E0DF91CF91FD
:104190000895CF93DF93D92FC82F08C080819181D4
:1041A0008D939C938E2F9F2F0E94326AAC2FBD2F30
:1041B000A45BBF4FED91FC911197309779F708C040
:1041C0008081918199AF88AF8E2F9F2F0E94326A94
:1041D000E8ADF9AD3097A1F708C0808191818D934A
:1041E0009C938E2F9F2F0E94326AAC2FBD2FA05B15
:1041F000BF4FED91FC911197309779F7DF91CF91F7
:1042000008954F925F926F927F928F929F92AF929A
:10421000BF92CF92DF92EF92FF920F931F93CF93B3
:10422000DF93D92FC82F462E572E642E752E0E944D
:10423000A95C209761F08B89843061F08B8985308F
:1042400049F0C05ADF4F89E497E2998388834FEFA2
:104250005FEFC3C04114510409F4B1C0611471048B
:10426000A9F4ADC08B89843061F7CA59DF4F48810A
:1042700059816A817B81C656D0408C2F9D2F825BED
:104280009F4F0E947860892B09F099C0CA5BDF4F6D
:10429000888199812496C880D980CA54D0408C15D1
:1042A0009D0501F38C199D098615970518F0882442
:1042B000992449C0009719F4662477247DC0682E9C
:1042C000792EF5CFC45BDF4FA880B980CC54D040A5
:1042D000FB2DEA2D018912890C191D09F72CE62CFA
:1042E000E818F908952D842D880D991D678570892A
:1042F0000E151F0508F466C06C0D7D1D5F2D4E2D3B
:104300000E94647C8E0C9F1CCE0CDF1CE016F10614
:10431000D0F0C45BDF4FFB2DEA2D80819181998322
:104320008883CC54D040FD2FEC2FEA5BFF4F808177
:1043300091818C199D09918380839B2D8A2D0E94E8
:10434000326ACC24DD248614970408F4BBCFC65B04
:10435000DF4FD982C882CA54D0408B89843061F53E
:10436000FD2FEC2FEC5BFF4F40815181242F352F27
:10437000260D371DC85BDF4F88819981C854D04016
:104380002817390710F4932F822FCE5ADF4F288138
:104390003981C255D0402417350750F02817390706
:1043A00038F4918380838C2F9D2F0E949A2D04C016
:1043B000CC5BDF4F99838883572D462D0EC040E09C
:1043C00050E00BC06C0D7D1D512F402F0E94647C6E
:1043D000800E911EC00ED11E9CCF952F842FDF9191
:1043E000CF911F910F91FF90EF90DF90CF90BF90F2
:1043F000AF909F908F907F906F905F904F900895B7
:104400000E9401210895CF92DF92EF92FF920F93C5
:104410001F93CF93DF93D92FC82FC62ED72E042FEB
:10442000152F0E94A95C209709F458C0C114D1042B
:1044300009F457C00115110509F453C0CE5ADF4FD6
:10444000E880F980C255D0400E151F0510F4E02E0B
:10445000F12E8B898430E1F549A55AA58DA19EA145
:10446000481B590B242F352F3695279536952795C0
:10447000CE5ADF4F88819981C255D040281739071D
:1044800038F48DA99EA9841B950B8E159F0580F489
:10449000C659DF4F488159816A817B81CA56D04015
:1044A0008C2F9D2FCA960E947860892BD1F4D1CF92
:1044B00088A1806188A35F2D4E2D7D2D6C2D8C2FC2
:1044C0009D2F0E94EE2A892B49F45F2D4E2D0BC0A3
:1044D000C05ADF4F89E497E2998388834FEF5FEFFB
:1044E00002C040E050E0952F842FDF91CF911F91C3
:1044F0000F91FF90EF90DF90CF900895CF92DF92D1
:10450000EF92FF920F931F93CF93DF93C82ED92E74
:10451000E62EF72E042F152FC0E0D0E014C0512F47
:10452000402F4C1B5D0B7F2D6E2D6C0F7D1F9D2D25
:104530008C2D0E940322181619061CF0CFEFDFEF16
:1045400005C0C80FD91FC017D1074CF38C2F9D2F62
:10455000DF91CF911F910F91FF90EF90DF90CF905F
:104560000895AF92BF92CF92DF92EF92FF920F9396
:104570001F93CF93DF93D92FC82FA62EB72E042FCA
:10458000152F892B09F4CEC08B89843039F0C05A9D
:10459000DF4F89E497E299838883C4C0ED85FE8567
:1045A00041155105C9F4309709F4BEC06F8578896B
:1045B0004E2F5F2F8C2F9D2F0E947E222F853889B2
:1045C00097FF03C0932F822F8EC0932F822F0E94BC
:1045D000855A1E861D86A8C0C62ED72E69897A895F
:1045E000309771F54617570718F4E42EF52E1AC0C8
:1045F000952F842F0E944C7DE82EF92EC02ED12EAF
:10460000C81AD90A5D2D4C2D7B2D6A2D8C2F9D2F1C
:104610000E947E2297FD86C0E114F10409F484C053
:10462000CA0CDB1C89899A890E94085A988B8F874B
:10463000009709F477C05F2D4E2D7D2D6C2D68C03D
:104640008E2F9F2F840F951F2F85388986179707E8
:1046500078F47B2D6A2D8E2F9F2F820F931F0E943F
:10466000647C8D859E85800F911F9E878D875CC0A1
:10467000E62EF72EEE1AFF0A5F2D4E2D7B2D6A2DAA
:104680008E2F9F2F820F931F0E94647C49895A8925
:104690006F8578898C2F9D2F0E947E2299230CF1A3
:1046A000DB2CCA2CCE0CDF1C312F202F2E193F09FA
:1046B00069897A8926173707F0F0912F802F0E9499
:1046C0004C7DE82EF92EA22EB32EA81AB90A5B2D26
:1046D0004A2D7D2D6C2D8C2F9D2F0E947E2297FFC1
:1046E00007C08F8598890E94855A1E861D861AC02C
:1046F000CA0CDB1C02C0E22EF32E2F853889E11490
:10470000F10449F05F2D4E2D7D2D6C2D932F822FBE
:104710000E94647C04C0932F822F0E94855AFE86DB
:10472000ED8602C00FEF1FEF912F802FDF91CF9109
:104730001F910F91FF90EF90DF90CF90BF90AF90BF
:104740000895CF92DF92EF92FF920F931F93CF9332
:10475000DF93C82ED92EE62EF72ED52FC42F411564
:104760005105E9F0952F842F0E94085A082F192F20
:104770000097A9F04C2F5D2F7F2D6E2D0E94137C8A
:104780004C2F5D2F712F602F9D2D8C2D0E94B122FB
:10479000D92FC82F912F802F0E94855A0AC04C2FE5
:1047A0005D2F60E070E09D2D8C2D0E94B122D92FED
:1047B000C82F8C2F9D2FDF91CF911F910F91FF90CC
:1047C000EF90DF90CF9008950F931F93082F192F2C
:1047D00040E050E060E070E00E94B122912F802F15
:1047E0000E9400361F910F9108950F931F93CF934E
:1047F000DF93D92FC82F042F152F892B09F47DC0E3
:1048000080E16230780761F1E0E163307E0744F4D3
:104810006230710571F06150704109F068C04CC0A0
:1048200080E16530780771F16650704109F05FC032
:1048300031C04115510509F444C02230310509F059
:1048400040C08B89882329F0C05ADF4F88E497E263
:1048500052C0CE5ADF4FF52FE42F808191810FC0D7
:104860004115510571F12230310559F5F52FE42F2D
:1048700080819181C85BDF4F9983888324979983D6
:10488000888332C0452BE9F024303105D1F4C65974
:10489000DF4F07C0452BA9F02430310591F4CA59E8
:1048A000DF4FF12FE02F80819181A281B381888336
:1048B0009983AA83BB8318C0452B19F02230310598
:1048C00029F0C05ADF4F86E190E015C040E050E08B
:1048D00060E070E08C2F9D2F0E94B122F12FE02F1D
:1048E000808191819A8B898B80E090E008C0C05ACA
:1048F000DF4F8AE397E2998388838FEF9FEFDF9101
:10490000CF911F910F910895CF93DF9380919609D6
:10491000882359F40E94172D20E0892B09F421E007
:1049200020939609222309F44CC082E790E00E946C
:104930000B5B009709F445C0D92FC82F1B8A84E070
:104940008C8380E092E29E838D8381EB92E2988754
:104950008F8381EA93E29A87898788E990E29C872E
:104960008B870E941C5D69A37AA38BA39CA36DA374
:104970007EA38FA398A769A77AA78BA79CA7CC5BD8
:10498000DF4F80E99CE0998388832496998388830C
:104990002A9628E132E039832883269688EE93E030
:1049A00099838883C855D040809194099091950946
:1049B000998388833A8B298BD0939509C093940966
:1049C00002C0C0E0D0E08C2F9D2FDF91CF910895E1
:1049D000CF93DF93D92FC82F809194099091950997
:1049E000E4E9F9E007C08C179D0739F0F92FE82FAB
:1049F000808191810097B9F71CC08881998191834A
:104A000080838C2F9D2F0E94C9208D859E85892BA8
:104A100031F08F8598890E94855A1E861D8682E70F
:104A2000FD2FEC2F11928A95E9F78C2F9D2F0E9474
:104A3000855ADF91CF910895F92FE82F062E672F21
:104A4000702D718F608F0E94022F0895EF92FF9258
:104A50000F931F93CF93DF93D92FC82FE42EF52EFA
:104A6000062F172F532F422F892B09F471C08B89E2
:104A7000813029F4C05ADF4F8DE397E267C08B89FC
:104A8000882329F0C05ADF4F88E497E25FC0609125
:104A9000940970919509A0E0B0E18091820690910F
:104AA0008306019690938306809382068091820606
:104AB00090918306892B21F4B0938306A0938206FC
:104AC000F72FE62F0FC08091820690918306082E63
:104AD000892F902D208D318D28173907F1F2019003
:104AE000F081E02D309779F78091820690918306CE
:104AF000082E892F902D998F888F042E452F502DA9
:104B00005F8F4E8FEA8EFB8E0C8F1D8F40E050E042
:104B1000912F802F7F2D6E2D0E94FF25F92FE82FDA
:104B2000892B81F00784F089E02D87819085A1850C
:104B3000B2858C8B9D8BAE8BBF8B8C2F9D2F0E9453
:104B4000E32E08C0C05ADF4F81E597E2998388833E
:104B50008FEF9FEFDF91CF911F910F91FF90EF901B
:104B60000895EF92FF920F931F93CF93DF93E62E5A
:104B7000F72E082F192FD52FC42F622F6430A0F5E0
:104B8000E091B20AF091B30A14C086819781A085A2
:104B9000B1858E219F21A023B123228133814481BD
:104BA000558182179307A407B50731F00190F08172
:104BB000E02D309751F71AC0209761F082859385D8
:104BC000A485B5850097A105B10521F08883998357
:104BD000AA83BB8386859785892B41F46F5FE28426
:104BE000F38404851585CACFE0E0F0E08E2F9F2F77
:104BF000DF91CF911F910F91FF90EF900895F52FC6
:104C0000E42F452B21F010821182128213826F3F14
:104C10002FEF72072FEF82072FEF920729F4E09111
:104C2000B20AF091B30A07C020E04E2F5F2F0E9416
:104C3000B125F92FE82F309719F480E090E008951E
:104C40008685978508954F925F926F927F928F929B
:104C50009F92AF92BF92CF92DF92EF92FF920F930B
:104C60001F93CF93DF93CDB7DEB724970FB6F89499
:104C7000DEBF0FBECDBF462E572E682E792E822E58
:104C8000932EA42EB52EE982FA820B831C83E0902A
:104C9000B20AF090B30A02EB1AE006C01F2D0E2DE7
:104CA000BF2DAE2DED90FC90E114F10459F0FF2DD5
:104CB000EE2D86819781A085B18588169906AA0672
:104CC000BB0660F380E190E00E94085A282F392F3C
:104CD000009719F48FEF9FEF20C0482059206A20D9
:104CE0007B20F92FE82F428253826482758286826C
:104CF0009782A086B18689819A81AB81BC818287A7
:104D00009387A487B587D786C686F182E082B12FC4
:104D1000A02F2D933C9380E090E024960FB6F8945A
:104D2000DEBF0FBECDBFDF91CF911F910F91FF90DE
:104D3000EF90DF90CF90BF90AF909F908F907F903B
:104D40006F905F904F900895CF93DF93D92FC82F26
:104D500019821882E091B20AF091B30A06C0019656
:104D6000998388830190F081E02D88819981309723
:104D7000B1F724E0880F991F2A95E1F70E94085A9D
:104D80000097A9F0E091B20AF091B30A0DC0D92FB3
:104D9000C82FAE2FBF2F20E10D9009922150E1F7CF
:104DA00040960190F081E02D309789F702C019827A
:104DB0001882DF91CF9108954F925F926F927F9208
:104DC0008F929F92AF92BF92CF92DF92EF92FF921B
:104DD0000F931F93462E572E682E792E822E932ED8
:104DE000A42EB52E2FEF3FEF36C082819381A48190
:104DF000B58184159505A605B70519F586819781B6
:104E0000A085B18588159905AA05BB05D1F48285D1
:104E10009385A485B5858E159F05A007B10789F4F4
:104E2000868597858C159D0561F48081918190938D
:104E3000B30A8093B20A8E2F9F2F0E94855A20E0DA
:104E400030E0E091B20AF091B30A808191819093B1
:104E5000B30A8093B20AE091B20AF091B30A309794
:104E600021F6932F822F1F910F91FF90EF90DF90EB
:104E7000CF90BF90AF909F908F907F906F905F90FA
:104E80004F900895CF93DF93D92FC82F18C08685F0
:104E900097858C179D0711F0209759F48081918197
:104EA0009093B30A8093B20A8E2F9F2F0E94855A47
:104EB00006C0808191819093B30A8093B20AE091F9
:104EC000B20AF091B30A309711F780E090E0DF91D9
:104ED000CF910895CF93DF93CDB7DEB724970FB668
:104EE000F894DEBF0FBECDBFF92FE82F19821A82CA
:104EF0001B821C82AC2FBD2F119640E08081805315
:104F00008A3078F520E030E0932F822F6AE070E05D
:104F10000E94137D2191332727FD3095280F391FDB
:104F200020533040808180333CF08A332CF42F3F73
:104F3000310509F0B0F4E8CF2F3F310509F088F4CE
:104F40004F5F2C9380818E3239F0443051F4698167
:104F50007A818B819C8109C0443019F01196319679
:104F6000CDCF6FEF7FEF8FEF9FEF24960FB6F894C2
:104F7000DEBF0FBECDBFDF91CF910895BF92CF921C
:104F8000DF92EF92FF920F931F93CF93DF93CDB7F2
:104F9000DEB727970FB6F894DEBF0FBECDBF6C8388
:104FA0007D838E839F8394E0E92EF12CEC0EFD1E11
:104FB00040E007E919E050E0CC2EDD2E0894C11C3A
:104FC000D11C8EE2B82E01C0492FBF2DAE2D2C91E1
:104FD000822F6AE00E94407D382F8C93FD2DEC2DAE
:104FE000E40FF11D822F0E94407D905D9083942FED
:104FF0009F5F332349F7B12FA02F242F2095240F33
:105000006C2F7D2F6F5F7F4F06C0F72FE62FE90FC4
:10501000F11D80818D9391509217B9F74F5FF12F59
:10502000E02FE40FF11DAE2FBF2FBD920A2F1B2FD3
:105030005F5F543028F40894E11CF11C90E0C4CF69
:10504000108287E999E027960FB6F894DEBF0FBE6D
:10505000CDBFDF91CF911F910F91FF90EF90DF9027
:10506000CF90BF9008952F923F924F925F926F9290
:105070007F928F929F92AF92BF92CF92DF92EF92E8
:10508000FF920F931F93CF93DF93CDB7DEB72A978D
:105090000FB6F894DEBF0FBECDBF282E392E442E9A
:1050A000552E662E772E802E912EA22EB32ECD82D7
:1050B000DE82EF82F886F92FE82F0784F089E02D51
:1050C000FA87E987411551056105710581F4409022
:1050D000C40A5090C50A6090C60A7090C70A41146D
:1050E00051046104710419F48FEF9FEFAFC0E9859B
:1050F000FA85478250866186728681149104A104E4
:10510000B10441F484E896E00E946A27862E972E27
:10511000A82EB92EE985FA858786908AA18AB28A57
:10512000572D462D352D242D282139214A215B214B
:1051300029833A834B835C83D32CC22CEE24FF2437
:10514000002711275B2D4A2D392D282D69817A8161
:105150008B819C810E9423268D819E81AF81B885A1
:105160000097A105B10571F0E82EF92E0A2F1B2F2B
:1051700020E030E040E050E060E070E080E090E06F
:105180000E942326A5EBBAE0F32DE22D329689E0AA
:1051900001900D928150E1F7E985FA85818188239C
:1051A00079F48281882361F48381882349F484819E
:1051B000882331F48581882319F48681882351F06E
:1051C000AEEBBAE0E985FA85319686E001900D9262
:1051D0008150E1F74092C40A5092C50A6092C60A13
:1051E0007092C70A8092C80A9092C90AA092CA0A0D
:1051F000B092CB0A2D813E814F8158852115310512
:1052000041055105A9F48091CC0A9091CD0AA09155
:10521000CE0AB091CF0A88219921AA21BB212981E8
:105220003A814B815C8182179307A407B50761F02F
:105230008D819E81AF81B8858093CC0A9093CD0AF1
:10524000A093CE0AB093CF0A0E940A2A2A960FB6DC
:10525000F894DEBF0FBECDBFDF91CF911F910F91AC
:10526000FF90EF90DF90CF90BF90AF909F908F9086
:105270007F906F905F904F903F902F9008952F9266
:105280003F924F925F926F927F928F929F92AF92D6
:10529000BF92CF92DF92EF92FF920F931F93CF9323
:1052A000DF93CDB7DEB724970FB6F894DEBF0FBEFD
:1052B000CDBF7C836B83222E332E442E552E6E2C35
:1052C0007F2C802E912E0E94FD60F92FE82F0097F1
:1052D00009F46EC09A8389838385833009F068C09E
:1052E000A785B0898C918630A1F41196EB81FC8161
:1052F00001900D928150E1F7FD2CEC2CDB2CCA2C97
:10530000392D282D172D062D752D642D532D422D49
:105310004AC0873109F04CC0A188B288FB2DEA2D24
:1053200021A232A243A254A2E114F1040105110505
:1053300041F48FEF682E8FEF782E8FEF882E8FEF4E
:10534000982EFB2DEA2D61A672A683A694A69B2D0E
:105350008A2D0E940F60FB2DEA2DFF964C2F5D2FAA
:105360004F5F5F4F67E171E0808191810E94C6715C
:1053700040E65AEE60E070E09B2D8A2D0E94786036
:10538000892BB1F4FB2DEA2D84AD893089F4C5A0B9
:10539000D6A0E7A0F0A401A512A523A534A541A19C
:1053A00052A163A174A189819A810E94332802C00D
:1053B0008FEF9FEF24960FB6F894DEBF0FBECDBFE0
:1053C000DF91CF911F910F91FF90EF90DF90CF90E1
:1053D000BF90AF909F908F907F906F905F904F9015
:1053E0003F902F900895AF92BF92CF92DF92EF92AD
:1053F000FF920F931F93AA24BB24CC24DD240E9488
:105400003F291F910F91FF90EF90DF90CF90BF90B9
:10541000AF90089580E28093B40A40E250E064EBDC
:105420007AE080E490E00E94DA6A892B19F08FEF2D
:105430009FEF089580E090E00895CF93DF93D92FF8
:10544000C82F40E250E064EB7AE080E490E00E94F4
:10545000DD6A892B01F58091B40A803259F46C2FF2
:105460007D2F85EB9AE00E94AD7C892B19F480E0BA
:1054700090E013C0E4EBFAE080E2AE2FBF2F1D9264
:105480008A95E9F746E050E06FEF70E08E2F9F2F8E
:105490000A960E94737C8FEF9FEFDF91CF91089562
:1054A000AF92BF92CF92DF92EF92FF920F93CF9382
:1054B000DF93C82ED92EF92FE82FA780B084C3859B
:1054C000D4858D8582FD7AC0FD2DEC2D128A118A3E
:1054D00084E190E096878587288139818A819B8144
:1054E000998388833B832A838D85992784FF0FC006
:1054F00084E08D8788859985AA85BB858C839D836B
:10550000AE83BF83188619861A861B8620C02C811D
:105510003D814E815F8181FF10C0022E252F502DCD
:10552000032E342F402D2F5F3F4F4F4F5F4F022EE2
:10553000252F502D032E342F402D288739874A8759
:105540005B871C821D821E821F8284E18D8780E51D
:105550008C871F861E861B8A1A8A198A188AFD2D37
:10556000EC2DE584F6840E2CEF2CF02CFB2DEA2D8F
:105570002485358546855785608971898289938917
:1055800006E00E94DD36B92FA82F972F862FFD2D1C
:10559000EC2D458556856C2F7D2F0E94D836998B32
:1055A000888BFB2DEA2D44855585668577853D2DB5
:1055B0002C2D86E00E941237892B21F49D2D8C2DF5
:1055C0000E94326A80E090E0DF91CF910F91FF90CE
:1055D000EF90DF90CF90BF90AF9008956F927F9241
:1055E0008F929F92AF92BF92CF92DF92EF92FF92F3
:1055F0000F93CF93DF93CDB7DEB722970FB6F89412
:10560000DEBF0FBECDBFC82ED92EE62EF72E642EDC
:10561000752E452B31F4F92FE82F80A18B7009F4FA
:10562000BBC1FD2DEC2D80A181FF02C008E101C0AE
:1056300004E1402F552760E480E090E00E94486933
:10564000882E992E009709F4A1C0F92FE82FA38482
:10565000B484FD2DEC2D808D918DFB2DEA2D918351
:105660008083FD2DEC2D868D978DFB2DEA2D938368
:105670008283000F000F0487FD2DEC2D80A1877F12
:1056800080A381A592A5A3A5B4A5082E8B2FB02D2C
:10569000092E9A2FA02DFB2DEA2D84839583A683B6
:1056A000B783FD2DEC2D80A184FF24C080E1FB2D6C
:1056B000EA2D8587FD2DEC2D80A18F7E80A320E42F
:1056C00030E0C20ED31EFD2DEC2D80819181A28190
:1056D000B38120EC3FEFC20ED31E082E8B2FB02DCE
:1056E000092E9A2FA02DFB2DEA2D80879187A28766
:1056F000B38707C0FB2DEA2D15861086118612860A
:105700001386FD2DEC2D80A1992781FF31C022E564
:1057100030E0C20ED31EFD2DEC2D808191812EEA4A
:105720003FEFC20ED31E082E892F902D9A838983B6
:10573000FB2DEA2D858582608587FD2DEC2D80A1CE
:105740008D7F80A381A592A5A3A5B4A50196A11DD7
:10575000B11D81A792A7A3A7B4A782E0FB2DEA2DD4
:10576000848B84E0858B8981868B8A81878B52C06C
:1057700061147104C1F1572D462D60E8992D882DD3
:105780000E944869882E992E009759F420E630E04F
:10579000C20ED31E87E497E2FD2DEC2D918380830A
:1057A000F4C0572D462D7F2D6E2DF92FE82F8785BC
:1057B00090890E94647C862D972DAA27BB27FD2DFA
:1057C000EC2D21A532A543A554A5280F391F4A1F4A
:1057D0005B1F21A732A743A754A7FB2DEA2D858580
:1057E0008860858717C080FF15C0FB2DEA2D858551
:1057F00081608587FD2DEC2D80A18E7F80A381A502
:1058000092A5A3A5B4A50196A11DB11D81A792A73C
:10581000A3A7B4A724E430E0C20ED31EFD2DEC2DC7
:10582000208131814EE050E0C40ED51EFD2DEC2DBF
:10583000808191814EEA5FEFC40ED51E281739078B
:1058400028F4FB2DEA2D1786168607C0022E232F7B
:10585000302DFB2DEA2D37872687FB2DEA2D118A67
:10586000108A138A128AF92DE82DE584F68481893D
:105870009289E80EF91E0E2CEF2CF02CFD2DEC2D4C
:10588000228D338D448D558D6489758986899789DC
:1058900006E00E94DD36B92FA82F972F862FF92D0D
:1058A000E82D458556857B2D6A2D0E949C36F92D65
:1058B000E82D41895289678570890E94D836FB2D71
:1058C000EA2D918B808B672849F485859927837011
:1058D0009070892B19F4F92CE82C4AC0F92DE82D89
:1058E00011821082FD2DEC2DA0ADB1AD109799F471
:1058F00091AE80AE0E94D05E2EE530E0C20ED31E87
:10590000FD2DEC2D7183608322EA3FEFC20ED31E82
:1059100009C0B92FA82F8D919C9111970097C9F7B5
:105920008D929C923D2D2C2D2C5A3F4FF32FE22F20
:1059300080819181A281B3810097A105B10591F485
:10594000FB2DEA2D84819581A681B781082E8B2FAE
:10595000B02D092E9A2FA02DF32FE22F8083918353
:10596000A283B383992D882D0E944B6AE82EF92ECD
:10597000FD2DEC2D428D538D648D758D3F2D2E2D7B
:1059800086E00E941237892B19F08FEF9FEF06C037
:105990009F2D8E2D0E94326A80E090E022960FB6F5
:1059A000F894DEBF0FBECDBFDF91CF910F91FF9076
:1059B000EF90DF90CF90BF90AF909F908F907F90AF
:1059C0006F900895CF93DF93D92FC82FC05ADF4F20
:1059D000798368831A921A921A921A92CC55D040FF
:1059E0008B89863018F08AE08B8B01C01B8A8C2F44
:1059F0009D2F0E94C9208C2F9D2F825B9F4F0E945C
:105A00000F608C2F9D2FCA960E940F608C2F9D2FA8
:105A10008E599F4F0E940F608C2F9D2F8C599F4F46
:105A20000E940F6080E090E0DF91CF910895809117
:105A3000A7099091A809892B99F420E032E040E071
:105A400050E065EE70E382E996E00E94D0619093A9
:105A5000A8098093A709892B19F48FEF9FEF089568
:105A600080E090E00895CF92DF92EF92FF920F9343
:105A70001F93CF93DF93E82EF92EF92FE82F118291
:105A800010828091A7099091A809892B29F49F2D54
:105A90008E2D0E94502A45C0C090D40AD090D50ABD
:105AA000C114D10429F4F092D50AE092D40A30C08E
:105AB000FF2DEE2DC185D28585859685C80FD91F0E
:105AC00081899289C80FD91F0091A9091091AA094B
:105AD0000050184F0C0F1D1F0E94065B0817190776
