:100000000C9457000C94A4000C94A4000C94A4002D
:100010000C94A4000C94A4000C94B1470C94A4007C
:100020000C94A4000C94A4000C94A4000C94A400C0
:100030000C94A4000C94A4000C94A4000C94CA3F4B
:100040000C94A4000C94A4000C941B430C948143C6
:100050000C94A4000C94A4000C94A4000C94A40090
:100060006349664973497C497F4982498549884982
:100070009149BF49E949EE49F349F849FD49074A21
:100080000E4A164A214A2F4A604960496049604930
:100090003F4A424A454A5B4A5E4A6C4A60496F4A57
:1000A000754A784A7E4A814A874A8A4A924A80EC4F
:1000B00085BF87E089B911241FBECFEFDFE0DEBF27
:1000C000CDBF14E0A0E6B0E0EEE2FAEC0FEF03954E
:1000D0000BBF04C0D8950D923196C8F3A836B1076E
:1000E000C9F715E0A8E6B4E001C01D92AD38B1072C
:1000F000E1F78FEF9FE79EBF8DBF8FEF9FE78D5892
:1001000095408158914040F06FEF7EE76D58754003
:100110008DE895E00E942A350E94923B892B41F0A0
:100120006EE472E089E795E00E9456640E94793B94
:1001300020E831E040E050E06CE972E087E592E0D1
:100140000E94443E0C9400000C940000AF92BF92B9
:10015000CF92DF92EF92FF920F931F93CF93DF9393
:10016000CDB7DEB762970FB6F894DEBF0FBECDBF36
:1001700080E092ECA1E0B0E089879A87AB87BC87EA
:10018000AC2FBD2F1D96E8E4F2E086E001900D92C1
:100190008150E1F780E690E00E946A1C6D837E83C7
:1001A0008F83988740E060E070E086E893E00E94EB
:1001B0004A3B892B19F0AA24BB2459C04091CE0296
:1001C0005091CF026EE670E080E790E00E945725E4
:1001D000892B21F461E0A62EB12C17C08091CE02AC
:1001E0009091CF020E94EA244C2F5D2F475F5F4F12
:1001F00061E071E00E94BF24892B21F45BE0A52E11
:10020000B12C03C043E0A42EB12C4091D0025091F8
:10021000D1026EE670E080E790E00E945725892BBE
:1002200021F084E090E0A82AB92AA1FE20C00E9413
:10023000B33B9F938F9380914602909147029F9387
:100240008F9386E790E09F938F930E94CD258EE851
:1002500090E00E94EF258EE990E00E94EF258DB797
:100260009EB706960FB6F8949EBF0FBE8DBF45E0B1
:1002700060E073E882E094E00E944A3B892B09F039
:100280005CC080E190E0A82AB92A20E63AEE40E07E
:1002900050E060E070E080EB90E00E941C04892B4D
:1002A00089F03DE0C32ED12CCC0EDD1E20E63AEEC7
:1002B00040E050E07D2D6C2D80EB90E00E941C040E
:1002C000892B19F480E290E036C085EB90E00E9423
:1002D0006A1CE62EF72E082F192F83EC90E00E945F
:1002E0006A1C262F372F482F592F7D2D6C2D80EB20
:1002F00090E00E94F31E892B01F580E290E0A82A8D
:10030000B92A83ED90E00E946A1C22E0C22E24E00C
:10031000D22EE62EF72E082F192F20E030E040E0F5
:1003200050E060E070E080E090E00E94231B892BA9
:1003300021F480E490E0A82AB92AA5FE27C0A1FEF6
:1003400004C081EE90E00E94EF2580EF91EFAFEFC7
:10035000BFEF8093E1029093E202A093E302B09397
:10036000E4020C2F1D2F0F5F1F4F712F602F8C2F5A
:100370009D2F05960E948014892B41F480E890E01F
:10038000A82AB92A912F802F0E94C52892E0E92E31
:10039000F12CEA20FB20A1FE04C08FEF90E00E9428
:1003A000EF251B2D0A2D04701070A2FC03C060E025
:1003B00070E002C060E270E048E050E081E191E06E
:1003C0000E94111680E2C82ED12CCA20DB20A5FE87
:1003D00008C089E191E00E946A1C40E050E00E9460
:1003E000CB150E94B33B9F938F93809146029091CF
:1003F00047029F938F9389E291E09F938F9386E0CA
:1004000090E09F938F930E9400198DB79EB7089636
:100410000FB6F8949EBF0FBE8DBFA0FC03C089E449
:1004200091E00EC0EF2819F488E691E009C0012B95
:1004300019F480E891E004C0A3FC0EC088E991E0C3
:100440009F938F9383E090E09F938F930E94001976
:100450000F900F900F900F90A4FC03C080EB91E0E1
:1004600004C0CD2879F483ED91E09F938F9383E0CE
:1004700090E09F938F930E9400190F900F900F9020
:100480000F9042C0609142057091430580914405F0
:10049000909145050E94BE1C9F938F9388EF91E039
:1004A0009F938F9306E010E01F930F930E94001913
:1004B00060914A0570914B0580914C0590914D05D6
:1004C0000E94BE1C9F938F938EEF91E09F938F931A
:1004D0001F930F930E94001986E092E09F938F93E1
:1004E0001F930F930E9400198AE192E09F938F93CC
:1004F0001F930F930E9400198DB79EB744960FB6B5
:10050000F8949EBF0FBE8DBF0E9433359F938F938B
:1005100082E392E09F938F9387E090E09F938F9385
:100520000E94001960E67AEE80E090E00E940438B4
:100530008DB79EB70696E3CF0E94623820E033E085
:1005400040E050E066EA70E08CE592E00E94443EB4
:100550008EEF0E9450360E94D6360E941936FBCF8D
:10056000CF93DF93B92FA82FF92FE82F87E381933B
:1005700093E0DB2FCA2F9983AE2FBF2F119681E016
:100580008183FB2FEA2F918386E0828385E090E0D0
:10059000DF91CF91089580916D04992708958091FE
:1005A0006E0490916F0410926F0410926E0408957F
:1005B00020E030E080916D04853011F421E030E0DE
:1005C000932F822F0895DF92EF92FF920F931F9344
:1005D000CF93DF93D62EE22EF32E042F152F0E94F9
:1005E0002A3BD92FC82F892B51F08B85833039F4C2
:1005F000EF85F889309719F08081863049F081E1E4
:1006000090E090936F0480936E048FEF9FEF36C05D
:100610000E94FD38609378047093790480937A0483
:1006200090937B04E0927404F09275040093760436
:1006300010937704D0926D0480916B0490916C04B8
:10064000892B71F420E032E04C2F5D2F60E079E0DF
:1006500081E692E00E94443E90936C0480936B0488
:1006600080E794E00E94493A40E050E060E070E0AA
:1006700082E794E00E94A53A80E090E0DF91CF917C
:100680001F910F91FF90EF90DF900895F92FE82FC1
:10069000242F352F462F572F80916D04882349F042
:1006A00083E090E090936F0480936E048FEF9FEF50
:1006B000089568E08E2F9F2F0E94E3020895F92F7E
:1006C000E82F242F352F462F572F80916D0485302A
:1006D00049F083E090E090936F0480936E048FEF75
:1006E0009FEF089569E08E2F9F2F0E94E3020895E7
:1006F000CF92DF92EF92FF920F931F93CF93DF93EE
:10070000F92FE82F84E292E0AE2FBF2F1D920197C0
:10071000E9F781E08083818386E08283AE2FBF2F5B
:100720005C96CCE3D5E009900D928150E1F72483EB
:100730003583468357830C2CCD2CD02CD186C08694
:10074000E486F58606871787AE2FBF2FA451BF4FCB
:1007500093E6FB2FEA2F919382E8DB2FCA2F898340
:10076000AE2FBF2F119683E58183FB2FEA2F3196A1
:10077000DB2FCA2F9983AE2FBF2F119685E381837C
:1007800081E0FB2FEA2F8183628387E090E0DF9195
:10079000CF911F910F91FF90EF90DF90CF90089530
:1007A000CF93DF93CDB7DEB722970FB6F894DEBFB5
:1007B0000FBECDBFB92FA82F5A834983F92FE82F39
:1007C00061932E2F3F2F82E0FB2FEA2F81838981B7
:1007D0009A81082E892F902DF32FE22F9283818307
:1007E00084E090E022960FB6F894DEBF0FBECDBF36
:1007F000DF91CF9108950F931F93CF93DF93B92F7C
:10080000A82F952F842F022FFB2FEA2F6193DB2F28
:10081000CA2F29831127512F402F682F792F8E2F10
:100820009F2F01960E942364912F802F0296DF91C3
:10083000CF911F910F9108954F925F926F927F9287
:100840008F929F92AF92BF92CF92DF92EF92FF92E0
:100850000F931F93CF93DF93CDB7DEB760970FB69B
:10086000F894DEBF0FBECDBF682E792E462E572ED0
:100870002D873E874F87588B0E942A3BA82EB92E82
:10088000009779F0F92FE82F8385833051F4C784DE
:10089000D088C114D10429F0FD2DEC2D8081863043
:1008A00019F081E190E044C00C2F1D2F095F1F4F0C
:1008B000F12FE02F11928A95E9F746E050E06FEFB3
:1008C00070E08C2E9D2E0894811C911C992D882DF2
:1008D0000E943264FD2CEC2C0894E11CF11C46E0D3
:1008E00050E0712F602F9F2D8E2D0E941464892B54
:1008F00051F046E050E0792D682D9F2D8E2D0E94FD
:100900001464892B49F54114510451F0ACE3B5E06E
:10091000F52DE42D86E001900D92815071F0FBCF12
:10092000972D862D0E941D1F892B39F082E090E0C3
:1009300090936F0480936E04A2C0FF2DEE2DACE364
:10094000B5E086E00D9001928150E1F764EF71E02F
:1009500080E090E00E94043820914E0530914F05D0
:100960004091500550915105E0904605F0904705A3
:100970000091480510914905B52FA42F932F822F80
:100980008E219F21A023B1230097A105B10549F035
:100990002093420530934305409344055093450509
:1009A0005DC02D853E854F85588961E0972D862D48
:1009B0000E94E302892B09F062C080916D048530AA
:1009C00039F5E0916904F0916A04C584D684E7841E
:1009D000F0880581168127813085418152816381AC
:1009E00074819B2D8A2D0E94331DE0916904F09142
:1009F0006A04E588F6880789108D21893289438940
:100A0000548960E070E080E090E00E944D1034C0B6
:100A1000FD2DEC2D87819085A185B2850097A105DC
:100A2000B10551F5209142053091430540914405AF
:100A300050914505E0904605F09047050091480526
:100A400010914905B52FA42F932F822F8E219F211E
:100A5000A023B1230097A105B10589F0A0904A0514
:100A6000B0904B05C0904C05D0904D056CE375E0FF
:100A7000972D862D0E943F1E80E090E002C08FEFF0
:100A80009FEF60960FB6F894DEBF0FBECDBFDF912B
:100A9000CF911F910F91FF90EF90DF90CF90BF907B
:100AA000AF909F908F907F906F905F904F90089540
:100AB000CF93DF93D92FC82F892B81F089A59AA5D1
:100AC000009711F00E94D02B8BA59CA5009711F0E8
:100AD0000E94D02B8C2F9D2F0E94D02BDF91CF9185
:100AE0000895EF92FF920F931F93CF93DF93082FF8
:100AF000192FE62EF72ED52FC42FB92FA82F8D91A1
:100B00009C91009711F00E94D02B8C2F9D2F019665
:100B10000E94D32BF12FE02F91838083009779F0EF
:100B2000209731F04C2F5D2F7F2D6E2D0E94236476
:100B3000B12FA02FED91FC91EC0FFD1F1082DF91E2
:100B4000CF911F910F91FF90EF9008954F925F9278
:100B50007F928F929F92AF92BF92CF92DF92EF924D
:100B6000FF920F931F93CF93DF93082F192FE62E39
:100B7000F72E8DE290E00E94D32BD92FC82F00973B
:100B800009F431C1482E592E8DE2FD2FEC2F119220
:100B90008A95E9F780EC98EAA0E0B0E08DA39EA3E7
:100BA000AFA3B8A7F12FE02F80899189A289B389DB
:100BB00089839A83AB83BC8380EFC82ED12CC00E6F
:100BC000D11E00E1A02E0FEFB02EAE0CBF1CF6C060
:100BD000662339F40894C11CD11C0894A108B108FB
:100BE000EDC0FD2DEC2D7180872C9924A814B9043B
:100BF0000CF4F5C0653349F4F1E07F1609F0EFC05D
:100C0000FD2DEC2D82818883CDC06C3051F47D2D7B
:100C10006C2D6E5F7F4F592D482D8C2F9D2F8996FF
:100C20000BC06F3061F47D2D6C2D6E5F7F4F592DA1
:100C3000482D8C2F9D2F8B960E947105B3C0F3E039
:100C4000F71508F0AFC0FD2DEC2D22818381992787
:100C5000AA27BB27EE24F82E092F1A2FE20EF11C2B
:100C6000011D111D2581332744275527522F442765
:100C70003327222784819927AA27BB27B92FA82F9A
:100C800099278827280F391F4A1F5B1FE20EF31E82
:100C9000041F151F613029F4ED82FE820F8318872F
:100CA00081C06C3129F4E986FA860B871C877AC0EB
:100CB000633029F4ED86FE860F87188B73C066308B
:100CC00009F043C0E98AFA8A0B8B1C8BF7E0F71511
:100CD00008F068C0FD2DEC2D2681332744275527C9
:100CE0002D8B3E8B4F8B588F87819927AA27BB2747
:100CF000BA2FA92F982F8827820F931FA41FB51FE3
:100D00008D8B9E8BAF8BB88F20853327442755273B
:100D1000532F422F33272227280F391F4A1F5B1FCB
:100D20002D8B3E8B4F8B588F81859927AA27BB2708
:100D3000B82FAA2799278827280F391F4A1F5B1F1A
:100D40002D8B3E8B4F8B588F2DC0663329F4E98E47
:100D5000FA8E0B8F1C8F26C06A3359F40E2CE12EAD
:100D6000102D0F2CF02E002DED8EFE8E0F8F18A360
:100D700019C06B3359F40E2CE12E102D0F2CF02ED0
:100D8000002DE9A2FAA20BA31CA30CC0633351F4FB
:100D90000E2CE12E102D0F2CF02E002DEDA2FEA218
:100DA0000FA318A7C70CD11C82E090E0C80ED91E73
:100DB000A818B908EEEFFFEFAE0EBF1EFD2DEC2D0B
:100DC00060816F3F29F01A141B040CF401CF07C097
:100DD0008881823059F0853049F0863039F08C2F87
:100DE0009D2F0E945805442455243BC08D8D9E8D17
:100DF000AF8DB8A10097A105B10561F48DA19EA1A9
:100E0000AFA1B8A5B695A795979587958D8F9E8F1D
:100E1000AF8FB8A389A19AA1ABA1BCA10097A105EE
:100E2000B105F9F48D8D9E8DAF8DB8A1282F392F86
:100E30004A2F5B2F5695479537952795280F391FD1
:100E40004A1F5B1F62E0B695A795979587956A95AF
:100E5000D1F7280F391F4A1F5B1F29A33AA34BA3C1
:100E60005CA3952D842DDF91CF911F910F91FF9061
:100E7000EF90DF90CF90BF90AF909F908F907F903A
:100E80005F904F900895EF92FF920F931F93B92FA9
:100E9000A82FF12FE02FE20FF31FE451FF4F8FEF48
:100EA000808303511F4F81E00C32180710F40CE2CD
:100EB00011E0E02EF12E022F132F23E430E08A2FD1
:100EC0009B2F0E949F1997FD03C080E090E008C00F
:100ED00083E190E090936F0480936E048FEF9FEF17
:100EE0001F910F91FF90EF9008952F923F924F9294
:100EF0005F926F927F928F929F92AF92BF92CF92AA
:100F0000DF92EF92FF920F931F93CF93DF93CDB7B2
:100F1000DEB7282E392E442E552E662E772E822EA1
:100F2000932E512F402F3F2D2E2D1D2D0C2DFB2CA0
:100F3000EA2C9CEEA92EB12CA80CB91CCD8CDE8C11
:100F400063E0992D882D0E947803082F192F8D8931
:100F50009E89AF89B88D0097A105B10571F024E095
:100F60004C2F5D2F4B5E5F4F62E39B2D8A2D800FD0
:100F7000911F0E94FB03080F191F898D9A8DAB8D5D
:100F8000BC8D0097A105B10571F024E04C2F5D2FB9
:100F9000475E5F4F66E39B2D8A2D800F911F0E9455
:100FA000FB03080F191F9B2D8A2D800F911F0E9494
:100FB000B002080F191FA9E7B5E0FB2FEA2F019037
:100FC0000020E9F73197EA1BFB0B1E161F0664F49D
:100FD0002E2F4A2F5B2F6CE09B2D8A2D800F911FA7
:100FE0000E94FB03080F191F392D282D772D662D20
:100FF000552D442D932D822D0E944307DF91CF91D3
:101000001F910F91FF90EF90DF90CF90BF90AF9026
:101010009F908F907F906F905F904F903F902F9018
:1010200008956F927F928F929F92AF92BF92CF92CC
:10103000DF92EF92FF920F931F93CF93DF93CDB781
:10104000DEB7ED89FE89FF93EF9369887A888B88F4
:101050009C889F928F927F926F92DF92CF92BF92E5
:10106000AF92AE2CBF2CC02ED12EE22EF32E042F29
:10107000152F262F372F4FEF5FEF6FEF7FEF0E9477
:1010800075072DB73EB7265F3F4F0FB6F8943EBFAA
:101090000FBE2DBFDF91CF911F910F91FF90EF9069
:1010A000DF90CF90BF90AF909F908F907F906F9088
:1010B00008952F923F924F925F926F927F928F92FC
:1010C0009F92AF92BF92CF92DF92EF92FF920F93D7
:1010D0001F93CF93DF93CDB7DEB72C970FB6F8945D
:1010E000DEBF0FBECDBF98878F8349875A876B8736
:1010F0007C87622E732E8E2C9F2CA02EB12E0E94E8
:10110000FD38262E372E482E592ECE2CDF2CE02EE1
:10111000F12E04E212E0372D262D4C2F5D2F4F5F6C
:101120005F4F6C2F7D2F6D5F7F4F8F8198850E9461
:10113000341A282F392F1816190654F0892B09F460
:1011400044C084E190E090936F0480936E043DC0AE
:10115000823F9105A0F0B72DA62D8C91823079F4B5
:10116000F72DE62D84819581A681B78149855A8521
:101170006B857C8584179507A607B70731F10E9418
:10118000FD38C62ED72EE82EF92EC218D308E40853
:10119000F508BB2DAA2D992D882D8A5F9040A0407F
:1011A000B040C816D906EA06FB0668F49B2D8A2DC6
:1011B000792D682D6C197D098E099F09C62ED72EB1
:1011C000E82EF92EA6CF20E030E0932F822F2C9628
:1011D0000FB6F894DEBF0FBECDBFDF91CF911F9148
:1011E0000F91FF90EF90DF90CF90BF90AF909F90C6
:1011F0008F907F906F905F904F903F902F900895C9
:10120000CF93DF93CDB7DEB7A2970FB6F894DEBFCA
:101210000FBECDBF082F192F0E948D396D8B7E8B8D
:101220008F8B988F20914205309143054091440562
:10123000509145052C873D874E875F87F12FE02F22
:10124000078510891C8F0B8FF12FE02F868199273E
:10125000AA27BB27BA2FA92F982F88272581820F6D
:10126000911DA11DB11DBA2FA92F982F8827248168
:10127000820F911DA11DB11D6624782E892E9A2EF4
:101280008381680E711C811C911C1AA219A218A2DC
:101290001F8E1E8E1D8E1A8E198E198A1A8A1B8A0F
:1012A0001C8A188A70EA272E7FE0372E412C512C99
:1012B0003EC08091690490916A040E94580529A15A
:1012C0003AA130936A04209369040CC080916904A8
:1012D00090916A040E94580549A15AA150936A044A
:1012E0004093690410936D048D899E89AF89B88DF0
:1012F000898B9A8BAB8BBC8B16C0809169049091C3
:101300006A040E945805A9A1BAA1B0936A04A093E7
:10131000690410936D042D893E894F89588D298B5E
:101320003A8B4B8B5C8B1AA219A23F81388B488970
:101330004423E1F0220C331C441C551C51E02516BB
:101340005AEF350650E0450650E0550648F48FEF59
:101350009FEFAFEFBFEF88879987AA87BB8736C01B
:10136000212C5AEF352E412C512C28C080916D0430
:10137000833029F00894611C711C811C911CE09140
:101380006904F0916A04309799F0818D928DA38D54
:10139000B48D88879987AA87BB870097A105B10577
:1013A00039F040EA242E4FE0342E412C512C0EC04F
:1013B00030EA232E3FE0332E412C512C2FEF3FEF0C
:1013C0004FEF5FEF288739874A875B8780916D04ED
:1013D000882309F4E7C58091740490917504A09165
:1013E0007604B09177040097A105B10599F10E94A8
:1013F000FD38262F372F482F592F80917804909150
:101400007904A0917A04B0917B04281B390B4A0B14
:101410005B0B8091740490917504A0917604B09157
:101420007704281739074A075B0718F081E090E036
:1014300092C0682F792F8A2F9B2F621B730B840B0E
:10144000950B621573058405950520F4262E372E1D
:10145000482E592E80916D04823021F0863011F093
:10146000873041F538893323E9F00E948D392D8981
:101470003E894F89588D621B730B840B950B60500E
:1014800070408140904028F04FEF5FEF5A8F498FB6
:1014900011C00E948D39AD89BE896A1B7B0B7A8F82
:1014A000698F08C00E948D396D8B7E8B8F8B988FD2
:1014B0001A8E198E80916D04853011F08823C1F445
:1014C000EF8DF8A1309721F08E2F9F2F0E946E197B
:1014D0002D8D3E8D232B19F418A21F8E53C08D8D98
:1014E0009E8D0E94D02B18A21F8E1E8E1D8E4AC06C
:1014F0008091690490916A04892B51F4EB8DFC8DE5
:1015000087819085A185B2850097A105B10539F540
:101510002F8D38A1232B29F04D8D5E8D452B91F514
:101520000AC084E490E00E94F01998A38F8F8D8DFB
:101530009E8D892B31F484E292E00E94D32B9E8F02
:101540008D8FAF8DB8A1AB2B21F0ED8DFE8DEF2BE4
:1015500049F482E190E090936F0480936E041092BE
:101560006D04E5CE80EC96E09A83898322E030E03A
:101570004C2F5D2F4F5F5F4F62E070E18F8D98A120
:101580000E943619D0906D04F1E0DF16F9F408944A
:10159000611C711C811C911C80914605909147052E
:1015A000A0914805B09149052C853D854E855F8504
:1015B00082239323A423B5230097A105B10511F439
:1015C00082E001C084E080936D04D6C432E0D3167B
:1015D00009F01BC148894F5F4F835889543038F058
:1015E00081E090E090936F0480936E0492C48C85A8
:1015F0009D85AE85BF858B839C83AD83BE83AD8C7B
:10160000BE8CACEEB0E0AA0EBB1EC98CDA8CEE2408
:10161000FF2400271127592D482D372D262D61E055
:101620008D8D9E8D0E947803082F192F8B819C81B0
:10163000AD81BE810097A105B10571F024E04C2F6A
:101640005D2F4D5F5F4F62E39B2D8A2D800F911FB1
:101650000E94FB03080F191F9B2D8A2D800F911FDD
:101660000E94B002080F191FA9E7B5E0FB2FEA2F6F
:1016700001900020E9F73197EA1BFB0B1E161F06AD
:1016800064F42E2F4A2F5B2F6CE09B2D8A2D800F48
:10169000911F0E94FB03080F191F40E452E069E309
:1016A0009B2D8A2D800F911F0E94D003080F191FB8
:1016B0002D8D3E8D4FEF5FEF6FEF7FEF8F8D98A1F8
:1016C0000E94430797FF81C024C4E0906904F09012
:1016D0006A048D8D9E8D0E94A605082F192F0097F4
:1016E00009F45AC0F92FE82F8081823029F0912F18
:1016F000802F0E94580550C0E114F10409F44BC436
:101700002091420530914305409144055091450593
:101710008091460590914705A0914805B0914905F3
:1017200082239323A423B5230097A105B105C9F013
:10173000FF2DEE2D81819281A381B48182179307C1
:10174000A407B50709F429C4F12FE02F8181928104
:10175000A381B48182179307A407B50709F01DC4BC
:1017600011C0F12FE02F25A136A147A150A5FF2DD3
:10177000EE2D85A196A1A7A1B0A582179307A40776
:10178000B50728F49F2D8E2D0E94580504C4912F73
:10179000802F0E94580501C4F0926A04E092690407
:1017A000EF2899F08091740490917504A0917604CB
:1017B000B0917704805E9E42A040B040E8F020EAFD
:1017C000222E2FE0322E412C512C152D042DF32CDE
:1017D000E22C2D8D3E8D792D682D572D462D8F8D28
:1017E00098A10E945908682F792F181619060CF431
:1017F0006CCF99230CF48DC38091690490916A0495
:10180000892B09F4BAC383E0DECE23E0D21609F0B7
:101810005DC038893F5F3F834889443020F081E0D4
:1018200080936D04AAC3E0916904F0916A04A180D9
:10183000B280C380D480898D9A8D9F938F93818D40
:10184000928DA38DB48DBF93AF939F938F93EE240E
:10185000FF2400271127592D482D372D262D6D8D5A
:101860007E8D8F8D98A10E941108ADB7BEB71696D8
:101870000FB6F894BEBF0FBEADBF99230CF449C399
:10188000152D042DF32CE22C2D8D3E8D792D682DF8
:10189000572D462D8F8D98A10E945908682F792FBA
:1018A00099230CF436C3892B09F467C38D8D9E8D63
:1018B0000E94A6059AA389A3009709F436CDF92FB3
:1018C000E82F1081153009F418CD16C2F4E0DF16A8
:1018D00009F062C028892F5F2F83243040F081E017
:1018E00080936D041C861D861E861F8646C3498D07
:1018F0005A8D5F934F931F921F921F921F92AC8439
:10190000BD84CE84DF84EE24FF2400271127592DC7
:10191000482D372D262D6D8D7E8D8F8D98A10E949F
:101920001108ADB7BEB716960FB6F894BEBF0FBE7E
:10193000ADBF99230CF4EDC2152D042DF32CE22C30
:101940002D8D3E8D792D682D572D462D8F8D98A18B
:101950000E945908682F792F99230CF4DAC2892B39
:1019600009F40BC38D8D9E8D0E94A6059AA389A3B1
:10197000009709F4DACCF92FE82F1081153009F41B
:1019800098CC163009F0FEC281E080936D041C866D
:101990001D861E861F86F6C2F5E0DF1609F04EC0D2
:1019A00082E794E00E943C3AE0916904F0916A0475
:1019B000E58CF68C078D10A10E948D3929893A8912
:1019C0004B895C89621B730B840B950B6E157F052D
:1019D0008007910710F086E0F6CDE0916904F09160
:1019E0006A04E58CF68C078D10A10E948D39298937
:1019F0003A894B895C89621B730B840B950BE61A41
:101A0000F70A080B190B912F802F7F2D6E2D68334D
:101A100039E8730731E4830730E0930720F067E388
:101A200079E881E490E028EE33E040E050E00E9465
:101A30007164462F572F682F792F9AC246E0D4162B
:101A400009F0BAC0E0916904F0916A04A1A0B2A0C3
:101A5000C3A0D4A00E948D39E62EF72E082F192F8F
:101A6000952D842D732D622D28EE33E040E050E05B
:101A70000E94C16489899A89AB89BC89E81AF90AEC
:101A80000A0B1B0BAE18BF08C00AD10AA216B30678
:101A9000C406D506E0F4E0916904F0916A0421A03F
:101AA00032A043A054A00E948D3929893A894B89DC
:101AB0005C89621B730B840B950B28EE33E040E0CE
:101AC00050E00E947164261A370A480A590AE091C8
:101AD0006904F0916A04E1A0F2A003A114A10E949C
:101AE0008D3929893A894B895C89621B730B840B78
:101AF000950B6E157F058007910760F5E0916904ED
:101B0000F0916A04A180B280C380D480418D528D4F
:101B1000638D748D898D9A8D9F938F931F921F92E1
:101B20001F921F92DF92CF92BF92AF92192D082D74
:101B3000F72CE62C2D8D3E8D8F8D98A10E94750778
:101B4000ADB7BEB71A960FB6F894BEBF0FBEADBF05
:101B500097FF02C087E037CDB889BF5FBF83152DDF
:101B6000042DF32CE22C2D8D3E8D792D682D572DD3
:101B7000462D8F8D98A10E945908682F792F99239F
:101B80000CF4C7C1892B09F4F8C18D8D9E8D0E947C
:101B9000A6059AA389A3009709F4C7CBF92FE82FCC
:101BA0001081153009F4A9CB163009F0EBC187E09C
:101BB00080936D041F82E6C1F7E0DF1609F0A3C031
:101BC000E0916904F0916A04E1A0F2A003A114A1DC
:101BD0000E948D3929893A894B895C89621B730B74
:101BE000840B950BE61AF70A080B190BE214F304A1
:101BF00004051505B0F4E0916904F0916A0421A090
:101C000032A043A054A00E948D39261A370A480AF0
:101C1000590A89899A89AB89BC89281A390A4A0ADA
:101C20005B0AE0916904F0916A04E1A0F2A003A1CB
:101C300014A10E948D3929893A894B895C89621BDC
:101C4000730B840B950B6E157F058007910718F0B9
:101C5000D0926D0491C138893F5F3F83E091690460
:101C6000F0916A04E180F28003811481498D5A8DDC
:101C70005F934F931F921F921F921F92AE2CBF2C07
:101C8000C02ED12E592D482D372D262D6D8D7E8DB0
:101C90008F8D98A10E941108ADB7BEB716960FB6EA
:101CA000F894BEBF0FBEADBF99230CF432C1152D01
:101CB000042DF32CE22C2D8D3E8D792D682D572D82
:101CC000462D8F8D98A10E945908682F792F99234E
:101CD0000CF41FC1892B09F450C18D8D9E8D0E947B
:101CE000A6059AA389A3009709F41FCBF92FE82F23
:101CF0001081153009F4EACA163009F043C181E0B9
:101D000080936D043FC1F8E0DF1609F096C0288982
:101D10002F5F2F833889343008F0FBC0AD8CBE8C28
:101D20004CEE50E0A40EB51EEB8DFC8DE780F084E8
:101D300001851285CC24DD24592D482D372D262DE3
:101D400068E08D8D9E8D0E947803082F192F9B2DA2
:101D50008A2D800F911F0E94B002080F191FA9E75A
:101D6000B5E0FB2FEA2F01900020E9F73197EA1B3D
:101D7000FB0B61F02E2F4A2F5B2F6CE09B2D8A2DE1
:101D8000800F911F0E94FB03080F191F40E452E0CF
:101D900069E39B2D8A2D800F911F0E94D003080FAD
:101DA000191F2D8D3E8D488559856A857B858F8DC0
:101DB00098A10E94430797FF0BC0288539854A8563
:101DC0005B852F5F3F4F4F4F5F4F09F0D6C0A1C0DB
:101DD000152D042DF32CE22C2D8D3E8D792D682DA3
:101DE000572D462D8F8D98A10E945908682F792F65
:101DF000009709F4C2C0181619060CF08AC08D8D20
:101E00009E8D0E94A6059AA389A3009709F481C01C
:101E1000B92FA82F8C91853009F07BC0809169047F
:101E200090916A040E945805E9A1FAA1F0936A040E
:101E3000E09369041AA219A26CC0F9E0DF1609F058
:101E400080C0E0916904F0916A04309719F4288900
:101E50002F8342C038893F5F3F833130E9F5E1800D
:101E6000F28003811481818D928DA38DB48D8B833B
:101E70009C83AD83BE83CC24DD24592D482D372D82
:101E8000262D67E08D8D9E8D0E947803082F192FD7
:101E90008B819C81AD81BE810097A105B10581F048
:101EA0008D8D9E8D84519F4F24E04C2F5D2F4D5F73
:101EB0005F4F66E3800F911F0E94FB03080F191FFD
:101EC0002D8D3E8D488559856A857B858F8D98A19E
:101ED0000E94430797FF0BC088859985AA85BB851B
:101EE0008F5F9F4FAF4FBF4F09F047C012C0152DF6
:101EF000042DF32CE22C2D8D3E8D792D682D572D40
:101F0000462D8F8D98A10E945908682F792F97FF31
:101F100003C010926D0431C0892B79F18D8D9E8D97
:101F20000E94A6059AA389A3009709F4FEC9B92FB8
:101F3000A82F8C91853011F0863021F510926D0418
:101F400021C0DD2019F0B889BF8317C080916904D2
:101F500090916A040E94580510926A0410926904D4
:101F600082E794E00E943C3A40E050E060E070E09C
:101F700080E794E00E94A53A1F82E9A1FAA1EF2B25
:101F800009F4D3C989A19AA10E945805FF81F88B51
:101F90001AA219A2CCC9E02EF12EF0926A04E092A6
:101FA000690400CC80916D0489CAF92FE82F872F2E
:101FB00099278083618382E090E00895F92FE82FCC
:101FC000B72FA62F20813327322F222711963C933B
:101FD0002E9381819927282B392B2D933C9382E0D6
:101FE00090E00895EF92FF920F931F93CF93DF93AA
:101FF000D92FC82F062F172FB72FA62F8D919C9161
:10200000009731F00E94B234F12FE02F118210823C
:102010008881807C803C19F482E090E037C0AC2F4E
:10202000BD2F0D900020E9F7EA2EFB2EEC1AFD0AD9
:102030009F2D8E2D0E943534F92FE82FB12FA02F20
:102040008D939C9399912C2F3D2F15C08D91899341
:102050004150E0F7892F9927B32FA22FA80FB91F5E
:10206000E80FF91F9C91992311F08EE281932A2F9A
:102070003B2F2F5F3F4F992331F0492FCE2FDF2F7A
:10208000B32FA22FE5CF10829F2D8E2DDF91CF9100
:102090001F910F91FF90EF9008958F929F92AF92B2
:1020A000BF92CF92DF92EF92FF920F931F93CF9345
:1020B000DF93D92FC82FC62ED72E822E932EA42E73
:1020C000B52E80917C0490917D04009731F00E94A0
:1020D000B23410927D0410927C0480917E04909121
:1020E0007F04009731F00E94B23410927F04109266
:1020F0007E04209799F0FD2FEC2F01900020E9F746
:102100008E2F9F2F8C1B9D0B0E94353490937D0446
:1021100080937C046C2F7D2F0E945664C114D104DF
:1021200099F0FD2DEC2D01900020E9F78E2F9F2FC7
:102130008C199D090E94353490937F0480937E040E
:102140007D2D6C2D0E9456648092800490928104B3
:10215000A0928204B0928304E0928404F0928504F9
:102160000093860410938704DF91CF911F910F9104
:10217000FF90EF90DF90CF90BF90AF909F908F90A7
:102180000895EF92FF920F931F93EE24FF240027F0
:1021900011270E944D101F910F91FF90EF9008950D
:1021A0002F923F924F925F926F927F928F929F9267
:1021B000AF92BF92CF92DF92EF92FF920F931F9355
:1021C000CF93DF93CDB7DEB760970FB6F894DEBF3D
:1021D0000FBECDBF9E878D87788B6F8780918004DF
:1021E00090918104A0918204B09183040097A1058D
:1021F000B10569F48091840490918504A0918604CE
:10220000B09187040097A105B10509F40CC380E0E3
:1022100090E00E94F0199A878987892B09F403C3FB
:1022200080E092E00E943534882E992E1C861B8611
:102230006624772418861F8222243324AB84BC842E
:102240003B2D2A2D2F5F3F4F3C872B876114710454
:1022500041F48CE090E00E943835682E792E892B6D
:1022600071F02B853C85F72DE62D3183208380E0AE
:1022700091E09383828381E090E0958384838F81D2
:102280009885892B41F486E090E00E943835988744
:102290008F83892B39F1EF81F885808191810097B7
:1022A00011F00E94B234ED85FE8501900020E9F71F
:1022B0008E2F9F2F2D853E85821B930B0E943534D8
:1022C000EF81F885918380836D857E850E945664B9
:1022D0002F853889EF81F8853383228381E090E070
:1022E00095838483F72DE62D60817181992D882D4A
:1022F0000E94D50F082F192FF72DE62D62817381CB
:10230000992D882D800F911F0E94D50F080F191F3E
:10231000F72DE62D64817581992D882D800F911FF1
:102320000E94D50F080F191FF72DE62D66817781C2
:10233000992D882D800F911F0E94D50F080F191F0E
:10234000F72DE62D60857185992D882D800F911FC1
:102350000E94D50F080F191FF72DE62D6285738592
:10236000992D882D800F911F0E94D50FC02ED12E40
:10237000C80ED91EF92CE82CEC0CFD1CEF81F88559
:10238000A081B181FB2FEA2F01900020E9F70E2FE9
:102390001F2F015010400A1B1B0B0E5F1F4F4E2CAE
:1023A0005F2C0894411C511CFF2DEE2D10823F2DF7
:1023B0002E2D1EC0752D642D6F5F7F4F4A2F5B2F12
:1023C0004F5F5F4F8E3241F4F52DE42D1082B52F13
:1023D000A42F352D242D0AC0F52DE42D8083B52F93
:1023E000A42FF32FE22F80818F5F8083462E572EFC
:1023F0008C918823F9F6F52DE42D1082EF81F88574
:10240000628173819F2D8E2D800F911F0E94D50FA9
:10241000080F191FEF81F885648175819F2D8E2D1E
:10242000800F911F0E94D50FE02EF12EE80EF91EAD
:10243000EC0CFD1CA0FE0DC040918404509185045D
:1024400060918604709187044115510561057105FD
:1024500041F4409180045091810460918204709114
:102460008304192D082D25E330E089859A850E9483
:102470009F1997FD71C168EEC62E63E0D62EE12C40
:10248000F12C00E012E0392D282D4C2F5D2F4F5FED
:102490005F4F6C2F7D2F6D5F7F4F89859A850E94DE
:1024A000341A181619060CF051C10D9724F3772D24
:1024B000662D992D882D0E94DE0F082F192F772D5C
:1024C000662D6E5F7F4F992D882D800F911F0E9482
:1024D000DE0F080F191F772D662D6C5F7F4F992D2A
:1024E000882D800F911F0E94DE0F080F191F772D76
:1024F000662D6A5F7F4F992D882D800F911F0E9456
:10250000DE0F080F191F772D662D685F7F4F992DFD
:10251000882D800F911F0E94DE0F080F191F772D45
:10252000662D665F7F4F992D882D800F911F0E9429
:10253000DE0FA02EB12EA80EB91EF72DE62D80813C
:1025400091812B853C858217930709F094CFA114C4
:10255000B10409F4FBC084819581019709F0F6C0AC
:10256000192D082D0A0D1B1D6F817885912F802F45
:102570000E94F20FE82EF92E6F8178856E5F7F4FF3
:10258000912F802F8E0D9F1D0E94DE0FCE2CDF2CF1
:10259000C80ED91E6F8178856C5F7F4F912F802F79
:1025A0008C0D9D1D0E94DE0FE82EF92EF72DE62DD5
:1025B00086819781892B09F4CFC04C2C5D2C4E0C61
:1025C0005F1C4A0C5B1C51E0A52EB12CB0C021143D
:1025D000310431F48EE090E00E943835282E392EF7
:1025E000F92CE82CE40CF51C732D622D9F2D8E2DFB
:1025F0000E94F20F082F192F732D622D6E5F7F4FEF
:102600009F2D8E2D800F911F0E94DE0F080F191F26
:10261000732D622D6C5F7F4F9F2D8E2D800F911F2C
:102620000E94DE0F080F191F3F2D2E2D200F311F86
:10263000F32FE22F81916E2F7F2F9927AA27BB2797
:10264000BA2FA92F982F8827F32DE22D8683978301
:10265000A087B187F32FE22F218133274427552705
:10266000822B932BA42BB52BBA2FA92F982F882719
:10267000F32DE22D86839783A087B187F72FE62F6E
:102680002181332744275527822B932BA42BB52B4D
:10269000BA2FA92F982F8827F32DE22D86839783B1
:1026A000A087B187F72FE62F2281332744275527AC
:1026B000822B932BA42BB52BF32DE22D86839783AE
:1026C000A087B1870C5F1F4F732D622D665F7F4F10
:1026D0009F2D8E2D800F911F0E94DE0F080F191F56
:1026E000F32DE22DC284D38484859585009711F063
:1026F0000E94B2349D2D8C2D0E943534F32DE22D95
:1027000095878487E00EF11E5D2D4C2D7F2D6E2D5B
:102710000E942364F32DE22D82819381019779F049
:10272000C00ED11E4C0C5D1C0894A11CB11CF72DD1
:10273000E62D868197818A159B050CF048CFF32DF5
:10274000E22D82859385049709F441C02B853C8551
:102750002630310509F072CDEE24FF240027112721
:102760006114710421F0972D862D0E94B2348F815F
:102770009885009761F0F92FE82F8081918100976B
:1027800011F00E94B2348F8198850E94B2342114D6
:102790003104A1F0F32DE22D80819181009711F099
:1027A0000E94B234F32DE22D84859585009711F0B7
:1027B0000E94B234932D822D0E94B234992D882D1F
:1027C0000E94B23489859A850E946E1930C0F32D1B
:1027D000E22D64857585F72FE62F20818181992769
:1027E000AA27BB27EE24F82E092F1A2FE20EF11C80
:1027F000011D111D2381332744275527522F4427BC
:102800003327222782819927AA27BB27B92FA82FF0
:1028100099278827280F391F4A1F5B1FE20EF31ED6
:10282000041F151F9DCFEE24FF2400271127912F91
:10283000802F7F2D6E2D60960FB6F894DEBF0FBEF1
:10284000CDBFDF91CF911F910F91FF90EF90DF905F
:10285000CF90BF90AF909F908F907F906F905F9040
:102860004F903F902F9008956FE070E00E94D0103D
:10287000089561E070E00E94D0100895AF92BF9279
:10288000CF92DF92EF92FF920F931F93CF93DF933C
:10289000E62EF72E082F192FA22EB32EC42ED52EDA
:1028A00088E090E00E943534D92FC82F0097D9F0E6
:1028B000E882F9820A831B83AC82BD82CE82DF82EA
:1028C00020E031E0482F592F6CE575E187E692E072
:1028D0000E94443E892B19F080E090E006C08C2FC6
:1028E0009D2F0E94B2348FEF9FEFDF91CF911F9108
:1028F0000F91FF90EF90DF90CF90BF90AF90089531
:102900004F925F926F927F928F929F92AF92BF92FF
:10291000CF92DF92EF92FF920F931F93CF93DF93AB
:10292000CDB7DEB728970FB6F894DEBF0FBECDBF88
:10293000682E792E462E572E672B09F49AC0892BC4
:1029400009F497C080E091E09C838B8380E390E062
:102950000E943835A82EB92E892B09F48AC080E050
:1029600090E00E94F019882E992E009709F47AC001
:1029700022E030E04C2F5D2F4D5F5F4F62E070E151
:102980000E9436198BE1FB2DEA2D8083F72DE62D71
:10299000408151816281738190E3E92EF12C1B2DDE
:1029A0000A2D2BE730E0992D882D0E949F19892B45
:1029B00009F062C01D821E821F82188688E8C82E18
:1029C00083E1D82EE12CF12C00E310E03B2D2A2DE1
:1029D0004C2F5D2F4F5F5F4F6C2F7D2F6B5F7F4FB5
:1029E000992D882D0E94341A181619060CF044C02F
:1029F00089819A818B37910531F4FB2DEA2D8081F5
:102A0000807C803C61F4F72DE62D80819181A2814C
:102A1000B3818F5F9F4FAF4FBF4F71F5CBCFFB2D72
:102A2000EA2D80A591A5A2A5B3A5082E8B2FB02DC8
:102A3000092E9A2FA02D80589E47AA4AB348F52DFB
:102A4000E42D80839183A283B3838D819E81AF81A6
:102A5000B885F72DE62D80839183A283B38300E0B0
:102A600010E00CC00FEF1FEF9B2D8A2D0E94B23497
:102A70000AC00FEF1FEF07C00FEF1FEF992D882D32
:102A80000E946E19F1CF912F802F28960FB6F894DF
:102A9000DEBF0FBECDBFDF91CF911F910F91FF9091
:102AA000EF90DF90CF90BF90AF909F908F907F90EE
:102AB0006F905F904F900895CF93DF93CDB7DEB7BF
:102AC00028970FB6F894DEBF0FBECDBFF92FE82FC1
:102AD000E080F18002811381648075808680978018
:102AE000ED82FE820F8318870E94B2348FE30E942A
:102AF0005036AA24BB24CC2EDD2E0894C11CD11C38
:102B00007D2D6C2D8C2F9D2F05960E948014892B76
:102B100051F18D819E81AF81B8858E159F05A007EB
:102B2000B10771F08FEFE8168FEFF8068FEF080707
:102B30008FEF180729F4ED82FE820F831887DBCF11
:102B400083E0A816B1042CF060E375E780E090E024
:102B500012C00894A11CB11C68E873E180E090E009
:102B60000E940438C8CF9D2D8C2D0E94C528992D18
:102B7000882D772D662D0E940438BBCF20919502B9
:102B800030919602009721F09093960280939502DF
:102B9000932F822F0895F52FE42F20918A043091EE
:102BA0008B0440918C0450918D0460938A0470933F
:102BB0008B0480938C0490938D04309721F0F093D4
:102BC0009402E0939302952F842F732F622F089520
:102BD0008091940490919504009731F00E94D02B3D
:102BE0001092950410929404809190049091910415
:102BF000892B51F080919204909193040E94D02BE4
:102C0000109291041092900480918804909189040C
:102C1000009731F00E946E19109289041092880476
:102C20000895EF92FF920F931F93CF93DF93D92FC5
:102C3000C82F062F172FE42EF52E892B09F053C02D
:102C4000C0919204D0919304109291041092900438
:102C50000E94E81510938F0400938E04F092920264
:102C6000E09291022097E1F088818823C9F0FD2F3E
:102C7000EC2F01900020E9F73197EC1BFD0BF0934E
:102C80009104E09390048E2F9F2F01960E94D32BE6
:102C900090939304809392046C2F7D2F0E9456642E
:102CA00080918E0490918F0483FF28C080919404BA
:102CB00090919504892B41F480E091E00E94D32B00
:102CC0009093950480939404809188049091890452
:102CD000892BA1F482E092E00E94F019909389047C
:102CE000809388040BC00E94E81510938F04009312
:102CF0008E04F0929202E0929102B6CFDF91CF91D2
:102D00001F910F91FF90EF900895AF92BF92CF92D5
:102D1000DF92EF92FF920F931F93CF93DF93CDB784
:102D2000DEB724970FB6F894DEBF0FBECDBF082FD5
:102D3000192FC62ED72EA42EB52E8FEFE82E83E0A6
:102D4000F82EE022F122312F202F27703070809151
:102D500095029091960202C0959587952A95E2F783
:102D600080FFEEC08091940490919504892B69F4C2
:102D7000409191025091920260918E0470918F0463
:102D8000686080E090E00E941116087F1370012BAC
:102D900031F48091910290919202E82AF92A0C2F45
:102DA0001D2F0F5F1F4F912F802F0E94EA28912F18
:102DB000802F0E94B928F92FE82F89E795E09F938B
:102DC0008F93808191819F938F93828193819F9331
:102DD0008F93848195819F938F93868197819F9311
:102DE0008F938085918563E070E00E945F648956CF
:102DF0009D4F9F938F93FF92EF928DE692E09F936A
:102E00008F9380919404909195049F938F930E9447
:102E10001526E0919404F0919504AE2FBF2F0D90EC
:102E20000020E9F70A2F1B2F015010400E1B1F0B2B
:102E300080919004909191042DB73EB72E5E3F4F44
:102E40000FB6F8943EBF0FBE2DBF0097C9F00E5FBE
:102E50001F4F080F191F0F3F110511F008F070C028
:102E600060919204709193048E2F9F2F0E943D6475
:102E70006CE872E080919404909195040E943D6406
:102E80009D2D8C2D0E94FA63800F911F8F3F91051D
:102E900011F008F055C080919404909195045B2D39
:102EA0004A2D7D2D6C2D800F911F0E94752600915B
:102EB000940410919504B12FA02F0D900020E9F7F4
:102EC000EA2EFB2E0894E108F108E01AF10A80913D
:102ED0008E0490918F0485FF18C08091D00290914C
:102EE000D1020E94EA245F2D4E2D712F602F0E9487
:102EF000D4248091D0029091D1020E94EA2441E032
:102F000050E06FE872E00E94D42440918A0450910E
:102F10008B0460918C0470918D04411551056105FD
:102F2000710571F000919404109195042091930221
:102F30003091940280918804909189040E949F1995
:102F400024960FB6F894DEBF0FBECDBFDF91CF91B0
:102F50001F910F91FF90EF90DF90CF90BF90AF90B7
:102F60000895CF93DF93CDB7DEB722970FB6F894CD
:102F7000DEBF0FBECDBF4C2F5D2F455F5F4F5A8325
:102F8000498369857A858F8198850E948516229666
:102F90000FB6F894DEBF0FBECDBFDF91CF9108957D
:102FA000AF92BF92CF92DF92EF92FF920F931F9357
:102FB000CF93DF93CDB7DEB724970FB6F894DEBF7B
:102FC0000FBECDBF082F192FC62ED72EA42EB52E7B
:102FD0009FEFE92E93E0F92EE022F122312F202FEE
:102FE00027703070809195029091960202C095955D
:102FF00087952A95E2F780FFF2C080919404909122
:103000009504892B69F4409191025091920260914C
:103010008E0470918F04686080E090E00E94111629
:10302000087F1370012B31F48091910290919202EC
:10303000E82AF92A0C2F1D2F0F5F1F4F912F802F89
:103040000E94EA28912F802F0E94B928F92FE82F9B
:1030500089E795E09F938F93808191819F938F93D0
:10306000828193819F938F93848195819F938F9386
:10307000868197819F938F938085918563E070E02F
:103080000E945F6489569D4F9F938F93FF92EF92AA
:103090008DE692E09F938F93809194049091950494
:1030A0009F938F930E941526E0919404F0919504CC
:1030B000AE2FBF2F0D900020E9F70A2F1B2F0150D4
:1030C00010400E1B1F0B80919004909191042DB71E
:1030D0003EB72E5E3F4F0FB6F8943EBF0FBE2DBFDA
:1030E0000097C9F00E5F1F4F080F191F0F3F110502
:1030F00011F008F074C060919204709193048E2FC7
:103100009F2F0E943D646CE872E08091940490913E
:1031100095040E943D64FD2DEC2D01900020E9F7FF
:103120003197EC19FD09E00FF11FEF3FF10511F0A8
:1031300008F055C080919404909195045B2D4A2D20
:103140007D2D6C2D800F911F0E94342600919404D8
:1031500010919504B12FA02F0D900020E9F7EA2ED1
:10316000FB2E0894E108F108E01AF10A80918E0420
:1031700090918F0485FF18C08091D0029091D10268
:103180000E94EA245F2D4E2D712F602F0E94D424BF
:103190008091D0029091D1020E94EA2441E050E057
:1031A0006FE872E00E94D42440918A0450918B040D
:1031B00060918C0470918D04411551056105710574
:1031C00071F0009194041091950420919302309134
:1031D000940280918804909189040E949F192496FA
:1031E0000FB6F894DEBF0FBECDBFDF91CF911F9118
:1031F0000F91FF90EF90DF90CF90BF90AF90089528
:10320000CF93DF93CDB7DEB722970FB6F894DEBF2A
:103210000FBECDBF4C2F5D2F455F5F4F5A83498353
:1032200069857A858F8198850E94D01722960FB67E
:10323000F894DEBF0FBECDBFDF91CF910895282F48
:10324000392FE0912E05F0912F050BC082819381DB
:103250008217930719F48E2F9F2F08950190F08104
:10326000E02D309799F780E090E00895B92FA82FCE
:10327000F52FE42F892B89F06250704171F4452BB2
:1032800061F02230310549F480819181FB2FEA2FD2
:103290009387828780E090E008958FEF9FEF0895F5
:1032A000CF93DF93B92FA82FF52FE42F892B89F027
:1032B0006250704171F4452B61F02230310549F4C0
:1032C000DB2FCA2F8A859B859183808380E090E0E5
:1032D00002C08FEF9FEFDF91CF910895CF93DF93DF
:1032E000D92FC82FE0912E05F0912F05AEE2B5E061
:1032F0001FC080819181EC17FD07B1F48D939C93E1
:1033000008C0808191819D838C838E2F9F2F0E9486
:10331000D13CEC81FD813097A1F78C2F9D2F0E942D
:10332000B23480E090E008C0AE2FBF2FF92FE82F15
:103330003097F9F68FEF9FEFDF91CF9108956F925D
:103340007F928F929F92AF92BF92CF92DF92EF9235
:10335000FF920F931F93CF93DF93682E792EA42EA5
:10336000B52EC62ED72E822E932E5F2D4E2D60E8C1
:1033700080E090E00E94E73BD92FC82F892B19F4F9
:103380000FEF1FEF1CC05F2D4E2D712F602F8F850B
:1033900098890E9423640C2F1D2F392D282D7D2DF7
:1033A0006C2D5B2D4A2D972D862D0E94501F082FC6
:1033B000192F892B21F48C2F9D2F0E94D13C912F06
:1033C000802FDF91CF911F910F91FF90EF90DF90B1
:1033D000CF90BF90AF909F908F907F906F90089507
:1033E000CF93DF93D92FC82F892B11F540912E054C
:1033F00050912F05C091BC02D091BD02219611F4CD
:10340000C0E0D0E12C2F3D2F022E232F302DF52FA1
:10341000E42F08C0828193818217930779F301908A
:10342000F081E02D3097B1F7D093BD02C093BC027C
:103430008CE090E00E943835F92FE82F892B79F045
:103440000C2ECD2FD02DD383C28380912E05909149
:103450002F0591838083F0932F05E0932E058E2F07
:103460009F2FDF91CF9108954F925F926F927F923D
:103470008F929F92AF92BF92CF92DF92EF92FF9284
:103480000F931F93CF93DF93A82EB92E862E972EDE
:10349000642E752E422E532EF92FE82FC481D5812C
:1034A000209781F47F2D6E2D5D2D4C2D06960E9468
:1034B000A53AFB2DEA2DC481D581209719F440E06F
:1034C00050E03CC088819981FB2DEA2D958384834F
:1034D000EF81F88584859585A685B785F92DE82D3A
:1034E00080839183A283B383EB85FC858081918166
:1034F000082E892F902DF72DE62D91838083E98862
:10350000FA883F2D2E2D0E151F0510F4E02EF12EFA
:10351000FB2DEA2D80859185821B930B91878087F7
:103520006F8578895F2D4E2D952D842D0E94236403
:103530008C2F9D2F0E94D13C5F2D4E2D952F842FD7
:10354000DF91CF911F910F91FF90EF90DF90CF907F
:10355000BF90AF909F908F907F906F905F904F90B3
:103560000895EF92FF920F931F93CF93DF93E62E70
:10357000F72E082F192FD52FC42F622F6430A0F5F6
:10358000E0913005F091310514C086819781A085C6
:10359000B1858E219F21A023B123228133814481D3
:1035A000558182179307A407B50731F00190F08188
:1035B000E02D309751F71AC0209761F082859385EE
:1035C000A485B5850097A105B10521F0888399836D
:1035D000AA83BB8386859785892B41F46F5FE2843C
:1035E000F38404851585CACFE0E0F0E08E2F9F2F8D
:1035F000DF91CF911F910F91FF90EF900895F52FDC
:10360000E42F452B21F010821182128213826F3F2A
:103610002FEF72072FEF82072FEF920729F4E09127
:103620003005F091310507C020E04E2F5F2F0E943A
:10363000B11AF92FE82F309719F480E090E008953F
:103640008685978508954F925F926F927F928F92B1
:103650009F92AF92BF92CF92DF92EF92FF920F9321
:103660001F93CF93DF93CDB7DEB724970FB6F894AF
:10367000DEBF0FBECDBF462E572E682E792E822E6E
:10368000932EA42EB52EE982FA820B831C83E09040
:103690003005F090310500E315E006C01F2D0E2D1A
:1036A000BF2DAE2DED90FC90E114F10459F0FF2DEB
:1036B000EE2D86819781A085B18588169906AA0688
:1036C000BB0660F380E190E00E943534282F392F4B
:1036D000009719F48FEF9FEF20C0482059206A20EF
:1036E0007B20F92FE82F4282538264827582868282
:1036F0009782A086B18689819A81AB81BC818287BD
:103700009387A487B587D786C686F182E082B12FDA
:10371000A02F2D933C9380E090E024960FB6F89470
:10372000DEBF0FBECDBFDF91CF911F910F91FF90F4
:10373000EF90DF90CF90BF90AF909F908F907F9051
:103740006F905F904F900895CF93DF93D92FC82F3C
:1037500019821882E0913005F091310506C001967A
:10376000998388830190F081E02D88819981309739
:10377000B1F724E0880F991F2A95E1F70E943534AC
:103780000097A9F0E0913005F09131050DC0D92FD7
:10379000C82FAE2FBF2F20E10D9009922150E1F7E5
:1037A00040960190F081E02D309789F702C0198290
:1037B0001882DF91CF9108954F925F926F927F921E
:1037C0008F929F92AF92BF92CF92DF92EF92FF9231
:1037D0000F931F93462E572E682E792E822E932EEE
:1037E000A42EB52E2FEF3FEF36C082819381A481A6
:1037F000B58184159505A605B70519F586819781CC
:10380000A085B18588159905AA05BB05D1F48285E7
:103810009385A485B5858E159F05A007B10789F40A
:10382000868597858C159D0561F4808191819093A3
:103830003105809330058E2F9F2F0E94B23420E0F7
:1038400030E0E0913005F0913105808191819093D5
:10385000310580933005E0913005F09131053097C6
:1038600021F6932F822F1F910F91FF90EF90DF9001
:10387000CF90BF90AF909F908F907F906F905F9010
:103880004F900895CF93DF93D92FC82F18C0868506
:1038900097858C179D0711F0209759F480819181AD
:1038A00090933105809330058E2F9F2F0E94B23464
:1038B00006C0808191819093310580933005E0911D
:1038C0003005F0913105309711F780E090E0DF91FD
:1038D000CF910895CF93DF93CDB7DEB724970FB67E
:1038E000F894DEBF0FBECDBFF92FE82F19821A82E0
:1038F0001B821C82AC2FBD2F119640E0808180532B
:103900008A3078F520E030E0932F822F6AE070E073
:103910000E945F642191332727FD3095280F391FBE
:1039200020533040808180333CF08A332CF42F3F89
:10393000310509F0B0F4E8CF2F3F310509F088F4E4
:103940004F5F2C9380818E3239F0443051F469817D
:103950007A818B819C8109C0443019F0119631968F
:10396000CDCF6FEF7FEF8FEF9FEF24960FB6F894D8
:10397000DEBF0FBECDBFDF91CF910895BF92CF9232
:10398000DF92EF92FF920F931F93CF93DF93CDB708
:10399000DEB727970FB6F894DEBF0FBECDBF6C839E
:1039A0007D838E839F8394E0E92EF12CEC0EFD1E27
:1039B00040E006E914E050E0CC2EDD2E0894C11C56
:1039C000D11C8EE2B82E01C0492FBF2DAE2D2C91F7
:1039D000822F6AE00E948C64382F8C93FD2DEC2D91
:1039E000E40FF11D822F0E948C64905D9083942FD0
:1039F0009F5F332349F7B12FA02F242F2095240F49
:103A00006C2F7D2F6F5F7F4F06C0F72FE62FE90FDA
:103A1000F11D80818D9391509217B9F74F5FF12F6F
:103A2000E02FE40FF11DAE2FBF2FBD920A2F1B2FE9
:103A30005F5F543028F40894E11CF11C90E0C4CF7F
:103A4000108286E994E027960FB6F894DEBF0FBE89
:103A5000CDBFDF91CF911F910F91FF90EF90DF903D
:103A6000CF90BF9008952F923F924F925F926F92A6
:103A70007F928F929F92AF92BF92CF92DF92EF92FE
:103A8000FF920F931F93CF93DF93CDB7DEB72A97A3
:103A90000FB6F894DEBF0FBECDBF282E392E442EB0
:103AA000552E662E772E802E912EA22EB32ECD82ED
:103AB000DE82EF82F886F92FE82F0784F089E02D67
:103AC000FA87E987411551056105710581F4409038
:103AD000420550904305609044057090450541149F
:103AE00051046104710419F48FEF9FEFAFC0E985B1
:103AF000FA85478250866186728681149104A104FA
:103B0000B10441F48EEB92E00E946A1C862E972E3F
:103B1000A82EB92EE985FA858786908AA18AB28A6D
:103B2000572D462D352D242D282139214A215B2161
:103B300029833A834B835C83D32CC22CEE24FF244D
:103B4000002711275B2D4A2D392D282D69817A8177
:103B50008B819C810E94231B8D819E81AF81B885C2
:103B60000097A105B10571F0E82EF92E0A2F1B2F41
:103B700020E030E040E050E060E070E080E090E085
:103B80000E94231BA3E3B5E0F32DE22D329689E0DA
:103B900001900D928150E1F7E985FA8581818823B2
:103BA00079F48281882361F48381882349F48481B4
:103BB000882331F48581882319F48681882351F084
:103BC000ACE3B5E0E985FA85319686E001900D9287
:103BD0008150E1F7409242055092430560924405BE
:103BE000709245058092460590924705A09248053F
:103BF000B09249052D813E814F81588521153105AF
:103C000041055105A9F480914A0590914B05A09179
:103C10004C05B0914D0588219921AA21BB2129810C
:103C20003A814B815C8182179307A407B50761F045
:103C30008D819E81AF81B88580934A0590934B0515
:103C4000A0934C05B0934D050E940A1F2A960FB60B
:103C5000F894DEBF0FBECDBFDF91CF911F910F91C2
:103C6000FF90EF90DF90CF90BF90AF909F908F909C
:103C70007F906F905F904F903F902F9008952F927C
:103C80003F924F925F926F927F928F929F92AF92EC
:103C9000BF92CF92DF92EF92FF920F931F93CF9339
:103CA000DF93CDB7DEB724970FB6F894DEBF0FBE13
:103CB000CDBF7C836B83222E332E442E552E6E2C4B
:103CC0007F2C802E912E0E942A3BF92FE82F0097FF
:103CD00009F46EC09A8389838385833009F068C0B4
:103CE000A785B0898C918630A1F41196EB81FC8177
:103CF00001900D928150E1F7FD2CEC2CDB2CCA2CAD
:103D0000392D282D172D062D752D642D532D422D5F
:103D10004AC0873109F04CC0A188B288FB2DEA2D3A
:103D200021A232A243A254A2E114F104010511051B
:103D300041F48FEF682E8FEF782E8FEF882E8FEF64
:103D4000982EFB2DEA2D61A672A683A694A69B2D24
:103D50008A2D0E943C3AFB2DEA2DFF964C2F5D2FB9
:103D60004F5F5F4F67E171E0808191810E94BF24C6
:103D700040E65AEE60E070E09B2D8A2D0E94A53A45
:103D8000892BB1F4FB2DEA2D84AD893089F4C5A0CF
:103D9000D6A0E7A0F0A401A512A523A534A541A1B2
:103DA00052A163A174A189819A810E94331D02C02E
:103DB0008FEF9FEF24960FB6F894DEBF0FBECDBFF6
:103DC000DF91CF911F910F91FF90EF90DF90CF90F7
:103DD000BF90AF909F908F907F906F905F904F902B
:103DE0003F902F900895AF92BF92CF92DF92EF92C3
:103DF000FF920F931F93AA24BB24CC24DD240E949E
:103E00003F1E1F910F91FF90EF90DF90CF90BF90DA
:103E1000AF90089580E28093320540E250E062E383
:103E200075E080E490E00E94793D892B19F08FEFD6
:103E30009FEF089580E090E00895CF93DF93D92F0E
:103E4000C82F40E250E062E375E080E490E00E9419
:103E50007C3D892B01F580913205803259F46C2F1D
:103E60007D2F83E395E00E944A64892B19F480E05A
:103E700090E013C0E2E3F5E080E2AE2FBF2F1D9289
:103E80008A95E9F746E050E06FEF70E08E2F9F2FA4
:103E90000A960E9432648FEF9FEFDF91CF910895D1
:103EA0004F925F926F927F928F929F92AF92BF924A
:103EB000CF92DF92EF92FF920F931F93CF93DF93F6
:103EC000CDB7DEB724970FB6F894DEBF0FBECDBFD7
:103ED000482E592E642E752E862E972EE22EF32E06
:103EE000912F802F48E050E060E40E94E73BA82E2D
:103EF000B92E009719F48FEF9FEF6EC0F92FE82FBE
:103F0000C384D484F52DE42D82819381FD2DEC2D85
:103F1000918380830E2CEF2CF02CF382E282FB2D18
:103F2000EA2D8585968521893289820F931F082E77
:103F3000892F902DFD2DEC2D958384834C2F5D2FA3
:103F40004F5F5F4F992D882D772D662D0E94FF1AA8
:103F5000F92FE82F892B61F00784F089E02D878104
:103F60009085A185B28589839A83AB83BC8304C085
:103F700019821A821B821C82FD2DEC2D178216825B
:103F8000E480F58069817A818B819C8101E1592DE2
:103F9000482D372D262D0E944420B92FA82F972F6A
:103FA000862F48E050E07D2D6C2D0E940320FB2DD4
:103FB000EA2D41895289678570890E943F20FD2D35
:103FC000EC2D978386833B2D2A2D792D682D572D37
:103FD000462D81E10E94792024960FB6F894DEBF29
:103FE0000FBECDBFDF91CF911F910F91FF90EF904A
:103FF000DF90CF90BF90AF909F908F907F906F9009
:104000005F904F900895EF92FF920F931F93E82EC9
:10401000F92E00271127F72FE62F11C0818199274C
:10402000982F882720813327822B932BAA27BB2701
:10403000E80EF91E0A1F1B1F3296425050404230B4
:10404000510560F7452B61F08081E80EF11C011DE0
:10405000111D06C000271127E80EF91E0A1F1B1F9D
:10406000912F802FAA27BB270097A105B10591F7B3
:104070009F2D8E2D1F910F91FF90EF9008950E941C
:104080000320809590950895EF92FF920F93CF9320
:10409000DF93CDB7DEB72C970FB6F894DEBF0FBE17
:1040A000CDBF69837A838B839C832D833E834F832B
:1040B000588719860A87FC86EB864CE050E06C2F07
:1040C0007D2F6F5F7F4F80E090E00E940320AA2742
:1040D000BB27682F792F8A2F9B2F2C960FB6F89429
:1040E000DEBF0FBECDBFDF91CF910F91FF90EF905C
:1040F00008956F927F928F929F92AF92BF92CF92CC
:10410000DF92EF92FF920F931F93CF93DF93CDB780
:10411000DEB72A970FB6F894DEBF0FBECDBF182FBB
:10412000642E752E862E972E932F822F44E150E019
:1041300060E20E94E73BA82EB92E009709F43EC129
:10414000F92FE82FE780F08485E4FF2DEE2D8083A2
:104150001182FB2DEA2D8185928525853685820F7A
:10416000931F21893289820F931F082E892F902D4A
:10417000FF2DEE2D9383828317821682123011F465
:1041800081E003C080E4FF2DEE2D8087FF2DEE2D12
:104190001187608A718A828A938AFFEF6F16FFEF18
:1041A0007F06FFEF8F06FFEF9F0609F06DC046E028
:1041B00050E06FEF70E08C2F9D2F05960E943264C7
:1041C000C090B404D090B50420E030E054C0FD2D80
:1041D000EC2D8385833009F04AC007851089F12FC3
:1041E000E02F858996890196968B858B0197082EFD
:1041F000892F902DFF2DEE2D95838483F12FE02FB5
:1042000087819085A185B285FF2DEE2D84879587C6
:10421000A687B78713861286FB2DEA2D4185528526
:104220006781708580E090E00E943F20FF2DEE2D99
:1042300093878287F12FE02F8081A78DB0A18630F0
:1042400049F43B2D2A2D4C2F5D2F4B5F5F4F60E0D3
:1042500078E006C03B2D2A2D40E050E061E270E09E
:104260009D2D8C2DEA2FFB2F0995282F392FFD2D01
:10427000EC2DC080D180C114D10409F4A1C0211556
:10428000310509F4A4CF9CC04C2F5D2F4F5F5F4FC9
:10429000992D882D772D662D0E94FF1AC82ED92EB4
:1042A000009709F487C0F92FE82F07851089F12FAF
:1042B000E02F858996890196968B858B0197082E2C
:1042C000892F902DFF2DEE2D95838483F12FE02FE4
:1042D00087819085A185B285FF2DEE2D84879587F6
:1042E000A687B78713861286FB2DEA2D4185528556
:1042F0006781708580E090E00E943F20FF2DEE2DC9
:1043000093878287F12FE02F8081863009F03EC0AD
:1043100049815A816B817C81411551056105710587
:10432000D9F487859089A189B28986299729A829F6
:10433000B9298F5F9F4FAF4FBF4F51F446E050E018
:104340006FEF70E08C2F9D2F05960E94326411C094
:10435000792D682D572D462D2C2F3D2F2B5F3F4F4C
:104360009D2D8C2D0E940423892B19F020E030E034
:1043700027C0F12FE02FA78DB0A13B2D2A2D4C2F68
:104380005D2F4B5F5F4F60E078E00CC0873191F4A8
:10439000F12FE02FA78DB0A13B2D2A2D40E050E05A
:1043A00061E270E09D2D8C2DEA2FFB2F0995282FBF
:1043B000392F06C09B2D8A2D0E94D13C2FEF3FEF55
:1043C000932F822F2A960FB6F894DEBF0FBECDBF73
:1043D000DF91CF911F910F91FF90EF90DF90CF90E1
:1043E000BF90AF909F908F907F906F9008950F93A4
:1043F0001F93CF93DF93F92FE82FC789D08D082F14
:10440000192F095E1F4F1CC08C8580FF14C08C2F94
:104410009D2F0E960E94043A88819981F12FE02FFA
:10442000918380838C2F9D2F0E94D02BF12FE02F22
:10443000C081D18105C00C2F1D2F0990D881C02DBE
:10444000209711F7DF91CF911F910F9108950F934E
:104450001F93CF93DF930E948D392091A604309152
:10446000A7044091A8045091A904621B730B840B0C
:10447000950B6C3371058105910508F440C00E94CD
:104480008D396093A6047093A7048093A804909339
:10449000A9040091B4041091B5042EC0D12FC02FEF
:1044A0008B85833029F5AF85B889109709F18C91F8
:1044B0008630F1F4DB2FCA2FEF89F88D20E010C091
:1044C000948592FD08C085858F5F858781508930EE
:1044D00010F0916094878485282B0190F081E02D65
:1044E000309771F720FF04C08A2F9B2F0E94F7217D
:1044F000F12FE02F008111810115110579F6DF916F
:10450000CF911F910F910895AF92BF92CF92DF92FA
:10451000EF92FF920F931F93CF93DF93A82EB92EA4
:10452000E42EF52E062F172FC22ED32E0E942722FF
:1045300080E190E00E94D32BF92FE82F892B09F11D
:1045400080E1AE2FBF2F1D928A95E9F7E282F382B8
:1045500004831583C114D10461F0CE2FDF2F26967A
:10456000BD2DAC2D86E00D9009928150E1F782E0DF
:104570008487DB2DCA2D8F89988D91838083F88F56
:10458000EF8B8E2F9F2FDF91CF911F910F91FF9077
:10459000EF90DF90CF90BF90AF900895CF93DF93CF
:1045A000F92FE82FC785D089EF89F88D0CC082815B
:1045B0009381A481B58184179507A607B70731F0C9
:1045C0000190F081E02D309791F717C0848582FD2E
:1045D0000EC01586CE2FDF2F2696B32FA22F86E092
:1045E0000D9009928150E1F78485826084878E2F37
:1045F0009F2F0E960E943C3A04C08C2F9D2F0E9444
:104600008422DF91CF9108952F923F925F926F9213
:104610007F928F929F92AF92BF92CF92DF92EF9252
:10462000FF920F931F93CF93DF93CDB7DEB72497FD
:104630000FB6F894DEBF0FBECDBF282E392EE42E64
:10464000F52E062F172F3A832983F92FE82F678439
:1046500070880E942722F72DE62D0788F08DE02D27
:10466000FC83EB830FC0EB81FC8182819381A48169
:10467000B5818E159F05A007B10749F18081918111
:104680009C838B83EB81FC81EF2B69F720E030E08A
:10469000712F602F5F2D4E2D972D862D0E94842225
:1046A0009C838B83892B09F4AEC020E030E0712F0E
:1046B000602F5F2D4E2D81E090E00E945B24C82E7C
:1046C000D92E892B31F4EB81FC81848556C0CC2412
:1046D000DD2421E0522E94EF892E91E0992EA12C19
:1046E000B12CEB81FC81848581FF1CC0AE2FBF2FD4
:1046F00029813A812A5F3F4FFB2FEA2F8385F32FD1
:10470000E22F82932E2F3F2F119789819A81E817EC
:10471000F90791F700E010E05EC0880C991CAA1C14
:10472000BB1CDFCF5A949FEF591609F452C0C11435
:10473000D10451F17D2D6C2D932D822D0E941F24CB
:10474000892B11F1F72DE62D2789308D0DC0F32F20
:10475000E22F82819381A481B5818E159F05A007E8
:10476000B10731F0208131812115310581F74BC02E
:10477000F32FE22F848581FD46C081608487972DC9
:10478000862D0E94F7213FC07B2D6A2D592D482D83
:104790008B819C810E960E94A53AF72DE62D078805
:1047A000F08DE02DFC83EB8310C0EB81FC818281D6
:1047B0009381A481B5818E159F05A007B10709F4E7
:1047C000ACCF808191819C838B83EB81FC81EF2B2B
:1047D00061F70FEF1FEFC114D104B9F09D2D8C2D9F
:1047E0000E94D13C0115110581F08B819C810097BD
:1047F00061F0F92FE82F848581608487972D862DBD
:104800000E94F72102C00FEF1FEF912F802F2496F7
:104810000FB6F894DEBF0FBECDBFDF91CF911F91D1
:104820000F91FF90EF90DF90CF90BF90AF909F904F
:104830008F907F906F905F903F902F9008950F938F
:104840001F93CF93DF93082F192F462F572FF72F42
:10485000E62FC781D085F92FE82F678570898C2FC7
:104860009D2F0896B72FA62F119626E00D90F92FB1
:10487000E82F01928E2F9F2F2150C1F7F72FE62F9F
:1048800087819085A185B2858E879F87A88BB98BFC
:104890006296A78DB0A1242F352F4C2F5D2F66E097
:1048A00078E0912F802FEA2FFB2F0995DF91CF9190
:1048B0001F910F9108958F929F92AF92BF92CF92C6
:1048C000DF92EF92FF920F931F93CF93DF93082F06
:1048D000192F842E952EA62EB72EC22ED32E4CE144
:1048E00050E060E280E090E00E94E73BE82EF92E85
:1048F000009709F435C0F92FE82FC781D08581E0F2
:1049000090E0082E892F902D9983888380E098E08D
:10491000082E892F902D9B838A8386E08C8384E0E8
:104920008D83002E012F102D1F830E838C2F9D2F22
:104930004296C114D10451F0B92FA82FFD2DEC2DB2
:1049400086E001900D92815039F0FBCF46E050E0B7
:104950006FEF70E00E943264888E998EAA8EBB8EB3
:104960009F2D8E2DDF91CF911F910F91FF90EF9092
:10497000DF90CF90BF90AF909F908F900895CF938E
:10498000DF93D92FC82FAA81BB81109719F4EB852B
:10499000FC8506C0DB2FCA2FED89FE898A2F9B2F4D
:1049A0000995DF91CF910895CF93DF93B92FA82F69
:1049B000D92FC82FEA81FB81309719F4EF81F88550
:1049C00003C0018CF28DE02D8A2F9B2F0995DF917A
:1049D000CF910895F92FE82F808191810895CF928A
:1049E000DF92EF92FF920F931F93CF93DF93C82E26
:1049F000D92E972F862F0E940930E82EF92E8F5F2F
:104A00009F4F71F449C00F5F1F4F32960830110558
:104A100059F487E190E090935305809352053CC090
:104A200003E010E0E2EDF2E080819181892B59F7FB
:104A300087E090E00E94D32BD92FC82F000F111FC1
:104A400004531D4FB12FA02FCD93DC93209721F15C
:104A50007F2D6E2D9D2D8C2D0E94E22B99838883B6
:104A6000B12FA02FED91FC918F5F9F4F49F48E2FB6
:104A70009F2F0E94D02BF12FE02F118210820CC0AB
:104A8000F382E2821482B12FA02FED91FC91168265
:104A900015828E2F9F2F02C080E090E0DF91CF9192
:104AA0001F910F91FF90EF90DF90CF9008959F920C
:104AB000AF92BF92CF92DF92EF92FF920F931F932C
:104AC000CF93DF93A82EB92E972F862FD52FC42FE3
:104AD0000E940930C82ED92E8F5F9F4F71F44FC0AE
:104AE0000F5F1F4F32960830110559F489E090E0AE
:104AF000909353058093520542C000E010E0ECEC27
:104B0000F2E0808191818C179D0751F787E090E05A
:104B10000E94D32BE82EF92ED12FC02FCC0FDD1FF2
:104B2000C453DD4FF982E882E114F10441F17D2D97
:104B30006C2D9B2D8A2D0E94E22BFF2DEE2D918353
:104B40008083E881F9818F5F9F4F79F48E2F9F2FAB
:104B50000E94D02B82E0801728F00F5F1F4F19832F
:104B600008830DC0198218820AC0D382C2821482BF
:104B7000E881F981168215828E2F9F2F02C080E076
:104B800090E0DF91CF911F910F91FF90EF90DF9018
:104B9000CF90BF90AF909F900895CF93DF93CDB704
:104BA000DEB722970FB6F894DEBF0FBECDBFFD2F44
:104BB000EC2F379661917191FA83E9834E2F5F2F25
:104BC0008091CE029091CF020E94062622960FB6C7
:104BD000F894DEBF0FBECDBFDF91CF9108956091F5
:104BE000CE027091CF020E9462308F5F9F4F19F406
:104BF0008FEF9FEF08956091CE027091CF028AE00F
:104C000090E00E94363080E090E00895F92FE82F80
:104C1000972F862F242F352F60817181482F592F90
:104C200084ED94E20E947B2C0895CF93DF93CDB75F
:104C3000DEB722970FB6F894DEBF0FBECDBF4C2F64
:104C40005D2F455F5F4F5A83498369857A858F81E0
:104C500098850E94342622960FB6F894DEBF0FBEC8
:104C6000CDBFDF91CF910895CF93DF93CDB7DEB75E
:104C700022970FB6F894DEBF0FBECDBF9A8389830B
:104C8000242F352F462F572F6C2F7D2F6F5F7F4F8F
:104C900088E596E20E947B2CE981FA8110822296B7
:104CA0000FB6F894DEBF0FBECDBFDF91CF91089550
:104CB000EF92FF920F931F93E82EF92E042F152FDA
:104CC000F92FE82F808191810E942364FF2DEE2D22
:104CD00080819181800F911F91838083912F802FFC
:104CE0001F910F91FF90EF900895AF92BF92CF92D6
:104CF000DF92EF92FF920F931F93CF93DF93CDB785
:104D0000DEB722970FB6F894DEBF0FBECDBF9A83F1
:104D10008983C62ED72EA42EB52E972F862F0E94BC
:104D2000FA63E82EF92E0894E11CF11C9F2D8E2DBC
:104D30000E943534082F192F009721F48FEFE82EA9
:104D4000F82E1BC05F2D4E2D7D2D6C2D0E94DF6334
:104D50003B2D2A2D512F402F6C2F7D2F6F5F7F4FC2
:104D600080ED96E20E947B2CE82EF92E912F802F69
:104D70000E94B234E981FA8110829F2D8E2D2296F5
:104D80000FB6F894DEBF0FBECDBFDF91CF911F915C
:104D90000F91FF90EF90DF90CF90BF90AF9008956C
:104DA000EF92FF920F931F93E82EF92E042F152FE9
:104DB000F92FE82F808191810E942364FF2DEE2D31
:104DC00080819181800F911F91838083912F802F0B
:104DD0001F910F91FF90EF900895CF92DF92EF9285
:104DE000FF920F931F93CF93DF93CDB7DEB7249736
:104DF0000FB6F894DEBF0FBECDBFF92FE82FC62E39
:104E0000D72E2081318142815381B52FA42F932F3A
:104E1000822F8158944FA340B0408E5F9641A84F97
:104E2000BF4708F047C08091E1029091E202A09153
:104E3000E302B091E402281B390B4A0B5B0B298378
:104E40003A834B835C837D2D6C2D0C2F1D2F0F5FC0
:104E50001F4F912F802F0E9479308091DC02882390
:104E600009F476C19D2D8C2D0E94E22A892B09F42C
:104E70006FC189819A81AB81BC812091DD02309123
:104E8000DE024091DF025091E002821B930BA40BE3
:104E9000B50B89839A83AB83BC837D2D6C2D912FB9
:104EA000802F0E94793081E090E0FD2DEC2D918BD8
:104EB000808B4EC17D2D6C2D8E2F9F2F0E947930BF
:104EC0009D2D8C2D0E94E22AE090E102F090E202FA
:104ED0000091E3021091E402BD2DAC2D2D913C9187
:104EE000892B99F0822F932FAA2797FDA095BA2F8F
:104EF0002091DD023091DE024091DF025091E0020C
:104F0000E20EF31E041F151F06C0822F932FAA273F
:104F100097FDA095BA2F8E199F09A00BB10B89831D
:104F20009A83AB83BC83E980FA800B811C81912F2B
:104F3000802F7F2D6E2D2CE330E040E050E00E946A
:104F4000E864262F372FFD2DEC2D7183608377FFCA
:104F500010C0245C3F4F3183208384EC9FEFAFEF80
:104F6000BFEFE80EF91E0A1F1B1FE982FA820B83AE
:104F70001C83FD2DEC2D82819381E82EF92E0027D4
:104F8000F7FC0095102F69817A818B819C812CE33D
:104F900030E040E050E00E94E864E20EF31E041F9F
:104FA000151FE982FA820B831C83912F802F7F2D9E
:104FB0006E2D2CE330E040E050E00E94E864262FA4
:104FC000372FFD2DEC2D7383628377FF10C0245C97
:104FD0003F4F3383228384EC9FEFAFEFBFEFE80EA8
:104FE000F91E0A1F1B1FE982FA820B831C83FD2D09
:104FF000EC2D84819581E82EF92E0027F7FC009591
:10500000102F69817A818B819C812CE330E040E014
:1050100050E00E94E864E20EF31E041F151FE982AF
:10502000FA820B831C83912F802F7F2D6E2D28E118
:1050300030E040E050E00E94E864262F372FFD2D3D
:10504000EC2D7583648377FF10C0285E3F4F358356
:10505000248388EE9FEFAFEFBFEFE80EF91E0A1F23
:105060001B1FE982FA820B831C8369817A818B8101
:105070009C8128E130E040E050E00E94E864E22EAC
:10508000F32E042F152F1216130614061506FCF422
:10509000FD2DEC2D64857585882777FD8095982FEB
:1050A000620F731F841F951F27E030E040E050E03F
:1050B0000E94E864FD2DEC2D758764873F2D2E2D11
:1050C000868197818E0D9F1D978386833BC0211516
:1050D000310541055105E1F1FD2DEC2D6485758506
:1050E000695F7F4F882777FD8095982F620F731F28
:1050F000841F951F27E030E040E050E00E94E86404
:10510000FD2DEC2D758764873F2D2E2D868197818F
:105110008E0D9F1D97838683181619068CF04F9667
:10512000978386838CE691E0978786878BE090E073
:10513000918780878285938501979387828708C0AE
:10514000FD2DEC2D86859785820F931F9787868787
:1051500080E090E024960FB6F894DEBF0FBECDBF7E
:10516000DF91CF911F910F91FF90EF90DF90CF9043
:10517000089564E575E00E94ED26892B19F080E022
:1051800090E0089584E595E00895EF92FF920F93E3
:105190001F93082F192F0E94D8310E94AB3DF12F89
:1051A000E02FE080F180028113810E948D39E61AA0
:1051B000F70A080B190BE092AA04F092AB040093D3
:1051C000AC041093AD0480E090E01F910F91FF902C
:1051D000EF900895CF92DF92EF92FF920F931F937B
:1051E000CF93DF93C82ED92E82E190E00E94D32B7B
:1051F000D92FC82F009769F00E94993D892B31F56E
:105200008C2F9D2F0E943034E62EF72E082F192F59
:105210000FC0E090AA04F090AB040091AC04109190
:10522000AD040E948D39E60EF71E081F191F04C039
:105230008C2F9D2F0E94D02BC114D104B1F0FD2DD5
:10524000EC2DE082F182028313830FC0E090AA0468
:10525000F090AB040091AC041091AD040E948D3924
:10526000E60EF71E081F191FE3CF912F802F7F2D09
:105270006E2DDF91CF911F910F91FF90EF90DF90F6
:10528000CF9008952F923F924F925F926F927F92AC
:105290008F929F92AF92BF92CF92DF92EF92FF9246
:1052A0000F931F93CF93DF93CDB7DEB728970FB639
:1052B000F894DEBF0FBECDBF9A8389835C834B8396
:1052C000222E332E402E512EBE82AD8298868F82A2
:1052D000642E752E23E0622277246130710509F077
:1052E00070C0F32DE22DEE0FFF1F6114710419F44D
:1052F000E45CFC4F02C0EA5AFC4FC080D1800894A5
:10530000C11CD11C0B811C810150104015950795C3
:10531000159507958B819C816DE671E00E945F6415
:10532000080F191F82E39CE9C80ED91E0C0D1D1D24
:105330002EEC33E6C20ED31E222717FD2095322F06
:105340000D50104020403040932F822F712F602F3E
:1053500027E030E040E050E00E94E8643F2D2E2D31
:10536000261B370BE616F7065CF0952D842D67E0BB
:1053700070E00E945F64C80ED91E2750304008C0FC
:10538000952D842D67E070E00E945F64C80ED91EE1
:10539000C20ED31E35E04316510411F5F32DE22D54
:1053A000EE0FFF1F672819F4E25CFC4F02C0E85AB9
:1053B000FC4F808191818C159D0594F489EF9FEFBE
:1053C0000DC0F32DE22DEE0FFF1F672819F4E45CEA
:1053D000FC4F02C0EA5AFC4F80819181C80ED91E51
:1053E0008F8D98A1482E592E662457FC6094762CF8
:1053F0008D8D9E8D882E992EAA2497FCA094BA2C70
:105400002F813885E22EF32E0027F7FC0095102F10
:105410002D813E81622F732F882777FD8095982FED
:1054200029813A8121303105C9F5D092E802C09234
:10543000E7022CE330E040E050E00E947164E60EA9
:10544000F71E081F191F2CE330E040E050E0912FB9
:10545000802F7F2D6E2D0E947164860E971EA81ED0
:10546000B91E28EE33E040E050E09B2D8A2D792DC7
:10547000682D0E947164460E571E681E791E409268
:10548000E9025092EA026092EB027092EC028B8188
:105490009C819093E6028093E5027BC0D092F0025B
:1054A000C092EF022CE330E040E050E00E947164D3
:1054B000E60EF71E081F191F2CE330E040E050E015
:1054C000912F802F7F2D6E2D0E947164860E971E66
:1054D000A81EB91E28EE33E040E050E09B2D8A2D37
:1054E000792D682D0E947164E62EF72E082F192F52
:1054F00028EE33E040E050E06091DD027091DE0282
:105500008091DF029091E0020E947164640D751D2C
:10551000861D971D6E0D7F1D801F911F6093F102E8
:105520007093F2028093F3029093F40297FF10C0FD
:105530006050744A894D9A4F6093F1027093F20261
:105540008093F3029093F4020894C108D10817C025
:1055500060302CE5720726E2820725E092079CF076
:1055600060507C45864295406093F1027093F20250
:105570008093F3029093F4020894C11CD11CD09242
:10558000F002C092EF028B819C819093EE02809397
:10559000ED0228960FB6F894DEBF0FBECDBFDF91A7
:1055A000CF911F910F91FF90EF90DF90CF90BF9020
:1055B000AF909F908F907F906F905F904F903F90B3
:1055C0002F9008958F929F92AF92BF92CF92DF92C9
:1055D000EF92FF920F931F93CF93DF93D92FC82F92
:1055E0008091DC02882309F4C9C04A855B858091DB
:1055F000E5029091E6024817590739F48091ED02CF
:105600009091EE024817590769F11F921F921F925D
:105610001F928824992462E0A62EB12CCC24DD248C
:10562000EE24FF2405E010E023E030E061E070E0CC
:1056300081E090E00E9442294A855B851F921F927B
:105640001F921F922AE030E061E070E080E090E07D
:105650000E9442298DB79EB708960FB6F8949EBF58
:105660000FBE8DBFC090E702D090E8022091EF02FC
:105670003091F0028E859F85C216D3067CF48C157E
:105680009D050CF47BC0281739070CF477C0C816A9
:10569000D9069CF48217930784F473C0821793078A
:1056A0000CF46FC0C816D9060CF46BC02817390764
:1056B00024F48C159D050CF461C06A817B818827D8
:1056C00077FD8095982F2CE330E040E050E00E9479
:1056D0007164E62EF72E082F192F6C817D818827A3
:1056E00077FD8095982F20E13EE040E050E00E9459
:1056F0007164262F372F482F592F68817981882789
:1057000077FD8095982F620F731F841F951F6E0D74
:105710007F1D801F911F28EE33E040E050E00E9483
:105720007164262F372F482F592F8E859F858C1512
:105730009D0581F460E070E08091E9029091EA02B9
:10574000A091EB02B091EC02281739074A075B07DA
:1057500094F00FC060E070E08091F1029091F2024D
:10576000A091F302B091F402281739074A075B07AA
:1057700014F461E070E0972F862F05C080E090E080
:1057800002C081E090E0DF91CF911F910F91FF90D7
:10579000EF90DF90CF90BF90AF909F908F90089543
:1057A0000E94B23408950E943534282F392F892B56
:1057B00031F48CE090E09093530580935205932F41
:1057C000822F0895EF92FF920F931F93CF93DF9351
:1057D000CDB7DEB729970FB6F894DEBF0FBECDBFA9
:1057E000E62EF72E082F192FFD2FEC2F31964C2F78
:1057F0005D2F475F5F4F03C021930F5F1F4F302F17
:10580000381BB12FA02F2C91222329F02A3319F015
:10581000E417F50789F78C2F9D2F0196F92FE82FB4
:10582000E30FF11D10820E942A3BB92FA82F892B6C
:1058300049F482E090E090935305809352058FEFF6
:105840009FEF19C0F12FE02F80818A3319F060E0BB
:1058500070E004C0712F602F6F5F7F4FFB2FEA2F26
:10586000058D168D20E030E05F2D4E2D8A2F9B2F69
:10587000E02FF12F099529960FB6F894DEBF0FBEE1
:10588000CDBFDF91CF911F910F91FF90EF900895C1
:10589000CF92DF92EF92FF920F931F93CF93DF93FC
:1058A000C82ED92EE62EF72E042F152FD32FC22F58
:1058B0000AC040E150E0712F602F9F2D8E2DEC2DFE
:1058C000FD2D09956097C131D1059CF71C161D0669
:1058D0004CF44C2F5D2F712F602F9F2D8E2DEC2DB2
:1058E000FD2D0995DF91CF911F910F91FF90EF90C2
:1058F000DF90CF9008952F923F924F925F926F92D8
:105900007F928F929F92BF92CF92DF92EF92FF92FF
:105910000F931F93CF93DF93CDB7DEB76B970FB67F
:10592000F894DEBF0FBECDBF998F888F7B8F6A8FB3
:10593000242E352E822E932E1D8A1C8A732D622DC5
:1059400003C00894211C311CB32DA22DFC90FF2014
:1059500019F0B5E2FB16A9F7132D022D061B170B44
:1059600069F0512F402F8A8D9B8DE88DF98D099517
:105970002C893D89200F311F3D8B2C8BFF2009F492
:105980002EC3F32DE22D3196198255241B8A1A8AD3
:105990007FEF672E772E04C0882E992EF32DE22DEF
:1059A000AE2FBF2FBD902A2E3B2EB0E2BB1621F4A6
:1059B0008981882399F703C02BE2B21611F4B982CA
:1059C000EDCF3DE2B31619F444E0542AE7CF53E299
:1059D000B51619F481E0582AE1CF90E3B91619F40D
:1059E000A0E15A2ADBCFBCE6BB1619F4E8E05E2A38
:1059F000D5CF2AE7B21691F23AE2B316A9F4992D5F
:105A0000882D0296B92DA82D8D909C909B8A8A8A0C
:105A100097FEC2CFB4E05B2AF92DE82DF095E19511
:105A2000FF4FFB8BEA8BB8CF2EE2B21681F5818156
:105A30008A3219F0662477241CC00894211C311C7A
:105A4000B92DA82D6D907C90E2E0F0E08E0E9F1EA7
:105A500018C0972D862D6AE070E00E945F64622E68
:105A6000772467FC7094680E791E20ED3FEF620E7C
:105A7000731E21813196822F80538A3050F32E2E4F
:105A80003F2E77FE8BCF6FEF662E762E87CF8B2D36
:105A900081538930F8F44B2D5527405350405B8B90
:105AA0004A8B0FC08A899B896AE070E00E945F641C
:105AB000A22FBB27A7FDB095A80FB91FD097BB8B0E
:105AC000AA8B21813196822F80538A3058F32E2E53
:105AD0003F2E64CFF92DE82D4B2CB7E6BB15E8F02F
