:100000000C9447300C9494300C9494300C949430AD
:100010000C9494300C9494300C9494300C94334998
:100020000C9494300C9494300C9494300C94943040
:100030000C9494300C9494300C9494300C9493441D
:100040000C9494300C9494300C9494300C94943020
:100050000C9494300C9494300C9494300C94943010
:10006000FFE320C4000000034801800000F0C52128
:10007000615E074101F85E3E02CA3F06C002D30539
:10008000CFFE070009E44032A7FE3963BC03B63156
:10009000877FFC1BB03CA162E006320C54FFFC36AB
:1000A000814B8B202E0C344018200A43FFFF371958
:1000B00084072070007108895C78FFFFFF3E5C0BAD
:1000C000603A464C980FF85FFFE322C45B000003E0
:1000D0004801800000700B39504EE457FFFFFFF1DC
:1000E000C65C1C03AC77894C7284784A0E04CBA2A0
:1000F0008324C32FFFFFFFFFFF8B709D005185936B
:1001000001280CE88061BF9708B8A5C6706415A0E7
:100110005418180E874721C0EC743B1D0FA5D7D08B
:10012000837723847B25EDD7BE0CC954FCD0E60130
:10013000EEFFE320C4B72513FDE40193980061F9B5
:10014000B9863217A7B6F8F65326E0E1C63219C4CD
:100150009FA8A8974BF38D7D33AFED9C9FD8B12D11
:10016000F2F279C67FFF35C4BEBD956B3D87D038AE
:10017000BDD54DFB39EE9EB7B25F36C863D966FC7C
:10018000B9A79DC73B3F67ECDF5EC7CBEE9D4F3FF6
:10019000B1EC5D53ED3F2DBADEFFE322C47D257B3C
:1001A000EEAA5F8C5801F7CBEABBFBF8A7FFFFD3A1
:1001B000ECFDB2EBE7FFF6274CA40EBD3377E0FD74
:1001C00096AD70A09433088B16A39C587098363067
:1001D000CA185CD07CAA4600D81B0FACB858C80916
:1001E000A3868A07C7205044E5528A00EF4D42C3D8
:1001F0009450525450C2067303863893928B4540F4
:10020000B65AFFE320C44314A05ED001C21800F721
:10021000A2428248A5ECF52DA8C9AD1D25D0BAFF94
:10022000DB7435100851A4E0AD4060B0B26BC6DF9E
:10023000FBE3E7AA351FACC8A43023622C38F65183
:100240004FD98E24969D44D1A2DAC3182C990B075E
:10025000A604DDDD4A919A42FF48B63C2218527C42
:10026000C326DA86210620F65846FFE322C44B2136
:10027000F3CABC00118CDDBDB45C957DF7B5DDCF54
:10028000A6630ACD65F8ACE8122D2273FFA794107F
:10029000436EAEA16AB73B486B5636BDB79EFEBBF8
:1002A00056BD4BE5FD5DB665369902218CC47BBF1A
:1002B000BDFCCE32FFF475286062DFFFFFDEECCCC0
:1002C000C1C718C2041AE5ECDF9FF61F56B36A4790
:1002D0009C3FCBFFE320C41F12EA02D400008698A3
:1002E000FA795CB87B438ABCC580C3068555A88C67
:1002F000AA0DA0E0C1A868311528F481D0E73054D8
:10030000F59349F6193C820752E9A770FD000050A9
:100310001E16FFF31E76FFFFFFF55611201DD2BDFE
:1003200011A967429BBDE7665F35478A7CCB847A1B
:10033000FE5FFFE7D58DD2A8857CD6FFE322C42ED1
:100340001483BADD940146DD5DBBF387F9BAAC6E68
:100350001AEEC85E7D39F39FFE64DC36662F6B0AA9
:10036000F0A1F0ECBCCFF5D944936608000F7006FD
:1003700056BF2DFD4CE4100105007018E28EDFFF22
:10038000FA108421088CE385855C443AE67FFF7F80
:10039000B74947EB9AA25426A2DFE56B4CFEB49B0B
:1003A000F29BE562FFE320C43816E126D194014AAE
:1003B0007181B8FF0DF84387C20A4DE0B65828EFA7
:1003C00039DF6FFDFDAD97829AE0A6E9362BF94F34
:1003D000F0D15A6255003F7F0BFFE1F77DA4140A6C
:1003E0000A0E889135E48A5F2FFFFFF086C216D986
:1003F0004427C719596695549BCCD11111CC2101C2
:10040000C565A8CAA51A173F23A4BE7FFFE322C46F
:1004100037175A0AD194024698FE5E4BFFFF6EE2F0
:1004200044EA2234331445625312AE715A88B92417
:100430001633436BB753F6CE3E1CBF635350BD2AF1
:10044000FFF777BC043CF62B0EA7E86C5CD775CFA2
:10045000FF19BD1E4AFE05E8C4DEAE668DE955BC37
:100460003A3E8945CD99279156489A65555A2A842E
:10047000500E08186CFFE320C43516515AB4000B17
:10048000D294B6A87E0DC40C35C60E8E727FB350C2
:100490004CB088AA5ED8876FAECB51ED7FF43D5447
:1004A00052F7BE2F317A6ACE7FAD3B2B81F1000F20
:1004B0000924D9B7DE69772603C2BAE8C634935E49
:1004C0003EA9446A332BC5B62D4AE36FF8ADACAAFA
:1004D0000790C1658A928E09156E16924BFFE32232
:1004E000C436125152B4000B1270E03613EB12DB1B
:1004F000FFE8D3FBB21F67FFF637DFFFFAAAFFBAA8
:10050000510BFF297646C90A01603A0A0247CF1A01
:1005100093E16BB6A4CF216632DC48E464DDA456D7
:10052000F2C72939EE48668D44826041882F074022
:100530004408982C5E552E14FFC6057BD2FD2B4730
:100540004F1B45976FFFFFE320C448142942BD9419
:100550003A46704F23D249A499B18F5DF8943FFA7F
:100560002B0203A91F269615D8E1615C7531535AF9
:10057000B7CBDA4348AA66D6EBFF4E35D6F9BABCFC
:10058000D4EA6B253D4294DA4113B82D6913220B4E
:1005900092962CDA503924D490B9D8A1BEAFC5C5F3
:1005A000D0CFCCFF5FF67FFD5DDF5D9FD2F6FFE32E
:1005B00022C452143956A0004B1294B42F1180E675
:1005C00061BA692C2E30032158A202E8A2AA17ECC6
:1005D0003BDCD6F8CA1795BBB991FF715F2F09951F
:1005E0009256B7C7205C568624A83AE48E69422505
:1005F00088448026BAF2B2FF47DFBF8B45EEFFD5B5
:10060000FFFF4B7FE8B417278382537A3692A908FD
:10061000482E81D02C2E8DFFE320C45D12C14E9850
:10062000004A52707AC77D775658F75DE3EB57FF63
:1006300024F4659F19CF6C6F852483FE9C349A98AF
:100640006062E5483DCB2B42878B9D6A9EFB8DA760
:10065000F6A0562FA75FD7D1B3FFFFEBEAFFACCDD3
:10066000844AB423B3CE505D9830460B07CA8BC280
:10067000309E3E19F32A2F05A76DBF9F06FE4DFF42
:10068000E322C46D13694E9000330C706BF7CDB448
:10069000B6C3D6F86693AF5DE72A8E1A9362B48E1E
:1006A00017F0D5DA3B34D374A977DEF7D5AE3F37F0
:1006B00077C6B355B9C7F7A99FEBA3E8BC668526F3
:1006C00087015556CE2448C543CE1B811C3193511A
:1006D000E022C202792569DB91CAA690AAD32FEC49
:1006E0006CA2FE65E7D8B0ADFFE320C47B14615671
:1006F00084004B0C94B9D3C8520D026D2C6D49295E
:100700004A8EBC4ADEB994705F2CC421CAB977F70F
:10071000D591727FD7DAFB93ABFF9AE30051D249B0
:100720009B0B08E9CB9617913006237856878CA847
:10073000FBC5AE56C7C7EA5617968645279B79452F
:10074000866946515B8F30C1F3D8E0E415AA770D76
:10075000FFE322C48413C12E8D7449867011D9AB76
:10076000DD7A7B020D5A1165CF5EB98D9B7DFFEC62
:10077000F4FFEB8CAF338B464C1C1197DC1A18013D
:10078000AF36C46CCF096262D36E0D5CFCD09B8A1D
:1007900023D1ED315C8C08CDD35E8EEF50500054E8
:1007A00006026C3BABA55C105C6809A92D49835817
:1007B00015CC1700EF7B1D4F6BFFE320C49112C1D6
:1007C000467800624670AFF4F7BCAED7D3D8AE8E91
:1007D000FA342A64343B1808023161699DA160C66D
:1007E000283E430010D4392C5C5AA8930E9C3850F4
:1007F000083B436704A494C8F6AD944C1F148C3096
:10080000A720B32743C05971C47022E949D6CBE26F
:10081000CCADADDD8E4E866F62909B7B929D3F4F3F
:10082000FFFFE322C4A114894270007A4670FD35AF
:10083000187E8590447CA3A334280C56AB21D3ABFF
:1008400073E3749B3336BA18097336A2A243555327
:10085000DD8E4CA96495D32A90A9B4B41442A0C0EB
:10086000A6846E6B1A49E41C2AF804698B5245AFC2
:1008700043E4C3DB975BE69F48AEC64AB1DA3FFD6F
:10088000F9DEA5F088C131701A08FFE320C4AA136D
:10089000D91670006206704241F4365CB8162B30EF
:1008A000BF8AB527F3884AF9B623B5E789D1AFF1F6
:1008B000186C08898B253D2B7E436361E932A07E4D
:1008C000CF18CCB4B8A84EE32F5BAE20A868769EB4
:1008D000A7176EE6F5F6E3E677B347FF4752645095
:1008E00083B1B170892F07E9F07DC35B124EC3C39A
:1008F00053B2FFE322C4B514A12A70AA624670F174
:10090000095954C1420409CAAAE28EEB2C41C3180A
:100910001B93A298B06A3217A750A13920B385144F
:10092000181B8C61D1700318380A309931228FE37B
:10093000DC74031D621BB8E955AC8DFC93BFF45702
:100940007CB42BCC2822D8DEA061572CC602201202
:10095000201570EA38ED326CFDD18FFFE320C4BE64
:100960001369466800630670A8CA2C312EF751201F
:100970003D2554AB14AAEA928749416C9292675183
:1009800026281E6C6B95173E15E4B66A6534B34E87
:100990008EEA7DD4AA083C5F579FE1CAAD993142E7
:1009A0007AFD3CD715F2920DD909F2C51550AD8AE2
:1009B000360C1D85311E19D4AE25CE02889435E340
:1009C00001A0B1FFE322C4CB15392664007B067079
:1009D000612BC4C2811421A4046B3A2543C70A9B2E
:1009E00038012AA88450D9D814EAD86518B740AC81
:1009F0008D36F235A7F4A928340A93CEABC75FE64B
:100A0000B4328BF76AFF986021B3DA59ADFE024722
:100A100002848903276E0087C0D8330364DC3A144C
:100A20005BF0DB456A008640CD090BC3FFE320C4C1
:100A3000D211C9466400798A70FF16A0B46149904A
:100A4000F06D50CE3FFC3DA06E7024044260400427
:100A50000C7170FDBFFF129036F0FA0C041F31705C
:100A60003E218F1CAFFFFC5944F31162C8E4900093
:100A7000CBC455019D4BFFFFFCC859C68203065AE3
:100A80001669101018C4C4472520BA40D8621BFF4D
:100A9000FFFFF8CAFFE322C4E51580AA5CAB4F183C
:100AA00000880A3942E60CBC291164884A4087381C
:100AB00042621A39A212D54C414D45332E383820A6
:100AC00028626574612955555555555555555555E7
:100AD00055555555555555555555555555555555C6
:100AE00055555555555555555555555555555555B6
:100AF00055555555555555555555555555FFE320A3
:100B0000C4EB290B5DEC019BA0005555555555557F
:100B10005555555555555555555555555555555585
:100B20005555555555555555555555555555555575
:100B30005555555555555555555555555555555565
:100B40005555555555555555555555555555555555
:100B50005555555555555555555555555555555545
:100B60005555555555736F756E6431612E6D7033E3
:100B700000FFE320C4000000034801800000F022D1
:100B800080010F0F0175F0B20483F0FC800840D99A
:100B9000FF014481F39000D51FF9103402C202D046
:100BA000C85FFF19B2BA88811E38FFFF744DD14863
:100BB000D10FFFFC740C80A004141A001C403F30BD
:100BC000E9C3DFFFFFFF01600034100C0000C283A7
:100BD00036217028400CE04037FFE322C45B000060
:100BE000034801800000840357865800A01FFFFFC0
:100BF000FF8C88A5C9A1641E0F90762627072E08B2
:100C0000F0B26E331FFFFFFFFFE5D27C4C80300057
:100C10005BC00A1C0C6E34C8A144718CC0D714BAD6
:100C20000D8A360331A0C06028C46432008FEAFE0A
:100C30008ABC2770E2F9E4D335FD1E92FFD4689D8B
:100C40004C66FFE320C4B7252BFDB4018DA000EA5C
:100C5000FD4820A5B9707A226E3BC4AFFB299152A2
:100C6000068512FB9C1E8747FFF5277CD385AC8E3B
:100C70003082481C0256230B0586CBFF5CDD064301
:100C80005363DCC0B8541CC1A42AEE1CC3A5C30D19
:100C9000FFFF56A6F41699B9A30E70A985CCB0BE75
:100CA0006E606874760F52F173FFFFE322C47D25F6
:100CB0009BFE965F836800FFEE9DEB4D35326A6FB9
:100CC000CC8610B5338018642184290C226433E665
:100CD000B5000D800246C047FFE07FFFFFF9DF56F9
:100CE000F7646A7988A97748F7D53BAE9FF67D5CB3
:100CF000F524C2E53D5BADD855B319AE5753692510
:100D0000918A39D559D19EE73BB73BA33EAFFD5CF5
:100D1000897FE4FFE320C442147B2ADA5BC1280008
:100D20003AE5B1CEEC1868DFE58049E000B3ED327A
:100D300000C0CE60FFFCBFFE46FFFF568F39D5B125
:100D4000E7309B87D50EA9414120751C2661011112
:100D50003D46B2339916AD73232A312B5CF5D28808
:100D6000C638C8436AE5E6916883AEBC5774185428
:100D700097726EBABB5E8A4EB52488FFE322C44BDD
:100D80001E73D2C1900950DCA6BC5AD71491FFF74C
:100D90002B3C46D43E2D66DA90559208BD9561E510
:100DA000A25210470B25B898C1B333A1A345C81D63
:100DB00054AD4242984E36000007FF4C0486001D99
:100DC000A18FBA3056E4607563BE77BED3D5EAB55D
:100DD00033265A9D16FF45E9F44729665C229D1D7E
:100DE000EA1774BCFFE320C42D170BCED65400863F
:100DF000DDE127F6F672905737D3A9C343A4C69E08
:100E00005747235F5FFFFB3FFDD7A5C2ED33CF629E
:100E100044ECFC9C89AB77999B6CD0269FCF06F362
:100E2000D5FFF97FFFE3CC8029B3202179836413B8
:100E30009AEFE596DBF18A3A5D1C937E8AA0B4D5E1
:100E4000AC736CA4B9A1FE640C8D8C14FFE322C4B6
:100E50002B149B8ACC000046BDD5A97F6BE56FFDA6
:100E60008E7711FA79C865FF57335C8F27DF536897
:100E700087D3F6394DD17E8C14CC56C090BC308BC4
:100E80000A000000005A65803FF431C4FA95BD3B6A
:100E9000FBC8CF5ABD5A8506E97315FA735CD67F35
:100EA000B3A189A1D17747F414974350A5AAFBB405
:100EB0008FBC1FF4BDFFE320C4341443AED712002F
:100EC00084DD2C4FA9685EAFBBB26FAD15EABBBF26
:100ED0006433B36DD16B46FCAB908418AA46D7003F
:100EE00000FFFFFFD4BDBD56A9B55AADDE4FB7EC2C
:100EF00074EFA160D5B2C879E754B8C7D5E2F3045E
:100F0000A7A19A9649EABD253E532CB32E2A916596
:100F100048497DA5CD5563667E9FE70C8FFFE32290
:100F2000C43E143BAAD0800086DD2FE91CCBDBFF3A
:100F300048BEC64A4408DDCD47C9C344CF00FFFFC1
:100F4000FFFD2FFFFFFC1F77FCD183B0A12DCDA7A4
:100F50000000D46DE658016203EC0B4503BD01A708
:100F6000375337FEE4CA6FFD5D7A991455A0DB76DE
:100F7000FAAB55A4BA8D397B51420E60E8B1C85620
:100F800021CCB6222AABFFE320C4491F93A2CB0099
:100F9000C48ABD6521CAE46A1CDB4B2A1915288E58
:100FA00076BBA3CAE537690CE8F9EC862D2EB2AC06
:100FB000A9A579EC7522AB59EEF4117BE94124180F
:100FC000546314431AF9D019D500DDDDDDDD5B84EF
:100FD000A0FFFFE112856828865AAE5005C0FD4388
:100FE000297A05AC3FC314DD1E16643FD12BFFE305
:100FF00022C4251D819AD7147BC4954ACA9FEABD95
:101000007FFFF0713FFBC7DF32684BA9643E844726
:10101000F94AECD7EEED97911C4060B46CA32F0217
:1010200097AD70037E753BBB34726908FC945F8793
:1010300015FE951FAFCA1318FC577FF491297FFF47
:10104000F9FFB5DFFFF45CA1A725F3D8FC8FC97CBD
:10105000F3FE65FF3BFA9CFFE320C40B147BA2C8A0
:1010600000084ABDE31CF6C0C2209FD23486244744
:10107000D64F399C3C02A8776798C30791CACDA286
:1010800056739965E5D54C6539B625DDB691EDA663
:10109000FF423A997B6DE8BEA9636637F8E469B50B
:1010A000467E8173472CA2EEDE2F12FFFFFFBFFEAC
:1010B000FE6BF4BE5FF6737ACCE0C191D423A4FF3B
:1010C000E322C41412A392D0000044BD88113ABB9D
:1010D0005D115580D550EA81C1CECA35AE2E742D32
:1010E000D17ECC9BFD4EEB93B2646479CF477D13E8
:1010F000291AEFEDD6CE52358DB22A051F183F3D85
:10110000C06D8A181C27FDF2FFFFFFFFFF32F9793F
:1011100097F5D2CBFFA4EEEA1A732B90CEAF227CC8
:10112000E43DE9A8C45C8564FFE320C42513AAAAB2
:10113000D4CA084AB965B15155D148E8DAA937434C
:101140003FD546082D2E2019A120F93F07CCE57A7E
:101150006EFCBEBF81D83E5FCA4B4451E89D3D0244
:101160004824004701257FD9A87FB3CE9FFFFFFF0A
:101170006477567CCD561343A26D32951CCF527FB7
:10118000725D8D43CAEB397E9CD35EBA295A6F7764
:10119000FFE322C43114A396DE5C0884BCA5413A67
:1011A000CDD96EF72DDB39488E5656596F6D2FE726
:1011B0006EDB56CEBFDB2DBF9903B8BDEE36A5233F
:1011C0003CFE5FFE2C9FFFFEFFF97F1AC2095FF60F
:1011D000732C00FC40623B2B5AAC4C23FF7D817A80
:1011E00029E47638C6A748D9D5291A1F0DBE5973E8
:1011F0009FFEA5DF386F4CF850FFE320C43A141B64
:10120000C6CCC80846DCCFBFFF6FFB158670F85D03
:10121000FEC869577A678A8DB1979102AA02DB6D81
:10122000B6D6C169B9C38E10AE544014BEFEC13DDE
:10123000EE278267901F3EA054616999FE8D47C9D1
:10124000ADAE1558BCD0B2DCB3AF71222D1AD0E0D0
:1012500064A8C72D0385D68966D60145896A09F732
:1012600098FFE322C444144006DE5C004600CDA390
:101270007AEC6E424541E1634E11980FCFFEB015F6
:10128000BFC664125F935522FFE45FE9FA72547D92
:10129000C61240EC1EE5FF26A8ACB2A18C5318F58F
:1012A000646FA0ACAB90FA65914F94CECB54C8DD7F
:1012B000BF2EDDEE65FEBAFBCC9DA6B372E9D2EC83
:1012C000E5E8736E6754B0634324FFE320C44F1313
:1012D000C3BAD1940844DD024924927602CFF9556D
:1012E000EA3F25667026B480BFCD57D744B22E9D05
:1012F0001EEE52BD792CEBAB7E8AAAC973E8892019
:10130000EF9BEFC8078F65458542EE6922E45EDCFE
:101310002CB0E01A972A9F60754D283C2CEC0C44A9
:10132000956C5872380EC304910008248046C01A88
:10133000BB82FFE322C45B1479BED254104494EF05
:101340004880F8B93FF8B454140E943D4836E3721F
:10135000C55EEB5D88D14128C101EA3A21D7838E71
:101360006479A098149BDA34CA374EA962ADA8C537
:101370009B5E9161791F923AA6E173070022C394A4
:10138000690FCFC3D12EBFBC9A7E559A0AD5FFFFF5
:10139000FCBF246C41CB74FFEBDB4DFFE320C46545
:1013A00012B03AD65C000404DF631910CBD0CFEE44
:1013B000EDFCB4CE45D10865477441063BAF606F84
:1013C00049556C9915090EB92DB8C6FD5FABCD0313
:1013D000A884E9CC6535F8E9CB6E1BD6B606364154
:1013E000036DB6C347492DB9FD90815A4531F908BF
:1013F00001EFC3FFE4B5CD94C96FBC756FF23FF444
:10140000C9765AFFE322C4751472BAD1940844B95C
:1014100050854916CBEDFA7B2A93BCA6A23A3472CA
:10142000D7D35B8A8512C10E057A4B6C5D05852D7D
:1014300055CAA0B5A461C170C8D71B96082AFFC7BA
:10144000AFFCA7EFFFEFF9BF5B34D988F6FFDD07EC
:10145000D4FE71CEC3438A24801E834608838EE85F
:1014600071CA691110EF15C262ECCC8CFFE320C485
:101470007F140A4ADA5E1044B8AEC4127AA4705AD5
:10148000A335865676744588BBB61C5190C1A679A3
:10149000EB0CC250A111A0B2522AF21502AA82503E
:1014A00005BFEC9BF5DF997FFFFFE64B7233B5126A
:1014B00075BB7FB3F6BF756332358C1DF52AA5ACBD
:1014C000E725AF3590A96BBDF5A035186C3A4D7D79
:1014D00035AA7924FFE322C489141A52BC00084AB1
:1014E000B858132E355DAE1AE7B5BD6E50C60E3432
:1014F000E12D316796900BF42FFF92FE73256E5904
:10150000FFE7E6E8546DAE574A23DCCEA8AB74DFA4
:10151000A1E47FA26A202DF089FF9BE63E8F00DDCB
:101520008512AC90A311029B7E34EE77FBF5D8B701
:10153000E457C6DD8FAEB6E414EE7DBFFBFFE320BB
:10154000C49413423AC5940844987F18430D7AFC1A
:10155000172EF2F2ADAA298C3FF65CBFF85854FF63
:10156000FFF9AF35AACD6A4EA697BD4F993A4C4DBB
:101570000A2C57461686F94584433CB8E2928EED14
:10158000CE71760F684C4C3D20228F7856B67B4446
:10159000060CCA5F58B32B2AF3CE55A84090380AE0
:1015A0009459662C12FFE322C4A21489BABCCA085B
:1015B0004A95166CB50AA8AAA006BFA9B714B80B1D
:1015C000F7CBC6FD9FEB9B99134470DB5E8FAA742B
:1015D000DED7AD95555982ABF45125E8D466A22BE0
:1015E000233D4421BD9998D55772205CF5BE498CA6
:1015F00083B25F52DA943C18BCA162669A17051652
:101600007540DC4C0D0E60F52AAAAA600ABCFFE307
:1016100020C4AB146A12BCCA084A98A2A514570881
:10162000A13446322ED6517EEE45E35E526A4AF729
:10163000F8CB9A9BFB4419D59CB445A7A3E67295B9
:101640000A888F04A765A58E217C2911EDB7FE9726
:101650007662AD1E25EAFFEB32CEED6AA1BDCD74F8
:1016600076955A695F444A03639C7F360FFFC360D7
:101670002FFFD018A222FFE322C4B414A25AC194AF
:101680000844B8DDB4C4ACABAFFFF97FF97932DF01
:10169000EAABA2E92F83DCC472AB6C73B37AAFA25E
:1016A000BEA6DD1FB5AD50914C26369631E127D44C
:1016B00087B9C645432CF16A465C29BCA3C6D4351C
:1016C00002E344C384C3C68E451FCC3FFD0524CB33
:1016D000D100A90103F97FFFFCEBA697E6A64EFF18
:1016E000E320C4BD15BBA6C1940844DD5D4EE9F3FB
:1016F000323A31DCE44320A8D7729EE7E4035892E3
:10170000CEC3B68576ADE62988997332A3DEE5F5BA
:101710002BD8A8F7575FFD3693AF5FD52CE44B323B
:101720003BB67D81040C6A260A8A838137EC530C10
:101730004FE146A1233214FFFFFFA73BD0F74444FB
:101740004A5A8B436A9322FFE322C4C113EA4EC56F
:10175000941044B857555EC78E67B39082D65163D4
:10176000A8079890502AF26D385C42C3AA73697238
:101770007875E96A465BAC8B875F32BF15848084DD
:10178000C46254B8BBCB17550AAA826005BF3A821F
:101790006325E473E18497FFF914A9BB67C1A8CE60
:1017A000E767442ACC679B62EB6FCD473AB9CAE939
:1017B000FFE320C4CD147BA2B8CA0844BC65046E04
:1017C000B3D4F98FAF38534F69EB9611AA0A20565C
:1017D0009ACE866C1D6A5D8B12EF68E91C4A8D47B4
:1017E0009C13130A191AF001050D99AA99998FAB48
:1017F00092DDBEA0C86330B0AB890472A1EC0230A8
:1018000082A45D19DF088CB5FC66162AD603520C3B
:10181000A5F6A349B2451439FFE322C4D614A9BEE4
:10182000B98C0844946224A5D42922BB9694A5E8D7
:1018300041B04CE17A097634E8794D0986B6737384
:101840004C715BBDEF140E017874E009CD1C0249A8
:10185000249246882E37FDCA6088E018E8EA2263A1
:101860002C318307513BD35515812DF3A51BFFD791
:1018700029AF3B8705AEBADD9F772F2A5F956AA116
:1018800099FFE320C4DF14E212B594084498D4BB56
:101890003B21E52FD9ED3A86973A4C6ED6A95550A3
:1018A000228500A926AD48DE6662C3E0CA2426CFA1
:1018B000E7FFE46536F778FFFFFAF557B28967DF8F
:1018C000E9408E1FF43FFCC2640E78D1A1044C4263
:1018D00088F400CA275FE497F97583BD78E73F3243
:1018E0002972FE78FF173AB7CCFFE322C4E615F859
:1018F0009EDB1E11844C7B58FEA0617AE14AE9E52B
:1019000008F8FB10A5151708CB0D0667A949F65571
:1019100025A946DFF163B1423F8CDCC8BC59D9F13F
:10192000D516CB6CB5CC01253E751A6285091460BD
:101930007C2EF036B90E541D26AA769BA31F27FFD6
:10194000E5F79A6A8C6AB559799D337AEF9B657B86
:10195000A322FFE320C4EA19F24EBE5E28C4B9FBFD
:101960009C2F9DDBEACF76A8332E6B8C8500C17A45
:10197000DC54B3414B5C81E6F69423EB70BB52B26E
:10198000BBF6E682162CEBE2A5024A0FEBFE853F82
:10199000E8131EA2C8180C7938720E210AB203206F
:1019A0005310DCE5D0E47FF5C8ABD5BBB98F6DF73C
:1019B000AB952AB2977323A1999EFFE322C4DD144D
:1019C0001A12ACCA104698CC8E5506EAFB108B77DB
:1019D0006BE57B086AC7A82879464763C42287DF7E
:1019E0005A24072B531B52283F681BD4EEE5B1B590
:1019F000972AA0BD0FFFFFB02FFF720731014CCF18
:101A000054CE7C46713E1815365DA4A79F2A4D081A
:101A1000327A4CC131232382A7D766F6C46A2D2EB1
:101A20002C154CFFE320C4E8171A0EB65628C498AC
:101A3000D809297D89758D1324C840111708C5E27E
:101A40008598C41D38F4B8659A98174005031E752B
:101A5000109C4CB3A0CE1C851E656AF985948B7EC4
:101A60008CB2618E07F8BDFE1C80E46A610B122700
:101A70002ABCC67B3322A1F317C871668E0308C344
:101A8000473CA1D1733B9C861F7DF7FFE322C4E650
:101A900016EA12A98C2884983FB888A2BA23152D7B
:101AA000D05672D65A1D439238281478A994A1FAB8
:101AB00018D5B8F123B4EB20E458B392A358922A76
:101AC000FFFFF1383CE40803EA59A9923A12618217
:101AD000B5172EEEE993564B9FAA7614EDCC2F73D3
:101AE00053A96E67F931FDB953FFB67ADB53CCDEEB
:101AF000696042F1FFE320C4E6168086AD9410C60B
:101B000048DE4E8AD92E2B716ECCCCDF2FBB59DF2D
:101B1000BE576CFDE1CB4BA6F102481518A59564A4
:101B200097C819289C5B6BC5C0CE163626A94D9860
:101B3000D1D79F4295D9C11AA9BA0721D429A19C0E
:101B4000B98E8FAB7B3D5ACEFB235D1DEB5FFF5DF6
:101B5000723FFDA1FEDE679B3791CEC7FFE322C433
:101B6000E715DA4E9400084AB8E3450F953E652A1A
:101B7000D14F7A7219AF5587601A1E48E36F32262B
:101B80006B86BDF6B7FD02A8EA795B12F36EB1F57C
:101B9000A116D95B75C400A53FFAFCD131052D8C87
:101BA00026A72FEC16662C2261BBBBBE456333D340
:101BB000D89AAA3FBA1D2B9C406B7A688CE9CF4D0E
:101BC00013CE5642D1FFE320C4EB18FA4E8C0030FE
:101BD000CCB8CC72B6BA3B21ACCCA95287FD1E92D0
:101BE000D1A2A9ECC9AF45F32911555DE89FF7F4DF
:101BF000EBD17E8FD9BEF3D9EEC19BB342C1F5F8CC
:101C0000E5CAD1F286507E0D4DA6A1C6A391B46E51
:101C10001E5C04662343A5055269A1FB867F56DF3F
:101C2000EE5FCA7D23FD6239D7CDFCF2A6FFE32229
:101C3000C4E214B24E90001086B8AD69683EC5EBA0
:101C40003D48F22B9A622FCDA0A84589B855C50111
:101C5000D031A0E010DA5F5CF97F1C9FF7DCADE6C5
:101C60005EBEBB5580A8D15AFDB3B1656CA489E0B6
:101C7000D4743648053F0E0472BD0C28EEA279E3F9
:101C8000AF9FEBE4D9F5B679D18B569513FDFF5391
:101C900090839A48C920FFE320C4EB1823C29656CC
:101CA0003144DC76F308CF0BA2705100BB82CB1C11
:101CB0005DDA8E36B96FDEEEBF6A1B7E6A9A944992
:101CC0002DD399DE9BA52C16DB5AE124345A3C4FC8
:101CD0009081362211466982C895429357687126D1
:101CE000B3CE2E966C6FC16BC85CABEE7EAA451965
:101CF0009B53E338C664AA6A169AFDAB0C9CFFE3BB
:101D000022C4E516E9DE88005AC694C8DE14D98ECE
:101D1000F5DB0C650B7206D70633AC140011112CE1
:101D2000EB1C1D59C12F5CFD6A71724FEB7C54CACC
:101D30004F7C49F9538FA0B276887F42CA0304E4EE
:101D4000263C89A3D8B43598DE5E44658C51C01119
:101D5000703830902113092551F110A04445182204
:101D600004CF2DBD716A0DFFE320C4E513398E88C1
:101D700000320494921E02848F32B60DA639E4D547
:101D80003C1A7614EB527CABC80D910A7BDCF1C88F
:101D90003255C7851BA9F62C0C6546AF7315FFE6B7
:101DA000D5606D8E8695441520A3C295207595C982
:101DB000A8D1A1DE24E6ABD78D5058185E3F644A07
:101DC00020DFC1A467CC34C660E316B53E20BEFF59
:101DD000E322C4F31A2A167C006246988B50E987E6
:101DE0000593C28E7EC0C219385958B430A1536AC7
:101DF000C58394103BC325DBF23D4D8F20D4CCFC32
:101E00004D81D6AB90508AEE2E9616B9E87CB8ABD1
:101E1000051FEB63139816F9C430FF2AB020B2D027
:101E2000CDCC0C09858F40B9F32DB0923F4E7AC5C9
:101E30009D065C86168F121BFFE320C4E616387ED3
:101E400080CA2A5248763D1784521CCA20448C1DF1
:101E5000010F6D0B0D5516430B3D6E7855831F6CAE
:101E6000F25D95D9935BA457F737AE99AFD7532856
:101E70006B9DC825BF4A3555A9B07AA49108C7A261
:101E800001A83322222B018261030B38860185478A
:101E900025110BDC7402416DA2F60CE86541A489A2
:101EA000FFE322C4E81CEA127C007BC69808AC8AD7
:101EB000021ABB8D38A1FC90C1CD157B50CBD98DBA
:101EC000B5FC8F80CEEE191CFEE17525C45462AEC0
:101ED000D42A9DBCF3C7A662D3C3B5DEF5973F15E0
:101EE00050B0B2C288641837DB113BA316BBA99F60
:101EF00043B3953F7D3293FFC8BBFCBF72F93016E8
:101F000060622EE266B21B544EFFE320C4D012C8BA
:101F1000A27800430C4CB449688C56544325A63C27
:101F2000AC7744FE5646F4759B77EE652FA35E882A
:101F30005E8C0CB24163FAC7E2C4974CFF78B5B926
:101F4000975E4AE05A0C308D3511103F2A0567F62E
:101F5000C260E0170178AAE163A602059E2F14244F
:101F600062F521046FA48DAB7B0B952244B2366AD7
:101F70005AFFE320C4DF1308467400124424B0461D
:101F8000723CE358283ED724CD0B3A7C3CF1B13269
:101F9000FBC526B142AE259022852852E422B5AA7F
:101FA0003CC41FA86C6D325A444624407540C9B7E2
:101FB00069BC4E2EE483AD0BA4136CB7DEF58CCE5A
:101FC000B992B1C0A85EF6A5BD3B38726656C2B3E1
:101FD000BFA91967952F5FF808FFE322C4ED18F336
:101FE00022600060C4BDE5040537A61C8865015564
:101FF000940C8F7C5D51894BD2D731A0A954966542
:10200000A91550012206E5A21DE2375C1D94B155C9
:10201000CDA6C6E1381B0A56A645C2082089E3C1F1
:10202000B22CAB81863B0738C0530410A814A4AD72
:102030001DA713AAE86A085567891E99DCFBCEA381
:10204000D7FFFFE320C4E513F06E68001A46281B93
:10205000D9595B43B4DF1265E468B6CB0E88998723
:102060008A04AD58BCCBA2A82E586A6ED610A2D84E
:102070008E9ACB93E68509A4CEAEF0D260812B2850
:10208000F3988F659DC476EC0414705FF69FFCFF97
:10209000D680D95DD2FFFDF6DC87F49DEC38DC7686
:1020A00091B8DD674422114CDACEFFE322C4F01868
:1020B00099BA64CA49869472B729336FAB144D2814
:1020C0009E240282C4AED2104713C838463061A5A0
:1020D000B451ED09D68DEE7068770AAF01095C87BF
:1020E000C942661F4B686E594F4AC278A3DD4CAF98
:1020F000721E59C935BBDE8A467D41CFE4F52ABB45
:10210000FB4A9E08A13825C1865CFFBE4B24E6E54C
:10211000E0D906FFE320C4E920F25664007BC6B98B
:102120004A018F00DC39089D78B051AB412BDCB3FC
:102130007A2B68AC55085D48214D4FAD2E43D66EC5
:10214000F7ADCF5A9ED4E736296B758385BAD12473
:10215000B608FF27F64768DAEA614862BC1D6C5092
:10216000388753F466116989C38C6060B82454DBE6
:10217000D05A0430B3009178AB81E3FFE322C4C0AE
:1021800014089668004BD24C6788F610AD5CADF22F
:1021900018FD974F47281D1759D5212387846A0EAC
:1021A00024B753093AA556BB5052C0EC96CD68FDF2
:1021B000888105553AB601303856093D08D69167F1
:1021C00071F4353DF40A4C0DD19D4942D29D543FE6
:1021D000378CC543C099662166016721E7C608535D
:1021E000A6D2B3CCFFE320C4CB12C0765C004A4C2D
:1021F0004864049A8550745E1EB8246C4AEBC50589
:102200000523432A55F51BA6703B116B181A2403AE
:10221000231508C0279459647D6A45E89A5162E302
:1022200080189581500CD0E541BCDCDB62771283CD
:10223000B15935B6DA61C13669A92902122A8BE390
:10224000291C14A0CA4440D1B2E61A6AFFE322C492
:10225000DB13407A50005A4648A28E6D4A868AECBB
:10226000768735061E1B6814A0A84DC31A62002A83
:10227000F3D6BC359D2A1B4CEB0BDE0571DC08A3A5
:102280006F6075CD8517F1298D0A1FAD652E918A76
:10229000007383ECC4BC3218CF9D84FB0C6A0D54D0
:1022A000C921D9722997157DB76FDE4F332BBFEA4D
:1022B0006AFA94C4D3FFE320C4EA1728EA442A4AFE
:1022C0000670A6CB65D977D9A96DCBD1A943DEE934
:1022D000DDB4742CA6F4436CCDF6642B538C2D61C5
:1022E00014A6A82A7451FD4D15B7AE2F658A4C244B
:1022F00048809EC4614128A89C8E4DA174C1854B25
:10230000350145ECEB7C8BACEDF1A90232CB3867A3
:10231000EB919D194B565676B68BBEEDFDFFE32231
:10232000C4E81858FA38004A46709BF6757EA88EA5
:10233000F5AD57A2272EBEA25479F30BB80CC38675
:10234000C1E166AD64648D28F155B4F1E7F6685BD0
:1023500094ECEAD8BB7AE0BD1082A74B35C1D51802
:10236000E666892E9761C1F2A5D9B4CDCC7C9CEFED
:10237000BDD9F7B4E3381E63ECDBF2FB56DCA16594
:102380000CAFFE88576FFFE320C4E2153ACE3C0A3B
:1023900048C4B863B2A9AB6BB2B97A93D8B432F976
:1023A0008AEBD9494BAB8A51A0D3AE26C4BD287263
:1023B0006A32B7956B0B6555E8CE75289212934437
:1023C00054A24961F796D6AB72ECD23B18F1702B50
:1023D00059B70DECC4D2B6D37F08B556B03D55BE43
:1023E000257AB3426263645A44895DCE6890FFE304
:1023F00022C4E815FA4E2C0248C4B8A850D493342D
:102400004E81D4221C352C30A50A84C16361C635A7
:102410008758C2CA4371A0ADEC5D34A1255CF75B5F
:10242000FAFD34922CB5031D0090D6D85F50B2EF60
:102430000B34020FE3881B5404EBF0C240DB206D29
:102440006148FF8A54940B2511E05CF7FE16E40DF9
:102450000F0384CA416784FFE320C4EC167A4E2040
:10246000007984B81DFFF1084000A438392001210B
:1024700035FFF94CB45122A2B51F216FA173A1847D
:102480007FFFF00A0868C17C82C880CB40F44860B6
:102490006A21D088023943A7FFFFFC900B04580C37
:1024A000BC276136862906E480B880CA000501741D
:1024B0009A1CE21DFFFFFFF885832309B42D14FF4A
:1024C000E322C4ED18211614014C40004112688724
:1024D00007A489642E88E50A083E254C414D453302
:1024E0002E38382028626574612955555555555543
:1024F000555555555555555555555555555555558C
:10250000555555555555555555555555555555557B
:10251000555555555555555555555555555555556B
:102520005555555555555555FFE320C4E826A35D2F
:10253000A801939800555555555555555555555520
:10254000555555555555555555555555555555553B
:10255000555555555555555555555555555555552B
:10256000555555555555555555555555555555551B
:10257000555555555555555555555555555555550B
:1025800055555555555555555555555555555555FB
:10259000736F756E6432612E6D703300FFE320C47B
:1025A000000000034801800000F0CBA0650F8C50B4
:1025B000037F914165FE16F629E1657FE00CB19A33
:1025C00019001827FE2900C60014017289CFFFC226
:1025D000D3CB0540B23084800E0FFFC0E001110D57
:1025E000FC068E3AC3D70B1FFFFFCA62E30B4B18E2
:1025F000D0BAB0388481168723FFFFFC5C0B2F977D
:10260000CDC828C7FFE322C45B0000034801800057
:1026100000072807801989D09BFFFFFFFC3F8169D5
:10262000800C418841C5C65F27E666E59278701147
:10263000FFFFFFFFFFE41852802881F23BC4101710
:10264000E27303A846B1205426CAEAE40402010E4C
:10265000808031D81008040289D33C57DD0C014F2B
:1026600093C20014EE8A600B00A40F4DE9FFE32033
:10267000C4B7251BFDCC01939800A99C0BC1301851
:1026800001D7E8275207A3D0903DFDD9059BA64C62
:102690006999577E6EC9B246880FC4A9B90C2E85B8
:1026A000D1E1FF5CD3753265C59264E1E06849947D
:1026B000D0FFFD34E85D3520689B898347790C7A2B
:1026C0001F18E157287FFFA9D377521DB409063E92
:1026D000503764D318FFE322C47D251BE2B25F8824
:1026E00068010A68A96DFFFFF40FA26E9E85DD9355
:1026F000FD340E134FA4699B01357843F7F1F5FCC7
:10270000888206365DCB0B9A85CB8D71C0AAAB1E35
:1027100058F8F39D4359DCF5E861C453475368AD5D
:102720005D54C3753766E8CAA8E71CFDD2893CB67C
:102730006FC7BFFD5EBFAB6F766373A621F5FFE386
:1027400020C444147A82DCCBC83800AB54B458EFB0
:1027500022324AE92774EDFF34FDECFDF8264C34B3
:1027600099E9F3D57B2A293C95B449D3C6CAB50E5D
:1027700030AAA98B067C2DF70C2B5748CA19278D38
:10278000A557788516221B06480D5A4795187D20B7
:10279000904EA7CE0B9845D35160F71ECA881450AF
:1027A000F56AA7257117FFE322C44D1588F2C4000E
:1027B00033CC70725D8B055DDFF92E9555FDACF95C
:1027C0002A0459CCA4BC4C0E93DC91EFD950375C51
:1027D0004950F54E50FED4D635CB59B93C7B2788AD
:1027E000420801048AA7F73F07F489166098780C1D
:1027F000A99110F7A1C31640BB1B603451171051AB
:1028000012B78773AFAFCE2BF5EAF36AFBF8E6FF9A
:10281000E320C4521398F2C400331670290054798F
:102820002425CD1B92BE1BBCBCAEA42177DDE829BC
:1028300056D485DF4BB2150C9D0451869A21248F06
:10284000813BD392EF9C0B943230D89CF1EE1B3C31
:102850006597B4AA5AE889B26A65B4D76D7FFEDF7E
:102860004FFF7745D09EF7A937CED02579AC6AA522
:1028700062F43915CCCA22FFE322C45E12A8EEC46A
:1028800000331270489E7062DBFF11EADBB8A65B72
:10289000FB53561E58CC9B138744E53981509268F0
:1028A0009C6A3DD16DC240C2F83880813826142818
:1028B0000883868485DE2A1522865D0E1F52AA555E
:1028C000FB523B5D7FDFB32DFF6DB42A99D421BD50
:1028D0009E5EA33913543EA8EACC3F14B432E654AA
:1028E000FFE320C46F16893AC0AA4BCC7088C57A22
:1028F0006BE82747090E366C7EADDBCFF56E8A0A92
:1029000083A450FD5A5A63786A59C61AD273F5DD0A
:102910007FCC7A8AEB2BDC51C4888341702EB0A027
:102920000B8760F87E3D9C5F870FE448D53BF77AC4
:10293000EAB2D880896076D03BCD072E0DD33045E2
:102940001AB856F2878A1A1FFFE322C46F15D1AA5C
:10295000C0006610940D05206870227D74DDC71BD1
:1029600043BE30DB4EDB8B693A277B5EEA35FBEEFC
:10297000EA57B4F9DFF8F8BA5828E80523382FE603
:102980000DB44405602E04C50C91779741BA6DFFD4
:10299000EBFFFA6A92484424464007F5EAF6AA7427
:1029A000F424005E7BFDA4403C171E52333E5D0EB6
:1029B00035FFE320C4731551F2E63E3210982F37ED
:1029C0005FF8E7F969D3AEEBAE3D131C5197762360
:1029D000CA9621D68EF63ECCBE99551EBB5F5737A0
:1029E00011150F088A949D914E1F011513C4E0E044
:1029F0009D95D53F21377787F228A963552F86709B
:102A0000501F8D0EDD2D4E34C17130121C59CEA1D8
:102A1000D44DC6F55DFAC47DEAFFE322C478144ABA
:102A200016E61E4ACA98C429DAADDD5FCC9D29DDC1
:102A300075292445522BA2AD6DDDA5332199EE9F5A
:102A4000EFD5910BD94A534282794D0273E94FFD7C
:102A50004AFFC827FFE66C280713142D5EBFC9057F
:102A6000B91E410D01C0E10A3F8B883A18BB84941E
:102A7000E1F1316DFAB36AC597FD87879C5C4D859E
:102A8000E1C1FFE320C482141A4EE5744204B88801
:102A9000583E447BC1806CD05C3409CB170B30AC02
:102AA000FD35DBDC4B6BA9AC34B8E6ACA7A841B76D
:102AB000D2E90AB6DA2352DB68FDE050F9311BF7A0
:102AC000B31FFF96380F00A948830F678D2A5FC692
:102AD000EF8A4D85CC7BFA2E58FB27BDF157DF16C8
:102AE000FDDA97359C8B425C0CC0FFE322C48C1549
:102AF0002136E5740BCA7061DF7B76B2CA8CCAF6E8
:102B0000E6D0CEE94FFFBEFE9A95ADA26FBF637DC2
:102B1000EBA7470A33EC1212307BFDEDF97AE8DAC5
:102B2000B968191FFF5FBE4D50C421A70D2F531860
:102B30000A24936F237D8DC8FB852CAAD41ADEAAA4
:102B4000F44C6090B87F430430FE35AC55B3562A40
:102B5000F6DEFAFFE320C4931762EAF1FE32C4B94D
:102B6000668D7566BBC054262C2604043383C4349A
:102B70001BD9842354734D55960DDF46BF67FFFF65
:102B8000FC978A96166FC469FFFC00C3FFF1912C75
:102B900042D105AC862B95EA5681541ABAC210442C
:102BA0001E210C2041D6C98A044C08971E64664D2C
:102BB00018509CC6577FFFF7528918FFE322C49034
:102BC00017418AD400161094D15151211120228D21
:102BD00090C1C13387C5C28121AF593DA55C255D38
:102BE0002C9360E7FFF51BFFA7FFE9834054160510
:102BF000816329DB6D64000901D74DA050BBCD3B3B
:102C00008C621F0ECEF659206A9B2FCAC78C4601D4
:102C1000E551601C4FC7702D734F4B0782C144A50F
:102C200045E38942FFE320C48F1781A6E5940A4A51
:102C300094EAEFE6E7BA4FFFFEB1A8732F283C06EF
:102C400008010081398429E12C2EF9675075E44888
:102C5000A6B54607C889D4301D0B150928E552A62C
:102C600088EEB060584EFFF5435584AA140B6CA053
:102C7000076AB68BCBFF16A3EEE3EA2D905078AC33
:102C8000A7FF22A48721500C143CFBBBFFE322C406
:102C90008C1AD1A2EE5E2A1094FF8B5D109ED8880C
:102CA0005E6FC632384E561CBF7EE75BCBB3FFE289
:102CB000933F6CC00A0E0C5A3B6FF765854A9063D0
:102CC000EB032978DD1FFFFE8A145B6DA0072BB68E
:102CD000D1E17EF6DF7DD507C5543CAEADFD58A4ED
:102CE00001814B5BCE76AA9B831876AFE4610439F1
:102CF000F3EA92B08BFFE320C47C13E1E2FE5E0AAC
:102D00000698911C6CFD6373FBEEC79FF7626A180F
:102D100058318094669408061279EAFFC02ECED40A
:102D2000F20B51B995AE7C40BD55FDFFAC97F7FA5B
:102D3000ED1B7D52DC7E4B8D345850A930608C1DCC
:102D40002A88622050068708868A8B2142C2E48541
:102D500081638340F10B8AB9BACE16163CFFE32299
:102D6000C48714D9FEFE5E094698D64444E5EFF9BF
:102D70009F9FFBAF58FD7E2262FE7FE5656090E37A
:102D8000DC11FFFFFFEB3DF9357FC1DF31A25DC8EC
:102D9000A11E5E795BC3249DFCE9D604A76FF7E111
:102DA000EE2E958A971A46D3A70865D112B12161F4
:102DB000A770C0A08EB546394147980F670FA1E6AE
:102DC00036C191A2AEEBFFE320C48F14622EDC006B
:102DD0000A10982088F82AD8F931579A1B77FFFFF4
:102DE0006ECD04689318352A7F81EF47D3506EF774
:102DF0003907F47966A5BEACAC3303BA9E4D956134
:102E00000FAB09EAC54F5538D3485C450538100368
:102E1000785A1686E54663216111BE79BAB2757D8E
:102E2000D2C8C8DFFE67F5BDE99A8739BBA9FFE3C1
:102E300022C49814595EE0CA08D294A8E430AAF7D4
:102E4000BFFFFFFFFAAAE400F1CB16489C2ED11178
:102E5000BC9CF285976FFFF237150D9312F0B4B555
:102E60009E3CA77DBAAFBE275BF971ACAB47B10CF6
:102E7000781440240448C3AD544943B87E2119FF57
:102E8000C4EC74FEE739F779ECF53F8B123C5A7AC3
:102E900058A5D559246DD5FFE320C4A214129AE099
:102EA000CA1094B853F49CFF4C113B3E0A2004F91D
:102EB000625D342F31E3AA1F1277FBFFF1D1789EB8
:102EC0008D565A231469096BB19D1156AF5BB96ECB
:102ED000242605656896E85019BC654D9AF2EC32D7
:102EE0008758254204A6C26B3F22DE51BD1AAA7143
:102EF000D756E52AEFCC1CEEF9BA4C639E7492FFCC
:102F0000E322C4AC1479EACC000A1698252F8BE290
:102F10005D2A3D8F7A1155C7BE4B5E3B4E27CBD500
:102F20003453B90E6566F3AA996F2350AA6A0C73DD
:102F3000A8ABA164005AA65CD7BBC85C7BCE00815D
:102F4000EB75BD6C5AEA5EFD9ABAA57FFFD1E63BF0
:102F5000988D54B63C2C80A4093CB5BBE376A7A65B
:102F60006CFFDD594C6DC45CFFE320C4B61389D6F9
:102F7000CCC2318A94EF9CD740F6DAEA3BF8EEB641
:102F8000DA1FE7FABE1904D7DCC86F9EA856EBDD3E
:102F90001A6F585AAE5C4D01D7572E7A839A6FE953
:102FA000CDBD48A3A9FEF7F0D1BF3D7E1B3137B799
:102FB000E444F3A95C846266B4D9A286C310139476
:102FC000A3F6C6B55D54FDD7DFFCC3775F51C536A8
:102FD000FFE322C4C21339CEC80032CA94C4F67DBE
:102FE000CBDD0BAAC31BC40A9D5D791152E7628A2F
:102FF0001B2AA753BD6896747D199F447FC8A38F71
:10300000EC4FECFFAD298A910D47FE02732BAAA568
:103010009D4ACE9051C080E4AC961147703AB71DDE
:103020003DDF997912F8CFF97F33FD97C522109AC9
:10303000312575AB5EAF556D23FFE320C4D112710E
:10304000EAC8004190980EE9C0E6D669DA663256C1
:10305000776A2098F8AA963C45CB18B1225A744852
:10306000FEC5BE564D2E111D09D05371DFDF9D6781
:10307000D0790EFFF0B9D673EC174C10E502B337D8
:103080001AE8F8B8F854195D5FE540D9A1464B320B
:1030900012B796955772E7DD116AAC9BB6BECE1A91
:1030A000AEFFE322C4E214B29AD9944A0AB8A51A30
:1030B00021D1845B2BAD1791CF4182E2C1E28E64B6
:1030C000A49A5045E099EAED53CE9A7286C80B3126
:1030D000A298190FAFFA6A790EFFB25A4133CA208B
:1030E000190B3E0D582337CD58C7BE0F1D77ABFCCB
:1030F000231734D32F9BF306C27335C5D8F74ACFB5
:10310000359CEA21C6EF572A1B4AFFE320C4EB1780
:10311000B9F2CD8C498A9898E229CF5542F55CE303
:10312000573486E7217BEFA1BAAB4CA3DF7A9269D3
:103130003590141031E30C304322D167AF4D37ED99
:103140000C55EC570A69DC8A38FEA82C0C32546402
:10315000ECD1DA113C5F7EEB22A68E79B387DAD60A
:10316000A7224CDBDDF1128F09EFCD4C55455F9462
:103170002188FFE322C4E71611EAC8C2320A98D7B1
:1031800053C05B7EE4EB4E79AB748BB9AD898A1F7B
:10319000A9AB0AA944054D231E844094DEB26A9B64
:1031A0007B487107B7D0FFF52AED673DED619D2E95
:1031B0000C9B302C31F28C19348C8A491370BEB3BD
:1031C0009220A9E966E3B7FBA84AAAF4BA8E5599FA
:1031D000611A3AFE2B4F0CB4292B61FFE320C4EA9D
:1031E000174A52C4C2320EB84598E4D599DDF6F8B4
:1031F000AABD194B79F535EA32912AD860A562BA91
:103200002C15F6175BB4BDB4D5FBD48FC600B96CD2
:10321000DD15445261A24144C672E373658B030B12
:103220005247A08318C2A3C52562B329516C779E6B
:103230002F958ECA4FB55589D8BDDBB770E22EAA3F
:1032400080EAF2FFE322C4E71649EEC40032109888
:10325000193A5ABA36AA14F4BF565AF7467CEE9574
:10326000186D53BDD5345579558D82B2ECEADD9D8C
:103270000DFE9C8244D5145546E5A998D67F0EFED6
:1032800094353268B50384904185007015EB567211
:1032900010EEA744555CEE845B9CC47B722347FC14
:1032A000D4F492C92B5F13CA4EFC4882FFE320C4BA
:1032B000E91489EAC40032109814B599511A6A3B8E
:1032C0001BAF0D128D73132F2365ACD8FFFB73C892
:1032D000DF546F6FFCFA6E5DBA67DEAB8EADDAF26B
:1032E0005D9385F8ED55FFD12CCD4B52D603576138
:1032F00001D6F71B7C8EB48AAFFE6DDF346495690E
:103300006F3CB954B71F5C53C54D5776BC77F3CCAF
:10331000496156A5FFE322C4F119BB3ED63661448C
:10332000BCB4111153822AE2521C7D3F1315A0C375
:1033300031DA6978B0BA024A0BFAF5B2432D6BF470
:10334000AE5D9FA5A94E151F6C5930FF433F1787EF
:1033500056180C01182038B60E83890C2AFDF26429
:1033600018C9C85B8A69EF0217CE77D67745492618
:10337000A4DB1A3433A8C11621EE3E6522FFE320F8
:10338000C4E616C9F2C8C24150990C4752221D9694
:103390003007DA8FCFDD2F4299CA475439FD519952
:1033A000AD4DEB498E2681F04869F20655190C9B0C
:1033B0007E736A19FA15F20FFD84BE98A6B2764D97
:1033C000DC63009982043E91B5E3866B3DD7330EF2
:1033D00083C4795A1C30BD3E51626E7DE226AAD26A
:1033E0001A3F9E6DE6FFE322C4E51431F2C80032B5
:1033F0001098BF12852FED8478A6EEB669A9AFEFBD
:1034000069F6AAA1CFB751730F1CE083A4294A30F3
:10341000EA6B65D9772EA518337755BA7469EB0E28
:10342000FDC0C8A440BA92840D3183CB0161F6235C
:10343000D2F7D4BDF2FA71CC6C234D36441675CF59
:103440002C329DFCF3151DAD534C7FB7C561FFE3D6
:1034500020C4F01912BAC96430CAB8D9C83E4A9B10
:103460000DCC398F773EB55BE54D1F963CEDB20D27
:10347000606270E4E459EC51EA1F51A58B1C36944C
:10348000ACB9ED3F8B2AFD8EFF40C310BD7B0B1CFA
:10349000984D9E0DEC2A6C231D435A45514627AA90
:1034A000FF46723E0E18734B5F154A4DB23CCD631A
:1034B00094D7CDD3E162FFE322C4E616C1F2C8C2BD
:1034C00032109887E7144F268435FAA0ABE48E516A
:1034D000D6C859BD693245C89CA6F42E2EE171713B
:1034E000895E14C927F295FD4103668B71C0D59D95
:1034F0000C0EC480E96CE4BCA29469365DDB54D246
:103500006E5453085483CA9847AA2A9F155B77C5FF
:10351000B29F10E638FCB58EABF8DC2FA9DAD6FFE7
:10352000E320C4E71689F2C8C2320E981376D3613D
:1035300037712D52F864CAD55491C62A34C1D17559
:1035400083D242A422C78DD062255CA3360816FA26
:10355000086B5517CAEBE892222A868724FDE906F4
:1035600010B0CAA79F2D61CF01F058B24433A26DAD
:103570000ECFF586DF9EBB9D6A4A124F4B1CA72FCC
:1035800059944D2B49CCABFFE322C4E714D9F2C8C0
:10359000C2320A98EC177310445D2AA56C7ACE2CBF
:1035A0004A23FAB64E9D031E52D2F59C6A520C1C59
:1035B0000103881C76E4D59654C019CB2AA4CB7E8F
:1035C0004C9AFF9576F3AE610B1198D70DDC43FB57
:1035D00097288F570D13C9682CB485248708CC957C
:1035E0000A3AA7577A73ADA6FD2EE868545F49E7FB
:1035F000FFE320C4EF18C1EAC0004216981357BA7F
:10360000B2B9EC6323CD759A747078157BBA33C860
:10361000DB8C8AA3474315F5D5CDA0090404DD96BC
:10362000DC785E5A2D96DA7A88A8848AB87A1644AD
:1036300040E1A869D7343E79489DF3D05ED2A0908E
:10364000F56BF61B35F1FC714CA45646BBF557746F
:10365000C5035D6881AE43CCFFE322C4E717696A06
:10366000D62E4A0E94EFB6DF32D9C5C820E8DFCE99
:10367000CFD3BD5642EACCCDA333A4DA4A77320D7C
:103680006B91E95E3D8162CDF43D66DEF3D21FC3EE
:10369000148C998601A8F7D309366F4F26D28894E7
:1036A000B9C8040F0022A268A418224461D552DBD5
:1036B0007618673B98A471BEE5AFEDA2D1E6D3B210
:1036C00026FFE320C4E51249E2C800320E989405B3
:1036D0000EB1F974F34FDEAF6A6BB1AE2665D999BE
:1036E000F633466BB4C9F337B989F44D8ED2A402D0
:1036F00067961250CAC24EE9F5FD2AFF45959E090C
:10370000C94E1144A4800C148847A882CD5168E2A8
:10371000927E54E1A2E2E58DB41046C195E30BE739
:10372000AFB50D2A879B53BE63FFE322C4F61B028D
:10373000F2CE2E620AB8FA0122C88883E88CAEFB6A
:103740004F656AA36EF3DD8AB29EEEB5B9143130CF
:10375000AD6E1CA0DA54E28E38E5217275F1FEE2FE
:103760003248398CDAEB167918BD9E080EF2A34A5E
:103770007A7ED6677A3BB7EEA103A78E92913A94F0
:103780009FA6DDC351E77F8EA557A8B9B4BE5AAA3C
:10379000ABD6FFE320C4E616DAB2CD84494EB8C1F9
:1037A000F1111A246CD5D5C4AFA27FC24C5B7463EF
:1037B00013A9846B72914342C9B16C5E408469B0B5
:1037C000A8E0F0B29886B0E4DF63314B3FE8D366FF
:1037D000E594BAC47B61FA76398F7F48F1B4ABBA0D
:1037E00001C182CA2E4143881A3054D1FFACC57939
:1037F00073AB92F74B21ACCAC6B3FFE322C4E51505
:1038000019EEC400320E98A6D5D95AFF07FD27C479
:1038100035388A80E12BFB2E649181E365818AE44F
:10382000C55E8224C1E006B1F8BFEACDFEB5E1D3A2
:103830003C7030B3F041CADC2CA1B87AD01D2C4EBC
:10384000D6ED6C148DA7A95A75ED93AEE3298F12AE
:103850003DD03AE6BF933D9ACFBAA31CF32B9551C6
:1038600059999EFFE320C4EC1901EEC4A24AD098F6
:1038700038FAC000DF098A69638A193455D52E9455
:103880006107772A8A58953C3C601169DB2B080D4B
:103890001E2515643B928E3405FF57F4AAFD8A530A
:1038A000666D82B748C61040B169394735B12A3ACA
:1038B0005AE7BF7362BAF1D83D12D238F7A2957FAA
:1038C000A5D7D771311C72B2968EEDFFE322C4E307
:1038D00014A16AEE5E494494ABD7C201D510F02022
:1038E0008893176D1F13137CCB543CDCE389F3BD25
:1038F0000ACA6477DB7F94E366D5A1FFDA417F29AA
:10390000A349C482433330342E2E524D8DB2EE8DF6
:103910007243019EFD794ACB393513A04A205E657A
:103920007DDC92F3BF6C9DE622B566B1030E98DB99
:10393000C1791B9BFFE320C4EC1849EAC8A2630AC3
:1039400098108B0F2C8869A94CC479883861CD1EDA
:10395000183C72FECB735BD52DAA15B2AD2FD76381
:103960002CFD18FA32A9722D00898357AF7E4FCAF9
:10397000FFA19A1801A8F5BC270EFC71BDB7C89C21
:103980006A3701B208D69F0F69FE587D8DFA8DB750
:10399000763DA8DB630D46546AF56EC8FFE320C48C
:1039A000E513F9EAC80032D098593455676556478F
:1039B000F80BF8317B9A2C86E38728F9FF13DAA5F8
:1039C0001972C5D854F350161EB6290696C61BBDEB
:1039D0004B155FFAFD8FA1E31A110E565CE1A51994
:1039E00011504D3CD599CD7FBD56E9917DB673B14F
:1039F000F6542282AD5B02FC7E618EA6D8F5ADB492
:103A0000C8D9DEE8FFE322C4F01AB2CAC4A2498EC4
:103A1000B87EF64F522060C3F610738DE464A71889
:103A20003A322542899409697389CD297AFB3A6B28
:103A30004A8921833CC2AA34494404EDAB908C5599
:103A4000A9C84C2E650129B31CFC0F05DF1DE894A5
:103A5000AC822720F9BF1B73CA4910C48692DC6F61
:103A60005BF1DBFFDD9B37ADD97D576EA1FFE32016
:103A7000C4E115F17ED5844AC494FA3E1175A3A918
:103A8000CFD1598D7EB38A4F74F5FFEF6636677AD2
:103A9000B36AB744B3B2B5DD90E471E92A72D97460
:103AA0003BC8604395EDD4C94AF7A74204ED3306FD
:103AB0001A0F1F40D9532058F8A056A2C47E911E59
:103AC00055952E53879E2EE11264892FB2271C979D
:103AD00086E432509AFFE322C4E41469A2C800438A
:103AE00014948E69E687EF30F6F30D75EFAFB835B5
:103AF00078BB50C89C754429655D6C33F86A7FBA01
:103B00009328AB625531C7C466537D7548D451655F
:103B100052D41F43F4A6FEDC252ADCC60564B47B20
:103B20008B396453D5C208E251648D566F9729587A
:103B3000368CCC1E183E92B994AA369EE54CFFE313
:103B400020C4EE1962CAD22E498AB83262644F5339
:103B5000BA42718619B0EA755DCF9976D0F4546790
:103B6000262F4504511145B5B1CBFCC25E3C8A5DA0
:103B700063D68BE9F3C8E3645C4EEFFDA89095A78C
:103B800091155C162E85B64C2804C088340EE46B63
:103B900016A738D38EEFEBE673C5465FE48D16EFBC
:103BA000EB865FA951F6FFE322C4E317F1EAC400F4
:103BB0004A5098FDB46F83ED475EE0DAB4437ADD96
:103BC000AA589FACF3F24408922576689064FC688A
:103BD000940C58342F0CF1A74C902041552684C9E1
:103BE000E4915AF455C7B0244C786D9B1EA2C903CA
:103BF000C9327895F6E8B90C739E8BCFE18F261AFF
:103C00005C4408C29D7F2DF2ABAB9E5EEE3BAFFFE6
:103C1000E320C4DF1441EEC800321498EABFE2EAA0
:103C20006780F1E66C60497FA4D271B92FF2AD15BF
:103C3000E305547A7425E48E22E137FBDE8F7A1592
:103C4000EE943FEAAB80E23EB263E2A2F49A25C171
:103C5000C4905A44268A7A5594ED064C743370B455
:103C6000B12BCD85C4FF1DE98914E910400454AE81
:103C700096F0A7E7FC8ED5FFE322C4E918C9EEEA67
:103C8000564A04986417BB485992FC49C44BCB036D
:103C9000D0F3A95061C1E1338B0404A7440167E765
:103CA0008D0D181928F4A8E1E044B8F6BA661E7C18
:103CB00051C856EBF1FD2A7FC5F7FCE0BB7EC93247
:103CC000060CEDCDE0742A122719D47D61E551DE92
:103CD00063F1270246B780D429D88C4773F6B18E9A
:103CE000FFE320C4E11351EECC00319098DEC8CB45
:103CF00022D57EC32CD8DB2224078C19381B2870D0
:103D0000C849B8C6C564059320FBB45E6AB7A46110
:103D1000A7D4C48A68F4FF459A06A2676C32FC29CE
:103D20005D12B2A93A3A51E6ACB230251CAD413829
:103D3000AA2E25E3F6607043AB58C39AB59B3E6B41
:103D4000318BA19D3EBEFFD8FFE322C4EE1A59E697
:103D5000D964498698815754102DA889756B95B4FC
:103D6000744D4C3895D571586E2A2EE50558F84794
:103D70006A055EB957B69868F53DFB92B9D33B0921
:103D80006E7DA33805A745376B66C82118A162343C
:103D9000BAD0DA94A34697074D4E41228696139ADD
:103DA000241CCAF534DF5DF7BA3D7447CBB315B1B7
:103DB00051FFE320C4E014E982E0CA498A947F9766
:103DC000CB69CD0E3AC29D23EC24E28A8D3B1B8742
:103DD00027C23B0B53210E235D3DD71E6331618CFF
:103DE00041540A7FFFEB99D2F9B45ABCDAC82335A3
:103DF000470BE918789CF1C61693FA2A5DC4EDB01A
:103E0000CF9CBFD4992026408496006AD1311956A0
:103E1000B1A7C2BA2A3AB3D9D8FFE322C4E715B989
:103E2000E2D944618498D7BCAD3A64572B1413A8E7
:103E3000964267B8CBF23A33C56007519A93563928
:103E400073C69BBCBB191545D5A6DD9FEF45FE404B
:103E5000F8AF10AC6665830014AE282B0F101D6BF5
:103E6000BA1E089F21849364BBE1E1B69180D8A873
:103E70001942A8D85C13211B3E7EF6BAEF5366B6F2
:103E8000E46DFFE320C4EC17424AD0A26206B8FBFF
:103E9000ACBF1E1FFABE770991204C1613161609E7
:103EA000840F0050123AC5153405785143036B0F47
:103EB00037B96B5D3EEFEA91B2280265B96CEB222F
:103EC0009FBA869A60E8CCB48D99C180306C34BDBD
:103ED0008A4B6DB97E6F5BFF865788A32D3431BD49
:103EE000BFC75D79A8C8A59115FFFFE322C4EA16F4
:103EF000A9E6C800624698444642E8A46FA95F5FFD
:103F00007ECF55520D1C48F28BA0726A0450282BAC
:103F1000A05594B1E80FA228F59C6B4559F087FF96
:103F2000F965E1DF394589669C4D1A56F6599311BA
:103F30008704E27180AEA14CF2F98D36AC175101C5
:103F4000131FD5AC07A20D6CA44C2A6599C658C6A0
:103F500059D2FFFFE320C4EB170172C8004A4C940A
:103F600039148FCC94CFE17FE4AA794784B56425D6
:103F700039B9FD3A7A6584895BD2F0AAEC4283C5EF
:103F8000A4B456B49A0863D0AD259DFF5145F7C13E
:103F9000D247F9AED36E60A12ABAA8442AC1695BA0
:103FA00056856209AAA49DBD2AA9080762296276DE
:103FB000D90DA2935F27BDB353BF4CFFE322C4EAE0
:103FC0001761EEDA36618498A91696C588CF4BEB57
:103FD00031152F99C66381DA66CC497F3E10331EB6
:103FE0009B10A3D2669E965DD2A10EFECE819690C6
:103FF0009D06CA066A84625A3C6DB2C7DED8A58C9B
:104000005DF16E0D5124EA392D228158956B8D0991
:10401000D6CB9B50BAD33C2525FF2ACA46CAAE94BC
:10402000FF69A1E8FFE320C4E817A1EAC4A27A4629
:1040300098B1E1243F52A76E66C93960514163C807
:10404000F8C076D0F9FB201A040026A89B58C15668
:104050009333D2EFF555A1D30BC5418AEBAC71C1B7
:104060003A35886F14CAABD61CA0C30149F85F3D2E
:1040700075B58AED07ECD7EF6E279DFA75E12247FB
:10408000677FEF7DA2C4234A59109970FFE322C4D1
:10409000E41379EAC4004A4698E26CC8D93E111983
:1040A000FFAADBDF36CAB25CDC4FAECE3510CD7A6C
:1040B00085D7608C74143362B5424E15334B58FF6C
:1040C000585F52D9E32BA3DFD47B160D4FB656E6CB
:1040D000C88DF05B903874C58BB948932B18A854E1
:1040E00079951684673CC982E915826881C276E5B4
:1040F000E714A7B6C8FFE320C4F217C9EAC0AA4A6A
:10410000469846D14F2DAA7649FD4F97F9CF33F205
:10411000D09E24D24D7BBA194081D5E168A07E495A
:1041200063481D2ECBD334B78E1C9677DBAFD4DC1F
:10413000B0B88ADB5E1227C493CB08C56414FEB105
:1041400096B269A464CB3929C6E53F2A6C2A228736
:1041500099530B6A595AC79A8C384A7D92FFE322C9
:10416000C4ED18C1EEBCA263069889866A95B9674A
:10417000E7B49F0A97E7B298DF6F181AF6A9D3172A
:104180009C2B5857342844AD5AFDBEAD558441157B
:104190001F1094C3C2333C75A86CE9A46CAA80506C
:1041A000336428ACDDE5990A6B80C495FD20E8A254
:1041B0001244D209A206D0729CA55A64ED25CD41C5
:1041C0005D4DB666D613FFE320C4E616F9EEBCA239
:1041D0007A469897E647258922C6F63FDA4AD4BA46
:1041E000B990C3D4868EC5A95B08970B14786D86E9
:1041F000324137CE28A972094540A387AFEC752A12
:10420000D98A031996B4D5281ACC4B6A5D08E2897D
:104210002CDD53F5A4AE66BB2553C8EB3F44220FFB
:10422000A159FC4DCA7AAC7DD84378B18CFFFFE32D
:1042300022C4E51419EABC005A469821CBA4D590B3
:10424000CF550A47C75CF733EFDED2CB874B52C25C
:10425000258241844E6DD93D926A7FBD28D35FD7B8
:10426000FDD4D5F58224A46D5921128D149A8D198F
:10427000118951AD1EC3E5089E68FB628372ABB91C
:10428000D942522591906265D19BFB6C2536489DA1
:10429000EFC651AE081C30FFE320C4F01959EAB94B
:1042A000647986981673BDD679F2D530E648550AFA
:1042B000943F8494FC53C1DEE025554147D865D630
:1042C0007C47915DB6D3E97FA7D2A5B20EFE0B6104
:1042D0004F58BA64643F554CEC912EAB28A0B3BC48
:1042E000F4CDA599E5A32B224B119F59DEBB145A9F
:1042F000F5762ED979318FA91E786C5146EC43FFA3
:10430000E322C4E51549E2B8005B069816AAE70F58
:1043100030B596DD54EEF4388D7DCC933DE67334A4
:10432000A52A0C84CBD9AC932208ADA9D651C3C21F
:1043300007B4E4EDDCE553EAF6CA21F7C512C4562A
:104340004541DA0551A978EB807B6A4D0BB62B0FFE
:10435000A04FD57FE168896C9A1A8A5286EF9D4CEE
:10436000CFEBA91555CCB66BFFE320C4EB16A1F239
:10437000B4004A46983B109231BE733EE77DEDDCB7
:10438000D5AEE4C74D0E0687CDC62144A02B1EA78F
:10439000FBAB8FF8A7A3D75AE1DFED702D511FBDFE
:1043A00060C1ECA87A9C6146C81BB59C97ADA4453A
:1043B0004C30166CE41AF8ECD813E955F2F4B2ABB1
:1043C000EBE31C4DA28FC9E463B5CE4D2595D2F128
:1043D000FFE322C4EB1801E6B4C27BCA9872F96409
:1043E0009CA5B3C2BD2AB8E51033D1C5E298973D6C
:1043F000C812DDBCC8D719A96000A05E1B4303DA50
:10440000196F53FFFEBAF091C278932E8F13C150EB
:10441000C8A41D2015997571F5F9C9491444922253
:1044200024904B9914DE1543ED132DDD77566D76F0
:10443000DF5CCF524D0D89B68CFFE320C4E714A991
:10444000E6B4004A4698C0E524AE66B66E6598F5B7
:104450001B380D0876A26D8955205574C089A017A8
:10446000AD2E41E35B18D3EBD23DEA4F5FFFE89CF2
:10447000D2B0BAAB2D1A67DC5A4A2A0944C40F29B4
:1044800025D1BE3D13CDB4DB044309D4F124CB9A2E
:1044900059B59FF71486EDA76E55943D3B9522853F
:1044A0000EFFE322C4EF1821EEB0A27A4698F985F8
:1044B000D18CD7A6E9550BEF4A28E24D4490BD4D6B
:1044C0005F8745D5121101A2294B9C564171199164
:1044D0005511194C58E7B9AEBF4FFD15EDEB46F637
:1044E0006B10E9D42C0E0A261106DA2C94E27BE537
:1044F00044FF2668E17BBB755215C54E8256AA184B
:104500006F5F6E0A59BCEFC77FCCFFE320C4EA1788
:1045100001EAAC004B0698B7BFEC9FA2156E577529
:10452000E1D270CDD8D859696909E2899AA34213BA
:1045300001C08A4205F8EBD88F17D17E2325689CED
:10454000362C16E09E2D704503474AF964BE8E68EE
:10455000766090E4BAA7DCF87BBAE90B2B143F1520
:10456000DB6E3EFDACDDA77C7DFDADAA1DB11ED985
:10457000255EFFE322C4E917D9EEAC00624698C776
:10458000CC68AA77A75BE3BE640E8D77AB44EAF1F3
:104590006C7AD1A38BCC7FFFA6D69A587491F38105
:1045A000386C24156B16C4AA956E98FB3E85E30EF5
:1045B000E46F6C153D8C2A701D47CB8F9E066427D7
:1045C0008F2FD5BC7BFDABEE7B629127BF6445A9E5
:1045D0006A22CEA3ACAB60901FBFC4FFE320C4E54A
:1045E0001441EEAC004A46982D8322AB45C46FF5CA
:1045F0008C609156FB42460E6A86CFDB77EE538E77
:10460000ADD1DEA4262DF651977F2DB5EFFEED95A9
:10461000FFFB7FDFF4F50AF78491851B848DEB4265
:10462000B618EB00A69CC74B397DEA8066D9E87CBA
:10463000FE123B272E5DB7EFFEA585C4BE4E79B7AF
:10464000B79179FFE322C4EF19A21EA4005B0C9876
:1046500077333FAB29B183F34A94E154F6CF8F3AD5
:104660000C28BF9F3449CA3EC72F1E2B4B7D74BFF9
:10467000AFBFFD75E106C61488A12EC25F39F27284
:10468000F32288EEB108233CF4C96DB30B6F5514C7
:104690000423A425DD9B384B52B19B5BB8DF3ACB9A
:1046A000AD76D88189548E92E8BD44D8FFE320C40A
:1046B000E41678CEACC24B0C71114EFF96B84EC1C9
:1046C0006D9C9E19120E2274C20B510F45D12524E8
:1046D000D67E5C43D2D19ED32D3458F1D70AC5196A
:1046E00030E34D3F66E75BBB9493F48CE7C2442113
:1046F0006851C081D05028760F9E15207F47C45541
:104700000A2187987711F14325378877B5216959B0
:104710001573B9F9FFE322C4E51459E2B4CA498616
:1047200098EF0D090D67FB3687A7DF8BF14BEA91F8
:10473000CED6FDEE945053919E4A645C31CC5683A4
:104740002B5D1FFA95120544C3513615EE365958A4
:10475000E9C759F8CA600C78A9A3EAB95D66238154
:10476000022B472BE99F94B1CE57156FD609BE7324
:10477000D5A1D0E132B72DD5489CDBC1C2FFE320E3
:10478000C4EF1A4232A0C2630698CA75F22FAAACCF
:10479000555EA948AA77EC571FB838A0CBC8A829FE
:1047A000151706834162C70780CB8A21AB70B8A179
:1047B0004FDF754AFEB57202E78F19001061B0FC39
:1047C00089B9558F190BAC9B6BCD77CFDAD25C9A38
:1047D0002E34D2DEEBC9742B9FCB98F42211A2A108
:1047E000924AE97323FFE322C4E11351E6ACAA32F3
:1047F0000698BE8B666B2A2D551DA79D8C4BA3BBBF
:1048000030F09015805181C1503941F30915708005
:1048100000B2E82628177DCFB6E3D15A53DFF42A39
:10482000FDA2105F0DE0A9CD3479C46DC0B036E1B2
:10483000386A15D34E58C55691AC0EE48D7836F0D3
:10484000AD2C5EAC8D7832BC8F7DD779EF6AFFE3FB
:1048500020C4EF18E1EEA0C4630698A57E7590CA47
:10486000182832DB3A4667FFE438B5D77D561DED90
:1048700076C30F49D89C20812924E8714D0C868F7E
:10488000A3B13DADFA3D55F3D5450BB714491644D8
:10489000A82E261A44AD18F63623C67DEF6CCCC27E
:1048A000B2CB67F7758F4B43A49A83BAC5C7C66D61
:1048B00026E5B6C79FA7FFE322C4E617099EA4CA50
:1048C0004A4A94B352C8980851E51F285CE2D4556F
:1048D000F7FB439A96D0E0836A7E6A42D0FD2B6B49
:1048E0000CBC31874C27A7A357F7FFFA55459F22E9
:1048F000B095532DA88203070F38541F388CECED68
:1049000083D89D3454D954681212AFFF9445678AF6
:10491000AE3F18C2E3FEDA73F7095D7BFB92CFFF6F
:10492000E320C4E51659EA9C004BC6988910572F1E
:10493000DD4CA5572C3572B0984B1B8334672AC4C5
:104940004FE1450254E1AF2F72E3C34778E6E63208
:104950002DB9250BA80D569AD5DDDC356A59967907
:10496000810D037300B86515E6258937BACBD832B7
:10497000CA5AB34CFCD355A7A7B9ADA3F8B7A7F251
:1049800078D61D45912F9FFFE322C4E61611EA9CBD
:10499000004BC698038C49A48D7FFBD933CCE7C06C
:1049A000468BDCF37AD09968304B26880121AC37EE
:1049B00009AD6AA160A8F58486B24CC6C57B435098
:1049C00043DB736A787831914A68E75E4402504469
:1049D000A1E4669766FC119A2E29350E299A38EEC5
:1049E0006F9C9FF3275FD465E83DB22EFDF99F4B86
:1049F000FFE320C4E917925698A24A46B8865E495A
:104A0000DDDFA776BD81CB35620AA25BE176721944
:104A100077352EBE98CC281D4805E56C22D7292273
:104A20008797346EA7F4ABD21A0092FCFD203A2986
:104A3000C962C5DA75BA9C4B089F450DD7136E72D3
:104A4000F9597541F9ACF354CDE5ECC416E4583A84
:104A5000C453BE47A9ADA80EFFE322C4E51371EA13
:104A60009C004306989129D265D2422E915BCEC01C
:104A7000956E8A65492E90E15CE84CD1516E914269
:104A8000A602E739EC6F4E1DCE5DDEEE6E6BBFFF0A
:104A9000FFFE6AF0D1B56CF1836D2168F396104189
:104AA00000C4DEB8DEE757E8AFB6F8C416EED8EEBD
:104AB0004FBF65731CDDA52DD0D69B43332879CD20
:104AC000EDFFE320C4F319BA5294A47A46B878A54E
:104AD00094F94B393996729183322AD4CD316BD106
:104AE0008B82452B856C9E51D2412349427AEE4DF3
:104AF000F09E97586D8C71D590EEAE4117E5F6603B
:104B000025172328DD7F7A3A50E3549683E12E3E21
:104B100062B5AEAD391156A4833A2B313152B5A4EA
:104B20000D6DED394AFE32DF55FFE322C4E7176110
:104B30009E9D544AC695681B477FBF63DFC3DA7DDD
:104B4000357FBF3C1D18614EA3ACC5AB5EF74E3739
:104B5000EB6EFFDAFCDD4FFE377DA76C753D687BA1
:104B6000D7F965F4E505C951C5399A6F0F09C340F6
:104B70003E035A5ED67527B922D3106891E58D455C
:104B80003DB4437D146E5DBDA29ADE9D29B6845F5F
:104B9000BCAAFFE320C4E513E9EA94004B06985A47
:104BA00010CC77229115252BE8B52223D16C2B2927
:104BB000551DAC0634CA2411101173E3CF2C6900C3
:104BC0000AD85C2630DA19F8DAD3A56192F1C71455
:104BD0001B81D3BBB0B9E7CB43E850196D2D6A4FA9
:104BE000B9E34D401C181D1BCCF54B1006822469FF
:104BF000F2721D3FD8B3BE6FE75EFFE322C4F01927
:104C0000624A88007B0CB8C6D038F5863334B91FA9
:104C1000DF2346374668A32992B198722E2ADE50C8
:104C2000871FB4F7BC32D0DD37C88CC595854D14CD
:104C300076468A9552E6A44C76A91D34E4531A4D63
:104C4000100A13C5231EAFBDA8D069B14527ACE536
:104C5000F8DA23A2432E2B17E33B6A9D7C666F6E26
:104C60006CE52AFFE320C4E616B1EA8C004B0A98F3
:104C700030571521BDC97E67915932FF2FEEA89597
:104C80006C323AB415E81766B62D8824DB867A2A8A
:104C90004068981A04CE9C36BBCE1F4460E931466A
:104CA0002A4E2834DC49FEE0DFC1435071D3B0F511
:104CB0008FEF5DAC32B1B2305A04171899F07347D8
:104CC000B32A295C88B66C8E03BB1BFFE322C4E6C3
:104CD000172A5288A26186B8FAC72F686FECA833EA
:104CE0001B037592A021FFB134522054B77B0905F4
:104CF000CEDE903243EB62DD7D2588A5E33D5E226A
:104D0000F92A61A0E9441D0C90898D20BB502F2108
:104D10005892231B13DFFED4BB8CB74644F1B9E392
:104D20001D79BCCA717A513C92EBA70FEDE6996CE4
:104D300064F87846FFE320C4E51351E68C00324660
:104D400098733DD7FB627FAC59FE50ABA1AF7D0499
:104D500010B4B15EB3AC55364F13E0D7A3E89C6AEC
:104D6000A9497517DAB72E6FDAFBFEF21A06A3EB24
:104D700087100A10095156E114698C603339DF3FFE
:104D800054DE71BBAAA1B9C1BD37F5AF1674EA11E3
:104D9000796DBD63FB66135C3F56F4EAFFE320C404
:104DA000F21921EA84A463C698558774322BF3BFA5
:104DB000B79B195CCE572208C50BA9D41F4B4D10C9
:104DC0001154316443C5888244093A14429AE8B2C6
:104DD000D6795F6FFB53F8503418128232BB36C954
:104DE000D47D3A2747175FA6AD42CB61F185925A31
:104DF0007E76A4A4C398FB57ECD53BA05FFEEBFAEC
:104E0000F0CF72A7FFE322C4E81731EE84A44B066B
:104E100099A4D1387C22BE4C4908DF656A44718F61
:104E2000CB4857E2D32A661E9A4E5C4038721F93D5
:104E300012E88CC8AA719E8C83FDEAF27E473BBCC7
:104E4000789EA3587656068750F476B6CB9674961D
:104E5000722199AE9BC73B8B968CB321EC7DC62506
:104E6000B474B34F89425B927A4284EAEBFFE32049
:104E7000C4E71739E689444BC6982ED61DF62EADE9
:104E8000D6A3709DAEDEC86438DB2F053B1FDF2F35
:104E900096354947383DE61C3D0A8992E17DC2B608
:104EA00031167D757102E4FC23815E17B525573BF1
:104EB00018D6804C5C50660EFB7CD26948192DAD2B
:104EC000763E833228C0B0B894B4F29917BBB8C408
:104ED000F457163C2FFFE322C4E51449EA8000335F
:104EE0000698CD1990F72A59469D3F788B725079D4
:104EF000342D76CFD69C5CF5CEB0B45BDC863183A6
:104F0000812A4706ED7EC5FA37F75641932EC03FFA
:104F1000A52CA8571B07A311348E0F0F4468605FA0
:104F20007A3DF92D732705C5C7CEFDBDF5A26AA050
:104F30007C2682EEDD881D752EDED45B9F3BFFE371
:104F400020C4EF185A3278A27B0698DFFD5DB4E4E6
:104F5000A8DA1ACAF5BDC8AB913B297FC41E05600B
:104F6000CD2060078025840882CBBA958BAE97232D
:104F70007E7478F49417B444B181D39A912DFE8A4B
:104F8000EAE00AE478BA56C4C7D06847EBDFB577E1
:104F90002F6CA40F9616C646929BFFFD1554145D08
:104FA000443E37CCE656FFE322C4E81679EE7CCACD
:104FB0006306989F34EF5F97DD795552A3A9CFFB25
:104FC000D5572CCD50B5CA218B69400CE5BFA582C1
:104FD000F055A92C9AA836F4ABBBAFEFABFD351258
:104FE0000E9A78D489F2DDD6DD5C23A096A1E00B81
:104FF00003FD99B6F1370B578556B8ADF056DEC5AF
:105000006ADF920C361543B7588312AC13DB7BFF73
:10501000E320C4EA19E24A70A26306B8BDB518B627
:10502000FC90BF6B61B15235523F648676B3ADBF21
:1050300043A035941BA2236B15DA0D4FDC3CEDAD7C
:1050400048892A54D5678AACAFD1475FDDF6192D60
:105050000801CF87AC0D2A2B1CBCA3BBDCB8D8271A
:105060002E83DA8D5FF556BCC047C5286DFBD60E82
:105070002399C2A4C88B84FFE322C4DD1459EE74C3
:10508000004B0698CE818C28A8AC0A42B0D31AC334
:105090000A302B480C1E48184CFC7AC00120D3FB68
:1050A0001B42C5C1D1A252CEA5BB2ED9D7D94270C1
:1050B000A8EB4C80EB03A48697406CA054B2402A26
:1050C000ADBEAC5F6EC83EEDAD31F7CE6D969B6A5E
:1050D000D4142577E6A5F7B3ED671BD309A7F3B082
:1050E000FFE320C4E718C1EA6CC263C698B7394D24
:1050F0000AA5A55762E11B6B0CCFEBD3A9B2D5CAA9
:105100001EA28D411A16BB123C020A50253BB8550F
:10511000506A66155AD42DDDFFD7410467D3C50008
:1051200009A6B2CD40B020684505F20DEFCDAD9F88
:105130006CE2AB99E06AB9F8DD7516684B749ED0E5
:10514000A04D17169AB26F62FFE322C4DF14A8B60F
:10515000798C4AD24C64CF9B197388772623844D6F
:10516000F5BD7349DF52B3CCBB7B6A5C28A41576CE
:1051700086EA7AC8A5CF531E8FD37AD521DB4B831D
:10518000A89E2731132DC09CAC7E0CC00CD14E3A8A
:10519000C458B171BADEF639572C5ABB97A530A660
:1051A0003C5E2EDF4D0DE7C4DADCBBBDA21C14D281
:1051B00090FFE320C4E81779EE68A44B0698B55237
:1051C000323BD5E5A998FB2195EA8EEF99565678A2
:1051D000D452C81D4773983C620F6B3BC8AE4CABB2
:1051E000C4E8D079265AB85247FD3DFEA54327AE04
:1051F0006AF6BA8BAA76EE3C1507C9874277B5786E
:1052000061DBC226A30058CB71A211908E409C8115
:105210001C55A04251DF70D22CFFE322C4E51511CA
:10522000E668CA33C698CC933F8C5CB5E5A766B6F2
:10523000FE53A6AA9BF9A88BF83A2A5766961EF346
:10524000FE307E3029596503AC48348DF6A6CFFF79
:105250005A22A467809010182882AE06704981AB4C
:1052600018E918E2A41EE85D23167E002980DFC03D
:105270000372C0088649EAF032E680CDA20CB20083
:105280002500FFE320C4EC18E1EA54A263CA98CBDE
:105290008C5A95FC05828120226E0C2401C083CBA0
:1052A000FFE4387384060E444E2438577FFF18807D
:1052B000242059286250041A18D857C47A1FB7AF4F
:1052C000FFE1AA832F09E41B542E643F614B084C75
:1052D000645915AA3FFFFFEC39292CBA4C8E693A64
:1052E0004D1F446344A22B52F7FFFFE322C4E31592
:1052F000A9E6500B4C4000FFFFEB621A5A4872853A
:105300009439C898901A89AA4C414D45332E3838A3
:1053100020286265746129AAAAAAAAAAAAAAAAAA86
:10532000AAAAAAAAAAAAAAAAAAAAAAAAAAAAAAAADD
:10533000AAAAAAAAAAAAAAAAAAAAAAAAAAAAAAAACD
:10534000AAAAAAAAAAAAAAAAAAAAAAAAAAAAAAAABD
:10535000AAAAAAFFE320C4E827235DEC0195A000D8
:10536000AAAAAAAAAAAAAAAAAAAAAAAAAAAAAAAA9D
:10537000AAAAAAAAAAAAAAAAAAAAAAAAAAAAAAAA8D
:10538000AAAAAAAAAAAAAAAAAAAAAAAAAAAAAAAA7D
:10539000AAAAAAAAAAAAAAAAAAAAAAAAAAAAAAAA6D
:1053A000AAAAAAAAAAAAAAAAAAAAAAAAAAAAAAAA5D
:1053B000AAAAAAAAAAAAAAAAAAAAAA736F756E6476
:1053C00033612E6D703300FFE320C40000000348FA
:1053D00001800000F3E279E25000F9E755F970C46A
:1053E0009FFF2F97CDC72BFF10942D3C0D0870FE0B
:1053F00009F3FFC4101941C02001001C1FFF95854F
:10540000683B04001F023C109FFFFF1A427413E820
:105410008E81B10063800B8471914FFFFFF2A9135D
:105420001399A17C890B90F06D843464C827FFFF29
:10543000E322C45B0000034801800000FFFFE1EDB0
:105440008633002262DC380674474162800CF062C9
:10545000836381C60CD9142DFFFFFFFFFF96471809
:105460009DC819130C2E3E43D70BAB238880AD0883
:1054700028B8D510060201808743A1D0E872391CF4
:105480008FDE0CF83DE7E5CE0027EBB4F87C158FF6
:10549000DFE7E18C1044C1DFFFE320C4B72453FDF4
:1054A000F0018DA0001F1ED7CBDE6280E1742BFFC0
:1054B0004DCC39561B824159C3A87F5F4F7FBF3FF8
:1054C0004402C5871742F9DF4FD9157156CCE24D1A
:1054D0003E9493933ADAFFFFFE6FEED9472AD874D1
:1054E000BCF35750F991D3BB59DC56C9AF9BEFE9D8
:1054F000FFFBFB670C5876A8CA8385B65E3B9B2CE6
:10550000FFE322C48025EBFEBA5F885800EBAFFBB7
:10551000FFFFFFE9F67D9ECD9FFFF34768B894F348
:10552000879655B0AA9999C80AE8D21D0780681ACB
:105530002D251CD1B1ECF4462AA5545504203E3447
:105540002B14231D04B0FF0CCFEE7420130C1CFB96
:10555000AC6D3BEE36CEC1F8E4379CEA74E4CCCCBB
:10556000F44FC735FFF9BBFE0FFFE320C4441479A5
:1055700056D001CC600089C9911528CDBFFFFFFF2F
:10558000FFFFFFD56883F7FF70065D19E4DE788AB8
:10559000B9269E9EAEBA64A7695C0127E99BAC2937
:1055A000CE222E144FD296471269E515993C26F16A
:1055B000609C3A2C2403E2C30A26303871655C995A
:1055C0009999DD7A7A29883634161E55E1A206416A
:1055D00097FFE322C44D19593AD0CA4B18701C5199
:1055E000A021C021C488C3E5006A7D62EE2F9177B7
:1055F000FEEE8FFFFAFD4A5E07DFE4EE12D50610DD
:105600008C452A8F28A83B83686860F15B3338C4D7
:10561000625195AAE622DD718C125E7048445D00ED
:1056200010289109D997B399DBD516C54DB6D7FF88
:10563000B55591F728E33BB8A185FFE320C4431497
:10564000822EDCCA1A0A9803E2028A420A11C8FFB3
:10565000FFFFFFFFA7EAFE017FCA268235B419E6E5
:10566000A79040A15E68C1CE95461F60443C22CD04
:10567000EA5B97858CA767286C8A835269D4542C7F
:10568000E6D4353878C8289557CEEFB71FD775FCC4
:10569000DF13A2713FFFF1FFFFFF6EACD0778AD41A
:1056A0003167FFE322C44C15A236D4CA1A1098FF02
:1056B000CC0A255FFE8ECDF5BE8AB6DB6C22306546
:1056C00092DBA50090230B0A3432DA43C8BE66B5DC
:1056D000153F3FA730F443BF4B985E8D56A98F56B8
:1056E000B7DECCA22430141876341242974A85CC07
:1056F0001688826B7A5FF53DD950D155DCE1BFFF4A
:105700006FFF5646D600DD187CB3B2FFE320C451CC
:10571000145932EE5E118A70953DEB0A45EBFB2081
:105720000EF1984DD81B1321CD086A55237FB7FA87
:10573000E3C70768ED0DD7D94FAE2B7FEDABA3BC08
:10574000FB5935FDF3CB913E6C9AC7D91478A2363C
:1057500037F128A83810FA7FCB285CD9177FF5FFDE
:10576000FF7234D65C1311951561B57F9BECEC3C50
:10577000976088FFE322C45A14614AD9942996702D
:10578000BA95DCA0A3146E555EA5F32D349989F566
:105790000500F18561EAFD699F563D7DBEFE5474AA
:1057A000880E01E3C1600D07E5F5AFE9D53FFFB213
:1057B0008D020AD14FFD6F58A31FFFFFFF465C8C7F
:1057C000AA916B644AAA9969465502F1B37DFE42DB
:1057D00034D1A1C20063EC58C1ED10E5FFE320C451
:1057E000641349DECCC22A4E94179E8BFF38E11415
:1057F000058DFA7CE7CEB9A79ECF5B7F76DE70126F
:10580000CCFFAF5FFFFB44844EB4FD7FFFF5FE6726
:1058100063F7BF7FEAFFFFFAB3EEDFB506DFF115EE
:10582000841244C51248C9090E4927EF526B8820DB
:105830004529A18D54B2A5523D594D967EAAABADD6
:1058400023A3B428FFE322C471142B66F2FE2A8A34
:10585000BC4FD1FAB5236EAF4D3FD75DAA515FFF64
:10586000EFF6FFE767130A73A871BFFF0D9C0FC522
:10587000D01D391984ABECA5C34F90B1BFD1429074
:105880002EA5FC4F6C5A8D08EE08B66ADDD8935EE3
:105890001ACF52BEBD71FDF7662FDB2AD814E35A2A
:1058A00066FDD3313FB7F4DE2D1159E9DEFFE32069
:1058B000C47C1421EEDE36434A98FD7BB0E8C31A5F
:1058C00024101902A2F7FFF39B4FF6A7E3523FFF04
:1058D000F42DC227330D7C8FE9ACCFCAA3F6AE55A9
:1058E000FD07FCB1CF64BB10A8CBD6EAFC3FDC1CA3
:1058F000FCA573897FB6E97D7BDEC9313846CF9A36
:10590000E75AF9BFC63C90D8C5ECCA63796D7E3EB4
:105910001C2C805CD6FFE322C4861431F6C0004301
:10592000CE98FFFFFFFEAAA443392FFFE97310A60C
:105930002E9B52FDDA4DB9EFFFEEDE51D6D55E0358
:1059400008D0EB72A018CA2D3902230A198A17173A
:105950006ACBCD38FBEDA1440C337DBEAD7A8DEF23
:10596000AF6FFD5AF499662DFFE5B7FFF67D2A1C4F
:1059700094F989FFFFFFFD9E6464A18EF26AFFE344
:1059800020C49113B1F6C8AA33D4987B6FAEE8D780
:10599000EF4E8D2766FF6F6E9DD04AAEB89E0150C8
:1059A00006CB3C80AD6114B06562E9E0FEC4DFACBB
:1059B000C596A7CC2A7F580B22293FFDB5A9F75AD7
:1059C0006B977BFD3D9763D59EFFFFFFFFFA9DFF21
:1059D000FFEE954BFEFF32C30224BBB57FFFFADF1B
:1059E000754CB95F5466FFE322C49D146BCAE63E52
:1059F0003B44DCDBD29F4B55C2E5EF1FF507FE476A
:105A0000B521E07C13C6FA656A952832AF4928B102
:105A1000A936AED6FFFEEB1A5E6EFC37162078D2A2
:105A200027BEFE5827233BE377CF9EEFE410237574
:105A300032B821621FEEFE5C68E130D21E7BF4D3E7
:105A4000EA875D1695FF472BFDDDBF5ACF01F7FFB3
:105A5000E320C4A7147BC2E23E4344DDA4C34D103F
:105A6000B0B942E0C8326BAB0B77D33666ABCC5ED5
:105A70001577FEE8F159A586B53156B90A90D18B54
:105A80004DFDF9957BB31B6EEE81C08143A1E2878A
:105A90009DDD99DD7AB23AF6B7D5F456BF120ABB4E
:105AA000842DE5C55B167FF9DFE9FFFEBAFFEC2226
:105AB000FFE4CC23070AC6FFE322C4B0146966CC16
:105AC000C25E04944D34F362DEDF8ACE5089887A58
:105AD00073AB6C564CB928FB578F5BA6C31132359C
