:100000000C9443020C9490020C9490020C94900275
:100010000C9490020C9490020C9490020C94900218
:100020000C9490020C9490020C9490020C94900208
:100030000C9490020C9490020C9490020C94D315A2
:100040000C9490020C9490020C9441160C9414178A
:100050000C94AE160C9490020C9490020C949002A6
:10006000C20DEB0D060E0D0E120EC40E190EBB0EB8
:10007000F00E2C0E660E710E780E830E930E8A0E05
:10008000930EF00EBF0DBF0DBF0DBF0DC90EEA0ED2
:10009000BF0DBF0DBF0DBF0DBF0DBF0DBF0DBF0D00
:1000A000BF0DBF0DBF0DBF0DBF0DBF0DBF0DBF0DF0
:1000B000BF0DA00EB30EB811DD11F811FF1104121F
:1000C000B3120A12A612B5111D125B126212691246
:1000D0007012801277128012B3128C129E120A0ACA
:1000E00050505020436C69656E742053616D706C84
:1000F00065202D204E75742F4F53202573202D2001
:100100004156524743430A003230302057656C63F2
:100110006F6D6520746F20746370732E2054797036
:10012000652068656C7020746F2067657420686551
:100130006C702E0D0A00343030204C697374206FBF
:100140006620636F6D6D616E647320666F6C6C6F9B
:1001500077730D0A6D5B656D6F72795D0951756519
:1001600072696573206E756D626572206F662052CC
:10017000414D20627974657320667265652E0D0AA3
:10018000745B6872656164735D094C697374732094
:10019000616C6C206372656174656420746872655B
:1001A0006164732E0D0A74695B6D6572735D094C31
:1001B0006973747320616C6C2072756E6E696E6702
:1001C0002074696D6572732E0D0A715B7569745DBB
:1001D00009095465726D696E6174657320636F6E91
:1001E0006E656374696F6E2E0D0A2E0D0A00323231
:1001F00030204C697374206F662074687265616486
:10020000732077697468206E616D652C73746174F6
:10021000652C7072696F2C737461636B2C6D656DE6
:100220002C74696D656F757420666F6C6C6F777375
:100230000D0A00323231204C697374206F662074CD
:10024000696D6572732077697468207469636B7374
:10025000206C65667420616E6420696E74657276C8
:10026000616C20666F6C6C6F77730D0A00323130F1
:100270002025752062797465732052414D20667285
:1002800065650D0A00000011892312329B46245730
:10029000AD653674BF8C489DC1AF5ABED3CA6CDB06
:1002A000E5E97EF8F7108101083393221A56A54735
:1002B0002C75B7643E9CC98D40BFDBAE52DAEDCBE6
:1002C00064F9FFE8762102308B02101399672676D5
:1002D000AF443455BDAD4ABCC38E589FD1EB6EFAC6
:1002E000E7C87CD9F53183200A1291031877A766F5
:1002F0002E54B5453CBDCBAC429ED98F50FBEFEAA6
:1003000066D8FDC9744204538D6116709F04201590
:10031000A9273236BBCE4CDFC5ED5EFCD788689985
:10032000E1AB7ABAF35285430C7197601E14A105B4
:100330002837B3263ADECDCF44FDDFEC5698E98965
:1003400060BBFBAA726306728F4014519D25223454
:10035000AB063017B9EF4EFEC7CC5CDDD5A96AB845
:10036000E38A789BF17387620E5095411C35A32474
:100370002A16B10738FFCFEE46DCDDCD54B9EBA825
:10038000629AF98B7084089581A71AB693C22CD310
:10039000A5E13EF0B7084019C92B523ADB4E645F25
:1003A000ED6D767CFF94898500B79BA612D2ADC314
:1003B00024F1BFE03618C109483BD32A5A5EE54F05
:1003C0006C7DF76C7EA50AB48386189791E32EF2B4
:1003D000A7C03CD1B5294238CB0A501BD96F667EE5
:1003E000EF4C745DFDB58BA40296998710F3AFE2D4
:1003F00026D0BDC13439C3284A1AD10B587FE76EC5
:100400006E5CF54D7CC60CD785E51EF4978028916F
:10041000A1A33AB2B34A445BCD695678DF0C601DA4
:10042000E92F723EFBD68DC704F59FE41690A98193
:1004300020B3BBA2325AC54B4C79D7685E1CE10D84
:10044000683FF32E7AE70EF687C41CD595A12AB033
:10045000A3823893B16B467ACF485459DD2D623C64
:10046000EB0E701FF9F78FE606D49DC514B1ABA053
:100470002292B983307BC76A4E58D5495C3DE32C44
:100480006A1EF10F780080EC85BF87E089B91124DE
:100490001FBECFEFDFE0DEBFCDBF13E0A0E6B0E0D0
:1004A000ECECF2EC0FEF03950BBF04C0D8950D9266
:1004B0003196C8F3A038B107C9F716E0A0E8B3E059
:1004C00001C01D92AF3CB107E1F78FEF9FE79EBFE0
:1004D0008DBF8FEF9FE78F5C96408158914040F031
:1004E0006FEF7EE76F5C76408FEC96E00E9448509D
:1004F0000E94B056892B41F061E272E08DEB96E0EC
:100500000E94B1600E94975620E831E040E050E040
:1005100067E875E08AE292E00E944B0A0C940000C2
:100520000C940000EF92FF920F931F93CF93DF93F1
:10053000082F192F80E091E00E949D5AE82EF92E95
:10054000712F602F88E091E00E94175A912F802F21
:100550000E942C58512F402F60E071E09F2D8E2D6E
:100560000E944959892B09F445C16DE070E09F2D27
:100570008E2D0E949760F92FE82F892B09F01082A9
:100580006AE070E09F2D8E2D0E949760F92FE82F72
:10059000892B09F01082DF2DCE2D09900020E9F77C
:1005A0002197CE19DF0991F24C2F5D2F60E670E0A4
:1005B0009F2D8E2D0E94BA60892BB1F40E9451505C
:1005C0009F938F938DE692E09F938F931F930F934A
:1005D0000E94F8592DB73EB72A5F3F4F0FB6F894E7
:1005E0003EBF0FBE2DBFB2CF4C2F5D2F67E670E030
:1005F0009F2D8E2D0E94BA60892B09F08DC0712F1E
:10060000602F8EEE91E00E94175AC091AC06D091F7
:10061000AD067EC0712F602F8C2F9D2F06960E94F5
:1006200099598F85813061F0813028F0823069F0EE
:100630008330B1F40FC0712F602F8FE690E00EC0B1
:10064000712F602F86E790E009C0712F602F8CE733
:1006500090E004C0712F602F84E890E00E949959C7
:10066000888999892B893C89821B930B9F938F934F
:100670008A8999279F938F938CE890E09F938F931B
:100680001F930F930E947A59EB89FC898DB79EB70F
:1006900008960FB6F8949EBF0FBE8DBF80819181E2
:1006A000A281B3818F5E9E4BAD4ABE4D29F0712F62
:1006B000602F82E990E004C0712F602F8EE990E0F6
:1006C0000E949959ED89FE893097C9F080859185FE
:1006D000A285B385BF93AF939F938F9383EA90E0F6
:1006E0009F938F931F930F930E947A598DB79EB754
:1006F00008960FB6F8949EBF0FBE8DBF06C0712F2F
:10070000602F89EA90E00E9499590990D881C02D04
:10071000209709F07FCF58C04C2F5D2F7F2D6E2D75
:1007200084EB90E00E94BA60892B09F054C0712FCD
:10073000602F83E392E00E94175AC091B406D091D3
:10074000B5063FC088859985AA85BB85BF93AF93C1
:100750009F938F938BEB90E09F938F931F930F93B7
:100760000E947A598C819D81AE81BF812DB73EB7A1
:10077000285F3F4F0FB6F8943EBF0FBE2DBF0097C6
:10078000A105B105A9F0BF93AF939F938F9383EA1F
:1007900090E09F938F931F930F930E947A598DB788
:1007A0009EB708960FB6F8949EBF0FBE8DBF06C0C9
:1007B000712F602F80EC90E00E9499590990D881A8
:1007C000C02D209709F0BECF712F602F80EB90E0F5
:1007D0000E949959BBCE4C2F5D2F7F2D6E2D8AEC38
:1007E00090E00E94BA60892B29F0712F602F86E378
:1007F00091E0AACEDF91CF911F910F91FF90EF90E2
:100800000895AF92BF92CF92DF92EF92FF920F9333
:100810001F93CF93DF93CDB7DEB724970FB6F8942D
:10082000DEBF0FBECDBF40E060E070E084E392E049
:100830000E94685640E060E070E08CEE92E00E941A
:1008400068564091290350912A036FEC70E081EDC6
:1008500090E00E94D358892B09F4FFCF0E94D15613
:100860009F938F938EED90E09F938F930E94305AC9
:1008700087ED90E09F938F930E94B05962E070E8FB
:1008800084EE90E00E94E956C82ED92E8DB79EB70F
:1008900006960FB6F8949EBF0FBE8DBF9FEFC91688
:1008A0009FEFD90629F488EF90E00E94D259FFCF3C
:1008B0008DE091E00E94D25980E092ECA1E0B0E09E
:1008C00089839A83AB83BC830C2F1D2F0F5F1F4F2F
:1008D000512F402F61E071E09D2D8C2D0E94D45648
:1008E00088EE93E0A0E0B0E089839A83AB83BC8379
:1008F000512F402F6BE071E09D2D8C2D0E94D4561E
:1009000068E873E180E090E00E94225382E191E088
:100910009F938F930E94B05960E271E09D2D8C2DC2
:100920000E94A73A0F900F90009769F09F938F93C2
:1009300083E491E09F938F930E94B0590F900F90A2
:100940000F900F90E3CF8DE091E00E94D2598CE59B
:1009500091E09F938F930E94B059EE24FF240027CB
:10096000112720E030E040E050E060E070E08DE6EC
:1009700091E00E94DD220F900F90892B29F081E7F2
:1009800091E00E94D259C2CF8DE091E00E94D259ED
:10099000A090FD02B090FE02FB2DEA2DE1A8F2A886
:1009A00003A914A925A536A547A550A960E070E0C4
:1009B00080E090E00E941306FB2DEA2DE5A0F6A052
:1009C00007A110A58CEEC82E82E0D82E20E030E0E2
:1009D00040E050E060E070E080E090E00E940D1F99
:1009E000FB2DEA2D61A172A183A194A10E94A820F0
:1009F0009F938F9388E791E09F938F930E94B059C4
:100A0000FB2DEA2D65A176A187A190A50E94A820C3
:100A10009F938F938BE891E09F938F930E94B0599F
:100A2000FB2DEA2D65A576A587A590A90E94A82093
:100A30009F938F938EE991E09F938F930E94B0597B
:100A4000FB2DEA2D61A972A983A994A90E94A8206F
:100A50009F938F9381EB91E09F938F930E94B05966
:100A60008DB79EB740960FB6F8949EBF0FBE8DBF50
:100A70000E94DC1BE82EF92E892BA1F184EC91E079
:100A80009F938F930E94B05967E170E09F2D8E2D48
:100A90000E94741C0F900F90892BE1F48CED91E073
:100AA0000E94D25966EE71E09F2D8E2D0E94D5577F
:100AB000082F192F009759F00E9492028AEE91E0B8
:100AC0000E94D259912F802F0E94915707C088EF22
:100AD00091E002C081E791E00E94D2599F2D8E2DB6
:100AE0000E943C1B68EE73E080E090E00E9422537D
:100AF0000E9451509F938F9382E192E09F938F9336
:100B00000E94B0590F900F900F900F90B1CF0E949C
:100B1000805320E033E040E050E061E074E08FE299
:100B200092E00E944B0A8EEF0E946E510E94F45197
:100B30000E943751FBCFF92FE82F872F9927808309
:100B4000618382E090E00895F92FE82FB72FA62F58
:100B500020813327322F222711963C932E938181B7
:100B60009927282B392B2D933C9382E090E0089510
:100B7000EF92FF920F931F93CF93DF93D92FC82F3C
:100B8000062F172FB72FA62F8D919C91009731F02C
:100B90000E94D04FF12FE02F118210828881807C3B
:100BA000803C19F482E090E037C0AC2FBD2F0D904F
:100BB0000020E9F7EA2EFB2EEC1AFD0A9F2D8E2D60
:100BC0000E94534FF92FE82FB12FA02F8D939C93A4
:100BD00099912C2F3D2F15C08D9189934150E0F7AD
:100BE000892F9927B32FA22FA80FB91FE80FF91F3C
:100BF0009C91992311F08EE281932A2F3B2F2F5F36
:100C00003F4F992331F0492FCE2FDF2FB32FA22F43
:100C1000E5CF10829F2D8E2DDF91CF911F910F91E7
:100C2000FF90EF9008958F929F92AF92BF92CF92D4
:100C3000DF92EF92FF920F931F93CF93DF93D92F01
:100C4000C82FC62ED72E822E932EA42EB52E80917D
:100C5000810390918203009731F00E94D04F10924F
:100C60008203109281038091830390918403009703
:100C700031F00E94D04F109284031092830320978A
:100C800099F0FD2FEC2F01900020E9F78E2F9F2F78
:100C90008C1B9D0B0E94534F909382038093810382
:100CA0006C2F7D2F0E94B160C114D10499F0FD2DED
:100CB000EC2D01900020E9F78E2F9F2F8C199D09B4
:100CC0000E94534F90938403809383037D2D6C2D5A
:100CD0000E94B1608092850390928603A092870360
:100CE000B0928803E0928903F0928A0300938B0309
:100CF00010938C03DF91CF911F910F91FF90EF9094
:100D0000DF90CF90BF90AF909F908F900895EF921B
:100D1000FF920F931F93EE24FF24002711270E94B8
:100D200013061F910F91FF90EF9008952F923F921D
:100D30004F925F926F927F928F929F92AF92BF92EB
:100D4000CF92DF92EF92FF920F931F93CF93DF9397
:100D5000CDB7DEB760970FB6F894DEBF0FBECDBF3C
:100D60009E878D87788B6F8780918503909186030E
:100D7000A0918703B09188030097A105B10569F49C
:100D80008091890390918A03A0918B03B0918C0389
:100D90000097A105B10509F40CC380E090E00E9422
:100DA000DA1D9A878987892B09F403C380E092E0D2
:100DB0000E94534F882E992E1C861B86662477240A
:100DC00018861F8222243324AB84BC843B2D2A2D19
:100DD0002F5F3F4F3C872B876114710441F48CE0F7
:100DE00090E00E945650682E792E892B71F02B8549
:100DF0003C85F72DE62D3183208380E091E09383BD
:100E0000828381E090E0958384838F819885892B0C
:100E100041F486E090E00E94565098878F83892B9A
:100E200039F1EF81F88580819181009711F00E945E
:100E3000D04FED85FE8501900020E9F78E2F9F2F82
:100E40002D853E85821B930B0E94534FEF81F885C1
:100E5000918380836D857E850E94B1602F8538895E
:100E6000EF81F8853383228381E090E0958384834A
:100E7000F72DE62D60817181992D882D0E949B05AB
:100E8000082F192FF72DE62D62817381992D882D5A
:100E9000800F911F0E949B05080F191FF72DE62D4B
:100EA00064817581992D882D800F911F0E949B056B
:100EB000080F191FF72DE62D66817781992D882D52
:100EC000800F911F0E949B05080F191FF72DE62D1B
:100ED00060857185992D882D800F911F0E949B053B
:100EE000080F191FF72DE62D62857385992D882D22
:100EF000800F911F0E949B05C02ED12EC80ED91EB7
:100F0000F92CE82CEC0CFD1CEF81F885A081B18157
:100F1000FB2FEA2F01900020E9F70E2F1F2F015021
:100F200010400A1B1B0B0E5F1F4F4E2C5F2C0894AA
:100F3000411C511CFF2DEE2D10823F2D2E2D1EC069
:100F4000752D642D6F5F7F4F4A2F5B2F4F5F5F4F73
:100F50008E3241F4F52DE42D1082B52FA42F352DBE
:100F6000242D0AC0F52DE42D8083B52FA42FF32F57
:100F7000E22F80818F5F8083462E572E8C918823AD
:100F8000F9F6F52DE42D1082EF81F88562817381E9
:100F90009F2D8E2D800F911F0E949B05080F191FFA
:100FA000EF81F885648175819F2D8E2D800F911FB3
:100FB0000E949B05E02EF12EE80EF91EEC0CFD1CA4
:100FC000A0FE0DC04091890350918A0360918B036C
:100FD00070918C03411551056105710541F44091F3
:100FE0008503509186036091870370918803192DC2
:100FF000082D25E330E089859A850E94891D97FD9B
:1010000071C168EEC62E63E0D62EE12CF12C00E013
:1010100012E0392D282D4C2F5D2F4F5F5F4F6C2F25
:101020007D2F6D5F7F4F89859A850E941E1E181641
:1010300019060CF051C10D9724F3772D662D992DCB
:10104000882D0E94A405082F192F772D662D6E5F1D
:101050007F4F992D882D800F911F0E94A405080FA6
:10106000191F772D662D6C5F7F4F992D882D800F6E
:10107000911F0E94A405080F191F772D662D6A5F26
:101080007F4F992D882D800F911F0E94A405080F76
:10109000191F772D662D685F7F4F992D882D800F42
:1010A000911F0E94A405080F191F772D662D665FFA
:1010B0007F4F992D882D800F911F0E94A405A02E8F
:1010C000B12EA80EB91EF72DE62D808191812B85BA
:1010D0003C858217930709F094CFA114B10409F459
:1010E000FBC084819581019709F0F6C0192D082D68
:1010F0000A0D1B1D6F817885912F802F0E94B805E6
:10110000E82EF92E6F8178856E5F7F4F912F802FAB
:101110008E0D9F1D0E94A405CE2CDF2CC80ED91E5B
:101120006F8178856C5F7F4F912F802F8C0D9D1D77
:101130000E94A405E82EF92EF72DE62D86819781D1
:10114000892B09F4CFC04C2C5D2C4E0C5F1C4A0C33
:101150005B1C51E0A52EB12CB0C02114310431F438
:101160008EE090E00E945650282E392EF92CE82C63
:10117000E40CF51C732D622D9F2D8E2D0E94B80559
:10118000082F192F732D622D6E5F7F4F9F2D8E2D8F
:10119000800F911F0E94A405080F191F732D622D47
:1011A0006C5F7F4F9F2D8E2D800F911F0E94A40595
:1011B000080F191F3F2D2E2D200F311FF32FE22F67
:1011C00081916E2F7F2F9927AA27BB27BA2FA92F8E
:1011D000982F8827F32DE22D86839783A087B187E8
:1011E000F32FE22F2181332744275527822B932B7E
:1011F000A42BB52BBA2FA92F982F8827F32DE22DDA
:1012000086839783A087B187F72FE62F2181332725
:1012100044275527822B932BA42BB52BBA2FA92F0C
:10122000982F8827F32DE22D86839783A087B18797
:10123000F72FE62F2281332744275527822B932B24
:10124000A42BB52BF32DE22D86839783A087B1873E
:101250000C5F1F4F732D622D665F7F4F9F2D8E2D6C
:10126000800F911F0E94A405080F191FF32DE22D76
:10127000C284D38484859585009711F00E94D04F55
:101280009D2D8C2D0E94534FF32DE22D9587848741
:10129000E00EF11E5D2D4C2D7F2D6E2D0E947D6088
:1012A000F32DE22D82819381019779F0C00ED11E3A
:1012B0004C0C5D1C0894A11CB11CF72DE62D8681F9
:1012C00097818A159B050CF048CFF32DE22D82857E
:1012D0009385049709F441C02B853C852630310560
:1012E00009F072CDEE24FF24002711276114710448
:1012F00021F0972D862D0E94D04F8F8198850097E1
:1013000061F0F92FE82F80819181009711F00E9400
:10131000D04F8F8198850E94D04F21143104A1F0C5
:10132000F32DE22D80819181009711F00E94D04F22
:10133000F32DE22D84859585009711F00E94D04F02
:10134000932D822D0E94D04F992D882D0E94D04F31
:1013500089859A850E94581D30C0F32DE22D648541
:101360007585F72FE62F208181819927AA27BB2732
:10137000EE24F82E092F1A2FE20EF11C011D111D6B
:101380002381332744275527522F442733272227E9
:1013900082819927AA27BB27B92FA82F99278827A9
:1013A000280F391F4A1F5B1FE20EF31E041F151F73
:1013B0009DCFEE24FF2400271127912F802F7F2D12
:1013C0006E2D60960FB6F894DEBF0FBECDBFDF91D5
:1013D000CF911F910F91FF90EF90DF90CF90BF9032
:1013E000AF909F908F907F906F905F904F903F90C5
:1013F0002F9008956FE070E00E949606089561E0D6
:1014000070E00E94960608959F918F910F900BBEF9
:101410000F900FBE1F9018952F923F924F925F92A0
:101420006F927F928F929F92AF92BF92CF92DF92F4
:10143000EF92FF920F931F93CF93DF938DB79EB7D9
:10144000E091B006F091B106918B808BE091AE06F1
:10145000F091AF06F093B106E093B00681E0878784
:10146000E091B006F091B106808991898DBF9EBF51
:10147000DF91CF911F910F91FF90EF90DF90CF9070
:10148000BF90AF909F908F907F906F905F904F90A4
:101490003F902F900895CF92DF92EF92FF920F939B
:1014A0001F93CF93DF93082F192FE62EF72EC42E0C
:1014B000D52ED32FC22F932F822F49960E94534FA0
:1014C000F92FE82F009719F480E090E080C0C80F52
:1014D000D91F2C2F3D2F275030404C2F5D2F4B51C3
:1014E00050408C2F9D2F069668E0B12FA02F0D90B5
:1014F0000A2F1B2FB92FA82F0D928A2F9B2F6150D7
:10150000A1F71E8641505040598B488B4F5F5F4F6B
:10151000FC8BEB8B8FEE9EEBADEABEED808391836F
:10152000A283B38384839583A683B78380879187BF
:10153000A287B38784879587A687B78780E48A8B3D
:101540008F2D9927F32FE22F8583E68280E883830E
:1015500012821482C1828D2D9927808324E03AE083
:10156000832F9927F52FE42F828B238B8091AC0654
:101570009091AD0699838883D093AD06C093AC0655
:1015800012E01F871E8A1D8A188E1F8A6EEA76E077
:101590008C2F9D2F0E946F50E091B006F091B10604
:1015A000309721F40FB6F8940F9250CF8091AE0689
:1015B0009091AF06E817F90741F017870FB6F89436
:1015C0000F920E940C0A0F900FBE8C2F9D2FDF915F
:1015D000CF911F910F91FF90EF90DF90CF900895E2
:1015E000CF93DF93B92FA82FD92FC82F9B8D8C8D28
:1015F000981759F08B8DE98DFA8DE80FF11D8081D8
:101600008CB98B8D8F5F8B8F15C05598DB2FCA2FB0
:10161000E889F989309729F48FEF9FEF998B888BB0
:1016200009C08FEFEF3FF80729F08481958101967B
:1016300095838483DF91CF910895CF93DF93B92F62
:10164000A82FD92FC82F8F89ED89FE89E80FF11DAA
:101650008CB180839F89888D891791F4EA89FB89F1
:10166000309729F48FEF9FEF9B8B8A8B09C08FEF08
:10167000EF3FF80729F08481958101969583848353
:10168000DB2FCA2F8F898F5F8F8BDF91CF910895CA
:10169000282F392F01978E5F9F4F18F08FEF9FEF04
:1016A0000895932F822F0E94D04F80E090E00895FC
:1016B000CF93DF93D92FC82F86E090E00E94534F3D
:1016C000009719F4EFEFFFEF08C0F92FE82F118210
:1016D0001082D383C283158214828E2F9F2FDF91B5
:1016E000CF910895CF92DF92EF92FF920F931F93C5
:1016F000CF93DF93C42ED52ED92FC82FEA81FB813B
:10170000C189D2896115710551F1E62EF72E00E0ED
:1017100010E021C0988D8F89981779F0ED89FE89A6
:10172000E90FF11D8081FF2DEE2D8193EE2EFF2E0E
:101730009F5F988F0F5F1F4F0EC00115110599F421
:10174000488559856A857B858C2F9D2F42960E94FE
:10175000C355892B41F40C151D05E4F204C08F8993
:10176000888F00E010E0912F802FDF91CF911F91A3
:101770000F91FF90EF90DF90CF9008950F931F93FC
:10178000CF93DF93D92FC82F162F042F0BC04C8572
:101790005D856E857F858C2F9D2F40960E94C35559
:1017A000892B29F49B8D8C8D8F5F891781F32C8D6C
:1017B0009B8D822F8F5F891719F48FEF9FEF16C0D3
:1017C000E98DFA8DE20FF11D10832C8D2F5F2C8F88
:1017D000002321F48B8D2F5F281731F40FB6F89476
:1017E0000F92559A0F900FBE80E090E0DF91CF915D
:1017F0001F910F910895AF92BF92CF92DF92EF9217
:10180000FF920F931F93CF93DF93A42EB52EC22E7A
:10181000D32ED92FC82FE988FA8861157105E1F018
:10182000D72FC62F00E010E013C0C114D10429F057
:10183000FD2FEC2FC895602D01C0688140E09F2DE1
:101840008E2D0E94BE0B892B51F421960F5F1F4FE6
:101850000A151B0554F303C0559A00E010E0912FC0
:10186000802FDF91CF911F910F91FF90EF90DF902C
:10187000CF90BF90AF90089521E030E0F92FE82F8E
:10188000828193810E94FB0B089520E030E0F92FC4
:10189000E82F828193810E94FB0B08958F929F9283
:1018A000AF92BF92CF92DF92EF92FF920F931F936E
:1018B000CF93DF93082F192FE62EF72EA42EB52EE7
:1018C000C22ED32E2115310519F4C0E0D0E05BC043
:1018D000F32FE22FC081D18156C0FF2DEE2D608104
:1018E000E62FEC272E2F3327220F331F932F822F23
:1018F0008B579D4FF92FE82FC895802C2A573D4FC5
:10190000F32FE22FC895902C603298F4F12FE02F3E
:1019100083A194A1A5A1B6A1062E04C0B695A79552
:10192000979587950A94D2F781709070892B29F446
:1019300011C06E3711F06D3769F440E06DE7912FFB
:10194000802F0E94BE0B892B61F5FF2DEE2D60814B
:1019500080E2682740E0912F802F0E94BE0B892BE8
:1019600001F5CD2FDD27882D9927982F8827292D40
:101970003327822B932BC827D9270894E11CF11C0D
:101980000894A108B108A114B10409F0A6CFC114AC
:10199000D10421F0FD2DEC2DD183C08380E090E0B7
:1019A00002C08FEF9FEFDF91CF911F910F91FF90BA
:1019B000EF90DF90CF90BF90AF909F908F90089561
:1019C000CF92DF92EF92FF920F931F93CF93DF930B
:1019D000CDB7DEB722970FB6F894DEBF0FBECDBFEE
:1019E000062F172FF92FE82FE188F288FF2DEE2D13
:1019F00080819181A281B381A6FD78C0F72FE62F67
:101A00004581568181859285480F591F8189928928
:101A100025853685820F931F480F591FFF2DEE2D08
:101A200081A592A58417950708F463C040E06EE78E
:101A30009F2D8E2D0E94BE0B8FEF9FEF9A8389837F
:101A4000F12FE02F4581568163817481CC2EDD2EEC
:101A50000894C11CD11C3D2D2C2D9F2D8E2D0E9434
:101A60004E0C892B09F045C0F12FE02F418552859E
:101A7000678170853D2D2C2D9F2D8E2D0E944E0C43
:101A8000892BB9F5F12FE02F45855685638574853F
:101A90003D2D2C2D9F2D8E2D0E944E0C892B49F50E
:101AA000F12FE02F41895289678570893D2D2C2DBA
:101AB0009F2D8E2D0E944E0C892BD9F489819A81FD
:101AC000809590959A83898320E030E042E050E051
:101AD0007D2D6C2D9F2D8E2D0E944E0C892B49F44F
:101AE00041E06EE79F2D8E2D0E94BE0B80E090E0BE
:101AF00002C08FEF9FEF22960FB6F894DEBF0FBEA5
:101B0000CDBFDF91CF911F910F91FF90EF90DF90AC
:101B1000CF9008950FB6F8940F928AB18F758AB955
:101B20000F900FBE8AE00E94F2148AB1877E8AB9B4
:101B30000895EF92FF920F931F93CF93DF93B92FE6
:101B4000A82F262F372FD52FC42F892B11F4AFE5BF
:101B5000B2E0FB2FEA2F848561897289F32FE22F8F
:101B6000E150F140EB32F10550F4E05DFF4FEE0F34
:101B7000FF1FC895E3950F92C8950F9208952FEF18
:101B80003FEF30C199270E948A0D0E940A15660F07
:101B9000771F881F991F288139814A815B81E4E082
:101BA000220F331F441F551FEA95D1F70E94196178
:101BB0002F5F3F4F4F4F5F4F56954795379527956E
:101BC0002150304029B90FB6F8940F9288E98AB9AC
:101BD0000F900FBE05C1E9B00E940A15FF240894BA
:101BE000E11CF11C0027112754E0EE0CFF1C001F24
:101BF000111F5A95D1F7512F402F3F2D2E2D0E94A6
:101C00001961288339834A835B83EAC099270E943C
:101C10008A0D8881883099F415C088E090E0A0E0B2
:101C2000B0E0ADC099270E948A0D8881882339F4DD
:101C300009C099270E948A0D8881813019F02FEF01
:101C40003FEF02C020E030E00FB6F8940F9288E931
:101C50008AB90F900FBEC6C0188219821A821B82E1
:101C60008BB1282F332722FF08C081E090E0A0E04D
:101C7000B0E088839983AA83BB8323703070232BC1
:101C800049F088819981AA81BB8182608883998388
:101C9000AA83BB83F72FE62F938D848D981749F481
:101CA00088819981AA81BB81806888839983AA836E
:101CB000BB83F72FE62F9789808D891709F090C095
:101CC00088819981AA81BB81806459C0888199816A
:101CD000AA81BB81F72FE62F80879187A287B387E0
:101CE0007FC0F72FE62F80859185A285B38547C0F9
:101CF00088819981AA81BB81F72FE62F84879587F8
:101D0000A687B7876DC0F72FE62F84859585A685B2
:101D1000B78535C0F72FE62F80819181A281B381ED
:101D2000A0FF32C028C08881F72FE62F20813181A3
:101D300042815381882311F0416010C04E7F0CC056
:101D40008881F72FE62F20813181428153818823BA
:101D500011F0406403C04F7BF72FE62F20833183BF
:101D6000428353833DC0F72FE62F80819181A2816A
:101D7000B381A6FF09C081E090E0A0E0B0E08883D5
:101D80009983AA83BB832CC0188219821A821B8272
:101D900027C0209779F0288139812115310551F02C
:101DA000FB2FEA2F308B278783E08387972F862F9F
:101DB0004D960DC085E0FB2FEA2F8387878590899C
:101DC000892B71F0108A1786972F862F42960E94D2
:101DD000675506C0FB2FEA2F8785908999838883F2
:101DE00020E030E0932F822FDF91CF911F910F9150
:101DF000FF90EF900895EF92FF920F931F93CF9370
:101E0000DF93CDB7DEB724970FB6F894DEBF0FBED1
:101E1000CDBFE82EF92E80E895E2A0E0B0E08983FE
:101E20009A83AB83BC83FF2DEE2D848595850E941C
:101E30008A0DFF2DEE2D018912898BE2F12FE02F03
:101E400011928A95E9F7FF2DEE2D8485F12FE02F71
:101E5000848B80E091E00E94534FF12FE02F968B0E
:101E6000858B80E091E00E94534FF12FE02F928FFD
:101E7000818F8CED95E090A787A392A781A78FEF24
:101E80009FEFAFEFBFEF83A394A3A5A3B6A3FF2D4E
:101E9000EE2D84859585892B11F5512F402F6DE10D
:101EA0007BE088E892E00E940535892BC1F4512F30
:101EB000402F60EF7AE084E992E00E940535892B9B
:101EC00071F420C04C2F5D2F4F5F5F4F61E071E0D8
:101ED0009F2D8E2D0E94990D80E090E020C0F12F63
:101EE000E02F85899689009711F00E94D04FF12F3D
:101EF000E02F818D928D009711F00E94D04F8FEFCF
:101F00009FEF0DC020E032E05F2D4E2D6CE97FE0A9
:101F100087E592E00E944B0A892BA1F6E0CF249638
:101F20000FB6F894DEBF0FBECDBFDF91CF911F91EA
:101F30000F91FF90EF900895682E792ED92FC82F1A
:101F4000E988FA8889E00E946E5109C048EE53E0A2
:101F500060E070E09F2D8E2D4D960E94C355F72DA9
:101F6000E62DC784D088C114D10481F3DD2DCC2D9A
:101F70002F84388888EE93E0A0E0B0E0FF2DEE2DAE
:101F800080879187A287B38787A190A50E94534F2E
:101F9000A82EB92E892B39F468EE73E080E090E02A
:101FA0000E942253DCCF80EE9CE0D32DC22D9E8F69
:101FB0008D8FDD2DCC2DED89FE8940E050E063E072
:101FC00070E09D2D8C2D09954424552400E010E0EF
:101FD0008824A9C0232B09F4AAC0FF2DEE2D40852B
:101FE0005185628573859F2D8E2D42960E94C35523
:101FF000FF2DEE2D408D8789F72DE62D2785308921
:10200000481741F3232B09F492C0FF2DEE2D808158
:102010009181A281B381A6FF07C064E670E080E0F1
:1020200090E00E942253E4CFFF2DEE2DA589B689C2
:10203000A40FB11D5C914F5F408F882009F46AC0E6
:102040005E3709F440C05D3719F481E0982ED0CF97
:10205000992011F080E25827712F602F6F5F7F4F1A
:10206000FF2DEE2D87A190A50817190720F0062F48
:10207000172F882426C02D2F3327E52FEC27AE2FCE
:10208000BB27AA0FBB1F8A2F9B2F8B579D4FF92F62
:10209000E82FC895802DAA57BD4FFB2FEA2FC89572
:1020A000402D9927D82FCC27842F9927C82BD92B9F
:1020B000C227D327F52DE42D51934E2E5F2E062FE8
:1020C000172F992495CF0730110538F1C85BD04FF1
:1020D00021F502501040512F402F60E180E090E048
:1020E0000E940D3BD92FC82F892BB9F0512F402FBB
:1020F0007B2D6A2D8B819C810E947D60F32DE22DCA
:10210000238D348D6C2F7D2F9D2D8C2DE22FF32F61
:10211000099503C05E3709F06BCF4A2C5B2C00E0B9
:1021200010E0A1E08A2E9924CFEFDFEF61CFDD2D03
:10213000CC2DED89FE8940E050E064E070E09D2DFB
:102140008C2D09959B2D8A2D0E94D04F08CFCF93BF
:10215000DF93F92FE82FA785B089DB2FCA2F988549
:102160008985981779F08885FB2FEA2FE80FF11DF4
:10217000E45FFE4F80818CB9FB2FEA2F80858F5F53
:10218000808719C0DB2FCA2F1A86A189B289DB2F5D
:10219000CA2FE885F985309729F48FEF9FEF99874B
:1021A000888709C08FEFEF3FF80729F08481958178
:1021B000019695838483DF91CF910895CF93DF9328
:1021C000D92FC82FAF85B889FB2FEA2F86819CB104
:1021D000E80FF11D9487FB2FEA2F968187818917DD
:1021E000A9F40988DA89C02DEA85FB85309729F49E
:1021F0008FEF9FEF9B878A8709C08FEFEF3FF8072C
:1022000029F084819581019695838483FB2FEA2FA1
:1022100086818F5F8683DF91CF910895F92FE82F14
:10222000A785B089FB2FEA2F8285882391F49085BA
:102230008185981771F081E082878085E80FF11D14
:10224000E45FFE4F80818CB9FB2FEA2F80858F5F82
:10225000808780E090E00895CF93DF93D92FC82F37
:10226000EA81FB810784F089E02D66812781621B6A
:10227000772788279927DF91CF9108950E94D04F23
:1022800080E090E00895EF92FF920F931F93CF9319
:10229000DF93082F192FE42EF52E86E090E00E94A0
:1022A000534F009719F4EFEFFFEF19C0D12FC02F54
:1022B000E989FA892485358546855785F7FE02C068
:1022C0004D7F01C042602487358746875787F92FA5
:1022D000E82F1182108213830283158214828E2FBD
:1022E0009F2FDF91CF911F910F91FF90EF90089555
:1022F0000FB6F8940F928AB18F738AB90F900FBE00
:102300008AE00E94F2148AB1877E8AB90895AF925A
:10231000BF92DF92EF92FF920F931F93CF93DF93C1
:10232000B92FA82FD52FC42FE880F9800A811B81EF
:10233000DE2C892B11F4AFE5B2E0FB2FEA2F848568
:10234000A188B288262F372F215031402431310502
:1023500060F4255A3F4FF32FE22FEE0FFF1FC89571
:10236000E3950F92C8950F9208952FEF3FEFFDC0B0
:1023700099270E9478110E940A15E3E0EE0CFF1CD9
:10238000001F111FEA95D1F7512F402F3F2D2E2D01
:102390000E9419612F5F3F4F4F4F5F4F56954795F2
:1023A000379527952150304029B90FB6F8940F92F0
:1023B00088ED8AB90F900FBED6C0E9B00E940A1509
:1023C000FF240894E11CF11C0027112724E0EE0CE7
:1023D000FF1C001F111F2A95D1F7512F402F3F2DB1
:1023E0002E2D0E941961288339834A835B83BBC0E9
:1023F00099270E947811F8E0DF1691F414C088E064
:1024000090E0A0E0B0E0A6C099270E947811DD20FE
:1024100039F409C099270E94781181E0D81619F083
:102420002FEF3FEF02C020E030E00FB6F8940F929C
:1024300088ED8AB90F900FBE98C0FB2FEA2F478511
:102440005089188219821A821B828BB1282F332758
:1024500022FF08C081E090E0A0E0B0E0888399838B
:10246000AA83BB8323703070232B49F08881998124
:10247000AA81BB81826088839983AA83BB83F52F5D
:10248000E42F90858185981749F488819981AA81E4
:10249000BB81806888839983AA83BB83F52FE42F4F
:1024A00096818781891709F05EC088819981AA8108
:1024B000BB8180644FC0FB2DEA2DE082F182028354
:1024C000138351C0FB2DEA2D80819181A281B381BC
:1024D00041C0FB2DEA2DE482F5820683178343C0B9
:1024E000FB2DEA2D84819581A681B78133C0FB2D18
:1024F000EA2D84859585A685B785A0FF30C026C0C6
:10250000FB2DEA2D2485358546855785DD2011F084
:1025100041600FC04E7F0BC0FB2DEA2D2485358511
:1025200046855785DD2011F0426003C04D7FFB2DAD
:10253000EA2D248735874687578715C0FB2DEA2D5E
:1025400084859585A685B785A1FF09C081E090E0C7
:10255000A0E0B0E088839983AA83BB8304C018827B
:1025600019821A821B8220E030E0932F822FDF91A4
:10257000CF911F910F91FF90EF90DF90BF90AF90A0
:1025800008950F931F93CF93DF93CDB7DEB72497B2
:102590000FB6F894DEBF0FBECDBF082F192F80E80D
:1025A00095E2A0E0B0E089839A83AB83BC83F12FEE
:1025B000E02F8385823009F05CC08685882309F08E
:1025C00058C084859585029708F053C0A785B089C7
:1025D0008CE092E0FB2FEA2F11920197E9F78FE34D
:1025E00094E111969C938E938EE091E1FB2FEA2F5C
:1025F0009383828386E493E195838483F12FE02F94
:102600002189328980E1F32FE22F11928A95E9F72F
:1026100080E090E0A0E1B0E0F32FE22F848795877F
:10262000A687B787F12FE02F84859585892B09F53B
:10263000512F402F6EED70E188E892E00E94053541
:10264000892BB9F4512F402F67EA70E18EE892E0B0
:102650000E940535892B69F44C2F5D2F4F5F5F4F2A
:1026600061E071E0912F802F0E94871180E090E05F
:1026700002C08FEF9FEF24960FB6F894DEBF0FBE17
:10268000CDBFDF91CF911F910F9108950F931F93AD
:10269000CF93DF93F92FE82FC785D089018912895D
:1026A0000E940E11892B19F08FEF9FEF15C00FB606
:1026B000F8940F9209C044E650E060E070E0912F7A
:1026C000802F08960E94C35598858985981799F799
:1026D0000F900FBE80E090E0DF91CF911F910F919E
:1026E00008954F925F926F927F928F929F92AF92D6
:1026F000BF92CF92DF92EF92FF920F931F93CF93EF
:10270000DF93CDB7DEB722970FB6F894DEBF0FBECA
:10271000CDBFC82ED92E642E752E822E932EF92F62
:10272000E82FE784F088A188B288FB2DEA2D248564
:102730003585468557856115710529F40E94461334
:10274000082F192F71C0B52FA42F932F822F15E1B9
:10275000B695A795979587951A95D1F781708A8335
:10276000F1E15695479537952795FA95D1F7217060
:102770002983462E572E00E010E03FC0FF2DEE2D9E
:10278000908581858F5F891739F49D2D8C2D0E944E
:102790004613892B09F046C08114910429F0F52DC8
:1027A000E42DC895902D03C0F52DE42D9081F9817D
:1027B000F13069F49A3081F48A81813019F0E2E0D5
:1027C000E98303C0F2E0FA83F9839DE00AC08981BE
:1027D000823011F4E1E0E9830894411C511C0F5F41
:1027E0001F4FFF2DEE2D8185E80FF11DE45FFE4F99
:1027F00090838F5FFF2DEE2D8187061517050CF452
:10280000BDCFFA81F23040F4FB2DEA2D8485958509
:10281000A685B785A4FF08C09D2D8C2D0E94461368
:10282000892B11F00FEF1FEF912F802F22960FB6FB
:10283000F894DEBF0FBECDBFDF91CF911F910F91F6
:10284000FF90EF90DF90CF90BF90AF909F908F90D0
:102850007F906F905F904F90089521E030E0F92FC6
:10286000E82F828193810E947113089520E030E067
:10287000F92FE82F828193810E94711308950F939D
:102880001F93CF93DF93F92FE82FC785D089018954
:1028900012890FB6F8940F929E810F900FBE8F8110
:1028A000891719F080E090E016C0F12FE02F4081E9
:1028B000518162817381912F802F0A960E94C355A6
:1028C0000FB6F8940F923F812E810F900FBE0097A4
:1028D00011F4321751F3DF91CF911F910F910895A9
:1028E0006F927F928F929F92AF92BF92CF92DF9220
:1028F000EF92FF920F931F93CF93DF93642E752E69
:10290000F92FE82FA280B380FB2DEA2DC785D0894F
:10291000A189B289FB2FEA2FE484F5840685178507
:1029200080E090E0A2E0B0E0E822F9220A231B2335
:102930006115710529F0C62ED72E882499243EC032
:102940008E818F83882499243CC09E818F81891732
:1029500071F48114910439F034C09B2D8A2D0E94AA
:102960003F14892B71F59E818F818917B1F38F8177
:10297000FD2FEC2FE80FF11D94858F5F8F83E114FD
:10298000F1040105110589F09D3011F09A3069F4C8
:102990008B85882311F0891789F49B878AE0BD2DE8
:1029A000AC2D8D93CA2EDB2E06C01B86FD2DEC2D83
:1029B0009193CE2EDF2E0894811C911C86149704CF
:1029C00024F2992D882DDF91CF911F910F91FF90C7
:1029D000EF90DF90CF90BF90AF909F908F907F90BF
:1029E0006F9008951F93182F6091D4057091D505AD
:1029F0008091D6059091D70520EA3FE040E050E075
:102A00000E941961822F932F0197F1F71A95D1F740
:102A10001F9108956091D4057091D5058091D605D8
:102A20009091D705089560E074E080E090E008950B
:102A3000682F792F87B78D7F87BF80B7886080BF69
:102A400012BE82E083BF80B7992787709070892B70
:102A5000D1F781E086BF0FB6F8940F9281E090E045
:102A6000A0E0B0E0B6B7B170E9F3B6BF0894811D3D
:102A7000911DA11DB6B7B170C9F3BB270F900FBE52
:102A800027E0880F991FAA1FBB1F2A95D1F78093B3
:102A9000D4059093D505A093D605B093D70587B7F5
:102AA0008D7F87BF80B7886080BF12BE89E083BFFB
:102AB0008FE181BF80B7992787709070892BD1F7FC
:102AC00082E086BF40E050E082E892E00E94053557
:102AD00008953AE0660F771F881F991F3A95D1F73E
:102AE00028EE33E040E050E00E94196121153105E5
:102AF0004105510521F421E030E040E050E0952F00
:102B0000842F732F622F0895282F392FF72FE62F48
:102B100087B7482F55274270507087B78D7F87BF82
:102B200020313105D9F0213131053CF42115310531
:102B300081F02130310551F40EC02231310571F19F
:102B400022313105E4F020323105E1F02FEF3FEF83
:102B50001FC040E050E082E086BF18C006B601FE0C
:102B600005C081E090E09183808302C011821082D1
:102B7000452BA1F08081918180689183808320E042
:102B800030E008C08EE090E09183808320E030E068
:102B9000452B31F087B7826087BF02C020E030E06C
:102BA000932F822F08951F920F920FB60F92112428
:102BB0002F933F934F935F936F937F938F939F9345
:102BC000AF93BF93EF93FF9382E892E00E94F534B6
:102BD000FF91EF91BF91AF919F918F917F916F91F5
:102BE0005F914F913F912F910F900FBE0F901F90CB
:102BF0001895282F392FF72FE62F8AB1482F552700
:102C000040785070579820313105D9F02131310585
:102C10003CF42115310581F02130310551F40EC00D
:102C20002231310559F122313105DCF020323105F4
:102C3000D9F08FEF9FEF1EC040E050E08CB18CB117
:102C400017C05F9B05C081E090E09183808302C044
:102C500011821082452B91F080819181806891834F
:102C6000808380E090E008C080E190E091838083E1
:102C700080E090E0452B21F0579A089580E090E0A5
:102C800008951F920F920FB60F9211242F933F9326
:102C90004F935F936F937F938F939F93AF93BF9364
:102CA000EF93FF9388E892E00E94F534FF91EF9153
:102CB000BF91AF919F918F917F916F915F914F9154
:102CC0003F912F910F900FBE0F901F901895282FB6
:102CD000392FF72FE62F8AB1482F552740745070AF
:102CE000569820313105D1F0213131053CF42115C0
:102CF000310581F02130310551F40EC0223131050A
:102D000051F122313105D4F020323105D1F08FEF6D
:102D10009FEF1DC040E050E05E9A17C05E9B05C06B
:102D200081E090E09183808302C011821082452B64
:102D300091F08081918180689183808380E090E030
:102D400008C080E190E09183808380E090E0452B93
:102D500021F0569A089580E090E008951F920F9216
:102D60000FB60F9211242F933F934F935F936F935E
:102D70007F938F939F93AF93BF93EF93FF938EE8CF
:102D800092E00E94F534FF91EF91BF91AF919F9136
:102D90008F917F916F915F914F913F912F910F9004
:102DA0000FBE0F901F901895282F392FF72FE62F61
:102DB0008AB1482F552740725070559821313105FE
:102DC00019F1223131053CF42115310551F1203141
:102DD000310539F409C02231310519F120323105AC
:102DE000B1F08FEF9FEF19C05D9B05C081E090E0CF
:102DF0009183808302C011821082452B91F08081E3
:102E0000918180689183808380E090E008C080E1B8
:102E100090E09183808380E090E0452B21F0559AEB
:102E2000089580E090E008951F920F920FB60F92E0
:102E300011242F933F934F935F936F937F938F93BF
:102E40009F93AF93BF93EF93FF9384E992E00E9427
:102E5000F534FF91EF91BF91AF919F918F917F9149
:102E60006F915F914F913F912F910F900FBE0F90F7
:102E70001F9018950F931F93CF93DF93082F192F4F
:102E8000C091D805D091D905FD2FEC2F1CC0808DA5
:102E9000918D80179107A1F4828D938DA48DB58DAE
:102EA00082179307A407B50759F4868D978D861767
:102EB000970731F48389882319F08E2F9F2F18C02C
:102EC0000190F081E02D309711F70EC08B89813091
:102ED00041F4888D998D8017910719F48C2F9D2FBF
:102EE00007C00990D881C02D209781F780E090E03D
:102EF000DF91CF911F910F910895CF93DF93F92F19
:102F0000E82FD52FC42F892B09F459C080E16230F6
:102F10007807E1F080E16330780744F462307105AE
:102F200069F06150704109F044C032C080E1653001
:102F30007807B1F066507041E1F51AC0452B69F190
:102F40002230310551F5EE5AFF4F07C0452B29F1CC
:102F50002230310511F5E85BFF4F8081918124C05B
:102F6000452BD9F024303105C1F4E659FF4F07C095
:102F7000452B99F02430310581F4EA59FF4F8081C7
:102F80009181A281B38188839983AA83BB830EC078
:102F9000452B19F02230310529F0E05AFF4F86E128
:102FA00090E00BC0818992899983888380E090E0CA
:102FB00008C0E05AFF4F8AE397E2918380838FEF46
:102FC0009FEFDF91CF910895F92FE82F892B19F406
:102FD00086E397E20895E05AFF4F8081918108953A
:102FE000CF93DF93B92FA82FD52FC42F6A30710547
:102FF00061F06A30710534F06B30710599F06C3016
:10300000710519F08FEF9FEF19C0FB2FEA2FE65BD8
:10301000FF4FAA5BBF4F8D919C9120813181821B14
:10302000930B04C0F92FE82F85859685AA27BB2727
:1030300088839983AA83BB8380E090E0DF91CF915E
:103040000895CF93DF93D92FC82F08C08081918135
:103050008D939C938E2F9F2F0E94F73BAC2FBD2FFB
:10306000A45BBF4FED91FC911197309779F708C0A1
:103070008081918199AF88AF8E2F9F2F0E94F73B5F
:10308000E8ADF9AD3097A1F708C0808191818D93AB
:103090009C938E2F9F2F0E94F73BAC2FBD2FA05BE0
:1030A000BF4FED91FC911197309779F7DF91CF9158
:1030B00008954F925F926F927F928F929F92AF92FC
:1030C000BF92CF92DF92EF92FF920F931F93CF9315
:1030D000DF93D92FC82F462E572E642E752E0E94AF
:1030E000F451209761F08B89843061F08B898530B1
:1030F00049F0C05ADF4F89E497E2998388834FEF04
:103100005FEFC3C04114510409F4B1C061147104EC
:10311000A9F4ADC08B89843061F7CA59DF4F48816B
:1031200059816A817B81C656D0408C2F9D2F825B4E
:103130009F4F0E94C355892B09F099C0CA5BDF4F8E
:10314000888199812496C880D980CA54D0408C1532
:103150009D0501F38C199D098615970518F08824A3
:10316000992449C0009719F4662477247DC0682EFD
:10317000792EF5CFC45BDF4FA880B980CC54D04006
:10318000FB2DEA2D018912890C191D09F72CE62C5B
:10319000E818F908952D842D880D991D678570898B
:1031A0000E151F0508F466C06C0D7D1D5F2D4E2D9C
:1031B0000E947D608E0C9F1CCE0CDF1CE016F10679
:1031C000D0F0C45BDF4FFB2DEA2D80819181998384
:1031D0008883CC54D040FD2FEC2FEA5BFF4F8081D9
:1031E00091818C199D09918380839B2D8A2D0E944A
:1031F000F73BCC24DD248614970408F4BBCFC65BD0
:10320000DF4FD982C882CA54D0408B89843061F59F
:10321000FD2FEC2FEC5BFF4F40815181242F352F88
:10322000260D371DC85BDF4F88819981C854D04077
:103230002817390710F4932F822FCE5ADF4F288199
:103240003981C255D0402417350750F02817390767
:1032500038F4918380838C2F9D2F0E94842604C094
:10326000CC5BDF4F99838883572D462D0EC040E0FD
:1032700050E00BC06C0D7D1D512F402F0E947D60D2
:10328000800E911EC00ED11E9CCF952F842FDF91F2
:10329000CF911F910F91FF90EF90DF90CF90BF9053
:1032A000AF909F908F907F906F905F904F90089518
:1032B0000E9459180895CF92DF92EF92FF920F93D8
:1032C0001F93CF93DF93D92FC82FC62ED72E042F4D
:1032D000152F0E94F451209709F458C0C114D1044D
:1032E00009F457C00115110509F453C0CE5ADF4F38
:1032F000E880F980C255D0400E151F0510F4E02E6D
:10330000F12E8B898430E1F549A55AA58DA19EA1A6
:10331000481B590B242F352F369527953695279521
:10332000CE5ADF4F88819981C255D040281739077E
:1033300038F48DA99EA9841B950B8E159F0580F4EA
:10334000C659DF4F488159816A817B81CA56D04076
:103350008C2F9D2FCA960E94C355892BD1F4D1CFB3
:1033600088A1806188A35F2D4E2D7D2D6C2D8C2F23
:103370009D2F0E94D823892B49F45F2D4E2D0BC021
:10338000C05ADF4F89E497E2998388834FEF5FEF5C
:1033900002C040E050E0952F842FDF91CF911F9124
:1033A0000F91FF90EF90DF90CF900895CF92DF9232
:1033B000EF92FF920F931F93CF93DF93C82ED92ED6
:1033C000E62EF72E042F152FC0E0D0E014C0512FA9
:1033D000402F4C1B5D0B7F2D6E2D6C0F7D1F9D2D87
:1033E0008C2D0E945B19181619061CF0CFEFDFEF29
:1033F00005C0C80FD91FC017D1074CF38C2F9D2FC4
:10340000DF91CF911F910F91FF90EF90DF90CF90C0
:103410000895AF92BF92CF92DF92EF92FF920F93F7
:103420001F93CF93DF93D92FC82FA62EB72E042F2B
:10343000152F892B09F4CEC08B89843039F0C05AFE
:10344000DF4F89E497E299838883C4C0ED85FE85C8
:1034500041155105C9F4309709F4BEC06F857889CC
:103460004E2F5F2F8C2F9D2F0E94D6192F853889C4
:1034700097FF03C0932F822F8EC0932F822F0E941D
:10348000D04F1E861D86A8C0C62ED72E69897A8980
:10349000309771F54617570718F4E42EF52E1AC029
:1034A000952F842F0E940361E82EF92EC02ED12E75
:1034B000C81AD90A5D2D4C2D7B2D6A2D8C2F9D2F7E
:1034C0000E94D61997FD86C0E114F10409F484C066
:1034D000CA0CDB1C89899A890E94534F988B8F876D
:1034E000009709F477C05F2D4E2D7D2D6C2D68C09F
:1034F0008E2F9F2F840F951F2F853889861797074A
:1035000078F47B2D6A2D8E2F9F2F820F931F0E94A0
:103510007D608D859E85800F911F9E878D875CC005
:10352000E62EF72EEE1AFF0A5F2D4E2D7B2D6A2D0B
:103530008E2F9F2F820F931F0E947D6049895A8989
:103540006F8578898C2F9D2F0E94D61999230CF1B5
:10355000DB2CCA2CCE0CDF1C312F202F2E193F095B
:1035600069897A8926173707F0F0912F802F0E94FA
:103570000361E82EF92EA22EB32EA81AB90A5B2DEC
:103580004A2D7D2D6C2D8C2F9D2F0E94D61997FFD3
:1035900007C08F8598890E94D04F1E861D861AC04D
:1035A000CA0CDB1C02C0E22EF32E2F853889E114F1
:1035B000F10449F05F2D4E2D7D2D6C2D932F822F20
:1035C0000E947D6004C0932F822F0E94D04FFE8600
:1035D000ED8602C00FEF1FEF912F802FDF91CF916B
:1035E0001F910F91FF90EF90DF90CF90BF90AF9021
:1035F0000895CF92DF92EF92FF920F931F93CF9394
:10360000DF93C82ED92EE62EF72ED52FC42F4115C5
:103610005105E9F0952F842F0E94534F082F192F41
:103620000097A9F04C2F5D2F7F2D6E2D0E944860D2
:103630004C2F5D2F712F602F9D2D8C2D0E94091A0C
:10364000D92FC82F912F802F0E94D04F0AC04C2F06
:103650005D2F60E070E09D2D8C2D0E94091AD92FFE
:10366000C82F8C2F9D2FDF91CF911F910F91FF902D
:10367000EF90DF90CF9008950F931F93082F192F8D
:1036800040E050E060E070E00E94091A912F802F26
:103690000E94EA2E1F910F9108950F931F93CF93CD
:1036A000DF93D92FC82F042F152F892B09F47DC044
:1036B00080E16230780761F1E0E163307E0744F435
:1036C0006230710571F06150704109F068C04CC002
:1036D00080E16530780771F16650704109F05FC094
:1036E00031C04115510509F444C02230310509F0BB
:1036F00040C08B89882329F0C05ADF4F88E497E2C5
:1037000052C0CE5ADF4FF52FE42F808191810FC038
:103710004115510571F12230310559F5F52FE42F8E
:1037200080819181C85BDF4F998388832497998337
:10373000888332C0452BE9F024303105D1F4C659D5
:10374000DF4F07C0452BA9F02430310591F4CA5949
:10375000DF4FF12FE02F80819181A281B381888397
:103760009983AA83BB8318C0452B19F022303105F9
:1037700029F0C05ADF4F86E190E015C040E050E0EC
:1037800060E070E08C2F9D2F0E94091AF12FE02F2E
:10379000808191819A8B898B80E090E008C0C05A2B
:1037A000DF4F8AE397E2998388838FEF9FEFDF9162
:1037B000CF911F910F910895CF93DF938091DA05F8
:1037C000882359F40E94012620E0892B09F421E086
:1037D0002093DA05222309F44CC082E790E00E948E
:1037E0005650009709F445C0D92FC82F1B8A84E092
:1037F0008C8388E599E19E838D8389E09AE198879F
:103800008F8389EF9AE19A87898780EF97E19C8778
:103810008B870E94675269A37AA38BA39CA36DA395
:103820007EA38FA398A769A77AA78BA79CA7CC5B39
:10383000DF4F80E99CE0998388832496998388836D
:103840002A9628E132E039832883269688EE93E091
:1038500099838883C855D0408091D8059091D90527
:10386000998388833A8B298BD093D905C093D80547
:1038700002C0C0E0D0E08C2F9D2FDF91CF91089542
:10388000CF93DF93D92FC82F8091D8059091D90578
:10389000E8EDF5E007C08C179D0739F0F92FE82F08
:1038A000808191810097B9F71CC0888199819183AB
:1038B00080838C2F9D2F0E9421188D859E85892BBA
:1038C00031F08F8598890E94D04F1E861D8682E731
:1038D000FD2FEC2F11928A95E9F78C2F9D2F0E94D6
:1038E000D04FDF91CF910895F92FE82F062E672F43
:1038F000702D718F608F0E94EC270895EF92FF92D8
:103900000F931F93CF93DF93D92FC82FE42EF52E5B
:10391000062F172F532F422F892B09F471C08B8943
:10392000813029F4C05ADF4F8DE397E267C08B895D
:10393000882329F0C05ADF4F88E497E25FC0609186
:10394000D8057091D905A0E0B0E180919A029091DC
:103950009B02019690939B0280939A0280919A0217
:1039600090919B02892B21F4B0939B02A0939A0221
:10397000F72FE62F0FC080919A0290919B02082E9C
:10398000892F902D208D318D28173907F1F2019064
:10399000F081E02D309779F780919A0290919B0207
:1039A000082E892F902D998F888F042E452F502D0A
:1039B0005F8F4E8FEA8EFB8E0C8F1D8F40E050E0A4
:1039C000912F802F7F2D6E2D0E94E91EF92FE82F59
:1039D000892B81F00784F089E02D87819085A1856E
:1039E000B2858C8B9D8BAE8BBF8B8C2F9D2F0E94B5
:1039F000CD2708C0C05ADF4F81E597E299838883BD
:103A00008FEF9FEFDF91CF911F910F91FF90EF907C
:103A10000895282F392FE0918006F09181060BC080
:103A2000828193818217930719F48E2F9F2F089517
:103A30000190F081E02D309799F780E090E00895B3
:103A4000B92FA82FF52FE42F892B89F062507041F0
:103A500071F4452B61F02230310549F48081918168
:103A6000FB2FEA2F9387828780E090E008958FEF05
:103A70009FEF0895CF93DF93B92FA82FF52FE42F51
:103A8000892B89F06250704171F4452B61F022302E
:103A9000310549F4DB2FCA2F8A859B85918380836A
:103AA00080E090E002C08FEF9FEFDF91CF9108950B
:103AB000CF93DF93D92FC82FE0918006F091810634
:103AC000A0E8B6E01FC080819181EC17FD07B1F43A
:103AD0008D939C9308C0808191819D838C838E2FD0
:103AE0009F2F0E94F73BEC81FD813097A1F78C2F2F
:103AF0009D2F0E94D04F80E090E008C0AE2FBF2FD6
:103B0000F92FE82F3097F9F68FEF9FEFDF91CF91E4
:103B100008956F927F928F929F92AF92BF92CF92B1
:103B2000DF92EF92FF920F931F93CF93DF93682E54
:103B3000792EA42EB52EC62ED72E822E932E5F2D33
:103B40004E2D60E880E090E00E940D3BD92FC82FF9
:103B5000892B19F40FEF1FEF1CC05F2D4E2D712F15
:103B6000602F8F8598890E947D600C2F1D2F392D25
:103B7000282D7D2D6C2D5B2D4A2D972D862D0E9495
:103B8000862F082F192F892B21F48C2F9D2F0E940F
:103B9000F73B912F802FDF91CF911F910F91FF90D5
:103BA000EF90DF90CF90BF90AF909F908F907F90DD
:103BB0006F900895CF93DF93D92FC82F892B11F5DC
:103BC0004091800650918106C0919C02D0919D0247
:103BD000219611F4C0E0D0E12C2F3D2F022E232F8F
:103BE000302DF52FE42F08C082819381821793072F
:103BF00079F30190F081E02D3097B1F7D0939D02D9
:103C0000C0939C028CE090E00E945650F92FE82F60
:103C1000892B79F00C2ECD2FD02DD383C2838091A8
:103C200080069091810691838083F0938106E093D2
:103C300080068E2F9F2FDF91CF9108954F925F9234
:103C40006F927F928F929F92AF92BF92CF92DF92AC
:103C5000EF92FF920F931F93CF93DF93A82EB92E6D
:103C6000862E972E642E752E422E532EF92FE82F76
:103C7000C481D581209781F47F2D6E2D5D2D4C2D33
:103C800006960E94C355FB2DEA2DC481D58120974D
:103C900019F440E050E03CC088819981FB2DEA2D69
:103CA00095838483EF81F88584859585A685B7857E
:103CB000F92DE82D80839183A283B383EB85FC8566
:103CC00080819181082E892F902DF72DE62D9183EB
:103CD0008083E988FA883F2D2E2D0E151F0510F4DC
:103CE000E02EF12EFB2DEA2D80859185821B930B12
:103CF000918780876F8578895F2D4E2D952D842D36
:103D00000E947D608C2F9D2F0E94F73B5F2D4E2DD2
:103D1000952F842FDF91CF911F910F91FF90EF90FE
:103D2000DF90CF90BF90AF909F908F907F906F90DB
:103D30005F904F900895EF92FF920F931F93CF9350
:103D4000DF93E62EF72E082F192FD52FC42F622FC1
:103D50006430A0F5E0918206F091830614C086815C
:103D60009781A085B1858E219F21A023B123228137
:103D700033814481558182179307A407B50731F039
:103D80000190F081E02D309751F71AC0209761F033
:103D900082859385A485B5850097A105B10521F09D
:103DA00088839983AA83BB8386859785892B41F471
:103DB0006F5FE284F38404851585CACFE0E0F0E00C
:103DC0008E2F9F2FDF91CF911F910F91FF90EF903A
:103DD0000895F52FE42F452B21F0108211821282D5
:103DE00013826F3F2FEF72072FEF82072FEF92079B
:103DF00029F4E0918206F091830607C020E04E2F5F
:103E00005F2F0E949B1EF92FE82F309719F480E056
:103E100090E008958685978508954F925F926F92FE
:103E20007F928F929F92AF92BF92CF92DF92EF924A
:103E3000FF920F931F93CF93DF93CDB7DEB72497F5
:103E40000FB6F894DEBF0FBECDBF462E572E682E9C
:103E5000792E822E932EA42EB52EE982FA820B8320
:103E60001C83E0908206F090830602E816E006C00C
:103E70001F2D0E2DBF2DAE2DED90FC90E114F10401
:103E800059F0FF2DEE2D86819781A085B18588168A
:103E90009906AA06BB0660F380E190E00E94534FAA
:103EA000282F392F009719F48FEF9FEF20C048205B
:103EB00059206A207B20F92FE82F428253826482A6
:103EC000758286829782A086B18689819A81AB812C
:103ED000BC8182879387A487B587D786C686F182FF
:103EE000E082B12FA02F2D933C9380E090E02496A8
:103EF0000FB6F894DEBF0FBECDBFDF91CF911F91FB
:103F00000F91FF90EF90DF90CF90BF90AF909F9078
:103F10008F907F906F905F904F900895CF93DF9335
:103F2000D92FC82F19821882E0918206F09183065A
:103F300006C00196998388830190F081E02D8881E5
:103F400099813097B1F724E0880F991F2A95E1F7FE
:103F50000E94534F0097A9F0E0918206F0918306EA
:103F60000DC0D92FC82FAE2FBF2F20E10D90099281
:103F70002150E1F740960190F081E02D309789F7CC
:103F800002C019821882DF91CF9108954F925F92FB
:103F90006F927F928F929F92AF92BF92CF92DF9259
:103FA000EF92FF920F931F93462E572E682E792E75
:103FB000822E932EA42EB52E2FEF3FEF36C0828196
:103FC0009381A481B58184159505A605B70519F5DA
:103FD00086819781A085B18588159905AA05BB05BD
:103FE000D1F482859385A485B5858E159F05A0079C
:103FF000B10789F4868597858C159D0561F48081CC
:10400000918190938306809382068E2F9F2F0E942A
:10401000D04F20E030E0E0918206F091830680816D
:1040200091819093830680938206E0918206F091BD
:104030008306309721F6932F822F1F910F91FF90C7
:10404000EF90DF90CF90BF90AF909F908F907F9038
:104050006F905F904F900895CF93DF93D92FC82F23
:1040600018C0868597858C179D0711F0209759F405
:104070008081918190938306809382068E2F9F2F5B
:104080000E94D04F06C080819181909383068093D7
:104090008206E0918206F0918306309711F780E066
:1040A00090E0DF91CF910895CF93DF93CDB7DEB746
:1040B00024970FB6F894DEBF0FBECDBFF92FE82FBF
:1040C00019821A821B821C82AC2FBD2F119640E0F0
:1040D000808180538A3078F520E030E0932F822F62
:1040E0006AE070E00E94CA602191332727FD309575
:1040F000280F391F20533040808180333CF08A33B1
:104100002CF42F3F310509F0B0F4E8CF2F3F3105F3
:1041100009F088F44F5F2C9380818E3239F044305F
:1041200051F469817A818B819C8109C0443019F0F6
:1041300011963196CDCF6FEF7FEF8FEF9FEF2496E3
:104140000FB6F894DEBF0FBECDBFDF91CF910895BB
:10415000BF92CF92DF92EF92FF920F931F93CF9374
:10416000DF93CDB7DEB727970FB6F894DEBF0FBE4B
:10417000CDBF6C837D838E839F8394E0E92EF12CE9
:10418000EC0EFD1E40E00BED15E050E0CC2EDD2ED8
:104190000894C11CD11C8EE2B82E01C0492FBF2D3E
:1041A000AE2D2C91822F6AE00E94F760382F8C93FD
:1041B000FD2DEC2DE40FF11D822F0E94F760905D24
:1041C0009083942F9F5F332349F7B12FA02F242F83
:1041D0002095240F6C2F7D2F6F5F7F4F06C0F72F28
:1041E000E62FE90FF11D80818D9391509217B9F759
:1041F0004F5FF12FE02FE40FF11DAE2FBF2FBD92C7
:104200000A2F1B2F5F5F543028F40894E11CF11C27
:1042100090E0C4CF10828BED95E027960FB6F8940E
:10422000DEBF0FBECDBFDF91CF911F910F91FF90E9
:10423000EF90DF90CF90BF9008952F923F924F92D2
:104240005F926F927F928F929F92AF92BF92CF9226
:10425000DF92EF92FF920F931F93CF93DF93CDB72F
:10426000DEB72A970FB6F894DEBF0FBECDBF282E5B
:10427000392E442E552E662E772E802E912EA22E6C
:10428000B32ECD82DE82EF82F886F92FE82F0784E5
:10429000F089E02DFA87E98741155105610571051F
:1042A00081F4409094065090950660909606709028
:1042B0009706411451046104710419F48FEF9FEFC4
:1042C000AFC0E985FA85478250866186728681147F
:1042D0009104A104B10441F48EE992E00E945420BB
:1042E000862E972EA82EB92EE985FA858786908A84
:1042F000A18AB28A572D462D352D242D282139210A
:104300004A215B2129833A834B835C83D32CC22CC3
:10431000EE24FF24002711275B2D4A2D392D282D4F
:1043200069817A818B819C810E940D1F8D819E8184
:10433000AF81B8850097A105B10571F0E82EF92E7F
:104340000A2F1B2F20E030E040E050E060E070E0FA
:1043500080E090E00E940D1FA5E8B6E0F32DE22D6D
:10436000329689E001900D928150E1F7E985FA8556
:104370008181882379F48281882361F48381882371
:1043800049F48481882331F48581882319F4868156
:10439000882351F0AEE8B6E0E985FA85319686E0EB
:1043A00001900D928150E1F740929406509295064B
:1043B000609296067092970680929806909299065F
:1043C000A0929A06B0929B062D813E814F8158851E
:1043D0002115310541055105A9F480919C06909164
:1043E0009D06A0919E06B0919F0688219921AA2141
:1043F000BB2129813A814B815C8182179307A407F5
:10440000B50761F08D819E81AF81B88580939C0650
:1044100090939D06A0939E06B0939F060E94F4225F
:104420002A960FB6F894DEBF0FBECDBFDF91CF91B5
:104430001F910F91FF90EF90DF90CF90BF90AF90C2
:104440009F908F907F906F905F904F903F902F90B4
:1044500008952F923F924F925F926F927F928F9228
:104460009F92AF92BF92CF92DF92EF92FF920F9303
:104470001F93CF93DF93CDB7DEB724970FB6F89491
:10448000DEBF0FBECDBF7C836B83222E332E442E26
:10449000552E6E2C7F2C802E912E0E944856F92F7F
:1044A000E82F009709F46EC09A838983838583304F
:1044B00009F068C0A785B0898C918630A1F4119667
:1044C000EB81FC8101900D928150E1F7FD2CEC2CE9
:1044D000DB2CCA2C392D282D172D062D752D642D7A
:1044E000532D422D4AC0873109F04CC0A188B288B3
:1044F000FB2DEA2D21A232A243A254A2E114F10421
:104500000105110541F48FEF682E8FEF782E8FEFA4
:10451000882E8FEF982EFB2DEA2D61A672A683A61A
:1045200094A69B2D8A2D0E945A55FB2DEA2DFF96AD
:104530004C2F5D2F4F5F5F4F67E171E0808191816C
:104540000E94D45640E65AEE60E070E09B2D8A2D22
:104550000E94C355892BB1F4FB2DEA2D84AD89301F
:1045600089F4C5A0D6A0E7A0F0A401A512A523A5B3
:1045700034A541A152A163A174A189819A810E94AD
:104580001D2102C08FEF9FEF24960FB6F894DEBF77
:104590000FBECDBFDF91CF911F910F91FF90EF9094
:1045A000DF90CF90BF90AF909F908F907F906F9053
:1045B0005F904F903F902F900895AF92BF92CF920F
:1045C000DF92EF92FF920F931F93AA24BB24CC2477
:1045D000DD240E9429221F910F91FF90EF90DF9020
:1045E000CF90BF90AF90089580E28093840640E220
:1045F00050E064E876E080E490E00E949F3C892BE4
:1046000019F08FEF9FEF089580E090E00895CF9329
:10461000DF93D92FC82F40E250E064E876E080E4D1
:1046200090E00E94A23C892B01F5809184068032A3
:1046300059F46C2F7D2F85E896E00E94A560892BA8
:1046400019F480E090E013C0E4E8F6E080E2AE2FD9
:10465000BF2F1D928A95E9F746E050E06FEF70E0BA
:104660008E2F9F2F0A960E948C608FEF9FEFDF9115
:10467000CF910895AF92BF92CF92DF92EF92FF92C7
:104680000F93CF93DF93C82ED92EF92FE82FA78051
:10469000B084C385D4858D8582FD7AC0FD2DEC2D37
:1046A000128A118A84E190E0968785872881398172
:1046B0008A819B81998388833B832A838D8599276F
:1046C00084FF0FC084E08D8788859985AA85BB8586
:1046D0008C839D83AE83BF83188619861A861B86BA
:1046E00020C02C813D814E815F8181FF10C0022E50
:1046F000252F502D032E342F402D2F5F3F4F4F4F2E
:104700005F4F022E252F502D032E342F402D28874A
:1047100039874A875B871C821D821E821F8284E143
:104720008D8780E58C871F861E861B8A1A8A198AC8
:10473000188AFD2DEC2DE584F6840E2CEF2CF02C40
:10474000FB2DEA2D2485358546855785608971893D
:104750008289938906E00E947A30B92FA82F972F7B
:10476000862FFD2DEC2D458556856C2F7D2F0E94C3
:104770007530998B888BFB2DEA2D44855585668590
:1047800077853D2D2C2D86E00E94AF30892B21F4BA
:104790009D2D8C2D0E94F73B80E090E0DF91CF9122
:1047A0000F91FF90EF90DF90CF90BF90AF90089562
:1047B0006F927F928F929F92AF92BF92CF92DF9231
:1047C000EF92FF920F93CF93DF93CDB7DEB722978F
:1047D0000FB6F894DEBF0FBECDBFC82ED92EE62E81
:1047E000F72E642E752E452B31F4F92FE82F80A17A
:1047F0008B7009F4BBC1FD2DEC2D80A181FF02C09F
:1048000008E101C004E1402F552760E480E090E01A
:104810000E940D3B882E992E009709F4A1C0F92F14
:10482000E82FA384B484FD2DEC2D808D918DFB2D7C
:10483000EA2D91838083FD2DEC2D868D978DFB2DA8
:10484000EA2D93838283000F000F0487FD2DEC2D4A
:1048500080A1877F80A381A592A5A3A5B4A5082EDA
:104860008B2FB02D092E9A2FA02DFB2DEA2D84839E
:104870009583A683B783FD2DEC2D80A184FF24C0F2
:1048800080E1FB2DEA2D8587FD2DEC2D80A18F7E0B
:1048900080A320E430E0C20ED31EFD2DEC2D8081DC
:1048A0009181A281B38120EC3FEFC20ED31E082E6E
:1048B0008B2FB02D092E9A2FA02DFB2DEA2D80874E
:1048C0009187A287B38707C0FB2DEA2D1586108636
:1048D000118612861386FD2DEC2D80A1992781FF6C
:1048E00031C022E530E0C20ED31EFD2DEC2D8081BB
:1048F00091812EEA3FEFC20ED31E082E892F902DF4
:104900009A838983FB2DEA2D858582608587FD2D1D
:10491000EC2D80A18D7F80A381A592A5A3A5B4A530
:104920000196A11DB11D81A792A7A3A7B4A782E0FC
:10493000FB2DEA2D848B84E0858B8981868B8A818F
:10494000878B52C061147104C1F1572D462D60E868
:10495000992D882D0E940D3B882E992E009759F491
:1049600020E630E0C20ED31E87E497E2FD2DEC2D49
:1049700091838083F4C0572D462D7F2D6E2DF92F06
:10498000E82F878590890E947D60862D972DAA2724
:10499000BB27FD2DEC2D21A532A543A554A5280F3D
:1049A000391F4A1F5B1F21A732A743A754A7FB2D1E
:1049B000EA2D85858860858717C080FF15C0FB2D8F
:1049C000EA2D858581608587FD2DEC2D80A18E7F68
:1049D00080A381A592A5A3A5B4A50196A11DB11D93
:1049E00081A792A7A3A7B4A724E430E0C20ED31EE8
:1049F000FD2DEC2D208131814EE050E0C40ED51EFE
:104A0000FD2DEC2D808191814EEA5FEFC40ED51E05
:104A10002817390728F4FB2DEA2D1786168607C0BC
:104A2000022E232F302DFB2DEA2D37872687FB2DD5
:104A3000EA2D118A108A138A128AF92DE82DE5844D
:104A4000F68481899289E80EF91E0E2CEF2CF02C49
:104A5000FD2DEC2D228D338D448D558D6489758906
:104A60008689978906E00E947A30B92FA82F972F60
:104A7000862FF92DE82D458556857B2D6A2D0E94C0
:104A80003930F92DE82D41895289678570890E9456
:104A90007530FB2DEA2D918B808B672849F4858535
:104AA000992783709070892B19F4F92CE82C4AC04F
:104AB000F92DE82D11821082FD2DEC2DA0ADB1ADA8
:104AC000109799F491AE80AE0E941B542EE530E011
:104AD000C20ED31EFD2DEC2D7183608322EA3FEFC1
:104AE000C20ED31E09C0B92FA82F8D919C9111978A
:104AF0000097C9F78D929C923D2D2C2D2C5A3F4F3B
:104B0000F32FE22F80819181A281B3810097A105CB
:104B1000B10591F4FB2DEA2D84819581A681B781A1
:104B2000082E8B2FB02D092E9A2FA02DF32FE22FB8
:104B300080839183A283B383992D882D0E94103C9A
:104B4000E82EF92EFD2DEC2D428D538D648D758D43
:104B50003F2D2E2D86E00E94AF30892B19F08FEF6C
:104B60009FEF06C09F2D8E2D0E94F73B80E090E0C6
:104B700022960FB6F894DEBF0FBECDBFDF91CF9166
:104B80000F91FF90EF90DF90CF90BF90AF909F90EC
:104B90008F907F906F900895CF93DF93D92FC82F78
:104BA000C05ADF4F798368831A921A921A921A9226
:104BB000CC55D0408B89863018F08AE08B8B01C0B1
:104BC0001B8A8C2F9D2F0E9421188C2F9D2F825B7A
:104BD0009F4F0E945A558C2F9D2FCA960E945A555E
:104BE0008C2F9D2F8E599F4F0E945A558C2F9D2F91
:104BF0008C599F4F0E945A5580E090E0DF91CF91F1
:104C000008958091EB059091EC05892B99F420E0B3
:104C100032E040E050E06FEC79E28CEA92E00E94F2
:104C20004B0A9093EC058093EB05892B19F48FEFD9
:104C30009FEF089580E090E00895CF92DF92EF9289
:104C4000FF920F931F93CF93DF93E82EF92EF92F46
:104C5000E82F118210828091EB059091EC05892B51
:104C600029F49F2D8E2D0E943A2345C0C090A406A2
:104C7000D090A506C114D10429F4F092A506E092C3
:104C8000A40630C0FF2DEE2DC185D2858585968581
:104C9000C80FD91F81899289C80FD91F0091ED05CE
:104CA0001091EE050050184F0C0F1D1F0E9451501F
:104CB00008171907E0F48091ED059091EE058C0F2F
:104CC0009D1F9093EE058093ED05FD2DEC2D8081C9
:104CD0009181009719F0C82ED92EF7CFFD2DEC2D1C
:104CE000F182E08286EA96E00E94675504C09F2D1B
:104CF0008E2D0E94F73BDF91CF911F910F91FF9076
:104D0000EF90DF90CF900895F92FE82F892B19F4B9
:104D10008FEF9FEF089580A1886180A340E050E06D
:104D200060E070E08E2F9F2F0E94D82380E090E0FB
:104D30000895EF92FF920F931F93CF93DF93D92F94
:104D4000C82F062F172FB92FA82FA45BBF4FED91A7
:104D5000FC911197309751F080819181009719F063
:104D6000F92FE82FF9CF1183008302C06D937C9354
:104D7000AC2FBD2FAA5BBF4F8D919C911197F12F46
:104D8000E02F21893289820F931F8D939C9380E4B9
:104D9000E82EF12CEC0EFD1E61897289262F372F2B
:104DA00044275527FF2DEE2D80819181A281B3816B
:104DB000820F931FA41FB51F80839183A283B383A7
:104DC000FD2FEC2FEC5BFF4F8081918168177907F5
:104DD00018F01182108204C0861B970B9183808388
:104DE00028A1822F806188A3F12FE02F80819181FB
:104DF000892B19F01182108202C0286128A340E09B
:104E000050E060E070E08C2F9D2F0E94D823DF914E
:104E1000CF911F910F91FF90EF9008951F93CF9323
:104E2000DF93D92FC82F162F8B89853009F460C0E6
:104E3000863088F4823051F1833038F4882309F4C5
:104E40005FC0813009F0A1C01DC0833039F18430CA
:104E500009F09BC011C0883009F47DC0893030F45E
:104E6000863069F1873009F090C047C08930C1F1C0
:104E70008A3009F08AC06FC0653079F1663009F078
:104E80006AC038C0633009F066C005C0633019F0ED
:104E9000643019F108C088A1826139C0643009F416
:104EA00074C0653020F4113009F055C06EC0653013
:104EB00009F1663009F04FC088A1816028C06730D1
:104EC00061F0683020F4663009F045C05EC0862F7E
:104ED0008950823008F03FC058C088A1886117C04F
:104EE0006A3019F02FEF3FEF15C020E030E012C01C
:104EF000683089F588A181610AC06A3061F545C0D2
:104F0000613009F442C0623031F588A1826088A323
:104F100081E007C088A1886188A381E0211531055F
:104F2000B1F51B8B8823D1F040E050E060E070E0E9
:104F30008C2F9D2F0E94D823892B81F0123071F481
:104F4000C05ADF4F80E597E2998388838C2F9D2F8D
:104F500004960E94D1542FEF3FEF19C0153091F401
:104F60008C2F9D2F825B9F4F0E945A558C2F9D2F17
:104F70008E599F4F0E945A558C2F9D2F8C599F4FB1
:104F80000E945A5520E030E002C080E0CACF932F43
:104F9000822FDF91CF911F910895CF93DF93D92F67
:104FA000C82F62E00E940E278B89823051F440E0C6
:104FB00050E060E070E08C2F9D2F8C599F4F0E9435
:104FC000C3558B89843019F08FEF9FEF02C080E0CA
:104FD00090E0DF91CF910895CF93DF93D92FC82F21
:104FE0008B89882339F0C05ADF4F88E497E2998390
:104FF000888311C061E08C2F9D2F0E940E2740E016
:1050000050E060E070E08C2F9D2F8E599F4F0E94E2
:10501000C35580E090E0DF91CF910895CF93DF9367
:10502000D92FC82FF72FE62F80899189A289B389BC
:105030008C8B9D8BAE8BBF8BF52FE42F8081918164
:105040009F8F8E8FF72FE62F84859585A685B78550
:105050008A8F9B8FAC8FBD8FF52FE42F8481958134
:10506000A681B781082E8B2FB02D092E9A2FA02D47
:105070008CAF9DAFAEAFBFAF8DA79EA7AFA7B8ABAC
:10508000C05CDF4F0196A11DB11D88839983AA835F
:10509000BB83C054D04086859785082E892F902DDC
:1050A0009EAB8DABF72FE62F64857585868597853A
:1050B00040E050E00E94E91EF92FE82F892B09F10A
:1050C0000784F089E02D838994898897FD2FEC2F40
:1050D000EE5AFF4F208131812115310519F08217D9
:1050E000930710F491838083CE5ADF4F2881398152
:1050F000C255D04089899A892817390710F43A8B0C
:10510000298BDF91CF9108950F931F93CF93DF9356
:10511000D92FC82FF92FE82FE65AFF4F80819181B0
:105120000196918380830197089718F06CE477E2E9
:1051300013C0E8ADF9AD008111814A8D5B8D6C8D96
:105140007D8D2E2F3F2F86E00E94AF30892B59F0A6
:1051500019AF08AF62E477E28C2F9D2F0E94CC2517
:105160008FEF9FEF08C00E941B54C25ADF4F798314
:10517000688380E090E0DF91CF911F910F910895B7
:10518000CF92DF92EF92FF920F931F93CF93DF9313
:10519000D92FC82FF72FE62F752F642FE084F184C5
:1051A000028513850E2CE12E102D0F2CF02E002DD4
:1051B00089A59AA5ABA5BCA58E159F05A007B1072B
:1051C00020F488A1886188A3DFC08DA19EA1AFA132
:1051D000B8A5E816F9060A071B0781F52481358171
:1051E00046815781022E252F502D032E342F402D1E
:1051F0008DA59EA5AFA5B8A982179307A407B507EB
:1052000070F0281739074A075B0739F589A99AA969
:10521000ABA9BCA9E816F9060A071B07F0F08685BA
:105220009785082E892F902D9EAB8DAB2DA73EA77D
:105230004FA758ABE9AAFAAA0BAB1CAB8DA19EA154
:10524000AFA1B8A5E816F9060A071B0708F49CC029
:10525000E816F9060A071B0701F588AD99AD892BF9
:1052600009F492C0672B09F08FC085859927837058
:105270009070892B09F088C08FA98F5F8FAB833026
:1052800008F482C01FAA8C2F9D2F0E948428892B8E
:1052900009F47AC08FEF9FEF79C01FAAEDA2FEA29A
:1052A0000FA318A786859785082E892F902D9EAB72
:1052B0008DABCC5ADF4F88819981AA81BB81C455BF
:1052C000D0400097A105B10549F08E159F05A007B4
:1052D000B10720F48C2F9D2F0E944A2FCC5ADF4F0C
:1052E000188219821A821B82C455D04035C0F72F0C
:1052F000E62FC384D484FD2DEC2D24813581468195
:105300005781022E252F502D032E342F402DF72F9D
:10531000E62F81899289AA27BB27280F391F4A1FA8
:105320005B1FFD2DEC2D8585992783709070892B4F
:1053300021F02F5F3F4F4F4F5F4FE216F3060407F8
:10534000150788F0F72FE62F8081918199AF88AFFC
:10535000972F862F0E94F73B68AD79AD61157105D7
:1053600009F0C5CF07C00E941B54C25ADF4F798392
:10537000688304C0C25ADF4F19821882CE55D040CC
:10538000C65ADF4F1982188280E090E0DF91CF91FA
:105390001F910F91FF90EF90DF90CF900895CF93E2
:1053A000DF93CDB7DEB725970FB6F894DEBF0FBEFB
:1053B000CDBF80E20E946E51198229812F5F29831F
:1053C000243058F448EC50E060E070E086EA96E063
:1053D0000E94C355892B09F478C0E090D805F0905D
:1053E000D9056EC0FF2DEE2D80A184FF0AC0886014
:1053F00080A340E050E060E070E09F2D8E2D0E9481
:10540000D823FF2DEE2D80AD91AD892B29F11F2DD5
:105410000E2D025A1F4FF12FE02F80819181892B91
:10542000D9F00E941B54F12FE02F20813181621BA3
:10543000730B28E530E0E20EF31EFF2DEE2D2081E8
:10544000318188EA9FEFE80EF91E2617370720F40E
:105450009F2D8E2D0E948428FF2DEE2D83898A306A
:1054600019F08389893089F4FF2DEE2DE45AFF4F1E
:105470008081918101969183808301970997E0F063
:105480009F2D8E2D0E94401C97CFFF2DEE2D8389DE
:10549000833091F4BF2DAE2DA45ABF4F8D919C91B6
:1054A0001197019611969C938E9301978D9720F0FA
:1054B00081E0838B1D921C92FF2DEE2DE080F18008
:1054C000E114F10409F08ECF77CFC090A406D090FC
:1054D000A5061092A5061092A4061092EE05109251
:1054E000ED056AC4FD2DEC2DA385B48587819085DB
:1054F000F92FE82F24853585468557856D917C9158
:105500001197FB2FEA2F828193810E943A179D8386
:105510008C83FD2DEC2D0190F081E02DFB83EA833F
:10552000892B09F443C4FD2DEC2D8585968545977F
:1055300008F441C0638574856C5E7F4F29C041309B
:1055400019F0423001F503C06F5F7F4F21C0F72F84
:10555000E62F82819927382F222783819927282BAC
:10556000392B022E232F302DAC81BD81AE5ABF4F77
:105570008D919C9111972817390710F42D933C9326
:105580006C5F7F4F05C0F72FE62F8181680F711D7B
:10559000F72FE62F4081442371F0FD2DEC2D8385FC
:1055A0009485262F372F281B390B8585968528173C
:1055B00039070CF4C4CFFD2DEC2D83849484F92D90
:1055C000E82DB584EC81FD818389853009F46AC3B7
:1055D000863098F4823009F4C5C1833038F48823CA
:1055E00009F4E4C3813009F0DCC3ABC1833009F4B2
:1055F00015C2843009F0D5C310C0883009F4A0C3A7
:10560000893038F4863009F49FC2873009F0C9C365
:1056100067C3893009F4FAC2C4C3EC81FD8125A8AF
:1056200036A845A056A067A070A48B2D992782FFAD
:105630000BC09D2D8C2D0E94F73B66E477E28C8198
:105640009D810E94CC255BC181FF1CC0F92DE82DF6
:1056500084819581A681B781082E8B2FB02D092ECC
:105660009A2FA02DEC81FD8124AD35AD46AD57AD0F
:1056700082179307A407B50739F09D2D8C2D0E9442
:105680003A233DC184FD05C09D2D8C2D0E94F73B22
:1056900036C1FD2DEC2D41895289792D682D8C81E3
:1056A0009D810E94C028F92DE82D44815581668195
:1056B0007781B72FA62F952F842F082E8B2FB02DF3
:1056C000092E9A2FA02D2C813D81205C3F4FF32F76
:1056D000E22F0081118122813381E054F040FD836B
:1056E000EC83081719072A073B0708F048C0FD2D6F
:1056F000EC2D81899289892B09F4D5C0EC81FD813B
:10570000E05BFF4FE080F180AE2EBF2E2BC0042F58
:10571000152F262F372F002E032F302D012E122F5D
:10572000202DFF2DEE2DA385B485FB2FEA2F84813C
:105730009581A681B781082E8B2FB02D092E9A2F27
:10574000A02D081719072A073B0780F0081719072B
:105750002A073B0709F4A7C0AE2CBF2CFF2DEE2D66
:10576000E080F180E114F10491F62BC3FB2DEA2DCA
:10577000D182C082FD2DEC2DF182E08298C0042EF2
:10578000472F702D052E562F602D401751076207A9
:10579000730709F1EC81FD8180A1886180A3EC8110
:1057A000FD81E259FF4F80819181A281B3810196F1
:1057B000A11DB11D80839183A283B3839D2D8C2D68
:1057C0000E94F73B40E050E060E070E08C819D81FA
:1057D0000E94D8237EC0FD2DEC2D81899289892BD2
:1057E00009F473C07D2D6C2D8C819D810E949926BA
:1057F00047C0F92DE82DC384D484FD2DEC2D2481E0
:10580000358146815781B52FA42F932F822F082EE3
:105810008B2FB02D092E9A2FA02DEC81FD81E05CFD
:10582000FF4FE080F18002811381E054F040FD835E
:10583000EC83E816F9060A071B0770F1F92DE82D2D
:1058400080819181F72FE62F91838083022E252F6F
:10585000502D032E342F402D2E153F0540075107A4
:1058600059F4792D682D8C819D810E949926FD2DFA
:10587000EC2D8585B82A04C0992D882D0E94F73B10
:105880006C817D81605B7F4FF72FE62F8080918058
:105890008114910409F0ADCF8C819D81825B9F4F73
:1058A0000E94675516C09D2D8C2D0E94F73BEC8100
:1058B000FD8180A1886180A340E050E060E070E05D
:1058C0008C819D810E94D8231AC09D2D8C2D0E9411
:1058D000F73BB0FE14C0EC81FD81E05CFF4F80819E
:1058E0009181A281B3810196A11DB11D8083918315
:1058F000A283B38365E08C819D810E940E27EC8199
:10590000FD8183898430B9F485A996A9AA27BB278C
:10591000222D332D44275527281739074A075B07BF
:1059200050F085A196A1A7A1B0A5481659066A0610
:105930007B0608F03FC28C819D81CA960E945A5511
:1059400039C2F6E1BF2222E0B21609F02FC2FD2DC6
:10595000EC2D67817085592D482D8C819D810E9489
:105960000E2858C0AB2CBB2490E1692E712C6A2004
:105970007B20A4FE1FC0F92DE82D608571858285EE
:105980009385062E692F902D072E782F802DEC8180
:10599000FD81E1A4F2A403A514A521A132A143A194
:1059A00054A12F5F3F4F4F4F5F4F0E941C2F892BF9
:1059B00009F4FCC1A2FE0AC0672809F4F2C16DE433
:1059C00077E28C819D810E94CC25EBC1A1FEE9C1CB
:1059D000FD2DEC2D67817085592D482D8C819D8181
:1059E0000E940E286728B1F0FD2DEC2D41895289C7
:1059F000792D682D8C819D810E94C02864E08C8166
:105A00009D810E940E278C819D818C599F4F0E9401
:105A10006755C7C163E08C819D818FC1AB2CBB24CE
:105A2000A2FE2FC02C813D812E593F4FF32FE22F34
:105A300080819181E256F040FD83EC83892B31F027
:105A400061E08E2F9F2F0E940E2706C06DE477E243
:105A50008C819D810E94CC259D2D8C2D0E94F73B31
:105A60002C813D81225A3F4FF32FE22F1182108269
:105A7000EE55F040FD83EC838E2F9F2F0E9421185E
:105A800099C1A1FC93C1A4FE8CC1F92DE82D6085BC
:105A9000718582859385062E692F902D072E782F8C
:105AA000802DEC81FD81E1A4F2A403A514A525A11C
:105AB00036A147A150A52F5F3F4F4F4F5F4F0E9428
:105AC0001C2F892B09F472C1FD2DEC2D41895289BF
:105AD000792D682D8C819D810E94C028FD2DEC2D93
