:100000000C9430000C947D000C947D000C947D00C9
:100010000C947D000C947D000C947D000C947D006C
:100020000C947D000C947D000C947D000C947D005C
:100030000C947D000C947D000C947D000C948B0935
:100040000C947D000C947D000C947D000C947D003C
:100050000C947D000C947D000C947D000C947D002C
:1000600080EC85BF87E089B911241FBECFEFDFE0A8
:10007000DEBFCDBF10E0A0E6B0E0E0E8F6E10FEFB4
:1000800003950BBF04C0D8950D923196C8F3AA37DB
:10009000B107C9F710E0AAE7B0E001C01D92A83E81
:1000A000B107E1F78FEF9FE79EBF8DBF8FEF9FE70F
:1000B000885E90408158914040F06FEF7EE7685E27
:1000C000704088EE90E00E9489010E94A207892B6F
:1000D00041F060E670E088ED90E00E94E10A0E9445
:1000E000890720E831E040E050E060E870E089E610
:1000F00090E00E9405080C9400000C940000FFCFD3
:100100000E94C10420E033E040E050E06FE770E07F
:100110008EE690E00E9405088EEF0E94AF020E94DA
:1001200035030E947802FBCF0F931F93CF93DF9389
:1001300000917B0010917C008017910740F080E0D7
:1001400090E06AC0CE2FDF2FB72FA62F34C0482FE4
:10015000592F4A5F5F4F4430510510F444E050E09E
:10016000E091C500F091C60065EC70E0C0E0D0E021
:10017000A0E0B0E01AC0208131812417350770F06B
:1001800024173507F9F2209729F0888199812817DB
:10019000390720F4CE2FDF2FB72FA62F6E2F7F2FFA
:1001A0006E5F7F4F0280F381E02D309721F78C2F17
:1001B0009D2F209789F128813981952F842F0A96C8
:1001C0006A817B818217930778F4FD2FEC2FE40F6F
:1001D000F51F241B350B318320837383628359837E
:1001E0004883ED93FC9302C06D937C93E881F98181
:1001F0000E1B1F0B10937C0000937B00EC0FFD1F68
:1002000034978FEE9EEBADEABEED80839183A2839F
:10021000B3838C2F9D2F0296DF91CF911F910F9169
:100220000895CF93DF93B92FA82F12976D917C91EA
:100230001197E091C500F091C600C5ECD0E041C037
:10024000408151818E2F9F2F840F951F8A179B0706
:10025000D9F4242F352F260F371F31832083828135
:100260009381AE2FBF2FA20FB31FA817B907C1F5F7
:100270008D919C911197280F391F31832083DB2F9B
:10028000CA2F8A819B812AC0AE17BF0788F4B98321
:10029000A8832D913C9111978A2F9B2F820F931F3A
:1002A0008E179F0791F0DB2FCA2FFB83EA8318C0BC
:1002B000A817B90748F1CE2FDF2F22960280F381CD
:1002C000E02D309709F0BCCF18C0240F351F1196D0
:1002D0003C932E9382819381FB2FEA2F9383828319
:1002E00080917B0090917C00860F971F90937C00FB
:1002F00080937B0080E090E009C0FB2FEA2F1382FF
:100300001282B983A883ECCF8FEF9FEFDF91CF915B
:100310000895F92FE82F619371938E2F9F2F0E94DC
:100320001101089580917B0090917C0008950F93B6
:100330001F93CF93DF93082F192F0E949400D92F7A
:10034000C82F009731F0512F402F60E070E00E94DD
:10035000CA0A8C2F9D2FDF91CF911F910F91089585
:10036000CF93DF93B92FA82F262F372FD92FC82F40
:10037000788F6F8B1D821C820FB6F8940F92D72F47
:10038000C62FE881F9818FEFEF3FF80751F4DB2F9B
:10039000CA2F8C819D8101969D838C83E0E0F0E0E3
:1003A00017C03097A9F00F900FBEDB2FCA2F9A8984
:1003B00009C02E2F3F2F2E5F3F4F0280F381E02D8B
:1003C000309719F082899817A0F70FB6F8940F921A
:1003D000DB2FCA2FFB83EA83F32FE22FB183A083A5
:1003E000EA81FB81309771F084819581892B51F0EE
:1003F0008C819D8124813581820F931F9D838C8305
:10040000158214820F900FBEDF91CF910895CF9384
:10041000DF93282F392FB72FA62F0FB6F8940F92FE
:10042000ED91FC9111970F900FBE8FEFEF3FF80702
:1004300051F52BC082819381E217F307F9F40FB6CF
:10044000F8940F9211969C938E9384819581892BB9
:1004500061F0A281B381109731F084819581DB2F07
:10046000CA2F9D838C83158214820F900FBEF32FA9
:10047000E22F13821282108E178A07C0AE2FBF2F71
:100480001296F92FE82F3097A9F6DF91CF910895B2
:10049000F72FE62F168A158A82E0878769EC70E0CD
:1004A0008E2F9F2F0E94B00108950F931F93CF931B
:1004B000DF93082F192FC091C700D091C8000FC03B
:1004C000712F602F8C2F9D2F06960E94D50A892BA5
:1004D00019F48C2F9D2F07C00990D881C02D20972B
:1004E00079F780E090E0DF91CF911F910F9108950F
:1004F000E091CD00F091CE00309741F0838994894E
:100500000E9411011092CE001092CD000895CF9359
:10051000DF93C091C700D091C8000E94780220915B
:10052000CB003091CC00E7ECF0E00CC088819981E1
:10053000C217D30719F49183808306C0FD2FEC2FD7
:10054000D92FC82F209791F78091CB009091CC00A4
:100550009093CE008093CD00DF91CF9108950F93BB
:100560001F93182FE091CB00F091CC00028969EC29
:1005700070E08E2F9F2F0E940702E091CB00F09138
:10058000CC00128B1F3F49F069EC70E08091CB00EA
:100590009091CC000E94B00102C00E948702E091BD
:1005A000CB00F091CC008091C9009091CA00E8176F
:1005B000F90719F481E0878709C082E087870FB6C1
:1005C000F8940F920E94C6070F900FBE802F9927B4
:1005D0001F910F9108958FEF0E94AF020895CF935E
:1005E000DF93C091C700D091C80021C00FB6F89426
:1005F0000F928C819D810F900FBE892BA9F0EF89FE
:10060000F88D0FB6F8940F928C819D8101979D8390
:100610008C830F900FBE808191818F5F9F4F21F05F
:100620008E2F9F2F0E9412060990D881C02D2097EF
:10063000E9F60E94C904E091CB00F091CC008091D2
:10064000C9009091CA00E817F90761F087858130E9
:1006500011F482E087870FB6F8940F920E94C607C4
:100660000F900FBEDF91CF910895E091CB00F091F4
:10067000CC0082819381892B71F069EC70E08E2F20
:100680009F2F0E94070269EC70E08091CB0090914F
:10069000CC000E94B0010E94EF0208958091D10029
:1006A0009091D200A091D300B091D4000196A11DE9
:1006B000B11D8093D1009093D200A093D300B0934A
:1006C000D4000895CF93DF93D92FC82F1B821A82AD
:1006D000E091CF00F091D0001AC0288539854A8575
:1006E0005B8580859185A285B385281739074A07E0
:1006F0005B0780F0281B390B4A0B5B0B2887398777
:100700004A875B87FB83EA830190F081E02D309775
:1007100021F718C0821B930BA40BB50B8087918720
:10072000A287B387F983E883D383C283EA81FB81FD
:10073000309719F0D183C08308C0D093D000C09304
:10074000CF0003C019821882F1CFDF91CF910895B5
:100750000FB6F8940F926091D1007091D200809101
:10076000D3009091D4000F900FBE0895CF93DF93E4
:10077000D92FC82FEA81FB8188819981309719F0A0
:100780009183808304C09093D0008093CF00E88150
:10079000F9813097A1F08A819B8193838283808540
:1007A0009185A285B385288539854A855B85820F29
:1007B000931FA41FB51F80879187A287B3878C2FB3
:1007C0009D2F0E941101DF91CF910895AF92BF92AA
:1007D000CF92DF92EF92FF920F93CF93DF93C62ECB
:1007E000D72EE82EF92ED52FC42FA22EB32E80E1BE
:1007F00090E00E949400F92FE82F892B81F10FB629
:10080000F8940F928091D1009091D200A091D300E2
:10081000B091D4000F900FBE8C0D9D1DAE1DBF1D5D
:1008200020917D0030917E0040917F0050918000AA
:10083000821B930BA40BB50B80879187A287B3878C
:1008400000FF05C0148215821682178204C0C4827C
:10085000D582E682F782D587C487B786A6868E2F93
:100860009F2FDF91CF910F91FF90EF90DF90CF906E
:10087000BF90AF9008950F93CF93DF930E94E6034C
:10088000D92FC82F009711F00E9462038C2F9D2F43
:10089000DF91CF910F910895CF92DF92EF92FF9267
:1008A0000F93C42ED52EE22EF32E0E9421093F2D48
:1008B0002E2D5D2D4C2D0E943B040F91FF90EF904B
:1008C000DF90CF900895AF92BF92CF92DF92EF92D8
:1008D000FF920F93CF93DF93A62EB72EC82ED92E5B
:1008E000611571058105910509F43FC0C9ECD0E09F
:1008F0006C2F7D2F8091CB009091CC000E9407023D
:10090000E091CB00F091CC0083E08787E090CB00B2
:10091000F090CC0001E03F2D2E2D48E452E09D2DBB
:100920008C2D7B2D6A2D0E944C04FF2DEE2D968B75
:10093000858B892B19F00E94EF0219C0E091CB0042
:10094000F091CC00D08FC78B8091C9009091CA00E4
:100950009383828381E087878091CB009091CC0044
:100960009093CA008093C90002C00E943503DF91B2
:10097000CF910F91FF90EF90DF90CF90BF90AF900D
:1009800008958EE493E00E94D00887B7826087BF05
:100990000895EF92FF920F931F93CF93DF930FB6BB
:1009A000F8940F922091D1003091D2004091D30061
:1009B0005091D4000F900FBE80917D0090917E00E9
:1009C000A0917F00B0918000E22EF32E042F152F0E
:1009D000E81AF90A0A0B1B0B20937D0030937E0066
:1009E00040937F005093800054C088859985AA85E4
:1009F000BB85E816F9060A071B07B0F48E199F0994
:100A0000A00BB10B88879987AA87BB870097A105A0
:100A1000B10529F0EE24FF24002711273AC0EE2467
:100A2000FF240027112708C0E81AF90A0A0B1B0B3C
:100A3000188619861A861B86EC85FD85309729F065
:100A40006E857F858C2F9D2F09958C819D81AE8130
:100A5000BF8188879987AA87BB870097A105B105C1
:100A600029F48C2F9D2F0E94B60313C0E091CF0074
:100A7000F091D0000190F081E02DF093D000E09350
:100A8000CF00309711F0138212828C2F9D2F0E947D
:100A90006203C091CF00D091D000209731F0E114D3
:100AA000F1040105110509F0A0CFDF91CF911F914D
:100AB0000F91FF90EF9008952F923F924F925F9287
:100AC0006F927F928F929F92AF92BF92CF92DF925E
:100AD000EF92FF920F931F93CF93DF93CDB7DEB7C3
:100AE00024970FB6F894DEBF0FBECDBF0FB6F894B3
:100AF0000F92A090D100B090D200C090D300D090BF
:100B0000D4000F900FBE0E94CB08262F372F482FFE
:100B1000592F9D2D8C2D7B2D6A2D0E94050B622E49
:100B2000732E842E952E0E94CB08262E372E482E0B
:100B3000592E0E94CB0869837A838B839C8328EE8D
:100B400033E040E050E0992D882D772D662D0E94EE
:100B5000EA0AE62EF72E082F192F552D442D332D96
:100B6000222D992D882D772D662D0E94EA0AA61A2E
:100B7000B70AC80AD90A28EE33E040E050E09D2DBC
:100B80008C2D7B2D6A2D0E94EA0A29813A814B81A6
:100B90005C810E94050BE20EF31E041F151F912FAE
:100BA000802F7F2D6E2D24960FB6F894DEBF0FBEDA
:100BB000CDBFDF91CF911F910F91FF90EF90DF900C
:100BC000CF90BF90AF909F908F907F906F905F90ED
:100BD0004F903F902F900895EF92FF920F931F93A5
:100BE0000FB6F8940F92E090D100F090D2000091EF
:100BF000D3001091D4000F900FBE0E94CB08262F77
:100C0000372F482F592F912F802F7F2D6E2D0E9427
:100C1000050B952F842F732F622F1F910F91FF903B
:100C2000EF900895CF93DF93B92FA82F0FB6F894C4
:100C30000F92CD91DC9111970F900FBE8FEFCF3FA8
:100C4000D80709F43BC0209779F10FB6F8940F92BA
:100C5000EA81FB811196FC93EE938C819D81892B17
:100C600071F0309729F08C819D819583848305C034
:100C70008FEF9FEF11969C938E931D821C820F9095
:100C80000FBE8D899E89009721F00E94B6031E8AAF
:100C90001D8A82E08F8769EC70E08C2F9D2F0E9467
:100CA000B00181E090E00CC00FB6F8940F928FEF86
:100CB0009FEF11969C938E930F900FBE80E090E073
:100CC000DF91CF9108950F931F93CF93DF93D92F87
:100CD000C82F0FB6F8940F92888199810F900FBE9C
:100CE0002FEF8F3F920741F40FB6F8940F921982BD
:100CF00018820F900FBE02C0892B19F400E010E09B
:100D000013C000E010E08C2F9D2F0E941206080FE8
:100D1000191F0FB6F8940F92888199810F900FBE1A
:100D200001978E5F9F4F78F3912F802FDF91CF91A6
:100D30001F910F9108950F931F930E946306082F30
:100D4000192F0E943503912F802F1F910F91089525
:100D50000F931F930E941206082F192F0E9435032C
:100D6000912F802F1F910F910895CF93DF93482FDC
:100D7000592FB72FA62F0FB6F8940F92CD91DC9173
:100D800011970F900FBE8FEFCF3FD80709F036C0F5
:100D900038C08D899E892A813B818417950749F542
:100DA0000FB6F8940F9211963C932E938C819D81EF
:100DB000892B81F0EA81FB81309729F08C819D811C
:100DC0009583848305C08FEF9FEF11969C938E933C
:100DD0001D821C820F900FBE82E08F8769EC70E04D
:100DE0008C2F9D2F0E94B0018FEF9FEF9E8B8D8BDC
:100DF00008C0AC2FBD2F1296D32FC22F209709F019
:100E0000C8CFDF91CF910895AF92BF92CF92DF927A
:100E1000EF92FF920F93CF93DF93D92FC82FA42E79
:100E2000B52EC62ED72E0FB6F8940F9288819981D1
:100E30000F900FBE8F5F9F4F51F40FB6F8940F9233
:100E4000198218820F900FBE0E9435033EC069ECD4
:100E500070E08091CB009091CC000E9407026C2F33
:100E60007D2F8091CB009091CC000E94B001E09149
:100E7000CB00F091CC0083E08787E090CB00F0902E
:100E8000CC00A114B104C104D10481F001E02C2FE5
:100E90003D2F45EB56E09D2D8C2D7B2D6A2D0E941C
:100EA0004C04FF2DEE2D968B858B04C0FF2DEE2D6F
:100EB000168A158A0E94EF02E091CB00F091CC00D7
:100EC000858996898F5F9F4F19F080E090E004C07C
:100ED000168A158A8FEF9FEFDF91CF910F91FF90C8
:100EE000EF90DF90CF90BF90AF900895F92FE82F4B
:100EF0000FB6F8940F92808191818F5F9F4F11F40C
:100F0000118210820F900FBE8E2F9F2F0E94040718
:100F1000089583E18093D5008FE48093D60083E524
:100F20008093D70043E150E065ED70E080E090E011
:100F30000E948C0A892B19F08FEF9FEF089580E0B3
:100F400090E0089543E150E065ED70E080E090E0CE
:100F50000E948F0A892B79F48091D500833159F44E
:100F60008091D6008F3439F48091D700833519F4FD
:100F700080E090E008958FEF9FEF08959F918F910B
:100F80000F900BBE0F900FBE1F9018952F923F929F
:100F90004F925F926F927F928F929F92AF92BF9289
:100FA000CF92DF92EF92FF920F931F93CF93DF9335
:100FB0008DB79EB7E091CB00F091CC00918B808BE8
:100FC000E091C900F091CA00F093CC00E093CB000F
:100FD00081E08787E091CB00F091CC0080899189F6
:100FE0008DBF9EBFDF91CF911F910F91FF90EF902A
:100FF000DF90CF90BF90AF909F908F907F906F9039
:101000005F904F903F902F900895CF92DF92EF9294
:10101000FF920F931F93CF93DF93082F192FE62E84
:10102000F72EC42ED52ED32FC22F932F822F499661
:101030000E949400F92FE82F009719F480E090E0C7
:1010400080C0C80FD91F2C2F3D2F275030404C2F68
:101050005D2F4B5150408C2F9D2F069668E0B12F8D
:10106000A02F0D900A2F1B2FB92FA82F0D928A2F7A
:101070009B2F6150A1F71E8641505040598B488BE1
:101080004F5F5F4FFC8BEB8B8FEE9EEBADEABEEDBF
:1010900080839183A283B38384839583A683B7835C
:1010A00080879187A287B38784879587A687B7872C
:1010B00080E48A8B8F2D9927F32FE22F8583E68298
:1010C00080E8838312821482C1828D2D99278083C8
:1010D0002EEB37E0832F9927F52FE42F828B238B7C
:1010E0008091C7009091C80099838883D093C800ED
:1010F000C093C70012E01F871E8A1D8A188E1F8AA0
:1011000069EC70E08C2F9D2F0E94B001E091CB0024
:10111000F091CC00309721F40FB6F8940F9250CF95
:101120008091C9009091CA00E817F90741F017872C
:101130000FB6F8940F920E94C6070F900FBE8C2F27
:101140009D2FDF91CF911F910F91FF90EF90DF9036
:10115000CF9008951F93182F6091810070918200A5
:10116000809183009091840020EA3FE040E050E0CD
:101170000E94050B822F932F0197F1F71A95D1F753
:101180001F91089560918100709182008091830089
:1011900090918400089560E074E080E090E008950C
:1011A000682F792F87B78D7F87BF80B7886080BF12
:1011B00012BE82E083BF80B7992787709070892B19
:1011C000D1F781E086BF0FB6F8940F9281E090E0EE
:1011D000A0E0B0E0B6B7B170E9F3B6BF0894811DE6
:1011E000911DA11DB6B7B170C9F3BB270F900FBEFB
:1011F00027E0880F991FAA1FBB1F2A95D1F780935C
:10120000810090938200A0938300B093840087B7FD
:101210008D7F87BF80B7886080BF12BE89E083BFA3
:101220008FE181BF80B7992787709070892BD1F7A4
:1012300082E086BF40E050E083E790E00E94C10971
:1012400008953AE0660F771F881F991F3A95D1F7E6
:1012500028EE33E040E050E00E94050B21153105F7
:101260004105510521F421E030E040E050E0952FA8
:10127000842F732F622F0895282F392FF72FE62FF1
:1012800087B7482F55274270507087B78D7F87BF2B
:1012900020313105D9F0213131053CF421153105DA
:1012A00081F02130310551F40EC02231310571F148
:1012B00022313105E4F020323105E1F02FEF3FEF2C
:1012C0001FC040E050E082E086BF18C006B601FEB5
:1012D00005C081E090E09183808302C0118210827A
:1012E000452BA1F08081918180689183808320E0EB
:1012F00030E008C08EE090E09183808320E030E011
:10130000452B31F087B7826087BF02C020E030E014
:10131000932F822F08951F920F920FB60F921124D0
:101320002F933F934F935F936F937F938F939F93ED
:10133000AF93BF93EF93FF9383E790E00E94B109CF
:10134000FF91EF91BF91AF919F918F917F916F919D
:101350005F914F913F912F910F900FBE0F901F9073
:101360001895CF93DF93B92FA82FD92FC82FEA81D3
:10137000FB81309719F08D919C910995DF91CF9168
:101380000895EF92FF920F931F93CF93DF93D92F7E
:10139000C82FE62EF72E042F152FEC81FD813097F4
:1013A00019F480E090E005C060E070E080E090E03B
:1013B000099519830883FB82EA82DF91CF911F91FF
:1013C0000F91FF90EF900895CF93DF93D92FC82FFF
:1013D000EC81FD81309719F48FEF9FEF05C060E03D
:1013E00070E081E190E00995DF91CF910895CF936E
:1013F000DF93D92FC82FEC81FD81309719F48FEF3F
:101400009FEF05C060E070E082E190E00995DF9118
:10141000CF9108950F931F93CF93DF93CDB7DEB78E
:1014200024970FB6F894DEBF0FBECDBF082F192F3B
:101430007C836B83F92FE82F2481358121153105B9
:1014400019F48FEF9FEF1CC06C2F7D2F6F5F7F4FC4
:1014500080E290E0E22FF32F0995009789F4F12FB5
:10146000E02F248135816C2F7D2F6D5F7F4F81E2CE
:1014700090E0E22FF32F0995009711F489819A816A
:1014800024960FB6F894DEBF0FBECDBFDF91CF918B
:101490001F910F9108950F931F93CF93DF93CDB7B3
:1014A000DEB724970FB6F894DEBF0FBECDBF082F6E
:1014B000192F7C836B83F92FE82F24813581211527
:1014C000310519F48FEF9FEF1CC06C2F7D2F6F5FDC
:1014D0007F4F88E190E0E22FF32F0995009789F480
:1014E000F12FE02F248135816C2F7D2F6D5F7F4F91
:1014F00089E190E0E22FF32F0995009711F489819B
:101500009A8124960FB6F894DEBF0FBECDBFDF914F
:10151000CF911F910F9108950E94920A08950E9401
:10152000B70A0895CF93DF93D52FC42F282F392FD3
:1015300040E050E0F72FE62F12C0B32FA22F0E94F9
:101540002C0B802D9081981729F0B32FA22F092EF4
:101550000E94340B4F5F5F4F31962F5F3F4F4C1708
:101560005D0759F780E090E0DF91CF910895CF9328
:10157000DF93D52FC42FB92FA82FF72FE62F219750
:1015800024F00E942C0B0192FACF80E090E0DF91D2
:10159000CF910895A82FB92F40FF03C001C06D93CC
:1015A0006D9342505040D8F70895E62FF72FA82F9B
:1015B000B92F8D910190801911F40020D1F7990B6A
:1015C0000895E62FF72FA82FB92F01900D92002034
:1015D000E1F70895FF27EE27BB27AA2760FF04C085
:1015E000A20FB31FE41FF51F220F331F441F551F07
:1015F000969587957795679589F70097760771F7A0
:101600009F2F8E2F7B2F6A2F0895A1E21A2EAA1BDF
:10161000BB1BEA2FFB2F0DC0AA1FBB1FEE1FFF1F16
:10162000A217B307E407F50720F0A21BB30BE40BE6
:10163000F50B661F771F881F991F1A9469F760952D
:10164000709580959095262F372F482F592F6A2F08
:101650007B2F8E2F9F2F0895E199FECFBFBBAEBB8E
:10166000E09A11960DB20895E199FECFBFBBAEBBD3
:101670000DBA11960FB6F894E29AE19A0FBE08954A
:1016800065746865726E75740069646C65006D617F
:0A169000696E00000000003C090034
:00000001FF
