:100000000C9457000C94A4000C94A4000C94A4002D
:100010000C94A4000C94A4000C94A4000C94A400D0
:100020000C94A4000C94A4000C94A4000C94A400C0
:100030000C94A4000C94A4000C94A4000C94700ADA
:100040000C94A4000C94A4000C94890D0C94EF0D56
:100050000C94A4000C94A4000C94A4000C94A40090
:10006000A10FA40FB10FBA0FBD0FC00FC30FC60F62
:10007000CF0FFD0F27102C10311036103B104510FC
:100080004C1054105F106D109E0F9E0F9E0F9E0F10
:100090007D108010831099109C10AA109E0FAD1037
:1000A000B310B610BC10BF10C510C810D01080EC33
:1000B00085BF87E089B911241FBECFEFDFE0DEBF27
:1000C000CDBF11E0A0E6B0E0E0EFFCE20FEF03955A
:1000D0000BBF04C0D8950D923196C8F3AC32B1076E
:1000E000C9F711E0ACE2B1E001C01D92A13AB1073D
:1000F000E1F78FEF9FE79EBF8DBF8FEF9FE7815A9C
:1001000091408158914040F06FEF7EE7615A714015
:1001100081EA91E00E941F020E948708892B41F02A
:100120006BE770E08FE891E00E9419160E946E085C
:1001300020E831E040E050E066E171E084E890E0E2
:100140000E94EA080C9400000C940000CF93DF9307
:10015000CDB7DEB724970FB6F894DEBF0FBECDBF84
:1001600080E092ECA1E0B0E089839A83AB83BC830A
:1001700040E060E070E084E990E00E943F08409138
:100180001E0150911F0160E670E082E690E00E943F
:10019000701480911E0190911F010E9403144C2F36
:1001A0005D2F4F5F5F4F61E071E00E94EE1388E6C4
:1001B00090E00E94ED1420E032E040E050E068E082
:1001C00071E085E790E00E94EA0820E032E040E03C
:1001D00050E06AEF70E088E790E00E94EA088DE462
:1001E00090E00E94E6146DE770E080E090E00E94ED
:1001F000F904F5CF80E80E9445038CE490E00E946A
:10020000E6146DE770E080E090E00E94F904F5CF1D
:1002100080E10E94450388E490E00E94E6146DE7C7
:1002200070E080E090E00E94F904F5CF0E9457054D
:1002300020E033E040E050E066EA70E089E890E0DA
:100240000E94EA088EEF0E9445030E94CB030E94A1
:100250000E03FBCF0F931F93CF93DF9300912D01DC
:1002600010912E018017910740F080E090E06AC065
:10027000CE2FDF2FB72FA62F34C0482F592F4A5F1C
:100280005F4F4430510510F444E050E0E0917C01B0
:10029000F0917D016CE771E0C0E0D0E0A0E0B0E05B
:1002A0001AC0208131812417350770F024173507D3
:1002B000F9F2209729F0888199812817390720F4CD
:1002C000CE2FDF2FB72FA62F6E2F7F2F6E5F7F4F82
:1002D0000280F381E02D309721F78C2F9D2F2097FE
:1002E00089F128813981952F842F0A966A817B8133
:1002F0008217930778F4FD2FEC2FE40FF51F241BD2
:10030000350B318320837383628359834883ED9354
:10031000FC9302C06D937C93E881F9810E1B1F0B47
:1003200010932E0100932D01EC0FFD1F34978FEEDB
:100330009EEBADEABEED80839183A283B3838C2FC5
:100340009D2F0296DF91CF911F910F910895CF932A
:10035000DF93B92FA82F12976D917C911197E0919F
:100360007C01F0917D01CCE7D1E041C04081518119
:100370008E2F9F2F840F951F8A179B07D9F4242F48
:10038000352F260F371F3183208382819381AE2F33
:10039000BF2FA20FB31FA817B907C1F58D919C916C
:1003A0001197280F391F31832083DB2FCA2F8A81B1
:1003B0009B812AC0AE17BF0788F4B983A8832D910B
:1003C0003C9111978A2F9B2F820F931F8E179F07A7
:1003D00091F0DB2FCA2FFB83EA8318C0A817B90757
:1003E00048F1CE2FDF2F22960280F381E02D309747
:1003F00009F0BCCF18C0240F351F11963C932E93E3
:1004000082819381FB2FEA2F9383828380912D0138
:1004100090912E01860F971F90932E0180932D01AE
:1004200080E090E009C0FB2FEA2F13821282B9838B
:10043000A883ECCF8FEF9FEFDF91CF910895F92F35
:10044000E82F619371938E2F9F2F0E94A70108952B
:1004500080912D0190912E0108950F931F93CF93BA
:10046000DF93082F192F0E942A01D92FC82F009738
:1004700031F0512F402F60E070E00E9402168C2F67
:100480009D2FDF91CF911F910F910895CF93DF930F
:10049000B92FA82F262F372FD92FC82F788F6F8BE2
:1004A0001D821C820FB6F8940F92D72FC62FE881B9
:1004B000F9818FEFEF3FF80751F4DB2FCA2F8C81C2
:1004C0009D8101969D838C83E0E0F0E017C030971A
:1004D000A9F00F900FBEDB2FCA2F9A8909C02E2FCB
:1004E0003F2F2E5F3F4F0280F381E02D309719F0B0
:1004F00082899817A0F70FB6F8940F92DB2FCA2FB6
:10050000FB83EA83F32FE22FB183A083EA81FB818F
:10051000309771F084819581892B51F08C819D8178
:1005200024813581820F931F9D838C8315821482D1
:100530000F900FBEDF91CF910895CF93DF93282FB7
:10054000392FB72FA62F0FB6F8940F92ED91FC918B
:1005500011970F900FBE8FEFEF3FF80751F52BC0AB
:1005600082819381E217F307F9F40FB6F8940F92A2
:1005700011969C938E9384819581892B61F0A28141
:10058000B381109731F084819581DB2FCA2F9D8331
:100590008C83158214820F900FBEF32FE22F1382EB
:1005A0001282108E178A07C0AE2FBF2F1296F92F16
:1005B000E82F3097A9F6DF91CF910895F72FE62F16
:1005C000168A158A82E0878760E871E08E2F9F2F58
:1005D0000E94460208950F931F93CF93DF93082F35
:1005E000192FC0917E01D0917F010FC0712F602F14
:1005F0008C2F9D2F06960E940D16892B19F48C2F97
:100600009D2F07C00990D881C02D209779F780E0F1
:1006100090E0DF91CF911F910F910895E0918401B7
:10062000F0918501309741F0838994890E94A70158
:1006300010928501109284010895CF93DF93C091A9
:100640007E01D0917F010E940E03209182013091A2
:100650008301EEE7F1E00CC088819981C217D307CE
:1006600019F49183808306C0FD2FEC2FD92FC82F5A
:10067000209791F780918201909183019093850159
:1006800080938401DF91CF9108950F931F93182FCA
:10069000E0918201F0918301028960E871E08E2F80
:1006A0009F2F0E949D02E0918201F0918301128BA5
:1006B0001F3F49F060E871E08091820190918301D1
:1006C0000E94460202C00E941D03E0918201F09147
:1006D00083018091800190918101E817F90719F455
:1006E00081E0878709C082E087870FB6F8940F9270
:1006F0000E94AB080F900FBE802F99271F910F917A
:1007000008958FEF0E9445030895CF93DF93C09122
:100710007E01D0917F0121C00FB6F8940F928C8199
:100720009D810F900FBE892BA9F0EF89F88D0FB630
:10073000F8940F928C819D8101979D838C830F90FB
:100740000FBE808191818F5F9F4F21F08E2F9F2F51
:100750000E94A8060990D881C02D2097E9F60E9432
:100760005F05E0918201F091830180918001909179
:100770008101E817F90761F08785813011F482E083
:1007800087870FB6F8940F920E94AB080F900FBEA8
:10079000DF91CF910895E0918201F09183018281F0
:1007A0009381892B71F060E871E08E2F9F2F0E945A
:1007B0009D0260E871E080918201909183010E9426
:1007C00046020E94850308958091880190918901D5
:1007D000A0918A01B0918B010196A11DB11D80935A
:1007E000880190938901A0938A01B0938B010895A9
:1007F000CF93DF93D92FC82F1B821A82E0918601F5
:10080000F09187011AC0288539854A855B858085E6
:100810009185A285B385281739074A075B0780F0C1
:10082000281B390B4A0B5B0B288739874A875B8764
:10083000FB83EA830190F081E02D309721F718C007
:10084000821B930BA40BB50B80879187A287B3877C
:10085000F983E883D383C283EA81FB81309719F05F
:10086000D183C08308C0D0938701C093860103C0A1
:1008700019821882F1CFDF91CF9108950FB6F894C5
:100880000F92609188017091890180918A01909105
:100890008B010F900FBE0895CF93DF93D92FC82FF0
:1008A000EA81FB8188819981309719F09183808357
:1008B00004C09093870180938601E881F981309785
:1008C000A1F08A819B819383828380859185A28513
:1008D000B385288539854A855B85820F931FA41FC0
:1008E000B51F80879187A287B3878C2F9D2F0E9489
:1008F000A701DF91CF910895AF92BF92CF92DF927F
:10090000EF92FF920F93CF93DF93C62ED72EE82E50
:10091000F92ED52FC42FA22EB32E80E190E00E9495
:100920002A01F92FE82F892B81F10FB6F8940F9245
:100930008091880190918901A0918A01B0918B01E9
:100940000F900FBE8C0D9D1DAE1DBF1D20912F0160
:10095000309130014091310150913201821B930B53
:10096000A40BB50B80879187A287B38700FF05C0D2
:10097000148215821682178204C0C482D582E68250
:10098000F782D587C487B786A6868E2F9F2FDF91E3
:10099000CF910F91FF90EF90DF90CF90BF90AF90ED
:1009A00008950F93CF93DF930E947C04D92FC82F13
:1009B000009711F00E94F8038C2F9D2FDF91CF91AB
:1009C0000F910895CF92DF92EF92FF920F93C42E72
:1009D000D52EE22EF32E0E94060A3F2D2E2D5D2DE0
:1009E0004C2D0E94D1040F91FF90EF90DF90CF909B
:1009F0000895AF92BF92CF92DF92EF92FF920F9342
:100A0000CF93DF93A62EB72EC82ED92E6115710570
:100A10008105910509F43FC0C0E8D1E06C2F7D2F1E
:100A200080918201909183010E949D02E091820158
:100A3000F091830183E08787E0908201F090830149
:100A400001E03F2D2E2D4EED52E09D2D8C2D7B2D66
:100A50006A2D0E94E204FF2DEE2D968B858B892B4B
:100A600019F00E94850319C0E0918201F091830181
:100A7000D08FC78B80918001909181019383828375
:100A800081E0878780918201909183019093810119
:100A90008093800102C00E94CB03DF91CF910F9120
:100AA000FF90EF90DF90CF90BF90AF90089584EECD
:100AB00093E00E94B50987B7826087BF0895EF92DF
:100AC000FF920F931F93CF93DF930FB6F8940F927B
:100AD000209188013091890140918A0150918B01C8
:100AE0000F900FBE80912F0190913001A0913101A4
:100AF000B0913201E22EF32E042F152FE81AF90AD5
:100B00000A0B1B0B20932F013093300140933101CE
:100B10005093320154C088859985AA85BB85E81613
:100B2000F9060A071B07B0F48E199F09A00BB10B39
:100B300088879987AA87BB870097A105B10529F007
:100B4000EE24FF24002711273AC0EE24FF240027BB
:100B5000112708C0E81AF90A0A0B1B0B1886198618
:100B60001A861B86EC85FD85309729F06E857F857A
:100B70008C2F9D2F09958C819D81AE81BF818887A7
:100B80009987AA87BB870097A105B10529F48C2F07
:100B90009D2F0E944C0413C0E0918601F0918701C3
:100BA0000190F081E02DF0938701E093860130976A
:100BB00011F0138212828C2F9D2F0E94F803C09196
:100BC0008601D0918701209731F0E114F1040105ED
:100BD000110509F0A0CFDF91CF911F910F91FF90E8
:100BE000EF9008952F923F924F925F926F927F9273
:100BF0008F929F92AF92BF92CF92DF92EF92FF922D
:100C00000F931F93CF93DF93CDB7DEB724970FB623
:100C1000F894DEBF0FBECDBF0FB6F8940F92A09030
:100C20008801B0908901C0908A01D0908B010F900B
:100C30000FBE0E94B009262F372F482F592F9D2D08
:100C40008C2D7B2D6A2D0E943D16622E732E842ED4
:100C5000952E0E94B009262E372E482E592E0E941E
:100C6000B00969837A838B839C8328EE33E040E06C
:100C700050E0992D882D772D662D0E942216E62EA4
:100C8000F72E082F192F552D442D332D222D992D58
:100C9000882D772D662D0E942216A61AB70AC80A3B
:100CA000D90A28EE33E040E050E09D2D8C2D7B2DBD
:100CB0006A2D0E94221629813A814B815C810E9413
:100CC0003D16E20EF31E041F151F912F802F7F2D5E
:100CD0006E2D24960FB6F894DEBF0FBECDBFDF9108
:100CE000CF911F910F91FF90EF90DF90CF90BF9029
:100CF000AF909F908F907F906F905F904F903F90BC
:100D00002F900895EF92FF920F931F930FB6F894D0
:100D10000F92E0908801F090890100918A01109172
:100D20008B010F900FBE0E94B009262F372F482F3E
:100D3000592F912F802F7F2D6E2D0E943D16952FBC
:100D4000842F732F622F1F910F91FF90EF900895C2
:100D5000CF93DF93B92FA82F0FB6F8940F92CD91B0
:100D6000DC9111970F900FBE8FEFCF3FD80709F49A
:100D70003BC0209779F10FB6F8940F92EA81FB817E
:100D80001196FC93EE938C819D81892B71F03097A5
:100D900029F08C819D819583848305C08FEF9FEF1F
:100DA00011969C938E931D821C820F900FBE8D898D
:100DB0009E89009721F00E944C041E8A1D8A82E0C1
:100DC0008F8760E871E08C2F9D2F0E94460281E0A2
:100DD00090E00CC00FB6F8940F928FEF9FEF119632
:100DE0009C938E930F900FBE80E090E0DF91CF91A7
:100DF00008950F931F93CF93DF93D92FC82F0FB66A
:100E0000F8940F92888199810F900FBE2FEF8F3F3A
:100E1000920741F40FB6F8940F92198218820F903E
:100E20000FBE02C0892B19F400E010E013C000E0EF
:100E300010E08C2F9D2F0E94A806080F191F0FB6D7
:100E4000F8940F92888199810F900FBE01978E5F61
:100E50009F4F78F3912F802FDF91CF911F910F91AA
:100E600008950F931F930E94F906082F192F0E94CF
:100E7000CB03912F802F1F910F9108950F931F93F4
:100E80000E94A806082F192F0E94CB03912F802FB4
:100E90001F910F910895CF93DF93482F592FB72FAC
:100EA000A62F0FB6F8940F92CD91DC9111970F9069
:100EB0000FBE8FEFCF3FD80709F036C038C08D89FD
:100EC0009E892A813B818417950749F50FB6F894CE
:100ED0000F9211963C932E938C819D81892B81F0EA
:100EE000EA81FB81309729F08C819D8195838483F1
:100EF00005C08FEF9FEF11969C938E931D821C82ED
:100F00000F900FBE82E08F8760E871E08C2F9D2FDD
:100F10000E9446028FEF9FEF9E8B8D8B08C0AC2FF7
:100F2000BD2F1296D32FC22F209709F0C8CFDF9183
:100F3000CF910895AF92BF92CF92DF92EF92FF923E
:100F40000F93CF93DF93D92FC82FA42EB52EC62E83
:100F5000D72E0FB6F8940F92888199810F900FBE0B
:100F60008F5F9F4F51F40FB6F8940F921982188239
:100F70000F900FBE0E94CB033EC060E871E08091ED
:100F80008201909183010E949D026C2F7D2F8091A0
:100F90008201909183010E944602E0918201F091CA
:100FA000830183E08787E0908201F0908301A114A0
:100FB000B104C104D10481F001E02C2F3D2F4BE49A
:100FC00057E09D2D8C2D7B2D6A2D0E94E204FF2D74
:100FD000EE2D968B858B04C0FF2DEE2D168A158A7B
:100FE0000E948503E0918201F091830185899689B1
:100FF0008F5F9F4F19F080E090E004C0168A158A39
:101000008FEF9FEFDF91CF910F91FF90EF90DF90E7
:10101000CF90BF90AF900895F92FE82F0FB6F894B6
:101020000F92808191818F5F9F4F11F41182108206
:101030000F900FBE8E2F9F2F0E949A0708950F9337
:101040001F93CF93DF93082F192FC0913301D091B5
:1010500034010CC0712F602F8C2F9D2F02960E949F
:101060000D16892B29F00990D881C02D209791F772
:101070008C2F9D2FDF91CF911F910F910895CF93CA
:10108000DF93D92FC82F892B21F16115710511F03C
:101090007D876C8741114E878C2F9D2F02960E9471
:1010A0001F08892BB1F4EB89FC89309729F08C2F2C
:1010B0009D2F0995892B69F480913301909134011A
:1010C00099838883D0933401C093330180E090E00A
:1010D00002C08FEF9FEFDF91CF91089583E180935E
:1010E0008C018FE480938D0183E580938E0143E131
:1010F00050E06CE871E080E090E00E94B013892B32
:1011000019F08FEF9FEF089580E090E0089543E19C
:1011100050E06CE871E080E090E00E94B313892B0E
:1011200079F480918C01833159F480918D018F3451
:1011300039F480918E01833519F480E090E00895B0
:101140008FEF9FEF08959F918F910F900BBE0F909F
:101150000FBE1F9018952F923F924F925F926F9201
:101160007F928F929F92AF92BF92CF92DF92EF9237
:10117000FF920F931F93CF93DF938DB79EB7E091AC
:101180008201F0918301918B808BE0918001F0913D
:101190008101F0938301E093820181E08787E091F0
:1011A0008201F0918301808991898DBF9EBFDF917B
:1011B000CF911F910F91FF90EF90DF90CF90BF9054
:1011C000AF909F908F907F906F905F904F903F90E7
:1011D0002F900895CF92DF92EF92FF920F931F937B
:1011E000CF93DF93082F192FE62EF72EC42ED52E7E
:1011F000D32FC22F932F822F49960E942A01F92FB5
:10120000E82F009719F480E090E080C0C80FD91F44
:101210002C2F3D2F275030404C2F5D2F4B515040ED
:101220008C2F9D2F069668E0B12FA02F0D900A2FCE
:101230001B2FB92FA82F0D928A2F9B2F6150A1F73A
:101240001E8641505040598B488B4F5F5F4FFC8B3F
:10125000EB8B8FEE9EEBADEABEED80839183A28394
:10126000B38384839583A683B78380879187A2877E
:10127000B38784879587A687B78780E48A8B8F2D6D
:101280009927F32FE22F8583E68280E883831282F9
:101290001482C1828D2D9927808323EA38E0832F21
:1012A0009927F52FE42F828B238B80917E019091DB
:1012B0007F0199838883D0937F01C0937E0112E0E0
:1012C0001F871E8A1D8A188E1F8A60E871E08C2F86
:1012D0009D2F0E944602E0918201F0918301309798
:1012E00021F40FB6F8940F9250CF80918001909125
:1012F0008101E817F90741F017870FB6F8940F92AC
:101300000E94AB080F900FBE8C2F9D2FDF91CF91C5
:101310001F910F91FF90EF90DF90CF9008951F9352
:10132000182F6091350170913601809137019091AD
:10133000380120EA3FE040E050E00E943D16822F55
:10134000932F0197F1F71A95D1F71F9108956091A6
:1013500035017091360180913701909138010895DF
:1013600060E074E080E090E00895682F792F87B7FF
:101370008D7F87BF80B7886080BF12BE82E083BF49
:1013800080B7992787709070892BD1F781E086BF4D
:101390000FB6F8940F9281E090E0A0E0B0E0B6B70D
:1013A000B170E9F3B6BF0894811D911DA11DB6B7B8
:1013B000B170C9F3BB270F900FBE27E0880F991FAC
:1013C000AA1FBB1F2A95D1F7809335019093360150
:1013D000A0933701B093380187B78D7F87BF80B75F
:1013E000886080BF12BE89E083BF8FE181BF80B774
:1013F000992787709070892BD1F782E086BF40E0F3
:1014000050E08EE890E00E94250E08953AE0660FC5
:10141000771F881F991F3A95D1F728EE33E040E0F7
:1014200050E00E943D16211531054105510521F47A
:1014300021E030E040E050E0952F842F732F622FA1
:101440000895282F392FF72FE62F87B7482F5527D4
:101450004270507087B78D7F87BF20313105D9F03A
:10146000213131053CF42115310581F02130310560
:1014700051F40EC02231310571F122313105E4F011
:1014800020323105E1F02FEF3FEF1FC040E050E088
:1014900082E086BF18C006B601FE05C081E090E07C
:1014A0009183808302C011821082452BA1F080813C
:1014B000918180689183808320E030E008C08EE0D5
:1014C00090E09183808320E030E0452B31F087B7B6
:1014D000826087BF02C020E030E0932F822F089502
:1014E0001F920F920FB60F9211242F933F934F9399
:1014F0005F936F937F938F939F93AF93BF93EF937C
:10150000FF938EE890E00E94150EFF91EF91BF913E
:10151000AF919F918F917F916F915F914F913F918B
:101520002F910F900FBE0F901F901895CF93DF93C0
:10153000B92FA82FD92FC82FEA81FB8120913A011A
:10154000422F5527952F842F80739070892B89F017
:1015500044FF04C083E18CB9206403C081E18CB9ED
:101560002F7B20933A0180913A018F7C80933A013E
:101570004EC027FF02C055984AC0DB2FCA2F8A856C
:101580009B85892B69F18A859B8501979B878A8733
:1015900080913B01882311F0509A01C050988191AD
:1015A0008CB92E2F3F2FFB2FEA2F8681978128178A
:1015B000390711F424813581DB2FCA2F3B832A831D
:1015C0002A853B858C859D852817390701F5E88993
:1015D000F989309771F08FEFEF3FF807C1F012C033
:1015E0005598DB2FCA2F1B861A86E889F989309710
:1015F00029F48FEF9FEF998B888B09C08FEFEF3F16
:10160000F80729F084819581019695838483DF9181
:10161000CF910895CF93DF93B92FA82F3BB180913D
:101620003901382B309339016CB120913A012223D2
:1016300061F0633119F45598206804C0613129F4D0
:10164000559A2F7720933A0156C0DB2FCA2F4A852F
:101650005B85888599854817590720F03860309355
:10166000390149C04F5F5F4F41305105A9F4DB2F6D
:10167000CA2FE889F989309729F48FEF9FEF998B6A
:10168000888B1FC08FEFEF3FF807D9F084819581D9
:1016900001969583848315C0222399F0DB2FCA2FEE
:1016A0008E859F854817590760F026FD0AC05D9B0F
:1016B00005C083E18CB920642F7D01C02062209396
:1016C0003A01ED91FC91119761931196FC93EE9381
:1016D0002D913C911197FB2FEA2F86819781281736
:1016E000390729F48481958111969C938E93DB2F81
:1016F000CA2F5B874A87DF91CF910895529B03C021
:1017000089E090E0089588E090E0089580E090E01E
:10171000089581E090E00895809139019927282F5C
:10172000392F94E0369527959A95E1F74427552768
:10173000217030704070507083FD226080913A01BA
:10174000882321F086FD426087FD486041FF4160AB
:1017500043FF446080913B01882331F0952F842F13
:10176000732F622F806405C0952F842F732F622FF3
:10177000806880620895EF92FF920F931F93E62E88
:10178000F72E082F192F80913A018823D9F00FB630
:10179000F8940F9200FF02C08F7B03C001FF03C0CB
:1017A000806480933A0102FF04C080913A018F77F0
:1017B00005C003FF05C080913A01806880933A011B
:1017C0000F900FBE06FF03C081E080933B0107FF2F
:1017D00002C010923B01E0FE05C0809139018F7E6E
:1017E00080933901E1FE05C080913901877F8093A4
:1017F00039010E948C0B687F6E157F058007910769
:1018000019F08FEF9FEF02C080E090E01F910F91E1
:10181000FF90EF90089580E090E0089580913A0164
:10182000882329F060E270E080E090E0089560E0B5
:1018300070E080E090E00895559A089590913A0103
:101840009923A9F096FF13C00FB6F8940F925D9BF1
:1018500004C081E18CB99F7E01C0906190933A01F0
:1018600080913A018F7980933A010F900FBE0895CD
:101870000FB6F8940F925798569855980F900FBE40
:101880008AE00E948F09549853980895EF92FF922E
:101890000F931F93E9B00E94A709FF240027112787
:1018A0000894E11CF11C011D111D24E0EE0CFF1C2D
:1018B000001F111F2A95D1F7512F402F3F2D2E2D9C
:1018C0000E943D16952F842F732F622F1F910F9129
:1018D000FF90EF90089540E050E060E070E080E11C
:1018E00091E00E94250E40E050E060E070E086E16B
:1018F00091E00E94250E80E090E0089549ED50E0CF
:101900006AE07BE080E191E00E94250E892B19F0CE
:101910008FEF9FEF089547EC50E066E97AE086E1AB
:1019200091E00E94250E892B19F480E090E0089543
:1019300040E050E060E070E080E191E00E94250E20
:101940008FEF9FEF0895EF92FF920F931F93E62E74
:10195000F72E082F192F0E94380C0E94A709E3E0E8
:10196000EE0CFF1C001F111FEA95D1F7512F402FDD
:101970003F2D2E2D0E943D162F5F3F4F4F4F5F4F43
:1019800056954795379527952150304029B90FB680
:10199000F8940F9288EB8AB90F900FBE80E090E028
:1019A0001F910F91FF90EF900895882319F08FEF0A
:1019B0009FEF089580E090E00895813019F08FEF57
:1019C0009FEF089580E090E00895882319F08FEF4D
:1019D0009FEF089580E090E008951F93182F0E94D4
:1019E000380C5298193009F4529A0FB6F8940F92A5
:1019F00088EB8AB90F900FBE529B03C089E090E03C
:101A000002C088E090E0181719F08FEF9FEF02C036
:101A100080E090E01F910895EF92FF920F931F9343
:101A2000E62EF72E082F192F65FF11C080913A017D
:101A3000882341F40FB6F8940F9281E480933A0121
:101A40000F900FBE20E230E040E050E00BC00FB638
:101A5000F8940F9210923A010F900FBE20E030E000
:101A600040E050E02E153F054007510719F08FEF79
:101A70009FEF02C080E090E01F910F91FF90EF90E8
:101A80000895282F392FF72FE62F8AB1482F552791
:101A900040785070579820313105D9F02131310507
:101AA0003CF42115310581F02130310551F40EC08F
:101AB0002231310559F122313105DCF02032310576
:101AC000D9F08FEF9FEF1EC040E050E08CB18CB199
:101AD00017C05F9B05C081E090E09183808302C0C6
:101AE00011821082452B91F08081918180689183D1
:101AF000808380E090E008C080E190E09183808363
:101B000080E090E0452B21F0579A089580E090E026
:101B100008951F920F920FB60F9211242F933F93A7
:101B20004F935F936F937F938F939F93AF93BF93E5
:101B3000EF93FF9380E191E00E94150EFF91EF91EA
:101B4000BF91AF919F918F917F916F915F914F91D5
:101B50003F912F910F900FBE0F901F901895282F37
:101B6000392FF72FE62F8AB1482F55274072507032
:101B700055982131310519F1223131053CF42115F7
:101B8000310551F12031310539F409C022313105D7
:101B900019F120323105B1F08FEF9FEF19C05D9B35
:101BA00005C081E090E09183808302C011821082A1
:101BB000452B91F08081918180689183808380E0C2
:101BC00090E008C080E190E09183808380E090E025
:101BD000452B21F0559A089580E090E008951F92DA
:101BE0000F920FB60F9211242F933F934F935F9351
:101BF0006F937F938F939F93AF93BF93EF93FF93D5
:101C000086E191E00E94150EFF91EF91BF91AF9197
:101C10009F918F917F916F915F914F913F912F9104
:101C20000F900FBE0F901F901895CF93DF93B92F91
:101C3000A82FD92FC82FEA81FB81309719F08D91F9
:101C40009C910995DF91CF910895EF92FF920F93A8
:101C50001F93CF93DF93D92FC82FE62EF72E042F93
:101C6000152FEC81FD81309719F480E090E005C0DC
:101C700060E070E080E090E0099519830883FB82C2
:101C8000EA82DF91CF911F910F91FF90EF9008951D
:101C9000CF93DF93D92FC82FEC81FD81309719F4B2
:101CA0008FEF9FEF05C060E070E081E190E0099563
:101CB000DF91CF910895CF93DF93D92FC82FEC8177
:101CC000FD81309719F48FEF9FEF05C060E070E061
:101CD00082E190E00995DF91CF9108950F931F93D2
:101CE000CF93DF93CDB7DEB724970FB6F894DEBF5E
:101CF0000FBECDBF082F192F7C836B83F92FE82FE0
:101D0000248135812115310519F48FEF9FEF1CC017
:101D10006C2F7D2F6F5F7F4F80E290E0E22FF32FDB
:101D20000995009789F4F12FE02F248135816C2FDC
:101D30007D2F6D5F7F4F81E290E0E22FF32F0995B9
:101D4000009711F489819A8124960FB6F894DEBF2A
:101D50000FBECDBFDF91CF911F910F9108950F93CB
:101D60001F93CF93DF93CDB7DEB724970FB6F894C8
:101D7000DEBF0FBECDBF082F192F7C836B83F92FD9
:101D8000E82F248135812115310519F48FEF9FEF5C
:101D90001CC06C2F7D2F6F5F7F4F88E190E0E22F9A
:101DA000F32F0995009789F4F12FE02F24813581D5
:101DB0006C2F7D2F6D5F7F4F89E190E0E22FF32F35
:101DC0000995009711F489819A8124960FB6F894A9
:101DD000DEBF0FBECDBFDF91CF911F910F91089550
:101DE0000F931F93CF93DF93F92FE82FC189D289E7
:101DF000EDA9FEA90995082F192F892B49F4CF5B6E
:101E0000DF4FE881F98160E072EC81E090E00995B4
:101E1000912F802FDF91CF911F910F910895CF9334
:101E2000DF93D92FC82FEA81FB810188F289E02D49
:101E30000FB6F8940F9264A575A50F900FBE882772
:101E40009927DF91CF910895CF92DF92EF92FF9281
:101E50000F931F93CF93DF93D92FC82F062F172FE0
:101E6000E42EF52EC22ED32E8C819D8128853985B6
:101E70000FB6F8940F92198618860F900FBE26178A
:101E8000370791F0232B21F0009711F00E940415E1
:101E90000115110511F1912F802F0E940715009750
:101EA00029F48FEF9FEF1BC0672BB9F09D838C83C4
:101EB000998388839B838A83800F911F9F838E835E
:101EC000FD86EC86DF86CE861B861A860FB6F894D2
:101ED0000F92198708870F900FBE80E090E0DF9186
:101EE000CF911F910F91FF90EF90DF90CF900895C9
:101EF000CF92DF92EF92FF920F931F93CF93DF93D6
:101F0000C42ED52EB52FA42FED90FD900D911C91D0
:101F10002E2DF92FE82FC189D28961507140673287
:101F2000710560F4605D7F4FF72FE62FEE0FFF1F06
:101F3000C895E3950F92C8950F9208950FEF1FEF84
:101F40003BC1CF5BDF4F56C0CD5BDF4FE881F981EE
:101F50000995BD2DAC2D6D937D938D939C93139717
:101F600029C1CB5BDF4FE881F981822F0995082FCA
:101F7000192F22C1C95BDF4F0BC0C75BDF4FF3CF07
:101F8000C55BDF4F05C0C35BDF4FEDCFC15BDF4FEC
:101F9000E881F98109959927AA27BB2705C1E6FEA3
:101FA00010C0FD2FEC2FB2962685378544855585C8
:101FB000608571858E2F9F2F0E94240FEBADFCADA5
:101FC0000995E7FE0DC0FD2FEC2F7096268537850D
:101FD00044855585608571858E2F9F2F0E94240F23
:101FE000CF5ADF4F8FE39FEFAFEFBFEFE822F92229
:101FF0000A231B23E881F98151C0CD5ADF4FE881C4
:10200000F981C355D0400995262F372F482F592FD6
:10201000BD2DAC2D6D937D938D939C9313978CA5C3
:102020009DA5892B39F42064FD2DEC2D208331836F
:10203000428353838A8D9B8D892B09F0BBC0FD2D74
:10204000EC2D80819181A281B3818068AFC0E88648
:10205000F9860A871B87AEC088859985AA85BB85C6
:10206000A3C0EC86FD860E871F87A4C08C859D8546
:10207000AE85BF8599C088819981AA81BB81EE20F8
:1020800011F0806425C08F7B23C088819981AA814B
:10209000BB8186FF2AC024C0EDADFEAD912F802FFD
:1020A0007F2D6E2D099563CFEF96E881F981099513
:1020B000FD2DEC2D60837183828393837BC08881A7
:1020C0009981AA81BB81EE2011F0806801C08F77D1
:1020D00088839983AA83BB836DC0888187FF05C0ED
:1020E00081E090E0A0E0B0E05FC0BD2DAC2D1D927E
:1020F0001D921D921C9213975DC0CB5ADF4F33CFB8
:10210000C95ADF4F45CFFD2FEC2F709626853785B6
:10211000448555857F2D6E2D8E2F9F2F0E94240F75
:10212000082F192F892B09F047C0EBADFCAD09959D
:1021300043C0888D998D36C0FD2FEC2FB296268531
:102140003785448555857F2D6E2D8E2F9F2F0E94BC
:10215000240F0DCF8AA59BA525C00FB6F8940F922A
:10216000FD8EEC8E1AC08C8D9D8D1CC00FB6F89420
:102170000F92FF8EEE8E11C08E8D9F8D13C00FB605
:10218000F8940F92FFA6EEA608C08EA59FA50AC0E0
:102190000FB6F8940F92F9AAE8AA0F900FBE0AC0E2
:1021A00088A999A9AA27BB27FD2DEC2D80839183AF
:1021B000A283B38300E010E0912F802FDF91CF91B5
:1021C0001F910F91FF90EF90DF90CF900895CF92E5
:1021D000DF92EF92FF920F931F93CF93DF93C82E5E
:1021E000D92E042F152FF92FE82FC189D28983E02A
:1021F000E82EF12CE422F522E114F10489F028E321
:1022000030E048E250E060E470E08C2F9D2F409673
:102210000E94240F892BA9F4F1E0EF16F104A1F03C
:1022200020EF30E040ED50E060E071E08C2F9D2F1A
:1022300082960E94240F892B39F08C899D890E94F7
:1022400004150FEF1FEF2EC086E090E00E940715E7
:10225000009739F48C899D890E9404158EA19FA155
:10226000EECF0070107C288139814A815B8100505B
:10227000104811F42F7701C02068288339834A83DE
:102280005B83082F192FF92FE82F11821082D38238
:10229000C28215821482F1E0EF16F10419F0EBAD61
:1022A000FCAD0995912F802FDF91CF911F910F9158
:1022B000FF90EF90DF90CF900895CF93DF93B92FE9
:1022C000A82FD92FC82FEA81FB81C189D289019714
:1022D0008E5F9F4F18F08FEF9FEF1CC08A2F9B2FB0
:1022E0000E94041520E030E040E050E060E070E043
:1022F0008C2F9D2F40960E94240F20E030E040E07C
:1023000050E060E070E08C2F9D2F82960E94240F99
:1023100080E090E0DF91CF910895CF92DF92EF922D
:10232000FF920F931F93CF93DF93E82EF92EC42EC5
:10233000D52ED92FC82F60960FB6F8940F928A85A4
:102340009B85860F971F9B878A8717C0FF2DEE2DD1
:1023500081AD92ADE82FF92F0995FF2DEE2D448523
:102360005585668577858C2F9D2F40960E949A070C
:10237000892B51F40FB6F8940F920A851B850F90A4
:102380000FBEC016D10610F3912F802FDF91CF9191
:102390001F910F91FF90EF90DF90CF9008956F9273
:1023A0007F928F929F92AF92BF92CF92DF92EF92E5
:1023B000FF920F931F93CF93DF93CDB7DEB7229792
:1023C0000FB6F894DEBF0FBECDBF842E952EA22E81
:1023D000B32EF92FE82FE188F288A0E16A2E712C44
:1023E0006E0C7F1CF72DE62D80859185892B21F4BD
:1023F000FFEFCF2EDF2EAFC06115710559F440E01D
:1024000050E060E070E09F2D8E2D0E948D11C82E4F
:10241000D92EA1C0FF2DEE2D80819181A281B381A3
:10242000282F392F4A2F5B2FE9E05695479537958E
:102430002795EA95D1F721702A8327E0B695A795CD
:10244000979587952A95D1F7817089830FB6F8946F
:102450000F92F72DE62D428553850F900FBE062F64
:10246000172FCC24DD2460E070E05AC0242F352FD4
:10247000260F371FF72DE62D8685978528173907F4
:1024800090F0448555859F2D8E2D0E948D11482FEB
:10249000592FF72DE62D848595858417950708F427
:1024A0005AC060E070E0A114B10429F0F12FE02FD0
:1024B000C895802D03C0B12FA02F8C91B981B13068
:1024C00069F48A3081F4EA81E13019F0F2E0F983AD
:1024D00003C082E08A8389838DE00AC099819230AB
:1024E00011F4A1E0A9830F5F1F4F0894C11CD11CF8
:1024F000B72DA62DED91FC91119781931196FC9328
:10250000EE932D913C91F72DE62D8681978128172A
:10251000390721F484819581918380836F5F7F4F98
:10252000C814D9040CF4A2CF61157105A1F00FB63F
:10253000F8940F92F72DE62D82859385860F971FCD
:10254000938782870F900FBEFF2DEE2D81AD92AD48
:10255000E82FF92F09959D2D8C2D22960FB6F89412
:10256000DEBF0FBECDBFDF91CF911F910F91FF90C6
:10257000EF90DF90CF90BF90AF909F908F907F9023
:102580006F90089521E030E0F92FE82F8281938148
:102590000E94CF11089520E030E0F92FE82F8281CA
:1025A00093810E94CF110895AF92BF92CF92DF9294
:1025B000EF92FF920F931F93CF93DF93E62EF72EA8
:1025C000A42EB52ED92FC82FEA81FB81018912894B
:1025D000D12FC02FA296688579856115710519F4F0
:1025E0008FEF9FEFB2C0E114F10471F42E853F85A7
:1025F0004C855D858C2F9D2F0E94240FD12FC02FDD
:10260000EBADFCAD09951EC00FB6F8940F926A852C
:102610007B850F900FBE61157105B9F4F12FE02F86
:1026200083AD94ADE82FF92F0995F12FE02F408568
:102630005185628573858C2F9D2F40960E949A0745
:10264000892B11F380E090E080C0BF2DAE2DF12FDB
:10265000E02F808187FF38C0CC24DD24EE24FF24C6
:102660005AE02EC0E616F70609F456C0EA81FB814F
:102670004191FB83EA832A813B818E819F812817C8
:10268000390721F48C819D819B838A834D3011F021
:102690004A3061F4F12FE02F84A9882311F08417C8
:1026A00061F4F12FE02F44AB5D9304C0F12FE02FD4
:1026B00014AA4D930894C11CD11C0894E11CF11C70
:1026C000CA14DB0478F225C0C62ED72EA616B7068C
:1026D00010F4DB2CCA2C40E050E0BF2DAE2D14C00E
:1026E000EA81FB8181918C93FB83EA832A813B8180
:1026F0008E819F812817390721F48C819D819B83CE
:102700008A834F5F5F4F11964C155D0549F7FD2C8D
:10271000EC2CE114F104B9F00FB6F8940F928A850D
:102720009B858E199F099B878A870F900FBE2A85EC
:102730003B858C859D852817390728F4D12FC02F1C
:10274000EBADFCAD09959D2D8C2DDF91CF911F91A7
:102750000F91FF90EF90DF90CF90BF90AF900895D2
:102760000E94B61308950E94DB130895CF93DF9360
:10277000D52FC42F282F392F40E050E0F72FE62F18
:1027800012C0B32FA22F0E946416802D908198173B
:1027900029F0B32FA22F092E0E946C164F5F5F4FB6
:1027A00031962F5F3F4F4C175D0759F780E090E05F
:1027B000DF91CF910895CF93DF93D52FC42FB92FF9
:1027C000A82FF72FE62F219724F00E94641601927C
:1027D000FACF80E090E0DF91CF910895CF93DF931F
:1027E000D92FC82FAA81BB81109719F4EB85FC85DE
:1027F00006C0DB2FCA2FED89FE898A2F9B2F0995F2
:10280000DF91CF910895F92FE82F8081918108956C
:10281000CF92DF92EF92FF920F931F93CF93DF93AC
:10282000C82ED92E972F862F0E947C15E82EF92EC0
:102830008F5F9F4F71F449C00F5F1F4F3296083072
:10284000110559F487E190E09093A00180939F01D6
:102850003CC003E010E0E2E2F1E080819181892B4D
:1028600059F787E090E00E940715D92FC82F000F75
:10287000111F045E1E4FB12FA02FCD93DC93209724
:1028800021F17F2D6E2D9D2D8C2D0E941615998383
:102890008883B12FA02FED91FC918F5F9F4F49F45A
:1028A0008E2F9F2F0E940415F12FE02F118210828E
:1028B0000CC0F382E2821482B12FA02FED91FC9123
:1028C000168215828E2F9F2F02C080E090E0DF914C
:1028D000CF911F910F91FF90EF90DF90CF900895CF
:1028E0009F92AF92BF92CF92DF92EF92FF920F939F
:1028F0001F93CF93DF93A82EB92E972F862FD52F16
:10290000C42F0E947C15C82ED92E8F5F9F4F71F463
:102910004FC00F5F1F4F32960830110559F489E000
:1029200090E09093A00180939F0142C000E010E0EE
:10293000ECE1F1E0808191818C179D0751F787E0F0
:1029400090E00E940715E82EF92ED12FC02FCC0F52
:10295000DD1FC45EDE4FF982E882E114F10441F12B
:102960007D2D6C2D9B2D8A2D0E941615FF2DEE2D91
:1029700091838083E881F9818F5F9F4F79F48E2F57
:102980009F2F0E94041582E0801728F00F5F1F4FD1
:10299000198308830DC0198218820AC0D382C282AB
:1029A0001482E881F981168215828E2F9F2F02C032
:1029B00080E090E0DF91CF911F910F91FF90EF9019
:1029C000DF90CF90BF90AF909F90089560911E01CF
:1029D00070911F010E94A915089560911E017091C8
:1029E0001F010E94D5158F5F9F4F19F48FEF9FEF46
:1029F000089560911E0170911F018AE090E00E948D
:102A0000A91580E090E008950E94A70108950E9412
:102A10002A01282F392F892B31F48CE090E09093F4
:102A2000A00180939F01932F822F0895EF92FF9230
:102A30000F931F93CF93DF93CDB7DEB729970FB6D0
:102A4000F894DEBF0FBECDBFE62EF72E082F192F4C
:102A5000FD2FEC2F31964C2F5D2F475F5F4F03C04A
:102A600021930F5F1F4F302F381BB12FA02F2C91B8
:102A7000222329F02A3319F0E417F50789F78C2F60
:102A80009D2F0196F92FE82FE30FF11D10820E9470
:102A90001F08B92FA82F892B49F482E090E090936A
:102AA000A00180939F018FEF9FEF19C0F12FE02FBE
:102AB00080818A3319F060E070E004C0712F602FCC
:102AC0006F5F7F4FFB2FEA2F058D168D20E030E0E2
:102AD0005F2D4E2D8A2F9B2FE02FF12F09952996E0
:102AE0000FB6F894DEBF0FBECDBFDF91CF911F911F
:102AF0000F91FF90EF900895F92FE82F8081823792
:102B000059F0873719F08136B1F403C081E093E4BE
:102B10001BC088E091E418C080E090E415C02B321F
:102B200019F0223641F404C08E7F826093600CC09D
:102B30009F7B906809C086E190E09093A00180930C
:102B40009F018FEF9FEF089531962081222339F75F
:102B500008950F931F93CF93DF93CDB7DEB72197DF
:102B60000FB6F894DEBF0FBECDBF082F192FF72F79
:102B7000E62F898341E050E06C2F7D2F6F5F7F4F00
:102B8000808191810E94EC15019711F00FEF1FEFEA
:102B9000912F802F21960FB6F894DEBF0FBECDBFC8
:102BA000DF91CF911F910F910895F92FE82F972F63
:102BB000862FAE2FBF2F0D900020E9F71197AE1B87
:102BC000BF0B4A2F5B2F6E2F7F2FF92FE82F8081AD
:102BD00091810E94EC150895CF93DF93B92FA82F10
:102BE000D92FC82FEA81FB81309719F4EF81F8853E
:102BF00003C0018CF28DE02D8A2F9B2F0995DF9168
:102C0000CF910895A82FB92F40FF03C001C06D9345
:102C10006D9342505040D8F70895E62FF72FA82F14
:102C2000B92F8D910190801911F40020D1F7990BE3
:102C30000895E62FF72FA82FB92F01900D920020AD
:102C4000E1F70895FF27EE27BB27AA2760FF04C0FE
:102C5000A20FB31FE41FF51F220F331F441F551F80
:102C6000969587957795679589F70097760771F719
:102C70009F2F8E2F7B2F6A2F0895A1E21A2EAA1B59
:102C8000BB1BEA2FFB2F0DC0AA1FBB1FEE1FFF1F90
:102C9000A217B307E407F50720F0A21BB30BE40B60
:102CA000F50B661F771F881F991F1A9469F76095A7
:102CB000709580959095262F372F482F592F6A2F82
:102CC0007B2F8E2F9F2F0895E199FECFBFBBAEBB08
:102CD000E09A11960DB20895E199FECFBFBBAEBB4D
:102CE0000DBA11960FB6F894E29AE19A0FBE0895C4
:102CF00077007561727430000A54687265616420EF
:102D000054657374007431007432006574686572C0
:102D10006E75740069646C65006D61696E00000019
:102D20000000210A00007561727430000000000587
:102D30000000000000B700F00E780FD412CB12C2D2
:102D400012E7105D110F0F000000000000000000EE
:102D50000000000000000000000000000000000073
:102D60000000000000000000000000000000000063
:102D70000000000000000000000000007E0C6B0C52
:102D80001C0C1E0C0C0D0E0CA30C460CED0C7E0B3B
:102D9000D50C860BDD0C890BBB0B8C0BE50C0B0CDF
:102DA00000000000410D00000000AF0D0100020016
:0C2DB00003000000000000000000000014
:00000001FF
