:100000000C9469000C94B6000C94B6000C94B600E5
:100010000C94B6000C94B6000C94B6000C94B60088
:100020000C94B6000C94B6000C94B6000C94B60078
:100030000C94B6000C94B6000C94B6000C94020C10
:100040000C94B6000C94B6000C94700C0C94D60C66
:100050000C94B6000C94B6000C94B6000C94B60048
:10006000880E8B0E980EA10EA40EA70EAA0EAD0E32
:10007000B60EE40E0E0F130F180F1D0F220F2C0FCC
:10008000330F3B0F460F540F850E850E850E850EE0
:10009000640F670F6A0F800F830F910F850E940F07
:1000A0009A0F9D0FA30FA60FAC0FAF0FB70F507293
:1000B00065737320616E79206B65792E2E2E000A90
:1000C00048656C6C6F20737472616E676572210A8B
:1000D000000080EC85BF87E089B911241FBECFEFF7
:1000E000DFE0DEBFCDBF11E0A0E6B0E0E0E1F6E387
:1000F0000FEF03950BBF04C0D8950D923196C8F34E
:10010000AA39B107C9F712E0AAE9B1E001C01D920E
:10011000AF38B107E1F78FEF9FE79EBF8DBF8FEF3D
:100120009FE78F5892408158914040F06FEF7EE7F3
:100130006F5872408FE892E00E948C130E94F4196D
:10014000892B41F06FE970E08FE792E00E94971AE7
:100150000E94DB1920E831E040E050E069E671E000
:1001600088EA90E00E94D1070C9400000C940000F3
:10017000CF92DF92EF92FF920F931F93CF93DF9373
:10018000CDB7DEB724970FB6F894DEBF0FBECDBF54
:1001900080E092ECA1E0B0E089839A83AB83BC83DA
:1001A00040E060E070E08BE091E00E94AC1960E616
:1001B00070E083E690E00E94EB01C82ED92E0E94E9
:1001C000E6014C2F5D2F4F5F5F4F61E071E00E94B1
:1001D0007D01E0909D00F0909E00FF2DEE2D01909E
:1001E0000020E9F70E2F1F2F015010400E191F0994
:1001F0009D2D8C2D0E94E601512F402F7F2D6E2DBD
:100200000E94A8019D2D8C2D0E94E60141E150E045
:100210006EEA70E00E94BE019D2D8C2D0E94E601C9
:1002200040E050E060E070E00E94A8019D2D8C2D20
:100230000E94E60140E850E06AE971E00E94920104
:10024000082F192F9D2D8C2D0E94E601512F402F34
:100250006AE971E00E94A8017D2D6C2D89E690E08D
:100260000E94A3029D2D8C2D0E94D4010AE911E069
:100270005D2D4C2D60E870E0912F802F0E9453027D
:100280006AE070E0912F802F0E947D1AF92FE82FED
:10029000892B09F0108280919A01882399F01F938D
:1002A0000F938CE790E09F938F93DF92CF920E9401
:1002B00084028DB79EB706960FB6F8949EBF0FBE08
:1002C0008DBFCACF7D2D6C2D8FEB90E00E94C902AF
:1002D000C3CF0E94C41620E033E040E050E068EB5A
:1002E00070E08DEA90E00E94D1078EEF0E94B21478
:1002F0000E9438150E947B14FBCFCF93DF93D92F38
:10030000C82FAA81BB81109719F4EB85FC8506C024
:10031000DB2FCA2FED89FE898A2F9B2F0995DF914C
:10032000CF910895CF93DF93B92FA82FD92FC82F3E
:10033000EA81FB81309719F4ED81FE8103C00788C3
:10034000F08DE02D8A2F9B2F0995DF91CF91089595
:10035000CF93DF93B92FA82FD92FC82FEA81FB8124
:10036000309719F4EF81F88503C0018CF28DE02DF0
:100370008A2F9B2F0995DF91CF910895CF93DF931B
:10038000B92FA82FD92FC82FEA81FB81309719F4F4
:10039000E985FA8503C0038CF48DE02D8A2F9B2F0D
:1003A0000995DF91CF910895F92FE82F40E050E0B3
:1003B00060E070E0808191810E94A801892B19F092
:1003C0008FEF9FEF089580E090E00895F92FE82FD8
:1003D000808191810895CF92DF92EF92FF920F93E7
:1003E0001F93CF93DF93C82ED92E972F862F0E946D
:1003F0001B07E82EF92E8F5F9F4F71F449C00F5FE6
:100400001F4F32960830110559F487E190E0909320
:100410006B0280936A023CC003E010E0E8EBF0E07E
:1004200080819181892B59F787E090E00E94E50255
:10043000D92FC82F000F111F0E541F4FB12FA02FFF
:10044000CD93DC93209721F17F2D6E2D9D2D8C2D4A
:100450000E94F40299838883B12FA02FED91FC9123
:100460008F5F9F4F49F48E2F9F2F0E94E202F12F42
:10047000E02F118210820CC0F382E2821482B12F2D
:10048000A02FED91FC91168215828E2F9F2F02C016
:1004900080E090E0DF91CF911F910F91FF90EF905E
:1004A000DF90CF900895CF92DF92EF92FF920F935B
:1004B0001F93CF93DF93E82EF92EC42ED52E062F4F
:1004C000172FD92FC82F11C09D2D8C2D0E944807A2
:1004D0002FEF8F3F920721F41882EE24FF2409C0EA
:1004E0008993015010400A9719F00230110564F702
:1004F00018829F2D8E2DDF91CF911F910F91FF902C
:10050000EF90DF90CF900895CF93DF93CDB7DEB714
:1005100022970FB6F894DEBF0FBECDBF4C2F5D2FD4
:10052000455F5F4F5A83498369857A858F819885B6
:100530000E94BA0222960FB6F894DEBF0FBECDBF5E
:10054000DF91CF910895F92FE82F972F862FAE2FA7
:10055000BF2F0D900020E9F71197AE1BBF0B4A2F5C
:100560005B2F6E2F7F2FF92FE82F808191810E94C2
:10057000A8010895F92FE82F972F862F242F352FC4
:1005800060817181482F592F88EA91E00E948D0384
:100590000895EF92FF920F931F93082F192FE62EC5
:1005A000F72E0E94581A482F592F712F602FFF2DB8
:1005B000EE2D808191810E94BE011F910F91FF90CD
:1005C000EF9008950E94141308950E949712282F07
:1005D000392F892B31F48CE090E090936B0280935B
:1005E0006A02932F822F0895EF92FF920F931F9329
:1005F000CF93DF93CDB7DEB729970FB6F894DEBF60
:100600000FBECDBFE62EF72E082F192FFD2FEC2F92
:1006100031964C2F5D2F475F5F4F03C021930F5FD3
:100620001F4F302F381BB12FA02F2C91222329F0E0
:100630002A3319F0E417F50789F78C2F9D2F0196BF
:10064000F92FE82FE30FF11D10820E948C19B92FAA
:10065000A82F892B49F482E090E090936B0280935D
:100660006A028FEF9FEF19C0F12FE02F80818A334C
:1006700019F060E070E004C0712F602F6F5F7F4F52
:10068000FB2FEA2F058D168D20E030E05F2D4E2DDB
:100690008A2F9B2FE02FF12F099529960FB6F894FA
:1006A000DEBF0FBECDBFDF91CF911F910F91FF90A5
:1006B000EF900895CF92DF92EF92FF920F931F93E6
:1006C000CF93DF93C82ED92EE62EF72E042F152FA9
:1006D000D32FC22F0AC040E150E0712F602F9F2D11
:1006E0008E2DEC2DFD2D09956097C131D1059CF71C
:1006F0001C161D064CF44C2F5D2F712F602F9F2D63
:100700008E2DEC2DFD2D0995DF91CF911F910F912D
:10071000FF90EF90DF90CF9008952F923F924F92ED
:100720005F926F927F928F929F92BF92CF92DF9251
:10073000EF92FF920F931F93CF93DF93CDB7DEB766
:100740006B970FB6F894DEBF0FBECDBF998F888F21
:100750007B8F6A8F242E352E822E932E1D8A1C8A23
:10076000732D622D03C00894211C311CB32DA22DC2
:10077000FC90FF2019F0B5E2FB16A9F7132D022D0E
:10078000061B170B69F0512F402F8A8D9B8DE88D2A
:10079000F98D09952C893D89200F311F3D8B2C8BBC
:1007A000FF2009F42EC3F32DE22D31961982552432
:1007B0001B8A1A8A7FEF672E772E04C0882E992E07
:1007C000F32DE22DAE2FBF2FBD902A2E3B2EB0E28F
:1007D000BB1621F48981882399F703C02BE2B21656
:1007E00011F4B982EDCF3DE2B31619F444E0542A76
:1007F000E7CF53E2B51619F481E0582AE1CF90E330
:10080000B91619F4A0E15A2ADBCFBCE6BB1619F4DD
:10081000E8E05E2AD5CF2AE7B21691F23AE2B316A3
:10082000A9F4992D882D0296B92DA82D8D909C9014
:100830009B8A8A8A97FEC2CFB4E05B2AF92DE82D05
:10084000F095E195FF4FFB8BEA8BB8CF2EE2B21605
:1008500081F581818A3219F0662477241CC00894BE
:10086000211C311CB92DA82D6D907C90E2E0F0E0A8
:100870008E0E9F1E18C0972D862D6AE070E00E9494
:10088000A01A622E772467FC7094680E791E20ED02
:100890003FEF620E731E21813196822F80538A3082
:1008A00050F32E2E3F2E77FE8BCF6FEF662E762ED7
:1008B00087CF8B2D81538930F8F44B2D552740532A
:1008C00050405B8B4A8B0FC08A899B896AE070E03D
:1008D0000E94A01AA22FBB27A7FDB095A80FB91F91
:1008E000D097BB8BAA8B21813196822F80538A307F
:1008F00058F32E2E3F2E64CFF92DE82D4B2CB7E662
:10090000BB15E8F025E6B21608F0E2C130E5B316F3
:10091000D1F13B1548F045E4B41609F4D9C157E4C8
:10092000B51609F0D9C1D4C183E6B81621F18B15EB
:1009300008F480C098E5B91609F0CEC15FC1A0E700
:10094000BA1609F45BC1AB1548F0B9E6BB1609F459
:1009500071C02FE6B21609F0BFC1FCC035E7B3166F
:1009600009F467C048E7B41609F448C153E7B5165F
:1009700009F0B2C128C082E090E0880E991E808103
:100980008A831982AFC1A2E0B0E08A0E9B1EE0808C
:10099000F180E114F10439F452ECC52E50E0D52E6B
:1009A00043E7442E1DC09F2D8E2D0E94581A01969C
:1009B0000E94E502082F192F7F2D6E2D0E944E1ADE
:1009C000C02ED12E06C022E030E0820E931EC080E1
:1009D000D180C114D10421F432ECC32E30E0D32EE7
:1009E00077FC17C0572D462D60E070E09D2D8C2DB3
:1009F0000E94631A009719F4F72CE62C16C08C1984
:100A00009D09F72CE62C861597057CF4E82EF92E27
:100A10000CC0BD2DAC2D0D900020E9F7EA2EFB2E69
:100A20000894E108F108EC18FD081982662477247F
:100A3000DFC1198253FE0CC024E030E0820E931E09
:100A4000E080F1800281138135E7B316F1F429C00B
:100A5000B92DA82D1296F92DE82D00811181F5E709
:100A6000BF1649F48A2E9B2E312F202FE22EF32E13
:100A70000027112716C08A2E9B2E512F402FE42EBF
:100A8000F52E0027F7FC0095102F17FF0AC01095D0
:100A90000095F094E094E11CF11C011D111D8DE204
:100AA000898377FC02C05FEE5522E114F104010551
:100AB000110539F46114710451F422E1C22ED12CD4
:100AC0000CC08AE0E816F1040105110548F48E2DEA
:100AD000805D898B91E1C92ED12CCC0EDD1E28C002
:100AE00082E1C82ED12CCC0EDD1E912F802F7F2DC0
:100AF0006E2D2AE030E040E050E00E94CD1A605DAB
:100B0000BD2DAC2D6E93CA2EDB2E912F802F7F2D05
:100B10006E2D2AE030E040E050E00E94CD1AE22E37
:100B2000F32E042F152F2115310541055105E9F646
:100B30000C2F1D2F0C191D090E5E1F4FE02EF12EDC
:100B40000615170514F4172D062D8981882309F041
:100B5000D4C0D5C053FE09C024E030E0820E931EFD
:100B600000811181228133810AC042E050E0840E6D
:100B7000951E80819181082F192F2227332777FC1A
:100B800002C05FEE5522011511052105310549F41A
:100B90006114710431F4B2E1CB2ED12CCC0EDD1EE8
:100BA00023C0A2E1CA2ED12CCC0EDD1E802F87706F
:100BB000805DBD2DAC2D8E93CA2EDB2EF3E03695D5
:100BC000279517950795FA95D1F701151105210578
:100BD000310561F750FE08C0803331F080E3FB2F10
:100BE000EA2F8293CE2EDF2E1982EC2EFD2EEC18EA
:100BF000FD0822E130E0E20EF31EFAC030E7B31642
:100C000079F442E050E0840E951E80819181082F96
:100C1000192F2227332751E0552AE8E7BE2E15C0A9
:100C200053FE09C084E090E0880E991E0081118176
:100C3000228133810AC0A2E0B0E08A0E9B1E80812F
:100C40009181082F192F22273327198277FC02C0A0
:100C5000BFEE5B22E8E5BE1619F049EC50E002C099
:100C60004AED50E072E1C72ED12CCC0EDD1EF12FE3
:100C7000E02FEF70F070E40FF51F8081BD2DAC2DDB
:100C80008E93CA2EDB2E64E036952795179507952F
:100C90006A95D1F7011511052105310541F750FE7F
:100CA0000DC0FB2FEA2F3197B082CE2EDF2E089495
:100CB000C108D10880E3FD2DEC2D8083EC2EFD2EA4
:100CC000EC18FD0822E130E0E20EF31E4B2C90C040
:100CD00044E050E0840E951EBB2009F492C0BA8215
:100CE00019824B2C92E0C92ED12CCC0EDD1E66242D
:100CF000772481E0E82EF12C7BC00F5F1F4F852DFC
:100D000099279F8B8E8B482E592E94E1492255248A
:100D10004114510461F42A893B89201B310B4BEEAD
:100D200050E06A8D7B8D888D998D0E945A03898150
:100D3000882369F041E050E06C2F7D2F6F5F7F4F7B
:100D40008A8D9B8DA88DB98DEA2FFB2F0995B0E177
:100D50004B16510461F42A893B89201B310B4BEF60
:100D600050E06A8D7B8D888D998D0E945A036E1894
:100D70007F08372D262D4BEF50E06A8D7B8D888DB7
:100D8000998D0E945A03E114F10449F05F2D4E2D14
:100D90007D2D6C2D8A8D9B8DE88DF98D0995F0E563
:100DA000BF1621F49D2D8C2D0E94E2022E8922FF78
:100DB0000CC02A893B89201B310B4BEE50E06A8D19
:100DC0007B8D888D998D0E945A034A895B894017D3
:100DD00051073CF08C899D89840F951F9D8B8C8BCE
:100DE000BFCCAC89BD89A00FB11FBD8BAC8BB8CC7B
:100DF0001F2D0E2DE614F70414F4172D062DB42C18
:100E00007ECF8C899D896B960FB6F894DEBF0FBE9E
:100E1000CDBFDF91CF911F910F91FF90EF90DF90A9
:100E2000CF90BF909F908F907F906F905F904F90EA
:100E30003F902F900895F92FE82F8081823759F045
:100E4000873719F08136B1F403C081E093E41BC009
:100E500088E091E418C080E090E415C02B3219F0CE
:100E6000223641F404C08E7F826093600CC09F7B69
:100E7000906809C086E190E090936B0280936A02CB
:100E80008FEF9FEF089531962081222339F708953F
:100E90000F931F93CF93DF93CDB7DEB721970FB694
:100EA000F894DEBF0FBECDBF082F192FF92FE82F02
:100EB000848183FF05C0877F8483858196811FC0DD
:100EC00041E050E06C2F7D2F6F5F7F4FF12FE02FBF
:100ED000808191810E9492018130910571F0F12F02
:100EE000E02F2481892B11F0206103C02062F12FB3
:100EF000E02F24838FEF9FEF02C0898199272196ED
:100F00000FB6F894DEBF0FBECDBFDF91CF911F911A
:100F10000F9108959F918F910F900BBE0F900FBE70
:100F20001F9018952F923F924F925F926F927F92EF
:100F30008F929F92AF92BF92CF92DF92EF92FF92E9
:100F40000F931F93CF93DF938DB79EB7E0917202FB
:100F5000F0917302918B808BE0917002F09171029D
:100F6000F0937302E093720281E08787E09172024E
:100F7000F0917302808991898DBF9EBFDF91CF91DF
:100F80001F910F91FF90EF90DF90CF90BF90AF90A7
:100F90009F908F907F906F905F904F903F902F9099
:100FA0000895CF92DF92EF92FF920F931F93CF930A
:100FB000DF93082F192FE62EF72EC42ED52ED32F10
:100FC000C22F932F822F49960E949712F92FE82F54
:100FD000009719F480E090E080C0C80FD91F2C2F33
:100FE0003D2F275030404C2F5D2F4B5150408C2FC0
:100FF0009D2F069668E0B12FA02F0D900A2F1B2F72
:10100000B92FA82F0D928A2F9B2F6150A1F71E8612
:1010100041505040598B488B4F5F5F4FFC8BEB8B9F
:101020008FEE9EEBADEABEED80839183A283B38306
:1010300084839583A683B78380879187A287B387AC
:1010400084879587A687B78780E48A8B8F2D992719
:10105000F32FE22F8583E68280E883831282148255
:10106000C1828D2D992780832AE837E0832F992725
:10107000F52FE42F828B238B80916E0290916F026B
:1010800099838883D0936F02C0936E0212E01F870A
:101090001E8A1D8A188E1F8A60E772E08C2F9D2F92
:1010A0000E94B313E0917202F0917302309721F421
:1010B0000FB6F8940F9250CF809170029091710208
:1010C000E817F90741F017870FB6F8940F920E94BE
:1010D00092070F900FBE8C2F9D2FDF91CF911F9104
:1010E0000F91FF90EF90DF90CF900895CF93DF9313
:1010F000B92FA82FD92FC82FEA81FB8120911C027C
:10110000422F5527952F842F80739070892B89F05B
:1011100044FF04C083E18CB9206403C081E18CB931
:101120002F7B20931C0280911C028F7C80931C02D9
:101130004EC027FF02C055984AC0DB2FCA2F8A85B0
:101140009B85892B69F18A859B8501979B878A8777
:1011500080911D02882311F0509A01C0509881910E
:101160008CB92E2F3F2FFB2FEA2F868197812817CE
:10117000390711F424813581DB2FCA2F3B832A8361
:101180002A853B858C859D852817390701F5E889D7
:10119000F989309771F08FEFEF3FF807C1F012C077
:1011A0005598DB2FCA2F1B861A86E889F989309754
:1011B00029F48FEF9FEF998B888B09C08FEFEF3F5A
:1011C000F80729F084819581019695838483DF91C6
:1011D000CF910895CF93DF93B92FA82F3BB1809182
:1011E0001B02382B30931B026CB120911C0222236E
:1011F00061F0633119F45598206804C0613129F415
:10120000559A2F7720931C0256C0DB2FCA2F4A8590
:101210005B85888599854817590720F03860309399
:101220001B0249C04F5F5F4F41305105A9F4DB2FCE
:10123000CA2FE889F989309729F48FEF9FEF998BAE
:10124000888B1FC08FEFEF3FF807D9F0848195811D
:1012500001969583848315C0222399F0DB2FCA2F32
:101260008E859F854817590760F026FD0AC05D9B53
:1012700005C083E18CB920642F7D01C020622093DA
:101280001C02ED91FC91119761931196FC93EE93E2
:101290002D913C911197FB2FEA2F8681978128177A
:1012A000390729F48481958111969C938E93DB2FC5
:1012B000CA2F5B874A87DF91CF910895529B03C065
:1012C00089E090E0089588E090E0089580E090E063
:1012D000089581E090E0089580911B029927282FBE
:1012E000392F94E0369527959A95E1F744275527AD
:1012F000217030704070507083FD226080911C021C
:10130000882321F086FD426087FD486041FF4160EF
:1013100043FF446080911D02882331F0952F842F74
:10132000732F622F806405C0952F842F732F622F37
:10133000806880620895EF92FF920F931F93E62ECC
:10134000F72E082F192F80911C028823D9F00FB691
:10135000F8940F9200FF02C08F7B03C001FF03C00F
:10136000806480931C0202FF04C080911C028F776E
:1013700005C003FF05C080911C02806880931C0299
:101380000F900FBE06FF03C081E080931D0207FF90
:1013900002C010921D02E0FE05C080911B028F7EEC
:1013A00080931B02E1FE05C080911B02877F809322
:1013B0001B020E946C09687F6E157F0580079107EC
:1013C00019F08FEF9FEF02C080E090E01F910F9126
:1013D000FF90EF90089580E090E0089580911C02C6
:1013E000882329F060E270E080E090E0089560E0FA
:1013F00070E080E090E00895559A089590911C0265
:101400009923A9F096FF13C00FB6F8940F925D9B35
:1014100004C081E18CB99F7E01C0906190931C0251
:1014200080911C028F7980931C020F900FBE08954B
:101430000FB6F8940F925798569855980F900FBE84
:101440008AE00E94210B549853980895EF92FF92DE
:101450000F931F93E9B00E94390BFF240027112737
:101460000894E11CF11C011D111D24E0EE0CFF1C71
:10147000001F111F2A95D1F7512F402F3F2D2E2DE0
:101480000E94CD1A952F842F732F622F1F910F91D9
:10149000FF90EF90089540E050E060E070E08DE84C
:1014A00091E00E940C0D40E050E060E070E083E9C4
:1014B00091E00E940C0D80E090E0089540E551E03D
:1014C0006AEE78E08DE891E00E940C0D892B19F00E
:1014D0008FEF9FEF08954EE351E066E778E083E9F0
:1014E00091E00E940C0D892B19F480E090E00895A2
:1014F00040E050E060E070E08DE891E00E940C0D6B
:101500008FEF9FEF0895EF92FF920F931F93E62EB8
:10151000F72E082F192F0E94180A0E94390BE3E0BA
:10152000EE0CFF1C001F111FEA95D1F7512F402F21
:101530003F2D2E2D0E94CD1A2F5F3F4F4F4F5F4FF3
:1015400056954795379527952150304029B90FB6C4
:10155000F8940F9288EB8AB90F900FBE80E090E06C
:101560001F910F91FF90EF900895882319F08FEF4E
:101570009FEF089580E090E00895813019F08FEF9B
:101580009FEF089580E090E00895882319F08FEF91
:101590009FEF089580E090E008951F93182F0E9418
:1015A000180A5298193009F4529A0FB6F8940F920B
:1015B00088EB8AB90F900FBE529B03C089E090E080
:1015C00002C088E090E0181719F08FEF9FEF02C07B
:1015D00080E090E01F910895EF92FF920F931F9388
:1015E000E62EF72E082F192F65FF11C080911C02DF
:1015F000882341F40FB6F8940F9281E480931C0283
:101600000F900FBE20E230E040E050E00BC00FB67C
:10161000F8940F9210921C020F900FBE20E030E061
:1016200040E050E02E153F054007510719F08FEFBD
:101630009FEF02C080E090E01F910F91FF90EF902C
:1016400008951F93182F60911E0270911F028091C0
:1016500020029091210220EA3FE040E050E00E9409
:10166000CD1A822F932F0197F1F71A95D1F71F9179
:10167000089560911E0270911F0280912002909146
:101680002102089560E074E080E090E00895682F02
:10169000792F87B78D7F87BF80B7886080BF12BEE4
:1016A00082E083BF80B7992787709070892BD1F72C
:1016B00081E086BF0FB6F8940F9281E090E0A0E041
:1016C000B0E0B6B7B170E9F3B6BF0894811D911DC3
:1016D000A11DB6B7B170C9F3BB270F900FBE27E0AD
:1016E000880F991FAA1FBB1F2A95D1F780931E024E
:1016F00090931F02A0932002B093210287B78D7FA1
:1017000087BF80B7886080BF12BE89E083BF8FE14A
:1017100081BF80B7992787709070892BD1F782E0BD
:1017200086BF40E050E087E891E00E940C0D0895EC
:101730003AE0660F771F881F991F3A95D1F728EE78
:1017400033E040E050E00E94CD1A211531054105FB
:10175000510521F421E030E040E050E0952F842F46
:10176000732F622F0895282F392FF72FE62F87B771
:10177000482F55274270507087B78D7F87BF203123
:101780003105D9F0213131053CF42115310581F0C5
:101790002130310551F40EC02231310571F1223171
:1017A0003105E4F020323105E1F02FEF3FEF1FC0AB
:1017B00040E050E082E086BF18C006B601FE05C0DA
:1017C00081E090E09183808302C011821082452BDA
:1017D000A1F08081918180689183808320E030E056
:1017E00008C08EE090E09183808320E030E0452BBC
:1017F00031F087B7826087BF02C020E030E0932FCE
:10180000822F08951F920F920FB60F9211242F93DB
:101810003F934F935F936F937F938F939F93AF9378
:10182000BF93EF93FF9387E891E00E94FC0CFF9138
:10183000EF91BF91AF919F918F917F916F915F9148
:101840004F913F912F910F900FBE0F901F901895C1
:10185000282F392FF72FE62F8AB1482F55274078A8
:101860005070579820313105D9F0213131053CF4C1
:101870002115310581F02130310551F40EC022319E
:10188000310559F122313105DCF020323105D9F032
:101890008FEF9FEF1EC040E050E08CB18CB117C0BD
:1018A0005F9B05C081E090E09183808302C011823C
:1018B0001082452B91F08081918180689183808393
:1018C00080E090E008C080E190E09183808380E038
:1018D00090E0452B21F0579A089580E090E008951C
:1018E0001F920F920FB60F9211242F933F934F9395
:1018F0005F936F937F938F939F93AF93BF93EF9378
:10190000FF938DE891E00E94FC0CFF91EF91BF9155
:10191000AF919F918F917F916F915F914F913F9187
:101920002F910F900FBE0F901F901895282F392FD1
:10193000F72FE62F8AB1482F5527407250705598DF
:101940002131310519F1223131053CF421153105E0
:1019500051F12031310539F409C02231310519F135
:1019600020323105B1F08FEF9FEF19C05D9B05C0AC
:1019700081E090E09183808302C011821082452B28
:1019800091F08081918180689183808380E090E0F4
:1019900008C080E190E09183808380E090E0452B57
:1019A00021F0559A089580E090E008951F920F92DB
:1019B0000FB60F9211242F933F934F935F936F9322
:1019C0007F938F939F93AF93BF93EF93FF9383E99D
:1019D00091E00E94FC0CFF91EF91BF91AF919F911C
:1019E0008F917F916F915F914F913F912F910F90C8
:1019F0000FBE0F901F901895CF93DF93B92FA82F8C
:101A0000D92FC82FEA81FB81309719F08D919C91D5
:101A10000995DF91CF910895EF92FF920F931F9355
:101A2000CF93DF93D92FC82FE62EF72E042F152F33
:101A3000EC81FD81309719F480E090E005C060E012
:101A400070E080E090E0099519830883FB82EA82C8
:101A5000DF91CF911F910F91FF90EF900895CF9359
:101A6000DF93D92FC82FEC81FD81309719F48FEFC8
:101A70009FEF05C060E070E081E190E00995DF91A3
:101A8000CF910895CF93DF93D92FC82FEC81FD819B
:101A9000309719F48FEF9FEF05C060E070E082E1AE
:101AA00090E00995DF91CF9108950F931F93CF9305
:101AB000DF93CDB7DEB724970FB6F894DEBF0FBE25
:101AC000CDBF082F192F7C836B83F92FE82F24813A
:101AD00035812115310519F48FEF9FEF1CC06C2F54
:101AE0007D2F6F5F7F4F80E290E0E22FF32F09950B
:101AF000009789F4F12FE02F248135816C2F7D2F01
:101B00006D5F7F4F81E290E0E22FF32F0995009700
:101B100011F489819A8124960FB6F894DEBF0FBE26
:101B2000CDBFDF91CF911F910F9108950F931F9318
:101B3000CF93DF93CDB7DEB724970FB6F894DEBF0F
:101B40000FBECDBF082F192F7C836B83F92FE82F91
:101B5000248135812115310519F48FEF9FEF1CC0C9
:101B60006C2F7D2F6F5F7F4F88E190E0E22FF32F86
:101B70000995009789F4F12FE02F248135816C2F8E
:101B80007D2F6D5F7F4F89E190E0E22FF32F099564
:101B9000009711F489819A8124960FB6F894DEBFDC
:101BA0000FBECDBFDF91CF911F910F9108950F937D
:101BB0001F93CF93DF93F92FE82FC189D289EDA925
:101BC000FEA90995082F192F892B49F4CF5BDF4F08
:101BD000E881F98160E072EC81E090E00995912F55
:101BE000802FDF91CF911F910F910895CF93DF93B5
:101BF000D92FC82FEA81FB810188F289E02D0FB629
:101C0000F8940F9264A575A50F900FBE88279927A9
:101C1000DF91CF910895CF92DF92EF92FF920F93D1
:101C20001F93CF93DF93D92FC82F062F172FE42EA2
:101C3000F52EC22ED32E8C819D81288539850FB635
:101C4000F8940F92198618860F900FBE2617370743
:101C500091F0232B21F0009711F00E94E202011570
:101C6000110511F1912F802F0E94E502009729F4B0
:101C70008FEF9FEF1BC0672BB9F09D838C839983F7
:101C800088839B838A83800F911F9F838E83FD8629
:101C9000EC86DF86CE861B861A860FB6F8940F92E6
:101CA000198708870F900FBE80E090E0DF91CF91F9
:101CB0001F910F91FF90EF90DF90CF900895CF92FA
:101CC000DF92EF92FF920F931F93CF93DF93C42E77
:101CD000D52EB52FA42FED90FD900D911C912E2D9A
:101CE000F92FE82FC189D28961507140673271059F
:101CF00060F4605D7F4FF72FE62FEE0FFF1FC89552
:101D0000E3950F92C8950F9208950FEF1FEF3BC117
:101D1000CF5BDF4F56C0CD5BDF4FE881F98109957E
:101D2000BD2DAC2D6D937D938D939C93139729C1FD
:101D3000CB5BDF4FE881F981822F0995082F192F9E
:101D400022C1C95BDF4F0BC0C75BDF4FF3CFC55B61
:101D5000DF4F05C0C35BDF4FEDCFC15BDF4FE881D5
:101D6000F98109959927AA27BB2705C1E6FE10C06E
:101D7000FD2FEC2FB29626853785448555856085E5
:101D800071858E2F9F2F0E940B0EEBADFCAD099538
:101D9000E7FE0DC0FD2FEC2F709626853785448514
:101DA0005585608571858E2F9F2F0E940B0ECF5A0F
:101DB000DF4F8FE39FEFAFEFBFEFE822F9220A2357
:101DC0001B23E881F98151C0CD5ADF4FE881F981A9
:101DD000C355D0400995262F372F482F592FBD2D99
:101DE000AC2D6D937D938D939C9313978CA59DA59E
:101DF000892B39F42064FD2DEC2D2083318342831F
:101E000053838A8D9B8D892B09F0BBC0FD2DEC2D52
:101E100080819181A281B3818068AFC0E886F98614
:101E20000A871B87AEC088859985AA85BB85A3C014
:101E3000EC86FD860E871F87A4C08C859D85AE85A8
:101E4000BF8599C088819981AA81BB81EE2011F05C
:101E5000806425C08F7B23C088819981AA81BB8142
:101E600086FF2AC024C0EDADFEAD912F802F7F2DBF
:101E70006E2D099563CFEF96E881F9810995FD2DC7
:101E8000EC2D60837183828393837BC088819981E9
:101E9000AA81BB81EE2011F0806801C08F77888312
:101EA0009983AA83BB836DC0888187FF05C081E0C9
:101EB00090E0A0E0B0E05FC0BD2DAC2D1D921D9262
:101EC0001D921C9213975DC0CB5ADF4F33CFC95A76
:101ED000DF4F45CFFD2FEC2F709626853785448543
:101EE00055857F2D6E2D8E2F9F2F0E940B0E082F54
:101EF000192F892B09F047C0EBADFCAD099543C004
:101F0000888D998D36C0FD2FEC2FB29626853785AA
:101F1000448555857F2D6E2D8E2F9F2F0E940B0E91
:101F20000DCF8AA59BA525C00FB6F8940F92FD8E04
:101F3000EC8E1AC08C8D9D8D1CC00FB6F8940F923C
:101F4000FF8EEE8E11C08E8D9F8D13C00FB6F8944C
:101F50000F92FFA6EEA608C08EA59FA50AC00FB6D9
:101F6000F8940F92F9AAE8AA0F900FBE0AC088A9A8
:101F700099A9AA27BB27FD2DEC2D80839183A283ED
:101F8000B38300E010E0912F802FDF91CF911F915C
:101F90000F91FF90EF90DF90CF900895CF92DF9256
:101FA000EF92FF920F931F93CF93DF93C82ED92EFA
:101FB000042F152FF92FE82FC189D28983E0E82E4D
:101FC000F12CE422F522E114F10489F028E330E059
:101FD00048E250E060E470E08C2F9D2F40960E9414
:101FE0000B0E892BA9F4F1E0EF16F104A1F020EF1C
:101FF00030E040ED50E060E071E08C2F9D2F829644
:102000000E940B0E892B39F08C899D890E94E20277
:102010000FEF1FEF2EC086E090E00E94E5020097D0
:1020200039F48C899D890E94E2028EA19FA1EECF96
:102030000070107C288139814A815B8100501048F2
:1020400011F42F7701C02068288339834A835B838A
:10205000082F192FF92FE82F11821082D382C28204
:1020600015821482F1E0EF16F10419F0EBADFCAD2E
:102070000995912F802FDF91CF911F910F91FF90A4
:10208000EF90DF90CF900895CF93DF93B92FA82FD3
:10209000D92FC82FEA81FB81C189D28901978E5F30
:1020A0009F4F18F08FEF9FEF1CC08A2F9B2F0E942D
:1020B000E20220E030E040E050E060E070E08C2F91
:1020C0009D2F40960E940B0E20E030E040E050E053
:1020D00060E070E08C2F9D2F82960E940B0E80E0B6
:1020E00090E0DF91CF910895CF92DF92EF92FF922F
:1020F0000F931F93CF93DF93E82EF92EC42ED52E86
:10210000D92FC82F60960FB6F8940F928A859B85B9
:10211000860F971F9B878A8717C0FF2DEE2D81ADF5
:1021200092ADE82FF92F0995FF2DEE2D44855585A9
:10213000668577858C2F9D2F40960E940719892BE5
:1021400051F40FB6F8940F920A851B850F900FBEBD
:10215000C016D10610F3912F802FDF91CF911F91E0
:102160000F91FF90EF90DF90CF9008956F927F9244
:102170008F929F92AF92BF92CF92DF92EF92FF9297
:102180000F931F93CF93DF93CDB7DEB722970FB690
:10219000F894DEBF0FBECDBF842E952EA22EB32E97
:1021A000F92FE82FE188F288A0E16A2E712C6E0CDD
:1021B0007F1CF72DE62D80859185892B21F4FFEF7B
:1021C000CF2EDF2EAFC06115710559F440E050E00D
:1021D00060E070E09F2D8E2D0E947410C82ED92EC5
:1021E000A1C0FF2DEE2D80819181A281B381282F86
:1021F000392F4A2F5B2FE9E056954795379527955C
:10220000EA95D1F721702A8327E0B695A79597958F
:1022100087952A95D1F7817089830FB6F8940F922C
:10222000F72DE62D428553850F900FBE062F172FF1
:10223000CC24DD2460E070E05AC0242F352F260F17
:10224000371FF72DE62D868597852817390790F0DB
:10225000448555859F2D8E2D0E947410482F592F2F
:10226000F72DE62D848595858417950708F45AC0C7
:1022700060E070E0A114B10429F0F12FE02FC895BF
:10228000802D03C0B12FA02F8C91B981B13069F49A
:102290008A3081F4EA81E13019F0F2E0F98303C079
:1022A00082E08A8389838DE00AC09981923011F49B
:1022B000A1E0A9830F5F1F4F0894C11CD11CB72D4B
:1022C000A62DED91FC91119781931196FC93EE93BD
:1022D0002D913C91F72DE62D86819781281739079E
:1022E00021F484819581918380836F5F7F4FC8142F
:1022F000D9040CF4A2CF61157105A1F00FB6F894C2
:102300000F92F72DE62D82859385860F971F938771
:1023100082870F900FBEFF2DEE2D81AD92ADE82F7D
:10232000F92F09959D2D8C2D22960FB6F894DEBFBE
:102330000FBECDBFDF91CF911F910F91FF90EF9016
:10234000DF90CF90BF90AF909F908F907F906F90D5
:10235000089521E030E0F92FE82F828193810E94D7
:10236000B610089520E030E0F92FE82F82819381A4
:102370000E94B6100895AF92BF92CF92DF92EF9273
:10238000FF920F931F93CF93DF93E62EF72EA42E89
:10239000B52ED92FC82FEA81FB8101891289D12F4F
:1023A000C02FA296688579856115710519F48FEFA4
:1023B0009FEFB2C0E114F10471F42E853F854C8586
:1023C0005D858C2F9D2F0E940B0ED12FC02FEBAD62
:1023D000FCAD09951EC00FB6F8940F926A857B85F7
:1023E0000F900FBE61157105B9F4F12FE02F83AD89
:1023F00094ADE82FF92F0995F12FE02F40855185F5
:10240000628573858C2F9D2F40960E940719892B1A
:1024100011F380E090E080C0BF2DAE2DF12FE02FB2
:10242000808187FF38C0CC24DD24EE24FF245AE0CD
:102430002EC0E616F70609F456C0EA81FB814191E9
:10244000FB83EA832A813B818E819F81281739078C
:1024500021F48C819D819B838A834D3011F04A3019
:1024600061F4F12FE02F84A9882311F0841761F41F
:10247000F12FE02F44AB5D9304C0F12FE02F14AA9D
:102480004D930894C11CD11C0894E11CF11CCA1482
:10249000DB0478F225C0C62ED72EA616B70610F498
:1024A000DB2CCA2C40E050E0BF2DAE2D14C0EA81D9
:1024B000FB8181918C93FB83EA832A813B818E810E
:1024C0009F812817390721F48C819D819B838A8302
:1024D0004F5F5F4F11964C155D0549F7FD2CEC2CB5
:1024E000E114F104B9F00FB6F8940F928A859B8538
:1024F0008E199F099B878A870F900FBE2A853B857F
:102500008C859D852817390728F4D12FC02FEBAD76
:10251000FCAD09959D2D8C2DDF91CF911F910F91D1
:10252000FF90EF90DF90CF90BF90AF9008950F9302
:102530001F93CF93DF930091220210912302801703
:10254000910740F080E090E06AC0CE2FDF2FB72FD8
:10255000A62F34C0482F592F4A5F5F4F4430510592
:1025600010F444E050E0E0916C02F0916D026CE6F2
:1025700072E0C0E0D0E0A0E0B0E01AC0208131817C
:102580002417350770F024173507F9F2209729F042
:10259000888199812817390720F4CE2FDF2FB72F94
:1025A000A62F6E2F7F2F6E5F7F4F0280F381E02D6D
:1025B000309721F78C2F9D2F209789F12881398121
:1025C000952F842F0A966A817B818217930778F46E
:1025D000FD2FEC2FE40FF51F241B350B31832083D7
:1025E0007383628359834883ED93FC9302C06D9398
:1025F0007C93E881F9810E1B1F0B1093230200933B
:102600002202EC0FFD1F34978FEE9EEBADEABEED7C
:1026100080839183A283B3838C2F9D2F0296DF91B9
:10262000CF911F910F910895CF93DF93B92FA82FCA
:1026300012976D917C911197E0916C02F0916D026F
:10264000CCE6D2E041C0408151818E2F9F2F840F74
:10265000951F8A179B07D9F4242F352F260F371F74
:102660003183208382819381AE2FBF2FA20FB31FAE
:10267000A817B907C1F58D919C911197280F391FA3
:1026800031832083DB2FCA2F8A819B812AC0AE171A
:10269000BF0788F4B983A8832D913C9111978A2FA5
:1026A0009B2F820F931F8E179F0791F0DB2FCA2F4E
:1026B000FB83EA8318C0A817B90748F1CE2FDF2F94
:1026C00022960280F381E02D309709F0BCCF18C02C
:1026D000240F351F11963C932E9382819381FB2FFB
:1026E000EA2F938382838091220290912302860FA6
:1026F000971F909323028093220280E090E009C00C
:10270000FB2FEA2F13821282B983A883ECCF8FEFBD
:102710009FEFDF91CF910895F92FE82F6193719387
:102720008E2F9F2F0E941413089580912202909162
:10273000230208950F931F93CF93DF93082F192F30
:102740000E949712D92FC82F009731F0512F402F98
:1027500060E070E00E94721A8C2F9D2FDF91CF9164
:102760001F910F910895CF93DF93B92FA82F262F94
:10277000372FD92FC82F788F6F8B1D821C820FB6F1
:10278000F8940F92D72FC62FE881F9818FEFEF3F92
:10279000F80751F4DB2FCA2F8C819D8101969D8310
:1027A0008C83E0E0F0E017C03097A9F00F900FBEE7
:1027B000DB2FCA2F9A8909C02E2F3F2F2E5F3F4F44
:1027C0000280F381E02D309719F082899817A0F7E5
:1027D0000FB6F8940F92DB2FCA2FFB83EA83F32FF7
:1027E000E22FB183A083EA81FB81309771F084816D
:1027F0009581892B51F08C819D8124813581820FB7
:10280000931F9D838C83158214820F900FBEDF91DE
:10281000CF910895CF93DF93282F392FB72FA62F6D
:102820000FB6F8940F92ED91FC9111970F900FBE97
:102830008FEFEF3FF80751F52BC082819381E217AC
:10284000F307F9F40FB6F8940F9211969C938E93B8
:1028500084819581892B61F0A281B381109731F039
:1028600084819581DB2FCA2F9D838C8315821482EE
:102870000F900FBEF32FE22F13821282108E178A51
:1028800007C0AE2FBF2F1296F92FE82F3097A9F669
:10289000DF91CF910895F72FE62F168A158A82E0EF
:1028A000878760E772E08E2F9F2F0E94B3130895F1
:1028B0000F931F93CF93DF93082F192FC0916E02B0
:1028C000D0916F020FC0712F602F8C2F9D2F069615
:1028D0000E948B1A892B19F48C2F9D2F07C0099009
:1028E000D881C02D209779F780E090E0DF91CF91DB
:1028F0001F910F910895E0917402F0917502309745
:1029000041F0838994890E941413109275021092E9
:1029100074020895CF93DF93C0916E02D0916F023D
:102920000E947B142091720230917302EEE6F2E075
:102930000CC088819981C217D30719F491838083D1
:1029400006C0FD2FEC2FD92FC82F209791F780912B
:102950007202909173029093750280937402DF91DA
:10296000CF9108950F931F93182FE0917202F09169
:102970007302028960E772E08E2F9F2F0E940A1473
:10298000E0917202F0917302128B1F3F49F060E7F1
:1029900072E080917202909173020E94B31302C0A0
:1029A0000E948A14E0917202F09173028091700289
:1029B00090917102E817F90719F481E0878709C03F
:1029C00082E087870FB6F8940F920E9492070F90CB
:1029D0000FBE802F99271F910F9108958FEF0E94AE
:1029E000B2140895CF93DF93C0916E02D0916F021D
:1029F00021C00FB6F8940F928C819D810F900FBE6D
:102A0000892BA9F0EF89F88D0FB6F8940F928C817D
:102A10009D8101979D838C830F900FBE8081918152
:102A20008F5F9F4F21F08E2F9F2F0E9415180990C6
:102A3000D881C02D2097E9F60E94CC16E091720251
:102A4000F09173028091700290917102E817F9077A
:102A500061F08785813011F482E087870FB6F894A2
:102A60000F920E9492070F900FBEDF91CF910895B1
:102A7000E0917202F091730282819381892B71F04F
:102A800060E772E08E2F9F2F0E940A1460E772E0C9
:102A900080917202909173020E94B3130E94F2140B
:102AA00008958091780290917902A0917A02B09174
:102AB0007B020196A11DB11D80937802909379024B
:102AC000A0937A02B0937B020895CF93DF93D92F1E
:102AD000C82F1B821A82E0917602F09177021AC009
:102AE000288539854A855B8580859185A285B38552
:102AF000281739074A075B0780F0281B390B4A0B58
:102B00005B0B288739874A875B87FB83EA830190C1
:102B1000F081E02D309721F718C0821B930BA40B96
:102B2000B50B80879187A287B387F983E883D38326
:102B3000C283EA81FB81309719F0D183C08308C03A
:102B4000D0937702C093760203C019821882F1CF26
:102B5000DF91CF9108950FB6F8940F9260917802AB
:102B60007091790280917A0290917B020F900FBE52
:102B70000895CF93DF93D92FC82FEA81FB818881F5
:102B80009981309719F09183808304C090937702E4
:102B900080937602E881F9813097A1F08A819B8148
:102BA0009383828380859185A285B3852885398525
:102BB0004A855B85820F931FA41FB51F808791876D
:102BC000A287B3878C2F9D2F0E941413DF91CF9182
:102BD0000895AF92BF92CF92DF92EF92FF920F9340
:102BE000CF93DF93C62ED72EE82EF92ED52FC42FE4
:102BF000A22EB32E80E190E00E949712F92FE82FC9
:102C0000892B81F10FB6F8940F9280917802909100
:102C10007902A0917A02B0917B020F900FBE8C0DC9
:102C20009D1DAE1DBF1D20912402309125024091B3
:102C3000260250912702821B930BA40BB50B8087B1
:102C40009187A287B38700FF05C014821582168280
:102C5000178204C0C482D582E682F782D587C487F2
:102C6000B786A6868E2F9F2FDF91CF910F91FF9071
:102C7000EF90DF90CF90BF90AF9008950F93CF93D8
:102C8000DF930E94E915D92FC82F009711F00E94F9
:102C900065158C2F9D2FDF91CF910F910895CF92C5
:102CA000DF92EF92FF920F93C42ED52EE22EF32ED9
:102CB0000E94980B3F2D2E2D5D2D4C2D0E943E160F
:102CC0000F91FF90EF90DF90CF900895AF92BF9259
:102CD000CF92DF92EF92FF920F93CF93DF93A62EC6
:102CE000B72EC82ED92E611571058105910509F4FD
:102CF0003FC0C0E7D2E06C2F7D2F8091720290918F
:102D000073020E940A14E0917202F091730283E050
:102D10008787E0907202F090730201E03F2D2E2D24
:102D20004BE454E19D2D8C2D7B2D6A2D0E944F1676
:102D3000FF2DEE2D968B858B892B19F00E94F214B6
:102D400019C0E0917202F0917302D08FC78B80910D
:102D50007002909171029383828381E087878091D2
:102D6000720290917302909371028093700202C07C
:102D70000E943815DF91CF910F91FF90EF90DF9077
:102D8000CF90BF90AF90089581E595E10E94470BE9
:102D900087B7826087BF0895EF92FF920F931F93CA
:102DA000CF93DF930FB6F8940F9220917802309171
:102DB000790240917A0250917B020F900FBE809170
:102DC000240290912502A0912602B0912702E22EC2
:102DD000F32E042F152FE81AF90A0A0B1B0B209368
:102DE000240230932502409326025093270254C0B8
:102DF00088859985AA85BB85E816F9060A071B0709
:102E0000B0F48E199F09A00BB10B88879987AA8708
:102E1000BB870097A105B10529F0EE24FF24002708
:102E200011273AC0EE24FF240027112708C0E81A12
:102E3000F90A0A0B1B0B188619861A861B86EC8565
:102E4000FD85309729F06E857F858C2F9D2F099504
:102E50008C819D81AE81BF8188879987AA87BB8736
:102E60000097A105B10529F48C2F9D2F0E94B9155B
:102E700013C0E0917602F09177020190F081E02D8D
:102E8000F0937702E0937602309711F0138212826A
:102E90008C2F9D2F0E946515C0917602D0917702EC
:102EA000209731F0E114F1040105110509F0A0CFDC
:102EB000DF91CF911F910F91FF90EF9008952F9286
:102EC0003F924F925F926F927F928F929F92AF92BA
:102ED000BF92CF92DF92EF92FF920F931F93CF9307
:102EE000DF93CDB7DEB724970FB6F894DEBF0FBEE1
:102EF000CDBF0FB6F8940F92A0907802B0907902EF
:102F0000C0907A02D0907B020F900FBE0E94420BBD
:102F1000262F372F482F592F9D2D8C2D7B2D6A2D35
:102F20000E94CD1A622E732E842E952E0E94420B83
:102F3000262E372E482E592E0E94420B69837A8303
:102F40008B839C8328EE33E040E050E0992D882D60
:102F5000772D662D0E94B21AE62EF72E082F192F14
:102F6000552D442D332D222D992D882D772D662D0D
:102F70000E94B21AA61AB70AC80AD90A28EE33E084
:102F800040E050E09D2D8C2D7B2D6A2D0E94B21AC1
:102F900029813A814B815C810E94CD1AE20EF31E99
:102FA000041F151F912F802F7F2D6E2D24960FB695
:102FB000F894DEBF0FBECDBFDF91CF911F910F916F
:102FC000FF90EF90DF90CF90BF90AF909F908F9049
:102FD0007F906F905F904F903F902F900895EF9269
:102FE000FF920F931F930FB6F8940F92E090780220
:102FF000F090790200917A0210917B020F900FBE3F
:103000000E94420B262F372F482F592F912F802FA8
:103010007F2D6E2D0E94CD1A952F842F732F622F36
:103020001F910F91FF90EF900895CF93DF93B92FE9
:10303000A82F0FB6F8940F92CD91DC9111970F90B5
:103040000FBE8FEFCF3FD80709F43BC0209779F12F
:103050000FB6F8940F92EA81FB811196FC93EE93E0
:103060008C819D81892B71F0309729F08C819D8115
:103070009583848305C08FEF9FEF11969C938E9369
:103080001D821C820F900FBE8D899E89009721F0B2
:103090000E94B9151E8A1D8A82E08F8760E772E060
:1030A0008C2F9D2F0E94B31381E090E00CC00FB6CF
:1030B000F8940F928FEF9FEF11969C938E930F9041
:1030C0000FBE80E090E0DF91CF9108950F931F93A2
:1030D000CF93DF93D92FC82F0FB6F8940F92888122
:1030E00099810F900FBE2FEF8F3F920741F40FB6DB
:1030F000F8940F92198218820F900FBE02C0892B8C
:1031000019F400E010E013C000E010E08C2F9D2FB8
:103110000E941518080F191F0FB6F8940F92888196
:1031200099810F900FBE01978E5F9F4F78F3912F7B
:10313000802FDF91CF911F910F9108950F931F93CF
:103140000E946618082F192F0E943815912F802F82
:103150001F910F9108950F931F930E941518082F28
:10316000192F0E943815912F802F1F910F910895CC
:10317000CF93DF93482F592FB72FA62F0FB6F89470
:103180000F92CD91DC9111970F900FBE8FEFCF3F33
:10319000D80709F036C038C08D899E892A813B81C5
:1031A0008417950749F50FB6F8940F9211963C9342
:1031B0002E938C819D81892B81F0EA81FB81309750
:1031C00029F08C819D819583848305C08FEF9FEFCB
:1031D00011969C938E931D821C820F900FBE82E0ED
:1031E0008F8760E772E08C2F9D2F0E94B3138FEFC3
:1031F0009FEF9E8B8D8B08C0AC2FBD2F1296D32FC7
:10320000C22F209709F0C8CFDF91CF910895AF92D8
:10321000BF92CF92DF92EF92FF920F93CF93DF9303
:10322000D92FC82FA42EB52EC62ED72E0FB6F894A0
:103230000F92888199810F900FBE8F5F9F4F51F43D
:103240000FB6F8940F92198218820F900FBE0E9449
:1032500038153EC060E772E080917202909173026F
:103260000E940A146C2F7D2F80917202909173023C
:103270000E94B313E0917202F091730283E087879A
:10328000E0907202F0907302A114B104C104D10461
:1032900081F001E02C2F3D2F48EB58E19D2D8C2D26
:1032A0007B2D6A2D0E944F16FF2DEE2D968B858B60
:1032B00004C0FF2DEE2D168A158A0E94F214E091AB
:1032C0007202F0917302858996898F5F9F4F19F082
:1032D00080E090E004C0168A158A8FEF9FEFDF919F
:1032E000CF910F91FF90EF90DF90CF90BF90AF9074
:1032F0000895F92FE82F0FB6F8940F9280819181ED
:103300008F5F9F4F11F4118210820F900FBE8E2F8E
:103310009F2F0E94071908950F931F93CF93DF9358
:10332000082F192FC0912802D09129020CC0712FAB
:10333000602F8C2F9D2F02960E948B1A892B29F0CB
:103340000990D881C02D209791F78C2F9D2FDF9168
:10335000CF911F910F910895CF93DF93D92FC82F4D
:10336000892B21F16115710511F07D876C87411161
:103370004E878C2F9D2F02960E948C19892BB1F4B9
:10338000EB89FC89309729F08C2F9D2F0995892B8B
:1033900069F4809128029091290299838883D093BF
:1033A0002902C093280280E090E002C08FEF9FEFD7
:1033B000DF91CF91089583E180937C028FE4809325
:1033C0007D0283E580937E0243E150E06CE772E08A
:1033D00080E090E00E94101A892B19F08FEF9FEF88
:1033E000089580E090E0089543E150E06CE772E0DA
:1033F00080E090E00E94131A892B79F480917C027E
:10340000833159F480917D028F3439F480917E02AA
:10341000833519F480E090E008958FEF9FEF0895D1
:103420000E94161A08950E943B1A0895CF93DF93C5
:10343000D52FC42F282F392F40E050E0F72FE62F4B
:1034400012C0B32FA22F0E94F41A802D90819817DA
:1034500029F0B32FA22F092E0E94FC1A4F5F5F4F55
:1034600031962F5F3F4F4C175D0759F780E090E092
:10347000DF91CF910895CF93DF93D52FC42FB92F2C
:10348000A82FF72FE62F219724F00E94F41A01921B
:10349000FACF80E090E0DF91CF910895E62FF72FEB
:1034A000A82FB92FC89531960D920020D9F708950D
:1034B000E82FF92FC89531960020E1F78095909577
:1034C0008E0F9F1F0895E82FF92F4150504038F07C
:1034D00001900616D1F731978E2F9F2F08958827D8
:1034E00099270895A82FB92F40FF03C001C06D93FD
:1034F0006D9342505040D8F70895E82FF92F01906E
:10350000061629F00020D9F78827992708953197C2
:103510008E2F9F2F0895E62FF72FA82FB92F8D916B
:103520000190801911F40020D1F7990B0895E62F2E
:10353000F72FA82FB92F01900D920020E1F70895E1
:103540005527002480FF02C0060E571F660F771F05
:103550006115710521F096958795009799F7952F3C
:10356000802D0895FF27EE27BB27AA2760FF04C000
:10357000A20FB31FE41FF51F220F331F441F551F57
:10358000969587957795679589F70097760771F7F0
:103590009F2F8E2F7B2F6A2F0895A1E21A2EAA1B30
:1035A000BB1BEA2FFB2F0DC0AA1FBB1FEE1FFF1F67
:1035B000A217B307E407F50720F0A21BB30BE40B37
:1035C000F50B661F771F881F991F1A9469F760957E
:1035D000709580959095262F372F482F592F6A2F59
:1035E0007B2F8E2F9F2F0895E199FECFBFBBAEBBDF
:1035F000E09A11960DB20895E199FECFBFBBAEBB24
:103600000DBA11960FB6F894E29AE19A0FBE08959A
:10361000722B007561727430000A456E74657220F9
:10362000796F7572206E616D653A20000A48656C8D
:103630006C6F202573210A000A4E75742F4F53209A
:10364000554152542053616D706C650A00880065C5
:10365000746865726E75740069646C65006D61698B
:103660006E000100020003000000000000000000E6
:103670000000286E756C6C290030313233343536D9
:10368000373839616263646566003031323334350E
:103690003637383941424344454600202020202017
:1036A00020202020202020202020203030303030CA
:1036B00030303030303030303030300000756172B2
:1036C0007430000000000500000000002E01D70D3E
:1036D0005F0EBB11B211A911CE0F4410F60D000000
:1036E00000000000000000000000000000000000DA
:1036F00000000000000000000000000000000000CA
:1037000000000000000000000000000000000000B9
:103710000000005E0A4B0AFC09FE09EC0AEE098370
:103720000A260ACD0A5E09B50A6609BD0A69099B1F
:10373000096C09C50AEB0900000000B30B0000008A
:0A37400000280C00000000960C00A9
:00000001FF
