:100000000C9446000C9492000C9492000C94920074
:100010000C9492000C9492000C9492000C94920018
:100020000C9492000C9492000C9492000C94920008
:100030000C9492000C9492000C9492000C94340A4C
:100040000C9492000C9492000C9492000C949200E8
:100050000C9492000C9492000C9492000C949200D8
:100060000C9492000C9492000C9492000C949200C8
:100070000C9492000C9492000C9492000C949200B8
:100080000C9492000C9492000C94920080EC85BF2A
:1000900087E089B98093990011241FBECFEFD0E18A
:1000A000DEBFCDBF12E0A0E0B1E0E4E3FCE100E0A0
:1000B0000BBF02C007900D92A236B107D9F712E02C
:1000C000A2E6B2E001C01D92AC3DB107E1F78FEFAF
:1000D0009FE79EBF8DBF8FEF9FE78C5D9240815859
:1000E000914040F06FEF7EE76C5D72408CED92E0E6
:1000F0000E9474020E946208892B41F065E172E05F
:100100008AEC92E00E94BE0D0E94490820E831E08E
:1001100040E050E06BE671E08EE192E00E94C5089D
:100120000C9400000C940000CF93DF93CDB7DEB7A2
:1001300024970FB6F894DEBF0FBECDBF80E092ECDF
:10014000A1E0B0E089839A83AB83BC8340E060E0A8
:1001500070E08FE292E00E941D084091540250919D
:10016000550260E071E082E091E00E944B0C8091CA
:100170005402909155020E94EB0BAE014F5F5F4F0E
:1001800061E071E00E94D90B88E091E00E94B60C1A
:1001900081E291E00E94B60C82E692E00E94340770
:1001A00020E031E040E050E069E371E08DE391E070
:1001B0000E94C50820E031E040E050E060E171E0DD
:1001C00082E491E00E94C50886E491E00E94B60CAA
:1001D00048EE53E060E070E082E692E00E9487071C
:1001E000892B29F087E591E00E94B60C12C088E6C1
:1001F00091E00E94B60C6CED75E080E090E00E940A
:100200001F058AE791E00E94B60C82E692E00E9408
:10021000340768EE73E080E090E00E941F05D4CFC1
:1002200080E60E947D038BE891E00E94B60C48EBCB
:100230005BE060E070E082E692E00E948707892B35
:1002400029F085EA91E00E94B60CEDCF8FEB91E0AA
:100250000E94B60C6CEA7DE080E090E00E941F05F1
:100260008AED91E00E94B60C82E692E00E9434078B
:10027000DACF80E20E947D0384EF91E00E94B60C09
:1002800040ED57E060E070E082E692E00E94870770
:10029000892B29F08CEF91E00E94B60C12C084E00B
:1002A00092E00E94B60C64EC79E080E090E00E945D
:1002B0001F058DE092E00E94B60C82E692E00E945B
:1002C000340768EE73E080E090E00E941F05D4CF11
:1002D0008093280208950E94750520E033E040E0F5
:1002E00050E064E970E083E292E00E94C5088EEF7E
:1002F0000E947D030E9401040E944803209128026D
:100300002F3FC1F395B785B7837E822B85BF85B715
:10031000806285BF889585B78F7D85BF85B7837ED1
:100320009C71892B85BFE6CF0F931F93CF93DF93EB
:1003300000916502109166028017910730F080E00D
:1003400090E060C0EF01DB012FC0AC014A5F5F4F5E
:100350004430510510F444E050E0E091B702F091D0
:10036000B80267EB72E0C0E0D0E0A0E0B0E017C0F8
:10037000208131812417350760F02417350711F3E8
:10038000209729F0888199812817390710F4EF0107
:10039000DB01BF016E5F7F4F0280F381E02D30975C
:1003A00039F7CE01209771F128813981CA010A9667
:1003B0006A817B818217930770F4FE01E40FF51FB9
:1003C000241B350B318320837383628359834883D5
:1003D000ED93FC9302C06D937C93E881F9810E1B31
:1003E0001F0B1093660200936502EC0FFD1F3497FC
:1003F0008FEE9EEBADEABEED80839183A283B38343
:10040000CE010296DF91CF911F910F910895CF9366
:10041000DF93DC0112976D917C911197E091B70207
:10042000F091B802C7EBD2E03AC040815181CF01D0
:10043000840F951F8A179B07C1F49A01260F371F57
:100440003183208382819381DF01A20FB31FA8171C
:10045000B90791F58D919C911197280F391F318320
:100460002083ED018A819B8125C0AE17BF0778F4F8
:10047000B983A8832D913C911197CD01820F931FD1
:100480008E179F0779F0ED01FB83EA8315C0A8174B
:10049000B90728F1EF0122960280F381E02D309711
:1004A00021F617C0240F351F11963C932E9382819D
:1004B0009381FD019383828380916502909166020E
:1004C000860F971F909366028093650280E090E00C
:1004D00008C0FD0113821282B983A883EDCF8FEF8C
:1004E0009FEFDF91CF910895FC0161937193CF014C
:1004F0000E94070208958091650290916602089516
:100500000F931F93CF93DF938C010E949401EC0112
:10051000009729F0A80160E070E00E94AD0DCE01C7
:10052000DF91CF911F910F910895CF93DF93DC015D
:100530009B01EC01788F6F8B1D821C820FB6F894A3
:100540000F92EB01E881F9818FEFEF3FF80749F453
:10055000ED018C819D8101969D838C83E0E0F0E02C
:1005600015C0309799F00F900FBEED019A8908C021
:100570009F012E5F3F4F0280F381E02D309719F0ED
:1005800082899817A8F70FB6F8940F92ED01FB83B4
:10059000EA83F901B183A083EA81FB81309771F08E
:1005A00084819581892B51F08C819D8124813581B5
:1005B000820F931F9D838C83158214820F900FBE30
:1005C000DF91CF910895CF93DF939C01DB010FB6AC
:1005D000F8940F92ED91FC9111970F900FBE8FEF51
:1005E000EF3FF80731F527C082819381E217F307C7
:1005F000E9F40FB6F8940F9211969C938E93848130
:100600009581892B59F0A281B381109729F08481BB
:100610009581ED019D838C83158214820F900FBE0E
:10062000F90113821282108E178A05C0DF0112961B
:10063000FC013097C9F6DF91CF910895FB01168A2E
:10064000158A82E087876BEB72E0CF010E949502EA
:1006500008950F931F93CF93DF938C01C091B9023C
:10066000D091BA020CC0B801CE0106960E94B40D1A
:10067000892B11F4CE0107C00990D881C02D209795
:1006800091F780E090E0DF91CF911F910F91089555
:10069000E091BF02F091C002309741F083899489C4
:1006A0000E9407021092C0021092BF020895CF93D9
:1006B000DF93C091B902D091BA020E944803209101
:1006C000BD023091BE02E9EBF2E00AC08881998157
:1006D000C217D30719F49183808304C0FE01EC0193
:1006E0002097A1F78091BD029091BE029093C00225
:1006F0008093BF02DF91CF9108950F931F93182F1E
:10070000E091BD02F091BE0202896BEB72E0CF0175
:100710000E94E302E091BD02F091BE02128B1F3FE6
:1007200049F06BEB72E08091BD029091BE020E9495
:10073000950202C00E945703E091BD02F091BE02F3
:100740008091BB029091BC02E817F90719F481E08F
:10075000878709C082E087870FB6F8940F920E94BE
:1007600086080F900FBE802F99271F910F91089533
:100770008FEF0E947D030895CF93DF93C091B9025C
:10078000D091BA0220C00FB6F8940F928C819D814F
:100790000F900FBE892BA1F0EF89F88D0FB6F8945A
:1007A0000F928C819D8101979D838C830F900FBE4A
:1007B000808191818F5F9F4F19F0CF010E94A50624
:1007C0000990D881C02D2097F1F60E947D05E09117
:1007D000BD02F091BE028091BB029091BC02E8176D
:1007E000F90761F08785813011F482E087870FB6C1
:1007F000F8940F920E9486080F900FBEDF91CF9160
:100800000895E091BD02F091BE0282819381892B0F
:1008100069F06BEB72E0CF010E94E3026BEB72E0D8
:100820008091BD029091BE020E9495020E94BC037D
:1008300008958091C3029091C402A091C502B09125
:10084000C6020196A11DB11D8093C3029093C402FC
:10085000A093C502B093C6020895CF93DF93EC0135
:100860001B821A82E091C102F091C2021AC028854F
:1008700039854A855B8580859185A285B385281752
:1008800039074A075B0780F0281B390B4A0B5B0BC3
:10089000288739874A875B87FB83EA830190F08149
:1008A000E02D309721F718C0821B930BA40BB50BDA
:1008B00080879187A287B387F983E883D383C28334
:1008C000EA81FB81309719F0D183C08308C0D093AF
:1008D000C202C093C10203C019821882F1CFDF9116
:1008E000CF9108950FB6F8940F926091C302709162
:1008F000C4028091C5029091C6020F900FBE089568
:10090000CF93DF93EC01EA81FB8188819981309755
:1009100019F09183808304C09093C2028093C10236
:10092000E881F9813097A1F08A819B81938382834A
:1009300080859185A285B385288539854A855B8523
:10094000820F931FA41FB51F80879187A287B3874B
:10095000CE010E940702DF91CF910895AF92BF921E
:10096000CF92DF92EF92FF920F93CF93DF936B01C1
:100970007C01EA01590180E190E00E949401FC01B0
:10098000892B81F10FB6F8940F928091C302909158
:10099000C402A091C502B091C6020F900FBE8C0D8B
:1009A0009D1DAE1DBF1D20916702309168024091D0
:1009B000690250916A02821B930BA40BB50B8087CE
:1009C0009187A287B38700FF05C014821582168223
:1009D000178204C0C482D582E682F782D587C48795
:1009E000B786A686CF01DF91CF910F91FF90EF9050
:1009F000DF90CF90BF90AF9008950F93CF93DF9388
:100A00000E94AE04EC01009711F00E942D04CE016B
:100A1000DF91CF910F910895CF92DF92EF92FF92E5
:100A20000F936A0179010E94CF099701A6010E94E4
:100A3000FD040F91FF90EF90DF90CF900895AF925B
:100A4000BF92CF92DF92EF92FF920F93CF93DF93FB
:100A50005B016C016115710581059105D1F1CBEB4D
:100A6000D2E0BE018091BD029091BE020E94E302DD
:100A7000E091BD02F091BE0283E08787E090BD0265
:100A8000F090BE0201E097014EE153E0C601B501CE
:100A90000E940C05F701968B858B892B19F00E941B
:100AA000BC0319C0E091BD02F091BE02D08FC78B8C
:100AB0008091BB029091BC029383828381E08787FF
:100AC0008091BD029091BE029093BC028093BB02C4
:100AD00002C00E940104DF91CF910F91FF90EF902F
:100AE000DF90CF90BF90AF90089589E194E00E948D
:100AF0007F0987B7826087BF0895EF92FF920F93B7
:100B00001F93CF93DF930FB6F8940F922091C302F7
:100B10003091C4024091C5025091C6020F900FBEA1
:100B20008091670290916802A0916902B0916A0277
:100B300079018A01E81AF90A0A0B1B0B2093670254
:100B4000309368024093690250936A024FC08885CF
:100B50009985AA85BB85E816F9060A071B07A0F444
:100B60008E199F09A00BB10B88879987AA87BB872D
:100B70000097A105B10521F0EE24FF24870136C0BE
:100B8000EE24FF24870108C0E81AF90A0A0B1B0BA0
:100B9000188619861A861B86EC85FD85309721F00C
:100BA0006E857F85CE0109958C819D81AE81BF8147
:100BB00088879987AA87BB870097A105B10521F48B
:100BC000CE010E94800412C0E091C102F091C202E5
:100BD0000190F081E02DF093C202E093C1023097C2
:100BE00011F013821282CE010E942D04C091C10225
:100BF000D091C202209731F0E114F10401051105F2
:100C000009F0A5CFDF91CF911F910F91FF90EF9049
:100C100008952F923F924F925F926F927F928F92A0
:100C20009F92AF92BF92CF92DF92EF92FF920F937B
:100C30001F93CF93DF93CDB7DEB724970FB6F89409
:100C4000DEBF0FBECDBF0FB6F8940F92A090C302C7
:100C5000B090C402C090C502D090C6020F900FBEE3
:100C60000E947A099B01AC01C601B5010E94E40D06
:100C700039014A010E947A091B012C010E947A095C
:100C800069837A838B839C83C401B30128EE33E0AC
:100C900040E050E00E94C50D7B018C01C401B3010E
:100CA000A20191010E94C50DA61AB70AC80AD90A65
:100CB000C601B50128EE33E040E050E00E94C50DCA
:100CC00029813A814B815C810E94E40DE20EF31E82
:100CD000041F151FC801B70124960FB6F894DEBF94
:100CE0000FBECDBFDF91CF911F910F91FF90EF907D
:100CF000DF90CF90BF90AF909F908F907F906F903C
:100D00005F904F903F902F900895EF92FF920F9336
:100D10001F930FB6F8940F92E090C302F090C402B4
:100D20000091C5021091C6020F900FBE0E947A0971
:100D30009B01AC01C801B7010E94E40DCA01B901D1
:100D40001F910F91FF90EF900895CF93DF93DC01F7
:100D50000FB6F8940F92CD91DC9111970F900FBEC2
:100D60008FEFCF3FD80709F43AC0209771F10FB643
:100D7000F8940F92EA81FB811196FC93EE938C819B
:100D80009D81892B71F0309729F08C819D8195830D
:100D9000848305C08FEF9FEF11969C938E931D82E5
:100DA0001C820F900FBE8D899E89009721F00E94B2
:100DB00080041E8A1D8A82E08F876BEB72E0CE0171
:100DC0000E94950281E090E00CC00FB6F8940F925B
:100DD0008FEF9FEF11969C938E930F900FBE80E044
:100DE00090E0DF91CF9108950F931F93CF93DF93FE
:100DF000EC010FB6F8940F92888199810F900FBE85
:100E00002FEF8F3F920741F40FB6F8940F9219829B
:100E100018820F900FBE02C0892B19F400E010E079
:100E200012C000E010E0CE010E94A506080F191FB5
:100E30000FB6F8940F92888199810F900FBE019799
:100E40008E5F9F4F80F3C801DF91CF911F910F916B
:100E500008950F931F930E94F4068C010E940104D1
:100E6000C8011F910F9108950F931F930E94A5062B
:100E70008C010E940104C8011F910F910895CF9326
:100E8000DF93AC01DB010FB6F8940F92CD91DC91AA
:100E900011970F900FBE8FEFCF3FD80799F534C051
:100EA0008D899E892A813B818417950741F50FB66C
:100EB000F8940F9211963C932E938C819D81892BEF
:100EC00081F0EA81FB81309729F08C819D819583A7
:100ED000848305C08FEF9FEF11969C938E931D82A4
:100EE0001C820F900FBE82E08F876BEB72E0CE0109
:100EF0000E9495028FEF9FEF9E8B8D8B05C0DE01C8
:100F00001296E901209761F6DF91CF910895AF9293
:100F1000BF92CF92DF92EF92FF920F93CF93DF9326
:100F2000EC015A016B010FB6F8940F9288819981F8
:100F30000F900FBE8F5F9F4F51F40FB6F8940F9232
:100F4000198218820F900FBE0E94010438C06BEB0B
:100F500072E08091BD029091BE020E94E302BE0148
:100F60008091BD029091BE020E949502E091BD0267
:100F7000F091BE0283E08787E090BD02F090BE0250
:100F8000A114B104C104D10461F001E09E014FE35A
:100F900057E0C601B5010E940C05F701968B858BC1
:100FA00003C0F701168A158A0E94BC03E091BD02B6
:100FB000F091BE02858996898F5F9F4F19F080E07E
:100FC00090E004C0168A158A8FEF9FEFDF91CF91D2
:100FD0000F91FF90EF90DF90CF90BF90AF9008956A
:100FE000FC010FB6F8940F92808191818F5F9F4F23
:100FF00011F4118210820F900FBECF010E9487075B
:1010000008950F931F93CF93DF938C01C0916B02D0
:10101000D0916C020AC0B801CE0102960E94B40DB4
:10102000892B29F00990D881C02D2097A1F7CE01F6
:10103000DF91CF911F910F910895CF93DF93EC0132
:10104000892B11F16115710511F07D876C874111B4
:101050004E87CE0102960E940108892BA9F4EB89E4
:10106000FC89309721F0CE010995892B69F4809194
:101070006B0290916C0299838883D0936C02C09329
:101080006B0280E090E002C08FEF9FEFDF91CF9185
:10109000089583E18093C7028FE48093C80283E5BB
:1010A0008093C90243E150E067EC72E080E090E099
:1010B0000E94A30B892B19F08FEF9FEF089580E01A
:1010C00090E0089543E150E067EC72E080E090E04A
:1010D0000E94A60B892B79F48091C702833159F4C1
:1010E0008091C8028F3439F48091C902833519F494
:1010F00080E090E008958FEF9FEF08959F918F918A
:101100000F900BBE0F900FBE1F9018952F923F921D
:101110004F925F926F927F928F929F92AF92BF9207
:10112000CF92DF92EF92FF920F931F93CF93DF93B3
:101130008DB79EB7E091BD02F091BE02918B808B7E
:10114000E091BB02F091BC02F093BE02E093BD02BD
:1011500081E08787E091BD02F091BE02808991898C
:101160008DBF9EBFDF91CF911F910F91FF90EF90A8
:10117000DF90CF90BF90AF909F908F907F906F90B7
:101180005F904F903F902F900895CF92DF92EF9213
:10119000FF920F931F93CF93DF938C017B016A0122
:1011A000E901C90149960E949401FC01009719F4D4
:1011B00080E090E075C0C80FD91F9E0127503040D5
:1011C000AE014B515040CE01069668E0D8010D901B
:1011D0008D01DC010D92CD016150C1F71E86415099
:1011E0005040598B488B4F5F5F4FFC8BEB8B8FEEE2
:1011F0009EEBADEABEED80839183A283B3838483AB
:101200009583A683B78380879187A287B3878487D6
:101210009587A687B78780E48A8B8F2D9927F90158
:101220008583E68280E8838312821482C1828D2DB9
:10123000992780832EE738E0832F9927FA01828B44
:10124000238B8091B9029091BA0299838883D093BD
:10125000BA02C093B90212E01F871E8A1D8A188E37
:101260001F8A6BEB72E0CE010E949502E091BD02F5
:10127000F091BE02309721F40FB6F8940F9260CF30
:101280008091BB029091BC02E817F90741F01787E3
:101290000FB6F8940F920E9486080F900FBECE01F1
:1012A000DF91CF911F910F91FF90EF90DF90CF9042
:1012B00008951F93182F60916D0270916E028091B6
:1012C0006F029091700220EA3FE040E050E00E94FF
:1012D000E40D822F932F0197F1F71A95D1F71F9103
:1012E000089560916D0270916E0280916F029091ED
:1012F0007002089560E074E080E090E00895BC0121
:1013000087B78D7F87BF80B7886080BF12BE82E0BD
:1013100083BF80B7992787709070892BD1F781E0C0
:1013200086BF0FB6F8940F9281E090E0A0E0B0E0A5
:10133000B6B7B170E9F3B6BF0894811D911DA11D28
:10134000B6B7B170C9F3BB270F900FBE27E0880F67
:10135000991FAA1FBB1F2A95D1F780936D02909306
:101360006E02A0936F02B093700287B78D7F87BF24
:1013700080B7886080BF12BE89E083BF8FE181BFE4
:1013800080B7992787709070892BD1F782E086BF4C
:1013900040E050E089E292E00E94EB0A08953AE0D2
:1013A000660F771F881F991F3A95D1F728EE33E013
:1013B00040E050E00E94E40D211531054105510542
:1013C00021F421E030E040E050E0CA01B901089585
:1013D0009C01FB0187B7482F55274270507087B793
:1013E0008D7F87BF20313105D9F0213131053CF4A3
:1013F0002115310581F02130310551F40EC0223123
:10140000310571F122313105E4F020323105E1F08E
:101410002FEF3FEF1FC040E050E082E086BF18C0D2
:1014200006B601FE05C081E090E09183808302C092
:1014300011821082452BA1F0808191818068918377
:10144000808320E030E008C08EE090E091838083CC
:1014500020E030E0452B31F087B7826087BF02C0C3
:1014600020E030E0C90108951F920F920FB60F924D
:1014700011242F933F934F935F936F937F938F9399
:101480009F93AF93BF93EF93FF9389E292E00E9403
:10149000DD0AFF91EF91BF91AF919F918F917F9165
:1014A0006F915F914F913F912F910F900FBE0F90D1
:1014B0001F90189588E18AB980E090E008955D9BBF
:1014C000FECF8CB98A3011F48DE0F9CF0895EF92F8
:1014D000FF920F931F93CF93DF937A018B01EA0161
:1014E00005C0F80181918F010E945F0A2197FFEFEB
:1014F000CF3FDF07B1F7C701DF91CF911F910F9168
:10150000FF90EF900895EF92FF920F931F93CF9368
:10151000DF937A018A01EB0105C0FE0184910E94EC
:101520005F0A219601501040FFEF0F3F1F07A9F7F8
:10153000C701DF91CF911F910F91FF90EF90089518
:10154000109272021092710290937402809373024F
:10155000109276021092750281E792E0089580E081
:1015600090E00895CF93DF93EA016150714019F044
:101570008FEF9FEF1FC00E947109660F771F881FB2
:10158000991F288139814A815B81E4E0220F331F52
:10159000441F551FEA95D1F70E94E40D2F5F3F4F7E
:1015A0004F4F5F4F5695479537952795215029B94D
:1015B00080E090E0DF91CF910895CF93DF93DC013D
:1015C000EC01EA81FB81309719F08D919C9109958E
:1015D000DF91CF910895EF92FF920F931F93CF93D6
:1015E000DF93EC017B018A01EC81FD81309719F4D6
:1015F00080E090E005C060E070E080E090E0099558
:1016000019830883FB82EA82DF91CF911F910F91AA
:10161000FF90EF900895CF93DF93EC01EC81FD8173
:10162000309719F48FEF9FEF05C060E070E081E123
:1016300090E00995DF91CF910895CF93DF93EC016E
:10164000EC81FD81309719F48FEF9FEF05C060E0CA
:1016500070E082E190E00995DF91CF9108950F93BA
:101660001F93CF93DF93CDB7DEB724970FB6F894CF
:10167000DEBF0FBECDBF8C017C836B83FC01248158
:1016800035812115310519F48FEF9FEF17C0BE0189
:101690006F5F7F4F80E290E0F9010995009771F448
:1016A000F80124813581BE016D5F7F4F81E290E0BA
:1016B000F9010995009711F489819A8124960FB652
:1016C000F894DEBF0FBECDBFDF91CF911F910F9178
:1016D00008950F931F93CF93DF93CDB7DEB7249771
:1016E0000FB6F894DEBF0FBECDBF8C017C836B8339
:1016F000FC01248135812115310519F48FEF9FEF0D
:1017000017C0BE016F5F7F4F88E190E0F901099536
:10171000009771F4F80124813581BE016D5F7F4F20
:1017200089E190E0F9010995009711F489819A8186
:1017300024960FB6F894DEBF0FBECDBFDF91CF91D8
:101740001F910F9108950E94A90B08950E94C90B43
:101750000895CF93DF93EA019C0140E050E0FB0144
:1017600010C0D9010E94060E802D9081981721F09B
:10177000D901092E0E940E0E4F5F5F4F31962F5FE9
:101780003F4F4C175D0769F780E090E0DF91CF9104
:101790000895CF93DF93EA01DC01FB01219724F048
:1017A0000E94060E0192FACF80E090E0DF91CF9187
:1017B0000895CF93DF93EC01AA81BB81109719F4B0
:1017C000EB85FC8504C0ED01ED89FE89CD0109950D
:1017D000DF91CF910895FC01808191810895CF928E
:1017E000DF92EF92FF920F931F93CF93DF936C01E1
:1017F000CB010E94350D7C018F5F9F4F71F440C07B
:101800000F5F1F4F32960830110559F487E190E0C1
:101810009093DB028093DA0233C003E010E0E8E546
:10182000F2E080819181892B59F787E090E00E9456
:10183000D00CEC01000F111F0E5A1D4FD801CD9393
:10184000DC932097E9F0B701C6010E94DD0C998373
:101850008883D801ED91FC918F5F9F4F39F4CF01C0
:101860000E94CD0CF801118210820AC0F382E2823C
:101870001482D801ED91FC9116821582CF0102C02D
:1018800080E090E0DF91CF911F910F91FF90EF905A
:10189000DF90CF9008959F92AF92BF92CF92DF9248
:1018A000EF92FF920F931F93CF93DF935C01CB01D5
:1018B000EA010E94350D6C018F5F9F4F71F448C0A3
:1018C0000F5F1F4F32960830110559F489E090E000
:1018D0009093DB028093DA023BC000E010E0E2E587
:1018E000F2E0808191818C179D0751F787E090E0AD
:1018F0000E94D00C7C01E801CC0FDD1FCE5ADD4FD9
:10190000F982E882E114F10419F1B601C5010E94DF
:10191000DD0CF70191838083E881F9818F5F9F4F10
:1019200071F4CF010E94CD0C82E0801728F00F5F88
:101930001F4F198308830CC01982188209C0D382F3
:10194000C2821482E881F98116821582CF0102C019
:1019500080E090E0DF91CF911F910F91FF90EF9089
:10196000DF90CF90BF90AF909F9008956091540208
:10197000709155020E94890D8F5F9F4F19F48FEF70
:101980009FEF089560915402709155028AE090E0B3
:101990000E94610D80E090E008950E940702089582
:1019A0000E9494019C01892B31F48CE090E090938B
:1019B000DB028093DA02C9010895EF92FF920F9340
:1019C0001F93CF93DF93CDB7DEB729970FB6F89467
:1019D000DEBF0FBECDBF7B018C01FE013196AE0193
:1019E000475F5F4F03C021930F5F1F4F302F381B9E
:1019F000D8012C91222329F02A3319F0E417F50796
:101A000091F7CE010196FC01E30FF11D10820E94B7
:101A10000108DC01892B49F482E090E09093DB021D
:101A20008093DA028FEF9FEF13C0F80180818A3331
:101A300019F060E070E003C0B8016F5F7F4FFD01F7
:101A4000058D168D20E030E0A701CD01F801099544
:101A500029960FB6F894DEBF0FBECDBFDF91CF91B0
:101A60001F910F91FF90EF900895FC0180818237C4
:101A700059F0873719F08136B1F403C081E093E45F
:101A80001BC088E091E418C080E090E415C02B32C0
:101A900019F0223641F404C08E7F826093600CC03E
:101AA0009F7B906809C086E190E09093DB02809371
:101AB000DA028FEF9FEF089531962081222339F7C4
:101AC00008950F931F93CF93DF93CDB7DEB7219780
:101AD0000FB6F894DEBF0FBECDBF8C01FB0189832A
:101AE00041E050E0BE016F5F7F4F808191810E9495
:101AF0009A0D019711F00FEF1FEFC80121960FB655
:101B0000F894DEBF0FBECDBFDF91CF911F910F9133
:101B10000895FC01CB01DF010D900020E9F711973A
:101B2000AE1BBF0BAD01BF01FC01808191810E9402
:101B30009A0D0895CF93DF93DC01EC01EA81FB81DC
:101B4000309719F4EF81F88503C0018CF28DE02DF8
:101B5000CD010995DF91CF910895DC0101C06D930E
:101B600041505040E0F70895FB01DC018D91019058
:101B7000801911F40020D1F7990B0895FB01DC01C5
:101B800001900D920020E1F70895629FD001739FAC
:101B9000F001829FE00DF11D649FE00DF11D929F09
:101BA000F00D839FF00D749FF00D659FF00D992748
:101BB000729FB00DE11DF91F639FB00DE11DF91F6C
:101BC000BD01CF0111240895A1E21A2EAA1BBB1B4F
:101BD000FD010DC0AA1FBB1FEE1FFF1FA217B307F9
:101BE000E407F50720F0A21BB30BE40BF50B661F0F
:101BF000771F881F991F1A9469F7609570958095D3
:101C000090959B01AC01BD01CF010895E199FECFF4
:101C1000BFBBAEBBE09A11960DB20895E199FECF1D
:101C2000BFBBAEBB0DBA11960FB6F894E29AE19A1B
:041C30000FBE089546
:101C340077007561727430000A4E75742F4F53200B
:101C44004576656E742051756575652044656D6FC4
:101C5400004869676820202020204D61696E20209B
:101C64002020204C6F7720202020202000686967E6
:101C740068006C6F77002020202020202020205234
:101C84006571756573740020202020202020202099
:101C940054696D656F757400202020202020202059
:101CA4002041637175697265640020202020202022
:101CB40020202052656C656173650020202020205F
:101CC4002020202020202020202020202052657148
:101CD40075657374002020202020202020202020DF
:101CE4002020202020202054696D656F7574002009
:101CF40020202020202020202020202020202020E0
:101D040020416371756972656400202020202020C1
:101D140020202020202020202020202052656C65B7
:101D240061736500526571756573740054696D65FE
:101D34006F75740041637175697265640052656CF6
:101D4400656173650065746865726E7574006964B5
:101D54006C65006D61696E00FF00000000E8090019
:101D64000075617274300000000000000000000083
:101D740000005A0AB20A0000670A830AA00AAF0ADE
:101D84000000010002000300000000000000000049
:021D940000004D
:00000001FF
