:100000000C946D000C94B9000C94B9000C94B900D8
:100010000C94B9000C94B9000C94EA220C94B90029
:100020000C94B9000C94B9000C94B9000C94B9006C
:100030000C94B9000C94B9000C94B9000C947B1A80
:100040000C94B9000C94B9000C9456230C94BA2368
:100050000C94B9000C94B9000C94B9000C94B9003C
:100060000C94B9000C94B9000C94B9000C94B9002C
:100070000C94B9000C94B9000C94B9000C94B9001C
:100080000C94B9000C94B9000C94B90048254B2588
:1000900057255F256225652568256B2574259E25D6
:1000A000C325C825CD25D225D725E125E825EE2570
:1000B000F8250626452545254525452515261826D6
:1000C0001B262D2630263B2645253E264426472640
:1000D0004D26502656265926612680EC85BF87E09E
:1000E00089B98093990011241FBECFEFD0E1DEBF04
:1000F000CDBF12E0A0E0B1E0E6E2F9E900E00BBF1D
:1001000002C007900D92AE35B107D9F713E0AEE506
:10011000B2E001C01D92AB35B107E1F78FEF9FE769
:100120009EBF8DBF8FEF9FE78B55934081589140C5
:1001300040F06FEF7EE76B5573408BE593E00E94D4
:10014000BB120E94A918892B41F068E371E081E29B
:1001500093E00E94174C0E94901820E831E040E0A4
:1001600050E063EB71E081E491E00E940C190C9483
:1001700000000C940000CF92DF92EF92FF920F9359
:100180001F93CF93DF936C017B01EA0180E890E03D
:100190000E94464B8C0120C0960140E850E061E08F
:1001A00070E0C8010E94D54AAC0118161906BCF4CB
:1001B0008881882389F0970161E070E0C8010E947E
:1001C0001E4B181619065CF48881882329F0C70194
:1001D0000E94384A892B19F488818823E9F618820D
:1001E000C8010E94434BDF91CF911F910F91FF9067
:1001F000EF90DF90CF9008958F929F92AF92BF9231
:10020000CF92DF92EF92FF920F931F93CF93DF93E2
:10021000CDB7DEB72F970FB6F894DEBF0FBECDBFB8
:1002200080E895E2A0E0B0E089839A83AB83BC8349
:1002300040E060E070E088E591E00E94641845E0ED
:1002400060E073E889ED91E00E94641860E071E07D
:1002500084E091E00E94794A9E838D830E94494AFE
:10026000AE014F5F5F4F61E071E00E94954920E66B
:100270003AEE40E050E060E070E08AE091E00E94F9
:100280001E03892B61F1DE011A96E2E3F1E086E0BC
:1002900001900D928150E1F78AE0882E912C8C0E0E
:1002A0009D1E20E63AEE40E050E0B4018AE091E085
:1002B0000E941E03892B99F08FE091E00E94F83292
:1002C0005B016C018FE191E00E94F8327B018C01AF
:1002D000A6019501B4018AE091E00E94E03520E09A
:1002E00032E0AE014B5F5F4F6AE971E08DE291E071
:1002F0000E940C1919860E94E22E8C0167E170E0C1
:100300000E94732F60E071E0C8010E94E74998875E
:100310008F8321E029876D817E81AE01475F5F4F2A
:100320000E94BB008F8198850E94A749C8010E9446
:100330004C2EE1CFEC018C81882379F080E40E947F
:10034000C413AE014C5F5F4F6A817B8188819981C4
:100350000E94BB0080E80E94C4130E944814EBCFA7
:1003600080934B0108950E94BC1520E033E040E0EB
:1003700050E06CEF70E086E491E00E940C198EEF83
:100380000E94C4130E9448140E948F1320914B01B5
:100390002F3FC1F395B785B7837E822B85BF85B785
:1003A000806285BF889585B78F7D85BF85B7837E41
:1003B0009C71892B85BFE6CFCF93DF93DC01FC01D5
:1003C00087E3819393E0ED019983DF01119681E04A
:1003D0008183FD01918386E0828385E090E0DF9157
:1003E000CF910895809163029927089580916402C6
:1003F000909165021092650210926402089520E0C7
:1004000030E080916302853011F421E030E0C901D1
:100410000895DF92EF92FF920F931F93CF93DF9394
:10042000D62E79018A010E944818EC01892B51F0DF
:100430008B85833039F4EF85F889309719F0808106
:10044000863049F081E190E09093650280936402E8
:100450008FEF9FEF35C00E94501660936E0270932D
:100460006F028093700290937102E0926A02F092A0
:100470006B0200936C0210936D02D0926302809124
:10048000610290916202892B69F420E032E0AE01B2
:1004900060E977E08CE491E00E940C19909362028D
:1004A0008093610286E692E00E947B1740E050E074
:1004B00060E070E088E692E00E94CE1780E090E075
:1004C000DF91CF911F910F91FF90EF90DF900895F2
:1004D000FC019A01AB0180916302882349F083E01B
:1004E00090E090936502809364028FEF9FEF0895F0
:1004F00068E0CF010E9409020895FC019A01AB0156
:1005000080916302853049F083E090E0909365022A
:10051000809364028FEF9FEF089569E0CF010E94FE
:1005200009020895CF92DF92EF92FF920F931F93EB
:10053000CF93DF93FC0184E292E0DF011D920197EB
:10054000E9F781E08083818386E08283DF015C9626
:10055000CFE3D3E009900D928150E1F724833583F6
:10056000468357830C2CCD2CD02CD186C086E486B4
:10057000F58606871787DF01A451BF4F93E6FD017B
:10058000919382E8ED018983DF01119683E58183F0
:10059000FD013196ED019983DF01119685E3818399
:1005A00081E0FD018183628387E090E0DF91CF915C
:1005B0001F910F91FF90EF90DF90CF900895CF9310
:1005C000DF93CDB7DEB722970FB6F894DEBF0FBE2C
:1005D000CDBFDC015A834983FC0161939F0182E016
:1005E000FD01818389819A81082E892F902DF9013F
:1005F0009283818384E090E022960FB6F894DEBF68
:100600000FBECDBFDF91CF9108950F931F93CF936E
:10061000DF93DC01CA01022FFD016193ED01298303
:100620001127A801BC01CF0101960E94FD4BC80112
:100630000296DF91CF911F910F9108954F925F9293
:100640006F927F928F929F92AF92BF92CF92DF92E2
:10065000EF92FF920F931F93CF93DF93CDB7DEB747
:1006600060970FB6F894DEBF0FBECDBF3C012B01E3
:100670002D873E874F87588B0E9448185C01009752
:1006800069F0FC018385833049F4C784D088C114A4
:10069000D10421F0F6018081863019F081E190E0EB
:1006A00039C08E01095F1F4FF80111928A95E9F751
:1006B00046E050E06FEF70E04E010894811C911C01
:1006C000C4010E94064C76010894E11CF11C46E02E
:1006D00050E0B801C7010E94F04B892B41F046E081
:1006E00050E0B401C7010E94F04B892B31F5411451
:1006F000510449F0AFE3B3E0F20186E001900D92BE
:10070000815069F0FBCFC3010E940936892B39F073
:1007100082E090E0909365028093640299C0F701B3
:10072000AFE3B3E086E00D9001928150E1F764EF12
:1007300071E080E090E00E946615209151033091B5
:1007400052034091530350915403E0904903F090B9
:100750004A0300914B0310914C03DA01C9018E2129
:100760009F21A023B1230097A105B10549F0209353
:10077000450330934603409347035093480358C0C2
:100780002D853E854F85588961E0C3010E9409028D
:10079000892B09F05DC080916302853031F5E091CD
:1007A0005F02F0916002C584D684E784F0880581F9
:1007B0001681278130854181528163817481C50111
:1007C0000E944334E0915F02F0916002E588F68870
:1007D0000789108D218932894389548960E070E04E
:1007E00080E090E00E94620E30C0F6018781908523
:1007F000A185B2850097A105B10539F52091450382
:10080000309146034091470350914803E0904903DB
:10081000F0904A0300914B0310914C03DA01C90197
:100820008E219F21A023B1230097A105B10581F05E
:10083000A0904D03B0904E03C0904F03D090500352
:100840006FE373E0C3010E943E3580E090E002C098
:100850008FEF9FEF60960FB6F894DEBF0FBECDBF4F
:10086000DF91CF911F910F91FF90EF90DF90CF908C
:10087000BF90AF909F908F907F906F905F904F90C0
:100880000895CF93DF93EC01892B79F089A59AA580
:10089000009711F00E94434B8BA59CA5009711F087
:1008A0000E94434BCE010E94434BDF91CF910895AC
:1008B000EF92FF920F931F93CF93DF938C017B01F5
:1008C000EA01DC018D919C91009711F00E94434B4D
:1008D000CE0101960E94464BF801918380830097D8
:1008E00061F0209721F0AE01B7010E94FD4BD801C5
:1008F000ED91FC91EC0FFD1F1082DF91CF911F91C4
:100900000F91FF90EF9008954F925F927F928F9298
:100910009F92AF92BF92CF92DF92EF92FF920F938E
:100920001F93CF93DF938C017B018DE290E00E94B7
:10093000464BEC01009709F420C12C018DE2FE0129
:1009400011928A95E9F780EC98EAA0E0B0E08DA3D7
:100950009EA3AFA3B8A7F80180899189A289B38922
:1009600089839A83AB83BC8380EFC82ED12CC00EC1
:10097000D11E00E1A02E0FEFB02EAE0CBF1CEAC0BE
:10098000662339F40894C11CD11C0894A108B1084D
:10099000E1C0F6017180872C9924A814B9040CF4E5
:1009A000E9C0653341F4F1E07F1609F0E3C0F601D8
:1009B00082818883C3C06C3039F4B6016E5F7F4F8B
:1009C000A401CE01899608C06F3049F4B6016E5F6C
:1009D0007F4FA401CE018B960E945804AFC0F3E074
:1009E000F71508F0ABC0F601228183819927AA2769
:1009F000BB27EE24F82E092F1A2FE20EF11C011D41
:100A0000111D2581332744275527522F442733278B
:100A1000222784819927AA27BB27DC0199278827C9
:100A2000280F391F4A1F5B1FE20EF31E041F151FFC
:100A3000613029F4ED82FE820F8318877FC06C310C
:100A400029F4E986FA860B871C8778C0633029F47D
:100A5000ED86FE860F87188B71C0663009F041C0A5
:100A6000E98AFA8A0B8B1C8BF7E0F71508F066C051
:100A7000F60126813327442755272D8B3E8B4F8B3C
:100A8000588F87819927AA27BB27BA2FA92F982F7C
:100A90008827820F931FA41FB51F8D8B9E8BAF8B52
:100AA000B88F2085332744275527A90133272227CC
:100AB000280F391F4A1F5B1F2D8B3E8B4F8B588F82
:100AC00081859927AA27BB27B82FAA279927882786
:100AD000280F391F4A1F5B1F2D8B3E8B4F8B588F62
:100AE0002DC0663329F4E98EFA8E0B8F1C8F26C039
:100AF0006A3359F40E2CE12E102D0F2CF02E002D00
:100B0000ED8EFE8E0F8F18A319C06B3359F40E2C87
:100B1000E12E102D0F2CF02E002DE9A2FAA20BA32E
:100B20001CA30CC0633351F40E2CE12E102D0F2C9E
:100B3000F02E002DEDA2FEA20FA318A7C70CD11C0A
:100B400082E090E0C80ED91EA818B908EEEFFFEFBA
:100B5000AE0EBF1EF60160816F3F29F01A141B0410
:100B60000CF40ECF07C08881823051F0853041F0FF
:100B7000863031F0CE010E9441044424552439C00E
:100B80008D8D9E8DAF8DB8A10097A105B10561F443
:100B90008DA19EA1AFA1B8A5B695A795979587956C
:100BA0008D8F9E8FAF8FB8A389A19AA1ABA1BCA155
:100BB0000097A105B105E9F48D8D9E8DAF8DB8A18B
:100BC0009C01AD015695479537952795280F391FFC
:100BD0004A1F5B1F62E0B695A795979587956A9522
:100BE000D1F7280F391F4A1F5B1F29A33AA34BA334
:100BF0005CA3C201DF91CF911F910F91FF90EF9005
:100C0000DF90CF90BF90AF909F908F907F905F903C
:100C10004F900895EF92FF920F931F93DC01F8011C
:100C2000E20FF31FE451FF4F8FEF808303511F4FFB
:100C300081E00C32180710F40CE211E07801890110
:100C400023E430E0CD010E94713097FD03C080E0C5
:100C500090E008C083E190E0909365028093640285
:100C60008FEF9FEF1F910F91FF90EF9008952F92BC
:100C70003F924F925F926F927F928F929F92AF922C
:100C8000BF92CF92DF92EF92FF920F931F93CF9379
:100C9000DF93CDB7DEB71C012A013B014901A80152
:100CA0009701860175019CEEA92EB12CA80CB91CE8
:100CB000CD8CDE8C63E0C4010E9492028C018D8990
:100CC0009E89AF89B88D0097A105B10561F024E038
:100CD000AE014B5E5F4F62E3C501800F911F0E9422
:100CE0000503080F191F898D9A8DAB8DBC8D009758
:100CF000A105B10561F024E0AE01475E5F4F66E3F8
:100D0000C501800F911F0E940503080F191FC5011F
:100D1000800F911F0E94DC01080F191FA1E2B3E0B0
:100D2000FD0101900020E9F73197EA1BFB0B1E162D
:100D30001F0654F42E2FAD016CE0C501800F911FEA
:100D40000E940503080F191F9401B301A201C101FC
:100D50000E940A06DF91CF911F910F91FF90EF90B3
:100D6000DF90CF90BF90AF909F908F907F906F90CB
:100D70005F904F903F902F9008956F927F928F9247
:100D80009F92AF92BF92CF92DF92EF92FF920F931A
:100D90001F93CF93DF93CDB7DEB7ED89FE89FF9325
:100DA000EF9369887A888B889C889F928F927F9234
:100DB0006F92DF92CF92BF92AF9257016801790193
:100DC0008A019B014FEF5FEF6FEF7FEF0E943706C5
:100DD0002DB73EB7265F3F4F0FB6F8943EBF0FBE0C
:100DE0002DBFDF91CF911F910F91FF90EF90DF907A
:100DF000CF90BF90AF909F908F907F906F9008950D
:100E00002F923F924F925F926F927F928F929F921A
:100E1000AF92BF92CF92DF92EF92FF920F931F9308
:100E2000CF93DF93CDB7DEB72C970FB6F894DEBF24
:100E30000FBECDBF98878F8349875A876B877C8782
:100E40003901470158010E9450161B012C0167010E
:100E5000780104E212E09301AE014F5F5F4FBE01E3
:100E60006D5F7F4F8F8198850E94F1309C0118162D
:100E700019064CF0892BD1F184E190E09093650242
:100E80008093640233C0823F910590F0D3018C912E
:100E9000823071F4F30184819581A681B7814985FF
:100EA0005A856B857C8584179507A607B707F1F0EF
:100EB0000E9450166B017C01C218D308E408F508A3
:100EC000D501C4018A5F9040A040B040C816D90641
:100ED000EA06FB0648F4C501B4016C197D098E09C8
:100EE0009F096B017C01B5CF20E030E0C9012C9651
:100EF0000FB6F894DEBF0FBECDBFDF91CF911F912B
:100F00000F91FF90EF90DF90CF90BF90AF909F90A8
:100F10008F907F906F905F904F903F902F900895AB
:100F2000CF93DF93CDB7DEB7A2970FB6F894DEBFAD
:100F30000FBECDBF8C010E94CC166D8B7E8B8F8B2C
:100F4000988F20914503309146034091470350917B
:100F500048032C873D874E875F87F80107851089F6
:100F60001C8F0B8FF80186819927AA27BB27BA2FE0
:100F7000A92F982F88272581820F911DA11DB11DB2
:100F8000BA2FA92F982F88272481820F911DA11D88
:100F9000B11D6624782E892E9A2E8381680E711CCD
:100FA000811C911C1AA219A218A21F8E1E8E1D8EC2
:100FB0001A8E198E198A1A8A1B8A1C8A188A70EA54
:100FC000272E7FE0372E412C512C3EC080915F02AE
:100FD000909160020E94410429A13AA130936002DD
:100FE00020935F020CC080915F02909160020E948A
:100FF000410449A15AA15093600240935F021093AB
:1010000063028D899E89AF89B88D898B9A8BAB8B52
:10101000BC8B16C080915F02909160020E944104D7
:10102000A9A1BAA1B0936002A0935F0210936302DA
:101030002D893E894F89588D298B3A8B4B8B5C8B40
:101040001AA219A23F81388B48894423E1F0220C6F
:10105000331C441C551C51E025165AEF350650E050
:10106000450650E0550648F48FEF9FEFAFEFBFEF16
:1010700088879987AA87BB8736C0212C5AEF352EDF
:10108000412C512C28C080916302833029F00894B0
:10109000611C711C811C911CE0915F02F091600247
:1010A000309799F0818D928DA38DB48D8887998723
:1010B000AA87BB870097A105B10539F040EA242E25
:1010C0004FE0342E412C512C0EC030EA232E3FE04D
:1010D000332E412C512C2FEF3FEF4FEF5FEF28873E
:1010E00039874A875B8780916302882309F481C529
:1010F00080916A0290916B02A0916C02B0916D0296
:101100000097A105B10569F10E9450169B01AC0141
:1011100080916E0290916F02A0917002B091710265
:10112000281B390B4A0B5B0B80916A0290916B0272
:10113000A0916C02B0916D02281739074A075B072E
:1011400018F081E090E08DC0BC01CD01621B730BF3
:10115000840B950B621573058405950510F41B012E
:101160002C0180916302823021F0863011F08730AB
:1011700041F538893323E9F00E94CC162D893E8948
:101180004F89588D621B730B840B950B6050704018
:101190008140904028F04FEF5FEF5A8F498F11C088
:1011A0000E94CC16AD89BE896A1B7B0B7A8F698F32
:1011B00008C00E94CC166D8B7E8B8F8B988F1A8EF9
:1011C000198E80916302853011F08823B9F4EF8D78
:1011D000F8A1309719F0CF010E9445302D8D3E8D3A
:1011E000232B19F418A21F8E52C08D8D9E8D0E9444
:1011F000434B18A21F8E1E8E1D8E49C080915F0228
:1012000090916002892B51F4EB8DFC8D8781908544
:10121000A185B2850097A105B10539F52F8D38A1BB
:10122000232B29F04D8D5E8D452B89F50AC084E472
:1012300090E00E94B23098A38F8F8D8D9E8D892B68
:1012400031F484E292E00E94464B9E8F8D8FAF8DE9
:10125000B8A1AB2B21F0ED8DFE8DEF2B49F482E18F
:1012600090E0909365028093640210926302ECCE4A
:1012700080EC96E09A83898322E030E0AE014F5FF4
:101280005F4F62E070E18F8D98A10E941330D09083
:101290006302F1E0DF16F9F40894611C711C811CF3
:1012A000911C8091490390914A03A0914B03B09106
:1012B0004C032C853D854E855F8582239323A42393
:1012C000B5230097A105B10511F482E001C084E0C7
:1012D0008093630279C432E0D31609F002C14889D1
:1012E0004F5F4F835889543038F081E090E09093FD
:1012F00065028093640236C48C859D85AE85BF856A
:101300008B839C83AD83BE83AD8CBE8CACEEB0E092
:10131000AA0EBB1EC98CDA8CEE24FF248701A4011F
:10132000930161E08D8D9E8D0E9492028C018B81D4
:101330009C81AD81BE810097A105B10561F024E0DB
:10134000AE014D5F5F4F62E3C501800F911F0E94A8
:101350000503080F191FC501800F911F0E94DC01B2
:10136000080F191FA1E2B3E0FD0101900020E9F789
:101370003197EA1BFB0B1E161F0654F42E2FAD01EE
:101380006CE0C501800F911F0E940503080F191F13
:1013900040E452E069E3C501800F911F0E94DF0223
:1013A000080F191F2D8D3E8D4FEF5FEF6FEF7FEF11
:1013B0008F8D98A10E940A0697FF78C0D3C3E09052
:1013C0005F02F09060028D8D9E8D0E9484048C01DE
:1013D000009709F452C0FC018081823021F0C801DD
:1013E0000E9441044AC0E114F10409F4FCC32091B5
:1013F0004503309146034091470350914803809143
:10140000490390914A03A0914B03B0914C0382236E
:101410009323A423B5230097A105B105B9F0F701E3
:1014200081819281A381B48182179307A407B507B4
:1014300009F4DAC3F80181819281A381B481821712
:101440009307A407B50709F0CFC30FC0F80125A182
:1014500036A147A150A5F70185A196A1A7A1B0A5E6
:1014600082179307A407B50720F4C7010E9441041F
:10147000BAC3C8010E944104B7C3F0926002E0926F
:101480005F02EF2899F080916A0290916B02A0911F
:101490006C02B0916D02805E9E42A040B040C0F0F0
:1014A00020EA222E2FE0322E412C512C8201710194
:1014B0002D8D3E8DB401A3018F8D98A10E94000750
:1014C000BC01181619060CF47ACF99230CF44AC300
:1014D00080915F0290916002892B09F476C383E0CA
:1014E000F7CE23E0D21609F054C038893F5F3F831E
:1014F0004889443020F081E08093630266C3E09124
:101500005F02F0916002A180B280C380D480898D97
:101510009A8D9F938F93818D928DA38DB48DBF9360
:10152000AF939F938F93EE24FF248701A40193012F
:101530006D8D7E8D8F8D98A10E94BD06ADB7BEB713
:1015400016960FB6F894BEBF0FBEADBF99230CF42C
:1015500009C3820171012D8D3E8DB401A3018F8DD0
:1015600098A10E940007BC0199230CF4FBC2892BAF
:1015700009F42BC38D8D9E8D0E9484049AA389A3A8
:10158000009709F45FCDFC011081153009F442CDBC
:10159000F3C1F4E0DF1609F059C028892F5F2F83CB
:1015A000243040F081E0809363021C861D861E86F5
:1015B0001F860BC3498D5A8D5F934F931F921F92C5
:1015C0001F921F92AC84BD84CE84DF84EE24FF245E
:1015D0008701A40193016D8D7E8D8F8D98A10E944E
:1015E000BD06ADB7BEB716960FB6F894BEBF0FBE18
:1015F000ADBF99230CF4B6C2820171012D8D3E8DD1
:10160000B401A3018F8D98A10E940007BC0199230A
:101610000CF4A8C2892B09F4D8C28D8D9E8D0E942E
:1016200084049AA389A3009709F40CCDFC011081CE
:10163000153009F4CBCC163009F0CCC281E0809390
:1016400063021C861D861E861F86C4C2F5E0DF1657
:1016500009F04AC088E692E00E947017E0915F02AC
:10166000F0916002E58CF68C078D10A10E94CC16DB
:1016700029893A894B895C89621B730B840B950B12
:101680006E157F058007910710F086E021CEE0916E
:101690005F02F0916002E58CF68C078D10A10E942C
:1016A000CC1629893A894B895C89621B730B840BA0
:1016B000950BE61AF70A080B190BC801B701683336
:1016C00039E8730731E4830730E0930720F067E3DC
:1016D00079E881E490E028EE33E040E050E00E94B9
:1016E0001E4CAB01BC016CC246E0D41609F0AEC082
:1016F000E0915F02F0916002A1A0B2A0C3A0D4A0CB
:101700000E94CC167B018C01C201B10128EE33E0AE
:1017100040E050E00E945D4C89899A89AB89BC8980
:10172000E81AF90A0A0B1B0BAE18BF08C00AD10A47
:10173000A216B306C406D506E0F4E0915F02F0916C
:10174000600221A032A043A054A00E94CC16298997
:101750003A894B895C89621B730B840B950B28EECD
:1017600033E040E050E00E941E4C261A370A480A37
:10177000590AE0915F02F0916002E1A0F2A003A19A
:1017800014A10E94CC1629893A894B895C89621B75
:10179000730B840B950B6E157F058007910750F531
:1017A000E0915F02F0916002A180B280C380D4809A
:1017B000418D528D638D748D898D9A8D9F938F93FA
:1017C0001F921F921F921F92DF92CF92BF92AF92F1
:1017D000840173012D8D3E8D8F8D98A10E94370657
:1017E000ADB7BEB71A960FB6F894BEBF0FBEADBF69
:1017F00097FF02C087E06CCDB889BF5FBF838201CD
:1018000071012D8D3E8DB401A3018F8D98A10E9491
:101810000007BC0199230CF4A5C1892B09F4D5C19B
:101820008D8D9E8D0E9484049AA389A3009709F44C
:1018300009CCFC011081153009F4ECCB163009F00D
:10184000C9C187E0809363021F82C4C1F7E0DF163D
:1018500009F099C0E0915F02F0916002E1A0F2A06E
:1018600003A114A10E94CC1629893A894B895C896D
:10187000621B730B840B950BE61AF70A080B190B06
:10188000E214F30404051505B0F4E0915F02F09151
:10189000600221A032A043A054A00E94CC16261AB8
:1018A000370A480A590A89899A89AB89BC89281A52
:1018B000390A4A0A5B0AE0915F02F0916002E1A0F6
:1018C000F2A003A114A10E94CC1629893A894B8960
:1018D0005C89621B730B840B950B6E157F0580076B
:1018E000910718F0D09263026FC138893F5F3F8340
:1018F000E0915F02F0916002E180F2800381148147
:10190000498D5A8D5F934F931F921F921F921F9282
:1019100057016801A40193016D8D7E8D8F8D98A173
:101920000E94BD06ADB7BEB716960FB6F894BEBFFF
:101930000FBEADBF99230CF415C1820171012D8D2D
:101940003E8DB401A3018F8D98A10E940007BC01B8
:1019500099230CF407C1892B09F437C18D8D9E8D15
:101960000E9484049AA389A3009709F46BCBFC011D
:101970001081153009F437CB163009F02BC181E006
:101980008093630227C1F8E0DF1609F088C0288938
:101990002F5F2F833889343008F0E4C0AD8CBE8CC3
:1019A0004CEE50E0A40EB51EEB8DFC8DE780F0846C
:1019B00001851285CC24DD24A401930168E08D8D7E
:1019C0009E8D0E9492028C01C501800F911F0E9482
:1019D000DC01080F191FA1E2B3E0FD010190002016
:1019E000E9F73197EA1BFB0B51F02E2FAD016CE0AC
:1019F000C501800F911F0E940503080F191F40E4C5
:101A000052E069E3C501800F911F0E94DF02080FB9
:101A1000191F2D8D3E8D488559856A857B858F8D53
:101A200098A10E940A0697FF0BC0288539854A8530
:101A30005B852F5F3F4F4F4F5F4F09F0C6C092C08D
:101A4000820171012D8D3E8DB401A3018F8D98A16E
:101A50000E940007BC01009709F4B7C018161906C8
:101A60000CF080C08D8D9E8D0E9484049AA389A362
:101A7000009709F477C0DC018C91853009F072C0C1
:101A800080915F02909160020E944104E9A1FAA155
:101A9000F0936002E0935F021AA219A263C0F9E01A
:101AA000DF1609F076C0E0915F02F0916002309796
:101AB00019F428892F833EC038893F5F3F83313036
:101AC000C9F5E180F28003811481818D928DA38D0F
:101AD000B48D8B839C83AD83BE83CC24DD24A40191
:101AE000930167E08D8D9E8D0E9492028C018B8107
:101AF0009C81AD81BE810097A105B10579F08D8DE6
:101B00009E8D84519F4F24E0AE014D5F5F4F66E391
:101B1000800F911F0E940503080F191F2D8D3E8D08
:101B2000488559856A857B858F8D98A10E940A0614
:101B300097FF0BC088859985AA85BB858F5F9F4FCE
:101B4000AF4FBF4F09F041C00DC0820171012D8D13
:101B50003E8DB401A3018F8D98A10E940007BC01A6
:101B600097FF03C01092630230C0892B71F18D8DF5
:101B70009E8D0E9484049AA389A3009709F462CAE7
:101B8000DC018C91853011F0863021F510926302D2
:101B900021C0DD2019F0B889BF8317C080915F0292
:101BA000909160020E9441041092600210925F02C4
:101BB00088E692E00E94701740E050E060E070E03C
:101BC00086E692E00E94CE171F82E9A1FAA1EF2BD0
:101BD00009F438CA89A19AA10E944104FF81F88BB7
:101BE0001AA219A231CA7801F0926002E0925F0253
:101BF0004ACC80916302E9CAFC01872F9927808330
:101C0000618382E090E00895FC01DB0120813327AD
:101C1000322F222711963C932E9381819927282BCE
:101C2000392B2D933C9382E090E00895EF92FF9240
:101C30000F931F93CF93DF93EC018B01DB018D9109
:101C40009C91009729F00E944E12F8011182108297
:101C50008881807C803C19F482E090E02CC0DE0119
:101C60000D900020E9F77D01EC1AFD0AC7010E94E2
:101C7000DB11FC01D8018D939C9399919E0113C0B7
:101C80008D9189934150E0F7892F9927D901A80FA9
:101C9000B91FE80FF91F9C91992311F08EE28193EF
:101CA0009D012F5F3F4F992321F0492FEF01D9016B
:101CB000E9CF1082C701DF91CF911F910F91FF9063
:101CC000EF9008958F929F92AF92BF92CF92DF9242
:101CD000EF92FF920F931F93CF93DF93EC016B0171
:101CE00049015A018091720290917302009731F07C
:101CF0000E944E121092730210927202809174022E
:101D000090917502009731F00E944E121092750268
:101D100010927402209781F0FE0101900020E9F7F3
:101D2000CF018C1B9D0B0E94DB119093730280935B
:101D30007202BE010E94174CC114D10481F0F60159
:101D400001900020E9F7CF018C199D090E94DB1159
:101D50009093750280937402B6010E94174C809292
:101D6000760290927702A0927802B0927902E09285
:101D70007A02F0927B0200937C0210937D02DF9145
:101D8000CF911F910F91FF90EF90DF90CF90BF9078
:101D9000AF909F908F900895EF92FF920F931F93B3
:101DA000EE24FF2487010E94620E1F910F91FF9085
:101DB000EF9008952F923F924F925F926F927F9291
:101DC0008F929F92AF92BF92CF92DF92EF92FF924B
:101DD0000F931F93CF93DF93CDB7DEB760970FB606
:101DE000F894DEBF0FBECDBF9E878D87788B6F873F
:101DF0008091760290917702A0917802B091790259
:101E00000097A105B10569F480917A0290917B0257
:101E1000A0917C02B0917D020097A105B10509F463
:101E2000A2C280E090E00E94B2309A878987892B15
:101E300009F499C280E092E00E94DB114C011C86FB
:101E40001B866624772418861F8222243324AB84C1
:101E5000BC8495012F5F3F4F3C872B876114710431
:101E600039F48CE090E00E94C7123C01892B69F0A4
:101E70002B853C85F3013183208380E091E09383BF
:101E8000828381E090E0958384838F819885892B7C
:101E900041F486E090E00E94C71298878F83892BD7
:101EA00031F1EF81F88580819181009711F00E94D6
:101EB0004E12ED85FE8501900020E9F7CF012D85BA
:101EC0003E85821B930B0E94DB11EF81F885918385
:101ED00080836D857E850E94174C2F853889EF8120
:101EE000F8853383228381E090E095838483F30136
:101EF00060817181C4010E94FC0D8C01F30162813B
:101F00007381C401800F911F0E94FC0D080F191FDF
:101F1000F30164817581C401800F911F0E94FC0D43
:101F2000080F191FF30166817781C401800F911F8B
:101F30000E94FC0D080F191FF30160857185C40113
:101F4000800F911F0E94FC0D080F191FF30162857D
:101F50007385C401800F911F0E94FC0D6801C80E9B
:101F6000D91E7401EC0CFD1CEF81F885A081B181B4
:101F7000FD0101900020E9F78F01015010400A1B7C
:101F80001B0B0E5F1F4F27010894411C511CF701CA
:101F90001082970115C0B2016F5F7F4FAD014F5F97
:101FA0005F4F8E3229F4F2011082DA01920107C0EC
:101FB000F2018083DA01F90180818F5F80832B0138
:101FC0008C91882341F7F2011082EF81F8856281BC
:101FD0007381C701800F911F0E94FC0D080F191F0C
:101FE000EF81F88564817581C701800F911F0E9480
:101FF000FC0D7801E80EF91EEC0CFD1CA0FE0DC0D6
:1020000040917A0250917B0260917C0270917D0236
:10201000411551056105710541F4409176025091D9
:1020200077026091780270917902840125E330E0B3
:1020300089859A850E94713097FD38C168EEC62E59
:1020400063E0D62EE12CF12C00E012E09401AE0109
:102050004F5F5F4FBE016D5F7F4F89859A850E94FC
:10206000F130181619060CF01BC10D973CF3B301A3
:10207000C4010E94040E8C01B3016E5F7F4FC40146
:10208000800F911F0E94040E080F191FB3016C5F8F
:102090007F4FC401800F911F0E94040E080F191F6B
:1020A000B3016A5F7F4FC401800F911F0E94040E2D
:1020B000080F191FB301685F7F4FC401800F911F84
:1020C0000E94040E080F191FB301665F7F4FC40101
:1020D000800F911F0E94040E5801A80EB91EF30133
:1020E000808191812B853C858217930709F0A6CFCB
:1020F000A114B10409F4D4C084819581019709F039
:10210000CFC084010A0D1B1D6F817885C8010E9414
:10211000160E7C016F8178856E5F7F4FC8018E0D32
:102120009F1D0E94040E6701C80ED91E6F8178851D
:102130006C5F7F4FC8018C0D9D1D0E94040E7C01B9
:10214000F30186819781892B09F4B0C026014E0CDA
:102150005F1C4A0C5B1C51E0A52EB12C95C02114CC
:10216000310429F48EE090E00E94C7121C01740132
:10217000E40CF51CB101C7010E94160E8C01B101DF
:102180006E5F7F4FC701800F911F0E94040E080FE2
:10219000191FB1016C5F7F4FC701800F911F0E9413
:1021A000040E080F191F9701200F311FF9018191AB
:1021B000BF019927AA27BB27BA2FA92F982F8827B5
:1021C000F10186839783A087B187F90121813327A5
:1021D00044275527822B932BA42BB52BBA2FA92F3D
:1021E000982F8827F10186839783A087B187FB0109
:1021F0002181332744275527822B932BA42BB52BE2
:10220000BA2FA92F982F8827F10186839783A0875B
:10221000B187FB012281332744275527822B932B3B
:10222000A42BB52BF10186839783A087B1870C5F20
:102230001F4FB101665F7F4FC701800F911F0E9442
:10224000040E080F191FF101C284D384848595857B
:10225000009711F00E944E12C6010E94DB11F1019D
:1022600095878487E00EF11EA601B7010E94FD4B01
:10227000F10182819381019771F0C00ED11E4C0C47
:102280005D1C0894A11CB11CF301868197818A15FD
:102290009B050CF064CFF101828593850497D1F101
:1022A0002B853C852630310509F0D1CDEE24FF2465
:1022B00087016114710419F0C3010E944E128F81CD
:1022C0009885009759F0FC0180819181009711F069
:1022D0000E944E128F8198850E944E122114310463
:1022E00089F0F10180819181009711F00E944E12D6
:1022F000F10184859585009711F00E944E12C1016D
:102300000E944E12C4010E944E1289859A850E9435
:1023100045302CC0F10164857585FB0120818181E8
:102320009927AA27BB27EE24F82E092F1A2FE20E91
:10233000F11C011D111D2381332744275527522FDE
:1023400044273327222782819927AA27BB27DC012C
:1023500099278827280F391F4A1F5B1FE20EF31E9B
:10236000041F151FA6CFEE24FF248701C801B70163
:1023700060960FB6F894DEBF0FBECDBFDF91CF9150
:102380001F910F91FF90EF90DF90CF90BF90AF9093
:102390009F908F907F906F905F904F903F902F9085
:1023A00008956FE070E00E94DA0E089561E070E039
:1023B0000E94DA0E08950F931F93CF93DF9300913D
:1023C0007E0210917F028017910730F080E090E04C
:1023D00060C0EF01DB012FC0AC014A5F5F4F4430AA
:1023E000510510F444E050E0E0910E03F0910F032A
:1023F0006EE073E0C0E0D0E0A0E0B0E017C0208164
:1024000031812417350760F02417350711F3209721
:1024100029F0888199812817390710F4EF01DB0131
:10242000BF016E5F7F4F0280F381E02D309739F757
:10243000CE01209771F128813981CA010A966A81FB
:102440007B818217930770F4FE01E40FF51F241BB4
:10245000350B318320837383628359834883ED93E3
:10246000FC9302C06D937C93E881F9810E1B1F0BD6
:1024700010937F0200937E02EC0FFD1F34978FEEC6
:102480009EEBADEABEED80839183A283B383CE0140
:102490000296DF91CF911F910F910895CF93DF9313
:1024A000DC0112976D917C911197E0910E03F091F0
:1024B0000F03CEE0D3E03AC040815181CF01840FB9
:1024C000951F8A179B07C1F49A01260F371F318386
:1024D000208382819381DF01A20FB31FA817B90760
:1024E00091F58D919C911197280F391F318320838D
:1024F000ED018A819B8125C0AE17BF0778F4B983AF
:10250000A8832D913C911197CD01820F931F8E17B7
:102510009F0779F0ED01FB83EA8315C0A817B9077F
:1025200028F1EF0122960280F381E02D309721F609
:1025300017C0240F351F11963C932E9382819381EF
:10254000FD019383828380917E0290917F02860FAA
:10255000971F90937F0280937E0280E090E008C0F6
:10256000FD0113821282B983A883EDCF8FEF9FEF15
:10257000DF91CF910895FC0161937193CF010E9487
:102580004E12089580917E0290917F0208950F93DC
:102590001F93CF93DF938C010E94DB11EC01009716
:1025A00029F0A80160E070E00E94064CCE01DF91A6
:1025B000CF911F910F910895CF93DF93DC019B0181
:1025C000EC01788F6F8B1D821C820FB6F8940F92EE
:1025D000EB01E881F9818FEFEF3FF80749F4ED0156
:1025E0008C819D8101969D838C83E0E0F0E015C095
:1025F000309799F00F900FBEED019A8908C09F01A6
:102600002E5F3F4F0280F381E02D309719F08289D1
:102610009817A8F70FB6F8940F92ED01FB83EA83A1
:10262000F901B183A083EA81FB81309771F0848145
:102630009581892B51F08C819D8124813581820F78
:10264000931F9D838C83158214820F900FBEDF91A0
:10265000CF910895CF93DF939C01DB010FB6F894DF
:102660000F92ED91FC9111970F900FBE8FEFEF3FFE
:10267000F80731F527C082819381E217F307E9F467
:102680000FB6F8940F9211969C938E938481958146
:10269000892B59F0A281B381109729F0848195810B
:1026A000ED019D838C83158214820F900FBEF9017A
:1026B00013821282108E178A05C0DF011296FC0168
:1026C0003097C9F6DF91CF910895FB01168A158ADC
:1026D00082E0878762E173E0CF010E94DC120895F7
:1026E0000F931F93CF93DF938C01C0911003D09170
:1026F00011030CC0B801CE0106960E940D4C892B27
:1027000011F4CE0107C00990D881C02D209791F710
:1027100080E090E0DF91CF911F910F910895E091BB
:102720001603F0911703309741F0838994890E9432
:102730004E1210921703109216030895CF93DF9351
:10274000C0911003D09111030E948F1320911403A4
:1027500030911503E0E1F3E00AC088819981C21746
:10276000D30719F49183808304C0FE01EC01209704
:10277000A1F7809114039091150390931703809310
:102780001603DF91CF9108950F931F93182FE091B7
:102790001403F0911503028962E173E0CF010E94F6
:1027A0002A13E0911403F0911503128B1F3F49F097
:1027B00062E173E080911403909115030E94DC1292
:1027C00002C00E949E13E0911403F09115038091C2
:1027D000120390911303E817F90719F481E0878732
:1027E00009C082E087870FB6F8940F920E94CD1837
:1027F0000F900FBE802F99271F910F9108958FEF93
:102800000E94C4130895CF93DF93C0911003D09119
:10281000110320C00FB6F8940F928C819D810F9008
:102820000FBE892BA1F0EF89F88D0FB6F8940F92A7
:102830008C819D8101979D838C830F900FBE808139
:1028400091818F5F9F4F19F0CF010E94EC16099084
:10285000D881C02D2097F1F60E94C415E091140391
:10286000F09115038091120390911303E817F90773
:1028700061F08785813011F482E087870FB6F89484
:102880000F920E94CD180F900FBEDF91CF91089547
:10289000E0911403F091150382819381892B69F0F3
:1028A00062E173E0CF010E942A1362E173E080913C
:1028B0001403909115030E94DC120E9403140895E2
:1028C00080911A0390911B03A0911C03B0911D03EA
:1028D0000196A11DB11D80931A0390931B03A09331
:1028E0001C03B0931D030895CF93DF93EC011B826B
:1028F0001A82E0911803F09119031AC028853985CE
:102900004A855B8580859185A285B385281739071F
:102910004A075B0780F0281B390B4A0B5B0B2887A3
:1029200039874A875B87FB83EA830190F081E02D3A
:10293000309721F718C0821B930BA40BB50B80872F
:102940009187A287B387F983E883D383C283EA811F
:10295000FB81309719F0D183C08308C0D09319034D
:10296000C093180303C019821882F1CFDF91CF9171
:1029700008950FB6F8940F9260911A0370911B039B
:1029800080911C0390911D030F900FBE0895CF936B
:10299000DF93EC01EA81FB8188819981309719F0FE
:1029A0009183808304C09093190380931803E88176
:1029B000F9813097A1F08A819B81938382838085FE
:1029C0009185A285B385288539854A855B85820FE7
:1029D000931FA41FB51F80879187A287B387CE015D
:1029E0000E944E12DF91CF910895AF92BF92CF9285
:1029F000DF92EF92FF920F93CF93DF936B017C01F5
:102A0000EA01590180E190E00E94DB11FC01892B71
:102A100081F10FB6F8940F9280911A0390911B03E5
:102A2000A0911C03B0911D030F900FBE8C0D9D1D36
:102A3000AE1DBF1D20918002309181024091820223
:102A400050918302821B930BA40BB50B8087918757
:102A5000A287B38700FF05C01482158216821782F1
:102A600004C0C482D582E682F782D587C487B78640
:102A7000A686CF01DF91CF910F91FF90EF90DF906D
:102A8000CF90BF90AF9008950F93CF93DF930E94A4
:102A9000F514EC01009711F00E947414CE01DF913F
:102AA000CF910F910895CF92DF92EF92FF920F9303
:102AB0006A0179010E94161A9701A6010E94441525
:102AC0000F91FF90EF90DF90CF900895AF92BF925B
:102AD000CF92DF92EF92FF920F93CF93DF935B0140
:102AE0006C016115710581059105D1F1C2E1D3E059
:102AF000BE0180911403909115030E942A13E09166
:102B00001403F091150383E08787E0901403F0909D
:102B1000150301E0970145E653E1C601B5010E94A6
:102B20005315F701968B858B892B19F00E9403149E
:102B300019C0E0911403F0911503D08FC78B8091D9
:102B40001203909113039383828381E0878780919E
:102B5000140390911503909313038093120302C002
:102B60000E944814DF91CF910F91FF90EF90DF907A
:102B7000CF90BF90AF90089580E694E10E94C6196F
:102B800087B7826087BF0895EF92FF920F931F93DC
:102B9000CF93DF930FB6F8940F9220911A033091E0
:102BA0001B0340911C0350911D030F900FBE809199
:102BB000800290918102A0918202B09183027901FA
:102BC0008A01E81AF90A0A0B1B0B20938002309342
:102BD000810240938202509383024FC08885998579
:102BE000AA85BB85E816F9060A071B07A0F48E190B
:102BF0009F09A00BB10B88879987AA87BB8700978D
:102C0000A105B10521F0EE24FF24870136C0EE2492
:102C1000FF24870108C0E81AF90A0A0B1B0B188663
:102C200019861A861B86EC85FD85309721F06E8506
:102C30007F85CE0109958C819D81AE81BF8188877A
:102C40009987AA87BB870097A105B10521F4CE011A
:102C50000E94C71412C0E0911803F091190301906B
:102C6000F081E02DF0931903E0931803309711F0F1
:102C700013821282CE010E947414C0911803D09165
:102C80001903209731F0E114F1040105110509F051
:102C9000A5CFDF91CF911F910F91FF90EF900895F5
:102CA0002F923F924F925F926F927F928F929F925C
:102CB000AF92BF92CF92DF92EF92FF920F931F934A
:102CC000CF93DF93CDB7DEB724970FB6F894DEBF6E
:102CD0000FBECDBF0FB6F8940F92A0901A03B0901C
:102CE0001B03C0901C03D0901D030F900FBE0E94C9
:102CF000C1199B01AC01C601B5010E945D4C3901AF
:102D00004A010E94C1191B012C010E94C11969834B
:102D10007A838B839C83C401B30128EE33E040E0C7
:102D200050E00E941E4C7B018C01C401B301A20142
:102D300091010E941E4CA61AB70AC80AD90AC601F8
:102D4000B50128EE33E040E050E00E941E4C29819E
:102D50003A814B815C810E945D4CE20EF31E041FA0
:102D6000151FC801B70124960FB6F894DEBF0FBE39
:102D7000CDBFDF91CF911F910F91FF90EF90DF902A
:102D8000CF90BF90AF909F908F907F906F905F900B
:102D90004F903F902F900895EF92FF920F931F93C3
:102DA0000FB6F8940F92E0901A03F0901B03009175
:102DB0001C0310911D030F900FBE0E94C1199B01AF
:102DC000AC01C801B7010E945D4CCA01B9011F9155
:102DD0000F91FF90EF900895CF93DF93DC010FB632
:102DE000F8940F92CD91DC9111970F900FBE8FEF59
:102DF000CF3FD80709F43AC0209771F10FB6F89485
:102E00000F92EA81FB811196FC93EE938C819D8158
:102E1000892B71F0309729F08C819D819583848373
:102E200005C08FEF9FEF11969C938E931D821C829D
:102E30000F900FBE8D899E89009721F00E94C714C4
:102E40001E8A1D8A82E08F8762E173E0CE010E94B4
:102E5000DC1281E090E00CC00FB6F8940F928FEF77
:102E60009FEF11969C938E930F900FBE80E090E0A1
:102E7000DF91CF9108950F931F93CF93DF93EC01D0
:102E80000FB6F8940F92888199810F900FBE2FEFA3
:102E90008F3F920741F40FB6F8940F92198218826F
:102EA0000F900FBE02C0892B19F400E010E012C091
:102EB00000E010E0CE010E94EC16080F191F0FB6BB
:102EC000F8940F92888199810F900FBE01978E5FC1
:102ED0009F4F80F3C801DF91CF911F910F9108950B
:102EE0000F931F930E943B178C010E944814C80146
:102EF0001F910F9108950F931F930E94EC168C0160
:102F00000E944814C8011F910F910895CF93DF9339
:102F1000AC01DB010FB6F8940F92CD91DC911197C3
:102F20000F900FBE8FEFCF3FD80799F534C08D8932
:102F30009E892A813B818417950741F50FB6F89445
:102F40000F9211963C932E938C819D81892B81F059
:102F5000EA81FB81309729F08C819D819583848360
:102F600005C08FEF9FEF11969C938E931D821C825C
:102F70000F900FBE82E08F8762E173E0CE010E9466
:102F8000DC128FEF9FEF9E8B8D8B05C0DE011296BA
:102F9000E901209761F6DF91CF910895AF92BF923A
:102FA000CF92DF92EF92FF920F93CF93DF93EC01DA
:102FB0005A016B010FB6F8940F92888199810F9096
:102FC0000FBE8F5F9F4F51F40FB6F8940F92198286
:102FD00018820F900FBE0E94481438C062E173E05F
:102FE00080911403909115030E942A13BE018091D1
:102FF0001403909115030E94DC12E0911403F091E8
:10300000150383E08787E0901403F0901503A11463
:10301000B104C104D10461F001E09E0146E857E12A
:10302000C601B5010E945315F701968B858B03C02D
:10303000F701168A158A0E940314E0911403F09197
:103040001503858996898F5F9F4F19F080E090E086
:1030500004C0168A158A8FEF9FEFDF91CF910F91F1
:10306000FF90EF90DF90CF90BF90AF900895FC015C
:103070000FB6F8940F92808191818F5F9F4F11F46A
:10308000118210820F900FBECF010E94CE170895BB
:103090000F931F93CF93DF938C01C0918402D09143
:1030A00085020AC0B801CE0102960E940D4C892B00
:1030B00029F00990D881C02D2097A1F7CE01DF918A
:1030C000CF911F910F910895CF93DF93EC01892B3E
:1030D00011F16115710511F07D876C8741114E87E3
:1030E000CE0102960E944818892BA9F4EB89FC892D
:1030F000309721F0CE010995892B69F480918402E3
:103100009091850299838883D0938502C09384022D
:1031100080E090E002C08FEF9FEFDF91CF910895A4
:1031200083E180931E038FE480931F0383E58093E4
:10313000200343E150E06EE173E080E090E00E9404
:10314000822A892B19F08FEF9FEF089580E090E09D
:10315000089543E150E06EE173E080E090E00E946A
:10316000852A892B79F480911E03833159F480914B
:103170001F038F3439F480912003833519F480E0E4
:1031800090E008958FEF9FEF08959F918F910F909A
:103190000BBE0F900FBE1F9018952F923F924F922B
:1031A0005F926F927F928F929F92AF92BF92CF92D7
:1031B000DF92EF92FF920F931F93CF93DF938DB720
:1031C0009EB7E0911403F0911503918B808BE091F1
:1031D0001203F0911303F0931503E093140381E0BD
:1031E0008787E0911403F0911503808991898DBF41
:1031F0009EBFDF91CF911F910F91FF90EF90DF90D5
:10320000CF90BF90AF909F908F907F906F905F9086
:103210004F903F902F900895CF92DF92EF92FF92C0
:103220000F931F93CF93DF938C017B016A01E90118
:10323000C90149960E94DB11FC01009719F480E056
:1032400090E075C0C80FD91F9E0127503040AE01D5
:103250004B515040CE01069668E0D8010D908D018B
:10326000DC010D92CD016150C1F71E8641505040E6
:10327000598B488B4F5F5F4FFC8BEB8B8FEE9EEB38
:10328000ADEABEED80839183A283B383848395836B
:10329000A683B78380879187A287B3878487958722
:1032A000A687B78780E48A8B8F2D9927F9018583BC
:1032B000E68280E8838312821482C1828D2D992751
:1032C000808325EC38E1832F9927FA01828B238BA9
:1032D000809110039091110399838883D0931103F7
:1032E000C093100312E01F871E8A1D8A188E1F8A42
:1032F00062E173E0CE010E94DC12E0911403F091D0
:103300001503309721F40FB6F8940F9260CF809197
:10331000120390911303E817F90741F017870FB6CE
:10332000F8940F920E94CD180F900FBECE01DF913E
:10333000CF911F910F91FF90EF90DF90CF90089564
:103340001F93182F609186027091870280918802E6
:103350009091890220EA3FE040E050E00E945D4CFD
:10336000822F932F0197F1F71A95D1F71F910895A6
:103370006091860270918702809188029091890203
:10338000089560E074E080E090E00895BC0187B7A4
:103390008D7F87BF80B7886080BF12BE82E083BF09
:1033A00080B7992787709070892BD1F781E086BF0D
:1033B0000FB6F8940F9281E090E0A0E0B0E0B6B7CD
:1033C000B170E9F3B6BF0894811D911DA11DB6B778
:1033D000B170C9F3BB270F900FBE27E0880F991F6C
:1033E000AA1FBB1F2A95D1F780938602909387026C
:1033F000A0938802B093890287B78D7F87BF80B77B
:10340000886080BF12BE89E083BF8FE181BF80B733
:10341000992787709070892BD1F782E086BF40E0B2
:1034200050E082E591E00E94EE2308953AE0660FB5
:10343000771F881F991F3A95D1F728EE33E040E0B7
:1034400050E00E945D4C211531054105510521F4E4
:1034500021E030E040E050E0CA01B90108959C014C
:10346000FB0187B7482F55274270507087B78D7F73
:1034700087BF20313105D9F0213131053CF42115C8
:10348000310581F02130310551F40EC02231310572
:1034900071F122313105E4F020323105E1F02FEFF6
:1034A0003FEF1FC040E050E082E086BF18C006B684
:1034B00001FE05C081E090E09183808302C011820B
:1034C0001082452BA1F08081918180689183808357
:1034D00020E030E008C08EE090E09183808320E01F
:1034E00030E0452B31F087B7826087BF02C020E013
:1034F00030E0C90108951F920F920FB60F92112468
:103500002F933F934F935F936F937F938F939F93EB
:10351000AF93BF93EF93FF9382E591E00E94E02386
:10352000FF91EF91BF91AF919F918F917F916F919B
:103530005F914F913F912F910F900FBE0F901F9071
:103540001895CF93DF93DC01EC01EA81FB81209198
:103550008B02422F5527CA0180739070892B89F006
:1035600044FF04C083E18CB9206403C081E18CB9BD
:103570002F7B20938B0280918B028F7C80938B0218
:1035800049C027FF02C0559845C0ED018A859B853B
:10359000892B51F18A859B8501979B878A8780912A
:1035A0008C02882311F0509A01C0509881918CB9F7
:1035B0009F01FD01868197812817390711F4248125
:1035C0003581ED013B832A832A853B858C859D854A
:1035D00028173907F9F4E889F989309769F08FEFEE
:1035E000EF3FF807B9F011C05598ED011B861A8618
:1035F000E889F989309729F48FEF9FEF998B888BB1
:1036000009C08FEFEF3FF80729F08481958101967B
:1036100095838483DF91CF910895CF93DF93DC016D
:103620003BB180918A02382B30938A026CB1209191
:103630008B02222361F0633119F45598206804C08D
:10364000613129F4559A2F7720938B0251C0ED01F7
:103650004A855B85888599854817590720F0386029
:1036600030938A0245C04F5F5F4F41305105A1F44E
:10367000ED01E889F989309729F48FEF9FEF998B55
:10368000888B1EC08FEFEF3FF807D1F084819581C2
:1036900001969583848314C0222391F0ED018E85D9
:1036A0009F854817590760F026FD0AC05D9B05C03D
:1036B00083E18CB920642F7D01C0206220938B02AE
:1036C000ED91FC91119761931196FC93EE932D91DE
:1036D0003C911197FD01868197812817390729F4BC
:1036E0008481958111969C938E93ED015B874A8727
:1036F000DF91CF910895529B03C089E090E0089537
:103700008091950082FF0AC08091950081FF03C0DF
:1037100088E090E0089587E090E00895809195001A
:1037200081FF03C086E090E0089585E090E0089571
:103730008091950085FD03C080E090E00895809120
:10374000950084FF03C081E090E0089582E090E05E
:1037500008958091950083FF03C082E090E0089572
:1037600081E090E0089580918A02682F7727CB014D
:1037700024E0969587952A95E1F79C0144275527E3
:10378000217030704070507063FD226062FD2460D3
:1037900080918B02882321F086FD426087FD48607E
:1037A00041FF416043FF446080918C02882321F0F7
:1037B000CA01B901806403C0CA01B9018068589B7D
:1037C00002C08061089580620895EF92FF920F9386
:1037D0001F937B018C0180918B028823D9F00FB657
:1037E000F8940F9200FF02C08F7B03C001FF03C05B
:1037F000806480938B0202FF04C080918B028F77DC
:1038000005C003FF05C080918B02806880938B0206
:103810000F900FBE06FF03C081E080938C0207FF6C
:1038200002C010928C0204FD589A05FD5898E0FEE3
:1038300005C080918A028F7E80938A02E1FE05C0D6
:1038400080918A02877F80938A02E2FE05C0809180
:103850008A028B7F80938A020E94B31B687F6E1559
:103860007F058007910719F08FEF9FEF02C080E07E
:1038700090E01F910F91FF90EF9008958091950037
:1038800086FF0BC0129B02C093E001C091E08091C3
:10389000950080FF07C0946005C0599B02C090E26C
:1038A00001C090E0892F9927089580918B02882389
:1038B00029F060E270E080E090E0089560E070E060
:1038C00080E090E00895559A089590918B02992395
:1038D000A9F096FF13C00FB6F8940F925D9B04C039
:1038E00081E18CB99F7E01C0906190938B028091A1
:1038F0008B028F7980938B020F900FBE08950FB6C5
:10390000F8940F925798569855980F900FBE8AE0EA
:103910000E94A0195498539808951F93182F0E943D
:103920007F1C5298809195008D7F809395008091A7
:1039300095008B7F809395001730A1F0183018F414
:103940001630A9F405C0183041F0193081F404C0D4
:1039500080919500826009C0529A809195008260A2
:1039600080939500809195008460809395000FB6B8
:10397000F8940F9288EB8AB90F900FBE0E947B1BC0
:10398000811719F08FEF9FEF02C080E090E01F9148
:1039900008958F929F92AF92BF92CF92DF92EF9253
:1039A000FF920F931F9389B09090900080919500A3
:1039B00086FF06C072E0A72EB12CC12CD12C0DC001
:1039C000599B06C068E0A62EB12CC12CD12C05C095
:1039D00050E1A52EB12CC12CD12C0E94B8197B012D
:1039E0008C01282D3327892D9927982F8827282B5C
:1039F000392B442755272F5F3F4F4F4F5F4FC6014D
:103A0000B5010E941E4C9B01AC01C801B7010E9488
:103A10005D4CCA01B9011F910F91FF90EF90DF90AB
:103A2000CF90BF90AF909F908F90089540E050E06E
:103A300060E070E089E292E00E94EE2340E050E016
:103A400060E070E08FE292E00E94EE2380E090E080
:103A500008954DE951E06DE07BE189E292E00E943A
:103A6000EE23892B19F08FEF9FEF08954BE851E07B
:103A700061EA7AE18FE292E00E94EE23892B19F449
:103A800080E090E0089540E050E060E070E089E27E
:103A900092E00E94EE238FEF9FEF0895EF92FF9246
:103AA0000F931F937B018C010E947F1C80919500D6
:103AB00086FD11C0599B08C0B2E0EE0CFF1C001F30
:103AC000111FBA95D1F707C0A3E0EE0CFF1C001F31
:103AD000111FAA95D1F70E94B819A80197010E9459
:103AE0005D4C2F5F3F4F4F4F5F4F56954795379532
:103AF00027952150304029B9232F33272093900058
:103B00000FB6F8940F9288EB8AB90F900FBE80E041
:103B100090E01F910F91FF90EF9008951F93182F41
:103B20000E947F1C812F992780FF13C081FF02C054
:103B3000129A01C0129882FF04C0809195008160A2
:103B400003C0809195008E7F8093950059985E9A6E
:103B50000FC085FF02C0599A01C059988091950005
:103B60008E7F80939500809195008F7B8093950048
:103B70000FB6F8940F9288EB8AB90F900FBE0E948F
:103B80003E1C811719F08FEF9FEF02C080E090E09C
:103B90001F9108951F93182F0E947F1C113071F000
:103BA000113018F01230C1F40DC0809195008F7E55
:103BB00080939500809195008F7D0CC08091950039
:103BC000806103C0809195008F7E809395008091E5
:103BD00095008062809395000FB6F8940F9288EB61
:103BE0008AB90F900FBE0E94981B811719F08FEFB2
:103BF0009FEF02C080E090E01F9108951F93182F5F
:103C00000E947F1C113021F480919500877F05C0B0
:103C1000123029F4809195008860809395000FB64A
:103C2000F8940F9288EB8AB90F900FBE809195009F
:103C300083FF03C082E090E002C081E090E01817AB
:103C400019F08FEF9FEF02C080E090E01F91089580
:103C5000EF92FF920F931F937B018C0165FF11C0C0
:103C600080918B02882341F40FB6F8940F9281E47F
:103C700080938B020F900FBE20E230E040E050E0D6
:103C80000BC00FB6F8940F9210928B020F900FBEDC
:103C900020E030E040E050E02E153F05400751079E
:103CA00019F08FEF9FEF02C080E090E01F910F911D
:103CB000FF90EF900895E82F83E080930EC08091ED
:103CC00008C08A7F982F986020E0782F7960582F5D
:103CD0005D60709308C0509308C02F5F2132C9F710
:103CE000909308C0492F4460409308C0709308C067
:103CF000509308C0662349F0909308C0409308C0D1
:103D0000709308C0509308C008C0709308C05093C7
:103D100008C0909308C0409308C080E0909308C00A
:103D2000409308C08F5F8530C9F760E120E030E044
:103D30008E2F862329F0709308C0509308C004C0CA
:103D4000909308C0409308C066952F5F3F4F253081
:103D5000310571F7909308C0892F9927089560E085
:103D60000E945B1E482F477F409308C0642F646009
:103D7000609308C020E030E050E0409308C06093BA
:103D800008C0220F331F809108C099279695879508
:103D900081709070282B392B5F5F503171F7409301
:103DA00008C0C9010895CF93DF93EB0161E00E9441
:103DB0005B1E282FF82FF160F09308C0E82FE56014
:103DC000E09308C0809308C0382F3460309308C057
:103DD00060E070E840E050E0CE0186239723892B15
:103DE00029F0F09308C0E09308C004C0209308C0F5
:103DF000309308C0769567954F5F5F4F403151050E
:103E000059F7277F209308C0DF91CF910895CF9372
:103E1000DF93FC01C189D2898C859D85AE85BF85E4
:103E20000196A11DB11D8C879D87AE87BF8792E04B
:103E300090930EC040910DC010920DC080910CC0A7
:103E40008423282F332722FF05C084E080930CC0F1
:103E50004B7F14C021FF12C010920EC0809100C091
:103E60008160809300C0809100C0109201C0909347
:103E70000EC090930CC080EA809300C024FF18C04D
:103E800080E180930CC088819981892B29F48FEF80
:103E90009FEF998388830CC0888199818F5F9F4FA2
:103EA00039F0E881F9818481958101969583848335
:103EB00026FF18C080E480930CC088819981892BEB
:103EC00029F48FEF9FEF998388830CC088819981B3
:103ED0008F5F9F4F39F0E881F98184819581019648
:103EE0009583848320FF19C081E080930CC04E7FAE
:103EF00088819981892B29F48FEF9FEF998388839B
:103F00000CC0888199818F5F9F4F39F0E881F981DA
:103F10008481958101969583848323FF17C0477F11
:103F2000E0918F02F0919002309739F48FEF9FEF7C
:103F30009093900280938F0209C05FEFEF3FF507E7
:103F400029F08481958101969583848340930DC0E7
:103F5000DF91CF910895FC016115710569F09B0116
:103F600021503040832F9927982F8191809308C04A
:103F70002150D8F79150C8F70895CF93DF93EC0103
:103F800089B78F7D89BFE989FA8980E211928A9584
:103F9000E9F7AE0167E07FE183E292E00E94EE2361
:103FA000892B19F08FEF9FEF0BC020E832E0AE01B4
:103FB0006BEF70E284ED91E00E940C1980E090E0DC
:103FC000DF91CF910895CF93DF93EC0107C08091EB
:103FD00000C080FF09C081E00E94A01921978FEFE7
:103FE000CF3FD807A1F705C0CD2B19F48FEF9FEF76
:103FF00002C080E090E0DF91CF910895CF92DF92F0
:10400000EF92FF920F931F93CF93DF93EC018B01FD
:104010004091FC015091FD016091FE017091FF0102
:104020008DE892E00E94CE17892B09F0CCC0C98898
:10403000DA88F801C185D28585859685C80FD91F94
:1040400081899289C80FD91FF5E0CD3DDF0708F0BF
:10405000B3C0F0900DC010920DC082E080930EC0EE
:1040600080E2809300C084E690E00E94E31F892BE9
:1040700009F0A2C088E0F82AF0920DC02696F80157
:1040800085819681C80FD91FC0FD02C0EE242DC0C6
:10409000219691E0E92E29C04DE750E060E070E004
:1040A0008FE892E00E94CE17892BF9F080E480938C
:1040B00000C088EE93E00E94E31F80E2809300C07E
:1040C00084E690E00E94E31F892B21F480910CC0CC
:1040D00083FD0BC04DE750E060E070E08FE892E0B8
:1040E0000E94CE17892B09F067C080910CC083FF16
:1040F000D3CFF0900DC010920DC0809103C080937B
:1041000002C0109206C080E4809307C0109208C0DD
:10411000109208C0C09308C08D2F9927809309C0C2
:10412000F80165817681838194810E94AB1FF8013B
:1041300061857285878190850E94AB1FF801658536
:104140007685838594850E94AB1FF8016189728909
:10415000878590890E94AB1FEE2011F0109208C055
:10416000109208C0109209C084E690E00E94E31FFC
:10417000892B11F580EC809300C0F6E0FF2AF092C5
:104180000DC0F60180859185A285B3850196A11D9C
:10419000B11D80879187A287B38788E893E1A0E06B
:1041A000B0E08093FC019093FD01A093FE01B093D9
:1041B000FF01C0E0D0E002C0CFEFDFEF8DE892E07A
:1041C0000E947B170EC084EF91E0A0E0B0E08093E6
:1041D000FC019093FD01A093FE01B093FF01CFEF8E
:1041E000DFEFCE01DF91CF911F910F91FF90EF9004
:1041F000DF90CF9008954C01EC01AF84B888C98856
:10420000DA88F50181819281A381B4810197A109A6
:10421000B1098E5F9F4FAF4FBF4F38F06FE370E033
:1042200080E090E00E946615ECCF75010894E11CD7
:10423000F11C10920DC010920EC0109204C080E8C4
:10424000809305C011E010930EC0109200C08093BF
:1042500001C08AE00E94A01910920EC0109204C002
:10426000109205C0109200C0109201C010930EC0B1
:1042700010920CC088E080930DC082E080930EC045
:1042800080E4809300C088EE93E00E94E31F892BB6
:1042900009F073C0ECC06FE370E080E090E00E9432
:1042A000661580E00E94AF1E97FF06C0C430D1059E
:1042B00009F463C02196EFCF82E10E94AF1E60EC4B
:1042C0007FE383E10E94D31E10920EC080E18093B1
:1042D0000AC088E080930BC061EE71E084E00E9428
:1042E000D31E6FE370E080E090E00E946615C0E0AE
:1042F000D0E0CE018F779070892B59F460E072E1A5
:1043000080E00E94D31E6FE370E080E090E00E94A6
:10431000661581E00E94AF1E85FDC3C06FE370E0AB
:1043200080E090E00E946615219624E0C030D2071C
:1043300021F1DFCFF701EA0FFB1F8081AC5FBF43A4
:104340008C93A350B04CA630B105A1F782E08093C6
:104350000EC081E580930DC08AB784608ABF8AB79A
:1043600088608ABF89B7806289BF8DE892E00E9429
:104370007B1789E00E94C41307C068EE73E080E0F9
:1043800090E00E94661551CF40ED57E060E070E08C
:10439000C6010E94CE17F0900DC010920DC013C040
:1043A000E6018C819D81AE81BF810196A11DB11D69
:1043B000F60184839583A683B783E501EB8DFC8D9D
:1043C000BA01C401099582E080930EC0809104C0B7
:1043D000909105C097FD46C0109206C080EE809374
:1043E00007C00000000000000000809108C090910C
:1043F00009C0C09108C0D09109C080709C7A892BF7
:1044000009F059C0CE0182549040835B954008F07A
:1044100052C08E0103501040A80160E180E090E09E
:104420000E942529AC01009709F441C0FC01838159
:104430009481012B71F0FC019E0124503040832FA8
:104440009927982F809108C081932150D8F79150D7
:10445000C8F780E8809300C0FFEF4F3F5F0709F087
:104460009FCFB1CF21E4F22AF0920DC08DCF83E02F
:1044700080930EC087E080930CC010920EC0109203
:1044800004C081E0809305C081E8809300C0109251
:1044900001C060E070E880E00E94D31EC0E0D0E080
:1044A000FACE81E080930EC0A0E0B0E043CF80E878
:1044B000809300C0D7CF80E8809300C084CF9C0158
:1044C000FB0189B7482F55274072507089B78F7DFF
:1044D00089BF21313105D1F1223131054CF4213030
:1044E0003105F9F020313105F9F0232BA1F066C038
:1044F0002831310571F1293131052CF42231310592
:1045000009F05CC063C029313105B9F120323105B1
:1045100009F054C023C08AB78B7F8ABF8AB7877FD0
:104520008ABF80E288BF1EC008B605FE05C081E0D4
:1045300090E09183808302C011821082452B09F4A0
:1045400045C08081918180689183808320E030E044
:1045500039C08AB7982F987083FF07C085E090E034
:104560009183808320E030E02BC0943019F487E001
:1045700090E0F6CF81E090E0F3CF6081718161300F
:10458000710519F48AB78B7F05C06730710531F466
:104590008AB784608ABF8AB7877F0EC0653071058D
:1045A00019F48AB78B7F05C06630710539F48AB774
:1045B00084608ABF8AB788608ABFD4CF2FEF3FEF6D
:1045C000452B31F089B7806289BF02C020E030E01E
:1045D000C90108951F920F920FB60F9211242F93C5
:1045E0003F934F935F936F937F938F939F93AF937B
:1045F000BF93EF93FF9383E292E00E94E023FF9149
:10460000EF91BF91AF919F918F917F916F915F914A
:104610004F913F912F910F900FBE0F901F901895C3
:104620009C01FB018AB1482F55274078507057985C
:1046300020313105D9F0213131053CF42115310506
:1046400081F02130310551F40EC02231310559F18C
:1046500022313105DCF020323105D9F08FEF9FEFA8
:104660001EC040E050E08CB18CB117C05F9B05C00C
:1046700081E090E09183808302C011821082452BFB
:1046800091F08081918180689183808380E090E0C7
:1046900008C080E190E09183808380E090E0452B2A
:1046A00021F0579A089580E090E008951F920F92AC
:1046B0000FB60F9211242F933F934F935F936F93F5
:1046C0007F938F939F93AF93BF93EF93FF9389E271
:1046D00092E00E94E023FF91EF91BF91AF919F91F3
:1046E0008F917F916F915F914F913F912F910F909B
:1046F0000FBE0F901F9018959C01FB018AB1482FA7
:1047000055274072507055982131310519F12231E9
:1047100031053CF42115310551F12031310539F4D1
:1047200009C02231310519F120323105B1F08FEF86
:104730009FEF19C05D9B05C081E090E0918380836D
:1047400002C011821082452B91F080819181806896
:104750009183808380E090E008C080E190E09183C5
:10476000808380E090E0452B21F0559A089580E009
:1047700090E008951F920F920FB60F9211242F937D
:104780003F934F935F936F937F938F939F93AF93D9
:10479000BF93EF93FF938FE292E00E94E023FF919B
:1047A000EF91BF91AF919F918F917F916F915F91A9
:1047B0004F913F912F910F900FBE0F901F90189522
:1047C000CF93DF93DC01EC01EA81FB81309719F094
:1047D0008D919C910995DF91CF910895EF92FF9271
:1047E0000F931F93CF93DF93EC017B018A01EC8140
:1047F000FD81309719F480E090E005C060E070E042
:1048000080E090E0099519830883FB82EA82DF91BA
:10481000CF911F910F91FF90EF900895CF93DF9369
:10482000EC01EC81FD81309719F48FEF9FEF05C00B
:1048300060E070E081E190E00995DF91CF9108950B
:10484000CF93DF93EC01EC81FD81309719F48FEF6A
:104850009FEF05C060E070E082E190E00995DF9194
:10486000CF9108950F931F93CF93DF93CDB7DEB70A
:1048700024970FB6F894DEBF0FBECDBF8C017C83AA
:104880006B83FC01248135812115310519F48FEFEB
:104890009FEF17C0BE016F5F7F4F80E290E0F9018C
:1048A0000995009771F4F80124813581BE016D5F8F
:1048B0007F4F81E290E0F9010995009711F4898119
:1048C0009A8124960FB6F894DEBF0FBECDBFDF915C
:1048D000CF911F910F9108950F931F93CF93DF9363
:1048E000CDB7DEB724970FB6F894DEBF0FBECDBFAD
:1048F0008C017C836B83FC0124813581211531057A
:1049000019F48FEF9FEF17C0BE016F5F7F4F88E1F3
:1049100090E0F9010995009771F4F801248135813F
:10492000BE016D5F7F4F89E190E0F9010995009725
:1049300011F489819A8124960FB6F894DEBF0FBED8
:10494000CDBFDF91CF911F910F9108950F931F93CA
:10495000CF93DF93FC01C189D289EDA9FEA9099506
:104960008C01892B49F4CF5BDF4FE881F98160E04E
:1049700072EC81E090E00995C801DF91CF911F9121
:104980000F910895CF93DF93EC01EA81FB810188B9
:10499000F289E02D0FB6F8940F9264A575A50F90DB
:1049A0000FBE88279927DF91CF910895CF92DF928C
:1049B000EF92FF920F931F93CF93DF93EC018B0144
:1049C0007A0169018C819D81288539850FB6F8941B
:1049D0000F92198618860F900FBE2617370789F099
:1049E000232B21F0009711F00E94434B0115110574
:1049F00009F1C8010E94464B009729F48FEF9FEF01
:104A00001BC0672BB9F09D838C83998388839B831C
:104A10008A83800F911F9F838E83FD86EC86DF86BD
:104A2000CE861B861A860FB6F8940F9219870887D0
:104A30000F900FBE80E090E0DF91CF911F910F911A
:104A4000FF90EF90DF90CF900895CF92DF92EF929A
:104A5000FF920F931F93CF93DF936A01DA01ED90DA
:104A6000FD900D911C912E2DFC01C189D2896150C0
:104A700071406732710548F46A5B7F4FFB01EE0FAE
:104A8000FF1F0590F491E02D09940FEF1FEF24C153
:104A9000CF5BDF4F50C0CD5BDF4FE881F9810995D7
:104AA000D6016D937D938D939C93139713C1CB5B2C
:104AB000DF4FE881F981822F09958C010DC1C95B17
:104AC000DF4F0BC0C75BDF4FF4CFC55BDF4F05C0C7
:104AD000C35BDF4FEECFC15BDF4FE881F981099502
:104AE0009927AA27BB27F1C0E6FE0EC0FE01B296A9
:104AF000268537854485558560857185CF010E945F
:104B0000D624EBADFCAD0995E7FE0BC0FE01709617
:104B1000268537854485558560857185CF010E943E
:104B2000D624CF5ADF4F8FE39FEFAFEFBFEFE822DE
:104B3000F9220A231B23E881F9814CC0CD5ADF4FAB
:104B4000E881F981C355D04009959B01AC01D6019C
:104B50006D937D938D939C9313978CA59DA5892B25
:104B600031F42064F60120833183428353838A8D9C
:104B70009B8D892B09F0AEC0F60180819181A281C5
:104B8000B3818068A3C0E886F9860A871B87A2C024
:104B900088859985AA85BB8598C0EC86FD860E8799
:104BA0001F8798C08C859D85AE85BF858EC0888106
:104BB0009981AA81BB81EE2011F0806422C08F7B95
:104BC00020C088819981AA81BB8186FF27C021C02E
:104BD000EDADFEADC801B70109956FCFEF96E88145
:104BE000F9810995F601608371838283938372C092
:104BF00088819981AA81BB81EE2011F0806801C073
:104C00008F7788839983AA83BB8364C0888187FF59
:104C100005C081E090E0A0E0B0E057C0D6011D9251
:104C20001D921D921C92139755C0CB5ADF4F41CF56
:104C3000C95ADF4F52CFFE017096268537854485CD
:104C40005585B701CF010E94D6248C01892B09F02C
:104C500043C0EBADFCAD09953FC0888D998D33C045
:104C6000FE01B2962685378544855585B701CF016B
:104C70000E94D62422CF8AA59BA525C00FB6F89402
:104C80000F92FD8EEC8E1AC08C8D9D8D1CC00FB6C0
:104C9000F8940F92FF8EEE8E11C08E8D9F8D13C0F3
:104CA0000FB6F8940F92FFA6EEA608C08EA59FA59A
:104CB0000AC00FB6F8940F92F9AAE8AA0F900FBE97
:104CC00009C088A999A9AA27BB27F60180839183E7
:104CD000A283B38300E010E0C801DF91CF911F9160
:104CE0000F91FF90EF90DF90CF900895CF92DF92D9
:104CF000EF92FF920F931F93CF93DF936C018A0182
:104D0000FC01C189D28983E0E82EF12CE422F5224E
:104D1000E114F10481F028E330E048E250E060E47F
:104D200070E0CE0140960E94D624892BA1F4F1E0D8
:104D3000EF16F10499F020EF30E040ED50E060E034
:104D400071E0CE0182960E94D624892B39F08C899D
:104D50009D890E94434B0FEF1FEF2CC086E090E02F
:104D60000E94464B009739F48C899D890E94434BE1
:104D70008EA19FA1EECF0070107C288139814A81DD
:104D80005B810050104811F42F7701C02068288300
:104D900039834A835B838C01FC0111821082D382A8
:104DA000C28215821482F1E0EF16F10419F0EBAD26
:104DB000FCAD0995C801DF91CF911F910F91FF9034
:104DC000EF90DF90CF900895CF93DF93DC01EC015B
:104DD000EA81FB81C189D28901978E5F9F4F18F0CC
:104DE0008FEF9FEF19C0CD010E94434B20E030E0D0
:104DF00040E050E060E070E0CE0140960E94D62492
:104E000020E030E040E050E060E070E0CE018296CB
:104E10000E94D62480E090E0DF91CF910895CF9258
:104E2000DF92EF92FF920F931F93CF93DF937C015A
:104E30006A01EC0160960FB6F8940F928A859B8503
:104E4000860F971F9B878A8713C0F70181AD92ADAC
:104E5000FC010995F7014485558566857785CE0166
:104E600040960E94CE17892B51F40FB6F8940F92FA
:104E70000A851B850F900FBEC016D10630F3C801FE
:104E8000DF91CF911F910F91FF90EF90DF90CF9026
:104E900008956F927F928F929F92AF92BF92CF921E
:104EA000DF92EF92FF920F931F93CF93DF93CDB7D3
:104EB000DEB722970FB6F894DEBF0FBECDBF4A0112
:104EC0005901FC01E188F288A0E16A2E712C6E0C78
:104ED0007F1CF30180859185892B21F4FFEFCF2E74
:104EE000DF2E9BC06115710549F440E050E060E0A1
:104EF00070E0C7010E940F276C018FC0F70180810D
:104F00009181A281B3819C01AD01E9E0569547955D
:104F100037952795EA95D1F721702A8327E0B69532
:104F2000A795979587952A95D1F7817089830FB6B4
:104F3000F8940F92F301428553850F900FBE8B01B9
:104F400060E070E0CC24DD2450C09A01260F371FAA
:104F5000F301868597852817390778F044855585AC
:104F6000C7010E940F27AC01F30184859585841742
:104F7000950708F452C060E070E0A114B10419F084
:104F8000F801849102C0D8018C91B981B13069F4E3
:104F90008A3081F4EA81E13019F0F2E0F98303C04C
:104FA00082E08A8389838DE00AC09981923011F46E
:104FB000A1E0A9830F5F1F4F0894C11CD11CD3012E
:104FC000ED91FC91119781931196FC93EE932D91A5
:104FD0003C91F301868197812817390721F4848158
:104FE0009581918380836F5F7F4FC814D9040CF43F
:104FF000ACCF6115710589F00FB6F8940F92F301EB
:1050000082859385860F971F938782870F900FBEA7
:10501000F70181AD92ADFC010995C60122960FB64C
:10502000F894DEBF0FBECDBFDF91CF911F910F91DE
:10503000FF90EF90DF90CF90BF90AF909F908F90B8
:105040007F906F90089521E030E0FC018281938190
:105050000E944927089520E030E0FC01828193817D
:105060000E9449270895AF92BF92CF92DF92EF92AC
:10507000FF920F931F93CF93DF937B015A01EC01B3
:10508000EA81FB8101891289E801A2966885798508
:105090006115710519F48FEF9FEFA1C0E114F104C0
:1050A00061F42E853F854C855D85CE010E94D62416
:1050B000E801EBADFCAD09951AC00FB6F8940F925C
:1050C0006A857B850F900FBE6115710599F4F80113
:1050D00083AD94ADFC010995F80140855185628549
:1050E0007385CE0140960E94CE17892B31F380E064
:1050F00090E075C0D701F801808187FF35C0CC24CE
:10510000DD24EE24FF245AE02BC0E616F70609F44E
:105110004FC0EA81FB814191FB83EA832A813B8175
:105120008E819F812817390721F48C819D819B8373
:105130008A834D3011F04A3051F4F80184A9882354
:1051400011F0841751F4F80144AB5D9303C0F801EA
:1051500014AA4D930894C11CD11C0894E11CF11CA5
:10516000CA14DB0490F221C06B01A616B70608F43E
:10517000650140E050E0D70114C0EA81FB818191D4
:105180008C93FB83EA832A813B818E819F81281740
:10519000390721F48C819D819B838A834F5F5F4F08
:1051A00011964C155D0549F77601E114F104B1F053
:1051B0000FB6F8940F928A859B858E199F099B875D
:1051C0008A870F900FBE2A853B858C859D85281781
:1051D000390720F4E801EBADFCAD0995C601DF917C
:1051E000CF911F910F91FF90EF90DF90CF90BF90E4
:1051F000AF9008950F931F938C01FC0180819181E2
:105200000E944E12F80111821082138212821F91A5
:105210000F9108950F931F93CF93DF93EC018B01B0
:10522000CB010E94DB1199838883892B29F41B828F
:105230001A828FEF9FEF04C01B830A8380E090E007
:10524000DF91CF911F910F910895BF92CF92DF927E
:10525000EF92FF920F931F93CF93DF93EC01B62E43
:105260007A01892B41F483E190E00E94C712EC019E
:10527000892B09F4A7C0BB2009F4A4C0E114F104F0
:1052800009F480C0CB2CDD24C4FE1CC08A8184FFBD
:1052900011C08D819E818E159F0548F48E010D5F92
:1052A0001F4FC8010E94FA28B701C80106C0FE823C
:1052B000ED8208C0B701CE0103960E940A29892B0E
:1052C00009F057C0C5FE1BC08A8185FF11C08985C2
:1052D0009A858E159F0548F48E01095F1F4FC801FE
:1052E0000E94FA28B701C80106C0FA86E98607C0FD
:1052F000B701CE0107960E940A29892BD1F5C6FE77
:105300001BC08A8186FF11C08D859E858E159F05E5
:1053100048F48E01055F1F4FC8010E94FA28B701AB
:10532000C80106C0FE86ED8607C0B701CE010B9608
:105330000E940A29892BE9F4B7FE21C08A8187FFE0
:1053400011C089899A898E159F0548F48E01015FE5
:105350001F4FC8010E94FA28B701C80106C0FA8A87
:10536000E98A0DC0B701CE010F960E940A29892B48
:1053700031F0CE010E94ED29C0E0D0E023C08A8147
:105380008B291FC0FA80FB200F2D112704FF04C0BA
:10539000CE0103960E94FA2805FF04C0CE010796AD
:1053A0000E94FA2806FF04C0CE010B960E94FA283C
:1053B000F7FE04C0CE010F960E94FA28F0948A816D
:1053C0008F218A83CE01DF91CF911F910F91FF90A2
:1053D000EF90DF90CF90BF900895CF93DF93EC01D3
:1053E000009769F040E050E06A810E942529CE01D3
:1053F0000E944E12892B19F08FEF9FEF02C080E0C0
:1054000090E0DF91CF910895EF92FF920F931F9359
:10541000CF93DF938C0183E190E00E94C712EC01EF
:10542000009779F07C01F80165817681611571053D
:10543000B9F003960E940A29892B31F0CE010E940F
:10544000ED29EE24FF2456C0F80163817481458163
:1054500056818B819C810E94FD4B8A8180618A8369
:10546000F801618572856115710591F0CE0107968D
:105470000E940A29892B81F5F80167817085418591
:1054800052858F8198850E94FD4B8A8180628A8334
:10549000F801658576856115710591F0CE010B9651
:1054A0000E940A29892BC1F4F8016385748545851A
:1054B00056858B859C850E94FD4B8A8180648A83FA
:1054C000F8016189728961157105A1F0CE010F960D
:1054D0000E940A29892B11F0CE01B1CFF80167850E
:1054E0007089418952898F8598890E94FD4B8A81F4
:1054F00080688A83C701DF91CF911F910F91FF9040
:10550000EF9008950E94882A08950E94A82A08957D
:10551000CF93DF93EA019C0140E050E0FB0110C013
:10552000D9010E947F4C802D9081981721F0D901DC
:10553000092E0E94874C4F5F5F4F31962F5F3F4F80
:105540004C175D0769F780E090E0DF91CF910895F7
:10555000CF93DF93EA01DC01FB01219724F00E9445
:105560007F4C0192FACF80E090E0DF91CF910895D7
:105570000F931F93CF93DF938C01C091B102D09111
:10558000B202FE011BC0808D918D8017910799F4A6
:10559000828D938DA48DB58D82179307A407B507CF
:1055A00051F4868D978D8617970729F48389882370
:1055B00011F0CF0117C00190F081E02D309719F75D
:1055C0000DC08B89813039F4888D998D80179107B2
:1055D00011F4CE0107C00990D881C02D209789F71A
:1055E00080E090E0DF91CF911F910F910895CF93CC
:1055F000DF93FC01EA01892B09F459C080E1623094
:105600007807E1F080E16330780744F46230710597
:1056100069F06150704109F044C032C080E16530EA
:105620007807B1F066507041E1F51AC0452B69F179
:105630002230310551F5EE5AFF4F07C0452B29F1B5
:105640002230310511F5E85BFF4F8081918124C044
:10565000452BD9F024303105C1F4E659FF4F07C07E
:10566000452B99F02430310581F4EA59FF4F8081B0
:105670009181A281B38188839983AA83BB830EC061
:10568000452B19F02230310529F0E05AFF4F86E111
:1056900090E00BC0818992899983888380E090E0B3
:1056A00008C0E05AFF4F8AE397E2918380838FEF2F
:1056B0009FEFDF91CF910895FC01892B19F486E3C8
:1056C00097E20895E05AFF4F808191810895CF932A
:1056D000DF93DC01EA016A30710561F06A3071051F
:1056E00034F06B30710591F06C30710519F08FEF6B
:1056F0009FEF17C0FD01E65BFF4FAA5BBF4F8D9187
:105700009C9120813181821B930B03C0FC01858514
:105710009685AA27BB2788839983AA83BB8380E0C9
:1057200090E0DF91CF910895CF93DF93EC0107C014
:10573000808191818D939C93CF010E94ED29DE01A0
:10574000A45BBF4FED91FC911197309789F707C08B
:105750008081918199AF88AFCF010E94ED29E8AD9A
:10576000F9AD3097A9F707C0808191818D939C9303
:10577000CF010E94ED29DE01A05BBF4FED91FC91AE
:105780001197309789F7DF91CF9108954F925F92EB
:105790006F927F928F929F92AF92BF92CF92DF9241
:1057A000EF92FF920F931F93CF93DF93EC012B01A6
:1057B0003A010E944814209761F08B89843061F08F
:1057C0008B89853049F0C05ADF4F89E497E299838D
:1057D00088834FEF5FEFB3C04114510409F4A2C0B6
:1057E00061147104A1F49EC08B89843061F7CA5999
:1057F000DF4F488159816A817B81C656D040CE01F6
:10580000825B9F4F0E94CE17892B09F08BC0CA5B29
:10581000DF4F888199812496C880D980CA54D040AE
:105820008C159D0509F38C199D098615970518F0AF
:105830008824992441C0009719F46624772470C005
:105840003C01F6CFC45BDF4FA880B980CC54D04078
:10585000F501018912890C191D097301E818F9086D
:10586000C201880D991D678570890E151F0508F402
:105870005CC06C0D7D1DA7010E94FD4B8E0C9F1C12
:10588000CE0CDF1CE016F106B8F0C45BDF4FF5016B
:105890008081918199838883CC54D040FE01EA5B5A
:1058A000FF4F808191818C199D0991838083C5016F
:1058B0000E94ED29CC24DD248614970418F2C65BDF
:1058C000DF4FD982C882CA54D0408B89843041F5D9
:1058D000FE01EC5BFF4F408151819A01260D371D7F
:1058E000C85BDF4F88819981C854D0402817390799
:1058F00008F4C901CE5ADF4F28813981C255D04002
:105900002417350748F02817390730F4918380832E
:10591000CE010E94293904C0CC5BDF4F9983888374
:10592000A3010DC040E050E00AC06C0D7D1DA80130
:105930000E94FD4B800E911EC00ED11EA6CFCA0143
:10594000DF91CF911F910F91FF90EF90DF90CF905B
:10595000BF90AF909F908F907F906F905F904F908F
:1059600008950E94C62B0895CF92DF92EF92FF9286
:105970000F931F93CF93DF93EC016B018A010E9479
:105980004814209709F451C0C114D10409F450C03F
:105990000115110509F44CC0CE5ADF4FE880F9809B
:1059A000C255D0400E151F0508F478018B8984304C
:1059B000B1F549A55AA58DA19EA1481B590B9A0185
:1059C0003695279536952795CE5ADF4F8881998150
:1059D000C255D0402817390738F48DA99EA9841BD9
:1059E000950B8E159F0578F4C659DF4F4881598174
:1059F0006A817B81CA56D040CE01CA960E94CE17DA
:105A0000892BB1F4D3CF88A1806188A3A701B60107
:105A1000CE010E94CA36892B41F4A7010BC0C05A9F
:105A2000DF4F89E497E2998388834FEF5FEF02C0ED
:105A300040E050E0CA01DF91CF911F910F91FF909C
:105A4000EF90DF90CF900895CF92DF92EF92FF9288
:105A50000F931F93CF93DF936C017B018A01C0E00A
:105A6000D0E011C0A8014C1B5D0BB7016C0F7D1F6E
:105A7000C6010E94B42C181619061CF0CFEFDFEFF8
:105A800005C0C80FD91FC017D10764F3CE01DF913D
:105A9000CF911F910F91FF90EF90DF90CF900895DD
:105AA000AF92BF92CF92DF92EF92FF920F931F932C
:105AB000CF93DF93EC015B018A01892B09F4ABC022
:105AC0008B89843039F0C05ADF4F89E497E299839B
:105AD0008883A1C0ED85FE8541155105A9F4309755
