:100000000C9446000C9492000C9492000C94920074
:100010000C9492000C9492000C9492000C94920018
:100020000C9492000C9492000C9492000C94920008
:100030000C9492000C9492000C9492000C941D0C61
:100040000C9492000C9492000C9492000C949200E8
:100050000C9492000C9492000C9492000C949200D8
:100060000C9492000C9492000C9492000C949200C8
:100070000C9492000C9492000C9492000C949200B8
:100080000C9492000C9492000C94920080EC85BF2A
:1000900087E089B98093990011241FBECFEFD0E18A
:1000A000DEBFCDBF13E0A0E0B1E0E0E8F7E200E0A2
:1000B0000BBF02C007900D92A231B107D9F713E030
:1000C000A2E1B3E001C01D92AA38B107E1F78FEFBA
:1000D0009FE79EBF8DBF8FEF9FE78A58934081585F
:1000E000914040F06FEF7EE76A5873408AE893E0F2
:1000F0000E945D040E944B0A892B41F06CE772E07C
:1001000088E793E00E9464130E94320A20E831E0FD
:1001100040E050E064E573E085E892E00E94AE0ABA
:100120000C9400000C94000083E80E94660564EFC4
:1001300071E080E090E00E94080780E091E09F93EA
:100140008F930E949F0E0F900F90F1CF82E80E9434
:10015000660564EF71E080E090E00E94080784E0AB
:1001600091E09F938F930E949F0E0F900F90F1CF7D
:1001700081E80E94660564EF71E080E090E00E94F3
:10018000080788E091E09F938F930E949F0E0F9045
:100190000F90F1CF2F923F924F925F926F927F928A
:1001A0008F929F92AF92BF92CF92DF92EF92FF9287
:1001B0000F931F93CF93DF93CDB7DEB72E970FB674
:1001C000F894DEBF0FBECDBF80E092ECA1E0B0E0BE
:1001D00089879A87AB87BC871A8219821C821B8207
:1001E0001E821D8218861F8240E060E070E086E972
:1001F00092E00E94060A4091BB025091BC026CE062
:1002000071E08EE091E00E94340E8091BB029091EB
:10021000BC020E94D40DAE01475F5F4F61E071E008
:100220000E94C20D88E00E9466050E945A0B7B0165
:100230008C0184E191E00E94BF0EC801B70120E467
:1002400032E44FE050E00E948A1359016A01CA016A
:10025000B90120E432E44FE050E00E946B13E61A4B
:10026000F70A080B190BC801B70124E630E040E09B
:1002700050E00E948A133F932F93BF92AF9285E67E
:1002800091E09F938F930E949F0E20E032E0AE0199
:100290004F5F5F4F6EE273E08EE891E00E94AE0A1E
:1002A00020E032E0AE014D5F5F4F6FE073E083E925
:1002B00091E00E94AE0A20E032E0AE014B5F5F4F5A
:1002C00060EF72E088E991E00E94AE0A20E032E03F
:1002D000AE01495F5F4F61ED72E08DE991E00E94F0
:1002E000AE0A20E032E040E050E06FEA72E082EADD
:1002F00091E00E94AE0A20E032E040E050E068EB7E
:1003000070E088EA91E00E94AE0A20E032E040E02E
:1003100050E066EA70E08EEA91E00E94AE0A20E0CA
:1003200032E040E050E064E970E084EB91E00E944C
:10033000AE0A1E861D86E0EDAE2EE7E0BE2EC12C75
:10034000D12C2DB73EB72A5F3F4F0FB6F8943EBF72
:100350000FBE2DBF4E010894811C911C73E0472EE7
:10036000512C4C0E5D1E82EC91E060ED662E61E03A
:10037000762E3D8530FFB6C05AEBE52E51E0F52EC6
:10038000FF92EF929F938F930E949F0E01E0940142
:100390004DE453E06DE770E080E090E00E94F506E8
:1003A0001C01FF92EF927F926F920E949F0E92012A
:1003B0004DE453E06DE770E080E090E00E94F506C8
:1003C0002C01FF92EF928EED91E09F938F930E940C
:1003D0009F0E9E012B5F3F4F4DE453E06DE770E0B1
:1003E00080E090E00E94F5063C01C70141E0E42E68
:1003F000F12CADB7BEB71C960FB6F894BEBF0FBEBA
:10040000ADBF9F938F938CEE91E09F938F930E944B
:100410009F0E9E01295F3F4F4DE453E06DE770E072
:1004200080E090E00E94F5064C0188EE93E0A0E0A9
:10043000B0E0A80EB91ECA1EDB1E0F900F900F90E1
:100440000F9091E3A91695E7B90690E0C90690E0F0
:10045000D90630F038EEA32E33E0B32EC12CD12CC8
:10046000C601B50128EE33E040E050E00E948A1357
:100470003F932F938AEF91E09F938F930E949F0E5B
:10048000C601B5010E9408070F900F900F900F90C2
:10049000EF28A1F480E192E09F938F930E949F0E3A
:1004A000C1010E946906C2010E946906C3010E943F
:1004B0006906C4010E9469060F900F900E946404AF
:1004C0009F938F938EE192E09F938F930E949F0E54
:1004D000AD85BE851196BE87AD870F900F900F90AA
:1004E0000F9038CF2EE2E22E22E0F22EFF92EF9212
:1004F0009F938F930E949F0E00E094014DE453E080
:100500006DE770E080E090E00E94F5061C01FF922C
:10051000EF927F926F920E949F0E92014DE453E002
:100520006DE770E080E090E00E94F5062C01FF92FC
:10053000EF922EED31E03F932F930E949F0E9E018C
:100540002B5F3F4F4DE453E06DE770E080E090E0BB
:100550000E94F5063C01C701EE24FF244ACF80E843
:100560000E9466050E946404855F914078F00E94B5
:1005700064049F938F9387E392E09F938F930E94ED
:100580009F0E0F900F900F900F9004C081E492E0A7
:100590000E94BF0E64EF71E080E090E00E940807C7
:1005A000E1CFEC018CE492E09F938F930E949F0E29
:1005B00080E20E9466050F900F9044ED50E360E0EA
:1005C00070E0CE010E947009892B19F080E592E05D
:1005D00002C084E592E09F938F930E949F0EEBCF21
:1005E000EC0188E592E09F938F930E949F0E80E13B
:1005F0000E9466050F900F9044ED50E360E070E0BC
:10060000CE010E947009892B19F08CE592E002C09E
:1006100080E692E09F938F930E949F0EEBCFEC01B8
:1006200084E692E09F938F930E949F0E88E00E9441
:1006300066050F900F9044ED50E360E070E0CE014E
:100640000E947009892B19F088E692E002C08CE6BE
:1006500092E09F938F930E949F0EEBCFEC0180E777
:1006600092E09F938F930E949F0E84E00E94660504
:100670000F900F9044ED50E360E070E0CE010E94D7
:100680007009892B19F084E792E002C088E792E0B4
:100690009F938F930E949F0EEBCFCB010E948E08F9
:1006A000089580938F0208950E945E0720E033E052
:1006B00040E050E06AEC70E08AE892E00E94AE0A06
:1006C0008EEF0E9466050E94EA050E943105209186
:1006D0008F022F3FC1F395B785B7837E822B85BFED
:1006E00085B7806285BF889585B78F7D85BF85B7C3
:1006F000837E9C71892B85BFE6CF0F931F93CF9389
:10070000DF9300911303109114038017910730F0C9
:1007100080E090E060C0EF01DB012FC0AC014A5FD8
:100720005F4F4430510510F444E050E0E091650320
:10073000F091660365E673E0C0E0D0E0A0E0B0E0D1
:1007400017C0208131812417350760F02417350741
:1007500011F3209729F0888199812817390710F41F
:10076000EF01DB01BF016E5F7F4F0280F381E02D5F
:10077000309739F7CE01209771F128813981CA016C
:100780000A966A817B818217930770F4FE01E40F59
:10079000F51F241B350B31832083738362835983B8
:1007A0004883ED93FC9302C06D937C93E881F981BB
:1007B0000E1B1F0B1093140300931303EC0FFD1F6C
:1007C00034978FEE9EEBADEABEED80839183A283DA
:1007D000B383CE010296DF91CF911F910F910895BF
:1007E000CF93DF93DC0112976D917C911197E0918B
:1007F0006503F0916603C5E6D3E03AC040815181BC
:10080000CF01840F951F8A179B07C1F49A01260F09
:10081000371F3183208382819381DF01A20FB31FB1
:10082000A817B90791F58D919C911197280F391F41
:1008300031832083ED018A819B8125C0AE17BF07DC
:1008400078F4B983A8832D913C911197CD01820F43
:10085000931F8E179F0779F0ED01FB83EA8315C084
:10086000A817B90728F1EF0122960280F381E02D45
:10087000309721F617C0240F351F11963C932E9305
:1008800082819381FD0193838283809113039091F0
:100890001403860F971F909314038093130380E033
:1008A00090E008C0FD0113821282B983A883EDCFC6
:1008B0008FEF9FEFDF91CF910895FC0161937193CA
:1008C000CF010E94F00308958091130390911403C7
:1008D00008950F931F93CF93DF938C010E947D03A4
:1008E000EC01009729F0A80160E070E00E9453132A
:1008F000CE01DF91CF911F910F910895CF93DF9398
:10090000DC019B01EC01788F6F8B1D821C820FB67E
:10091000F8940F92EB01E881F9818FEFEF3FF80730
:1009200049F4ED018C819D8101969D838C83E0E0EB
:10093000F0E015C0309799F00F900FBEED019A8945
:1009400008C09F012E5F3F4F0280F381E02D30975A
:1009500019F082899817A8F70FB6F8940F92ED0155
:10096000FB83EA83F901B183A083EA81FB8130979D
:1009700071F084819581892B51F08C819D81248136
:100980003581820F931F9D838C83158214820F9073
:100990000FBEDF91CF910895CF93DF939C01DB01D0
:1009A0000FB6F8940F92ED91FC9111970F900FBE36
:1009B0008FEFEF3FF80731F527C082819381E2176F
:1009C000F307E9F40FB6F8940F9211969C938E9367
:1009D00084819581892B59F0A281B381109729F0E8
:1009E00084819581ED019D838C83158214820F9003
:1009F0000FBEF90113821282108E178A05C0DF0123
:100A00001296FC013097C9F6DF91CF910895FB0152
:100A1000168A158A82E0878769E673E0CF010E9413
:100A20007E0408950F931F93CF93DF938C01C091A1
:100A30006703D09168030CC0B801CE0106960E94EE
:100A40005A13892B11F4CE0107C00990D881C02D0B
:100A5000209791F780E090E0DF91CF911F910F9167
:100A60000895E0916D03F0916E03309741F0838912
:100A700094890E94F00310926E0310926D03089502
:100A8000CF93DF93C0916703D09168030E94310533
:100A900020916B0330916C03E7E6F3E00AC0888194
:100AA0009981C217D30719F49183808304C0FE0192
:100AB000EC012097A1F780916B0390916C039093C8
:100AC0006E0380936D03DF91CF9108950F931F9371
:100AD000182FE0916B03F0916C03028969E673E0D3
:100AE000CF010E94CC04E0916B03F0916C03128B58
:100AF0001F3F49F069E673E080916B0390916C03AE
:100B00000E947E0402C00E944005E0916B03F091B8
:100B10006C038091690390916A03E817F90719F44F
:100B200081E0878709C082E087870FB6F8940F922B
:100B30000E946F0A0F900FBE802F99271F910F916F
:100B400008958FEF0E9466050895CF93DF93C091BB
:100B50006703D091680320C00FB6F8940F928C8180
:100B60009D810F900FBE892BA1F0EF89F88D0FB6F4
:100B7000F8940F928C819D8101979D838C830F90B7
:100B80000FBE808191818F5F9F4F19F0CF010E942E
:100B90008E080990D881C02D2097F1F60E94660733
:100BA000E0916B03F0916C038091690390916A036B
:100BB000E817F90761F08785813011F482E08787B3
:100BC0000FB6F8940F920E946F0A0F900FBEDF913C
:100BD000CF910895E0916B03F0916C038281938132
:100BE000892B69F069E673E0CF010E94CC0469E6C5
:100BF00073E080916B0390916C030E947E040E94CD
:100C0000A50508958091710390917203A0917303DB
:100C1000B09174030196A11DB11D8093710390934F
:100C20007203A0937303B09374030895CF93DF937B
:100C3000EC011B821A82E0916F03F09170031AC0DD
:100C4000288539854A855B8580859185A285B38510
:100C5000281739074A075B0780F0281B390B4A0B16
:100C60005B0B288739874A875B87FB83EA83019080
:100C7000F081E02D309721F718C0821B930BA40B55
:100C8000B50B80879187A287B387F983E883D383E5
:100C9000C283EA81FB81309719F0D183C08308C0F9
:100CA000D0937003C0936F0303C019821882F1CFF1
:100CB000DF91CF9108950FB6F8940F926091710370
:100CC0007091720380917303909174030F900FBE23
:100CD0000895CF93DF93EC01EA81FB8188819981AC
:100CE000309719F09183808304C0909370038093B0
:100CF0006F03E881F9813097A1F08A819B8193830A
:100D0000828380859185A285B385288539854A852A
:100D10005B85820F931FA41FB51F80879187A287D1
:100D2000B387CE010E94F003DF91CF910895AF9277
:100D3000BF92CF92DF92EF92FF920F93CF93DF9308
:100D40006B017C01EA01590180E190E00E947D0382
:100D5000FC01892B81F10FB6F8940F9280917103F9
:100D600090917203A0917303B09174030F900FBE22
:100D70008C0D9D1DAE1DBF1D2091150330911603D6
:100D80004091170350911803821B930BA40BB50BD2
:100D900080879187A287B38700FF05C014821582E0
:100DA0001682178204C0C482D582E682F782D58774
:100DB000C487B786A686CF01DF91CF910F91FF90B0
:100DC000EF90DF90CF90BF90AF9008950F93CF93A7
:100DD000DF930E949706EC01009711F00E9416061F
:100DE000CE01DF91CF910F910895CF92DF92EF92D4
:100DF000FF920F936A0179010E94B80B9701A60137
:100E00000E94E6060F91FF90EF90DF90CF9008953B
:100E1000AF92BF92CF92DF92EF92FF920F93CF9358
:100E2000DF935B016C016115710581059105D1F1BD
:100E3000C9E6D3E0BE0180916B0390916C030E94E0
:100E4000CC04E0916B03F0916C0383E08787E09022
:100E50006B03F0906C0301E0970147E055E0C60199
:100E6000B5010E94F506F701968B858B892B19F049
:100E70000E94A50519C0E0916B03F0916C03D08F1F
:100E8000C78B8091690390916A039383828381E089
:100E9000878780916B0390916C0390936A03809392
:100EA000690302C00E94EA05DF91CF910F91FF9084
:100EB000EF90DF90CF90BF90AF90089582E096E0E2
:100EC0000E94680B87B7826087BF0895EF92FF92F8
:100ED0000F931F93CF93DF930FB6F8940F92209147
:100EE00071033091720340917303509174030F901A
:100EF0000FBE8091150390911603A0911703B09136
:100F0000180379018A01E81AF90A0A0B1B0B2093CE
:100F100015033093160340931703509318034FC0E3
:100F200088859985AA85BB85E816F9060A071B07F7
:100F3000A0F48E199F09A00BB10B88879987AA8707
:100F4000BB870097A105B10521F0EE24FF2487019E
:100F500036C0EE24FF24870108C0E81AF90A0A0BFC
:100F60001B0B188619861A861B86EC85FD85309723
:100F700021F06E857F85CE0109958C819D81AE81A2
:100F8000BF8188879987AA87BB870097A105B1058C
:100F900021F4CE010E94690612C0E0916F03F09126
:100FA00070030190F081E02DF0937003E0936F03E4
:100FB000309711F013821282CE010E941606C09162
:100FC0006F03D0917003209731F0E114F104010513
:100FD000110509F0A5CFDF91CF911F910F91FF90DF
:100FE000EF9008952F923F924F925F926F927F926F
:100FF0008F929F92AF92BF92CF92DF92EF92FF9229
:101000000F931F93CF93DF93CDB7DEB724970FB61F
:10101000F894DEBF0FBECDBF0FB6F8940F92A0902C
:101020007103B0907203C0907303D09074030F905B
:101030000FBE0E94630B9B01AC01C601B5010E946B
:101040008A1339014A010E94630B1B012C010E9483
:10105000630B69837A838B839C83C401B30128EE7D
:1010600033E040E050E00E946B137B018C01C4012F
:10107000B301A20191010E946B13A61AB70AC80A14
:10108000D90AC601B50128EE33E040E050E00E94E5
:101090006B1329813A814B815C810E948A13E20E95
:1010A000F31E041F151FC801B70124960FB6F8944C
:1010B000DEBF0FBECDBFDF91CF911F910F91FF908B
:1010C000EF90DF90CF90BF90AF909F908F907F90E8
:1010D0006F905F904F903F902F900895EF92FF9206
:1010E0000F931F930FB6F8940F92E0907103F09056
:1010F000720300917303109174030F900FBE0E944E
:10110000630B9B01AC01C801B7010E948A13CA019D
:10111000B9011F910F91FF90EF900895CF93DF9346
:10112000DC010FB6F8940F92CD91DC9111970F90DE
:101130000FBE8FEFCF3FD80709F43AC0209771F167
:101140000FB6F8940F92EA81FB811196FC93EE930F
:101150008C819D81892B71F0309729F08C819D8144
:101160009583848305C08FEF9FEF11969C938E9398
:101170001D821C820F900FBE8D899E89009721F0E1
:101180000E9469061E8A1D8A82E08F8769E673E0E5
:10119000CE010E947E0481E090E00CC00FB6F8946E
:1011A0000F928FEF9FEF11969C938E930F900FBE2F
:1011B00080E090E0DF91CF9108950F931F93CF933C
:1011C000DF93EC010FB6F8940F92888199810F900C
:1011D0000FBE2FEF8F3F920741F40FB6F8940F9296
:1011E000198218820F900FBE02C0892B19F400E0FB
:1011F00010E012C000E010E0CE010E948E08080F3F
:10120000191F0FB6F8940F92888199810F900FBE25
:1012100001978E5F9F4F80F3C801DF91CF911F919F
:101220000F9108950F931F930E94DD088C010E9477
:10123000EA05C8011F910F9108950F931F930E9413
:101240008E088C010E94EA05C8011F910F91089534
:10125000CF93DF93AC01DB010FB6F8940F92CD91E1
:10126000DC9111970F900FBE8FEFCF3FD80799F504
:1012700034C08D899E892A813B818417950741F569
:101280000FB6F8940F9211963C932E938C819D810A
:10129000892B81F0EA81FB81309729F08C819D8137
:1012A0009583848305C08FEF9FEF11969C938E9357
:1012B0001D821C820F900FBE82E08F8769E673E06B
:1012C000CE010E947E048FEF9FEF9E8B8D8B05C019
:1012D000DE011296E901209761F6DF91CF91089522
:1012E000AF92BF92CF92DF92EF92FF920F93CF9384
:1012F000DF93EC015A016B010FB6F8940F928881CD
:1013000099810F900FBE8F5F9F4F51F40FB6F894E5
:101310000F92198218820F900FBE0E94EA0538C002
:1013200069E673E080916B0390916C030E94CC049A
:10133000BE0180916B0390916C030E947E04E0914A
:101340006B03F0916C0383E08787E0906B03F09070
:101350006C03A114B104C104D10461F001E09E0149
:1013600048E259E0C601B5010E94F506F701968BE7
:10137000858B03C0F701168A158A0E94A505E091A6
:101380006B03F0916C03858996898F5F9F4F19F0ED
:1013900080E090E004C0168A158A8FEF9FEFDF91FE
:1013A000CF910F91FF90EF90DF90CF90BF90AF90D3
:1013B0000895FC010FB6F8940F92808191818F5FA0
:1013C0009F4F11F4118210820F900FBECF010E9427
:1013D000700908950F931F93CF93DF938C01C091F1
:1013E0001903D0911A030AC0B801CE0102960E94D7
:1013F0005A13892B29F00990D881C02D2097A1F785
:10140000CE01DF91CF911F910F910895CF93DF937C
:10141000EC01892B11F16115710511F07D876C8745
:1014200041114E87CE0102960E94EA09892BA9F448
:10143000EB89FC89309721F0CE010995892B69F45D
:101440008091190390911A0399838883D0931A038A
:10145000C093190380E090E002C08FEF9FEFDF910F
:10146000CF91089583E1809375038FE48093760391
:1014700083E58093770343E150E065E773E080E024
:1014800090E00E948C0D892B19F08FEF9FEF08954B
:1014900080E090E0089543E150E065E773E080E08C
:1014A00090E00E948F0D892B79F480917503833130
:1014B00059F4809176038F3439F480917703833522
:1014C00019F480E090E008958FEF9FEF08959F91C9
:1014D0008F910F900BBE0F900FBE1F9018952F92FB
:1014E0003F924F925F926F927F928F929F92AF92B4
:1014F000BF92CF92DF92EF92FF920F931F93CF9301
:10150000DF938DB79EB7E0916B03F0916C03918BE5
:10151000808BE0916903F0916A03F0936C03E09390
:101520006B0381E08787E0916B03F0916C03808906
:1015300091898DBF9EBFDF91CF911F910F91FF9039
:10154000EF90DF90CF90BF90AF909F908F907F9063
:101550006F905F904F903F902F900895CF92DF92C1
:10156000EF92FF920F931F93CF93DF938C017B0138
:101570006A01E901C90149960E947D03FC010097B7
:1015800019F480E090E075C0C80FD91F9E01275064
:101590003040AE014B515040CE01069668E0D80174
:1015A0000D908D01DC010D92CD016150C1F71E86B9
:1015B00041505040598B488B4F5F5F4FFC8BEB8BFA
:1015C0008FEE9EEBADEABEED80839183A283B38361
:1015D00084839583A683B78380879187A287B38707
:1015E00084879587A687B78780E48A8B8F2D992774
:1015F000F9018583E68280E8838312821482C182A6
:101600008D2D9927808327E63AE0832F9927FA01C9
:10161000828B238B809167039091680399838883E1
:10162000D0936803C093670312E01F871E8A1D8A48
:10163000188E1F8A69E673E0CE010E947E04E09155
:101640006B03F0916C03309721F40FB6F8940F926E
:1016500060CF8091690390916A03E817F90741F020
:1016600017870FB6F8940F920E946F0A0F900FBE63
:10167000CE01DF91CF911F910F91FF90EF90DF90FE
:10168000CF9008951F93182F60911B0370911C0336
:1016900080911D0390911E0320EA3FE040E050E05E
:1016A0000E948A13822F932F0197F1F71A95D1F791
:1016B0001F91089560911B0370911C0380911D037D
:1016C00090911E03089560E074E080E090E008953A
:1016D000BC0187B78D7F87BF80B7886080BF12BE8F
:1016E00082E083BF80B7992787709070892BD1F7EC
:1016F00081E086BF0FB6F8940F9281E090E0A0E001
:10170000B0E0B6B7B170E9F3B6BF0894811D911D82
:10171000A11DB6B7B170C9F3BB270F900FBE27E06C
:10172000880F991FAA1FBB1F2A95D1F780931B030F
:1017300090931C03A0931D03B0931E0387B78D7F66
:1017400087BF80B7886080BF12BE89E083BF8FE10A
:1017500081BF80B7992787709070892BD1F782E07D
:1017600086BF40E050E080E992E00E94D40C0895EA
:101770003AE0660F771F881F991F3A95D1F728EE38
:1017800033E040E050E00E948A1321153105410505
:10179000510521F421E030E040E050E0CA01B901F8
:1017A00008959C01FB0187B7482F55274270507060
:1017B00087B78D7F87BF20313105D9F021313105C1
:1017C0003CF42115310581F02130310551F40EC072
:1017D0002231310571F122313105E4F02032310539
:1017E000E1F02FEF3FEF1FC040E050E082E086BF06
:1017F00018C006B601FE05C081E090E091838083A9
:1018000002C011821082452BA1F0808191818068F5
:101810009183808320E030E008C08EE090E09183E7
:10182000808320E030E0452B31F087B7826087BFAE
:1018300002C020E030E0C90108951F920F920FB658
:101840000F9211242F933F934F935F936F937F9346
:101850008F939F93AF93BF93EF93FF9380E992E0B1
:101860000E94C60CFF91EF91BF91AF919F918F9114
:101870007F916F915F914F913F912F910F900FBE8C
:101880000F901F90189588E18AB980E090E0089544
:101890005D9BFECF8CB98A3011F48DE0F9CF0895AD
:1018A000EF92FF920F931F93CF93DF937A018B01F7
:1018B000EA0105C0F80181918F010E94480C21972F
:1018C000FFEFCF3FDF07B1F7C701DF91CF911F9146
:1018D0000F91FF90EF900895EF92FF920F931F9357
:1018E000CF93DF937A018A01EB0105C0FE01849159
:1018F0000E94480C219601501040FFEF0F3F1F0738
:10190000A9F7C701DF91CF911F910F91FF90EF9041
:1019100008951092200310921F0390932203809346
:10192000210310922403109223038FE193E0089582
:1019300080E090E00895CF93DF93EA016150714019
:1019400019F08FEF9FEF1FC00E945A0B660F771F91
:10195000881F991F288139814A815B81E4E0220F29
:10196000331F441F551FEA95D1F70E948A132F5F3A
:101970003F4F4F4F5F4F56954795379527952150CD
:1019800029B980E090E0DF91CF910895CF93DF9364
:10199000DC01EC01EA81FB81309719F08D919C917B
:1019A0000995DF91CF910895EF92FF920F931F93C6
:1019B000CF93DF93EC017B018A01EC81FD813097AD
:1019C00019F480E090E005C060E070E080E090E015
:1019D000099519830883FB82EA82DF91CF911F91D9
:1019E0000F91FF90EF900895CF93DF93EC01EC817E
:1019F000FD81309719F48FEF9FEF05C060E070E034
:101A000081E190E00995DF91CF910895CF93DF9325
:101A1000EC01EC81FD81309719F48FEF9FEF05C049
:101A200060E070E082E190E00995DF91CF91089548
:101A30000F931F93CF93DF93CDB7DEB724970FB6E5
:101A4000F894DEBF0FBECDBF8C017C836B83FC019D
:101A5000248135812115310519F48FEF9FEF17C0CF
:101A6000BE016F5F7F4F80E290E0F901099500971A
:101A700071F4F80124813581BE016D5F7F4F81E2F1
:101A800090E0F9010995009711F489819A812496D3
:101A90000FB6F894DEBF0FBECDBFDF91CF911F917F
:101AA0000F9108950F931F93CF93DF93CDB7DEB7B8
:101AB00024970FB6F894DEBF0FBECDBF8C017C8398
:101AC0006B83FC01248135812115310519F48FEFD9
:101AD0009FEF17C0BE016F5F7F4F88E190E0F90173
:101AE0000995009771F4F80124813581BE016D5F7D
:101AF0007F4F89E190E0F9010995009711F4898100
:101B00009A8124960FB6F894DEBF0FBECDBFDF9149
:101B1000CF911F910F9108950E94920D08950E94F8
:101B2000B20D0895CF93DF93EA019C0140E050E0AD
:101B3000FB0110C0D9010E94AC13802D9081981731
:101B400021F0D901092E0E94B4134F5F5F4F3196E7
:101B50002F5F3F4F4C175D0769F780E090E0DF9102
:101B6000CF910895CF93DF93EA01DC01FB01219728
:101B700024F00E94AC130192FACF80E090E0DF9154
:101B8000CF910895CF93DF93EC01AA81BB81109789
:101B900019F4EB85FC8504C0ED01ED89FE89CD01CA
:101BA0000995DF91CF910895FC018081918108957D
:101BB000CF92DF92EF92FF920F931F93CF93DF9319
:101BC0006C01CB010E94D1127C018F5F9F4F71F499
:101BD00040C00F5F1F4F32960830110559F487E15E
:101BE00090E0909389038093880333C003E010E072
:101BF000EFEBF2E080819181892B59F787E090E04B
:101C00000E94E40EEC01000F111F07541D4FD80174
:101C1000CD93DC932097E9F0B701C6010E94F10E45
:101C200099838883D801ED91FC918F5F9F4F39F4A0
:101C3000CF010E94E10EF801118210820AC0F382E6
:101C4000E2821482D801ED91FC9116821582CF01B7
:101C500002C080E090E0DF91CF911F910F91FF9043
:101C6000EF90DF90CF9008959F92AF92BF92CF9266
:101C7000DF92EF92FF920F931F93CF93DF935C015C
:101C8000CB01EA010E94D1126C018F5F9F4F71F46A
:101C900048C00F5F1F4F32960830110559F489E094
:101CA00090E090938903809388033BC000E010E0AC
:101CB000E9EBF2E0808191818C179D0751F787E075
:101CC00090E00E94E40E7C01E801CC0FDD1FC754B8
:101CD000DD4FF982E882E114F10419F1B601C50182
:101CE0000E94F10EF70191838083E881F9818F5F73
:101CF0009F4F71F4CF010E94E10E82E0801728F01F
:101D00000F5F1F4F198308830CC01982188209C006
:101D1000D382C2821482E881F98116821582CF01B2
:101D200002C080E090E0DF91CF911F910F91FF9072
:101D3000EF90DF90CF90BF90AF909F900895CF939A
:101D4000DF93CDB7DEB722970FB6F894DEBF0FBE94
:101D5000CDBFFE01379661917191FA83E983AF019E
:101D60008091BB029091BC020E94D60E22960FB6C3
:101D7000F894DEBF0FBECDBFDF91CF910895609183
:101D8000BB027091BC020E9425138F5F9F4F19F414
:101D90008FEF9FEF08956091BB027091BC028AE0C3
:101DA00090E00E94FD1280E090E00895FC01CB01DC
:101DB0009A0160817181AC018EEB92E10E94710FFA
:101DC00008950E94F00308950E947D039C01892BD1
:101DD00031F48CE090E09093890380938803C901EB
:101DE0000895EF92FF920F931F93CF93DF93CDB798
:101DF000DEB729970FB6F894DEBF0FBECDBF7B01CB
:101E00008C01FE013196AE01475F5F4F03C0219305
:101E10000F5F1F4F302F381BD8012C91222329F040
:101E20002A3319F0E417F50791F7CE010196FC016A
:101E3000E30FF11D10820E94EA09DC01892B49F4AD
:101E400082E090E090938903809388038FEF9FEF67
:101E500013C0F80180818A3319F060E070E003C09C
:101E6000B8016F5F7F4FFD01058D168D20E030E0DA
:101E7000A701CD01F801099529960FB6F894DEBFA8
:101E80000FBECDBFDF91CF911F910F91FF90EF90CB
:101E90000895CF92DF92EF92FF920F931F93CF930B
:101EA000DF936C017B018A01E90107C040E150E04A
:101EB000B801C701F60109956097C131D105B4F7A2
:101EC0001C161D062CF4AE01B801C701F6010995D8
:101ED000DF91CF911F910F91FF90EF90DF90CF9006
:101EE00008952F923F924F925F926F927F928F92BE
:101EF0009F92BF92CF92DF92EF92FF920F931F9328
:101F0000CF93DF93CDB7DEB76B970FB6F894DEBFF4
:101F10000FBECDBF998F888F7B8F6A8F1A014901C1
:101F20001D8A1C8AB10103C00894211C311CD101F7
:101F3000FC90FF2019F0B5E2FB16B1F78101061BFA
:101F4000170B61F0A8018A8D9B8DE88DF98D09959D
:101F50002C893D89200F311F3D8B2C8BFF2009F4EC
:101F6000F3C2F1013196198255241B8A1A8A7FEF38
:101F7000672E772E02C04C01F101DF01BD901D01DB
:101F8000B0E2BB1621F489818823B1F703C02BE2AC
:101F9000B21611F4B982F0CF3DE2B31619F444E061
:101FA000542AEACF53E2B51619F461E0562AE4CF79
:101FB00070E3B71619F480E1582ADECF9CE6B91613
:101FC00019F4A8E05A2AD8CFBAE7BB16A9F22AE238
:101FD000B21691F4C4010296D4018D909C909B8A14
:101FE0008A8A97FEC8CFB4E05B2AF401F095E195A8
:101FF000FF4FFB8BEA8BBFCF2EE2B21691F58181AA
:102000008A3219F0662477241FC00894211C311CE1
:10201000D4016D907C90E2E0F0E08E0E9F1E1BC01C
:102020008AE090E0A301489F3001499F700C589FBF
:10203000700C1124822F992787FD9095680E791EC8
:1020400060ED7FEF660E771E21813196822F8053DF
:102050008A3030F31F0177FE8FCF6FEF662E762E1A
:102060008BCF8B2D8153893010F58B2D9927C097FD
:102070009B8B8A8B2AE030E012C04A895B89429FA1
:10208000D001439FB00D529FB00D1124892F992785
:1020900087FD9095A80FB91FD097BB8BAA8B918114
:1020A0003196892F80538A3040F31F0165CFF401A8
:1020B0004B2C57E65B15E8F065E6B61608F0B4C1A0
:1020C00070E5B716D1F17B1548F085E4B81609F430
:1020D000ABC197E4B91609F0ABC1A6C1A3E6BA1625
:1020E00021F1AB1508F475C0B8E5BB1609F0A0C125
:1020F0003BC120E7B21609F437C12B1548F039E689
:10210000B31609F466C04FE6B41609F091C1DEC0FB
:1021100055E7B51609F45CC068E7B61609F424C1A2
:1021200073E7B71609F084C124C082E090E0880EFE
:10213000991E80818A83198281C1A2E0B0E08A0E53
:102140009B1EE080F180E114F10439F459ECC52EB6
:1021500052E0D52E43E7442E19C0C7010E943D131B
:1021600001960E94E40E8C01B7010E9436136801AB
:1021700006C022E030E0820E931EC080D180C114E0
:10218000D10421F439ECC32E32E0D32E77FC12C0F7
:10219000A30160E070E0C6010E944613009711F4AD
:1021A000730112C08C199D0973018615970564F49B
:1021B0007C010AC0D6010D900020E9F77D0108944A
:1021C000E108F108EC18FD08198266247724B5C1EE
:1021D000198253FE0CC024E030E0820E931EE08092
:1021E000F1800281138135E7B316B1F421C0D40127
:1021F0001296F40100811181F5E7BF1631F44D010B
:10220000980179010027112713C04D01A8017A0117
:102210000027F7FC0095102F17FF0AC010950095B6
:10222000F094E094E11CF11C011D111D8DE28983E5
:1022300077FC02C05FEE5522E114F104010511059F
:1022400039F46114710451F422E1C22ED12C0CC076
:102250006AE0E616F1040105110548F48E2D805D53
:10226000898B91E1C92ED12CCC0EDD1E20C082E1DC
:10227000C82ED12CCC0EDD1EC801B7012AE030E0FB
:1022800040E050E00E948A13605DD6016E936D01BC
:10229000C801B7012AE030E040E050E00E948A1314
:1022A00079018A01211531054105510529F78E0172
:1022B0000C191D090E5E1F4F7801061517050CF449
:1022C00083018981882309F0C4C0C5C053FE09C0B9
:1022D00024E030E0820E931E00811181228133813F
:1022E00009C042E050E0840E951E808191818C01EE
:1022F0002227332777FC02C05FEE55220115110516
:102300002105310549F46114710431F4B2E1CB2E99
:10231000D12CCC0EDD1E1FC0A2E1CA2ED12CCC0EBA
:10232000DD1E802F8770805DD6018E936D01F3E0F6
:102330003695279517950795FA95D1F7011511054B
:102340002105310571F750FE06C0803321F080E38E
:10235000FD0182936F0119827E01EC18FD0822E1D4
:1023600030E0E20EF31EE9C030E7B31671F442E04C
:1023700050E0840E951E808191818C0122273327A5
:1023800051E0552AE8E7BE2E14C053FE09C064E0B0
:1023900070E0860E971E008111812281338109C071
:1023A00082E090E0880E991E808191818C01222725
:1023B0003327198277FC02C09FEE5922A8E5BA168E
:1023C00019F040ED52E002C041EE52E072E1C72E3A
:1023D000D12CCC0EDD1EF801EF70F070E40FF51F6C
:1023E0008081F60182936F0164E0369527951795F9
:1023F00007956A95D1F7011511052105310559F7A2
:1024000050FE09C03197B0826F010894C108D1080D
:1024100080E3D6018C937E01EC18FD08E2E1F0E048
:10242000EE0EFF1E4B2C89C024E030E0820E931E7E
:10243000BB2009F489C0BA8219824B2C92E0C92EC4
:10244000D12CCC0EDD1E6624772481E0E82EF12C01
:1024500074C00F5F1F4F452D55275F8B4E8B2A0190
:1024600054E1452255244114510461F42A893B89E1
:10247000201B310B42EF52E06A8D7B8D888D998D48
:102480000E94490F8981882359F041E050E0BE0144
:102490006F5F7F4F8A8D9B8DA88DB98DFD0109954A
:1024A000B0E14B16510461F42A893B89201B310BA2
:1024B00042E053E06A8D7B8D888D998D0E94490F93
:1024C0006E187F08930142E053E06A8D7B8D888D02
:1024D000998D0E94490FE114F10439F0A701B6016A
:1024E0008A8D9B8DE88DF98D0995F0E5BF1619F45D
:1024F000C6010E94E10E2E8922FF0CC02A893B8969
:10250000201B310B42EF52E06A8D7B8D888D998DB7
:102510000E94490F4A895B89401751073CF06C893A
:102520007D89640F751F7D8B6C8BFCCC8C899D899C
:10253000800F911F9D8B8C8BF5CC8701E614F704DF
:102540000CF48301B42C87CF8C899D896B960FB6D0
:10255000F894DEBF0FBECDBFDF91CF911F910F91D9
:10256000FF90EF90DF90CF90BF909F908F907F90E3
:102570006F905F904F903F902F900895CF93DF938F
:10258000DC01EC01EA81FB81309719F4EF81F885D9
:1025900003C0018CF28DE02DCD010995DF91CF9123
:1025A0000895FC018081823759F0873719F0813610
:1025B000B1F403C081E093E41BC088E091E418C04B
:1025C00080E090E415C02B3219F0223641F404C0AB
:1025D0008E7F826093600CC09F7B906809C086E10B
:1025E00090E090938903809388038FEF9FEF089585
:1025F00031962081222339F708950F931F93CF93AB
:10260000DF93CDB7DEB721970FB6F894DEBF0FBECC
:10261000CDBF8C01FB01898341E050E0BE016F5FBB
:102620007F4F808191810E94BE12019711F00FEFC0
:102630001FEFC80121960FB6F894DEBF0FBECDBFC5
:10264000DF91CF911F910F910895FC01CB01DF0124
:102650000D900020E9F71197AE1BBF0BAD01BF0134
:10266000FC01808191810E94BE120895FB01DC0172
:1026700005900D920020E1F70895FC0105900020DF
:10268000E9F7809590958E0F9F1F0895FC014150AA
:10269000504030F001900616D1F73197CF010895E0
:1026A000882799270895DC0101C06D93415050405F
:1026B000E0F70895FB01DC018D910190801911F480
:1026C0000020D1F7990B0895FB01DC0101900D92D8
:1026D0000020E1F70895629FD001739FF001829F6F
:1026E000E00DF11D649FE00DF11D929FF00D839FA1
:1026F000F00D749FF00D659FF00D9927729FB00D3E
:10270000E11DF91F639FB00DE11DF91FBD01CF0150
:1027100011240895A1E21A2EAA1BBB1BFD010DC0B6
:10272000AA1FBB1FEE1FFF1FA217B307E407F50781
:1027300020F0A21BB30BE40BF50B661F771F881F5D
:10274000991F1A9469F760957095809590959B01F3
:10275000AC01BD01CF010895E199FECFBFBBAEBB77
:10276000E09A11960DB20895E199FECFBFBBAEBBC2
:102770000DBA11960FB6F894E29AE19A0FBE089539
:10278000205334002053330020533200770075610A
:10279000727430000A2A2A2A2A2A2A2A2A2A2A2A4B
:1027A0002A2A2A2A2A2A2A2A2A2A2A2A2A2A2A2A89
:1027B0002A2A2A2A2A2A2A2A2A2A2A2A2A2A2A2A79
:1027C0002A2A2A2A2A2A2A2A2A2A2A2A2A2A2A2A69
:1027D0002A2A2A2A2A2A2A2A2A2A2A2A2A2A2A2A59
:1027E0002A2A2A2A0054696D65722073616D706C03
:1027F000652072756E6E696E67206F6E2025752E6E
:1028000025303475204D487A204350550A00746DA8
:10281000723100746D723200746D723300746D72B7
:102820003400736C70723100736C70723200736CB0
:1028300070723300736C707234006F6E6573686F02
:1028400074000A537461727420257320743120005F
:102850000A537461727420257320743220000A5365
:102860007461727420257320743320000A537461DC
:10287000727420257320743420000A536C656570CF
:10288000696E67202575207365636F6E6473200021
:102890000A53746F702074696D65727320000A2585
:1028A0007520627974657320667265650A007065CB
:1028B00072696F646963000A257520667265652018
:1028C000004D656D6F7279206C6F77002049340080
:1028D0002054340020453400204933002054330074
:1028E0002045330020493200205432002045320078
:1028F000204931002054310020453100657468655D
:10290000726E75740069646C65006D61696E00FFBC
:1029100000000000D10B00007561727430000000EF
:10292000000000000000000000430C9B0C00005061
:102930000C6C0C890C980C000001000200030000D4
:10294000000000000000000000286E756C6C29007B
:102950003031323334353637383961626364656615
:10296000003031323334353637383941424344450B
:102970004600202020202020202020202020202051
:102980002020303030303030303030303030303067
:022990003030E5
:00000001FF
