:100000000C947F000C94CB000C94CB000C94CB0090
:100010000C94CB000C94CB000C94CB000C94CB0034
:100020000C94CB000C94CB000C94CB000C94CB0024
:100030000C94CB000C94CB000C94CB000C94800C53
:100040000C94CB000C94CB000C94EC0C0C94500D45
:100050000C94CB000C94CB000C94CB000C94CB00F4
:100060000C94CB000C94CB000C94CB000C94CB00E4
:100070000C94CB000C94CB000C94CB000C94CB00D4
:100080000C94CB000C94CB000C94CB00DE0EE10E54
:10009000ED0EF50EF80EFB0EFE0E010F0A0F340FDB
:1000A000590F5E0F630F680F6D0F770F7E0F840F70
:1000B0008E0F9C0FDB0EDB0EDB0EDB0EAB0FAE0FDD
:1000C000B10FC30FC60FD10FDB0ED40FDA0FDD0F48
:1000D000E30FE60FEC0FEF0FF70F5072657373200D
:1000E000616E79206B65792E2E2E000A48656C6C46
:1000F0006F20737472616E676572210A000080EC74
:1001000085BF87E089B98093990011241FBECFEF86
:10011000D0E1DEBFCDBF12E0A0E0B1E0ECE8F4E357
:1001200000E00BBF02C007900D92AA33B107D9F7C8
:1001300013E0AAE3B2E001C01D92AF32B107E1F7CC
:100140008FEF9FE79EBF8DBF8FEF9FE78F5293404A
:100150008158914040F06FEF7EE76F5273408FE21D
:1001600093E00E9470130E945E19892B41F06FE3A7
:1001700071E08FE193E00E94EA190E94451920E89E
:1001800031E040E050E06DE671E088E491E00E94EB
:1001900057070C9400000C940000CF92DF92EF926E
:1001A000FF920F931F93CF93DF93CDB7DEB72497C2
:1001B0000FB6F894DEBF0FBECDBF80E092ECA1E099
:1001C000B0E089839A83AB83BC8340E060E070E059
:1001D0008CEA91E00E94191960E071E083E091E0FF
:1001E0000E94F6016C010E94F201AE014F5F5F4F69
:1001F00061E071E00E949601E0903D01F0903E01C7
:10020000F70101900020E9F78F01015010400E190D
:100210001F09C6010E94F201A801B7010E94BB019B
:10022000C6010E94F20141E150E06AED70E00E94D7
:10023000CE01C6010E94F20140E050E060E070E0B3
:100240000E94BB01C6010E94F20140E850E06AE34F
:1002500072E00E94A8018C01C6010E94F201A8016F
:100260006AE372E00E94BB01B60189E091E00E945E
:100270009B02C6010E94E1010AE312E0A60160E8C8
:1002800070E0C8010E9452026AE070E0C8010E945A
:10029000D419FC01892B09F0108280913A0288233D
:1002A00099F01F930F938CE191E09F938F93DF92CE
:1002B000CF920E947D028DB79EB706960FB6F89436
:1002C0009EBF0FBE8DBFD0CFB6018BEE90E00E94D7
:1002D000B702CACF8093520108950E94711620E0A0
:1002E00033E040E050E06DEC70E08DE491E00E947E
:1002F00057078EEF0E9479140E94FD140E94441447
:10030000209152012F3FC1F395B785B7837E822B91
:1003100085BF85B7806285BF889585B78F7D85BF8E
:1003200085B7837E9C71892B85BFE6CFCF93DF9302
:10033000EC01AA81BB81109719F4EB85FC8504C000
:10034000ED01ED89FE89CD010995DF91CF910895E9
:10035000CF93DF93DC01EC01EA81FB81309719F444
:10036000ED81FE8103C00788F08DE02DCD01099558
:10037000DF91CF910895CF93DF93DC01EC01EA8107
:10038000FB81309719F4EF81F88503C0018CF28D61
:10039000E02DCD010995DF91CF910895CF93DF93A3
:1003A000DC01EC01EA81FB81309719F4E985FA85DB
:1003B00003C0038CF48DE02DCD010995DF91CF9121
:1003C0000895FC0140E050E060E070E080819181A0
:1003D0000E94BB01892B19F08FEF9FEF089580E0F9
:1003E00090E00895FC01808191810895CF92DF9281
:1003F000EF92FF920F931F93CF93DF936C01CB018A
:100400000E94A8067C018F5F9F4F71F440C00F5F70
:100410001F4F32960830110559F487E190E0909310
:100420000B0380930A0333C003E010E0E9E5F1E039
:1004300080819181892B59F787E090E00E94CE025C
:10044000EC01000F111F0D5A1E4FD801CD93DC9304
:100450002097E9F0B701C6010E94DB0299838883E7
:10046000D801ED91FC918F5F9F4F39F4CF010E942D
:10047000CB02F801118210820AC0F382E282148258
:10048000D801ED91FC9116821582CF0102C080E067
:1004900090E0DF91CF911F910F91FF90EF90DF904F
:1004A000CF900895CF92DF92EF92FF920F931F9318
:1004B000CF93DF937C016A018B01EC0110C0C60170
:1004C0000E94D4062FEF8F3F920721F41882EE246A
:1004D000FF2409C08993015010400A9719F0023097
:1004E00011056CF71882C701DF91CF911F910F9111
:1004F000FF90EF90DF90CF900895CF93DF93CDB72B
:10050000DEB722970FB6F894DEBF0FBECDBFAE01A7
:10051000455F5F4F5A83498369857A858F819885C6
:100520000E94AC0222960FB6F894DEBF0FBECDBF7C
:10053000DF91CF910895FC01CB01DF010D900020E8
:10054000E9F71197AE1BBF0BAD01BF01FC01808124
:1005500091810E94BB010895FC01CB019A01608149
:100560007181AC018BEB91E00E945B030895EF92E7
:10057000FF920F931F938C017B010E94B719AC016E
:10058000B801F701808191810E94CE011F910F91E6
:10059000FF90EF9008950E94031308950E94901217
:1005A0009C01892B31F48CE090E090930B038093B5
:1005B0000A03C9010895EF92FF920F931F93CF93FF
:1005C000DF93CDB7DEB729970FB6F894DEBF0FBE25
:1005D000CDBF7B018C01FE013196AE01475F5F4FBD
:1005E00003C021930F5F1F4F302F381BD8012C9170
:1005F000222329F02A3319F0E417F50791F7CE01E9
:100600000196FC01E30FF11D10820E94FD18DC0130
:10061000892B49F482E090E090930B0380930A03C6
:100620008FEF9FEF13C0F80180818A3319F060E0EB
:1006300070E003C0B8016F5F7F4FFD01058D168D1F
:1006400020E030E0A701CD01F801099529960FB609
:10065000F894DEBF0FBECDBFDF91CF911F910F91F8
:10066000FF90EF900895CF92DF92EF92FF920F9359
:100670001F93CF93DF936C017B018A01E90107C0CF
:1006800040E150E0B801C701F60109956097C1311A
:10069000D105B4F71C161D062CF4AE01B801C70134
:1006A000F6010995DF91CF911F910F91FF90EF9087
:1006B000DF90CF9008952F923F924F925F926F926A
:1006C0007F928F929F92BF92CF92DF92EF92FF9292
:1006D0000F931F93CF93DF93CDB7DEB76B970FB612
:1006E000F894DEBF0FBECDBF998F888F7B8F6A8F46
:1006F0001A0149011D8A1C8AB10103C00894211CFA
:10070000311CD101FC90FF2019F0B5E2FB16B1F7C6
:100710008101061B170B61F0A8018A8D9B8DE88D66
:10072000F98D09952C893D89200F311F3D8B2C8B2C
:10073000FF2009F4F3C2F1013196198255241B8A76
:100740001A8A7FEF672E772E02C04C01F101DF017C
:10075000BD901D01B0E2BB1621F489818823B1F759
:1007600003C02BE2B21611F4B982F0CF3DE2B3160A
:1007700019F444E0542AEACF53E2B51619F461E0C3
:10078000562AE4CF70E3B71619F480E1582ADECF79
:100790009CE6B91619F4A8E05A2AD8CFBAE7BB16D6
:1007A000A9F22AE2B21691F4C4010296D4018D9006
:1007B0009C909B8A8A8A97FEC8CFB4E05B2AF4019A
:1007C000F095E195FF4FFB8BEA8BBFCF2EE2B2167F
:1007D00091F581818A3219F0662477241FC008942C
:1007E000211C311CD4016D907C90E2E0F0E08E0E73
:1007F0009F1E1BC08AE090E0A301489F3001499FE3
:10080000700C589F700C1124822F992787FD9095AA
:10081000680E791E60ED7FEF660E771E218131969E
:10082000822F80538A3030F31F0177FE8FCF6FEF16
:10083000662E762E8BCF8B2D8153893010F58B2D24
:100840009927C0979B8B8A8B2AE030E012C04A8997
:100850005B89429FD001439FB00D529FB00D112480
:10086000892F992787FD9095A80FB91FD097BB8B2B
:10087000AA8B91813196892F80538A3040F31F01D2
:1008800065CFF4014B2C57E65B15E8F065E6B6162C
:1008900008F0B4C170E5B716D1F17B1548F085E4D6
:1008A000B81609F4ABC197E4B91609F0ABC1A6C1FB
:1008B000A3E6BA1621F1AB1508F475C0B8E5BB166E
:1008C00009F0A0C13BC120E7B21609F437C12B15CE
:1008D00048F039E6B31609F466C04FE6B41609F0DD
:1008E00091C1DEC055E7B51609F45CC068E7B616DD
:1008F00009F424C173E7B71609F084C124C082E06B
:1009000090E0880E991E80818A83198281C1A2E0BD
:10091000B0E08A0E9B1EE080F180E114F10439F40E
:1009200053E6C52E51E0D52E43E7442E19C0C7012A
:100930000E94B71901960E94CE028C01B7010E9455
:10094000B019680106C022E030E0820E931EC0801C
:10095000D180C114D10421F433E6C32E31E0D32E6B
:1009600077FC12C0A30160E070E0C6010E94C019CC
:10097000009711F4730112C08C199D09730186153B
:10098000970564F47C010AC0D6010D900020E9F7B8
:100990007D010894E108F108EC18FD08198266242D
:1009A0007724B5C1198253FE0CC024E030E0820EDA
:1009B000931EE080F1800281138135E7B316B1F414
:1009C00021C0D4011296F40100811181F5E7BF1610
:1009D00031F44D01980179010027112713C04D0111
:1009E000A8017A010027F7FC0095102F17FF0AC015
:1009F00010950095F094E094E11CF11C011D111D6F
:100A00008DE2898377FC02C05FEE5522E114F10488
:100A10000105110539F46114710451F422E1C22E6B
:100A2000D12C0CC06AE0E616F1040105110548F46A
:100A30008E2D805D898B91E1C92ED12CCC0EDD1ECF
:100A400020C082E1C82ED12CCC0EDD1EC801B7011A
:100A50002AE030E040E050E00E94101A605DD601CC
:100A60006E936D01C801B7012AE030E040E050E02C
:100A70000E94101A79018A0121153105410551059D
:100A800029F78E010C191D090E5E1F4F78010615FE
:100A900017050CF483018981882309F0C4C0C5C0FF
:100AA00053FE09C024E030E0820E931E00811181C4
:100AB0002281338109C042E050E0840E951E80817E
:100AC00091818C012227332777FC02C05FEE5522EB
:100AD000011511052105310549F46114710431F442
:100AE000B2E1CB2ED12CCC0EDD1E1FC0A2E1CA2E4E
:100AF000D12CCC0EDD1E802F8770805DD6018E93A9
:100B00006D01F3E03695279517950795FA95D1F77E
:100B1000011511052105310571F750FE06C080331E
:100B200021F080E3FD0182936F0119827E01EC18B0
:100B3000FD0822E130E0E20EF31EE9C030E7B31613
:100B400071F442E050E0840E951E808191818C0109
:100B50002227332751E0552AE8E7BE2E14C053FE62
:100B600009C064E070E0860E971E00811181228129
:100B7000338109C082E090E0880E991E80819181C6
:100B80008C0122273327198277FC02C09FEE59225D
:100B9000A8E5BA1619F04AE651E002C04BE751E069
:100BA00072E1C72ED12CCC0EDD1EF801EF70F07073
:100BB000E40FF51F8081F60182936F0164E03695A2
:100BC0002795179507956A95D1F701151105210508
:100BD000310559F750FE09C03197B0826F01089472
:100BE000C108D10880E3D6018C937E01EC18FD0882
:100BF000E2E1F0E0EE0EFF1E4B2C89C024E030E075
:100C0000820E931EBB2009F489C0BA8219824B2C34
:100C100092E0C92ED12CCC0EDD1E6624772481E013
:100C2000E82EF12C74C00F5F1F4F452D55275F8BA9
:100C30004E8B2A0154E1452255244114510461F49C
:100C40002A893B89201B310B4CE851E06A8D7B8D52
:100C5000888D998D0E9433038981882359F041E062
:100C600050E0BE016F5F7F4F8A8D9B8DA88DB98D3F
:100C7000FD010995B0E14B16510461F42A893B89C5
:100C8000201B310B4CE951E06A8D7B8D888D998D4D
:100C90000E9433036E187F0893014CE951E06A8D7E
:100CA0007B8D888D998D0E943303E114F10439F016
:100CB000A701B6018A8D9B8DE88DF98D0995F0E528
:100CC000BF1619F4C6010E94CB022E8922FF0CC068
:100CD0002A893B89201B310B4CE851E06A8D7B8DC2
:100CE000888D998D0E9433034A895B89401751078B
:100CF0003CF06C897D89640F751F7D8B6C8BFCCCFF
:100D00008C899D89800F911F9D8B8C8BF5CC8701E1
:100D1000E614F7040CF48301B42C87CF8C899D89E9
:100D20006B960FB6F894DEBF0FBECDBFDF91CF91AB
:100D30001F910F91FF90EF90DF90CF90BF909F9009
:100D40008F907F906F905F904F903F902F9008957D
:100D5000FC018081823759F0873719F08136B1F470
:100D600003C081E093E41BC088E091E418C080E0F8
:100D700090E415C02B3219F0223641F404C08E7F66
:100D8000826093600CC09F7B906809C086E190E010
:100D900090930B0380930A038FEF9FEF0895319692
:100DA0002081222339F708950F931F93CF93DF9368
:100DB000CDB7DEB721970FB6F894DEBF0FBECDBF1B
:100DC0008C01FC01848183FF05C0877F848385813A
:100DD00096811BC041E050E0BE016F5F7F4FF8017C
:100DE000808191810E94A8018130910561F0F80114
:100DF0002481892B11F0206102C02062F801248334
:100E00008FEF9FEF02C08981992721960FB6F89442
:100E1000DEBF0FBECDBFDF91CF911F910F9108951F
:100E20009F918F910F900BBE0F900FBE1F90189542
:100E30002F923F924F925F926F927F928F929F92EA
:100E4000AF92BF92CF92DF92EF92FF920F931F93D8
:100E5000CF93DF938DB79EB7E0911203F091130308
:100E6000918B808BE0911003F0911103F0931303A9
:100E7000E093120381E08787E0911203F09113035E
:100E8000808991898DBF9EBFDF91CF911F910F9176
:100E9000FF90EF90DF90CF90BF90AF909F908F909A
:100EA0007F906F905F904F903F902F900895CF92DA
:100EB000DF92EF92FF920F931F93CF93DF938C01FA
:100EC0007B016A01E901C90149960E949012FC0167
:100ED000009719F480E090E075C0C80FD91F9E01FB
:100EE00027503040AE014B515040CE01069668E08D
:100EF000D8010D908D01DC010D92CD016150C1F73B
:100F00001E8641505040598B488B4F5F5F4FFC8B82
:100F1000EB8B8FEE9EEBADEABEED80839183A283D7
:100F2000B38384839583A683B78380879187A287C1
:100F3000B38784879587A687B78780E48A8B8F2DB0
:100F40009927F9018583E68280E8838312821482DF
:100F5000C1828D2D9927808320E137E0832F992747
:100F6000FA01828B238B80910E0390910F0399835A
:100F70008883D0930F03C0930E0312E01F871E8A4D
:100F80001D8A188E1F8A60E173E0CE010E949113C2
:100F9000E0911203F0911303309721F40FB6F89407
:100FA0000F9260CF8091100390911103E817F90719
:100FB00041F017870FB6F8940F920E9418070F9010
:100FC0000FBECE01DF91CF911F910F91FF90EF9057
:100FD000DF90CF900895CF93DF93DC01EC01EA819D
:100FE000FB812091BC02422F5527CA01807390706B
:100FF000892B89F044FF04C083E18CB9206403C0CD
:1010000081E18CB92F7B2093BC028091BC028F7C44
:101010008093BC0249C027FF02C0559845C0ED012E
:101020008A859B85892B51F18A859B8501979B87B2
:101030008A878091BD02882311F0509A01C0509890
:1010400081918CB99F01FD0186819781281739070D
:1010500011F424813581ED013B832A832A853B8568
:101060008C859D8528173907F9F4E889F989309727
:1010700069F08FEFEF3FF807B9F011C05598ED0117
:101080001B861A86E889F989309729F48FEF9FEF3C
:10109000998B888B09C08FEFEF3FF80729F0848187
:1010A0009581019695838483DF91CF910895CF93A5
:1010B000DF93DC013BB18091BB02382B3093BB0244
:1010C0006CB12091BC02222361F0633119F4559870
:1010D000206804C0613129F4559A2F772093BC020F
:1010E00051C0ED014A855B85888599854817590768
:1010F00020F038603093BB0245C04F5F5F4F4130F6
:101100005105A1F4ED01E889F989309729F48FEFB1
:101110009FEF998B888B1EC08FEFEF3FF807D1F0C0
:101120008481958101969583848314C0222391F054
:10113000ED018E859F854817590760F026FD0AC08E
:101140005D9B05C083E18CB920642F7D01C02062C6
:101150002093BC02ED91FC91119761931196FC9341
:10116000EE932D913C911197FD018681978128176F
:10117000390729F48481958111969C938E93ED0112
:101180005B874A87DF91CF910895529B03C089E026
:1011900090E008958091950082FF0AC080919500AB
:1011A00081FF03C088E090E0089587E090E0089513
:1011B0008091950081FF03C086E090E0089585E06E
:1011C00090E008958091950085FD03C080E090E057
:1011D00008958091950084FF03C081E090E0089518
:1011E00082E090E008958091950083FF03C082E043
:1011F00090E0089581E090E008958091BB02682F0F
:101200007727CB0124E0969587952A95E1F79C01F5
:1012100044275527217030704070507063FD226064
:1012200062FD24608091BC02882321F086FD42602B
:1012300087FD486041FF416043FF44608091BD02EB
:10124000882321F0CA01B901806403C0CA01B90131
:101250008068589B02C08061089580620895EF9273
:10126000FF920F931F937B018C018091BC02882316
:10127000D9F00FB6F8940F9200FF02C08F7B03C025
:1012800001FF03C080648093BC0202FF04C0809110
:10129000BC028F7705C003FF05C08091BC02806847
:1012A0008093BC020F900FBE06FF03C081E08093C5
:1012B000BD0207FF02C01092BD0204FD589A05FD51
:1012C0005898E0FE05C08091BB028F7E8093BB02E0
:1012D000E1FE05C08091BB02877F8093BB02E2FEE6
:1012E00005C08091BB028B7F8093BB020E94FD08EA
:1012F000687F6E157F058007910719F08FEF9FEFCC
:1013000002C080E090E01F910F91FF90EF90089550
:101310008091950086FF0BC0129B02C093E001C034
:1013200091E08091950080FF07C0946005C0599BB3
:1013300002C090E201C090E0892F99270895809122
:10134000BC02882329F060E270E080E090E008951C
:1013500060E070E080E090E00895559A08959091E3
:10136000BC029923A9F096FF13C00FB6F8940F9210
:101370005D9B04C081E18CB99F7E01C09061909318
:10138000BC028091BC028F798093BC020F900FBE8B
:1013900008950FB6F8940F925798569855980F9055
:1013A0000FBE8AE00E94A50B5498539808951F938E
:1013B000182F0E94C9095298809195008D7F8093C3
:1013C0009500809195008B7F809395001730A1F058
:1013D000183018F41630A9F405C0183041F019304F
:1013E00081F404C080919500826009C0529A809176
:1013F0009500826080939500809195008460809331
:1014000095000FB6F8940F9288EB8AB90F900FBE33
:101410000E94C508811719F08FEF9FEF02C080E08E
:1014200090E01F9108958F929F92AF92BF92CF92BA
:10143000DF92EF92FF920F931F9389B090909000EC
:101440008091950086FF06C072E0A72EB12CC12CBA
:10145000D12C0DC0599B06C068E0A62EB12CC12C22
:10146000D12C05C050E1A52EB12CC12CD12C0E944D
:10147000BD0B7B018C01282D3327892D9927982FAF
:101480008827282B392B442755272F5F3F4F4F4F55
:101490005F4FC601B5010E94F1199B01AC01C80163
:1014A000B7010E94101ACA01B9011F910F91FF9054
:1014B000EF90DF90CF90BF90AF909F908F90089566
:1014C00040E050E060E070E08EE292E00E94840D27
:1014D00040E050E060E070E084E392E00E94840D20
:1014E00080E090E0089541EF51E067E578E08EE21A
:1014F00092E00E94840D892B19F08FEF9FEF0895E1
:101500004FED51E06BEE77E084E392E00E94840DB2
:10151000892B19F480E090E0089540E050E060E00D
:1015200070E08EE292E00E94840D8FEF9FEF0895AD
:10153000EF92FF920F931F937B018C010E94C909C8
:101540008091950086FD11C0599B08C0B2E0EE0C59
:10155000FF1C001F111FBA95D1F707C0A3E0EE0CC6
:10156000FF1C001F111FAA95D1F70E94BD0BA801F7
:1015700097010E94101A2F5F3F4F4F4F5F4F5695B4
:101580004795379527952150304029B9232F332788
:10159000209390000FB6F8940F9288EB8AB90F90C1
:1015A0000FBE80E090E01F910F91FF90EF900895A3
:1015B0001F93182F0E94C909812F992780FF13C0FC
:1015C00081FF02C0129A01C0129882FF04C080916C
:1015D0009500816003C0809195008E7F8093950077
:1015E00059985E9A0FC085FF02C0599A01C0599858
:1015F000809195008E7F80939500809195008F7BE0
:10160000809395000FB6F8940F9288EB8AB90F90EB
:101610000FBE0E948809811719F08FEF9FEF02C05B
:1016200080E090E01F9108951F93182F0E94C90930
:10163000113071F0113018F01230C1F40DC08091EA
:1016400095008F7E80939500809195008F7D0CC0D2
:1016500080919500806103C0809195008F7E80937A
:101660009500809195008062809395000FB6F89464
:101670000F9288EB8AB90F900FBE0E94E208811783
:1016800019F08FEF9FEF02C080E090E01F91089566
:101690001F93182F0E94C909113021F480919500E1
:1016A000877F05C0123029F480919500886080936F
:1016B00095000FB6F8940F9288EB8AB90F900FBE81
:1016C0008091950083FF03C082E090E002C081E03A
:1016D00090E0181719F08FEF9FEF02C080E090E0C4
:1016E0001F910895EF92FF920F931F937B018C013E
:1016F00065FF11C08091BC02882341F40FB6F894B5
:101700000F9281E48093BC020F900FBE20E230E084
:1017100040E050E00BC00FB6F8940F921092BC025C
:101720000F900FBE20E030E040E050E02E153F0566
:101730004007510719F08FEF9FEF02C080E090E063
:101740001F910F91FF90EF9008951F93182F6091B4
:10175000BE027091BF028091C0029091C10220EA46
:101760003FE040E050E00E94101A822F932F019733
:10177000F1F71A95D1F71F9108956091BE0270910B
:10178000BF028091C0029091C102089560E074E0B0
:1017900080E090E00895BC0187B78D7F87BF80B758
:1017A000886080BF12BE82E083BF80B799278770B0
:1017B0009070892BD1F781E086BF0FB6F8940F9215
:1017C00081E090E0A0E0B0E0B6B7B170E9F3B6BF59
:1017D0000894811D911DA11DB6B7B170C9F3BB2737
:1017E0000F900FBE27E0880F991FAA1FBB1F2A95D5
:1017F000D1F78093BE029093BF02A093C002B09332
:10180000C10287B78D7F87BF80B7886080BF12BE57
:1018100089E083BF8FE181BF80B79927877090707F
:10182000892BD1F782E086BF40E050E088E292E069
:101830000E94840D08953AE0660F771F881F991F54
:101840003A95D1F728EE33E040E050E00E94101ABC
:10185000211531054105510521F421E030E040E03A
:1018600050E0CA01B90108959C01FB0187B7482FD8
:1018700055274270507087B78D7F87BF2031310563
:10188000D9F0213131053CF42115310581F02130A9
:10189000310551F40EC02231310571F1223131058B
:1018A000E4F020323105E1F02FEF3FEF1FC040E0C0
:1018B00050E082E086BF18C006B601FE05C081E098
:1018C00090E09183808302C011821082452BA1F0A9
:1018D0008081918180689183808320E030E008C01E
:1018E0008EE090E09183808320E030E0452B31F062
:1018F00087B7826087BF02C020E030E0C901089549
:101900001F920F920FB60F9211242F933F934F9374
:101910005F936F937F938F939F93AF93BF93EF9357
:10192000FF9388E292E00E94760DFF91EF91BF91C4
:10193000AF919F918F917F916F915F914F913F9167
:101940002F910F900FBE0F901F9018959C01FB01D7
:101950008AB1482F5527407850705798203131056B
:10196000D9F0213131053CF42115310581F02130C8
:10197000310551F40EC02231310559F122313105C2
:10198000DCF020323105D9F08FEF9FEF1EC040E030
:1019900050E08CB18CB117C05F9B05C081E090E036
:1019A0009183808302C011821082452B91F0808147
:1019B000918180689183808380E090E008C080E11D
:1019C00090E09183808380E090E0452B21F0579A4E
:1019D000089580E090E008951F920F920FB60F9245
:1019E00011242F933F934F935F936F937F938F9324
:1019F0009F93AF93BF93EF93FF938EE292E00E9489
:101A0000760DFF91EF91BF91AF919F918F917F9153
:101A10006F915F914F913F912F910F900FBE0F905B
:101A20001F9018959C01FB018AB1482F55274072E1
:101A3000507055982131310519F1223131053CF4AE
:101A40002115310551F12031310539F409C0223118
:101A5000310519F120323105B1F08FEF9FEF19C038
:101A60005D9B05C081E090E09183808302C011827C
:101A70001082452B91F080819181806891838083D1
:101A800080E090E008C080E190E09183808380E076
:101A900090E0452B21F0559A089580E090E008955C
:101AA0001F920F920FB60F9211242F933F934F93D3
:101AB0005F936F937F938F939F93AF93BF93EF93B6
:101AC000FF9384E392E00E94760DFF91EF91BF9126
:101AD000AF919F918F917F916F915F914F913F91C6
:101AE0002F910F900FBE0F901F901895CF93DF93FB
:101AF000DC01EC01EA81FB81309719F08D919C911A
:101B00000995DF91CF910895EF92FF920F931F9364
:101B1000CF93DF93EC017B018A01EC81FD8130974B
:101B200019F480E090E005C060E070E080E090E0B3
:101B3000099519830883FB82EA82DF91CF911F9177
:101B40000F91FF90EF900895CF93DF93EC01EC811C
:101B5000FD81309719F48FEF9FEF05C060E070E0D2
:101B600081E190E00995DF91CF910895CF93DF93C4
:101B7000EC01EC81FD81309719F48FEF9FEF05C0E8
:101B800060E070E082E190E00995DF91CF910895E7
:101B90000F931F93CF93DF93CDB7DEB724970FB684
:101BA000F894DEBF0FBECDBF8C017C836B83FC013C
:101BB000248135812115310519F48FEF9FEF17C06E
:101BC000BE016F5F7F4F80E290E0F90109950097B9
:101BD00071F4F80124813581BE016D5F7F4F81E290
:101BE00090E0F9010995009711F489819A81249672
:101BF0000FB6F894DEBF0FBECDBFDF91CF911F911E
:101C00000F9108950F931F93CF93DF93CDB7DEB756
:101C100024970FB6F894DEBF0FBECDBF8C017C8336
:101C20006B83FC01248135812115310519F48FEF77
:101C30009FEF17C0BE016F5F7F4F88E190E0F90111
:101C40000995009771F4F80124813581BE016D5F1B
:101C50007F4F89E190E0F9010995009711F489819E
:101C60009A8124960FB6F894DEBF0FBECDBFDF91E8
:101C7000CF911F910F9108950F931F93CF93DF93EF
:101C8000FC01C189D289EDA9FEA909958C01892B96
:101C900049F4CF5BDF4FE881F98160E072EC81E0CD
:101CA00090E00995C801DF91CF911F910F910895A0
:101CB000CF93DF93EC01EA81FB810188F289E02D6B
:101CC0000FB6F8940F9264A575A50F900FBE8827E4
:101CD0009927DF91CF910895CF92DF92EF92FF92F3
:101CE0000F931F93CF93DF93EC018B017A0169016E
:101CF0008C819D81288539850FB6F8940F921986BD
:101D000018860F900FBE2617370789F0232B21F076
:101D1000009711F00E94CB020115110509F1C801CD
:101D20000E94CE02009729F48FEF9FEF1BC0672B14
:101D3000B9F09D838C83998388839B838A83800FEA
:101D4000911F9F838E83FD86EC86DF86CE861B8661
:101D50001A860FB6F8940F92198708870F900FBE56
:101D600080E090E0DF91CF911F910F91FF90EF9075
:101D7000DF90CF900895CF92DF92EF92FF920F9372
:101D80001F93CF93DF936A01DA01ED90FD900D91DF
:101D90001C912E2DFC01C189D2896150714067329E
:101DA000710548F46A5B7F4FFB01EE0FFF1F059042
:101DB000F491E02D09940FEF1FEF24C1CF5BDF4FAB
:101DC00050C0CD5BDF4FE881F9810995D6016D9355
:101DD0007D938D939C93139713C1CB5BDF4FE88169
:101DE000F981822F09958C010DC1C95BDF4F0BC0B2
:101DF000C75BDF4FF4CFC55BDF4F05C0C35BDF4F71
:101E0000EECFC15BDF4FE881F98109959927AA27B9
:101E1000BB27F1C0E6FE0EC0FE01B29626853785CF
:101E20004485558560857185CF010E946C0EEBADB0
:101E3000FCAD0995E7FE0BC0FE017096268537853F
:101E40004485558560857185CF010E946C0ECF5AFF
:101E5000DF4F8FE39FEFAFEFBFEFE822F9220A23B6
:101E60001B23E881F9814CC0CD5ADF4FE881F9810D
:101E7000C355D04009959B01AC01D6016D937D936C
:101E80008D939C9313978CA59DA5892B31F4206489
:101E9000F60120833183428353838A8D9B8D892B66
:101EA00009F0AEC0F60180819181A281B381806882
:101EB000A3C0E886F9860A871B87A2C08885998512
:101EC000AA85BB8598C0EC86FD860E871F8798C0C3
:101ED0008C859D85AE85BF858EC088819981AA81BC
:101EE000BB81EE2011F0806422C08F7B20C08881EE
:101EF0009981AA81BB8186FF27C021C0EDADFEADCF
:101F0000C801B70109956FCFEF96E881F98109956E
:101F1000F601608371838283938372C08881998183
:101F2000AA81BB81EE2011F0806801C08F77888381
:101F30009983AA83BB8364C0888187FF05C081E041
:101F400090E0A0E0B0E057C0D6011D921D921D9216
:101F50001C92139755C0CB5ADF4F41CFC95ADF4F60
:101F600052CFFE0170962685378544855585B70189
:101F7000CF010E946C0E8C01892B09F043C0EBADA0
:101F8000FCAD09953FC0888D998D33C0FE01B29696
:101F90002685378544855585B701CF010E946C0E93
:101FA00022CF8AA59BA525C00FB6F8940F92FD8E6F
:101FB000EC8E1AC08C8D9D8D1CC00FB6F8940F92BC
:101FC000FF8EEE8E11C08E8D9F8D13C00FB6F894CC
:101FD0000F92FFA6EEA608C08EA59FA50AC00FB659
:101FE000F8940F92F9AAE8AA0F900FBE09C088A929
:101FF00099A9AA27BB27F60180839183A283B38383
:1020000000E010E0C801DF91CF911F910F91FF9088
:10201000EF90DF90CF900895CF92DF92EF92FF92F2
:102020000F931F93CF93DF936C018A01FC01C18949
:10203000D28983E0E82EF12CE422F522E114F104A8
:1020400081F028E330E048E250E060E470E0CE0147
:1020500040960E946C0E892BA1F4F1E0EF16F1047A
:1020600099F020EF30E040ED50E060E071E0CE010B
:1020700082960E946C0E892B39F08C899D890E9472
:10208000CB020FEF1FEF2CC086E090E00E94CE0243
:10209000009739F48C899D890E94CB028EA19FA163
:1020A000EECF0070107C288139814A815B8100501D
:1020B000104811F42F7701C02068288339834A83A0
:1020C0005B838C01FC0111821082D382C282158253
:1020D0001482F1E0EF16F10419F0EBADFCAD0995B7
:1020E000C801DF91CF911F910F91FF90EF90DF908A
:1020F000CF900895CF93DF93DC01EC01EA81FB815F
:10210000C189D28901978E5F9F4F18F08FEF9FEFA3
:1021100019C0CD010E94CB0220E030E040E050E049
:1021200060E070E0CE0140960E946C0E20E030E04E
:1021300040E050E060E070E0CE0182960E946C0EBC
:1021400080E090E0DF91CF910895CF92DF92EF92FF
:10215000FF920F931F93CF93DF937C016A01EC01F1
:1021600060960FB6F8940F928A859B85860F971F0D
:102170009B878A8713C0F70181AD92ADFC01099559
:10218000F7014485558566857785CE0140960E9486
:102190008318892B51F40FB6F8940F920A851B858A
:1021A0000F900FBEC016D10630F3C801DF91CF915A
:1021B0001F910F91FF90EF90DF90CF9008956F9255
:1021C0007F928F929F92AF92BF92CF92DF92EF92C7
:1021D000FF920F931F93CF93DF93CDB7DEB7229774
:1021E0000FB6F894DEBF0FBECDBF4A015901FC0106
:1021F000E188F288A0E16A2E712C6E0C7F1CF3013D
:1022000080859185892B21F4FFEFCF2EDF2E9BC097
:102210006115710549F440E050E060E070E0C701ED
:102220000E94A5106C018FC0F70180819181A2816D
:10223000B3819C01AD01E9E0569547953795279507
:10224000EA95D1F721702A8327E0B695A79597954F
:1022500087952A95D1F7817089830FB6F8940F92EC
:10226000F301428553850F900FBE8B0160E070E053
:10227000CC24DD2450C09A01260F371FF301868538
:1022800097852817390778F044855585C7010E943E
:10229000A510AC01F301848595858417950708F492
:1022A00052C060E070E0A114B10419F0F80184910B
:1022B00002C0D8018C91B981B13069F48A3081F4BF
:1022C000EA81E13019F0F2E0F98303C082E08A8309
:1022D00089838DE00AC09981923011F4A1E0A9832D
:1022E0000F5F1F4F0894C11CD11CD301ED91FC91CD
:1022F000119781931196FC93EE932D913C91F301EC
:10230000868197812817390721F4848195819183EB
:1023100080836F5F7F4FC814D9040CF4ACCF611574
:10232000710589F00FB6F8940F92F30182859385B9
:10233000860F971F938782870F900FBEF70181AD9D
:1023400092ADFC010995C60122960FB6F894DEBF46
:102350000FBECDBFDF91CF911F910F91FF90EF90F6
:10236000DF90CF90BF90AF909F908F907F906F90B5
:10237000089521E030E0FC01828193810E94DF100A
:10238000089520E030E0FC01828193810E94DF10FB
:102390000895AF92BF92CF92DF92EF92FF920F9388
:1023A0001F93CF93DF937B015A01EC01EA81FB81FC
:1023B00001891289E801A296688579856115710500
:1023C00019F48FEF9FEFA1C0E114F10461F42E85A1
:1023D0003F854C855D85CE010E946C0EE801EBAD1A
:1023E000FCAD09951AC00FB6F8940F926A857B85EB
:1023F0000F900FBE6115710599F4F80183AD94AD8E
:10240000FC010995F8014085518562857385CE01EF
:1024100040960E948318892B31F380E090E075C0CC
:10242000D701F801808187FF35C0CC24DD24EE245C
:10243000FF245AE02BC0E616F70609F44FC0EA81E4
:10244000FB814191FB83EA832A813B818E819F81BD
:102450002817390721F48C819D819B838A834D3015
:1024600011F04A3051F4F80184A9882311F084173F
:1024700051F4F80144AB5D9303C0F80114AA4D93E5
:102480000894C11CD11C0894E11CF11CCA14DB0483
:1024900090F221C06B01A616B70608F4650140E072
:1024A00050E0D70114C0EA81FB8181918C93FB83BA
:1024B000EA832A813B818E819F812817390721F485
:1024C0008C819D819B838A834F5F5F4F11964C1552
:1024D0005D0549F77601E114F104B1F00FB6F89407
:1024E0000F928A859B858E199F099B878A870F90FB
:1024F0000FBE2A853B858C859D852817390720F4DA
:10250000E801EBADFCAD0995C601DF91CF911F91BC
:102510000F91FF90EF90DF90CF90BF90AF90089514
:102520000F931F93CF93DF930091C2021091C302C8
:102530008017910730F080E090E060C0EF01DB0190
:102540002FC0AC014A5F5F4F4430510510F444E0A6
:1025500050E0E0910C03F0910D036CE073E0C0E0FB
:10256000D0E0A0E0B0E017C020813181241735070A
:1025700060F02417350711F3209729F0888199819D
:102580002817390710F4EF01DB01BF016E5F7F4FA1
:102590000280F381E02D309739F7CE01209771F159
:1025A00028813981CA010A966A817B818217930743
:1025B00070F4FE01E40FF51F241B350B31832083DB
:1025C0007383628359834883ED93FC9302C06D93B8
:1025D0007C93E881F9810E1B1F0B1093C3020093BB
:1025E000C202EC0FFD1F34978FEE9EEBADEABEEDFD
:1025F00080839183A283B383CE010296DF91CF9132
:102600001F910F910895CF93DF93DC0112976D9185
:102610007C911197E0910C03F0910D03CCE0D3E095
:102620003AC040815181CF01840F951F8A179B07C3
:10263000C1F49A01260F371F318320838281938151
:10264000DF01A20FB31FA817B90791F58D919C91D7
:102650001197280F391F31832083ED018A819B81D7
:1026600025C0AE17BF0778F4B983A8832D913C919C
:102670001197CD01820F931F8E179F0779F0ED01FF
:10268000FB83EA8315C0A817B90728F1EF0122964A
:102690000280F381E02D309721F617C0240F351FFB
:1026A00011963C932E9382819381FD0193838283C3
:1026B0008091C2029091C302860F971F9093C3022C
:1026C0008093C20280E090E008C0FD011382128274
:1026D000B983A883EDCF8FEF9FEFDF91CF9108955E
:1026E000FC0161937193CF010E94031308958091BF
:1026F000C2029091C30208950F931F93CF93DF936B
:102700008C010E949012EC01009729F0A80160E072
:1027100070E00E94CD19CE01DF91CF911F910F91F2
:102720000895CF93DF93DC019B01EC01788F6F8BD1
:102730001D821C820FB6F8940F92EB01E881F9819B
:102740008FEFEF3FF80749F4ED018C819D810196F1
:102750009D838C83E0E0F0E015C0309799F00F90F6
:102760000FBEED019A8908C09F012E5F3F4F028086
:10277000F381E02D309719F082899817A8F70FB6EA
:10278000F8940F92ED01FB83EA83F901B183A083F2
:10279000EA81FB81309771F084819581892B51F01A
:1027A0008C819D8124813581820F931F9D838C8331
:1027B000158214820F900FBEDF91CF910895CF93B1
:1027C000DF939C01DB010FB6F8940F92ED91FC9121
:1027D00011970F900FBE8FEFEF3FF80731F527C02D
:1027E00082819381E217F307E9F40FB6F8940F9210
:1027F00011969C938E9384819581892B59F0A281A7
:10280000B381109729F084819581ED019D838C839C
:10281000158214820F900FBEF90113821282108E5E
:10282000178A05C0DF011296FC013097C9F6DF91C7
:10283000CF910895FB01168A158A82E0878760E1AF
:1028400073E0CF010E94911308950F931F93CF93CC
:10285000DF938C01C0910E03D0910F030CC0B8011F
:10286000CE0106960E94E019892B11F4CE0107C013
:102870000990D881C02D209791F780E090E0DF91FA
:10288000CF911F910F910895E0911403F0911503DA
:10289000309741F0838994890E94031310921503A5
:1028A000109214030895CF93DF93C0910E03D0913B
:1028B0000F030E9444142091120330911303EEE0A1
:1028C000F3E00AC088819981C217D30719F4918374
:1028D000808304C0FE01EC012097A1F780911203D0
:1028E000909113039093150380931403DF91CF917C
:1028F00008950F931F93182FE0911203F091130383
:10290000028960E173E0CF010E94DF13E0911203BE
:10291000F0911303128B1F3F49F060E173E0809147
:102920001203909113030E94911302C00E9453144A
:10293000E0911203F0911303809110039091110321
:10294000E817F90719F481E0878709C082E08787D3
:102950000FB6F8940F920E9418070F900FBE802FA9
:1029600099271F910F9108958FEF0E947914089570
:10297000CF93DF93C0910E03D0910F0320C00FB609
:10298000F8940F928C819D810F900FBE892BA1F03E
:10299000EF89F88D0FB6F8940F928C819D81019785
:1029A0009D838C830F900FBE808191818F5F9F4F9D
:1029B00019F0CF010E94A1170990D881C02D20974E
:1029C000F1F60E947916E0911203F09113038091C1
:1029D000100390911103E817F90761F087858130A2
:1029E00011F482E087870FB6F8940F920E941807BF
:1029F0000F900FBEDF91CF910895E0911203F091F7
:102A0000130382819381892B69F060E173E0CF0128
:102A10000E94DF1360E173E0809112039091130331
:102A20000E9491130E94B814089580911803909108
:102A30001903A0911A03B0911B030196A11DB11DAA
:102A40008093180390931903A0931A03B0931B0368
:102A50000895CF93DF93EC011B821A82E091160355
:102A6000F09117031AC0288539854A855B858085D2
:102A70009185A285B385281739074A075B0780F03F
:102A8000281B390B4A0B5B0B288739874A875B87E2
:102A9000FB83EA830190F081E02D309721F718C085
:102AA000821B930BA40BB50B80879187A287B387FA
:102AB000F983E883D383C283EA81FB81309719F0DD
:102AC000D183C08308C0D0931703C093160303C0FB
:102AD00019821882F1CFDF91CF9108950FB6F89443
:102AE0000F92609118037091190380911A039091CD
:102AF0001B030F900FBE0895CF93DF93EC01EA8183
:102B0000FB8188819981309719F09183808304C07B
:102B10009093170380931603E881F9813097A1F011
:102B20008A819B819383828380859185A285B385E9
:102B3000288539854A855B85820F931FA41FB51FA1
:102B400080879187A287B387CE010E940313DF910C
:102B5000CF910895AF92BF92CF92DF92EF92FF9202
:102B60000F93CF93DF936B017C01EA01590180E160
:102B700090E00E949012FC01892B81F10FB6F8942D
:102B80000F928091180390911903A0911A03B091AC
:102B90001B030F900FBE8C0D9D1DAE1DBF1D209100
:102BA000C4023091C5024091C6025091C702821BF7
:102BB000930BA40BB50B80879187A287B38700FF87
:102BC00005C0148215821682178204C0C482D58281
:102BD000E682F782D587C487B786A686CF01DF91C4
:102BE000CF910F91FF90EF90DF90CF90BF90AF907B
:102BF00008950F93CF93DF930E94AA15EC010097DD
:102C000011F00E942915CE01DF91CF910F91089507
:102C1000CF92DF92EF92FF920F936A0179010E94A7
:102C20001B0C9701A6010E94F9150F91FF90EF90E0
:102C3000DF90CF900895AF92BF92CF92DF92EF9244
:102C4000FF920F93CF93DF935B016C0161157105C8
:102C500081059105D1F1C0E1D3E0BE01809112035D
:102C6000909113030E94DF13E0911203F09113037C
:102C700083E08787E0901203F090130301E097014F
:102C80004AE154E1C601B5010E940816F701968B8E
:102C9000858B892B19F00E94B81419C0E09112039A
:102CA000F0911303D08FC78B809110039091110383
:102CB0009383828381E0878780911203909113032D
:102CC000909311038093100302C00E94FD14DF91C2
:102CD000CF910F91FF90EF90DF90CF90BF90AF908A
:102CE000089585E195E10E94CB0B87B7826087BF8D
:102CF0000895EF92FF920F931F93CF93DF930FB638
:102D0000F8940F92209118033091190340911A03FF
:102D100050911B030F900FBE8091C4029091C50289
:102D2000A091C602B091C70279018A01E81AF90A96
:102D30000A0B1B0B2093C4023093C5024093C602BA
:102D40005093C7024FC088859985AA85BB85E81630
:102D5000F9060A071B07A0F48E199F09A00BB10BF7
:102D600088879987AA87BB870097A105B10521F0BD
:102D7000EE24FF24870136C0EE24FF24870108C01B
:102D8000E81AF90A0A0B1B0B188619861A861B8685
:102D9000EC85FD85309721F06E857F85CE01099504
:102DA0008C819D81AE81BF8188879987AA87BB87E7
:102DB0000097A105B10521F4CE010E947C1512C037
:102DC000E0911603F09117030190F081E02DF0934C
:102DD0001703E0931603309711F013821282CE018D
:102DE0000E942915C0911603D0911703209731F046
:102DF000E114F1040105110509F0A5CFDF91CF9190
:102E00001F910F91FF90EF9008952F923F924F9254
:102E10005F926F927F928F929F92AF92BF92CF926A
:102E2000DF92EF92FF920F931F93CF93DF93CDB773
:102E3000DEB724970FB6F894DEBF0FBECDBF0FB636
:102E4000F8940F92A0901803B0901903C0901A0341
:102E5000D0901B030F900FBE0E94C60B9B01AC01CC
:102E6000C601B5010E94101A39014A010E94C60B21
:102E70001B012C010E94C60B69837A838B839C8380
:102E8000C401B30128EE33E040E050E00E94F119A4
:102E90007B018C01C401B301A20191010E94F119CF
:102EA000A61AB70AC80AD90AC601B50128EE33E046
:102EB00040E050E00E94F11929813A814B815C8108
:102EC0000E94101AE20EF31E041F151FC801B7015D
:102ED00024960FB6F894DEBF0FBECDBFDF91CF9121
:102EE0001F910F91FF90EF90DF90CF90BF90AF9028
:102EF0009F908F907F906F905F904F903F902F901A
:102F00000895EF92FF920F931F930FB6F8940F92CC
:102F1000E0901803F090190300911A0310911B031D
:102F20000F900FBE0E94C60B9B01AC01C801B701F8
:102F30000E94101ACA01B9011F910F91FF90EF90E2
:102F40000895CF93DF93DC010FB6F8940F92CD91E3
:102F5000DC9111970F900FBE8FEFCF3FD80709F488
:102F60003AC0209771F10FB6F8940F92EA81FB8175
:102F70001196FC93EE938C819D81892B71F0309793
:102F800029F08C819D819583848305C08FEF9FEF0D
:102F900011969C938E931D821C820F900FBE8D897B
:102FA0009E89009721F00E947C151E8A1D8A82E06E
:102FB0008F8760E173E0CE010E94911381E090E081
:102FC0000CC00FB6F8940F928FEF9FEF11969C9361
:102FD0008E930F900FBE80E090E0DF91CF91089527
:102FE0000F931F93CF93DF93EC010FB6F8940F92DA
:102FF000888199810F900FBE2FEF8F3F920741F488
:103000000FB6F8940F92198218820F900FBE02C06B
:10301000892B19F400E010E012C000E010E0CE01AE
:103020000E94A117080F191F0FB6F8940F928881FC
:1030300099810F900FBE01978E5F9F4F80F3C8015B
:10304000DF91CF911F910F9108950F931F930E94CD
:10305000F0178C010E94FD14C8011F910F91089573
:103060000F931F930E94A1178C010E94FD14C801A9
:103070001F910F910895CF93DF93AC01DB010FB641
:10308000F8940F92CD91DC9111970F900FBE8FEFB6
:10309000CF3FD80799F534C08D899E892A813B811D
:1030A0008417950741F50FB6F8940F9211963C934B
:1030B0002E938C819D81892B81F0EA81FB81309751
:1030C00029F08C819D819583848305C08FEF9FEFCC
:1030D00011969C938E931D821C820F900FBE82E0EE
:1030E0008F8760E173E0CE010E9491138FEF9FEF15
:1030F0009E8B8D8B05C0DE011296E901209761F64B
:10310000DF91CF910895AF92BF92CF92DF92EF926D
:10311000FF920F93CF93DF93EC015A016B010FB62F
:10312000F8940F92888199810F900FBE8F5F9F4F07
:1031300051F40FB6F8940F92198218820F900FBEB7
:103140000E94FD1438C060E173E0809112039091F9
:1031500013030E94DF13BE018091120390911303A9
:103160000E949113E0911203F091130383E087878B
:10317000E0901203F0901303A114B104C104D10430
:1031800061F001E09E014BE358E1C601B5010E94E8
:103190000816F701968B858B03C0F701168A158AEE
:1031A0000E94B814E0911203F09113038589968967
:1031B0008F5F9F4F19F080E090E004C0168A158A57
:1031C0008FEF9FEFDF91CF910F91FF90EF90DF9006
:1031D000CF90BF90AF900895FC010FB6F8940F9276
:1031E000808191818F5F9F4F11F4118210820F9027
:1031F0000FBECF010E94831808950F931F93CF93A2
:10320000DF938C01C091C802D091C9020AC0B801F5
:10321000CE0102960E94E019892B29F00990D881ED
:10322000C02D2097A1F7CE01DF91CF911F910F9173
:103230000895CF93DF93EC01892B11F1611571058E
:1032400011F07D876C8741114E87CE0102960E9456
:10325000FD18892BA9F4EB89FC89309721F0CE0168
:103260000995892B69F48091C8029091C9029983CC
:103270008883D093C902C093C80280E090E002C066
:103280008FEF9FEFDF91CF91089583E180931C032F
:103290008FE480931D0383E580931E0343E150E098
:1032A0006CE173E080E090E00E947A19892B19F0BC
:1032B0008FEF9FEF089580E090E0089543E150E0A4
:1032C0006CE173E080E090E00E947D19892B79F435
:1032D00080911C03833159F480911D038F3439F49C
:1032E00080911E03833519F480E090E008958FEFFC
:1032F0009FEF08950E94801908950E94A0190895D3
:10330000CF93DF93EA019C0140E050E0FB0110C045
:10331000D9010E94321A802D9081981721F0D9018D
:10332000092E0E943A1A4F5F5F4F31962F5F3F4F31
:103330004C175D0769F780E090E0DF91CF91089529
:10334000CF93DF93EA01DC01FB01219724F00E9477
:10335000321A0192FACF80E090E0DF91CF91089588
:10336000FB01DC0105900D920020E1F70895FC01BE
:1033700005900020E9F7809590958E0F9F1F089586
:10338000FC014150504030F001900616D1F73197C2
:10339000CF010895882799270895DC0101C06D9316
:1033A00041505040E0F70895FC010190061629F0C5
:1033B0000020D9F78827992708953197CF010895DC
:1033C000FB01DC018D910190801911F40020D1F7EF
:1033D000990B0895FB01DC0101900D920020E1F7AB
:1033E0000895629FD001739FF001829FE00DF11D4F
:1033F000649FE00DF11D929FF00D839FF00D749F6F
:10340000F00D659FF00D9927729FB00DE11DF91F1A
:10341000639FB00DE11DF91FBD01CF011124089577
:10342000A1E21A2EAA1BBB1BFD010DC0AA1FBB1FC8
:10343000EE1FFF1FA217B307E407F50720F0A21B3A
:10344000B30BE40BF50B661F771F881F991F1A94A7
:1034500069F760957095809590959B01AC01BD01D1
:10346000CF010895E199FECFBFBBAEBBE09A1196A4
:103470000DB20895E199FECFBFBBAEBB0DBA119658
:0C3480000FB6F894E29AE19A0FBE08958E
:10348C00722B007561727430000A456E746572207F
:10349C00796F7572206E616D653A20000A48656C13
:1034AC006C6F202573210A000A4E75742F4F532020
:1034BC00554152542053616D706C650A00280165AA
:1034CC00746865726E75740069646C65006D616911
:1034DC006E00FF010002000300000000000000006D
:1034EC00000000286E756C6C290030313233343595
:1034FC003637383961626364656600303132333493
:10350C003536373839414243444546002020202087
:10351C00202020202020202020202020303030305F
:10352C003030303030303030303030300000756179
:10353C0072743000000000050000000000CF013C58
:10354C000EBB0EC911C111B9110C107A10580E0016
:10355C00000000000000000000000000000000005F
:10356C00000000000000000000000000000000004F
:10357C00000000000000000000000000000000003F
:10358C0000000000730A600AAD09AF09720B9F09B5
:10359C00980A130AD709C508140BE208480BF3085C
:1035AC002F09FD08D80A880900000000340C00001F
:0A35BC000000A60C00000000120D34
:00000001FF
