:100000000C94EB0D0C94A60E0C94A60E0C94A60E5C
:100010000C94A60E0C94A60E0C94D0630C94A60E11
:100020000C94A60E0C94A60E0C94A60E0C94A60E80
:100030000C94A60E0C948A5E0C94A60E0C94A60E3C
:100040000C94A60E0C94A60E0C94A60E0C94A60E60
:100050000C94A60E0C94A60E0C94A60E0C94A60E50
:100060000C94A60E0C94A60E0C94A60E0C94A60E40
:100070000C94A60E0C94A60E0C94A60E0C94A60E30
:100080000C94A60E0C94A60E0C94A60E0C94A60E20
:100090000C94A60E0C94A60E0C94A60E0C94A60E10
:1000A0000C94A60E0C94A60E0C94A60E0C94A60E00
:1000B0000C94A60E0C94A60E0C94A60E0C94A60EF0
:1000C0000C94A60E0C94A60E0C94A60E20202020B4
:1000D00058202D204578697420426173654D6F6EFC
:1000E0002C20636F6E666967757265206E65747724
:1000F0006F726B20616E6420737461727420576537
:1001000062536572766572002020202045202D20E4
:1001100045746865726E657420636F6E74726F6C7F
:100120006C657220726561642F77726974650A204C
:100130002020204A202D204A756D7020746F206287
:100140006F6F746C6F616465720A202020205320E9
:100150002D205352414D20726561642F777269746E
:1001600065002020202042202D2053656E642062EF
:10017000726F61646361737473000A5072657373A4
:1001800020616E79206F662074686520666F6C6CE4
:100190006F77696E67206B6579733A00FFFFFF30F8
:1001A000FFFFFFFFFFFFFFFFFFFFFFFFFFFF50729B
:1001B00065737320616E79206B657920746F20738D
:1001C000746F700A00426164204950206164647257
:1001D000657373000A4661696C656420746F2063FF
:1001E0006F6E666967757265206E6574776F726B86
:1001F0002076696120444843503A2045746865720E
:100200006E75742073746F70706564210A07000A3C
:100210004661696C656420746F20636F6E66696700
:10022000757265206E6574776F726B20696E746588
:1002300072666163653A2045746865726E757420F4
:1002400073746F70706564210A07003C2F746162DB
:100250006C653E3C2F666F726D3E0D0A3C2F626FDF
:1002600064793E0D0A3C2F68746D6C3E003C7472DC
:100270003E3C2F74723E003C48544D4C3E3C484539
:1002800041443E3C5449544C453E53686F7720509E
:100290006F7274733C2F5449544C453E3C2F484573
:1002A00041443E3C424F44593E3C666F726D206172
:1002B0006374696F6E3D226367692D62696E2F7387
:1002C0006574706F7274732E6367692220656E6344
:1002D000747970653D22746578742F706C61696EF5
:1002E000223E203C5441424C4520424F524445520C
:1002F0003E3C74723E3C74643E4269743C2F7464AC
:100300003E3C74643E373C2F74643E3C74643E361D
:100310003C2F74643E3C74643E353C2F74643E3C18
:1003200074643E343C2F74643E3C74643E333C2F12
:1003300074643E3C74643E323C2F74643E3C74648E
:100340003E313C2F74643E3C74643E303C2F7464F8
:100350003E3C2F74723E0D0A003C2F5441424C45E6
:100360003E3C2F424F44593E3C2F48544D4C3E0D8D
:100370000A003C464F4E5420434F4C4F523D2343BE
:1003800043303030303E45535441424C3C2F464F71
:100390004E543E003C54443E25733A25753C2F5440
:1003A000443E3C54443E003C54523E3C54443E2562
:1003B0003034583C2F54443E3C54443E5443503C0B
:1003C0002F54443E3C54443E25733A25753C2F54EB
:1003D000443E003C48544D4C3E3C484541443E3C24
:1003E0005449544C453E53686F7720546872656198
:1003F00064733C2F5449544C453E3C2F484541447E
:100400003E3C424F44593E3C5441424C4520424FB1
:10041000524445523E3C54523E3C54483E48616E24
:10042000646C653C2F54483E3C54483E547970659A
:100430003C2F54483E3C54483E4C6F63616C3C2F0B
:1004400054483E3C54483E52656D6F74653C2F5491
:10045000483E3C54483E5374617475733C2F544875
:100460003E3C2F54523E0D0A003C2F5441424C4515
:100470003E3C2F424F44593E3C2F48544D4C3E0089
:100480003C54523E3C54443E253034583C2F544456
:100490003E3C54443E256C753C2F54443E3C5444F1
:1004A0003E256C753C2F54443E3C54443E2530342C
:1004B000583C2F54443E3C54443E253034583C2F45
:1004C00054443E3C2F54523E0D0A003C5441424C91
:1004D0004520424F524445523E3C54523E3C5448C3
:1004E0003E48616E646C653C2F54483E3C54483E27
:1004F000436F756E74646F776E3C2F54483E3C5466
:10050000483E5469636B2052656C6F61643C2F54A4
:10051000483E3C54483E43616C6C6261636B3C42B4
:10052000523E416464726573733C2F54483E3C54A0
:10053000483E43616C6C6261636B3C42523E417267
:1005400067756D656E743C2F54483E3C2F54523E87
:100550000D0A000D0A4350552072756E6E696E6764
:100560002061742025752E25303475204D487A3C45
:1005700062723E0D0A003C48544D4C3E3C48454199
:10058000443E3C5449544C453E4E75742F4F5320C5
:1005900054696D6572733C2F5449544C453E3C2F51
:1005A000484541443E3C424F44593E003C54523E33
:1005B0003C54443E253034583C2F54443E3C544433
:1005C0003E25733C2F54443E3C54443E25753C2FFD
:1005D00054443E3C54443E25733C2F54443E3C54CA
:1005E000443E253034583C2F54443E3C54443E2530
:1005F0003034583C2F54443E3C54443E253034580B
:100600003C2F54443E3C54443E25753C2F54443EBC
:100610003C54443E25733C2F54443E3C2F54523EA0
:100620000D0A003C2F5441424C453E3C2F424F4462
:10063000593E3C2F48544D4C3E003C5441424C45A1
:1006400020424F524445523E3C54523E3C54483E58
:1006500048616E646C653C2F54483E3C54483E4EA5
:10066000616D653C2F54483E3C54483E5072696F62
:10067000726974793C2F54483E3C54483E5374612F
:100680007475733C2F54483E3C54483E4576656E25
:10069000743C42523E51756575653C2F54483E3C52
:1006A00054483E54696D65723C2F54483E3C544852
:1006B0003E537461636B2D3C42523E706F696E74A1
:1006C00065723C2F54483E3C54483E467265653C3A
:1006D00042523E537461636B3C2F54483E3C2F544E
:1006E000523E0D0A003C48544D4C3E3C4845414466
:1006F0003E3C5449544C453E4E75742F4F53205444
:100700006872656164733C2F5449544C453E3C2FDC
:10071000484541443E3C424F44593E3C68313E4E80
:1007200075742F4F5320546872656164733C2F6851
:10073000313E0D0A0020636865636B65643D22638A
:100740006865636B656422003C74643E3C696E704E
:10075000757420747970653D22636865636B626FA0
:100760007822206E616D653D222573222076616CB2
:1007700075653D2225752220003C74723E3C7464F0
:100780003E25733C2F74643E00474946383961A8C2
:10079000003900F7FF00000000C0C0C0FEFEFEFDF3
:1007A000FDFDFCFCFCFAFAFAF9F9F9F8F8F8F7F7AC
:1007B000F7F6F6F6F5F5F5F4F4F4F3F3F3F1F1F1F9
:1007C000F0F0F0EFEFEFEEEEEEEDEDEDECECECEB4C
:1007D000EBEBEAEAEAE8E8E8E7E7E7E6E6E6E5E59C
:1007E000E5E4E4E4E3E3E3E2E2E2E1E1E1E0E0E0E6
:1007F000DEDEDEDDDDDDDCDCDCDBDBDBDADADAD93C
:10080000D9D9D8D8D8D7D7D7D6D6D6D5D5D5D3D382
:10081000D3D2D2D2D0D0D0CECECECDCDCDCCCCCCEA
:10082000CBCBCBC8C8C8C7C7C7C5C5C5C4C4C4C35C
:10083000C3C3C2C2C2C1C1C1C0C0C0BFBFBFBEBEB0
:10084000BEBDBDBDBCBCBCBABABAB9B9B9B8B8B8FE
:10085000B7B7B7B6B6B6B5B5B5B4B4B4B3B3B3B14C
:10086000B1B1B0B0B0AFAFAFAEAEAEADADADACACA0
:10087000ACABABABA9A9A9A8A8A8A6A6A6A5A5A5F7
:10088000A3A3A3A1A1A19F9F9F9E9E9E9D9D9D9C72
:100890009C9C9B9B9B9A9A9A9999999898989797C0
:1008A0009796969695959594949493939392929205
:1008B0009191919090908E8E8E8D8D8D8C8C8C8B55
:1008C0008B8B8A8A8A8989898888888787878686A0
:1008D00086858585848484838383828282818181E5
:1008E0008080807F7F7F7E7E7E7D7D7D7C7C7C7B2B
:1008F0007B7B7A7A7A78787877777776767675757B
:1009000075747474737373727272717171707070C4
:100910006E6E6E6D6D6D6B6B6B6A6A6A6969696824
:1009200068686666666464646363636161615F5F8F
:100930005F5E5E5E5C5C5C5B5B5B5A5A5A58585803
:10094000565656555555545454535353515151506E
:1009500050504F4F4F4E4E4E4C4C4C4B4B4B4A4AC7
:100960004A48484847474746464644444443434329
:100970004141414040403E3E3E3D3D3D3C3C3C3B94
:100980003B3B3A3A3A3838383737373535353232F3
:10099000323030302E2E2E2C2C2C2B2B2B2A2A2A88
:1009A00028282827272725252524242422222221F8
:1009B00021211F1F1F1D1D1D1B1B1B191919181875
:1009C00018171717161616141414121212101010E6
:1009D0000F0F0F0D0D0D0A0A0A0909090606060474
:1009E00004040303030202020000000000000000F0
:1009F00000000000000000000000000000000000F7
:100A000000000000000000000000000000000000E6
:100A100000000000000000000000000000000000D6
:100A200000000000000000000000000000000000C6
:100A300000000000000000000000000000000000B6
:100A400000000000000000000000000000000000A6
:100A50000000000000000000000000000000000096
:100A60000000000000000000000000000000000086
:100A70000000000000000000000000000000000076
:100A80000000000000000000000000000000000066
:100A900000000000000021F90401000001002C000A
:100AA000000000A80039000008FF0003081C48B03F
:100AB000A0C18308076AA93320A1C38710234A9CD9
:100AC00048B1A2C58B0E49F4F20502A3C78F20439B
:100AD0008A1C39F00F00004048AA5CC9B2A5C511B4
:100AE000C24E527149B3A6CD957C4E024073B3A756
:100AF000CF9F1073C43C6907A8D1A33E2F9CD20995
:100B0000A00FD2A7504736F050A312530083A26A19
:100B10006DD9A0A34A0544FE60C275F5A42C175BED
:100B2000074E5D4143070F1B2F4C60409036A109D3
:100B3000287E30ED52194353D9B2BCC4D0456A0067
:100B4000C30E359154D9EA258C18B161BF74D132E6
:100B500075E80C11130E046C75D0028C255D4C47A2
:100B6000262053ECAFE945148C82808208B469D307
:100B7000C548E931E20169051C67429916D900D0E0
:100B8000EBD79632DC1420A108A259BF93EB8495D1
:100B90008785819B05280001942A794803860014E3
:100BA000CBF44939D3534008B8FFD43064502DEF0B
:100BB000E84F12CBA464F04A0930D25422EB3DA492
:100BC0001500AF88CC085125FDC9443FB817520322
:100BD0003CF8B18A7F08FE5702490F00514728A50B
:100BE000F907520BC100A0840F41C8A1422F08167B
:100BF00033CA193770D080661409E0400849F4E11F
:100C00004A840926C84B18157834400640ECB16276
:100C10008B007C044127DA41C1072CBC34C26282BC
:100C2000BB7012481A4EF8F0C2091E5800C1030FDB
:100C30004060810729C4708418817032148E5C0270
:100C4000B04A15A94D44C0094D14624B97277994B9
:100C500000213ADDC20A9A7F15F30B2EB3B8920A2F
:100C60002AA8A4E2CA2CB95408E79F5EFAD1040866
:100C7000091C4440032634710727F4FDE95119800B
:100C8000462A6997C368C287185028B1C4146918E6
:100C900052DDA4695E64412EA0966AEAA938628496
:100CA0000187A8B6EAEAAB3A61FF24C01CB0D66A55
:100CB000EBA41E1D30062DB7F6EA6B822081A0C57D
:100CC0002DBF166BEC5F212D41EAB1CC1A1BD2036C
:100CD0003108E1C41883803264B3D89ECA52042F0D
:100CE000D4416CB6E0824A131EE1961B694B0FC8D3
:100CF000418CB9ECA2C9D20EBAB5DBEA242E74F14C
:100D00000930B0AA740019F2BA5A4C0E0219F00256
:100D10001B996C692A492530D2AFAB7690A856A2B0
:100D200086CCB2AEB8213150856B0B9F2AC9030E19
:100D30003DF042148178C22BA021E54049C6A81697
:100D4000934703139D28031361D031C825B0F88958
:100D5000E04729183231CAA6FAC2450B1B2C70D1C4
:100D6000000840A0810A3510E104166198F1861C44
:100D700071C801071A64709169103460E4C11D06DE
:100D8000834A8C2EB0A0224A279548D2C8228CA430
:100D9000AD76249360D20929A8C0824BD7AFE66212
:100DA000091D4BB400415D066DFF60462C7FCA698A
:100DB0004B2A90F491861548E0D0C2081D583001A6
:100DC000040E30A0400208546E39020A28D0C00335
:100DD000114C60C1062254F98312549061471F7D63
:100DE000F0B1C752A7F2928A2054E8ED305415D4DE
:100DF00090072F5CF6520A2483C001850E2858F014
:100E0000DC511C38026B2C813CF182784649C0834E
:100E10001DA65CEB5D31B6382206102658A000DF17
:100E20000B8821FDA9C10012414F16B8408521E76A
:100E300025C84A2256BCF0C0EC7C0FD4832BB636B2
:100E400032414B02748003168344DFA22769C841F4
:100E500007E20711100CC2569508934866B0053F8B
:100E60008442173B430F316671093B402105DB2368
:100E7000A0440620041EC1AA121A18491D12F48BA0
:100E8000510CA20B3BF800FC34D832370C0356A2AD
:100E9000B8006FBCE00ABA694718BB68C5242C5873
:100EA000030F4460852CBCC80BF14EF6AA431440D6
:100EB0002A2E484215C040862E508109407881076D
:100EC0003218449618C0089B78951A8058C52E1A77
:100ED000A401369843277E811E61104E107100C315
:100EE00014A4C08536108213BB284B31AEE0C53A3E
:100EF00042C4001CF0C11702918953ACE215B0B096
:100F0000D3281EB106204C91002B1480012EC00462
:100F10000F32050A768C24440800010C74A0031BD0
:100F2000A800032AF2802CF88229C1D881244759CD
:100F30001319004E27ACB0002957C99214B0EE2403
:100F40008C181F2B6729121090822986601E2D771E
:100F500089910E6482296768082F875911092842F0
:100F600027C460023197399104D84127B85810330B
:100F7000A7E990015C6128A7E00035B789901E7C45
:100F8000AB127BE3A6380772822C02A011E11CA7EA
:100F90003823800540BC41960F0908003BE08220C1
:100FA0001881085508431F1C31FF8952A8E292C0DE
:100FB000F8C52E1A063BAC28081BACA0430F2E2008
:100FC000AF8FC0248905B9D18D0472B05FED4404A0
:100FD0006C0806EA94354766A1031CC918C522F2BD
:100FE000208624D0A0030F58C0DC7A4200033C3393
:100FF000011C30C5513088B9AC7D491DCE18451D46
:101000006204948A5649201A980225A8718EB5A9BF
:10101000A31BBAA8C41CA4C08208FC665E38A2A6A2
:1010200054A78AB0D3848B029130074D67C7AC7345
:10103000A0831A88C8804F20B3269850600767C8DD
:101040008433F6E6A5AB304B1DD0584520A68082F0
:10105000051072281B321455F7CAD75F09240BD329
:1010600010624183B40E5EDC60290D208112EC1009
:101070008A66980D8E1CED062DF870040D6488A20A
:10108000BEEA2BC23C23B4CE76B65E0F5DD41D877C
:10109000321E1468E275BB4B473586C0131238E127
:1010A0000D93E005385285155BFF75541DE2F8C5B8
:1010B00023C09082811DD100861A8B67876B55886B
:1010C000FE44402DA5C900B0A08C39EE0E45AB857D
:1010D00092943A228C666D755DE178862B06C18507
:1010E0001734605E6A3A64731072121D852085BEE3
:1010F000949D6A59FB979494E182AA241D56BADA0A
:101100008D5E78E20F5DC841052EDBAB995475BC4E
:101110001B598C669A808BA55D57742892060AD05D
:1011200033DD8D6C40097490442926898A535CE232
:10113000107600430F3AC0801A0D8DB30D0630466D
:1011400064D29608740117376BE12C30C0BA94CC86
:101150000D514F8D5678432CE20047C400137100A7
:101160001444A18D99EA528B6F05136EEB838A5458
:10117000A0E216D628875BB7AA0E509864A51A5924
:10118000CE70A3F21FE3D6B827079BC800448005A2
:1011900044AC82197DBAAE3ABA090C4694E1082DE6
:1011A000A04002A692800BD0E0DF0A883025931C75
:1011B000C12197D08BC657EEE91D07628009AC802C
:1011C0000644A08218C0100628E8C004DF35A478C1
:1011D000AD7986C0A62D1D77906E9E27CD43011553
:1011E0002C21A102566356008BED98432B65A5B4C4
:1011F000A8592534CE4A8BB8514518C20220814BDC
:10120000D0661DE2500294464D6BAF0C40010D18A4
:101210004C00149089ED3CE303BDAAB5B09B82015C
:1012200011CC053887D8920B3FB1002B0FFBD9FCAE
:101230003B7600E070B3AB30A2CAD0CE764FE63238
:10124000912E1CAB5976809232B54DEE8E84A52D31
:101250004F90C6396CF605888CBBDCF0A6221E6563
:10126000900B177EA3080140009EE3CD6F84E01130
:10127000039658B7367EC09A7E1B7CC43786D21937
:101280006A310C3FD4AF220101003B656E6C6F6781
:101290006F2E676966004749463839614700390053
:1012A000F7FF00000000C0C0C0FEFEFEFDFDFDFC1B
:1012B000FCFCFAFAFAF9F9F9F8F8F8F7F7F7F6F6A4
:1012C000F6F5F5F5F4F4F4F3F3F3F1F1F1F0F0F0F1
:1012D000EFEFEFEEEEEEEDEDEDECECECEAEAEAE846
:1012E000E8E8E7E7E7E6E6E6E5E5E5E4E4E4E3E3A6
:1012F000E3E2E2E2E1E1E1E0E0E0DEDEDEDDDDDDF1
:10130000DCDCDCDBDBDBD9D9D9D8D8D8D7D7D7D54B
:10131000D5D5D3D3D3D2D2D2CDCDCDCACACAC6C6E3
:10132000C6C5C5C5C2C2C2BEBEBEBDBDBDBCBCBCBD
:10133000BABABAB9B9B9B8B8B8B5B5B5B4B4B4B23F
:10134000B2B2B1B1B1B0B0B0AEAEAEACACACABABB2
:10135000ABA9A9A9A7A7A7A5A5A5A4A4A4A2A2A231
:10136000A1A1A1A0A0A09F9F9F9C9C9C9B9B9B999F
:1013700099999494949393939292928C8C8C8B8B56
:101380008B88888887878785858584848482828204
:101390008181818080807F7F7F7D7D7D7C7C7C7B67
:1013A0007B7B7979797777777474747373737272DE
:1013B000727171716F6F6F6E6E6E6D6D6D6C6C6C46
:1013C0006B6B6B6A6A6A69696964646463636360AE
:1013D00060605F5F5F5E5E5E5C5C5C5B5B5B5A5A3D
:1013E0005A5656565555555454545151514F4F4FC6
:1013F0004E4E4E4C4C4C4B4B4B484848474747464B
:1014000046464444444343434141414040403D3DBE
:101410003D3737373535353232323030302B2B2BA4
:101420002828282525252424242222221E1E1E1D8C
:101430001D1D19191918181814141412121210104D
:10144000100F0F0F0D0D0D090909060606040404FF
:10145000030303020202000000000000000000007D
:10146000000000000000000000000000000000007C
:10147000000000000000000000000000000000006C
:10148000000000000000000000000000000000005C
:10149000000000000000000000000000000000004C
:1014A000000000000000000000000000000000003C
:1014B000000000000000000000000000000000002C
:1014C000000000000000000000000000000000001C
:1014D000000000000000000000000000000000000C
:1014E00000000000000000000000000000000000FC
:1014F00000000000000000000000000000000000EC
:1015000000000000000000000000000000000000DB
:1015100000000000000000000000000000000000CB
:1015200000000000000000000000000000000000BB
:1015300000000000000000000000000000000000AB
:10154000000000000000000000000000000000009B
:10155000000000000000000000000000000000008B
:10156000000000000000000000000000000000007B
:10157000000000000000000000000000000000006B
:10158000000000000000000000000000000000005B
:10159000000000000000000000000000000000004B
:1015A00000000021F90401000001002C00000000EF
:1015B000470039000008FF0003081C48B0A0C183A1
:1015C000050D2460D0A041020308234A9C48D1E0C5
:1015D000820E2864004962054C9A356FE0BC59833D
:1015E000C6CB93202F4620A8C8B26580010F38B023
:1015F0001852A5CD9F438D00E8DCC9B327A4447DD4
:10160000B4E4F070C0A551811040B438F2C50EA208
:101610009E50A34A05A0E80C8E0D472522D000035A
:10162000CA9B3E83204D1D4B96A7A034310A6415FA
:1016300058C0838B267116959D4B97279A14461B8D
:10164000A850E20650DDBF801D6DF950910718408B
:101650008F002B565C68875A898B23472E4302B232
:10166000E4CB7F0BD98888B9735D22083D8B260BAC
:10167000A9880083A3534FDDD2A0A0EAD750C52C80
:101680002008BBF6CE2BA705DAB60DC9C7C0DDB65C
:101690001BD1D00DBCF6A112018ADBAE3341F9DFBC
:1016A000447FF2B821B3850A94254CA454D93266FC
:1016B000CD1C3E429C97C6958304C6090F11204657
:1016C0001CA0A00206F1511FE96172626556F83C48
:1016D000076969317B2D71F18A9871C305FEB9A63E
:1016E0001C1F5CFC20428107016748183358C0204A
:1016F00067B0F9D1850D13E4366168A9E101C50B26
:10170000186C58516787E011C50D26B426224B91FD
:101710002D4207163C9840C08A47D5F508216C3801
:101720005143080ED0E8DF5885ECA1C6143DA8202F
:1017300081863EFA07092381DC7146164F18A1C342
:101740000A23508064921396900104091470259620
:10175000608629E698649669E69968A6A9E69A6C77
:10176000B6E9E69B70C629E79C74D669E79D78E6E2
:10177000A9E79E7CF6E9E79F80065A5140003BF5B9
:1017800061216E30B1C20381DA79677986CAF79830
:101790004E84A07184095766578001438144A8593B
:1017A00079CAC7C821735CA103080A045A2748F8FC
:1017B000817AD2743399AF38C81A489CC068A39C08
:1017C000125594AB9122471520694451C307990AD9
:1017D000E8695A90F2FA6A8F545525C81B5A08F1E5
:1017E0000207A99689269ECA2A4B59206F6C31841C
:1017F0000C1ECC69D8AA44259B2DA8559578C820E5
:101800007AA4E1851340CCD0410367397A2797E762
:10181000E61B00113FE41043091B44C0009E59DA47
:10182000CBAABE08938494A0672AB925BE0923AC2D
:10183000649249991BF1C51867ACF1C61C77ECF1AD
:10184000C720872CF2C824976CF2C928A7ACF2CA2B
:101850002CB7ECF2CB30C72CF3CC34D76CF3CD38AB
:10186000E7ACF3490101003B656E7461696C2E675A
:101870006966003C68746D6C3E0D0A3C6865616485
:101880003E0D0A3C7469746C653E45746865726E01
:10189000757420426173654D6F6E3C2F7469746C72
:1018A000653E0D0A3C2F686561643E0D0A3C626F1F
:1018B00064793E0D0A0D0A3C63656E7465723E0DD7
:1018C0000A3C696D67207372633D22656E6C6F67B9
:1018D0006F2E676966223E3C696D67207372633DB7
:1018E00022656E7461696C2E676966223E3C703EAB
:1018F0000D0A3C68313E45746865726E757420420D
:101900006173654D6F6E2048545450205365727654
:1019100065723C2F68313E0D0A0D0A3C61206872E9
:1019200065663D226367692D62696E2F7468726512
:101930006164732E636769223E4C69737420746816
:1019400072656164733C2F613E3C703E0D0A3C61E0
:1019500020687265663D226367692D62696E2F7427
:10196000696D65722E636769223E4C6973742074D9
:10197000696D6572733C2F613E3C703E0D0A3C619F
:1019800020687265663D226367692D62696E2F73F8
:101990006F636B6574732E636769223E4C69737461
:1019A00020736F636B6574733C2F613E3C703E0D1A
:1019B0000A3C6120687265663D226367692D626931
:1019C0006E2F706F7274732E636769223E492F4FBA
:1019D00020706F7274733C2F613E3C703E0D0A3C68
:1019E0002F63656E7465723E0D0A0D0A3C2F626F9F
:1019F00064793E0D0A696E6465782E68746D6C00BA
:101A00005757572D41757468656E746963617465C5
:101A10003A204261736963207265616C6D3D2225D5
:101A200073220D0A003C48544D4C3E3C484541440D
:101A30003E3C5449544C453E25642025733C2F546C
:101A400049544C453E3C2F484541443E3C424F445E
:101A5000593E25642025733C2F424F44593E3C2F6C
:101A600048544D4C3E00436F6E6E656374696F6EF3
:101A70003A20636C6F73650D0A0D0A00436F6E7434
:101A8000656E742D4C656E6774683A20256C640D24
:101A90000A00436F6E74656E742D547970653A2038
:101AA00025730D0A00485454502F25642E256420B8
:101AB00025642025730D0A5365727665723A2045B8
:101AC000746865726E75742025730D0A00FFFFFF40
:101AD000FFFFFFFFFFFFFFFF3EFFFFFF3F343536F5
:101AE0003738393A3B3C3DFFFFFFFFFFFFFF000166
:101AF00002030405060708090A0B0C0D0E0F10114E
:101B00001213141516171819FFFFFFFFFFFF1A1BFA
:101B10001C1D1E1F202122232425262728292A2B8D
:101B20002C2D2E2F30313233FFFFFFFFFF0000003E
:101B300000000000000000000000000000000000A5
:101B40000000000000000000000000000000000095
:101B50000000000000000000000000000000000085
:101B60000000000000000000000000000000000075
:101B70000000000000000000000000000000000065
:101B80000000000000000000000000000000000055
:101B90000000000000000000000000000000000045
:101BA0000000000000000000000000000000000035
:101BB0000000000000000000000000000000000025
:101BC0000000000000000000000000000000000015
:101BD00000000000000011241FBECFEFD1E2DEBFE5
:101BE000CDBF1BE0A0E0B2E0E2EDF4EF00E00BBF00
:101BF00002C007900D92AE39B107D9F71DE0AEE9EA
:101C0000BBE001C01D92AB33B107E1F78EB7817223
:101C10008EBF6FEF70E26B537D408BE39DE00E94BF
:101C2000DD5640E060E070E08FE79AE00E94885C5B
:101C30000E94B21B9093CD0C8093CC0C4091460B2C
:101C40005091470B62E374E084E394E00E9480715A
:101C50000E94CD5C892B31F06AE374E087E29DE05D
:101C60000E94697983E494E00E94B22A9091FA0C70
:101C70003091FB0C2091FC0C892F832382238F3F12
:101C800019F0932B922B49F4AAEFBCE0E2E5F4E0C3
:101C900086E001900D928150E1F760910C0D7091FA
:101CA0000D0D80910E0D90910F0D0E948028BC01AA
:101CB0008AE49CE00E9469796091040D7091050DA1
:101CC0008091060D9091070D0E948028BC018BE841
:101CD0009CE00E9469796091080D7091090D8091D6
:101CE0000A0D90910B0D0E948028BC018BE69CE0B0
:101CF0000E946979ABEABCE0EAEFFCE086E0019083
:101D00000D928150E1F70E948C0F60919E0B7091B3
:101D10009F0B6115710571F080E092E20E94DD5623
:101D200020E831E040E050E06EE672E188E494E0C3
:101D30000E94385D80E80E94E65764EF71E080E021
:101D400090E00E948859F9CF0C9400000C94000098
:101D5000CF92DF92EF92FF920F931F93CF93DF9377
:101D600001E0DD24C0E0D0E0102F10951F7E802F11
:101D7000806184B915B964E670E080E090E00E946B
:101D8000152183B1811711F01827D12A000F219650
:101D9000C830D10549F714B8DD2019F401E0CC248E
:101DA00013C08D2D99279F938F9380E092E09F938E
:101DB0008F930E94957201E0CC240F900F900F90AA
:101DC0000F9002C005FD24C0102F10950AB91BB951
:101DD00068EE73E080E090E00E94152189B1806296
:101DE0008117B1F099279F938F93812F99279F9304
:101DF0008F9384E192E09F938F930E949572C02A03
:101E00008DB79EB706960FB6F8949EBF0FBE8DBFD6
:101E1000000FC1F61AB8CC2019F404E0EE2417C064
:101E20008C2D99279F938F9380E292E09F938F93BD
:101E30000E94957204E0EE240F900F900F900F9087
:101E400006C080E090E05FC0003209F45AC0102F55
:101E500010950DB91EB968EE73E080E090E00E9425
:101E600015218CB183628113E02A000F69F71DB838
:101E7000EE2029F401E0FF24C0E0D0E012C08E2D56
:101E800099279F938F9384E392E09F938F930E946F
:101E9000957201E0FF24C0E0D0E00F900F900F900A
:101EA0000F90102F109500BB11BB68EE73E080E01F
:101EB00090E00E9415218FB1806F8113F02A000FEE
:101EC0002196C430D10569F710BAFF2071F08F2D2B
:101ED00099279F938F9388E492E09F938F930E941A
:101EE00095720F900F900F900F90DD2039F4CC2059
:101EF00029F4EE2019F4FF2009F4A3CF8FEF9FEF10
:101F000002C000E4A4CFDF91CF911F910F91FF9009
:101F1000EF90DF90CF9008956F927F928F929F9273
:101F2000AF92BF92CF92DF92EF92FF920F931F93E7
:101F3000CF93DF93CDB7DEB760970FB6F894DEBFCF
:101F40000FBECDBF0E94EE5C9F938F9380915E0485
:101F500090915F049F938F938CE592E09F938F9372
:101F60000E94957284E792E09F938F930E949572EE
:101F700081E892E09F938F930E94957288E892E0A7
:101F80009F938F930E9495728EE892E00E94BC729C
:101F90008091CC0C9091CD0C2DB73EB7245F3F4F74
:101FA0000FB6F8943EBF0FBE2DBF97FD0DC09F9397
:101FB0008F9389E992E09F938F930E9495720F907F
:101FC0000F900F900F9004C08FEA92E00E94BC72B5
:101FD00086EC92E09F938F930E9495720E94031467
:101FE00090939F0B80939E0B9F938F938CED92E029
:101FF0009F938F930E94957286EE92E09F938F93AA
:102000000E94957280919E0B90919F0B9093A20BD2
:102010008093A10B81EA9BE00E948813282F809374
:10202000A00B4DB75EB7485F5F4F0FB6F8945EBF29
:102030000FBE4DBF8823C9F08091A10B9091A20BD8
:102040009F938F93822F99279F938F938CEF92E08A
:102050009F938F930E9495728DB79EB706960FB689
:10206000F8949EBF0FBE8DBF04C084E193E00E9430
:10207000BC7289E193E09F938F930E9495720E94B6
:102080009A146093A30B7093A40B8093A50B909369
:10209000A60B9F938F937F936F938FE293E09F9311
:1020A0008F930E9495728AE393E09F938F930E948F
:1020B00095720E94BA18EDB7FEB73A960FB6F8942B
:1020C000FEBF0FBEEDBF892B79F00E94DB14892B78
:1020D00029F010926A0C80E593E00BC081E08093B8
:1020E0006A0C86E593E005C082E080936A0C80E686
:1020F00093E00E94BC7280916A0C882389F08AE682
:1021000093E09F938F930E9495720F900F90809110
:102110006A0C813019F40E94EF1402C00E94B81AB0
:1021200080E893E09F938F930E9495720E94A80E7F
:102130000F900F90892B21F486E993E00E94BC72E6
:102140008091CC0C9091CD0C97FDB3C10E94A71B40
:102150008823E1F78AE791E00E94307380919E0B1B
:1021600090919F0B892B21F082E691E00E943073C1
:1021700088E091E00E94307380919E0B90919F0BBC
:102180008050904240F080916A0C882321F08CECC2
:1021900090E00E9430730E94A71B8823E1F38032F5
:1021A000D1F320919E0B30919F0B40E220303407F9
:1021B00028F08837A1F1883519F431C0232B71F04C
:1021C000823611F0823451F480916A0C813019F416
:1021D0000E944E15BBCF0E94A619B8CF853611F0CC
:1021E000853451F480916A0C813019F40E94EA1709
:1021F000ADCF0E94CC18AACF8A3611F08A3439F4B8
:1022000089E993E00E94BC720C9400F89FCF833759
:1022100019F0833509F09ACF0E942F1397CF809140
:10222000B00C99279F938F938091AF0C99279F9320
:102230008F938091AE0C99279F938F938091AD0CD3
:1022400099279F938F938091AC0C99279F938F939D
:102250008091AB0C99279F938F9384EA93E09F938F
:102260008F930E9495725EECE52E5CE0F52E60E2A5
:1022700070E0C7010E944C1CF70101900020E9F7B3
:102280003197EE19FF098DB79EB70E960FB6F894E9
:102290009EBF0FBE8DBF309709F454C09F0140E030
:1022A00050E0F70111C0908190334CF0892F8A5390
:1022B000873028F08D508A3110F0973614F02DE0D9
:1022C00030E04F5F5F4F31964217530764F32D3074
:1022D00031057CF520FD2DC049019594879431EBA3
:1022E000C32E3CE0D32EC818D908AA24BB242EEC58
:1022F000E22E2CE0F22E19C0F70180810E942521E8
:102300008C01F70181810E94252194E0000F111FAB
:102310009A95E1F7800FF60181936F010894A11C53
:10232000B11C22E030E0E20EF31EA814B90424F33D
:1023300009C08EEC93E09F938F930E9495720F904B
:102340000F906DCF87E29DE09F938F938EED93E08A
:102350009F938F930E9495726FE070E0CE0101967B
:102360000E944C1C6AE47CE08FEE93E00E948A1C81
:102370008AE49CE00E942A280F900F900F900F9003
:102380006115710581059105D1F16BE87CE08AEF5B
:1023900093E00E948A1C6BE67CE083E094E00E945C
:1023A0008A1C8BE69CE00E942A2861157105810534
:1023B0009105E1F18AE49CE00E942A285B016C010E
:1023C0008BE89CE00E942A283B014C018BE69CE0B4
:1023D0000E942A287B018C018BE89CE00E942A281D
:1023E000A620B720C820D920E622F72208231923E7
:1023F000AE14BF04C006D10609F0A8CE17C081E113
:1024000094E09F938F930E94957260E270E08EEC4F
:102410009CE00E944C1C0F900F908091CE0C882362
:1024200029F0893519F0893709F090CE80E394E0DE
:102430000E94BC728AE49CE00E942A2860930C0DE2
:1024400070930D0D80930E0D90930F0D8BE89CE013
:102450000E942A286093040D7093050D8093060D49
:102460009093070D8BE69CE00E942A286093080D4C
:102470007093090D80930A0D90930B0DAAEFBCE0A9
:10248000EBEAFCE086E001900D928150E1F70E94BA
:102490009F2A8981882359F04FE050E0BE016F5F89
:1024A0007F4F87E29DE00E9494791092360D0E9442
:1024B000B45C60960FB6F894DEBF0FBECDBFDF915F
:1024C000CF911F910F91FF90EF90DF90CF90BF9031
:1024D000AF909F908F907F906F9008950E94DE59EB
:1024E00020E033E040E050E065EC7CE18DE494E0F6
:1024F0000E94385D8EEF0E94E6570E946A58FDCF19
:10250000E4E7F0E080818F778083A09A989AA19A7F
:10251000999AA29A9A9A12B88FEF81B9A298A29A20
:1025200018B887B9089582B98FEF81B9A298089534
:10253000292F332728B982B9A29868B9A098A09802
:10254000A29A0895292F332728B988B9A298A1986B
:1025500088B1A19AA29A992708950F931F93CF93B8
:10256000DF930E9480129898909903C083E090E0D6
:1025700006C0989A9998909909C084E090E0909349
:10258000A80B8093A70B8FEF9FEF64C0999A9A983E
:10259000909903C085E090E0F2CF11B88FEF82B937
:1025A00060E170E080E090E00E94152180B18F3FF3
:1025B00039F080B180958093A90B86E090E0DFCF61
:1025C00001E0C0E0D0E0102F109512B901B960E130
:1025D00070E080E090E00E94152180B18117D1F475
:1025E000000F2196C830D10571F712B88FEF81B96D
:1025F00017B888B960E170E080E090E00E94152192
:1026000086B18F3F69F086B180958093A90B87E0F2
:1026100090E0B5CF88E090E0B2CF89E090E0AFCF16
:1026200001E0C0E0D0E0102F109518B907B960E1C3
:1026300070E080E090E00E94152186B1811769F773
:10264000000F2196C830D10571F718B88FEF87B900
:1026500080E090E0DF91CF911F910F910895CF938B
:10266000DF9380E694E00E94BC728EEA91E09F9333
:102670008F930E941073CFEFDFEF0F900F9021E048
:1026800030E040E050E082E22030380718F4F901F1
:10269000F26201C0F901832F9927822B8083220FD8
:1026A000331F4F5F5F4F4031510569F741E050E004
:1026B00060E070E082E24030580718F4FA01F262FC
:1026C00001C0FA012081852F9927842B2813EF015F
:1026D000440F551F6F5F7F4F6031710559F768E8F0
:1026E00073E180E090E00E9415210E94A71B8823DF
:1026F00031F2DF93CF938CE794E09F938F930E9406
:1027000095720F900F900F900F90DF91CF910895D9
:102710001F93CF93DF93DC012D913C9111972050B3
:102720003E4D81E0809301FFE0E0F2E203C0808350
:10273000E050FF4FE217F307D0F3109200FFE0E004
:10274000F2E203C01082E050FF4FE217F307D0F32C
:1027500081E0809301FFC0E0D2E205C08881813032
:1027600031F0C050DF4FC217D307C0F342C02097EB
:1027700009F43FC02C1B3D0B2D933C9311E0E12F3E
:10278000FF27E050F1401083E050FF4F40E050E45D
:10279000BF01CE010E942F79FE0104C08081811704
:1027A00029F5319680E4E030F807C0F3E0E0F2E28A
:1027B00005C080818823D1F4E050FF4FEC17FD075E
:1027C000C0F390E010C0E92FFF27E050F140908364
:1027D000FE0104C08081891749F4319680E4E0301D
:1027E000F807C0F39F5F911771F706C0812F9927F3
:1027F00006C080E090E003C01F5FC1F3C0CFDF914F
:10280000CF911F910895EF92FF920F931F93CF9353
:10281000DF93CDB7DEB724970FB6F894DEBF0FBEB7
:10282000CDBF19828FEF8A8385E58B838AEA8C83FB
:1028300080E88093740000E012E29FEFE92EF92E09
:1028400089819A81AB81BC81F80180839183A283C5
:10285000B38344E050E0BE016F5F7F4FC8010E9428
:102860001979892B29F078010894E108F10806C04C
:10287000F2E200301F0711F400E010E200501C4F9C
:10288000E016F106E8F600E012E209C040E051E08F
:102890006FEF70E0C8010E942F7900501F4FE016C3
:1028A000F106A0F7E0E0F2E221E031C080818F3F45
:1028B00059F0808180958093A90BF093AB0BE09346
:1028C000AA0B81E090E01DC0208391E080818917F0
:1028D00029F4990F9083992319F0F8CF992321F4C3
:1028E0008081882399F004C080819095892301C05C
:1028F00080818093A90BF093AB0BE093AA0B82E04D
:1029000090E09093A80B8093A70B04C03196EE162D
:10291000FF0660F6C7018F5F914224960FB6F894C8
:10292000DEBF0FBECDBFDF91CF911F910F91FF9002
:10293000EF9008952C98249A209B289A219A229A05
:102940002B9A81E08DBD8CE58CBD8DB58DBD8EB58E
:102950002C9A87E58EBD0DB407FEFDCF8EB51EBC4B
:102960000DB407FEFDCF8EB52C98992787FD05C0C5
:1029700060E070E020E030E016C0869586958F70AC
:10298000833019F460E072E00CC0853019F460E027
:1029900074E007C0873019F460E078E002C060E0BE
:1029A00070E028E031E01CBC882799274427552790
:1029B0000E94B679089580910083807C19F081E2AD
:1029C0008093008380910A8390910B838055904778
:1029D00019F08FEF9FEF089580E090E008951F9326
:1029E00010E006C086E994E00E94BC7253C011E07A
:1029F0006C9A749A60ED77E080E090E00E94152177
:102A0000749860E27EE480E090E00E94152111233A
:102A100021F48091078387FD1FC080911F838093DD
:102A20001F8360E47DE083E090E00E94152120E0B8
:102A300030E08091078387FD0FC02F5F3F4F2F3F0E
:102A40003105B9F78EE894E00E94BC728091CC0CFD
:102A50009091CD0C97FDCCCF80910A8390910B8300
:102A600020E78035920709F4BDCF9F938F9389E9C2
:102A700094E09F938F930E9495720F900F900F9008
:102A80000F90112309F4B3CF8091CC0C9091CD0C11
:102A900097FDADCF80E090E01F910895AF92BF9277
:102AA000CF92DF92EF92FF920F931F93CF93DF931A
:102AB000CDB7DEB726970FB6F894DEBF0FBECDBFF9
:102AC000DE011196E0E9F5E086E001900D9281507B
:102AD000E1F78FEB94E09F938F930E949572109291
:102AE0000F838FEF8093078382E28093008300E05F
:102AF0000F900F9082ED94E09F938F930E949572B8
:102B000010911F8364EF71E080E090E00E94152136
:102B100010931F8390E00F900F908091078387FFA1
:102B200031C080910A83803569F580910B838037AD
:102B300049F586E994E00E94BC728EED94E09F9383
:102B40008F930E94957260E47DE083E090E00E94A4
:102B50001521F89480EC88B987B981EE80930083C1
:102B600080E480930183809174008F778093740058
:102B70000F900F90359903C021E030E02FC021E085
:102B800030E026C09F5F943141F68EE894E00E94C9
:102B9000BC720A30A9F48CEE94E00E94BC726C9A6C
:102BA000749A60EA76E881E090E00E9415217498BA
:102BB00060E970ED83E090E00E9415210BE09ACF70
:102BC0000F5F043108F496CFF4C12F5F3F4F41F0FF
:102BD0003599FBCF05C02F5F3F4F11F0359BFBCFE1
:102BE0008091740080688093740018B817B8809141
:102BF00000838132E1F77894232B09F450C085EFEC
:102C000094E09F938F930E94957280EC88B987B966
:102C100081EE8093008380E480930183809174002F
:102C20008F7780937400EDE9F1E00F900F90BFC1B2
:102C3000359BFECF3599FECF8F5F8B30C8F3319730
:102C40002491319690E8359BFECF822F892309F09D
:102C5000469A3599FECF46989695A9F7249190E823
:102C6000359BFECF822F892309F0469A3599FECFF6
:102C700046989695A9F7359BFECF3599FECF9F5F75
:102C80009530C8F3329621E0EF3AF20709F08FC190
:102C90008091740080688093740018B817B881EE32
:102CA0008093008380EC809301831092068310E26E
:102CB000109305831092018360E573EC80E090E04F
:102CC0000E94152181E28093008388E480930E8323
:102CD00010920A8310920B8310930C8382E08093EE
:102CE0000D8380E4809304838FE5809303838CE4D9
:102CF0008093018380E6809302838FEF8093078324
:102D000081E68093008320E030E0A1E0B3E8FE019B
:102D1000319681918D932F5F3F4F26303105C9F752
:102D2000E8E0F3E8119233E8E031F307D9F78CE4F7
:102D30008093078381E28093008384E080930C83F7
:102D40008FEF8093078310920F8382E2809300833A
:102D500010920D8360E472E48FE090E00E941521F0
:102D600089E095E00E94BC7282EE8093008380919E
:102D70000383082F1127C801807C9070009721F0F1
:102D8000803C910579F521C08EE095E09F938F936B
:102D90000E9495720F900F9003FF08C089E195E0A3
:102DA0009F938F930E9495720F900F9005FF08C01C
:102DB00087E295E09F938F930E9495720F900F90FA
:102DC00004FF18C08CE295E00FC081E395E09F936B
:102DD0008F930E9495720F900F9003FF0BC089E1B3
:102DE00095E002C08AE395E09F938F930E949572CD
:102DF0000F900F9002FF08C088E495E09F938F9397
:102E00000E9495720F900F9003701070012B41F08B
:102E10008EE495E09F938F930E9495720F900F9090
:102E20008091048382958F709927877090709F930B
:102E30008F9387E595E09F938F930E949572809181
:102E400005830F900F900F900F909927807C9070C2
:102E50008034910581F0813491051CF4892B41F077
:102E600018C08038910551F0803C910591F409C05B
:102E70008EE595E008C084E695E005C08DE695E016
:102E800002C086E795E09F938F930E9495720F9002
:102E90000F908AE090E00E94B57282E280930083F6
:102EA000EE24FF24870160E271EA87E090E00E944F
:102EB0001521570168010894A11CB11CC11CD11C2B
:102EC0001F930F93FF92EF928FE795E09F938F935D
:102ED0000E9495728CED80930A8385E080930B832A
:102EE0001092088380E48093098382E180930083B9
:102EF0008FEF80931083809310838093108380934F
:102F00001083809310838093108389818093108332
:102F10008A81809310838B81809310838C8180932E
:102F200010838D81809310838E818093108388E03D
:102F3000809310831092108380E090E02DB73EB70D
:102F40002A5F3F4F0FB6F8943EBF0FBE2DBF1092C1
:102F50001083019635E08C3D9307C9F782E2809398
:102F6000008320E030E08091078386FD05C02F5F5D
:102F70003F4F25313105B9F790E4909307838CEDED
:102F80008093058385E0809306839093048386E293
:102F9000809300830E94A71B882359F460E177E2A5
:102FA00080E090E00E941521860175017CCF80E0D1
:102FB0003FCE26960FB6F894DEBF0FBECDBFDF9191
:102FC000CF911F910F91FF90EF90DF90CF90BF9026
:102FD000AF9008958EEA91E09F938F930E941073B3
:102FE0000F900F9081E28093008380910A839091EB
:102FF0000B839F938F9384E895E09F938F930E9418
:1030000095720E94A71B0F900F900F900F9088232E
:1030100049F38FE895E00E94BC720895E82F83E0A1
:1030200080930EC0809108C08A7F982F986020E01E
:10303000782F7960582F5D60709308C0509308C056
:103040002F5F2132C9F7909308C0492F4460409305
:1030500008C0709308C0509308C0662349F090934D
:1030600008C0409308C0709308C0509308C008C0BF
:10307000709308C0509308C0909308C0409308C054
:1030800080E0909308C0409308C08F5F8530C9F7F7
:1030900060E120E030E08E2F862329F0709308C095
:1030A000509308C004C0909308C0409308C0669530
:1030B0002F5F3F4F2530310571F7909308C0892F5E
:1030C0009927089560E00E940E18482F477F40938B
:1030D00008C0642F6460609308C020E030E050E0D6
:1030E000409308C0609308C0220F331F809108C02E
:1030F00099279695879581709070282B392B5F5F63
:10310000503171F7409308C0C9010895CF93DF9300
:10311000EB0161E00E940E18282FF82FF160F09368
:1031200008C0E82FE560E09308C0809308C0382FFE
:103130003460309308C060E070E840E050E0CE01B9
:1031400086239723892B29F0F09308C0E09308C0C9
:1031500004C0209308C0309308C0769567954F5FF0
:103160005F4F4031510559F7277F209308C0DF9109
:10317000CF91089580910FC0833359F483E08093F9
:103180000EC080910AC0807F803919F480E090E001
:1031900008958FEF9FEF08958EEA91E09F938F93AC
:1031A0000E9410730F900F9083E080930EC0809167
:1031B0000AC099279F938F9386E995E09F938F93F9
:1031C0000E9495720E94A71B0F900F900F900F9076
:1031D000882351F38AEA95E00E94BC720895CF9348
:1031E000DF93EC010AC0809100C080FF0CC060ED4D
:1031F00077E080E090E00E94152121978FEFCF3F8C
:10320000D80789F705C0CD2B19F48FEF9FEF02C0C7
:1032100080E090E0DF91CF9108951F9310920DC050
:1032200010920EC0109204C080E8809305C011E097
:1032300010930EC0109200C0809301C060E27EE443
:1032400080E090E00E94152110920EC0109204C000
:10325000109205C0109200C0109201C010930EC0D1
:1032600010920CC088E080930DC082E080930EC065
:1032700080E4809300C088EE93E00E94EF18892BD1
:1032800019F08FEF9FEF02C080E090E01F9108954A
:10329000CF93DF9360E070E880E00E948618C0E082
:1032A000D0E060EA76E881E090E00E94152180E0BD
:1032B0000E94621897FF06C0C430D10509F441C0CE
:1032C0002196EFCF60E47DE083E090E00E9415213D
:1032D00082E10E94621860EC7FE383E10E9486181D
:1032E00010920EC080E180930AC088E080930BC0EA
:1032F00061EE71E084E00E948618C0E0D0E0CE016B
:103300008F779070892B59F460E072E180E00E9421
:10331000861860E47DE083E090E00E94152181E062
:103320000E94621885FF03C080E090E00CC060EE50
:1033300073E984E090E00E9415212196C032D10506
:10334000F1F68FEF9FEFDF91CF910895DF92EF922B
:10335000FF920F931F93CF93DF93CDB7DEB72697DE
:103360000FB6F894DEBF0FBECDBFDE011196EFE3BE
:10337000F6E086E001900D928150E1F78BEA95E04E
:103380009F938F930E9495720E940D190F900F903A
:10339000892B19F08FEB95E013C083E080930EC06A
:1033A00087E080930CC010920EC081E8809300C02B
:1033B000109201C00E944819892B59F08CEC95E0BD
:1033C0000E94BC72C7C080EE95E0FACF8DEE95E00A
:1033D000F7CF81E080930EC020E030E0A4E0B0ECB5
:1033E000FE01319681918D932F5F3F4F263031053D
:1033F000C9F788ED95E00E94BC72EE24FF24870196
:1034000060E271EA87E090E00E9415211F930F931C
:10341000FF92EF928BED95E09F938F930E949572B0
:1034200082E080930EC0B0E2DB2ED09200C084E632
:1034300090E00E94EF182DB73EB72A5F3F4F0FB6BE
:10344000F8943EBF0FBE2DBF892B09F0BCCF88E09A
:1034500080930DC080910CC083FD22C086EE95E064
:103460000E94BC7260E271EA87E090E00E94152140
:1034700080910CC083FD14C080E4809300C088EE6E
:1034800093E00E94EF18D09200C084E690E00E9482
:10349000EF18892B09F05EC080910CC083FF5AC0E1
:1034A00010920DC0809103C0809302C0109206C09C
:1034B00080E4809307C0109208C0109208C08CED81
:1034C000809308C085E0809309C08FEF809308C087
:1034D000809308C0809308C0809308C0809308C080
:1034E000809308C08981809308C08A81809308C036
:1034F0008B81809308C08C81809308C08D818093DC
:1035000008C08E81809308C088E0809308C0109224
:1035100008C08BED95E0109208C001973FEF8F3FF8
:103520009307C9F7109208C0109208C084E690E093
:103530000E94EF18892B09F049CF80EC809300C0DE
:103540000E94A71B882331F40894E11CF11C011D83
:10355000111D56CF26960FB6F894DEBF0FBECDBF15
:10356000DF91CF911F910F91FF90EF90DF90089521
:103570000F931F936D980E940D19892B19F08FEBF3
:1035800095E042C0659B03C085EF95E03DC083E0B8
:1035900080930EC087E080930CC010920EC01092F2
:1035A00004C081E0809305C081E8809300C0109240
:1035B00001C00E944819892B31F08CEC95E024C0A1
:1035C0008FEF95E021C082E080930EC080E280936F
:1035D00000C084E690E00E94EF18892BB9F488E0DF
:1035E00080930DC01FEF08C0115051F360ED77E0DC
:1035F00080E090E00E94152180910CC083FFF4CF01
:10360000659996C08AE096E00E94BC728FEF95E0C3
:103610008AC08FEB95E083C000E082E080930EC00B
:1036200080E2809300C084E690E00E94EF18892B2E
:1036300011F41FEF0CC081E196E071C0115009F444
:103640006CC060ED77E080E090E00E9415218091F1
:103650000CC083FFF3CF809103C0809302C010920F
:1036600006C0109207C0E0E0F0E060E070E041E0EA
:1036700050E02FEF3FEF609306C0872F992780938C
:1036800007C0209308C0409306C0852F99278093D8
:1036900007C0832F9927809308C03196215030406E
:1036A0006E5F7F4F4E5F5F4F84E0E030F80719F7A1
:1036B00040E050E020E030E0209306C0C901906275
:1036C000892F9927809307C0809108C0909109C0E5
:1036D000809590958417950769F4AC014F5F5F4F13
:1036E0002E5F3F4F94E04030590730F30F5F0330B7
:1036F00029F193CF5F934F939F938F938EE196E041
:103700009F938F930E9495728DB79EB706960FB6C2
:10371000F8949EBF0FBE8DBF04C08FEF95E00E944E
:10372000BC7284E396E00E94BC728FEF9FEF0CC0E6
:103730000E940D19892B09F46FCF6BCF88ED95E0AE
:103740000E94BC7280E090E01F910F9108958091DB
:10375000C00087FD03C080E090E008958091C6001E
:1037600099270895AF92BF92CF92DF92EF92FF9286
:103770000F931F93CF93DF93CDB7DEB765970FB647
:10378000F894DEBF0FBECDBFDE011196EFE4F6E088
:1037900085E101900D928150E1F788E18093C100AD
:1037A00021E0A22E62C0F7018081C82EDD2468EEE0
:1037B00073E080E090E00E9415218091C00087FFB7
:1037C00002C08091C600C092C40068EE73E080E041
:1037D00090E00E9415218091C000882314F480910C
:1037E000C60000E010E08091C00087FD11C068EEC7
:1037F00073E080E090E00E9415210F5F1F4F0832B8
:10380000110531F0F0CF02E010E091E0B92E03C0D5
:1038100001E010E0BB248091C00087FF07C08091C9
:10382000C600803271F4BB2071F324C0BB2031F09C
:1038300064E670E080E090E00E9415210F5F1F4F6A
:1038400051F70894E11CF11CCE014696E816F906E2
:1038500009F0A9CFA394F0E1AF1639F487E1809382
:10386000C4008FEFC82ED82E05C07E010894E11C3D
:10387000F11C99CFC60165960FB6F894DEBF0FBE56
:10388000CDBFDF91CF911F910F91FF90EF90DF900F
:10389000CF90BF90AF900895CF92DF92EF92FF92BA
:1038A0000F931F93CF93DF938C016B018091C00026
:1038B000882314F48091C600EE24FF24C6010197EA
:1038C0008E159F05BCF08091C00087FFFCCF8091D2
:1038D000C600C82FDD278C2FCC23A9F3C03250F0AF
:1038E00099270E94B572F801C1938F010894E11CD9
:1038F000F11CE4CFF80110828AE090E00E94B572DA
:10390000C701DF91CF911F910F91FF90EF90DF9052
:10391000CF9008950F931F93CF93DF938C01EB010A
:10392000DF93CF931F930F9385E496E09F938F933C
:103930000E94957260E270E08EEC9CE00E944C1C4C
:103940002DB73EB72A5F3F4F0FB6F8943EBF0FBE6C
:103950002DBF892BA1F08EEC9CE00E942A286F5F7E
:103960007F4F8F4F9F4F31F06EEC7CE0CE010E9475
:10397000697905C085EC91E00E943073D1CFCE010A
:10398000DF91CF911F910F91089580916A0C813042
:1039900031F445E060E073E881EF9AE005C040E073
:1039A00060E070E087EA9AE00E94885C8AE49CE02C
:1039B0000E942A285B016C01611571058105910542
:1039C00029F18BE89CE00E942A287B018C01A6014A
:1039D00095016BEA7CE084E696E00E94892A892BB7
:1039E000C9F18FE092E09F938F930E9410730F9024
:1039F0000F908091CC0C9091CD0C97FD28C068EE73
:103A000073E080E090E00E948859F9CF20E63AEE1A
:103A100040E050E06BEA7CE084E696E00E949C3B4C
:103A2000892BC1F084ED91E09F938F930E941073D6
:103A30000F900F908091CC0C9091CD0C97FD07C00A
:103A400068EE73E080E090E00E948859F9CFF89426
:103A50000E9400006091000D7091010D8091020D97
:103A60009091030D0E9480289F938F938091FF0C6B
:103A700099279F938F938091FE0C99279F938F9303
:103A80008091FD0C99279F938F938091FC0C99272F
:103A90009F938F938091FB0C99279F938F93809195
:103AA000FA0C99279F938F9389E696E09F938F93C3
:103AB0000E9495726091040D7091050D8091060D24
:103AC0009091070D0E9480289F938F9384E996E040
:103AD0009F938F930E9495728AE49CE00E942A280B
:103AE0002DB73EB72C5E3F4F0FB6F8943EBF0FBECA
:103AF0002DBF611571058105910581F10BE61CE073
:103B0000C8010E942A28611571058105910531F1CE
:103B10008091CC0C9091CD0C97FD0CC01F930F930E
:103B20008DE996E09F938F930E9495720F900F906E
:103B30000F900F90C8010E942A2821EFC22E2AE080
:103B4000D22E7B018C0120E030E040E050E060E0CC
:103B500070E080E090E00E94F82623C02091080DDC
:103B60003091090D40910A0D50910B0D2115310531
:103B700041055105B1F08091CC0C9091CD0C97FD91
:103B800010C0CA01B9010E9480289F938F938DEACB
:103B900096E09F938F930E9495720F900F900F90D5
:103BA0000F9080916A0C813029F4E091000BF09124
:103BB000010B04C0E091B60AF091B70A67817085E5
:103BC000818592850E9480289F938F9386EB96E053
:103BD0009F938F930E94957240E060E070E088E4CC
:103BE0009AE00E94885C65E27EE18CED96E00E949E
:103BF000964A64E97FE188EE96E00E94964A61E485
:103C000070E282EF96E00E94964A60E07FE18EEFDC
:103C100096E00E94964A0F900F900F900F900E948E
:103C200071257C0160E570E00E94022668E077E083
:103C3000C7010E9455708C010E94B54FC8010E94B7
:103C40001570C7010E94DB24EACF0F931F93CF9317
:103C5000DF938C01C091160DD091170D2CE037E049
:103C600048EC50E00E94C24E2FEF3FEF4FEF5FEF66
:103C70006FE077E0C8010E94824EB80185EE96E0C1
:103C80000E94FC72B8018AE396E00E94FC724AC06E
:103C9000EB89FC8980819181A281B3818F5E9E4BEB
:103CA000AD4ABE4D19F089E197E002C08EE197E080
:103CB000288939894F89588D9F938F93C9018E1B0D
:103CC0009F0B9F938F933F932F938D899E899F93F3
:103CD0008F935F934F93EF85FF27EE0FFF1FE75DF5
:103CE000F74F808191819F938F938A8999279F9322
:103CF0008F932696DF93CF932697DF93CF938CEA0B
:103D000095E09F938F931F930F930E94DE7209900B
:103D1000D881C02D8DB79EB746960FB6F8949EBF3A
:103D20000FBE8DBF209709F0B3CFB80183E296E0B4
:103D30000E94FC72C8010E94A67080E090E0DF91B2
:103D4000CF911F910F910895CF92DF92EF92FF9242
:103D50000F931F93CF93DF93EC016B01E42E7F93BE
:103D60006F9389E797E09F938F93DF93CF930E94A0
:103D7000DE7247E0F42E2DB73EB72A5F3F4F0FB6F5
:103D8000F8943EBF0FBE2DBF0F2D11271F930F9329
:103D9000DF92CF9288E497E09F938F93DF93CF9346
:103DA0000E94DE728E2D992702C0959587950A95FF
:103DB000E2F72DB73EB7285F3F4F0FB6F8943EBFEE
:103DC0000FBE2DBF80FF05C0BE0185E397E00E94B6
:103DD000FC72BE0181E297E00E945F72FA943FEFAD
:103DE000F31691F6BE018AE297E00E945F72DF91BE
:103DF000CF911F910F91FF90EF90DF90CF9008959A
:103E0000EF92FF920F931F938C012CE037E048EC68
:103E100050E00E94C24E2FEF3FEF4FEF5FEF6FE099
:103E200077E0C8010E94824EB80187E792E00E94C5
:103E3000FC7241B162E377E0C8010E94A41E40B168
:103E400067E377E0C8010E94A41E42B16CE377E00B
:103E5000C8010E94A41E5DE6E52E52E0F52EB801D1
:103E6000C7010E94FC7244B162E477E0C8010E947D
:103E7000A41E43B167E477E0C8010E94A41E45B1C7
:103E80006CE477E0C8010E94A41EB801C7010E943B
:103E9000FC7248B162E577E0C8010E94A41EB80137
:103EA000C7010E94FC724AB168E577E0C8010E9430
:103EB000A41E49B16DE577E0C8010E94A41E4BB174
:103EC00062E677E0C8010E94A41EB801C7010E9403
:103ED000FC724DB168E677E0C8010E94A41E4CB1A7
:103EE0006DE677E0C8010E94A41E4EB162E777E05C
:103EF000C8010E94A41EB801C7010E94FC724FB104
:103F000068E777E0C8010E94A41EB8018BE492E044
:103F10000E94FC72C8010E94A67080E090E01F9190
:103F20000F91FF90EF9008958F929F92AF92BF9262
:103F3000CF92DF92EF92FF920F931F93CF93DF9375
:103F40004C012CE037E048EC50E00E94C24E2FEFCD
:103F50003FEF4FEF5FEF6FE077E0C4010E94824ECA
:103F6000B40186E795E00E94FC720E94EF5D7B0140
:103F70008C0120E432E44FE050E00E94087A5901BD
:103F80006A01CA01B90120E432E44FE050E00E9426
:103F9000B679E61AF70A080B190BC801B70124E62F
:103FA00030E040E050E00E94087A3F932F93BF92A8
:103FB000AF9283E595E09F938F939F928F920E949B
:103FC000DE72C0911E0DD0911F0D8DB79EB7089661
:103FD0000FB6F8949EBF0FBE8DBF2097D9F1B401E4
:103FE0008BEC94E00E94FC72EE24FF24870188850C
:103FF0009985AA85BB85E80EF91E0A1F1B1F8E85B1
:104000009F859F938F938C859D859F938F938C81A4
:104010009D81AE81BF81BF93AF939F938F931F9379
:104020000F93FF92EF92DF93CF9380E894E09F93FA
:104030008F939F928F920E94DE720990D881C02D3B
:104040008DB79EB742960FB6F8949EBF0FBE8DBF38
:10405000209769F6B40189E694E00E94FC72C401DD
:104060000E94A67080E090E0DF91CF911F910F91A8
:10407000FF90EF90DF90CF90BF90AF909F908F9088
:104080000895EF92FF920F931F93CF93DF93EC016C
:104090002CE037E048EC50E00E94C24E2FEF3FEF9B
:1040A0004FEF5FEF6FE077E0CE010E94824EBE01DE
:1040B00083ED93E00E94FC720FB6F8940F92E090AB
:1040C000AC0BF090AD0B9AC0F701008D118D002E56
:1040D000012F102D64897589868997890E9480280F
:1040E0001F930F939F938F93FF92EF9287EA93E032
:1040F0009F938F93DF93CF930E94DE72F701068D1B
:10410000178D002E012F102D628D738D848D958D4E
:104110000E9480281F930F939F938F9384E993E0CD
:104120009F938F93DF93CF930E94DE72F701838971
:104130002DB73EB72E5E3F4F0FB6F8943EBF0FBE71
:104140002DBF8530D1F1863080F4823001F183308B
:1041500038F4882309F441C0813009F042C013C00B
:104160008330C9F08430E9F51AC0883071F18930A4
:1041700028F48630D1F08730A1F523C08930C9F00A
:104180008A3079F526C0BE018DE797E02DC0BE01CB
:1041900084E897E029C0BE018CE897E025C0BE0105
:1041A00082E793E00E94FC7221C0BE0184E997E09F
:1041B0001BC0BE018DE997E017C0BE0186EA97E0FB
:1041C00013C0BE0180EB97E00FC0BE0188EB97E003
:1041D0000BC0BE0180EC97E007C0BE0189EC97E000
:1041E00003C0BE0180ED97E00E945F72BE0186EDC4
:1041F00097E00E945F72F701E080F180E114F10422
:1042000009F062CF0F900FBEBE0189E593E00E94D6
:10421000FC72CE010E94A67080E090E0DF91CF9109
:104220001F910F91FF90EF90089520E030E040E063
:1042300050E005C000002F5F3F4F4F4F5F4F2617E4
:10424000370748075907B4F30895982F80538A30E9
:1042500030F4892F992787FD9095C0970895892F6D
:104260008156863038F4892F992787FD9095875598
:1042700090400895892F8154863018F080E090E0B6
:104280000895892F992787FD9095C79708950F93D3
:104290001F93CF93DF938C01C091AC0BD091AD0BEA
:1042A000FE011BC0808D918D8017910799F4828D3E
:1042B000938DA48DB58D82179307A407B50751F48C
:1042C000868D978D8617970729F48389882311F0A7
:1042D000CF0117C00190F081E02D309719F70DC084
:1042E0008B89813039F4888D998D8017910711F46D
:1042F000CE0107C00990D881C02D209789F780E0B2
:1043000090E0DF91CF911F910F910895CF93DF93AC
:10431000FC01EA01892B09F459C080E16230780779
:10432000E1F080E16330780744F46230710569F0B0
:104330006150704109F044C032C080E165307807B7
:10434000B1F066507041E1F51AC0452B69F1223099
:10435000310551F5EE5AFF4F07C0452B29F12230A8
:10436000310511F5E85BFF4F8081918124C0452B19
:10437000D9F024303105C1F4E659FF4F07C0452B71
:1043800099F02430310581F4EA59FF4F8081918101
:10439000A281B38188839983AA83BB830EC0452BF6
:1043A00019F02230310529F0E05AFF4F86E190E004
:1043B0000BC0818992899983888380E090E008C04E
:1043C000E05AFF4F8AE397E2918380838FEF9FEF5C
:1043D000DF91CF910895FC01892B19F486E397E2D0
:1043E0000895E05AFF4F808191810895CF93DF9324
:1043F000DC01EA016A30710561F06A30710534F060
:104400006B30710591F06C30710519F08FEF9FEFF3
:1044100017C0FD01E65BFF4FAA5BBF4F8D919C91DA
:1044200020813181821B930B03C0FC018585968519
:10443000AA27BB2788839983AA83BB8380E090E067
:10444000DF91CF910895CF93DF93EC0107C0808176
:1044500091818D939C93CF010E94ED68DE01A45B56
:10446000BF4FED91FC911197309789F707C080817C
:10447000918199AF88AFCF010E94ED68E8ADF9ADA9
:104480003097A9F707C0808191818D939C93CF01CC
:104490000E94ED68DE01A05BBF4FED91FC9111978A
:1044A000309789F7DF91CF9108954F925F926F9285
:1044B0007F928F929F92AF92BF92CF92DF92EF92B4
:1044C000FF920F931F93CF93DF93EC012B013A01DF
:1044D0000E946A58209761F08B89843061F08B8943
:1044E000853049F0C05ADF4F89E497E29983888389
:1044F0004FEF5FEFB3C04114510409F4A2C061143F
:104500007104A1F49EC08B89843061F7CA59DF4FD2
:10451000488159816A817B81C656D040CE01825B39
:104520009F4F0E94F25B892B09F08BC0CA5BDF4F63
:10453000888199812496C880D980CA54D0408C152E
:104540009D0509F38C199D098615970518F0882497
:10455000992441C0009719F46624772470C03C0167
:10456000F6CFC45BDF4FA880B980CC54D040F501B2
:10457000018912890C191D097301E818F908C20193
:10458000880D991D678570890E151F0508F45CC09C
:104590006C0D7D1DA7010E9426798E0C9F1CCE0CF0
:1045A000DF1CE016F106B8F0C45BDF4FF501808137
:1045B000918199838883CC54D040FE01EA5BFF4F00
:1045C000808191818C199D0991838083C5010E940E
:1045D000ED68CC24DD248614970418F2C65BDF4F07
:1045E000D982C882CA54D0408B89843041F5FE01FB
:1045F000EC5BFF4F408151819A01260D371DC85B4E
:10460000DF4F88819981C854D0402817390708F4B2
:10461000C901CE5ADF4F28813981C255D0402417B5
:10462000350748F02817390730F491838083CE018D
:104630000E94D22D04C0CC5BDF4F99838883A301F5
:104640000DC040E050E00AC06C0D7D1DA8010E9425
:104650002679800E911EC00ED11EA6CFCA01DF9111
:10466000CF911F910F91FF90EF90DF90CF90BF906F
:10467000AF909F908F907F906F905F904F90089534
:104680000E9455220895CF92DF92EF92FF920F93EE
:104690001F93CF93DF93EC016B018A010E946A584C
:1046A000209709F451C0C114D10409F450C0011578
:1046B000110509F44CC0CE5ADF4FE880F980C2558D
:1046C000D0400E151F0508F478018B898430B1F5B0
:1046D00049A55AA58DA19EA1481B590B9A01369553
:1046E000279536952795CE5ADF4F88819981C255F7
:1046F000D0402817390738F48DA99EA9841B950B43
:104700008E159F0578F4C659DF4F488159816A811B
:104710007B81CA56D040CE01CA960E94F25B892B9B
:10472000B1F4D3CF88A1806188A3A701B601CE01DF
:104730000E94732B892B41F4A7010BC0C05ADF4F95
:1047400089E497E2998388834FEF5FEF02C040E0EE
:1047500050E0CA01DF91CF911F910F91FF90EF9030
:10476000DF90CF900895CF92DF92EF92FF920F9358
:104770001F93CF93DF936C017B018A01C0E0D0E0EF
:1047800011C0A8014C1B5D0BB7016C0F7D1FC6014A
:104790000E944323181619061CF0CFEFDFEF05C067
:1047A000C80FD91FC017D10764F3CE01DF91CF9195
:1047B0001F910F91FF90EF90DF90CF900895AF92EF
:1047C000BF92CF92DF92EF92FF920F931F93CF93FE
:1047D000DF93EC015B018A01892B09F4ABC08B8963
:1047E000843039F0C05ADF4F89E497E29983888397
:1047F000A1C0ED85FE8541155105A9F4309709F456
:104800009BC06F857889AF01CE010E94B3232F85AD
:10481000388997FF02C0C90173C0C9010E94705650
:104820001E861D8689C06B0169897A89309729F5B2
:104830004617570710F47A0114C0CA010E94E179A3
:104840007C016801C81AD90AA601B501CE010E94EF
:10485000B32397FD6FC0E114F10409F46DC0CA0CD5
:10486000DB1C89899A890E94FD55988B8F87009758
:1048700009F460C0A701B60154C0CF01840F951F91
:104880002F8538898617970768F4B501CF01820F05
:10489000931F0E9426798D859E85800F911F9E878C
:1048A0008D874AC07B01EE1AFF0AA701B501CF012F
:1048B000820F931F0E94267949895A896F857889CA
:1048C000CE010E94B3239923CCF06501CE0CDF1CEE
:1048D00098012E193F0969897A8926173707C0F090
:1048E000C8010E94E1797C015901A81AB90AA50101
:1048F000B601CE010E94B32397FF07C08F85988928
:104900000E9470561E861D8615C0CA0CDB1C01C095
:1049100079012F853889E114F10431F0A701B6013E
:10492000C9010E94267903C0C9010E947056FE8603
:10493000ED8602C00FEF1FEFC801DF91CF911F91ED
:104940000F91FF90EF90DF90CF90BF90AF900895C0
:10495000CF92DF92EF92FF920F931F93CF93DF934B
:104960006C017B01EA0141155105A1F0CA010E94C9
:10497000FD558C01009771F0AE01B7010E94E978F6
:10498000AE01B801C6010E94DF23EC01C8010E94FC
:10499000705607C0AE0160E070E0C6010E94DF23E0
:1049A000EC01CE01DF91CF911F910F91FF90EF901D
:1049B000DF90CF9008950F931F938C0140E050E05B
:1049C00060E070E00E94DF23C8010E9496351F91CD
:1049D0000F9108950F931F93CF93DF93EC018A01FA
:1049E000892B09F477C080E16230780751F1E0E16A
:1049F00063307E0744F46230710571F0615070419C
:104A000009F062C048C080E16530780759F166500E
:104A1000704109F059C02EC04115510509F440C03C
:104A200022303105E9F58B89882329F0C05ADF4F00
:104A300088E497E24DC0CE5ADF4FFA018081918120
:104A40000EC04115510561F12230310549F5FA01D9
:104A500080819181C85BDF4F9983888324979983F4
:104A600088832FC0452BE1F024303105C9F4C659A5
:104A7000DF4F07C0452BA1F02430310589F4CA5916
:104A8000DF4FF80180819181A281B381888399836E
:104A9000AA83BB8316C0452B19F02230310529F0BB
:104AA000C05ADF4F86E190E013C040E050E060E084
:104AB00070E0CE010E94DF23F801808191819A8B02
:104AC000898B80E090E008C0C05ADF4F8AE397E20C
:104AD000998388838FEF9FEFDF91CF911F910F9183
:104AE0000895CF93DF938091AE0B882359F40E94F1
:104AF000572D20E0892B09F421E02093AE0B2223CF
:104B000009F44BC082E790E00E94E956009709F44F
:104B100044C0EC011B8A84E08C8380E493E29E8392
:104B20008D838FED93E298878F8388EA94E29A874A
:104B3000898786EF91E29C878B870E94DB5869A367
:104B40007AA38BA39CA36DA37EA38FA398A769A729
:104B50007AA78BA79CA7CC5BDF4F80E99CE0998369
:104B600088832496998388832A9628E132E03983C2
:104B70002883269688EE93E099838883C855D04091
:104B80008091AC0B9091AD0B998388833A8B298BE4
:104B9000D093AD0BC093AC0B02C0C0E0D0E0CE010F
:104BA000DF91CF910895CF93DF93EC018091AC0B0F
:104BB0009091AD0BECEAFBE006C08C179D0731F03D
:104BC000FC01808191810097C1F719C0888199818A
:104BD00091838083CE010E9423228D859E85892B1F
:104BE00031F08F8598890E9470561E861D8682E757
:104BF000FE0111928A95E9F7CE010E947056DF916D
:104C0000CF910895FC01062E672F702D718F608F54
:104C10000E94222F0895EF92FF920F931F93CF933C
:104C2000DF93EC017A018B01A901892B09F46CC097
:104C30008B89813029F4C05ADF4F8DE397E262C03F
:104C40008B89882329F0C05ADF4F88E497E25AC045
:104C50006091AC0B7091AD0BA0E0B0E180914B087E
:104C600090914C08019690934C0880934B0880914A
:104C70004B0890914C08892B21F4B0934C08A093D9
:104C80004B08FB010FC080914B0890914C08082EF7
:104C9000892F902D208D318D28173907F9F2019039
:104CA000F081E02D309779F780914B0890914C0876
:104CB000082E892F902D998F888F042E452F502DE7
:104CC0005F8F4E8FEA8EFB8E0C8F1D8F40E050E081
:104CD000C801B7010E94D726FC01892B79F007840F
:104CE000F089E02D87819085A185B2858C8B9D8B85
:104CF000AE8BBF8BCE010E94052F08C0C05ADF4F7C
:104D000081E597E2998388838FEF9FEFDF91CF91C1
:104D10001F910F91FF90EF900895EF92FF920F93E4
:104D20001F93CF93DF937B018C01EA01622F6430E4
:104D3000A0F5E091EE0CF091EF0C14C08681978104
:104D4000A085B1858E219F21A023B12322813381AB
:104D50004481558182179307A407B50731F001906C
:104D6000F081E02D309751F71AC0209761F08285CD
:104D70009385A485B5850097A105B10521F08883A9
:104D80009983AA83BB8386859785892B41F46F5FBE
:104D9000E284F38404851585CACFE0E0F0E0CF011A
:104DA000DF91CF911F910F91FF90EF900895FA013D
:104DB000452B21F010821182128213826F3F2FEF58
:104DC00072072FEF82072FEF920729F4E091EE0C84
:104DD000F091EF0C05C020E0AF010E948D26FC0190
:104DE000309719F480E090E00895868597850895BE
:104DF0004F925F926F927F928F929F92AF92BF92EB
:104E0000CF92DF92EF92FF920F931F93CF93DF9396
:104E1000CDB7DEB724970FB6F894DEBF0FBECDBF77
:104E20002B013C0149015A01E982FA820B831C8360
:104E3000E090EE0CF090EF0C0EEE1CE004C0870149
:104E4000D701ED90FC90E114F10451F0F701868157
:104E50009781A085B18588169906AA06BB0678F3C6
:104E600080E190E00E94FD559C01009719F48FEFBE
:104E70009FEF1EC0482059206A207B20FC014282FF
:104E800053826482758286829782A086B1868981E8
:104E90009A81AB81BC8182879387A487B587D786A7
:104EA000C686F182E082D8012D933C9380E090E0A9
:104EB00024960FB6F894DEBF0FBECDBFDF91CF9121
:104EC0001F910F91FF90EF90DF90CF90BF90AF9028
:104ED0009F908F907F906F905F904F900895CF93A9
:104EE000DF93EC0119821882E091EE0CF091EF0C47
:104EF00006C00196998388830190F081E02D888116
:104F000099813097B1F724E0880F991F2A95E1F72E
:104F10000E94FD55009799F0E091EE0CF091EF0C96
:104F20000BC0EC01DF0120E10D9009922150E1F767
:104F300040960190F081E02D309799F702C01982D8
:104F40001882DF91CF9108954F925F926F927F9276
:104F50008F929F92AF92BF92CF92DF92EF92FF9289
:104F60000F931F932B013C0149015A012FEF3FEF93
:104F700035C082819381A481B58184159505A605EC
:104F8000B70511F586819781A085B18588159905AA
:104F9000AA05BB05C9F482859385A485B5858E15C0
:104FA0009F05A007B10781F4868597858C159D051F
:104FB00059F4808191819093EF0C8093EE0CCF0196
:104FC0000E94705620E030E0E091EE0CF091EF0C82
:104FD000808191819093EF0C8093EE0CE091EE0C28
:104FE000F091EF0C309729F6C9011F910F91FF90B6
:104FF000EF90DF90CF90BF90AF909F908F907F9079
:105000006F905F904F900895CF93DF93EC0117C09E
:10501000868597858C179D0711F0209751F4808124
:1050200091819093EF0C8093EE0CCF010E9470560B
:1050300006C0808191819093EF0C8093EE0CE091FB
:10504000EE0CF091EF0C309719F780E090E0DF91D3
:10505000CF910895CF93DF93CDB7DEB724970FB6E6
:10506000F894DEBF0FBECDBFFC0119821A821B82ED
:105070001C82DE01119640E0808180538A3098F5D1
:1050800020E030E06AE070E0C901869F9001879FD0
:10509000300D969F300D11248191992787FD9095B1
:1050A000280F391F20533040808180333CF08A33F1
:1050B0002CF42F3F310509F0B0F4E6CF2F3F310536
:1050C00009F088F44F5F2C9380818E3239F04430A0
:1050D00051F469817A818B819C8109C0443019F037
:1050E00011963196C9CF6FEF7FEF8FEF9FEF249628
:1050F0000FB6F894DEBF0FBECDBFDF91CF910895FC
:10510000BF92CF92DF92EF92FF920F931F93CF93B4
:10511000DF93CDB7DEB727970FB6F894DEBF0FBE8B
:10512000CDBF6C837D838E839F8394E0E92EF12C29
:10513000EC0EFD1E40E00FEA1BE050E06E0108940B
:10514000C11CD11C8EE2B82E01C0492FD7012C9171
:10515000822F6AE00E94D579382F8C93F601E40FF4
:10516000F11D822F0E94D579905D9083942F9F5FCF
:10517000332359F7D801242F2095240FBE016F5FE8
:105180007F4F05C0FB01E90FF11D80818D93915088
:105190009217C1F74F5FF801E40FF11DDF01BD92D7
:1051A0008D015F5F543028F40894E11CF11C90E0FD
:1051B000CCCF10828FEA9BE027960FB6F894DEBF23
:1051C0000FBECDBFDF91CF911F910F91FF90EF9058
:1051D000DF90CF90BF9008952F923F924F925F92B1
:1051E0006F927F928F929F92AF92BF92CF92DF92F7
:1051F000EF92FF920F931F93CF93DF93CDB7DEB75C
:105200002A970FB6F894DEBF0FBECDBF1C012A014E
:105210003B0148015901CD82DE82EF82F886FC0114
:105220000784F089E02DFA87E9874115510561056A
:10523000710581F44090000D5090010D6090020DB9
:105240007090030D411451046104710419F48FEF3F
:105250009FEFA4C0E985FA854782508661867286F1
:1052600081149104A104B10431F48DE498E00E940A
:105270002A284B015C01E985FA858786908AA18AF4
:10528000B28AA3019201282139214A215B21298375
:105290003A834B835C836101EE24FF248701A501DF
:1052A000940169817A818B819C810E94F8268D818D
:1052B0009E81AF81B8850097A105B10561F07C01A1
:1052C0008D0120E030E040E050E060E070E080E000
:1052D00090E00E94F826A1EFBCE0F101329689E04F
:1052E00001900D928150E1F7E985FA85818188234B
:1052F00079F48281882361F48381882349F484814D
:10530000882331F48581882319F48681882351F01C
:10531000AAEFBCE0E985FA85319686E001900D920E
:105320008150E1F74092000D5092010D6092020D04
:105330007092030D8092040D9092050DA092060DBF
:10534000B092070D2D813E814F8158852115310581
:1053500041055105A9F48091080D9091090DA09186
:105360000A0DB0910B0D88219921AA21BB21298119
:105370003A814B815C8182179307A407B50761F0DE
:105380008D819E81AF81B8858093080D9093090D22
:10539000A0930A0DB0930B0D0E949F2A2A960FB678
:1053A000F894DEBF0FBECDBFDF91CF911F910F915B
:1053B000FF90EF90DF90CF90BF90AF909F908F9035
:1053C0007F906F905F904F903F902F9008952F9215
:1053D0003F924F925F926F927F928F929F92AF9285
:1053E000BF92CF92DF92EF92FF920F931F93CF93D2
:1053F000DF93CDB7DEB724970FB6F894DEBF0FBEAC
:10540000CDBF7C836B8319012A01370148010E94BB
:105410006C5CFC01009709F461C09A8389838385E1
:10542000833009F05BC0A785B0898C91863071F418
:105430001196EB81FC8101900D928150E1F776018C
:10544000650194018301B201A10143C0873109F0D4
:1054500045C0A188B288F50121A232A243A254A27C
:10546000E114F1040105110541F48FEF682E8FEF6F
:10547000782E8FEF882E8FEF982EF50161A672A6F9
:1054800083A694A6C5010E94945BF501FF96AE0128
:105490004F5F5F4F67E171E0808191810E94986F5B
:1054A00040E65AEE60E070E0C5010E94F25B892B95
:1054B000A9F4F50184AD893089F4C5A0D6A0E7A090
:1054C000F0A401A512A523A534A541A152A163A171
:1054D00074A189819A810E94EC2802C08FEF9FEF0E
:1054E00024960FB6F894DEBF0FBECDBFDF91CF91EB
:1054F0001F910F91FF90EF90DF90CF90BF90AF90F2
:105500009F908F907F906F905F904F903F902F90E3
:105510000895AF92BF92CF92DF92EF92FF920F93D6
:105520001F93AA24BB2465010E94E7291F910F91B4
:10553000FF90EF90DF90CF90BF90AF90089580E202
:105540008093F00C40E250E060EF7CE080E490E07B
:105550000E948269892B19F08FEF9FEF089580E0F8
:1055600090E00895CF93DF93EC0140E250E060EFCC
:105570007CE080E490E00E948569892BE9F48091C9
:10558000F00C803251F4BE0181EF9CE00E945F7903
:10559000892B19F480E090E011C0E0EFFCE080E29C
:1055A000DF011D928A95E9F746E050E06FEF70E069
:1055B000CF010A960E942F798FEF9FEFDF91CF9155
:1055C0000895AF92BF92CF92DF92EF92FF920F9326
:1055D000CF93DF936C01FC01A780B084C385D48591
:1055E0008D8582FD71C0F601128A118A84E190E0F6
:1055F00096878587288139818A819B8199838883D1
:105600003B832A838D85992784FF0FC084E08D8793
:1056100088859985AA85BB858C839D83AE83BF834E
:10562000188619861A861B8620C02C813D814E81E2
:105630005F8181FF10C0022E252F502D032E342FA5
:10564000402D2F5F3F4F4F4F5F4F022E252F502D84
:10565000032E342F402D288739874A875B871C8289
:105660001D821E821F8284E18D8780E58C871F86C4
:105670001E861B8A1A8A198A188AF601E584F6841E
:105680000E2CEF2CF02CF5012485358546855785A9
:10569000608971898289938906E00E946636DC01FF
:1056A000CB01F60145855685BE010E946136998B76
:1056B000888BF5014485558566857785960186E05A
:1056C0000E949836892B19F4C6010E94ED6880E08B
:1056D00090E0DF91CF910F91FF90EF90DF90CF900E
:1056E000BF90AF9008956F927F928F929F92AF92EA
:1056F000BF92CF92DF92EF92FF920F93CF93DF93FF
:10570000CDB7DEB722970FB6F894DEBF0FBECDBF80
:105710006C017B013A01452B29F4FC0180A18B70BF
:1057200009F480C1F60180A181FF02C008E101C037
:1057300004E1402F552760E480E090E00E94256856
:105740004C01009709F48CC0FC01A384B484F601D9
:10575000808D918DF50191838083F601868D978DE3
:10576000F50193838283000F000F0487F60180A167
:10577000877F80A381A592A5A3A5B4A5082E8B2F12
:10578000B02D092E9A2FA02DF50184839583A68331
:10579000B783F60180A184FF20C080E1F5018587F1
:1057A000F60180A18F7E80A320E430E0C20ED31EDC
:1057B000F60180819181A281B38120EC3FEFC20E7E
:1057C000D31E082E8B2FB02D092E9A2FA02DF50158
:1057D00080879187A287B38706C0F501158610865A
:1057E000118612861386F60180A1992781FF2DC0AC
:1057F00022E530E0C20ED31EF601808191812EEAAF
:105800003FEFC20ED31E082E892F902D9A838983D5
:10581000F501858582608587F60180A18D7F80A353
:1058200081A592A5A3A5B4A50196A11DB11D81A72F
:1058300092A7A3A7B4A782E0F501848B84E0858BAF
:105840008981868B8A81878B46C06114710471F1CE
:10585000A30160E8C4010E9425684C01009751F43F
:1058600020E630E0C20ED31E87E497E2F601918372
:105870008083D2C0A301B701FC01878590890E9473
:105880002679C301AA27BB27F60121A532A543A586
:1058900054A5280F391F4A1F5B1F21A732A743A712
:1058A00054A7F50185858860858715C080FF13C0E2
:1058B000F501858581608587F60180A18E7F80A3B3
:1058C00081A592A5A3A5B4A50196A11DB11D81A78F
:1058D00092A7A3A7B4A724E430E0C20ED31EF6011A
:1058E000208131814EE050E0C40ED51EF60180814A
:1058F00091814EEA5FEFC40ED51E2817390720F4B8
:10590000F5011786168606C0022E232F302DF501CD
:1059100037872687F501118A108A138A128AF401C3
:10592000E584F68481899289E80EF91E0E2CEF2C0D
:10593000F02CF601228D338D448D558D6489758947
:105940008689978906E00E946636DC01CB01F40166
:1059500045855685B5010E942936F4014189528951
:10596000678570890E946136F501918B808B67286D
:1059700041F48585992783709070892B11F4740107
:1059800040C0F40111821082F601A0ADB1AD1097B4
:1059900089F491AE80AE0E94745A2EE530E0C20EBA
:1059A000D31EF6017183608322EA3FEFC20ED31E3D
:1059B00008C0DC018D919C9111970097D1F78D92D1
:1059C0009C9296012C5A3F4FF90180819181A281CE
:1059D000B3810097A105B10581F4F501848195811A
:1059E000A681B781082E8B2FB02D092E9A2FA02DBE
:1059F000F90180839183A283B383C4010E94046967
:105A00007C01F601428D538D648D758D970186E082
:105A10000E949836892B19F08FEF9FEF05C0C701C0
:105A20000E94ED6880E090E022960FB6F894DEBF09
:105A30000FBECDBFDF91CF910F91FF90EF90DF9020
:105A4000CF90BF90AF909F908F907F906F90089570
:105A5000CF93DF93EC01C05ADF4F798368831A92AA
:105A60001A921A921A92CC55D0408B89863018F02F
:105A70008AE08B8B01C01B8ACE010E942322CE01BB
:105A8000825B9F4F0E94945BCE01CA960E94945BFA
:105A9000CE018E599F4F0E94945BCE018C599F4F2F
:105AA0000E94945B80E090E0DF91CF910895809117
:105AB000BF0B9091C00B892B99F420E032E040E0BD
:105AC00050E06AEE70E38BE598E00E94385D9093B9
:105AD000C00B8093BF0B892B19F48FEF9FEF0895B4
