:100000000C949C000C94EA000C94EA000C94EA0016
:100010000C94EA000C94EA000C944B210C94EA0036
:100020000C94EA000C94EA000C94EA000C94EA00A8
:100030000C94EA000C94051C0C94EA000C94EA0061
:100040000C94EA000C94EA000C94EA000C94EA0088
:100050000C94EA000C94EA000C94EA000C94EA0078
:100060000C94EA000C94EA000C94EA000C94EA0068
:100070000C94EA000C94EA000C94EA000C94EA0058
:100080000C94EA000C94EA000C94EA000C94EA0048
:100090000C94EA000C94EA000C94EA000C94EA0038
:1000A0000C94EA000C94EA000C94EA000C94EA0028
:1000B0000C94EA000C94EA000C94EA000C94EA0018
:1000C0000C94EA000C94EA000C94EA000000000092
:1000D0000000000000000000000000000000000020
:1000E0000000000000000000000000000000000010
:1000F0000000000000000000000000000000000000
:1001000000000000000000000000000000000000EF
:1001100000000000000000000000000000000000DF
:1001200000000000000000000000000000000000CF
:10013000000000000000000084E88093740087E065
:100140008093C4008093CC0011241FBECFEFD1E276
:10015000DEBFCDBF14E0A0E0B2E0EEEBF4E900E0DA
:100160000BBF02C007900D92A63CB107D9F719E06A
:10017000A6ECB4E001C01D92A63CB107E1F78FEFF9
:100180009FE79EBF8DBF8FEF9FE7865C99408158A8
:10019000914040F06FEF7EE7665C794086EC99E035
:1001A0000E9460140E94501A892B41F06CEB73E09E
:1001B0008CE899E00E94E3490E94371A20E831E078
:1001C00040E050E068E573E085EC93E00E94B31AEC
:1001D0000C9400000C9400002F923F924F925F927B
:1001E0006F927F928F929F92AF92BF92CF92DF9247
:1001F000EF92FF920F931F93CF93DF93CDB7DEB7AC
:1002000026970FB6F894DEBF0FBECDBF80E092EC0C
:10021000A1E0B0E089839A83AB83BC8340E060E0D7
:1002200070E08CED93E00E940B1A40916E045091A7
:100230006F0460E072E082E092E00E9412448091DC
:100240006E0490916F040E948643AE014F5F5F4F32
:1002500061E071E00E94D24288E092E00E94F7449F
:1002600087E192E00E94F74440E060E070E084E0C3
:1002700094E00E940B1A20E63AEE40E050E060E085
:1002800070E086E392E00E94C304892B09F441C028
:1002900020E63AEE40E050E066EB73E086E392E061
:1002A0000E94C304892BA9F18BE392E00E94352CB4
:1002B0004B015C018BE492E00E94352C7B018C01A8
:1002C000A501940166EB73E086E392E00E941D2F86
:1002D00089E592E00E94352C54E0C52E54E0D52EDD
:1002E0007B018C0120E030E040E050E060E070E015
:1002F00080E090E00E94032B87E692E00E94352C7C
:100300009B01AC0160E070E080E090E00E94711021
:1003100008C08090B0099090B109A090B209B09047
:10032000B309C501B4010E948B2C9F938F9385E77D
:1003300092E09F938F930E94D7440FE712E0C80189
:100340000E947B133B014C010F900F900F900F9078
:10035000611571058105910509F494C10E941F285A
:100360009E838D83892B09F4C9C0C401B3010E9407
:100370008B2C20E530E03F932F939F938F938EE853
:1003800092E09F938F930E94D74420E530E0B40120
:10039000A3018D819E810E94B9282DB73EB72A5FA7
:1003A0003F4F0FB6F8943EBF0FBE2DBF892B09F00B
:1003B0007DC061EA72E08D819E810E9424438C01A0
:1003C000892B09F46EC085EA92E09F938F9387EAA8
:1003D00092E09F938F931F930F930E94A844B801BC
:1003E00089EB92E00E94C644B8018DED92E00E9434
:1003F000C644C8010E9475430E945E161B012C0171
:10040000AA24BB2465018DB79EB706960FB6F89453
:100410009EBF0FBE8DBF11C0C7010E94F744F701F8
:1004200001900020E9F7CF010197865C9440AA274C
:10043000BB27A80EB91ECA1EDB1E46ECE42E44E004
:10044000F42EA80160E074E0C7010E947D44892B6E
:1004500019F70E945E16621973098409950934E040
:1004600096958795779567953A95D1F79F938F9352
:100470007F936F93DF92CF92BF92AF9280EE92E024
:100480009F938F930E94D744C8010E94E4422DB7E6
:100490003EB7265F3F4F0FB6F8943EBF0FBE2DBF4D
:1004A00011C085E093E00E94F7440CC01F930F93A6
:1004B00083E293E09F938F930E94D7440F900F9015
:1004C0000F900F90C401B3010E948B2C20E530E007
:1004D0003F932F939F938F9389E493E09F938F9300
:1004E0000E94D7448D819E810E9489278DB79EB737
:1004F00006960FB6F8949EBF0FBE8DBF68E873E1F5
:1005000080E090E00E940B170E941F282C01892B8D
:1005100009F4C4C0C401B3010E948B2C20E530E073
:100520003F932F939F938F938EE892E09F938F93A7
:100530000E94D74420E530E0B401A301C2010E942B
:10054000B928EDB7FEB736960FB6F894FEBF0FBECA
:10055000EDBF892B09F06CC006EC14E06EE573E08A
:10056000C8010E94E349F80101900020E9F78F01DA
:1005700001501040065C1440EE24FF240EC0A80178
:100580004E195F09B7016A537B4FC2010E94F125E2
:10059000181619062CF4E80EF91EE016F10678F389
:1005A0000E945E165B016C01EE24FF24870110C0DF
:1005B000CF01AA2797FDA095BA2FE80EF91E0A1FB2
:1005C0001B1FEA53FB4F108286EC94E00E94F74415
:1005D0004FEF53E066EC74E0C2010E940325FC017A
:1005E000181619062CF30E945E166A197B098C09ED
:1005F0009D0924E096958795779567952A95D1F77B
:100600009F938F937F936F931F930F93FF92EF921C
:1006100080EE92E09F938F930E94D7442DB73EB710
:10062000265F3F4F0FB6F8943EBF0FBE2DBF0EC0E2
:100630008FE792E09F938F9383E293E09F938F9352
:100640000E94D7440F900F900F900F90C401B301F8
:100650000E948B2C20E530E03F932F939F938F9344
:1006600089E493E09F938F930E94D744C2010E9434
:1006700089278DB79EB706960FB6F8949EBF0FBE1A
:100680008DBF0CC01F930F9384E993E09F938F93CA
:100690000E94D7440F900F900F900F9068EE73E078
:1006A00080E090E00E940B17F9CF8093CF0308956C
:1006B0000E94611720E033E040E050E06CEE70E013
:1006C0008AEC93E00E94B31A8EEF0E9469150E9493
:1006D000ED150E9434152091CF032F3FC1F393B73E
:1006E00083B7817F822B83BF83B7816083BF889567
:1006F00083B78E7F83BF83B7817F9E70892B83BF33
:10070000E6CFCF93DF93DC01FC0187E3819393E095
:10071000ED019983DF01119681E08183FD019183D1
:1007200086E0828385E090E0DF91CF91089580910B
:10073000CB08992708958091CC089091CD0810920C
:10074000CD081092CC08089520E030E08091CB08CD
:10075000853011F421E030E0C9010895DF92EF9275
:10076000FF920F931F93CF93DF93D62E79018A01C7
:100770000E94EF19EC01892B51F08B85833039F4FD
:10078000EF85F889309719F08081863049F081E152
:1007900090E09093CD088093CC088FEF9FEF35C009
:1007A0000E94F7176093D6087093D7088093D808F3
:1007B0009093D908E092D208F092D3080093D4081D
:1007C0001093D508D092CB088091C9089091CA089F
:1007D000892B69F420E032E0AE0165E379E080ED39
:1007E00093E00E94B31A9093CA088093C9088EECD4
:1007F00098E00E94221940E050E060E070E080ED57
:1008000098E00E94751980E090E0DF91CF911F91F0
:100810000F91FF90EF90DF900895FC019A01AB01DA
:100820008091CB08882349F083E090E09093CD0835
:100830008093CC088FEF9FEF089568E0CF010E946E
:10084000AE030895FC019A01AB018091CB0885307D
:1008500049F083E090E09093CD088093CC088FEF2F
:100860009FEF089569E0CF010E94AE030895CF92F3
:10087000DF92EF92FF920F931F93CF93DF93FC01D0
:1008800084E292E0DF011D920197E9F781E0808325
:10089000818386E08283DF015C96CAEAD9E0099011
:1008A0000D928150E1F724833583468357830C2CC6
:1008B000CD2CD02CD186C086E486F5860687178796
:1008C000DF01A451BF4F93E6FD01919382E8ED0152
:1008D0008983DF01119683E58183FD013196ED0166
:1008E0009983DF01119685E3818381E0FD01818396
:1008F000628387E090E0DF91CF911F910F91FF908D
:10090000EF90DF90CF900895CF93DF93CDB7DEB710
:1009100022970FB6F894DEBF0FBECDBFDC015A831D
:100920004983FC0161939F0182E0FD0181838981FC
:100930009A81082E892F902DF9019283818384E07A
:1009400090E022960FB6F894DEBF0FBECDBFDF91C8
:10095000CF9108950F931F93CF93DF93DC01CA01CA
:10096000022FFD016193ED0129831127A801BC012C
:10097000CF0101960E94C949C8010296DF91CF912B
:100980001F910F9108954F925F926F927F928F9275
:100990009F92AF92BF92CF92DF92EF92FF920F930E
:1009A0001F93CF93DF93CDB7DEB760970FB6F89460
:1009B000DEBF0FBECDBF3C012B012D873E874F8789
:1009C000588B0E94EF195C01009769F0FC01838548
:1009D000833049F4C784D088C114D10421F0F601D2
:1009E0008081863019F081E190E039C08E01095F85
:1009F0001F4FF80111928A95E9F746E050E06FEF3A
:100A000070E04E010894811C911CC4010E94D249DF
:100A100076010894E11CF11C46E050E0B801C701E2
:100A20000E94BC49892B41F046E050E0B401C70167
:100A30000E94BC49892B31F54114510449F0AAEABE
:100A4000B9E0F20186E001900D92815069F0FBCF90
:100A5000C3010E94462F892B39F082E090E09093E9
:100A6000CD088093CC0899C0F701AAEAB9E086E0E6
:100A70000D9001928150E1F764EF71E080E090E029
:100A80000E940B172091BC093091BD094091BE090D
:100A90005091BF09E090B409F090B5090091B609F2
:100AA0001091B709DA01C9018E219F21A023B1233A
:100AB0000097A105B10549F02093B0093093B10921
:100AC0004093B2095093B30958C02D853E854F8598
:100AD000588961E0C3010E94AE03892B09F05DC013
:100AE0008091CB08853031F5E091C708F091C808B6
:100AF000C584D684E784F0880581168127813085F6
:100B00004181528163817481C5010E94802DE091F1
:100B1000C708F091C808E588F6880789108D2189F3
:100B200032894389548960E070E080E090E00E945F
:100B3000071030C0F60187819085A185B2850097A6
:100B4000A105B10539F52091B0093091B109409165
:100B5000B2095091B309E090B409F090B509009141
:100B6000B6091091B709DA01C9018E219F21A0238E
:100B7000B1230097A105B10581F0A090B809B0900C
:100B8000B909C090BA09D090BB096AEA79E0C301FB
:100B90000E947B2E80E090E002C08FEF9FEF609676
:100BA0000FB6F894DEBF0FBECDBFDF91CF911F917E
:100BB0000F91FF90EF90DF90CF90BF90AF909F90FC
:100BC0008F907F906F905F904F900895CF93DF93B9
:100BD000EC01892B79F089A59AA5009711F00E9464
:100BE00019458BA59CA5009711F00E941945CE01CF
:100BF0000E941945DF91CF910895EF92FF920F93D4
:100C00001F93CF93DF938C017B01EA01DC018D916F
:100C10009C91009711F00E941945CE0101960E9407
:100C20001C45F80191838083009761F0209721F0A3
:100C3000AE01B7010E94C949D801ED91FC91EC0FBA
:100C4000FD1F1082DF91CF911F910F91FF90EF90C8
:100C500008954F925F927F928F929F92AF92BF9230
:100C6000CF92DF92EF92FF920F931F93CF93DF9378
:100C70008C017B018DE290E00E941C45EC01009705
:100C800009F420C12C018DE2FE0111928A95E9F749
:100C900080EC98EAA0E0B0E08DA39EA3AFA3B8A734
:100CA000F80180899189A289B38989839A83AB836A
:100CB000BC8380EFC82ED12CC00ED11E00E1A02E27
:100CC0000FEFB02EAE0CBF1CEAC0662339F40894B7
:100CD000C11CD11C0894A108B108E1C0F6017180C3
:100CE000872C9924A814B9040CF4E9C0653341F4A5
:100CF000F1E07F1609F0E3C0F60182818883C3C06A
:100D00006C3039F4B6016E5F7F4FA401CE01899635
:100D100008C06F3049F4B6016E5F7F4FA401CE0169
:100D20008B960E94FD05AFC0F3E0F71508F0ABC04D
:100D3000F601228183819927AA27BB27EE24F82E6A
:100D4000092F1A2FE20EF11C011D111D25813327D9
:100D500044275527522F4427332722278481992758
:100D6000AA27BB27DC0199278827280F391F4A1F8C
:100D70005B1FE20EF31E041F151F613029F4ED8284
:100D8000FE820F8318877FC06C3129F4E986FA86CA
:100D90000B871C8778C0633029F4ED86FE860F87A9
:100DA000188B71C0663009F041C0E98AFA8A0B8B52
:100DB0001C8BF7E0F71508F066C0F6012681332793
:100DC000442755272D8B3E8B4F8B588F8781992732
:100DD000AA27BB27BA2FA92F982F8827820F931FE6
:100DE000A41FB51F8D8B9E8BAF8BB88F20853327AB
:100DF00044275527A90133272227280F391F4A1FC7
:100E00005B1F2D8B3E8B4F8B588F81859927AA278F
:100E1000BB27B82FAA2799278827280F391F4A1FD1
:100E20005B1F2D8B3E8B4F8B588F2DC0663329F463
:100E3000E98EFA8E0B8F1C8F26C06A3359F40E2C64
:100E4000E12E102D0F2CF02E002DED8EFE8E0F8F2B
:100E500018A319C06B3359F40E2CE12E102D0F2C52
:100E6000F02E002DE9A2FAA20BA31CA30CC0633341
:100E700051F40E2CE12E102D0F2CF02E002DEDA292
:100E8000FEA20FA318A7C70CD11C82E090E0C80EE9
:100E9000D91EA818B908EEEFFFEFAE0EBF1EF6017F
:100EA00060816F3F29F01A141B040CF40ECF07C0A9
:100EB0008881823051F0853041F0863031F0CE01AA
:100EC0000E94E6054424552439C08D8D9E8DAF8D3A
:100ED000B8A10097A105B10561F48DA19EA1AFA1B4
:100EE000B8A5B695A795979587958D8F9E8FAF8F4F
:100EF000B8A389A19AA1ABA1BCA10097A105B10596
:100F0000E9F48D8D9E8DAF8DB8A19C01AD015695F4
:100F1000479537952795280F391F4A1F5B1F62E0B9
:100F2000B695A795979587956A95D1F7280F391F9C
:100F30004A1F5B1F29A33AA34BA35CA3C201DF9105
:100F4000CF911F910F91FF90EF90DF90CF90BF90C6
:100F5000AF909F908F907F905F904F900895EF9209
:100F6000FF920F931F93DC01F801E20FF31FE4518E
:100F7000FF4F8FEF808303511F4F81E00C32180722
:100F800010F40CE211E07801890123E430E0CD0196
:100F90000E94AE2997FD03C080E090E008C083E185
:100FA00090E09093CD088093CC088FEF9FEF1F9136
:100FB0000F91FF90EF9008952F923F924F925F9282
:100FC0006F927F928F929F92AF92BF92CF92DF9259
:100FD000EF92FF920F931F93CF93DF93CDB7DEB7BE
:100FE0001C012A013B014901A801970186017501F5
:100FF0009CEEA92EB12CA80CB91CCE8CDF8C63E022
:10100000C4010E9437048C018E899F89A88DB98DF7
:101010000097A105B10561F024E0AE014A5E5F4F83
:1010200062E3C501800F911F0E94AA04080F191FD7
:101030008A8D9B8DAC8DBD8D0097A105B10561F0AA
:1010400024E0AE01465E5F4F66E3C501800F911F4D
:101050000E94AA04080F191FC501800F911F0E944A
:101060008103080F191FACE8B9E0FD0101900020D1
:10107000E9F73197EA1BFB0B1E161F0654F42E2FBF
:10108000AD016CE0C501800F911F0E94AA04080FFA
:10109000191F9401B301A201C1010E94AF07DF91A2
:1010A000CF911F910F91FF90EF90DF90CF90BF9065
:1010B000AF909F908F907F906F905F904F903F90F8
:1010C0002F9008956F927F928F929F92AF92BF92CE
:1010D000CF92DF92EF92FF920F931F93CF93DF9304
:1010E000CDB7DEB7EE89FF89FF93EF936A887B88DF
:1010F0008C889D889F928F927F926F92DF92CF9281
:10110000BF92AF925701680179018A019B014FEFAD
:101110005FEF6FEF7FEF0E94DC072DB73EB7265FD2
:101120003F4F0FB6F8943EBF0FBE2DBFDF91CF915A
:101130001F910F91FF90EF90DF90CF90BF90AF90F5
:101140009F908F907F906F9008952F923F924F9233
:101150005F926F927F928F929F92AF92BF92CF9247
:10116000DF92EF92FF920F931F93CF93DF93CDB750
:10117000DEB72C970FB6F894DEBF0FBECDBF9887B1
:101180008F8349875A876B877C87390147015801CC
:101190000E94F7171B012C016701780104E212E09D
:1011A0009301AE014F5F5F4FBE016D5F7F4F8F8137
:1011B00098850E942E2A9C01181619064CF0892B3E
:1011C000D1F184E190E09093CD088093CC0833C0B6
:1011D000823F910590F0D3018C91823071F4F3013C
:1011E00084819581A681B78149855A856B857C85E7
:1011F00084179507A607B707F1F00E94F7176B0150
:101200007C01C218D308E408F508D501C4018A5F3F
:101210009040A040B040C816D906EA06FB0648F444
:10122000C501B4016C197D098E099F096B017C0110
:10123000B5CF20E030E0C9012C960FB6F894DEBFA0
:101240000FBECDBFDF91CF911F910F91FF90EF9017
:10125000DF90CF90BF90AF909F908F907F906F90D6
:101260005F904F903F902F900895CF93DF93CDB72D
:10127000DEB7A2970FB6F894DEBF0FBECDBF8C01CC
:101280000E9473186D8B7E8B8F8B988F2091B00985
:101290003091B1094091B2095091B3092C873D8733
:1012A0004E875F87F801078510891C8F0B8FF80127
:1012B00086819927AA27BB27BA2FA92F982F88277D
:1012C0002581820F911DA11DB11DBA2FA92F982F25
:1012D00088272481820F911DA11DB11D6624782EBF
:1012E000892E9A2E8381680E711C811C911C1AA272
:1012F00019A218A21F8E1E8E1D8E1A8E198E198A83
:101300001A8A1B8A1C8A188A70EA272E7FE0372ED9
:10131000412C512C3EC08091C7089091C8080E9472
:10132000E60529A13AA13093C8082093C7080CC04C
:101330008091C7089091C8080E94E60549A15AA16A
:101340005093C8084093C7081093CB088D899E8995
:10135000AF89B88D898B9A8BAB8BBC8B16C0809173
:10136000C7089091C8080E94E605A9A1BAA1B09348
:10137000C808A093C7081093CB082D893E894F89D0
:10138000588D298B3A8B4B8B5C8B1AA219A23F810B
:10139000388B48894423E1F0220C331C441C551C33
:1013A00051E025165AEF350650E0450650E0550647
:1013B00048F48FEF9FEFAFEFBFEF88879987AA8739
:1013C000BB8736C0212C5AEF352E412C512C28C01A
:1013D0008091CB08833029F00894611C711C811C1A
:1013E000911CE091C708F091C808309799F0818D61
:1013F000928DA38DB48D88879987AA87BB87009724
:10140000A105B10539F040EA242E4FE0342E412CDD
:10141000512C0EC030EA232E3FE0332E412C512CAC
:101420002FEF3FEF4FEF5FEF288739874A875B87C2
:101430008091CB08882309F481C58091D2089091CE
:10144000D308A091D408B091D5080097A105B105A3
:1014500069F10E94F7179B01AC018091D608909129
:10146000D708A091D808B091D908281B390B4A0B8E
:101470005B0B8091D2089091D308A091D408B091D1
:10148000D508281739074A075B0718F081E090E074
:101490008DC0BC01CD01621B730B840B950B6215D3
:1014A00073058405950510F41B012C018091CB0870
:1014B000823021F0863011F0873041F538893323AE
:1014C000E9F00E9473182D893E894F89588D621B5F
:1014D000730B840B950B605070408140904028F056
:1014E0004FEF5FEF5A8F498F11C00E947318AD897B
:1014F000BE896A1B7B0B7A8F698F08C00E947318A4
:101500006D8B7E8B8F8B988F1A8E198E8091CB0866
:10151000853011F08823B9F4EF8DF8A1309719F0D8
:10152000CF010E9482292D8D3E8D232B19F418A204
:101530001F8E52C08D8D9E8D0E94194518A21F8E40
:101540001E8E1D8E49C08091C7089091C808892BB6
:1015500051F4EB8DFC8D87819085A185B285009734
:10156000A105B10539F52F8D38A1232B29F04D8D1B
:101570005E8D452B89F50AC084E490E00E94EF2936
:1015800098A38F8F8D8D9E8D892B31F484E292E00C
:101590000E941C459E8F8D8FAF8DB8A1AB2B21F083
:1015A000ED8DFE8DEF2B49F482E190E09093CD0814
:1015B0008093CC081092CB08ECCE80EC96E09A8316
:1015C000898322E030E0AE014F5F5F4F62E070E15F
:1015D0008F8D98A10E945029D090CB08F1E0DF16A2
:1015E000F9F40894611C711C811C911C8091B40950
:1015F0009091B509A091B609B091B7092C853D85A8
:101600004E855F8582239323A423B5230097A105EC
:10161000B10511F482E001C084E08093CB0879C465
:1016200032E0D31609F002C148894F5F4F835889D1
:10163000543038F081E090E09093CD088093CC084E
:1016400036C48C859D85AE85BF858B839C83AD8399
:10165000BE83AD8CBE8CACEEB0E0AA0EBB1EC98CB6
:10166000DA8CEE24FF248701A401930161E08D8DC3
:101670009E8D0E9437048C018B819C81AD81BE813F
:101680000097A105B10561F024E0AE014D5F5F4F09
:1016900062E3C501800F911F0E94AA04080F191F61
:1016A000C501800F911F0E948103080F191FACE82C
:1016B000B9E0FD0101900020E9F73197EA1BFB0B2F
:1016C0001E161F0654F42E2FAD016CE0C501800FCD
:1016D000911F0E94AA04080F191F40E452E069E319
:1016E000C501800F911F0E948404080F191F2D8DC2
:1016F0003E8D4FEF5FEF6FEF7FEF8F8D98A10E94D0
:10170000AF0797FF78C0D3C3E090C708F090C80830
:101710008D8D9E8D0E9429068C01009709F452C080
:10172000FC018081823021F0C8010E94E6054AC098
:10173000E114F10409F4FCC32091B0093091B1091E
:101740004091B2095091B3098091B4099091B509C3
:10175000A091B609B091B70982239323A423B5239E
:101760000097A105B105B9F0F70181819281A381AC
:10177000B48182179307A407B50709F4DAC3F80107
:1017800081819281A381B48182179307A407B50751
:1017900009F0CFC30FC0F80125A136A147A150A57C
:1017A000F70185A196A1A7A1B0A582179307A40769
:1017B000B50720F4C7010E94E605BAC3C8010E941C
:1017C000E605B7C3F092C808E092C708EF2899F081
:1017D0008091D2089091D308A091D408B091D508F7
:1017E000805E9E42A040B040C0F020EA222E2FE052
:1017F000322E412C512C820171012D8D3E8DB40170
:10180000A3018F8D98A10E94A508BC011816190686
:101810000CF47ACF99230CF44AC38091C7089091B5
:10182000C808892B09F476C383E0F7CE23E0D216EB
:1018300009F054C038893F5F3F834889443020F025
:1018400081E08093CB0866C3E091C708F091C80897
:10185000A180B280C380D480898D9A8D9F938F930D
:10186000818D928DA38DB48DBF93AF939F938F93F2
:10187000EE24FF248701A40193016D8D7E8D8F8D51
:1018800098A10E946208ADB7BEB716960FB6F8943D
:10189000BEBF0FBEADBF99230CF409C38201710115
:1018A0002D8D3E8DB401A3018F8D98A10E94A508B6
:1018B000BC0199230CF4FBC2892B09F42BC38D8D39
:1018C0009E8D0E9429069AA389A3009709F45FCDF3
:1018D000FC011081153009F442CDF3C1F4E0DF16AC
:1018E00009F059C028892F5F2F83243040F081E010
:1018F0008093CB081C861D861E861F860BC3498DD0
:101900005A8D5F934F931F921F921F921F92AC8428
:10191000BD84CE84DF84EE24FF248701A4019301DB
:101920006D8D7E8D8F8D98A10E946208ADB7BEB778
:1019300016960FB6F894BEBF0FBEADBF99230CF438
:10194000B6C2820171012D8D3E8DB401A3018F8D30
:1019500098A10E94A508BC0199230CF4A8C2892B68
:1019600009F4D8C28D8D9E8D0E9429069AA389A361
:10197000009709F40CCDFC011081153009F4CBCC93
:10198000163009F0CCC281E08093CB081C861D86FE
:101990001E861F86C4C2F5E0DF1609F04AC080ED3E
:1019A00098E00E941719E091C708F091C808E58CEB
:1019B000F68C078D10A10E94731829893A894B89EA
:1019C0005C89621B730B840B950B6E157F0580077A
:1019D000910710F086E021CEE091C708F091C80889
:1019E000E58CF68C078D10A10E94731829893A891D
:1019F0004B895C89621B730B840B950BE61AF70A03
:101A0000080B190BC801B701683339E8730731E4D3
:101A1000830730E0930720F067E379E881E490E002
:101A200028EE33E040E050E00E94EA49AB01BC01FF
:101A30006CC246E0D41609F0AEC0E091C708F09140
:101A4000C808A1A0B2A0C3A0D4A00E9473187B01B3
:101A50008C01C201B10128EE33E040E050E00E9469
:101A6000294A89899A89AB89BC89E81AF90A0A0B3B
:101A70001B0BAE18BF08C00AD10AA216B306C406D3
:101A8000D506E0F4E091C708F091C80821A032A083
:101A900043A054A00E94731829893A894B895C8914
:101AA000621B730B840B950B28EE33E040E050E093
:101AB0000E94EA49261A370A480A590AE091C708DB
:101AC000F091C808E1A0F2A003A114A10E9473182C
:101AD00029893A894B895C89621B730B840B950BAE
:101AE0006E157F058007910750F5E091C708F091CA
:101AF000C808A180B280C380D480418D528D638D8F
:101B0000748D898D9A8D9F938F931F921F921F9230
:101B10001F92DF92CF92BF92AF92840173012D8DFD
:101B20003E8D8F8D98A10E94DC07ADB7BEB71A9687
:101B30000FB6F894BEBF0FBEADBF97FF02C087E0DF
:101B40006CCDB889BF5FBF83820171012D8D3E8D41
:101B5000B401A3018F8D98A10E94A508BC0199230F
:101B60000CF4A5C1892B09F4D5C18D8D9E8D0E94E1
:101B700029069AA389A3009709F409CCFC011081D6
:101B8000153009F4ECCB163009F0C9C187E0809319
:101B9000CB081F82C4C1F7E0DF1609F099C0E091BD
:101BA000C708F091C808E1A0F2A003A114A10E9407
:101BB000731829893A894B895C89621B730B840BE2
:101BC000950BE61AF70A080B190BE214F304040547
:101BD0001505B0F4E091C708F091C80821A032A023
:101BE00043A054A00E947318261A370A480A590ABB
:101BF00089899A89AB89BC89281A390A4A0A5B0AF9
:101C0000E091C708F091C808E1A0F2A003A114A1D7
:101C10000E94731829893A894B895C89621B730B6E
:101C2000840B950B6E157F058007910718F0D092F5
:101C3000CB086FC138893F5F3F83E091C708F091BF
:101C4000C808E180F28003811481498D5A8D5F9329
:101C50004F931F921F921F921F9257016801A40178
:101C600093016D8D7E8D8F8D98A10E946208ADB716
:101C7000BEB716960FB6F894BEBF0FBEADBF992380
:101C80000CF415C1820171012D8D3E8DB401A301AB
:101C90008F8D98A10E94A508BC0199230CF407C15F
:101CA000892B09F437C18D8D9E8D0E9429069AA338
:101CB00089A3009709F46BCBFC011081153009F45E
:101CC00037CB163009F02BC181E08093CB0827C1B8
:101CD000F8E0DF1609F088C028892F5F2F83388944
:101CE000343008F0E4C0AD8CBE8C4CEE50E0A40E55
:101CF000B51EEB8DFC8DE780F08401851285CC2428
:101D0000DD24A401930168E08D8D9E8D0E9437042F
:101D10008C01C501800F911F0E948103080F191FBC
:101D2000ACE8B9E0FD0101900020E9F73197EA1B2A
:101D3000FB0B51F02E2FAD016CE0C501800F911F00
:101D40000E94AA04080F191F40E452E069E3C5018C
:101D5000800F911F0E948404080F191F2D8D3E8D46
:101D6000488559856A857B858F8D98A10E94AF072C
:101D700097FF0BC0288539854A855B852F5F3F4FCC
:101D80004F4F5F4F09F0C6C092C0820171012D8D87
:101D90003E8DB401A3018F8D98A10E94A508BC01BE
:101DA000009709F4B7C0181619060CF080C08D8D85
:101DB0009E8D0E9429069AA389A3009709F477C0F3
:101DC000DC018C91853009F072C08091C708909138
:101DD000C8080E94E605E9A1FAA1F093C808E093BB
:101DE000C7081AA219A263C0F9E0DF1609F076C08D
:101DF000E091C708F091C808309719F428892F831B
:101E00003EC038893F5F3F833130C9F5E180F280C1
:101E100003811481818D928DA38DB48D8B839C83DE
:101E2000AD83BE83CC24DD24A401930167E08D8DB6
:101E30009E8D0E9437048C018B819C81AD81BE8177
:101E40000097A105B10579F08D8D9E8D84519F4F2E
:101E500024E0AE014D5F5F4F66E3800F911F0E944B
:101E6000AA04080F191F2D8D3E8D488559856A8556
:101E70007B858F8D98A10E94AF0797FF0BC0888547
:101E80009985AA85BB858F5F9F4FAF4FBF4F09F0E4
:101E900041C00DC0820171012D8D3E8DB401A301A1
:101EA0008F8D98A10E94A508BC0197FF03C01092D6
:101EB000CB0830C0892B71F18D8D9E8D0E94290633
:101EC0009AA389A3009709F462CADC018C9185303A
:101ED00011F0863021F51092CB0821C0DD2019F0D9
:101EE000B889BF8317C08091C7089091C8080E9425
:101EF000E6051092C8081092C70880ED98E00E948D
:101F0000171940E050E060E070E08EEC98E00E942D
:101F100075191F82E9A1FAA1EF2B09F438CA89A12A
:101F20009AA10E94E605FF81F88B1AA219A231CA74
:101F30007801F092C808E092C7084ACC8091CB089B
:101F4000E9CAFC01872F99278083618382E090E0B2
:101F50000895FC01DB0120813327322F22271196BF
:101F60003C932E9381819927282B392B2D933C93D9
:101F700082E090E00895EF92FF920F931F93CF932A
:101F8000DF93EC018B01DB018D919C91009729F08F
:101F90000E94F313F801118210828881807C803CBA
:101FA00019F482E090E02CC0DE010D900020E9F7EA
:101FB0007D01EC1AFD0AC7010E948013FC01D801C3
:101FC0008D939C9399919E0113C08D91899341505B
:101FD000E0F7892F9927D901A80FB91FE80FF91F3A
:101FE0009C91992311F08EE281939D012F5F3F4FC9
:101FF000992321F0492FEF01D901E9CF1082C701C0
:10200000DF91CF911F910F91FF90EF9008958F92E4
:102010009F92AF92BF92CF92DF92EF92FF920F9377
:102020001F93CF93DF93EC016B0149015A0180911B
:10203000DA089091DB08009731F00E94F3131092B8
:10204000DB081092DA088091DC089091DD08009797
:1020500031F00E94F3131092DD081092DC082097F3
:1020600081F0FE0101900020E9F7CF018C1B9D0B50
:102070000E9480139093DB088093DA08BE010E94CF
:10208000E349C114D10481F0F60101900020E9F781
:10209000CF018C199D090E9480139093DD088093D5
:1020A000DC08B6010E94E3498092DE089092DF08C6
:1020B000A092E008B092E108E092E208F092E30812
:1020C0000093E4081093E508DF91CF911F910F91E1
:1020D000FF90EF90DF90CF90BF90AF909F908F9048
:1020E0000895EF92FF920F931F93EE24FF24870130
:1020F0000E9407101F910F91FF90EF9008952F926B
:102100003F924F925F926F927F928F929F92AF9287
:10211000BF92CF92DF92EF92FF920F931F93CF93D4
:10212000DF93CDB7DEB760970FB6F894DEBF0FBE72
:10213000CDBF9E878D87788B6F878091DE089091C9
:10214000DF08A091E008B091E1080097A105B10572
:1021500069F48091E2089091E308A091E408B091BD
:10216000E5080097A105B10509F4A2C280E090E05E
:102170000E94EF299A878987892B09F499C280E008
:1021800092E00E9480134C011C861B8666247724F3
:1021900018861F8222243324AB84BC8495012F5FD0
:1021A0003F4F3C872B876114710439F48CE090E039
:1021B0000E946C143C01892B69F02B853C85F3014E
:1021C0003183208380E091E09383828381E090E0FB
:1021D000958384838F819885892B41F486E090E0F4
:1021E0000E946C1498878F83892B31F1EF81F885D9
:1021F00080819181009711F00E94F313ED85FE8597
:1022000001900020E9F7CF012D853E85821B930BBD
:102210000E948013EF81F885918380836D857E8590
:102220000E94E3492F853889EF81F8853383228323
:1022300081E090E095838483F30160817181C40122
:102240000E94A10F8C01F30162817381C401800F90
:10225000911F0E94A10F080F191FF301648175815E
:10226000C401800F911F0E94A10F080F191FF301D5
:1022700066817781C401800F911F0E94A10F080F12
:10228000191FF30160857185C401800F911F0E94A1
:10229000A10F080F191FF30162857385C401800F18
:1022A000911F0E94A10F6801C80ED91E7401EC0C89
:1022B000FD1CEF81F885A081B181FD010190002016
:1022C000E9F78F01015010400A1B1B0B0E5F1F4FD7
:1022D00027010894411C511CF7011082970115C079
:1022E000B2016F5F7F4FAD014F5F5F4F8E3229F4B8
:1022F000F2011082DA01920107C0F2018083DA0153
:10230000F90180818F5F80832B018C91882341F7B5
:10231000F2011082EF81F88562817381C701800F1D
:10232000911F0E94A10F080F191FEF81F88564818A
:102330007581C701800F911F0E94A10F7801E80EDF
:10234000F91EEC0CFD1CA0FE0DC04091E20850915E
:10235000E3086091E4087091E508411551056105B5
:10236000710541F44091DE085091DF086091E0086A
:102370007091E108840125E330E089859A850E9407
:10238000AE2997FD38C168EEC62E63E0D62EE12C4B
:10239000F12C00E012E09401AE014F5F5F4FBE01EF
:1023A0006D5F7F4F89859A850E942E2A181619061F
:1023B0000CF01BC10D973CF3B301C4010E94A90F9F
:1023C0008C01B3016E5F7F4FC401800F911F0E948B
:1023D000A90F080F191FB3016C5F7F4FC401800F55
:1023E000911F0E94A90F080F191FB3016A5F7F4F49
:1023F000C401800F911F0E94A90F080F191FB3017C
:10240000685F7F4FC401800F911F0E94A90F080FC2
:10241000191FB301665F7F4FC401800F911F0E9497
:10242000A90F5801A80EB91EF301808191812B8557
:102430003C858217930709F0A6CFA114B10409F4D3
:10244000D4C084819581019709F0CFC084010A0D21
:102450001B1D6F817885C8010E94BB0F7C016F81B5
:1024600078856E5F7F4FC8018E0D9F1D0E94A90F5A
:102470006701C80ED91E6F8178856C5F7F4FC801D8
:102480008C0D9D1D0E94A90F7C01F301868197810F
:10249000892B09F4B0C026014E0C5F1C4A0C5B1C52
:1024A00051E0A52EB12C95C02114310429F48EE001
:1024B00090E00E946C141C017401E40CF51CB10145
:1024C000C7010E94BB0F8C01B1016E5F7F4FC70136
:1024D000800F911F0E94A90F080F191FB1016C5F97
:1024E0007F4FC701800F911F0E94A90F080F191F6E
:1024F0009701200F311FF9018191BF019927AA2768
:10250000BB27BA2FA92F982F8827F101868397839D
:10251000A087B187F9012181332744275527822BD2
:10252000932BA42BB52BBA2FA92F982F8827F10115
:1025300086839783A087B187FB01218133274427B6
:102540005527822B932BA42BB52BBA2FA92F982F6D
:102550008827F10186839783A087B187FB012281B9
:10256000332744275527822B932BA42BB52BF1011E
:1025700086839783A087B1870C5F1F4FB101665F89
:102580007F4FC701800F911F0E94A90F080F191FCD
:10259000F101C284D38484859585009711F00E944F
:1025A000F313C6010E948013F10195878487E00E22
:1025B000F11EA601B7010E94C949F10182819381F0
:1025C000019771F0C00ED11E4C0C5D1C0894A11C2B
:1025D000B11CF301868197818A159B050CF064CFAD
:1025E000F101828593850497D1F12B853C852630B6
:1025F000310509F0D1CDEE24FF2487016114710467
:1026000019F0C3010E94F3138F819885009759F048
:10261000FC0180819181009711F00E94F3138F815A
:1026200098850E94F3132114310489F0F10180810F
:102630009181009711F00E94F313F1018485958533
:10264000009711F00E94F313C1010E94F313C4011B
:102650000E94F31389859A850E9482292CC0F1017A
:1026600064857585FB01208181819927AA27BB2775
:10267000EE24F82E092F1A2FE20EF11C011D111D58
:102680002381332744275527522F442733272227D6
:1026900082819927AA27BB27DC0199278827280F41
:1026A000391F4A1F5B1FE20EF31E041F151FA6CF22
:1026B000EE24FF248701C801B70160960FB6F89495
:1026C000DEBF0FBECDBFDF91CF911F910F91FF9065
:1026D000EF90DF90CF90BF90AF909F908F907F90C2
:1026E0006F905F904F903F902F9008956FE070E053
:1026F0000E947F10089561E070E00E947F100895AD
:102700000F931F93CF93DF930091E6081091E70892
:102710008017910730F080E090E060C0EF01DB01AE
:102720002FC0AC014A5F5F4F4430510510F444E0C4
:1027300050E0E0917909F0917A0969E779E0C0E029
:10274000D0E0A0E0B0E017C0208131812417350728
:1027500060F02417350711F3209729F088819981BB
:102760002817390710F4EF01DB01BF016E5F7F4FBF
:102770000280F381E02D309739F7CE01209771F177
:1027800028813981CA010A966A817B818217930761
:1027900070F4FE01E40FF51F241B350B31832083F9
:1027A0007383628359834883ED93FC9302C06D93D6
:1027B0007C93E881F9810E1B1F0B1093E7080093AF
:1027C000E608EC0FFD1F34978FEE9EEBADEABEEDF1
:1027D00080839183A283B383CE010296DF91CF9150
:1027E0001F910F910895CF93DF93DC0112976D91A4
:1027F0007C911197E0917909F0917A09C9E7D9E0C4
:102800003AC040815181CF01840F951F8A179B07E1
:10281000C1F49A01260F371F31832083828193816F
:10282000DF01A20FB31FA817B90791F58D919C91F5
:102830001197280F391F31832083ED018A819B81F5
:1028400025C0AE17BF0778F4B983A8832D913C91BA
:102850001197CD01820F931F8E179F0779F0ED011D
:10286000FB83EA8315C0A817B90728F1EF01229668
:102870000280F381E02D309721F617C0240F351F19
:1028800011963C932E9382819381FD0193838283E1
:102890008091E6089091E708860F971F9093E708CC
:1028A0008093E60880E090E008C0FD011382128268
:1028B000B983A883EDCF8FEF9FEFDF91CF9108957C
:1028C000FC0161937193CF010E94F31308958091ED
:1028D000E6089091E70808950F931F93CF93DF9335
:1028E0008C010E948013EC01009729F0A80160E0A0
:1028F00070E00E94D249CE01DF91CF911F910F91DC
:102900000895CF93DF93DC019B01EC01788F6F8BEF
:102910001D821C820FB6F8940F92EB01E881F981B9
:102920008FEFEF3FF80749F4ED018C819D8101960F
:102930009D838C83E0E0F0E015C0309799F00F9014
:102940000FBEED019A8908C09F012E5F3F4F0280A4
:10295000F381E02D309719F082899817A8F70FB608
:10296000F8940F92ED01FB83EA83F901B183A08310
:10297000EA81FB81309771F084819581892B51F038
:102980008C819D8124813581820F931F9D838C834F
:10299000158214820F900FBEDF91CF910895CF93CF
:1029A000DF939C01DB010FB6F8940F92ED91FC913F
:1029B00011970F900FBE8FEFEF3FF80731F527C04B
:1029C00082819381E217F307E9F40FB6F8940F922E
:1029D00011969C938E9384819581892B59F0A281C5
:1029E000B381109729F084819581ED019D838C83BB
:1029F000158214820F900FBEF90113821282108E7D
:102A0000178A05C0DF011296FC013097C9F6DF91E5
:102A1000CF910895FB01168A158A82E087876DE7BA
:102A200079E0CF010E94811408950F931F93CF93F3
:102A3000DF938C01C0917B09D0917C090CC0B80157
:102A4000CE0106960E94D949892B11F4CE0107C008
:102A50000990D881C02D209791F780E090E0DF9118
:102A6000CF911F910F910895E0918109F091820912
:102A7000309741F0838994890E94F3131092820960
:102A8000109281090895CF93DF93C0917B09D09173
:102A90007C090E94341520917F0930918009EBE771
:102AA000F9E00AC088819981C217D30719F491838C
:102AB000808304C0FE01EC012097A1F780917F097B
:102AC000909180099093820980938109DF91CF9141
:102AD00008950F931F93182FE0917F09F0918009BB
:102AE00002896DE779E0CF010E94CF14E0917F0960
:102AF000F0918009128B1F3F49F06DE779E08091DA
:102B00007F09909180090E94811402C00E944315A0
:102B1000E0917F09F091800980917D0990917E0973
:102B2000E817F90719F481E0878709C082E08787F1
:102B30000FB6F8940F920E94741A0F900FBE802F58
:102B400099271F910F9108958FEF0E94691508959D
:102B5000CF93DF93C0917B09D0917C0920C00FB641
:102B6000F8940F928C819D810F900FBE892BA1F05C
:102B7000EF89F88D0FB6F8940F928C819D810197A3
:102B80009D838C830F900FBE808191818F5F9F4FBB
:102B900019F0CF010E9493180990D881C02D209779
:102BA000F1F60E946B17E0917F09F0918009809106
:102BB0007D0990917E09E817F90761F087858130DA
:102BC00011F482E087870FB6F8940F920E94741A6E
:102BD0000F900FBEDF91CF910895E0917F09F091A2
:102BE000800982819381892B69F06DE779E0CF01BB
:102BF0000E94CF146DE779E080917F099091800960
:102C00000E9481140E94A8150895809185099091D1
:102C10008609A0918709B09188090196A11DB11D6F
:102C20008093850990938609A0938709B0938809BA
:102C30000895CF93DF93EC011B821A82E091830900
:102C4000F09184091AC0288539854A855B8580857D
:102C50009185A285B385281739074A075B0780F05D
:102C6000281B390B4A0B5B0B288739874A875B8700
:102C7000FB83EA830190F081E02D309721F718C0A3
:102C8000821B930BA40BB50B80879187A287B38718
:102C9000F983E883D383C283EA81FB81309719F0FB
:102CA000D183C08308C0D0938409C093830903C033
:102CB00019821882F1CFDF91CF9108950FB6F89461
:102CC0000F92609185097091860980918709909192
:102CD00088090F900FBE0895CF93DF93EC01EA812E
:102CE000FB8188819981309719F09183808304C09A
:102CF0009093840980938309E881F9813097A1F04A
:102D00008A819B819383828380859185A285B38507
:102D1000288539854A855B85820F931FA41FB51FBF
:102D200080879187A287B387CE010E94F313DF913A
:102D3000CF910895AF92BF92CF92DF92EF92FF9220
:102D40000F93CF93DF936B017C01EA01590180E17E
:102D500090E00E948013FC01892B81F10FB6F8945A
:102D60000F928091850990918609A0918709B09171
:102D700088090F900FBE8C0D9D1DAE1DBF1D2091AB
:102D8000E8083091E9084091EA085091EB08821B6D
:102D9000930BA40BB50B80879187A287B38700FFA5
:102DA00005C0148215821682178204C0C482D5829F
:102DB000E682F782D587C487B786A686CF01DF91E2
:102DC000CF910F91FF90EF90DF90CF90BF90AF9099
:102DD00008950F93CF93DF930E949A16EC0100970A
:102DE00011F00E941916CE01DF91CF910F91089535
:102DF000CF92DF92EF92FF920F936A0179010E94C6
:102E00009D1B9701A6010E94E9160F91FF90EF907C
:102E1000DF90CF900895AF92BF92CF92DF92EF9262
:102E2000FF920F93CF93DF935B016C0161157105E6
:102E300081059105D1F1CDE7D9E0BE0180917F09EF
:102E4000909180090E94CF14E0917F09F091800950
:102E500083E08787E0907F09F090800901E0970187
:102E60004AE055E1C601B5010E94F816F701968BBC
:102E7000858B892B19F00E94A81519C0E0917F0954
:102E8000F0918009D08FC78B80917D0990917E0948
:102E90009383828381E0878780917F099091800965
:102EA00090937E0980937D0902C00E94ED15DF9109
:102EB000CF910F91FF90EF90DF90CF90BF90AF90A8
:102EC000089585E096E10E94781BE0E7F0E08081BC
:102ED000826080830895EF92FF920F931F93CF93A8
:102EE000DF930FB6F8940F922091850930918609EF
:102EF00040918709509188090F900FBE8091E80892
:102F00009091E908A091EA08B091EB0879018A0153
:102F1000E81AF90A0A0B1B0B2093E8083093E9081A
:102F20004093EA085093EB084FC088859985AA859D
:102F3000BB85E816F9060A071B07A0F48E199F093E
:102F4000A00BB10B88879987AA87BB870097A1053B
:102F5000B10521F0EE24FF24870136C0EE24FF24C2
:102F6000870108C0E81AF90A0A0B1B0B1886198694
:102F70001A861B86EC85FD85309721F06E857F854E
:102F8000CE0119958C819D81AE81BF8188879987FB
:102F9000AA87BB870097A105B10521F4CE010E9445
:102FA0006C1612C0E0918309F09184090190F081C0
:102FB000E02DF0938409E0938309309711F0138298
:102FC0001282CE010E941916C0918309D091840902
:102FD000209731F0E114F1040105110509F0A5CFA6
:102FE000DF91CF911F910F91FF90EF9008952F9255
:102FF0003F924F925F926F927F928F929F92AF9289
:10300000BF92CF92DF92EF92FF920F931F93CF93D5
:10301000DF93CDB7DEB724970FB6F894DEBF0FBEAF
:10302000CDBF0FB6F8940F92A0908509B090860995
:10303000C0908709D09088090F900FBE0E94731B23
:103040009B01AC01C601B5010E94294A39014A0120
:103050000E94731B1B012C010E94731B69837A83DE
:103060008B839C83C401B30128EE33E040E050E041
:103070000E94EA497B018C01C401B301A2019101C4
:103080000E94EA49A61AB70AC80AD90AC601B501B8
:1030900028EE33E040E050E00E94EA4929813A817D
:1030A0004B815C810E94294AE20EF31E041F151F0A
:1030B000C801B70124960FB6F894DEBF0FBECDBF8E
:1030C000DF91CF911F910F91FF90EF90DF90CF9004
:1030D000BF90AF909F908F907F906F905F904F9038
:1030E0003F902F900895EF92FF920F931F930FB68A
:1030F000F8940F92E0908509F09086090091870975
:10310000109188090F900FBE0E94731B9B01AC01A8
:10311000C801B7010E94294ACA01B9011F910F9144
:10312000FF90EF900895CF93DF93DC010FB6F894F2
:103130000F92CD91DC9111970F900FBE8FEFCF3F83
:10314000D80709F43AC0209771F10FB6F8940F929E
:10315000EA81FB811196FC93EE938C819D81892BF2
:1031600071F0309729F08C819D819583848305C00F
:103170008FEF9FEF11969C938E931D821C820F9070
:103180000FBE8D899E89009721F00E946C161E8AC1
:103190001D8A82E08F876DE779E0CE010E9481145D
:1031A00081E090E00CC00FB6F8940F928FEF9FEF84
:1031B00011969C938E930F900FBE80E090E0DF916C
:1031C000CF9108950F931F93CF93DF93EC010FB628
:1031D000F8940F92888199810F900FBE2FEF8F3F47
:1031E000920741F40FB6F8940F92198218820F904B
:1031F0000FBE02C0892B19F400E010E012C000E0FD
:1032000010E0CE010E949318080F191F0FB6F89412
:103210000F92888199810F900FBE01978E5F9F4F0B
:1032200080F3C801DF91CF911F910F9108950F9303
:103230001F930E94E2188C010E94ED15C8011F9196
:103240000F9108950F931F930E9493188C010E9471
:10325000ED15C8011F910F910895CF93DF93AC0135
:10326000DB010FB6F8940F92CD91DC9111970F907E
:103270000FBE8FEFCF3FD80799F534C08D899E8957
:103280002A813B818417950741F50FB6F8940F9278
:1032900011963C932E938C819D81892B81F0EA813C
:1032A000FB81309729F08C819D819583848305C0B3
:1032B0008FEF9FEF11969C938E931D821C820F902F
:1032C0000FBE82E08F876DE779E0CE010E94811406
:1032D0008FEF9FEF9E8B8D8B05C0DE011296E9016B
:1032E000209761F6DF91CF910895AF92BF92CF9270
:1032F000DF92EF92FF920F93CF93DF93EC015A018D
:103300006B010FB6F8940F92888199810F900FBED0
:103310008F5F9F4F51F40FB6F8940F921982188265
:103320000F900FBE0E94ED1538C06DE779E08091D7
:103330007F09909180090E94CF14BE0180917F097E
:10334000909180090E948114E0917F09F091800999
:1033500083E08787E0907F09F0908009A114B10491
:10336000C104D10461F001E09E014DE259E1C601C2
:10337000B5010E94F816F701968B858B03C0F70103
:10338000168A158A0E94A815E0917F09F09180099C
:10339000858996898F5F9F4F19F080E090E004C087
:1033A000168A158A8FEF9FEFDF91CF910F91FF90D3
:1033B000EF90DF90CF90BF90AF900895FC010FB6D3
:1033C000F8940F92808191818F5F9F4F11F4118249
:1033D00010820F900FBECF010E94751908950F93B0
:1033E0001F93CF93DF938C01C091EC08D091ED082F
:1033F0000AC0B801CE0102960E94D949892B29F052
:103400000990D881C02D2097A1F7CE01DF91CF91EF
:103410001F910F910895CF93DF93EC01892B11F148
:103420006115710511F07D876C8741114E87CE01C2
:1034300002960E94EF19892BA9F4EB89FC89309739
:1034400021F0CE011995892B69F48091EC089091B7
:10345000ED0899838883D093ED08C093EC0880E051
:1034600090E002C08FEF9FEFDF91CF91089583E14D
:10347000809389098FE480938A0983E580938B097F
:1034800043E150E069E879E080E090E00E94BF23EA
:10349000892B19F08FEF9FEF089580E090E0089559
:1034A00043E150E069E879E080E090E00E94C223C7
:1034B000892B79F480918909833159F480918A09A3
:1034C0008F3439F480918B09833519F480E090E0D2
:1034D00008958FEF9FEF08959F918F910F900BBEEE
:1034E0000F900FBE1F9018952F923F924F925F92B0
:1034F0006F927F928F929F92AF92BF92CF92DF9204
:10350000EF92FF920F931F93CF93DF938DB79EB7E8
:10351000E0917F09F0918009918B808BE0917D098A
:10352000F0917E09F0938009E0937F0981E087871D
:10353000E0917F09F0918009808991898DBF9EBFBC
:10354000DF91CF911F910F91FF90EF90DF90CF907F
:10355000BF90AF909F908F907F906F905F904F90B3
:103560003F902F900895AF92BF92CF92DF92EF924B
:10357000FF920F931F93CF93DF937C016B015A014E
:10358000E901C90149960E948013BC01009719F412
:1035900080E090E07CC08C010C0F1D1FE801289793
:1035A000A8014D515040C801069628E0D7010D9062
:1035B0007D01FC010192CF012150C1F7F80116866F
:1035C00041505040518B408B4F5F5F4F748B638BEA
:1035D0008FEE9EEBADEABEEDFB0180839183A2836B
:1035E000B38384839583A683B78380879187A287DB
:1035F000B38784879587A687B78780E4F801828B95
:103600001D828D2D99278E83CF8280E88B831A822D
:103610001C82A9828B2D99278883FA01128A2CE6B5
:103620003AE1832F9927838B248B80917B0990919A
:103630007C09D8018D939C9310937C0900937B099E
:1036400082E0F82EF801F786168A158A108E178AFE
:103650006DE779E0C8010E948114E0917F09F09143
:103660008009309721F40FB6F8940F9257CF8091CC
:103670007D0990917E09E817F90741F0F7860FB6AA
:10368000F8940F920E94741A0F900FBEC801DF9138
:10369000CF911F910F91FF90EF90DF90CF90BF904F
:1036A000AF9008951F93182F6091EE087091EF0866
:1036B0008091F0089091F10820EA3FE040E050E06E
:1036C0000E94294A822F932F0197F1F71A95D1F77B
:1036D0001F9108956091EE087091EF088091F008B5
:1036E0009091F10808956AEE73E080E090E008950B
:1036F00020E030E041EE50E02093EE083093EF08F8
:103700004093F0085093F108E0E7F0E020812D7F2E
:1037100020831092B20032E03093B00025E0209375
:10372000B10022E72093B30035BB40E050E0BC017C
:1037300086ED93E00E947F2108952AEE33E040E079
:1037400050E00E94EA4928EE33E040E050E00E9459
:10375000294A211531054105510521F421E030E0C8
:1037600040E050E0CA01B90108959C01FB0180913D
:103770007000482F552742705070809170008D7FE7
:103780008093700020313105D9F0213131053CF4AE
:103790002115310581F02130310551F40EC022315F
:1037A000310579F122313105DCF020323105D9F0D3
:1037B0002FEF3FEF1EC040E050E082E087BB17C014
:1037C000B99B05C081E090E09183808302C01182A3
:1037D0001082452BB1F08081918180689183808334
:1037E00020E030E008C088E090E09183808320E012
:1037F00030E0452B41F08091700082608093700032
:1038000002C020E030E0C90108951F920F920FB668
:103810000F9211242F933F934F935F936F937F9356
:103820008F939F93AF93BF93EF93FF9386ED93E0B6
:103830000E947121FF91EF91BF91AF919F918F9164
:103840007F916F915F914F913F912F910F900FBE9C
:103850000F901F90189588E18093C10080E090E060
:103860000895982F8091C00085FFFCCF9093C600EB
:103870009A3011F49DE0F6CF0895EF92FF920F93E6
:103880001F93CF93DF937A018B01EA0105C0F80102
:1038900081918F010E94311C2197FFEFCF3FDF07FD
:1038A000B1F7C701DF91CF911F910F91FF90EF907A
:1038B0000895EF92FF920F931F93CF93DF937A01B6
:1038C0008A01EB0105C0FE0184910E94311C219602
:1038D00001501040FFEF0F3F1F07A9F7C701DF910D
:1038E000CF911F910F91FF90EF9008951092F308E0
:1038F0001092F2089093F5088093F4081092F7085C
:103900001092F60882EF98E0089580E090E0089524
:10391000CF93DF93EA016150714019F08FEF9FEF71
:1039200020C00E946A1B660F771F881F991F28817D
:1039300039814A815B81E4E0220F331F441F551F08
:10394000EA95D1F70E94294A2F5F3F4F4F4F5F4FB3
:10395000569547953795279521502093C40080E0D0
:1039600090E0DF91CF910895E82F83E080930EC01F
:10397000809108C08A7F982F986020E0782F796026
:10398000582F5D60709308C0509308C02F5F21329C
:10399000C9F7909308C0492F4460409308C07093C2
:1039A00008C0509308C0662349F0909308C0409324
:1039B00008C0709308C0509308C008C0709308C036
:1039C000509308C0909308C0409308C080E0909343
:1039D00008C0409308C08F5F8530C9F760E120E0E0
:1039E00030E08E2F862329F0709308C0509308C0D2
:1039F00004C0909308C0409308C066952F5F3F4F66
:103A00002530310571F7909308C0892F99270895C3
:103A100060E00E94B41C482F477F409308C0642F89
:103A20006460609308C020E030E050E0409308C03C
:103A3000609308C0220F331F809108C09927969584
:103A4000879581709070282B392B5F5F503171F70B
:103A5000409308C0C9010895CF93DF93EB0161E063
:103A60000E94B41C282FF82FF160F09308C0E82FB3
:103A7000E560E09308C0809308C0382F346030932D
:103A800008C060E070E840E050E0CE018623972354
:103A9000892B29F0F09308C0E09308C004C020935C
:103AA00008C0309308C0769567954F5F5F4F4031EF
:103AB000510559F7277F209308C0DF91CF910895D2
:103AC000CF93DF93FC01C189D2898C859D85AE851A
:103AD000BF850196A11DB11D8C879D87AE87BF87CD
:103AE00092E090930EC040910DC010920DC0809155
:103AF0000CC08423282F332722FF05C084E0809345
:103B00000CC04B7F14C021FF12C010920EC08091D8
:103B100000C08160809300C0809100C0109201C0FD
:103B200090930EC090930CC080EA809300C024FF55
:103B300018C080E180930CC088819981892B29F479
:103B40008FEF9FEF998388830CC0888199818F5F65
:103B50009F4F39F0E881F9818481958101969583A1
:103B6000848326FF18C080E480930CC088819981EB
:103B7000892B29F48FEF9FEF998388830CC088816C
:103B800099818F5F9F4F39F0E881F9818481958118
:103B900001969583848320FF19C081E080930CC037
:103BA0004E7F88819981892B29F48FEF9FEF99832C
:103BB00088830CC0888199818F5F9F4F39F0E8819D
:103BC000F9818481958101969583848323FF17C0B1
:103BD000477FE091FA08F091FB08309739F48FEFB6
:103BE0009FEF9093FB088093FA0809C05FEFEF3FC7
:103BF000F50729F08481958101969583848340930C
:103C00000DC0DF91CF910895FC016115710569F038
:103C10009B0121503040832F9927982F81918093C9
:103C200008C02150D8F79150C8F70895CF93DF937B
:103C3000EC01ED98E989FA8980E211928A95E9F719
:103C4000AE0160E67DE18EE494E00E947F21892B45
:103C500019F08FEF9FEF0BC020E832E0AE0162E574
:103C60007FE18FEF93E00E94B31A80E090E0DF9154
:103C7000CF910895CF93DF93EC0107C0809100C0EE
:103C800080FF09C081E00E94521B21978FEFCF3F38
:103C9000D807A1F705C0CD2B19F48FEF9FEF02C015
:103CA00080E090E0DF91CF910895CF92DF92EF9284
:103CB000FF920F931F93CF93DF93EC018B01409101
:103CC0002704509128046091290470912A0488EFF8
:103CD00098E00E947519892B09F0CCC0C988DA8850
:103CE000F801C185D28585859685C80FD91F818940
:103CF0009289C80FD91FF5E0CD3DDF0708F0B3C0AA
:103D0000F0900DC010920DC082E080930EC080E252
:103D1000809300C084E690E00E943A1E892B09F04F
:103D2000A2C088E0F82AF0920DC02696F80185819D
:103D30009681C80FD91FC0FD02C0EE242DC0219668
:103D400091E0E92E29C04DE750E060E070E08AEF95
:103D500098E00E947519892BF9F080E4809300C0E7
:103D600088EE93E00E943A1E80E2809300C084E6D1
:103D700090E00E943A1E892B21F480910CC083FDB3
:103D80000BC04DE750E060E070E08AEF98E00E94E1
:103D90007519892B09F067C080910CC083FFD3CFC0
:103DA000F0900DC010920DC0809103C0809302C0AE
:103DB000109206C080E4809307C0109208C0109251
:103DC00008C0C09308C08D2F9927809309C0F801BF
:103DD00065817681838194810E94041EF80161854A
:103DE0007285878190850E94041EF801658576851D
:103DF000838594850E94041EF801618972898785F4
:103E000090890E94041EEE2011F0109208C01092BA
:103E100008C0109209C084E690E00E943A1E892BE7
:103E200011F580EC809300C0F6E0FF2AF0920DC0FF
:103E3000F60180859185A285B3850196A11DB11DEE
:103E400080879187A287B38788E893E1A0E0B0E0FC
:103E50008093270490932804A0932904B0932A0404
:103E6000C0E0D0E002C0CFEFDFEF88EF98E00E9423
:103E700022190EC084EF91E0A0E0B0E08093270407
:103E800090932804A0932904B0932A04CFEFDFEF86
:103E9000CE01DF91CF911F910F91FF90EF90DF90B6
:103EA000CF9008954C01EC01AF84B888C988DA88B6
:103EB000F50181819281A381B4810197A109B109A2
:103EC0008E5F9F4FAF4FBF4F38F06FE370E080E0E1
:103ED00090E00E940B17ECCF75010894E11CF11CD7
:103EE00010920DC010920EC0109204C080E8809312
:103EF00005C011E010930EC0109200C0809301C065
:103F00008AE00E94521B10920EC0109204C01092C0
:103F100005C0109200C0109201C010930EC0109204
:103F20000CC088E080930DC082E080930EC080E4D6
:103F3000809300C088EE93E00E943A1E892B09F01E
:103F400075C0EEC06FE370E080E090E00E940B1758
:103F500080E00E94081D97FF06C0C430D10509F417
:103F600065C02196EFCF82E10E94081D60EC7FE3DF
:103F700083E10E942C1D10920EC080E180930AC044
:103F800088E080930BC061EE71E084E00E942C1DFC
:103F90006FE370E080E090E00E940B17C0E0D0E09B
:103FA000CE018F779070892B59F460E072E180E048
:103FB0000E942C1D6FE370E080E090E00E940B17E0
:103FC00081E00E94081D85FDC5C06FE370E080E0C0
:103FD00090E00E940B17219624E0C030D20731F107
:103FE000DFCFF701EA0FFB1F8081AC5FBF438C93EB
:103FF000A350B04CA630B105A1F782E080930EC06B
:1040000081E580930DC080916A00846080936A008E
:1040100080916A00886080936A00ED9A88EF98E04A
:104020000E94221989E00E94691507C068EE73E0BA
:1040300080E090E00E940B174FCF40ED57E060E02A
:1040400070E0C6010E947519F0900DC010920DC06D
:1040500013C0E6018C819D81AE81BF810196A11DB7
:10406000B11DF60184839583A683B783E501EB8DAB
:10407000FC8DBA01C401199582E080930EC0809135
:1040800004C0909105C097FD46C0109206C080EE16
:10409000809307C00000000000000000809108C06D
:1040A000909109C0C09108C0D09109C080709C7ADD
:1040B000892B09F059C0CE0182549040835B954012
:1040C00008F052C08E0103501040A80160E180E06A
:1040D00090E00E946222AC01009709F441C0FC010B
:1040E00083819481012B71F0FC019E0124503040AA
:1040F000832F9927982F809108C081932150D8F75A
:104100009150C8F780E8809300C0FFEF4F3F5F07F2
:1041100009F09FCFB1CF21E4F22AF0920DC08DCFEC
:1041200083E080930EC087E080930CC010920EC095
:10413000109204C081E0809305C081E8809300C0A4
:10414000109201C060E070E880E00E942C1DC0E089
:10415000D0E0F8CE81E080930EC0A0E0B0E041CF87
:1041600080E8809300C0D7CF80E8809300C084CFE0
:104170009C01FB018DB3482F552740725070ED987C
:1041800021313105E9F1223131054CF4213031057D
:1041900019F12031310519F1232BA1F073C0283119
:1041A000310589F1293131052CF42231310509F02D
:1041B00069C06EC029313105D9F12032310509F0CD
:1041C00061C027C080916A008B7F80936A008091D4
:1041D0006A00877F80936A0080E28CBB1EC0E59BEB
:1041E00005C081E090E09183808302C0118210823B
:1041F000452B09F44DC08081918180689183808333
:1042000080E090E043C080916A00982F987083FF0F
:1042100007C085E090E09183808380E090E034C027
:10422000943019F487E090E0F6CF81E090E0F3CF8E
:10423000608171816130710521F480916A008B7F0A
:1042400006C06730710549F480916A0084608093EC
:104250006A0080916A00877F12C06530710521F481
:1042600080916A008B7F06C06630710559F4809199
:104270006A00846080936A0080916A0088608093FD
:104280006A00CBCF8FEF9FEF452B21F0ED9A089579
:1042900080E090E008951F920F920FB60F921124C4
:1042A0002F933F934F935F936F937F938F939F933E
:1042B000AF93BF93EF93FF938EE494E00E9471213C
:1042C000FF91EF91BF91AF919F918F917F916F91EE
:1042D0005F914F913F912F910F900FBE0F901F90C4
:1042E0001895CF93DF93DC01EC01EA81FB813097D5
:1042F00019F08D919C911995DF91CF910895EF92CE
:10430000FF920F931F93CF93DF93EC017B018A0100
:10431000EC81FD81309719F480E090E005C060E009
:1043200070E080E090E0199519830883FB82EA82AF
:10433000DF91CF911F910F91FF90EF900895CF9350
:10434000DF93EC01EC81FD81309719F48FEF9FEF43
:1043500005C060E070E081E190E01995DF91CF91B8
:104360000895CF93DF93EC01EC81FD81309719F430
:104370008FEF9FEF05C060E070E082E190E019955B
:10438000DF91CF9108950F931F93CF93DF93CDB714
:10439000DEB724970FB6F894DEBF0FBECDBF8C01F9
:1043A0007C836B83FC01248135812115310519F44F
:1043B0008FEF9FEF17C0BE016F5F7F4F80E290E0ED
:1043C000F9011995009771F4F80124813581BE0136
:1043D0006D5F7F4F81E290E0F9011995009711F42C
:1043E00089819A8124960FB6F894DEBF0FBECDBFA7
:1043F000DF91CF911F910F9108950F931F93CF934A
:10440000DF93CDB7DEB724970FB6F894DEBF0FBEAB
:10441000CDBF8C017C836B83FC0124813581211508
:10442000310519F48FEF9FEF17C0BE016F5F7F4F0B
:1044300088E190E0F9011995009771F4F801248161
:104440003581BE016D5F7F4F89E190E0F9011995DB
:10445000009711F489819A8124960FB6F894DEBFF3
:104460000FBECDBFDF91CF911F910F9108950F9394
:104470001F938C01FC01808191810E94F313F8014C
:1044800011821082138212821F910F9108950F934F
:104490001F93CF93DF93EC018B01CB010E9480131C
:1044A00099838883892B29F41B821A828FEF9FEFCF
:1044B00004C01B830A8380E090E0DF91CF911F91BD
:1044C0000F910895BF92CF92DF92EF92FF920F93D8
:1044D0001F93CF93DF93EC01B62E7A01892B41F421
:1044E00083E190E00E946C14EC01892B09F4A7C0D1
:1044F000BB2009F4A4C0E114F10409F480C0CB2C62
:10450000DD24C4FE1CC08A8184FF11C08D819E8180
:104510008E159F0548F48E010D5F1F4FC8010E9444
:104520003722B701C80106C0FE82ED8208C0B7017C
:10453000CE0103960E944722892B09F057C0C5FE81
:104540001BC08A8185FF11C089859A858E159F05BC
:1045500048F48E01095F1F4FC8010E943722B7013E
:10456000C80106C0FA86E98607C0B701CE010796E2
:104570000E944722892BD1F5C6FE1BC08A8186FF87
:1045800011C08D859E858E159F0548F48E01055FAF
:104590001F4FC8010E943722B701C80106C0FE861E
:1045A000ED8607C0B701CE010B960E944722892BEA
:1045B000E9F4B7FE21C08A8187FF11C089899A89F1
:1045C0008E159F0548F48E01015F1F4FC8010E94A0
:1045D0003722B701C80106C0FA8AE98A0DC0B701BF
:1045E000CE010F960E944722892B31F0CE010E9406
:1045F0002A23C0E0D0E023C08A818B291FC0FA8023
:10460000FB200F2D112704FF04C0CE0103960E944A
:10461000372205FF04C0CE0107960E94372206FF0D
:1046200004C0CE010B960E943722F7FE04C0CE01D3
:104630000F960E943722F0948A818F218A83CE01BF
:10464000DF91CF911F910F91FF90EF90DF90CF906E
:10465000BF900895CF93DF93EC01009769F040E09D
:1046600050E06A810E946222CE010E94F313892BDE
:1046700019F08FEF9FEF02C080E090E0DF91CF91C3
:104680000895EF92FF920F931F93CF93DF938C01C6
:1046900083E190E00E946C14EC01009779F07C01BA
:1046A000F8016581768161157105B9F003960E9464
:1046B0004722892B31F0CE010E942A23EE24FF24C9
:1046C00056C0F80163817481458156818B819C813C
:1046D0000E94C9498A8180618A83F8016185728557
:1046E0006115710591F0CE0107960E944722892B32
:1046F00081F5F80167817085418552858F819885A4
:104700000E94C9498A8180628A83F801658576851D
:104710006115710591F0CE010B960E944722892BFD
:10472000C1F4F80163857485458556858B859C8524
:104730000E94C9498A8180648A83F80161897289EB
:1047400061157105A1F0CE010F960E944722892BB9
:1047500011F0CE01B1CFF801678570894189528986
:104760008F8598890E94C9498A8180688A83C70198
:10477000DF91CF911F910F91FF90EF9008950E94CC
:10478000C52308950E94E5230895CF93DF93EA019E
:104790009C0140E050E0FB0110C0D9010E944B4A4F
:1047A000802D9081981721F0D901092E0E94534A3B
:1047B0004F5F5F4F31962F5F3F4F4C175D0769F793
:1047C00080E090E0DF91CF910895CF93DF93EA01ED
:1047D000DC01FB01219724F00E944B4A0192FACFA1
:1047E00080E090E0DF91CF9108950F931F93CF93D6
:1047F000DF938C01C0911C09D0911D09FE011BC0E3
:10480000808D918D8017910799F4828D938DA48D61
:10481000B58D82179307A407B50751F4868D978D40
:104820008617970729F48389882311F0CF0117C0D1
:104830000190F081E02D309719F70DC08B89813000
:1048400039F4888D998D8017910711F4CE0107C036
:104850000990D881C02D209789F780E090E0DF9102
:10486000CF911F910F910895CF93DF93FC01EA013F
:10487000892B09F459C080E162307807E1F080E1CA
:104880006330780744F46230710569F0615070411B
:1048900009F044C032C080E165307807B1F066505D
:1048A0007041E1F51AC0452B69F12230310551F50F
:1048B000EE5AFF4F07C0452B29F12230310511F583
:1048C000E85BFF4F8081918124C0452BD9F02430D3
:1048D0003105C1F4E659FF4F07C0452B99F024304C
:1048E000310581F4EA59FF4F80819181A281B38122
:1048F00088839983AA83BB830EC0452B19F022308D
:10490000310529F0E05AFF4F86E190E00BC0818924
:1049100092899983888380E090E008C0E05AFF4F35
:104920008AE397E2918380838FEF9FEFDF91CF91AE
:104930000895FC01892B19F486E397E20895E05A63
:10494000FF4F808191810895CF93DF93DC01EA01CD
:104950006A30710561F06A30710534F06B307105B1
:1049600091F06C30710519F08FEF9FEF17C0FD01CA
:10497000E65BFF4FAA5BBF4F8D919C9120813181F7
:10498000821B930B03C0FC0185859685AA27BB2754
:1049900088839983AA83BB8380E090E0DF91CF91E5
:1049A0000895CF93DF93EC0107C0808191818D93AF
:1049B0009C93CF010E942A23DE01A45BBF4FED919F
:1049C000FC911197309789F707C08081918199AF49
:1049D00088AFCF010E942A23E8ADF9AD3097A9F73F
:1049E00007C0808191818D939C93CF010E942A23DF
:1049F000DE01A05BBF4FED91FC911197309789F7D5
:104A0000DF91CF9108954F925F926F927F928F9234
:104A10009F92AF92BF92CF92DF92EF92FF920F934D
:104A20001F93CF93DF93EC012B013A010E94ED1508
:104A3000209761F08B89843061F08B89853049F053
:104A4000C05ADF4F89E497E2998388834FEF5FEF85
:104A5000B3C04114510409F4A2C061147104A1F45B
:104A60009EC08B89843061F7CA59DF4F48815981D4
:104A70006A817B81C656D040CE01825B9F4F0E94E7
:104A80007519892B09F08BC0CA5BDF4F888199812A
:104A90002496C880D980CA54D0408C159D0509F34E
:104AA0008C199D098615970518F08824992441C012
:104AB000009719F46624772470C03C01F6CFC45BDC
:104AC000DF4FA880B980CC54D040F501018912890C
:104AD0000C191D097301E818F908C201880D991D08
:104AE000678570890E151F0508F45CC06C0D7D1D6F
:104AF000A7010E94C9498E0C9F1CCE0CDF1CE0163A
:104B0000F106B8F0C45BDF4FF50180819181998394
:104B10008883CC54D040FE01EA5BFF4F80819181B5
:104B20008C199D0991838083C5010E942A23CC247E
:104B3000DD248614970418F2C65BDF4FD982C88241
:104B4000CA54D0408B89843041F5FE01EC5BFF4FA5
:104B5000408151819A01260D371DC85BDF4F888146
:104B60009981C854D0402817390708F4C901CE5A92
:104B7000DF4F28813981C255D0402417350748F0CE
:104B80002817390730F491838083CE010E94663262
:104B900004C0CC5BDF4F99838883A3010DC040E044
:104BA00050E00AC06C0D7D1DA8010E94C949800E0D
:104BB000911EC00ED11EA6CFCA01DF91CF911F91C9
:104BC0000F91FF90EF90DF90CF90BF90AF909F90AC
:104BD0008F907F906F905F904F9008950E94032573
:104BE0000895CF92DF92EF92FF920F931F93CF938E
:104BF000DF93EC016B018A010E94ED15209709F407
:104C000051C0C114D10409F450C00115110509F4B3
:104C10004CC0CE5ADF4FE880F980C255D0400E1507
:104C20001F0508F478018B898430B1F549A55AA590
:104C30008DA19EA1481B590B9A0136952795369553
:104C40002795CE5ADF4F88819981C255D0402817C9
:104C5000390738F48DA99EA9841B950B8E159F05E5
:104C600078F4C659DF4F488159816A817B81CA56E1
:104C7000D040CE01CA960E947519892BB1F4D3CFCA
:104C800088A1806188A3A701B601CE010E940730E8
:104C9000892B41F4A7010BC0C05ADF4F89E497E28A
:104CA000998388834FEF5FEF02C040E050E0CA0174
:104CB000DF91CF911F910F91FF90EF90DF90CF90F8
:104CC0000895CF92DF92EF92FF920F931F93CF93AD
:104CD000DF936C017B018A01C0E0D0E011C0A80124
:104CE0004C1B5D0BB7016C0F7D1FC6010E94F125A7
:104CF000181619061CF0CFEFDFEF05C0C80FD91F3B
:104D0000C017D10764F3CE01DF91CF911F910F91AE
:104D1000FF90EF90DF90CF900895AF92BF92CF9227
:104D2000DF92EF92FF920F931F93CF93DF93EC01EB
:104D30005B018A01892B09F4ABC08B89843039F07F
:104D4000C05ADF4F89E497E299838883A1C0ED853B
:104D5000FE8541155105A9F4309709F49BC06F8574
:104D60007889AF01CE010E9461262F85388997FF8F
:104D700002C0C90173C0C9010E94F3131E861D86BB
:104D800089C06B0169897A89309729F546175707D9
:104D900010F47A0114C0CA010E94154A7C0168010E
:104DA000C81AD90AA601B501CE010E94612697FD55
:104DB0006FC0E114F10409F46DC0CA0CDB1C8989D1
:104DC0009A890E948013988B8F87009709F460C09E
:104DD000A701B60154C0CF01840F951F2F853889D4
:104DE0008617970768F4B501CF01820F931F0E94C1
:104DF000C9498D859E85800F911F9E878D874AC0EA
:104E00007B01EE1AFF0AA701B501CF01820F931FA4
:104E10000E94C94949895A896F857889CE010E94C3
:104E200061269923CCF06501CE0CDF1C98012E1968
:104E30003F0969897A8926173707C0F0C8010E949F
:104E4000154A7C015901A81AB90AA501B601CE017B
:104E50000E94612697FF07C08F8598890E94F313EF
:104E60001E861D8615C0CA0CDB1C01C079012F856A
:104E70003889E114F10431F0A701B601C9010E949B
:104E8000C94903C0C9010E94F313FE86ED8602C022
:104E90000FEF1FEFC801DF91CF911F910F91FF908E
:104EA000EF90DF90CF90BF90AF900895CF92DF92B8
:104EB000EF92FF920F931F93CF93DF936C017B01CF
:104EC000EA0141155105A1F0CA010E9480138C012D
:104ED000009771F0AE01B7010E949649AE01B8018A
:104EE000C6010E948D26EC01C8010E94F31307C081
:104EF000AE0160E070E0C6010E948D26EC01CE019B
:104F0000DF91CF911F910F91FF90EF90DF90CF90A5
:104F100008950F931F938C0140E050E060E070E033
:104F20000E948D26C8010E942A3A1F910F91089570
:104F30000F931F93CF93DF93EC018A01892B09F420
:104F400077C080E16230780751F1E0E163307E079D
:104F500044F46230710571F06150704109F062C033
:104F600048C080E16530780759F16650704109F01A
:104F700059C02EC04115510509F440C022303105F9
:104F8000E9F58B89882329F0C05ADF4F88E497E23E
:104F90004DC0CE5ADF4FFA01808191810EC041157C
:104FA000510561F12230310549F5FA018081918185
:104FB000C85BDF4F998388832497998388832FC0A8
:104FC000452BE1F024303105C9F4C659DF4F07C045
:104FD000452BA1F02430310589F4CA59DF4FF8017F
:104FE00080819181A281B38188839983AA83BB83C5
:104FF00016C0452B19F02230310529F0C05ADF4F79
:1050000086E190E013C040E050E060E070E0CE0147
:105010000E948D26F801808191819A8B898B80E096
:1050200090E008C0C05ADF4F8AE397E299838883F3
:105030008FEF9FEFDF91CF911F910F910895CF9345
:10504000DF9380911E09882359F40E94EB3120E000
:10505000892B09F421E020931E09222309F44BC077
:1050600082E790E00E946C14009709F444C0EC01C0
:105070001B8A84E08C838EEE95E29E838D838DE87F
:1050800096E298878F8386E597E29A87898784EAF4
:1050900094E29C878B870E945E1669A37AA38BA3F8
:1050A0009CA36DA37EA38FA398A769A77AA78BA7BC
:1050B0009CA7CC5BDF4F80E99CE099838883249692
:1050C000998388832A9628E132E0398328832696BB
:1050D00088EE93E099838883C855D04080911C095D
:1050E00090911D09998388833A8B298BD0931D0950
:1050F000C0931C0902C0C0E0D0E0CE01DF91CF9187
:105100000895CF93DF93EC0180911C0990911D09C4
:10511000ECE1F9E006C08C179D0731F0FC018081BD
:1051200091810097C1F719C088819981918380830B
:10513000CE010E94D1248D859E85892B31F08F85EB
:1051400098890E94F3131E861D8682E7FE01119244
:105150008A95E9F7CE010E94F313DF91CF9108956C
:10516000FC01062E672F702D718F608F0E94B63361
:105170000895EF92FF920F931F93CF93DF93EC016B
:105180007A018B01A901892B09F46CC08B898130CC
:1051900029F4C05ADF4F8DE397E262C08B898823E0
:1051A00029F0C05ADF4F88E497E25AC060911C0989
:1051B00070911D09A0E0B0E18091540490915504D4
:1051C00001969093550480935404809154049091D7
:1051D0005504892B21F4B0935504A0935404FB018A
:1051E0000FC08091540490915504082E892F902D62
:1051F000208D318D28173907F9F20190F081E02DCB
:10520000309779F78091540490915504082E892F96
:10521000902D998F888F042E452F502D5F8F4E8FA4
:10522000EA8EFB8E0C8F1D8F40E050E0C801B70165
:105230000E94E22AFC01892B79F00784F089E02D95
:1052400087819085A185B2858C8B9D8BAE8BBF8B22
:10525000CE010E94993308C0C05ADF4F81E597E222
:10526000998388838FEF9FEFDF91CF911F910F91EB
:10527000FF90EF9008959C01E0919C09F0919D09A9
:105280000AC0828193818217930711F4CF01089598
:105290000190F081E02D3097A1F780E090E0089533
:1052A000DC01FA01892B81F06250704169F4452BD1
:1052B00059F02230310541F480819181FD019387BD
:1052C000828780E090E008958FEF9FEF0895CF935D
:1052D000DF93DC01FA01892B81F06250704169F49F
:1052E000452B59F02230310541F4ED018A859B852B
:1052F0009183808380E090E002C08FEF9FEFDF9189
:10530000CF910895CF93DF93EC01E0919C09F09148
:105310009D09ACE9B9E01BC080819181EC17FD07C4
:10532000A1F48D939C9307C0808191819D838C8390
:10533000CF010E942A23EC81FD813097A9F7CE018D
:105340000E94F31380E090E006C0DF01FC0130977B
:1053500019F78FEF9FEFDF91CF9108956F927F92B2
:105360008F929F92AF92BF92CF92DF92EF92FF9275
:105370000F931F93CF93DF933C015A016B014901B7
:10538000A70160E880E090E00E946222EC01892B96
:1053900019F40FEF1FEF13C0A701B8018F8598898B
:1053A0000E94C9498E019401B601A501C3010E9462
:1053B000BD3A8C01892B19F4CE010E942A23C80121
:1053C000DF91CF911F910F91FF90EF90DF90CF90E1
:1053D000BF90AF909F908F907F906F900895CF93E4
:1053E000DF93EC01892B01F540919C0950919D09B7
:1053F000C0915604D0915704219611F4C0E0D0E139
:105400009E01022E232F302DFA0108C08281938144
:105410008217930789F30190F081E02D3097B1F75F
:10542000D0935704C09356048CE090E00E946C1413
:10543000FC01892B79F00C2ECD2FD02DD383C28384
:1054400080919C0990919D0991838083F0939D099F
:10545000E0939C09CF01DF91CF9108954F925F9225
:105460006F927F928F929F92AF92BF92CF92DF9274
:10547000EF92FF920F931F93CF93DF935C014B0149
:105480003A012901FC01C481D581209769F4B70153
:10549000A60106960E947519F501C481D581209751
:1054A00019F440E050E032C088819981F50195837C
:1054B0008483EF81F88584859585A685B785F40179
:1054C00080839183A283B383EB85FC858081918166
:1054D000082E892F902DF30191838083E988FA8823
:1054E00097010E151F0508F47801F5018085918557
:1054F000821B930B918780876F857889A701C201F2
:105500000E94C949CE010E942A23A701CA01DF9146
:10551000CF911F910F91FF90EF90DF90CF90BF90B0
:10552000AF909F908F907F906F905F904F90089575
:10553000EF92FF920F931F93CF93DF937B018C0128
:10554000EA01622F6430A0F5E0919E09F0919F0975
:1055500014C086819781A085B1858E219F21A023CB
:10556000B123228133814481558182179307A40797
:10557000B50731F00190F081E02D309751F71AC056
:10558000209761F082859385A485B5850097A10554
:10559000B10521F088839983AA83BB83868597858B
:1055A000892B41F46F5FE284F38404851585CACFAB
:1055B000E0E0F0E0CF01DF91CF911F910F91FF90DC
:1055C000EF900895FA01452B21F01082118212828A
:1055D00013826F3F2FEF72072FEF82072FEF920793
:1055E00029F4E0919E09F0919F0905C020E0AF01E8
:1055F0000E94982AFC01309719F480E090E0089509
:105600008685978508954F925F926F927F928F92D1
:105610009F92AF92BF92CF92DF92EF92FF920F9341
:105620001F93CF93DF93CDB7DEB724970FB6F894CF
:10563000DEBF0FBECDBF2B013C0149015A01E982FB
:10564000FA820B831C83E0909E09F0909F090EE97B
:1056500019E004C08701D701ED90FC90E114F1043A
:1056600051F0F70186819781A085B185881699064A
:10567000AA06BB0678F380E190E00E9480139C01AB
:10568000009719F48FEF9FEF1EC0482059206A2021
:105690007B20FC01428253826482758286829782DB
:1056A000A086B18689819A81AB81BC8182879387EC
:1056B000A487B587D786C686F182E082D8012D936C
:1056C0003C9380E090E024960FB6F894DEBF0FBEC6
:1056D000CDBFDF91CF911F910F91FF90EF90DF90A1
:1056E000CF90BF90AF909F908F907F906F905F9082
:1056F0004F900895CF93DF93EC0119821882E091C7
:105700009E09F0919F0906C00196998388830190B4
:10571000F081E02D888199813097B1F724E0880FDE
:10572000991F2A95E1F70E948013009799F0E09164
:105730009E09F0919F090BC0EC01DF0120E10D9063
:1057400009922150E1F740960190F081E02D3097C9
:1057500099F702C019821882DF91CF9108954F9274
:105760005F926F927F928F929F92AF92BF92CF92F1
:10577000DF92EF92FF920F931F932B013C0149019F
:105780005A012FEF3FEF35C082819381A481B5810B
:1057900084159505A605B70511F586819781A08525
:1057A000B18588159905AA05BB05C9F4828593853D
:1057B000A485B5858E159F05A007B10781F4868560
:1057C00097858C159D0559F48081918190939F094F
:1057D00080939E09CF010E94F31320E030E0E09116
:1057E0009E09F0919F098081918190939F098093F8
:1057F0009E09E0919E09F0919F09309729F6C90111
:105800001F910F91FF90EF90DF90CF90BF90AF90DE
:105810009F908F907F906F905F904F900895CF935F
:10582000DF93EC0117C0868597858C179D0711F0D3
:10583000209751F48081918190939F0980939E09D4
:10584000CF010E94F31306C08081918190939F093C
:1058500080939E09E0919E09F0919F09309719F776
:1058600080E090E0DF91CF910895CF93DF93CDB7A3
:10587000DEB724970FB6F894DEBF0FBECDBFFC0194
:1058800019821A821B821C82DE01119640E08081FF
:1058900080538A3098F520E030E06AE070E0C9017A
:1058A000869F9001879F300D969F300D1124819126
:1058B000992787FD9095280F391F2053304080810C
:1058C00080333CF08A332CF42F3F310509F0B0F4DB
:1058D000E6CF2F3F310509F088F44F5F2C9380818C
:1058E0008E3239F0443051F469817A818B819C8108
:1058F00009C0443019F011963196C9CF6FEF7FEF90
:105900008FEF9FEF24960FB6F894DEBF0FBECDBF8A
:10591000DF91CF910895BF92CF92DF92EF92FF92E5
:105920000F931F93CF93DF93CDB7DEB727970FB6B3
:10593000F894DEBF0FBECDBF6C837D838E839F83C3
:1059400094E0E92EF12CEC0EFD1E40E00FE119E091
:1059500050E06E010894C11CD11C8EE2B82E01C02B
:10596000492FD7012C91822F6AE00E94094A382FD3
:105970008C93F601E40FF11D822F0E94094A905D7D
:105980009083942F9F5F332359F7D801242F2095BC
:10599000240FBE016F5F7F4F05C0FB01E90FF11DB2
:1059A00080818D9391509217C1F74F5FF801E40FFA
:1059B000F11DDF01BD928D015F5F543028F4089422
:1059C000E11CF11C90E0CCCF10828FE199E027968A
:1059D0000FB6F894DEBF0FBECDBFDF91CF911F9100
:1059E0000F91FF90EF90DF90CF90BF900895CF93ED
:1059F000DF939C01EB01EB81FC813E96F887EF83FE
:105A00003E978D819E810E979A8789878EE090E0E0
:105A10009E838D8384859585082E892F902D48E05F
:105A20008030940721F08650984049F404C0C901A1
:105A30000E94CA3B07C0C9010E94394103C0CB0183
:105A40000E942A23DF91CF9108958F929F92AF9267
:105A5000BF92CF92DF92EF92FF920F931F93CF935B
:105A6000DF934C018B016A0179014EE050E060E167
:105A7000C9010E946222892BA1F1F701C381D4815F
:105A8000F401A784B088DE011696F501319686E010
:105A900001900D928150E1F7C114D10441F0DE0173
:105AA000F60186E001900D92815041F0FBCF46E077
:105AB00050E06FEF70E0CE010E94D249002E012F1E
:105AC000102D1D870C87E501ED8DFE8DB701C401FA
:105AD0001995892B19F480E090E005C0C7010E9458
