:100000000C942C010C947A010C947A010C947A01D2
:100010000C947A010C94E1170C94721D0C942E1E12
:100020000C947A010C947A010C947A010C947A0164
:100030000C947A010C94A41E0C947A010C94BE17B3
:100040000C947A010C947A010C947A010C947A0144
:100050000C947A010C947A010C947A010C947A0134
:100060000C947A010C947A010C947A010C947A0124
:100070000C947A010C947A010C947A010C947A0114
:100080000C947A010C947A010C947A010C947A0104
:100090000C947A010C947A010C947A010C947A01F4
:1000A0000C947A010C947A010C947A010C947A01E4
:1000B0000C947A010C947A010C947A010C947A01D4
:1000C0000C947A010C947A010C947A014D3B733BA9
:1000D0007A3B833B8F3B9A3BD63CD63C9E3BA43B32
:1000E000AE3BE03BFD3B023CD63CD63C073CD63C1D
:1000F000D63CD63CD63CD63CD63CD63CD63C0C3C3A
:100100000F3CD63CD63CD63CD63CD63CD63CD63C26
:10011000D63CD63C393C1F3C2C3CD63CD63CD63C4D
:10012000D63CD63CD63CD63CD63C623C00000000D7
:100130004578697453EF6E4DEA6D54000000005429
:1001400065726D20312E30000000000000000000BC
:10015000000000000000000000000000000000009F
:10016000000000000000000000000000000000008F
:10017000000000000000000000000000000000007F
:10018000000000000000000000000000000000006F
:10019000000000000000000000000000000000005F
:1001A000000000000000000000000000000000004F
:1001B000000000000000000000000000000000003F
:1001C000000000000000000000000000000000002F
:1001D000000000000000000000000000000000001F
:1001E000000000000000000000000000000000000F
:1001F00000000000000000000000000000000000FF
:1002000000000000000000000000000000000000EE
:1002100000000000000000000000000000000000DE
:1002200000000000000000000000000000000000CE
:1002300000000000000000000000000000000000BE
:1002400000000000000000000000000000000000AE
:10025000000000000000000084E88093740087E044
:100260008093C4008093CC0011241FBECFEFD1E255
:10027000DEBFCDBF19E0A0E0B2E0E0E2FCEC00E0C0
:100280000BBF02C007900D92AA37B107D9F71AE049
:10029000AAE7B9E001C01D92A63DB107E1F78FEFD3
:1002A0009FE79EBF8DBF8FEF9FE7865D9A40815885
:1002B000914040F06FEF7EE7665D7A4086ED9AE010
:1002C0000E94A92F0E94A837892B41F066E278E0AE
:1002D0008CE99AE00E9452650E948F3720E831E055
:1002E00040E050E06CE072E18FE298E00E947C1206
:1002F0000C9400000C94000064EF71E080E090E04A
:100300000E94A8179B01AC018FEF6F3F780729F47B
:10031000309372032093710322C0809171039091F6
:10032000720368177907C9F0CB01880F892F881FDE
:10033000990B9195019789F430937203209371037F
:100340006F777070CB014297029748F48FEF9FEF61
:10035000909372038093710302C06FEF7FEFCB0124
:1003600008954F925F926F927F928F929F92AF9279
:10037000BF92CF92DF92EF92FF920F931F93CF9392
:10038000DF93CDB7DEB72A970FB6F894DEBF0FBE66
:10039000CDBFDE011596EBE6F3E086E001900D920D
:1003A0008150E1F780E092E00E94FC462B013C0185
:1003B00080E192E00E94FC467B018C018EE192E09C
:1003C0000E94FC464B015C0180E092ECA1E0B0E0B1
:1003D00089839A83AB83BC8340E060E070E08AE36A
:1003E00098E00E94633740912209509123096CE202
:1003F00072E08EE292E00E940B5E80912209909161
:1004000023090E94AB5DAE014F5F5F4F61E071E079
:100410000E94995D0E947406892B11F00E94A20728
:1004200080E090E20E94E82F892B29F484E392E097
:100430000E94C55EFFCF0E94D60840E060E070E0F9
:100440008CEC98E00E94633786E492E00E94D00C26
:10045000892B29F08AE492E00E94C55EFFCF0E94BA
:100460008A1845E060E073E882E698E00E9463370E
:10047000892B21F08AE592E00E94C55E20E63AEEE3
:1004800040E050E060E070E084E792E00E940C20E1
:10049000892BE9F089E792E00E94C55EA3019201F1
:1004A000BE016B5F7F4F84E792E00E94E449A2E6C1
:1004B000CA2EA8E0DA2E8501740120E030E040E089
:1004C00050E060E070E080E090E00E94CA4587E97B
:1004D00092E00E94C55E8091140A8095682F0E9468
:1004E000951A64E682E00E94251AAA24BB240E9481
:1004F0007C012FEF8F3F920709F428C110920E0A5A
:100500008730910509F446C08830910590F4833016
:100510009105C1F18430910530F48130910561F18C
:10052000029770F527C08530910581F1069780F517
:100530002BC082319105B1F18331910558F480319E
:10054000910561F18131910558F58830910509F0E7
:10055000C0C022C08431910509F44CC0843191059A
:10056000A0F18531910509F44EC08F33910509F052
:10057000B0C077C081E001C082E08093120AF1C070
:1005800083E0FBCF84E0F9CF85E0F7CF86E0F5CFBD
:1005900087E0F3CF88E0F1CF89E0EFCF8FEFEDCFA9
:1005A0008EEFEBCF81E090E0A0E0B0E08093260AF0
:1005B0009093270AA093280AB093290A8091140ADD
:1005C000853F08F0CEC0865F12C081E090E0A0E0D9
:1005D000B0E08093260A9093270AA093280AB0934C
:1005E000290A8091140A8B3008F4BBC08A5080938A
:1005F000140AB7C090E08091160A882309F491E0AC
:100600009093160AAEC0F1E0FF2EF0920E0A8EE92A
:1006100092E09F938F931F921F920E94260D0AEAE9
:1006200012E01F930F931F92FF920E94260D68EE17
:1006300073E080E090E00E9441080E94B5058EEFD3
:100640008093110A1F930F931F921F920E94260DF1
:100650008DB79EB70C960FB6F8949EBF0FBE8DBF98
:1006600075C01091110A8BEA92E09F938F9381E0FD
:100670008F931F920E94260D812F0E94D40B01E0C0
:100680000F900F900F900F900E947C01EFEF8F3F23
:100690009E07C9F08131910551F08833910581F0B1
:1006A000409799F41F5F17FF07C010E005C01123A2
:1006B00011F41FE701C01150812F0E94D40B03C019
:1006C0001093120A02C00023F9F689E00E94510C2F
:1006D0003DC09F938F9384EB92E09F938F9381E033
:1006E0008F931F920E94260D80E00E940E1AD82E32
:1006F0000E94BB317B018C010E94D031EAE016954B
:100700000795F794E794EA95D1F71F930F93FF921B
:10071000EF925AE096958795779567955A95D1F718
:100720009F938F937F936F938CEB92E09F938F9324
:100730000E94A55E8D2D0E940E1A2DB73EB7205F38
:100740003F4F0FB6F8943EBF0FBE2DBF80910E0AEB
:10075000882339F064EF71E080E090E00E94633418
:10076000C6CE9091120A8091110A981709F406C119
:10077000A114B104B9F068EB7BE080E090E00E9446
:100780004108892B41F08EED92E09F938F930E9458
:10079000A55E0F900F9087EE92E00E94C55EC501A6
:1007A0000E9450428091120A8F3F51F48091110AA9
:1007B0008F5F8093110A87FF0EC01092120A0BC040
:1007C0008E3F39F48091110A882311F0815001C0C5
:1007D0008FE78093110A8091110A99279F938F9335
:1007E00085EF92E09F938F9381E08F931F920E94F9
:1007F000260D8091110A05E1809FF001112480915E
:10080000170A9091180AE80FF91F8DB79EB7069640
:100810000FB6F8949EBF0FBE8DBF82819381A481D5
:10082000B5810097A105B10509F4A4C0808191812B
:10083000892B09F49FC08289882309F09BC082E03C
:100840000E94510C8091110A809F700111248091A7
:10085000170A9091180AE80EF91E0E94E6425C0100
:10086000009709F487C022E030E043E753E062E0FC
:1008700070E00E945F42892B21F082E093E00E94A9
:10088000C55E24E030E045E753E066E070E1C50175
:100890000E945F42892B21F085E193E00E94C55EB2
:1008A00022E030E049E753E062E070E1C5010E94D8
:1008B0005F42892B21F087E293E00E94C55EF70139
:1008C0000081118162817381848195810E945247E8
:1008D0001F930F939F938F938CE393E09F938F933A
:1008E0000E94A55EF701208131814281538164819C
:1008F0007581C5010E9480432DB73EB72A5F3F4FE7
:100900000FB6F8943EBF0FBE2DBF892B09F589E4C1
:1009100093E09F938F930E94A55EB701C5010E944B
:10092000180F0F900F90892B79F4F70144855585A6
:100930006685778500E315E720E030E0C5010E9479
:100940007B08892B09F487C0C5010E94504212C060
:10095000C5010E94603F9F938F9381E593E09F9331
:100960008F930E94A55EC5010E9450420F900F9088
:100970000F900F9088E00E94510CB7CD9091160A0D
:100980008091150A8917A1F19093150A992391F086
:100990008CE593E09F938F9381E08F931F920E9449
:1009A000260D6FEF8FEF0E94951A0F900F900F900A
:1009B0000F909DCD8091130A99279F938F9381E685
:1009C00093E09F938F9381E08F931F920E94260D57
:1009D0008091130A8095682F0E94951A2DB73EB713
:1009E0002A5F3F4F0FB6F8943EBF0FBE2DBF7FCD9D
:1009F0009091140A8091130A891711F1892F992770
:100A00009F938F9381E693E09F938F9381E08F93E1
:100A10001F920E94260D8091140A8095682F0E94D3
:100A2000951A8091140A8093130A1092160A8DB7B2
:100A30009EB706960FB6F8949EBF0FBE8DBF57CDDA
:100A400080912A0A882309F452CD89E00E94510C32
:100A500010922A0A4CCD8091110A8093120A83E0E9
:100A60000E94510C44CDCF93DF93EA019C0140E0FA
:100A700050E0FB0110C0D9010E94F965802D9081E2
:100A8000981721F0D901092E0E9401664F5F5F4F30
:100A900031962F5F3F4F4C175D0769F7CE01DF910D
:100AA000CF910895FB019C0160E070E0D9010E94A4
:100AB000F965802D4081481721F0D901042E0E944C
:100AC00001666F5F7F4F2F5F3F4F8081882311F05A
:100AD0003196ECCFCB010895CF93DF93EC01FB016E
:100AE00020E030E00DC0DE01A20FB31F0E94F965C7
:100AF000802D992780832F5F3F4F882321F03196E7
:100B00002417350781F7C901DF91CF910895CF935D
:100B1000DF93EC0120E030E0FB0109C0DE01A20F11
:100B2000B31F0E94F965802D81932F5F3F4F2417DB
:100B30003507A1F7CA01DF91CF9108950F931F9355
:100B400001E11AE041E050E0B80189E092E00E9442
:100B500033050E5F1F4F41E050E0B801875F9D4FA6
:100B60000E9433051F910F910895EF92FF920F930A
:100B70001F93CF93DF930E94FA496BE773E080E005
:100B800092E00E9452058C0100501E4F41E050E05F
:100B900061E17AE0C8010E943305080F191F41E0A6
:100BA00050E063E17AE0C8010E9433057801E80E65
:100BB000F91EC0E0D0E005E1C09F800111248091C2
:100BC000170A9091180A080F191F42E050E0B80167
:100BD000C7010E943305E80EF91EB8016E5F7F4F12
:100BE00044E050E0C7010E943305E80EF91EF80109
:100BF000668177816115710511F464E873E0C701BE
:100C00000E945205E80EF91E2196C038D10599F6CA
:100C1000DF91CF911F910F91FF90EF9008951F9357
:100C20006091170A7091180A20E030E040E050E02F
:100C300015E1419FF0011124E60FF71F808191819A
:100C4000892BB9F0C9010696A681B781109749F0A2
:100C5000FD0101900020E9F73197EA1BFB0B8E0F95
:100C60009F1F9C012F5F3F4F4F5F5F4F40385105E3
:100C700001F7C90102961F910895CF93DF938091E8
:100C8000170A9091180A892B49F480E89AE00E948B
:100C9000415F9093180A8093170A1AC0C0E0D0E011
:100CA00085E1C89FF00111248091170A9091180ADC
:100CB000E80FF91F80819181892B51F086819781FE
:100CC000009711F00E943E5F2196C038D10541F790
:100CD000E091170AF091180A80E89AE011920197C2
:100CE000E9F7DF91CF910895CF92DF92EF92FF92D3
:100CF0000F931F93CF93DF9381E290E00E94415FB7
:100D0000EC0149E050E0BC0180E092E00E946C05FB
:100D10008C016BE773E0CE010E944865892B19F0C6
:100D20000FEF1FEF57C000501E4F0E943D0641E0DD
:100D300050E062E17AE0C8010E948705080F191FA0
:100D400041E050E064E17AE0C8010E948705080FA5
:100D5000191FCC24DD2485E1C89E700111248091E7
:100D6000170A9091180AE80EF91E42E050E0B70108
:100D7000C8010E948705080F191FB7016E5F7F4FDA
:100D800044E050E0C8010E948705080F191F40E2A7
:100D900050E0BE01C8010E946C05080F191F888130
:100DA000882379F0FE0101900020E9F7CF018C1B28
:100DB0009D0B0E94415FF70197838683BE010E94CD
:100DC00052650894C11CD11CF0E8CF16D10419F665
:100DD00000E010E0CE010E943E5FC801DF91CF919C
:100DE0001F910F91FF90EF90DF90CF9008959F9209
:100DF000AF92BF92CF92DF92EF92FF920F931F9329
:100E0000CF93DF93982EEB0187FF1FC04091170A05
:100E10005091180A20E030E065E170E006C02F5FD5
:100E20003F4F2038310509F449C0922E822F99276F
:100E3000869FF001879FF00D969FF00D1124E40F1F
:100E4000F51F80819181892B51F7FE0101900020CF
:100E5000E9F7CF018C1B9D0B0E94415F8C01FC01C7
:100E600002C0819321968881882321F08F3211F06E
:100E70008A33B9F71082C8010E94FC465B016C01FD
:100E80008FEFA8168FEFB80619F48FEF982E49C090
:100E900088818F3211F0F8010AC02196F80102C052
:100EA000819321968881882311F08A33C9F71082B3
:100EB00088818A3331F020E530E00AC08FEF9FEF60
:100EC00035C0CE0101960E94AF64009751F19C019C
:100ED00085E1989E70011124C091170AD091180ADB
:100EE000CE0DDF1DAA82BB82CC82DD8239832883AE
:100EF000F80180818823A9F001900020E9F7CF0153
:100F0000801B910B0E94415F9F838E83E091170AA3
:100F1000F091180AEE0DFF1DB801868197810E949D
:100F20005265C8010E943E5F892D9927DF91CF91BC
:100F30001F910F91FF90EF90DF90CF90BF90AF90F7
:100F40009F9008950E943D0682E08093120A8FEDE3
:100F50008093140A65E873E080E80E94F70669E967
:100F600073E080E80E94F70661EB73E080E80E947E
:100F7000F70663EC73E080E80E94F70668ED73E023
:100F800080E80E94F7066BEE73E080E80E94F706A7
:100F90006DEF73E080E80E94F70661E174E080E89D
:100FA0000E94F70661E274E080E80E94F70665E3BC
:100FB00074E080E80E94F70667E474E080E80E942D
:100FC000F7066BE574E080E80E94F7066DE674E0D2
:100FD00080E80E94F70661E874E080E80E94F70666
:100FE00064E974E080E80E94F70666EA74E080E84D
:100FF0000E94F70668EB74E080E80E94F7066BEC4D
:1010000074E080E80E94F7066EED74E080E80E94CC
:10101000F70661EF74E080E80E94F70663E075E090
:1010200080E80E94F70666E175E080E80E94F70616
:1010300068E275E080E80E94F70665E475E080E804
:101040000E94F70664E675E080E80E94F70661E812
:1010500075E080E80E94F70664E975E080E80E9488
:10106000F70666EA75E080E80E94F7066AEB75E02D
:1010700080E80E94F70666ED75E080E80E94F706BA
:101080000895EF92FF920F931F937B018C0120C074
:1010900083EF95E09F938F930E94A55E83E08093FA
:1010A000190A8AE19AE00E947A36B801A7018CE118
:1010B0009AE00E94CD360F900F90892B49F08AEF6D
:1010C00095E09F938F930E94A55E8FEF9FEF0CC0DA
:1010D0008091190A8823E1F680E096E09F938F9330
:1010E0000E94A55E80E090E00F900F901F910F91FD
:1010F000FF90EF900895AF92BF92CF92DF92EF9260
:10110000FF920F931F93CF93DF93EC015A016B0172
:1011100078018901C801B7010E944108892B19F0A3
:101120008FEF9FEF38C08CE19AE00E946F368AE023
:1011300096E09F938F930E94A55E81E08093190AA9
:10114000D093300AC0932F0AA0921E0AB0921F0AB1
:10115000C092200AD092210A8AE19AE00E947A364F
:10116000B801A7018CE19AE00E94CD360F900F9054
:10117000892B39F48091190A823019F480E090E0CB
:101180000AC082E196E09F938F930E94A55E8FEF45
:101190009FEF0F900F90DF91CF911F910F91FF90D4
:1011A000EF90DF90CF90BF90AF9008950E94551BB5
:1011B000892BA9F480E090E00E94161B892B79F41A
:1011C00020E032E040E050E06BE079E088E196E03A
:1011D0000E947C12892B19F080E090E008958FEF37
:1011E0009FEF089580912B0A90912C0A009731F07F
:1011F0000E943E5F10922C0A10922B0A80912D0AB9
:1012000090912E0A009731F00E943E5F10922E0AB4
:1012100010922D0A0895CF93DF93CDB7DEB72397B1
:101220000FB6F894DEBF0FBECDBF00E08FE196E0B1
:101230009F938F930E94A55E0E94F2081092190A54
:101240008CE19AE00E946F3640E050E060E070E090
:101250008AE19AE00E94CD368091190A99279F93DE
:101260008F9386E296E09F938F930E94A55E8DB741
:101270009EB706960FB6F8949EBF0FBE8DBF8091A5
:10128000190A813099F68EE296E09F938F930E941F
:10129000A55E82E08093190A80911E0A90911F0A30
:1012A000A091200AB091210A8093220A9093230AE8
:1012B000A093240AB093250A8CE19AE00E946F362D
:1012C00080E00E940E1A182F0E94CA2F812F0E94C0
:1012D0000E1A0F900F9014C280E00E940E1A182F61
:1012E000CE0102960E9403307C01812F0E940E1ACB
:1012F0008A819B818050944030F50E940A1A813087
:1013000011F00E94461C8A819B81892BE1F46DE7D4
:1013100070E080E090E00E946334F2C184E396E0E4
:101320009F938F930E94A55E1092190A09C08EE9BF
:1013300096E09F938F930E94A55E1092190A012F49
:101340000F900F90DBC180911E0A90911F0AA0910F
:10135000200AB091210A0097A105B10599F02091CA
:10136000220A3091230A4091240A5091250A8A8149
:101370009B81AA27BB27281739074A075B0710F468
:101380003B832A836701B4C1B60180912F0A9091F3
:10139000300A0E94CA3F7C0199230CF4BFCF892BED
:1013A00009F482C180E00E940E1A182FC7010E9422
:1013B00070304C01812F0E940E1A8A819B818E19F8
:1013C0009F099B838A8380911E0A90911F0AA09196
:1013D000200AB091210A0097A105B10509F42AC19C
:1013E0009701442737FD4095542F8091220A909110
:1013F000230AA091240AB091250A821B930BA40B07
:10140000B50B8093220A9093230AA093240AB093E9
:10141000250A0097A105B10509F00CC1198200E069
:1014200010E018C041E050E0BE016F5F7F4F809137
:101430002F0A9091300A0E94CA3F8130910579F0BD
:1014400097FD05C00F5F1F4F0631110519F48DE39D
:1014500096E0D2C0D02E8091190A823019F32981EA
:10146000222309F4D7C0422F5527213268F05F9319
:101470004F9385E496E09F938F930E94A55E0F9013
:101480000F900F900F90BEC08A0184E0000F111FD3
:101490008A95E1F7C80101960E94415F5C01892BA2
:1014A00019F0EE24FF2422C08FE496E0A5C0B50118
:1014B0006E0D7F1DA80180912F0A9091300A0E9425
:1014C000CA3F99230CF496C0009759F0081B190BDA
:1014D00089F0E80EF91EF501EE0DFF1D1082DD24E6
:1014E00005C0F4E1FD1508F482C0D3948091190A77
:1014F0008230E9F20E94F208BF92AF9287E696E04E
:101500009F938F930E94A55E65010F900F900F909F
:101510000F9076016BE370E0C6010E943C65FC0110
:10152000892B19F4CC24DD2402C011926F016DE3E4
:1015300070E0C7010E943C65FC01892B09F44CC096
:1015400011928F0102C00F5F1F4FF801808180321E
:10155000D1F38732C1F367E270E0C8010E9476657B
:10156000FC01892B09F0108263E776E0C7010E9435
:101570001F65892BA1F480912B0A90912C0A892B4D
:1015800071F4F80101900020E9F7CF01801B910B65
:101590000E94415F90932C0A80932B0A1AC06FE738
:1015A00076E0C7010E941F65892BB1F480912D0A56
:1015B00090912E0A892B81F4F80101900020E9F71F
:1015C000CF01801B910B0E94415F90932E0A809364
:1015D0002D0AB8010E945265C114D10409F099CFB7
:1015E000C5010E943E5F81E080932A0A13C080E615
:1015F00096E002C087E596E09F938F930E94A55ED8
:101600000F900F9089E896E09F938F930E94A55EBC
:101610000F900F9080911E0A90911F0AA091200AAE
:10162000B091210A8093220A9093230AA093240A5E
:10163000B093250A0E940A1A813059F180E00E9475
:101640000E1A182F0E94D03161507840804090408F
:1016500060F08091260A9091270AA091280AB09103
:10166000290A0097A105B10571F40E94D03160509C
:1016700070408140904050F00E94BB316F5F7F4FBF
:101680008040904018F40E94461C03C0812F0E94A5
:101690000E1A64011092260A1092270A1092280A44
:1016A0001092290A10E021C00E94B02F9F938F93BF
:1016B000802F99279F938F9384E996E09F938F9330
:1016C0000E94A55E64E670E080E090E00E946334D2
:1016D000102F1F5F8DB79EB706960FB6F8949EBF6A
:1016E0000FBE8DBF053108F022CE0E944533012F79
:1016F0004A815B814115510509F046CE0E94453370
:101700008091190A823009F4E7CD85EA96E09F932B
:101710008F930E94A55E0E94561C0F900F9006C0EA
:101720006FE370E080E090E00E9463340E940A1A48
:101730008130B1F38DEA96E09F938F930E94A55E6E
:1017400080E090E00E94161B0F900F906FCDCF931A
:10175000DF93DC018D919C911197892BE9F0ED01CC
:10176000E885F985309739F08081882321F040E5BC
:1017700050E0BF010AC0FD016281738184819581BF
:101780000E94524740E550E0BC0180913D0A909193
:101790003E0A0E94676505C0E0913D0AF0913E0A4D
:1017A0001082DF91CF910895CF93DF93282F85E1A9
:1017B000289FE00111248091170A9091180AC80F00
:1017C000D91F88819981892BD1F0888599850097C7
:1017D000B1F09F938F93822F99279F938F9385EBDF
:1017E00096E09F938F9380913D0A90913E0A9F933C
:1017F0008F930E94E75E8DB79EB7089613C0822F25
:1018000099279F938F9380EC96E09F938F9380917D
:101810003D0A90913E0A9F938F930E94E75E8DB799
:101820009EB706960FB6F8949EBF0FBE8DBF8A89ED
:10183000882349F065EC76E080913F0A9091400A58
:101840000E94526527C06B897C896115710529F456
:101850006A857B856115710519F040E550E00EC081
:101860006A817B818C819D8161157105810591055E
:1018700061F00E94524740E550E0BC0180913F0A70
:101880009091400A0E94676505C0E0913F0AF0917F
:10189000400A108287E39AE00E947A36DF91CF9166
:1018A0000895CF93DF934091170A5091180A9091B1
:1018B000110A20910F0A281709F46FC0893019F016
:1018C00080930F0A282F222359F463ED76E080914C
:1018D0003D0A90913E0A0E9452656CED76E034C05C
:1018E000283029F5892F99279F938F9388EE96E0CA
:1018F0009F938F9380913D0A90913E0A9F938F937F
:101900000E94E75E65EC76E080913F0A9091400A84
:101910000E94526587E39AE00E947A368DB79EB79F
:1019200006960FB6F8949EBF0FBE8DBF36C085E1F8
:10193000989FE0011124C40FD51F223061F4CE011D
:101940000E94A70B65EF76E080913F0A9091400AD4
:101950000E9452651EC0233001F5CE010E94A70BE4
:10196000E0912B0AF0912C0A309719F0808188239E
:1019700039F4EA85FB85309761F08081882349F04E
:1019800040E550E0BF0180913F0A9091400A0E94DB
:10199000676587E39AE00E947A36DF91CF910895D8
:1019A00063E077E00E94AF5D9093320A8093310A42
:1019B000892B09F448C081E590E00E94415F909333
:1019C0003E0A80933D0A892BF1F181E590E00E9467
:1019D000415F9093400A80933F0A892BA1F181E5F2
:1019E00090E00E94415F90933A0A8093390A892BD4
:1019F00051F181E590E00E94415F90933C0A809311
:101A00003B0A892B01F1E0913D0AF0913E0AE05B2F
:101A1000FF4F1082E0913F0AF091400AE05BFF4FD8
:101A2000108220E032E040E050E06EE67DE085E0AC
:101A300097E00E947C12892B31F080E00E94510CCB
:101A400080E090E008958FEF9FEF0895FF920F934D
:101A50001F93CF93DF93CDB7DEB722970FB6F894DD
:101A6000DEBF0FBECDBFFC846D857E85AE01415FBC
:101A70005F4F5A8349838B85E82FFF27FF20B1F002
:101A80008F01000F111FF801E75CF54F80819181F4
:101A90000E94055F0D5C154F8F2D9927880F991FA8
:101AA000880F991FF8019183808308C0EE0FFF1FF4
:101AB000E35CF54F808191810E94055F87E39AE0A6
:101AC0000E947A3622960FB6F894DEBF0FBECDBFC5
:101AD000DF91CF911F910F91FF900895CF93DF93E6
:101AE000CDB7DEB72C970FB6F894DEBF0FBECDBFD3
:101AF0001E821D8218861F821A8219821C821B82F6
:101B00006091310A7091320A8BE097E00E94945EF6
:101B100080E80E94C1328824992422E02C874DE776
:101B200050E060E070E087E39AE00E94CD36CC247C
:101B3000DD2463E3462E6AE0562E55E0A52EB12C37
:101B4000AC0EBD1E3E010894611C711C89E39AE035
:101B50009A8789874DE3242E4AE0342ECB86D20122
:101B60008D919C911197009741F0E985FA85E0806D
:101B7000F18001978D939C9303C0D101ED90FC906F
:101B8000F70101900020E9F73197EE19FF09D30121
:101B90008D919C9111978E179F0749F0ED93FC93BF
:101BA000F5011182108288249924F2E0FC8720E25A
:101BB00030E0C20ED31EDF92CF9280EE9FEFC80EB0
:101BC000D91E8EE097E09F938F938091310A909178
:101BD000320A9F938F930E94765ED3010D911C91E0
:101BE000EDB7FEB736960FB6F894FEBF0FBEEDBF49
:101BF00001311105A0F46091310A7091320AC701D8
:101C00000E94945E0031110508F068C06091310AAD
:101C10007091320A84E197E00E94945E5FC0D50122
:101C20008D919C918017910779F5BC85B23019F49C
:101C3000EB85EC8705C0FC852B85F21709F04EC0BB
:101C40008114910411F4470110C00894811C911C67
:101C5000F40101900020E9F73197E819F90971972B
:101C600020F40196D5018D939C939F928F9287E1EA
:101C700097E09F938F938091310A9091320A9F93BE
:101C80008F930E94765E19C00196D5018D939C9327
:101C900081309105D9F4FF92EF9287E197E09F930D
:101CA0008F938091310A9091320A9F938F930E9473
:101CB000765E88249924B2E0BC87EDB7FEB73696ED
:101CC0000FB6F894FEBF0FBEEDBF08C0005F1F4FF8
:101CD0008017910718F0D5011D921C920894C11C21
:101CE000D11CE2E0F0E04E0E5F1EAE0EBF1E6E0E87
:101CF0007F1E29853A852E5F3F4F3A8729872E0E12
:101D00003F1E32E0C316D10409F028CF08CF20E0EF
:101D100032E040E050E064E570E18DE197E00E9440
:101D20007C12892B19F48FEF9FEF089580E090E0EB
:101D300008958F929F92BF92CF92DF92EF92FF927F
:101D40000F931F93CF93DF934C016A01452B81F1D1
:101D50008B01EE24FF24BB2401C0B39441E050E08A
:101D6000B801C4010E94CA3FEC01181619067CF0A4
:101D7000892B19F489E08B1580F785E297E09F9312
:101D80008F930E94A55E7E010F900F9013C0F80103
:101D900080818A3011F410820DC08D30F9F2EC147C
:101DA000FD04E4F60894E11CF11C0F5F1F4FD6CF31
:101DB000EE24FF24C701DF91CF911F910F91FF9077
:101DC000EF90DF90CF90BF909F908F900895CF922B
:101DD000DF92EF92FF920F931F93CF93DF936C01EB
:101DE0008B01EB0109900020E9F72197C61BD70B67
:101DF000EE24FF2410C0AE014E195F09B8016E0D2C
:101E00007F1DC6010E94B84097FF03C08FEF9FEF70
:101E100006C0E80EF91EEC16FD0668F3CE01DF9150
:101E2000CF911F910F91FF90EF90DF90CF90089589
:101E3000CF92DF92EF92FF920F931F93CF93DF9396
:101E40007C016B0180E091E00E94415F8C016DE2BA
:101E500077E00E945265F601668177816115710510
:101E600019F0C8010E94316563E377E0C8010E9460
:101E70003165B801C7010E94E70EF60162817381E6
:101E8000848195810E9452479F938F938FE397E0BF
:101E90009F938F931F930F930E94E75EB801C70132
:101EA0000E94E70E6AE477E0C7010E94E70EF601A0
:101EB000808591852DB73EB72A5F3F4F0FB6F894C6
:101EC0003EBF0FBE2DBF009729F00E943E5FF60176
:101ED00011861086F60182859385009729F00E946D
:101EE0003E5FF60113861286F60114861586168665
:101EF000178640E051E0B801C7010E94990E06978D
:101F00000CF4A3C0C8010E94C55E43E050E06AE93A
:101F100077E0C8010E945965892B09F096C0C80175
:101F200004960E94AF64883C910509F08BC040E0A4
:101F300051E0B801C7010E94990EEC01181619066C
:101F40000CF085C049E050E06EE977E0C8010E94DE
:101F50005965892B09F5E801299601C021968881E8
:101F60008032E1F3882319F3F60180859185892B6E
:101F7000F1F6FE0101900020E9F7CF018C1B9D0BCB
:101F80000E94415FF60191878087BE010E945265E1
:101F9000CE010E94C55ECBCF4AE050E068EA77E010
:101FA000C8010E945965892B01F5E8012A9601C0F4
:101FB000219688818032E1F3882309F4B8CFF601B5
:101FC00082859385892B09F0B2CFFE010190002014
:101FD000E9F7CF018C1B9D0B0E94415FF6019387AF
:101FE0008287BE010E945265A2CF4CE050E063EBB5
:101FF00077E0C8010E945965892B71F44AE050E0EE
:1020000060E070E0C8010C960E948263F60164876C
:102010007587868797878BCF47E050E060EC77E045
:10202000C8010E945965892B09F081CF4AE050E030
:1020300060E070E0C80107960E948263F601718B30
:10204000608B75CFC8010E94C55ECFEFDFEFC8017E
:102050000E943E5FF60100851185E088F18862816B
:102060007381848195810E9452471F930F93FF9241
:10207000EF929F938F9388EC97E09F938F930E94AA
:10208000A55E2DB73EB7285F3F4F0FB6F8943EBF11
:102090000FBE2DBFCE01DF91CF911F910F91FF9009
:1020A000EF90DF90CF900895CF93DF93CDB7DEB759
:1020B00025970FB6F894DEBF0FBECDBF80E197E243
:1020C000A0E0B0E08A839B83AC83BD8380E80E945C
:1020D000C13260E177E280E090E00E946334222424
:1020E0003324522C60ED77E080E090E00E9463346E
:1020F0008091120A281609F471C18091110A2816DC
:1021000009F46CC185E1289E600111248091170AB1
:102110009091180AC80ED91EF60182819381A4817C
:10212000B5810097A105B10509F458C1808191815D
:10213000892B09F453C180910E0A882309F04EC1FE
:1021400080859185892BA1F00E94B02F9F938F935A
:1021500087ED97E09F938F930E94A55E60E375E7FC
:1021600080E090E00E9463340F900F900F900F90EA
:102170000E94E6423C01009709F4B1CF24E030E030
:10218000AE014E5F5F4F66E070E10E945F42F60174
:102190000081118162817381848195810E945247FF
:1021A0001F930F939F938F9386EE97E09F938F9348
:1021B0000E94A55EF60120813181428153816481B4
:1021C0007581C3010E9480432DB73EB72A5F3F4F00
:1021D0000FB6F8943EBF0FBE2DBF892B09F0E9C0A2
:1021E000B601C3010E94180F892B09F0DEC0F60169
:1021F00083899489009729F00E943E5FF601148A32
:10220000138AF601E484F58406851785E114F10448
:102210000105110509F4C6C0198281E092E00E940F
:10222000415F4C01892B09F4F0C0A12C92E0B92E3A
:10223000F0E0EF16F2E0FF06F0E00F07F0E01F0716
:1022400008F45701A501B401C3010E94CA3F181642
:1022500019065CF4AA2797FDA095BA2FE81AF90A87
:102260000A0B1B0B09F4C3C0E3CF84EF97E00E9475
:10227000C55EC8C08981482F55278150803208F03B
:102280006CC08A0184E0000F111F8A95E1F7EE24EB
:10229000FF2411C0B4016E0D7F1DA801C3010E946F
:1022A000CA3F97FDAFC0E80EF91EF401EE0DFF1D09
:1022B0001082081B190B0115110561F784015801E3
:1022C0006BE370E0C8010E943C65FC01892B19F4A6
:1022D00000E010E002C011928F016DE370E0C501D3
:1022E0000E943C65FC01892B99F111927F0103C08A
:1022F0000894E11CF11CF70180818032C9F3873218
:10230000B9F367E270E0C7010E947665FC01892B92
:1023100009F010826DEF77E0C5010E941F65892BDF
:10232000B9F4F70101900020E9F7CF018E199F0958
:102330000E94415F8C01B7010E945265C4010E9456
:102340003E5FF601148B038B0115110599F42DC026
:102350000115110509F456C0B2CF5F934F9389E080
:1023600098E09F938F930E94A55E0F900F900F901F
:102370000F9048C01F930F93852D99279F938F939C
:1023800081E198E09F938F930E94A55EF601128AE7
:102390002DB73EB72A5F3F4F0FB6F8943EBF0FBE32
:1023A0002DBF19C0F601128A16C081E0F601828B9A
:1023B00012C081E0F601828BC3010E94603F9F93AF
:1023C0008F938BE198E09F938F930E94A55E0F906F
:1023D0000F900F900F90C3010E9450420894211C4F
:1023E000311CF0E82F16310409F479CE7ACE41E0A1
:1023F00050E0BE016F5F7F4FC3010E94CA3F01974B
:1024000009F438CFC4010E943E5FF601148A138A92
:10241000CCCF8093390808950E94B93420E033E08E
:1024200040E050E061EB71E084E398E00E947C12B0
:102430008EEF0E94C1320E9445330E948C3220915F
:1024400039082F3FC1F393B783B7817F822B83BFB6
:1024500083B7816083BF889583B78E7F83BF83B73F
:10246000817F9E70892B83BFE6CF9F918F910F90C4
:102470000BBE0F900FBE1F9018952F923F924F9258
:102480005F926F927F928F929F92AF92BF92CF9204
:10249000DF92EF92FF920F931F93CF93DF938DB74D
:1024A0009EB7E0918F0AF091900A918B808BE0911A
:1024B0008D0AF0918E0AF093900AE0938F0A81E0E2
:1024C0008787E0918F0AF091900A808991898DBF6A
:1024D0009EBFDF91CF911F910F91FF90EF90DF9002
:1024E000CF90BF90AF909F908F907F906F905F90B4
:1024F0004F903F902F900895AF92BF92CF92DF926E
:10250000EF92FF920F931F93CF93DF937C016B01A8
:102510005A01E901C90149960E94C92EBC010097E0
:1025200019F480E090E07CC08C010C0F1D1FE801C5
:102530002897A8014D515040C801069628E0D701C0
:102540000D907D01FC010192CF012150C1F7F801EE
:10255000168641505040518B408B4F5F5F4F748BBC
:10256000638B8FEE9EEBADEABEEDFB018083918322
:10257000A283B38384839583A683B783808791875F
:10258000A287B38784879587A687B78780E4F801F9
:10259000828B1D828D2D99278E83CF8280E88B833D
:1025A0001A821C82A9828B2D99278883FA01128AAC
:1025B00025E332E1832F9927838B248B80918B0A2B
:1025C00090918C0AD8018D939C9310938C0A009360
:1025D0008B0A82E0F82EF801F786168A158A108E8B
:1025E000178A6DE87AE0C8010E94D931E0918F0A1C
:1025F000F091900A309721F40FB6F8940F9257CFCC
:1026000080918D0A90918E0AE817F90741F0F786BC
:102610000FB6F8940F920E943D120F900FBEC801A2
:10262000DF91CF911F910F91FF90EF90DF90CF90AE
:10263000BF90AF90089588E18093C10080E090E062
:102640000895982F8091C00085FFFCCF9093C6001D
:102650009A3011F49DE0F6CF0895EF92FF920F9318
:102660001F93CF93DF937A018B01EA0105C0F80134
:1026700081918F010E9421132197FFEFCF3FDF0748
:10268000B1F7C701DF91CF911F910F91FF90EF90AC
:102690000895EF92FF920F931F93CF93DF937A01E8
:1026A0008A01EB0105C0FE0184910E94211321964D
:1026B00001501040FFEF0F3F1F07A9F7C701DF913F
:1026C000CF911F910F91FF90EF90089510927C0988
:1026D00010927B0990937E0980937D091092800966
:1026E00010927F098BE799E0089580E090E00895CB
:1026F000CF93DF93EA016150714019F08FEF9FEFA4
:1027000020C00E94941C660F771F881F991F288184
:1027100039814A815B81E4E0220F331F441F551F3A
:10272000EA95D1F70E94C8652F5F3F4F4F4F5F4F2B
:10273000569547953795279521502093C40080E002
:1027400090E0DF91CF910895E82F83E080930EC051
:10275000809108C08A7F982F986020E0782F796058
:10276000582F5D60709308C0509308C02F5F2132CE
:10277000C9F7909308C0492F4460409308C07093F4
:1027800008C0509308C0662349F0909308C0409356
:1027900008C0709308C0509308C008C0709308C068
:1027A000509308C0909308C0409308C080E0909375
:1027B00008C0409308C08F5F8530C9F760E120E012
:1027C00030E08E2F862329F0709308C0509308C004
:1027D00004C0909308C0409308C066952F5F3F4F98
:1027E0002530310571F7909308C0892F99270895F6
:1027F00060E00E94A413482F477F409308C0642FD5
:102800006460609308C020E030E050E0409308C06E
:10281000609308C0220F331F809108C099279695B6
:10282000879581709070282B392B5F5F503171F73D
:10283000409308C0C9010895CF93DF93EB0161E095
:102840000E94A413282FF82FF160F09308C0E82FFE
:10285000E560E09308C0809308C0382F346030935F
:1028600008C060E070E840E050E0CE018623972386
:10287000892B29F0F09308C0E09308C004C020938E
:1028800008C0309308C0769567954F5F5F4F403121
:10289000510559F7277F209308C0DF91CF91089504
:1028A000CF93DF93FC01C189D2898C859D85AE854C
:1028B000BF850196A11DB11D8C879D87AE87BF87FF
:1028C00092E090930EC040910DC010920DC0809187
:1028D0000CC08423282F332722FF05C084E0809377
:1028E0000CC04B7F14C021FF12C010920EC080910B
:1028F00000C08160809300C0809100C0109201C030
:1029000090930EC090930CC080EA809300C024FF87
:1029100018C080E180930CC088819981892B29F4AB
:102920008FEF9FEF998388830CC0888199818F5F97
:102930009F4F39F0E881F9818481958101969583D3
:10294000848326FF18C080E480930CC0888199811D
:10295000892B29F48FEF9FEF998388830CC088819E
:1029600099818F5F9F4F39F0E881F981848195814A
:1029700001969583848320FF19C081E080930CC069
:102980004E7F88819981892B29F48FEF9FEF99835E
:1029900088830CC0888199818F5F9F4F39F0E881CF
:1029A000F9818481958101969583848323FF17C0E3
:1029B000477FE0918309F0918409309739F48FEFD4
:1029C0009FEF909384098093830909C05FEFEF3FE5
:1029D000F50729F08481958101969583848340933E
:1029E0000DC0DF91CF910895FC016115710569F06B
:1029F0009B0121503040832F9927982F81918093FC
:102A000008C02150D8F79150C8F70895CF93DF93AD
:102A1000EC01ED98E989FA8980E211928A95E9F74B
:102A2000AE0160E574E180EF98E00E94D237892B17
:102A300019F08FEF9FEF0BC020E832E0AE0162E4A7
:102A400076E18DE598E00E947C1280E090E0DF91D5
:102A5000CF910895CF93DF93EC0107C0809100C020
:102A600080FF09C081E00E947C1C21978FEFCF3F3F
:102A7000D807A1F705C0CD2B19F48FEF9FEF02C047
:102A800080E090E0DF91CF910895CF92DF92EF92B6
:102A9000FF920F931F93CF93DF93EC018B01409133
:102AA000850850918608609187087091880881E8B0
:102AB00099E00E94CD36892B09F0CCC0C988DA880C
:102AC000F801C185D28585859685C80FD91F818972
:102AD0009289C80FD91FF5E0CD3DDF0708F0B3C0DC
:102AE000F0900DC010920DC082E080930EC080E285
:102AF000809300C084E690E00E942A15892B09F09B
:102B0000A2C088E0F82AF0920DC02696F8018581CF
:102B10009681C80FD91FC0FD02C0EE242DC021969A
:102B200091E0E92E29C04DE750E060E070E083E8D5
:102B300099E00E94CD36892BF9F080E4809300C0A3
:102B400088EE93E00E942A1580E2809300C084E61C
:102B500090E00E942A15892B21F480910CC083FDFE
:102B60000BC04DE750E060E070E083E899E00E9420
:102B7000CD36892B09F067C080910CC083FFD3CF7D
:102B8000F0900DC010920DC0809103C0809302C0E0
:102B9000109206C080E4809307C0109208C0109283
:102BA00008C0C09308C08D2F9927809309C0F801F1
:102BB00065817681838194810E94F414F801618596
:102BC0007285878190850E94F414F8016585768569
:102BD000838594850E94F414F80161897289878540
:102BE00090890E94F414EE2011F0109208C0109207
:102BF00008C0109209C084E690E00E942A15892B33
:102C000011F580EC809300C0F6E0FF2AF0920DC031
:102C1000F60180859185A285B3850196A11DB11D20
:102C200080879187A287B38788E893E1A0E0B0E02E
:102C30008093850890938608A0938708B0938808AE
:102C4000C0E0D0E002C0CFEFDFEF81E899E00E9462
:102C50007A360EC084EF91E0A0E0B0E08093850862
:102C600090938608A0938708B0938808CFEFDFEF92
:102C7000CE01DF91CF911F910F91FF90EF90DF90E8
:102C8000CF9008954C01EC01AF84B888C988DA88E8
:102C9000F50181819281A381B4810197A109B109D4
:102CA0008E5F9F4FAF4FBF4F38F06FE370E080E013
:102CB00090E00E946334ECCF75010894E11CF11C94
:102CC00010920DC010920EC0109204C080E8809344
:102CD00005C011E010930EC0109200C0809301C097
:102CE0008AE00E947C1C10920EC0109204C01092C8
:102CF00005C0109200C0109201C010930EC0109237
:102D00000CC088E080930DC082E080930EC080E408
:102D1000809300C088EE93E00E942A15892B09F069
:102D200075C0EEC06FE370E080E090E00E94633415
:102D300080E00E94F81397FF06C0C430D10509F463
:102D400065C02196EFCF82E10E94F81360EC7FE32B
:102D500083E10E941C1410920EC080E180930AC08F
:102D600088E080930BC061EE71E084E00E941C1447
:102D70006FE370E080E090E00E946334C0E0D0E058
:102D8000CE018F779070892B59F460E072E180E07A
:102D90000E941C146FE370E080E090E00E946334B6
:102DA00081E00E94F81385FDC5C06FE370E080E00C
:102DB00090E00E946334219624E0C030D20731F1C4
:102DC000DFCFF701EA0FFB1F8081AC5FBF438C931D
:102DD000A350B04CA630B105A1F782E080930EC09D
:102DE00081E580930DC080916A00846080936A00C1
:102DF00080916A00886080936A00ED9A81E899E08A
:102E00000E947A3689E00E94C13207C068EE73E002
:102E100080E090E00E9463344FCF40ED57E060E0E7
:102E200070E0C6010E94CD36F0900DC010920DC02A
:102E300013C0E6018C819D81AE81BF810196A11DE9
:102E4000B11DF60184839583A683B783E501EB8DDD
:102E5000FC8DBA01C401199582E080930EC0809167
:102E600004C0909105C097FD46C0109206C080EE48
:102E7000809307C00000000000000000809108C09F
:102E8000909109C0C09108C0D09109C080709C7A0F
:102E9000892B09F059C0CE0182549040835B954044
:102EA00008F052C08E0103501040A80160E180E09C
:102EB00090E00E94293DAC01009709F441C0FC015B
:102EC00083819481012B71F0FC019E0124503040DC
:102ED000832F9927982F809108C081932150D8F78C
:102EE0009150C8F780E8809300C0FFEF4F3F5F0725
:102EF00009F09FCFB1CF21E4F22AF0920DC08DCF1F
:102F000083E080930EC087E080930CC010920EC0C7
:102F1000109204C081E0809305C081E8809300C0D6
:102F2000109201C060E070E880E00E941C14C0E0D4
:102F3000D0E0F8CE81E080930EC0A0E0B0E041CFB9
:102F400080E8809300C0D7CF80E8809300C084CF12
:102F5000AB01BC0187E89AE00E94CD36892B29F0AD
:102F60006FEF7FEF8FEF9FEF08956091830A70916D
:102F7000840A8091850A9091860A08951F920F9283
:102F80000FB60F9211248F939F9380EF8093B2001E
:102F90008091AC099091AD0901969093AD09809311
:102FA000AC09892B39F41092AE0980916E008F7BA9
:102FB00080936E009F918F910F900FBE0F901F9086
:102FC00018951F920F920FB60F9211242F933F93D3
:102FD0004F935F936F937F938F939F93AF93BF9321
:102FE000EF93FF932091AC093091AD091092AD0998
:102FF0001092AC098091AE09649B74C0482F4F5F5A
:103000004093AE09413071F41092A9091092A809B9
:10301000C90163E070E00E94B4657093AB096093EE
:10302000AA0967C08091AA099091AB0928173907AE
:1030300048F08091A8099091A90990619093A909FD
:103040008093A8092091A8093091A9093695279560
:103050003093A9092093A8094D3008F44AC0809103
:103060006E008F7B80936E001092AE094091A5098F
:103070004F5F4093A509413081F18091A60990915D
:10308000A7098217930719F01092A50932C04230A0
:1030900080F11092A509C901AA27BB278093830A52
:1030A0009093840AA093850AB093860AE091870AD8
:1030B000F091880A309739F48FEF9FEF9093880A48
:1030C0008093870A16C08FEFEF3FF80791F0848155
:1030D00095810196958384830CC03093A709209332
:1030E000A60907C0882329F480916E00806480932C
:1030F0006E00FF91EF91BF91AF919F918F917F9162
:103100006F915F914F913F912F910F900FBE0F9054
:103110001F9018950FB6F8940F9280EF8093B2002D
:1031200081E08093B000EEE6F0E0808180648083EF
:103130006C98EAE6F0E080818160808380818D7FF9
:103140008083EC9A0F900FBE80E090E008959AB1D2
:10315000906F9AB99BB19F70807F982B9BB9739A9F
:103160000000000000000000739800000000000054
:10317000000008950E947C1C08950F931F93182F40
:10318000062F0E94A7181295107F002351F0802F60
:103190000E94BA18812F0E94A718802F0E94BA1887
:1031A00003C0812F0E94A7181F910F9108956A9A5A
:1031B00072980E94BD1808950F931F93CF93DF93C9
:1031C0008C016A9A6B9A729883E30E94A71882E333
:1031D0000E94BA1883E30E94A71882E30E94BA18DB
:1031E00083E30E94A71882E30E94BA1882E20E9439
:1031F000A71882E30E94BA18E801E989FA89878949
:10320000823010F088E201C080E261E00E94D718AD
:1032100062E081E00E94D71862E086E00E94D71841
:1032200062E08CE00E94D71862E082E00E94D7182A
:1032300062E080E80E94D7181092EF08DF91CF91EA
:103240001F910F91089562E082E00E94D7180895BF
:1032500062E081E00E94D718089561E084E10E9455
:10326000D718089561E080E10E94D718089562E0C0
:1032700082E00E94D7180895CF93DF93CDB7DEB7D1
:1032800024970FB6F894DEBF0FBECDBF198290E42D
:103290009A8390E19B8390E59C83982F9F70829501
:1032A0008F70843008F083E0FE01E80FF11D81810A
:1032B000980F61E0892F80680E94D71824960FB676
:1032C000F894DEBF0FBECDBFDF91CF9108956A9A0B
:1032D000729A61E00E94BD1808950DB407FEFDCFFB
:1032E0002D9A8EBD00000000000000002D9808956A
:1032F000EF92FF920F931F93CF93DF93EC018B011B
:1033000088E8E82E83E1F82E0FC00894E108F10860
:103310008FEFE8168FEFF80611F0669BF6CFFE01EF
:1033200084910E946D19219601501040FFEF0F3FCC
:103330001F0759F7EF2819F080E090E002C08FEFE7
:103340009FEFDF91CF911F910F91FF90EF90089524
:10335000482F90E820E030E0842F892311F02A9A4A
:1033600001C02A98289A969528982F5F3F4F2830B9
:10337000310591F7089590E880E020E030E0289A48
:103380001B99892B969528982F5F3F4F2830310540
:10339000B1F799270895FF920F931F93F82E8B0191
:1033A0002C988CB58F7B8CBD82E00E94A8198F2D44
:1033B0000E94A819812F99270E94A819802F0E9486
:1033C000A81980E58CBD8DB58DBD2C9A1F910F91EC
:1033D000FF9008950F931F93182F2C988CB58F7B17
:1033E0008CBD83E00E94A819812F0E94A8190E9419
:1033F000BB19082F1127102F00270E94BB1990E539
:103400009CBD9DB59DBD2C9A9927802B912B1F911A
:103410000F9108958091AF09992708950F931F93F5
:10342000182F0091B009882329F086EF98E00E94B8
:10343000F23704C086EF98E00E9404381093B00978
:10344000802F99271F910F910895CF92DF92EF92CD
:10345000FF920F931F93CF93DF93CDB7DEB72197E2
:103460000FB6F894DEBF0FBECDBF8983D62E80E0A5
:103470000E940E1AC82E2981332727703070C90187
:1034800043E0880F991F4A95E1F7820F931F885CEC
:10349000898363E070E084E391E00E9478198E01F3
:1034A0000F5F1F4F38E8E32E33E1F32E0894E10855
:1034B000F1088FEFE8168FEFF80611F0669BF6CF54
:1034C000F80180810E946D19CE0101960817190735
:1034D00019F00F5F1F4FEACF64E070E08CE291E0DB
:1034E0000E9478198D2D0E947C1C64E070E080E3BE
:1034F00091E00E94781964E070E08CE291E00E9413
:1035000078198C2D0E940E1A80E090E021960FB65B
:10351000F894DEBF0FBECDBFDF91CF911F910F9109
:10352000FF90EF90DF90CF900895DF92EF92FF929F
:103530000F931F93082FE62E80E00E940E1AD82EBC
:103540001127102F0027FF240E291F29B8018BE017
:103550000E94CB198D2D0E940E1A80E090E01F91E1
:103560000F91FF90EF90DF900895FF920F931F93BC
:1035700080E00E940E1AF82E68E070E087E391E088
:103580000E94781988E20E947C1C88E00E94EA1957
:103590008C018F2D0E940E1AC8011F910F91FF9070
:1035A0000895FF920F931F938C0180E00E940E1AE2
:1035B000F82E89E00E94EA19F8019183808388E05F
:1035C0000E94EA19F801938382838F2D0E940E1ABC
:1035D00080E090E01F910F91FF900895FF920F936C
:1035E0001F9380E00E940E1AF82E84E00E94EA19D0
:1035F0008C018F2D0E940E1AC8011F910F91FF9010
:103600000895FF920F931F938C0180E00E940E1A81
:10361000F82EB80180E00E94CB198F2D0E940E1A5F
:1036200080E090E01F910F91FF9008950F931F93FA
:10363000CF93DF938C0180E00E940E1A1092AF09A5
:10364000E801C460BE0180E00E94CB1982E00E94C4
:103650007C1C02FD02C0669912C02F9800002F9AB0
:1036600084E00E947C1CBE0180E00E94CB1982E0B5
:103670000E947C1C669903C08FEF9FEF11C060E031
:1036800078E983E00E94CB1968E070E882E00E944C
:10369000CB1982E00E947C1C80E48CBB80E090E02F
:1036A000DF91CF911F910F91089580E00E940E1A33
:1036B0002F98279A2D98259A2C9A249A769A6E9864
:1036C000229A219A23982898209A80E58CBD8DB55E
:1036D0001EBC40E050E062EA7BE186EF98E00E9489
:1036E000D237892B19F08FEF9FEF089566E070E0D5
:1036F00086EF98E00E9450382F9A84E00E947C1C4C
:1037000060E078E983E00E94CB1968E070E882E02D
:103710000E94CB1988EC0E947C1C80E48CBB80E06A
:1037200090E0089580E00E940E1A982F8091AF09D2
:10373000813011F41092AF09892F0E940E1A80E097
:1037400090E00895AF92BF92CF92DF92EF92FF92F6
:103750000F931F93CF93DF93CDB7DEB722970FB6AA
:10376000F894DEBF0FBECDBF669B7FC080E00E9495
:103770000E1AA82E78948091AF09813069F0F0E29A
:10378000BF2E47C082E08093AF09CC24DD243EC029
:1037900082E08093AF093AC01A821982E0E2BE2E1D
:1037A000EE24FF2400E010E0CC24DD2404C07FE1FF
:1037B000B72E0F5F1F4F89819A81C816D90688F0EE
:1037C000C114D10419F0C6010E94BC30CE0101968B
:1037D0000E9433308C0189819A81892B99F2CC2403
:1037E000DD24F80180810E946D190894C11CD11C50
:1037F0000894E11CF11CF1E0EF16F0E1FF0641F244
:103800006699D5CFBA948FEFB81699F6C6010E9483
:1038100061318091AF09813029F18091B109909196
:10382000B209892B39F41EC084E08093AF091AC015
:103830006FE1B62E80E00E946D198091B1099091E0
:10384000B20901979093B2098093B1098091B109AF
:103850009091B209892B41F36699EACFBA94EFEFC0
:10386000BE1641F78A2D0E940E1A22960FB6F894C2
:10387000DEBF0FBECDBFDF91CF911F910F91FF90A3
:10388000EF90DF90CF90BF90AF90089580E00E94BE
:103890000E1A81E08093AF0980E090E00E94A21BA5
:1038A00081E00E940E1A80E090E0089580E00E947E
:1038B0000E1A8091AF09843039F40E94D03161151D
:1038C00071058105910591F08091B1099091B2093E
:1038D000892B31F480E098E09093B2098093B1098C
:1038E0008091AF09813011F00E94461C81E00E9456
:1038F0000E1A80E090E008951F93182F6091B3098D
:103900007091B4098091B5099091B60920EA3FE021
:1039100040E050E00E94C865822F932F0197F1F795
:103920001A95D1F71F9108956091B3097091B40968
:103930008091B5099091B60908956AEE73E080E030
:1039400090E0089520E030E041EE50E02093B3098C
:103950003093B4094093B5095093B609E0E7F0E01D
:1039600020812D7F20831092B20032E03093B0008E
:1039700025E02093B10022E72093B30035BB40E05F
:1039800050E0BC018CEF98E00E94D23708952AEEF7
:1039900033E040E050E00E94896528EE33E040E0EB
:1039A00050E00E94C865211531054105510521F4FB
:1039B00021E030E040E050E0CA01B90108959C01E7
:1039C000FB018DB3482F552740725070ED9821317F
:1039D0003105E9F1223131054CF42130310519F17D
:1039E0002031310519F1232BA1F073C028313105A5
:1039F00089F1293131052CF42231310509F069C0F2
:103A00006EC029313105D9F12032310509F061C08C
:103A100027C080916A008B7F80936A0080916A0042
:103A2000877F80936A0080E28CBB1EC0E59B05C047
:103A300081E090E09183808302C011821082452B47
:103A400009F44DC08081918180689183808380E0FA
:103A500090E043C080916A00982F987083FF07C060
:103A600085E090E09183808380E090E034C09430E2
:103A700019F487E090E0F6CF81E090E0F3CF608129
:103A800071816130710521F480916A008B7F06C0DD
:103A90006730710549F480916A00846080936A0000
:103AA00080916A00877F12C06530710521F4809192
:103AB0006A008B7F06C06630710559F480916A00F8
:103AC000846080936A0080916A00886080936A00B5
:103AD000CBCF8FEF9FEF452B21F0ED9A089580E03B
:103AE00090E008951F920F920FB60F9211242F931A
:103AF0003F934F935F936F937F938F939F93AF9376
:103B0000BF93EF93FF9380EF98E00E94C437FF913B
:103B1000EF91BF91AF919F918F917F916F915F9145
:103B20004F913F912F910F900FBE0F901F901895BE
:103B30009C01FB018DB3482F552740745070EE98BF
:103B400021313105E9F1223131054CF421303105C3
:103B500019F12031310519F1232BA1F076C028315C
:103B6000310589F1293131052CF42231310509F073
:103B70006CC071C029313105D9F12032310509F00D
:103B800064C060C080916A008F7E80936A008091DB
:103B90006A008F7D80936A0080E48CBB1EC0E69B28
:103BA00005C081E090E09183808302C01182108281
:103BB000452B09F450C08081918180689183808376
:103BC00080E090E046C080916A00982F907285FF57
:103BD00007C085E090E09183808380E090E037C06B
:103BE000903119F487E090E0F6CF81E090E0F3CFD8
:103BF000608171816130710521F480916A008F7E4E
:103C000006C06730710549F480916A008061809335
:103C10006A0080916A008F7D12C06530710521F4C1
:103C200080916A008F7E06C06630710571F48091C4
:103C30006A00806180936A0080916A00806280934C
:103C40006A00CBCF86E090E0C6CF8FEF9FEF452B89
:103C500021F0EE9A089580E090E008951F920F926F
:103C60000FB60F9211242F933F934F935F936F934F
:103C70007F938F939F93AF93BF93EF93FF9386EFC1
:103C800098E00E94C437FF91EF91BF91AF919F914F
:103C90008F917F916F915F914F913F912F910F90F5
:103CA0000FBE0F901F9018959C01FB018091700032
:103CB000482F552742705070809170008D7F8093FF
:103CC000700020313105D9F0213131053CF4211546
:103CD000310581F02130310551F40EC0223131051A
:103CE00079F122313105DCF020323105D9F02FEFA6
:103CF0003FEF1EC040E050E082E087BB17C0B99B99
:103D000005C081E090E09183808302C0118210821F
:103D1000452BB1F08081918180689183808320E080
:103D200030E008C088E090E09183808320E030E0BC
:103D3000452B41F08091700082608093700002C03A
:103D400020E030E0C90108951F920F920FB60F9244
:103D500011242F933F934F935F936F937F938F9390
:103D60009F93AF93BF93EF93FF938CEF98E00E94E4
:103D7000C437FF91EF91BF91AF919F918F917F9148
:103D80006F915F914F913F912F910F900FBE0F90C8
:103D90001F901895CF93DF93DC01FC0187E381939B
:103DA00093E0ED019983DF01119681E08183FD01AC
:103DB000918386E0828385E090E0DF91CF91089542
:103DC0008091BB09992708958091BC099091BD0904
:103DD0001092BD091092BC09089520E030E0809156
:103DE000BB09853011F421E030E0C9010895DF926C
:103DF000EF92FF920F931F93CF93DF93D62E79010B
:103E00008A010E944737EC01892B51F08B85833062
:103E100039F4EF85F889309719F08081863049F0C0
:103E200081E190E09093BD098093BC098FEF9FEFF3
:103E300035C00E944F356093C6097093C7098093BF
:103E4000C8099093C909E092C209F092C30900938E
:103E5000C4091093C509D092BB098091B90990910A
:103E6000BA09892B69F420E032E0AE016EE774E212
:103E700082E099E00E947C129093BA098093B9097C
:103E80008EEB99E00E947A3640E050E060E070E00E
:103E900080EC99E00E94CD3680E090E0DF91CF91F8
:103EA0001F910F91FF90EF90DF900895FC019A0110
:103EB000AB018091BB09882349F083E090E09093A7
:103EC000BD098093BC098FEF9FEF089568E0CF0193
:103ED0000E94F71E0895FC019A01AB018091BB0975
:103EE000853049F083E090E09093BD098093BC0950
:103EF0008FEF9FEF089569E0CF010E94F71E0895AC
:103F0000CF92DF92EF92FF920F931F93CF93DF93A5
:103F1000FC0184E292E0DF011D920197E9F781E064
:103F20008083818386E08283DF015C96CAEBDAE0DE
:103F300009900D928150E1F724833583468357839E
:103F40000C2CCD2CD02CD186C086E486F586068735
:103F50001787DF01A451BF4F93E6FD01919382E8DB
:103F6000ED018983DF01119683E58183FD0131969F
:103F7000ED019983DF01119685E3818381E0FD01E5
:103F80008183628387E090E0DF91CF911F910F9151
:103F9000FF90EF90DF90CF900895CF93DF93CDB750
:103FA000DEB722970FB6F894DEBF0FBECDBFDC019F
:103FB0005A834983FC0161939F0182E0FD01818363
:103FC00089819A81082E892F902DF901928381830E
:103FD00084E090E022960FB6F894DEBF0FBECDBF0E
:103FE000DF91CF9108950F931F93CF93DF93DC015F
:103FF000CA01022FFD016193ED0129831127A80158
:10400000BC01CF0101960E940F65C8010296DF91A5
:10401000CF911F910F9108954F925F926F927F926F
:104020008F929F92AF92BF92CF92DF92EF92FF92C8
:104030000F931F93CF93DF93CDB7DEB760970FB683
:10404000F894DEBF0FBECDBF3C012B012D873E870C
:104050004F87588B0E9447375C01009769F0FC013D
:104060008385833049F4C784D088C114D10421F0FA
:10407000F6018081863019F081E190E039C08E012F
:10408000095F1F4FF80111928A95E9F746E050E069
:104090006FEF70E04E010894811C911CC4010E94D6
:1040A000186576010894E11CF11C46E050E0B80167
:1040B000C7010E940265892B41F046E050E0B4013F
:1040C000C7010E940265892B31F54114510449F062
:1040D000AAEBBAE0F20186E001900D92815069F0FE
:1040E000FBCFC3010E940D4A892B39F082E090E09A
:1040F0009093BD098093BC0999C0F701AAEBBAE07F
:1041000086E00D9001928150E1F764EF71E080E06C
:1041100090E00E9463342091CC0A3091CD0A409106
:10412000CE0A5091CF0AE090C40AF090C50A0091DF
:10413000C60A1091C70ADA01C9018E219F21A02366
:10414000B1230097A105B10549F02093C00A30932F
:10415000C10A4093C20A5093C30A58C02D853E85B8
:104160004F85588961E0C3010E94F71E892B09F031
:104170005DC08091BB09853031F5E091B709F091C0
:10418000B809C584D684E784F08805811681278123
:1041900030854181528163817481C5010E94474805
:1041A000E091B709F091B809E588F6880789108D84
:1041B000218932894389548960E070E080E090E091
:1041C0000E94502B30C0F60187819085A185B28571
:1041D0000097A105B10539F52091C00A3091C10AB7
:1041E0004091C20A5091C30AE090C40AF090C50AF7
:1041F0000091C60A1091C70ADA01C9018E219F21D8
:10420000A023B1230097A105B10581F0A090C80AB1
:10421000B090C90AC090CA0AD090CB0A6AEB7AE083
:10422000C3010E94424980E090E002C08FEF9FEFFF
:1042300060960FB6F894DEBF0FBECDBFDF91CF9171
:104240001F910F91FF90EF90DF90CF90BF90AF90B4
:104250009F908F907F906F905F904F900895CF9335
:10426000DF93EC01892B79F089A59AA5009711F0CD
:104270000E943E5F8BA59CA5009711F00E943E5FB7
:10428000CE010E943E5FDF91CF910895EF92FF92A1
:104290000F931F93CF93DF938C017B01EA01DC0125
:1042A0008D919C91009711F00E943E5FCE01019686
:1042B0000E94415FF80191838083009761F020970D
:1042C00021F0AE01B7010E940F65D801ED91FC917C
:1042D000EC0FFD1F1082DF91CF911F910F91FF9086
:1042E000EF9008954F925F927F928F929F92AF923C
:1042F000BF92CF92DF92EF92FF920F931F93CF93D3
:10430000DF938C017B018DE290E00E94415FEC0124
:10431000009709F420C12C018DE2FE0111928A95CB
:10432000E9F780EC98EAA0E0B0E08DA39EA3AFA3EC
:10433000B8A7F80180899189A289B38989839A8372
:10434000AB83BC8380EFC82ED12CC00ED11E00E100
:10435000A02E0FEFB02EAE0CBF1CEAC0662339F4BE
:104360000894C11CD11C0894A108B108E1C0F60151
:104370007180872C9924A814B9040CF4E9C0653322
:1043800041F4F1E07F1609F0E3C0F60182818883F1
:10439000C3C06C3039F4B6016E5F7F4FA401CE010B
:1043A000899608C06F3049F4B6016E5F7F4FA40153
:1043B000CE018B960E944621AFC0F3E0F71508F0BE
:1043C000ABC0F601228183819927AA27BB27EE245F
:1043D000F82E092F1A2FE20EF11C011D111D258147
:1043E000332744275527522F4427332722278481F8
:1043F0009927AA27BB27DC0199278827280F391F6F
:104400004A1F5B1FE20EF31E041F151F613029F4C3
:10441000ED82FE820F8318877FC06C3129F4E98614
:10442000FA860B871C8778C0633029F4ED86FE86F8
:104430000F87188B71C0663009F041C0E98AFA8A8B
:104440000B8B1C8BF7E0F71508F066C0F601268190
:104450003327442755272D8B3E8B4F8B588F8781D1
:104460009927AA27BB27BA2FA92F982F8827820F11
:10447000931FA41FB51F8D8B9E8BAF8BB88F20858C
:10448000332744275527A90133272227280F391F0F
:104490004A1F5B1F2D8B3E8B4F8B588F8185992731
:1044A000AA27BB27B82FAA2799278827280F391FA3
:1044B0004A1F5B1F2D8B3E8B4F8B588F2DC0663351
:1044C00029F4E98EFA8E0B8F1C8F26C06A3359F4BB
:1044D0000E2CE12E102D0F2CF02E002DED8EFE8EC9
:1044E0000F8F18A319C06B3359F40E2CE12E102D29
:1044F0000F2CF02E002DE9A2FAA20BA31CA30CC0D6
:10450000633351F40E2CE12E102D0F2CF02E002DC4
:10451000EDA2FEA20FA318A7C70CD11C82E090E069
:10452000C80ED91EA818B908EEEFFFEFAE0EBF1ED9
:10453000F60160816F3F29F01A141B040CF40ECFB2
:1045400007C08881823051F0853041F0863031F0EB
:10455000CE010E942F214424552439C08D8D9E8D7B
:10456000AF8DB8A10097A105B10561F48DA19EA101
:10457000AFA1B8A5B695A795979587958D8F9E8F76
:10458000AF8FB8A389A19AA1ABA1BCA10097A10547
:10459000B105E9F48D8D9E8DAF8DB8A19C01AD0163
:1045A0005695479537952795280F391F4A1F5B1F4A
:1045B00062E0B695A795979587956A95D1F7280FEC
:1045C000391F4A1F5B1F29A33AA34BA35CA3C20157
:1045D000DF91CF911F910F91FF90EF90DF90CF90DF
:1045E000BF90AF909F908F907F905F904F90089575
:1045F000EF92FF920F931F93DC01F801E20FF31F7C
:10460000E451FF4F8FEF808303511F4F81E00C3245
:10461000180710F40CE211E07801890123E430E07E
:10462000CD010E94754497FD03C080E090E008C072
:1046300083E190E09093BD098093BC098FEF9FEFD9
:104640001F910F91FF90EF9008952F923F924F92FC
:104650005F926F927F928F929F92AF92BF92CF9212
:10466000DF92EF92FF920F931F93CF93DF93CDB71B
:10467000DEB71C012A013B014901A801970186010F
:1046800075019CEEA92EB12CA80CB91CCE8CDF8C28
:1046900063E0C4010E94801F8C018E899F89A88DD0
:1046A000B98D0097A105B10561F024E0AE014A5E25
:1046B0005F4F62E3C501800F911F0E94F31F080F37
:1046C000191F8A8D9B8DAC8DBD8D0097A105B105FD
:1046D00061F024E0AE01465E5F4F66E3C501800FE6
:1046E000911F0E94F31F080F191FC501800F911F12
:1046F0000E94CA1E080F191FACE9BAE0FD01019023
:104700000020E9F73197EA1BFB0B1E161F0654F435
:104710002E2FAD016CE0C501800F911F0E94F31F89
:10472000080F191F9401B301A201C1010E94F822D0
:10473000DF91CF911F910F91FF90EF90DF90CF907D
:10474000BF90AF909F908F907F906F905F904F90B1
:104750003F902F9008956F927F928F929F92AF9289
:10476000BF92CF92DF92EF92FF920F931F93CF935E
:10477000DF93CDB7DEB7EE89FF89FF93EF936A88A9
:104780007B888C889D889F928F927F926F92DF9218
:10479000CF92BF92AF925701680179018A019B01C4
:1047A0004FEF5FEF6FEF7FEF0E9425232DB73EB7EE
:1047B000265F3F4F0FB6F8943EBF0FBE2DBFDF916F
:1047C000CF911F910F91FF90EF90DF90CF90BF900E
:1047D000AF909F908F907F906F9008952F923F920F
:1047E0004F925F926F927F928F929F92AF92BF9201
:1047F000CF92DF92EF92FF920F931F93CF93DF93AD
:10480000CDB7DEB72C970FB6F894DEBF0FBECDBF85
:1048100098878F8349875A876B877C87390147013F
:1048200058010E944F351B012C016701780104E2F9
:1048300012E09301AE014F5F5F4FBE016D5F7F4F8E
:104840008F8198850E94F5449C01181619064CF03A
:10485000892BD1F184E190E09093BD098093BC094C
:1048600033C0823F910590F0D3018C91823071F476
:10487000F30184819581A681B78149855A856B852D
:104880007C8584179507A607B707F1F00E944F357E
:104890006B017C01C218D308E408F508D501C401F6
:1048A0008A5F9040A040B040C816D906EA06FB06D1
:1048B00048F4C501B4016C197D098E099F096B018B
:1048C0007C01B5CF20E030E0C9012C960FB6F894FA
:1048D000DEBF0FBECDBFDF91CF911F910F91FF9033
:1048E000EF90DF90CF90BF90AF909F908F907F9090
:1048F0006F905F904F903F902F900895CF93DF93EC
:10490000CDB7DEB7A2970FB6F894DEBF0FBECDBF0E
:104910008C010E94CB356D8B7E8B8F8B988F209175
:10492000C00A3091C10A4091C20A5091C30A2C8733
:104930003D874E875F87F801078510891C8F0B8F95
:10494000F80186819927AA27BB27BA2FA92F982F6C
:1049500088272581820F911DA11DB11DBA2FA92F76
:10496000982F88272481820F911DA11DB11D6624D7
:10497000782E892E9A2E8381680E711C811C911CC1
:104980001AA219A218A21F8E1E8E1D8E1A8E198EA3
:10499000198A1A8A1B8A1C8A188A70EA272E7FE0D5
:1049A000372E412C512C3EC08091B7099091B80907
:1049B0000E942F2129A13AA13093B8092093B70969
:1049C0000CC08091B7099091B8090E942F2149A18C
:1049D0005AA15093B8094093B7091093BB098D8928
:1049E0009E89AF89B88D898B9A8BAB8BBC8B16C097
:1049F0008091B7099091B8090E942F21A9A1BAA16D
:104A0000B093B809A093B7091093BB092D893E89CB
:104A10004F89588D298B3A8B4B8B5C8B1AA219A22C
:104A20003F81388B48894423E1F0220C331C441C1D
:104A3000551C51E025165AEF350650E0450650E06A
:104A4000550648F48FEF9FEFAFEFBFEF8887998748
:104A5000AA87BB8736C0212C5AEF352E412C512C0A
:104A600028C08091BB09833029F00894611C711C17
:104A7000811C911CE091B709F091B809309799F029
:104A8000818D928DA38DB48D88879987AA87BB87E6
:104A90000097A105B10539F040EA242E4FE0342EED
:104AA000412C512C0EC030EA232E3FE0332E412CF6
:104AB000512C2FEF3FEF4FEF5FEF288739874A8761
:104AC0005B878091BB09882309F481C58091C20965
:104AD0009091C309A091C409B091C5090097A1059F
:104AE000B10569F10E944F359B01AC018091C60967
:104AF0009091C709A091C809B091C909281B390B29
:104B00004A0B5B0B8091C2099091C309A091C40923
:104B1000B091C509281739074A075B0718F081E0EB
:104B200090E08DC0BC01CD01621B730B840B950B13
:104B3000621573058405950510F41B012C01809105
:104B4000BB09823021F0863011F0873041F5388979
:104B50003323E9F00E94CB352D893E894F89588D4A
:104B6000621B730B840B950B60507040814090402A
:104B700028F04FEF5FEF5A8F498F11C00E94CB355D
:104B8000AD89BE896A1B7B0B7A8F698F08C00E9432
:104B9000CB356D8B7E8B8F8B988F1A8E198E809173
:104BA000BB09853011F08823B9F4EF8DF8A1309757
:104BB00019F0CF010E9449442D8D3E8D232B19F40D
:104BC00018A21F8E52C08D8D9E8D0E943E5F18A22E
:104BD0001F8E1E8E1D8E49C08091B7099091B80915
:104BE000892B51F4EB8DFC8D87819085A185B28551
:104BF0000097A105B10539F52F8D38A1232B29F098
:104C00004D8D5E8D452B89F50AC084E490E00E94AD
:104C1000B64498A38F8F8D8D9E8D892B31F484E2BD
:104C200092E00E94415F9E8F8D8FAF8DB8A1AB2B1C
:104C300021F0ED8DFE8DEF2B49F482E190E0909311
:104C4000BD098093BC091092BB09ECCE80EC96E0C4
:104C50009A83898322E030E0AE014F5F5F4F62E0CC
:104C600070E18F8D98A10E941744D090BB09F1E0AC
:104C7000DF16F9F40894611C711C811C911C809151
:104C8000C40A9091C50AA091C60AB091C70A2C85A2
:104C90003D854E855F8582239323A423B52300970A
:104CA000A105B10511F482E001C084E08093BB0945
:104CB00079C432E0D31609F002C148894F5F4F83AF
:104CC0005889543038F081E090E09093BD0980938A
:104CD000BC0936C48C859D85AE85BF858B839C833E
:104CE000AD83BE83AD8CBE8CACEEB0E0AA0EBB1E15
:104CF000C98CDA8CEE24FF248701A401930161E0C2
:104D00008D8D9E8D0E94801F8C018B819C81AD8139
:104D1000BE810097A105B10561F024E0AE014D5FB1
:104D20005F4F62E3C501800F911F0E94F31F080FC0
:104D3000191FC501800F911F0E94CA1E080F191F5D
:104D4000ACE9BAE0FD0101900020E9F73197EA1BD8
:104D5000FB0B1E161F0654F42E2FAD016CE0C5018F
:104D6000800F911F0E94F31F080F191F40E452E0AB
:104D700069E3C501800F911F0E94CD1F080F191F05
:104D80002D8D3E8D4FEF5FEF6FEF7FEF8F8D98A1F1
:104D90000E94F82297FF78C0D3C3E090B709F09043
:104DA000B8098D8D9E8D0E9472218C01009709F4A7
:104DB00052C0FC018081823021F0C8010E942F2165
:104DC0004AC0E114F10409F4FCC32091C00A3091F7
:104DD000C10A4091C20A5091C30A8091C40A9091BD
:104DE000C50AA091C60AB091C70A82239323A423BF
:104DF000B5230097A105B105B9F0F7018181928132
:104E0000A381B48182179307A407B50709F4DAC315
:104E1000F80181819281A381B48182179307A4074D
:104E2000B50709F0CFC30FC0F80125A136A147A1EE
:104E300050A5F70185A196A1A7A1B0A58217930758
:104E4000A407B50720F4C7010E942F21BAC3C801E7
:104E50000E942F21B7C3F092B809E092B709EF285A
:104E600099F08091C2099091C309A091C409B091B1
:104E7000C509805E9E42A040B040C0F020EA222ECC
:104E80002FE0322E412C512C820171012D8D3E8D4F
:104E9000B401A3018F8D98A10E94EE23BC011816C6
:104EA00019060CF47ACF99230CF44AC38091B70900
:104EB0009091B809892B09F476C383E0F7CE23E0FB
:104EC000D21609F054C038893F5F3F834889443087
:104ED00020F081E08093BB0966C3E091B709F091AF
:104EE000B809A180B280C380D480898D9A8D9F93A8
:104EF0008F93818D928DA38DB48DBF93AF939F932C
:104F00008F93EE24FF248701A40193016D8D7E8D84
:104F10008F8D98A10E94AB23ADB7BEB716960FB682
:104F2000F894BEBF0FBEADBF99230CF409C3820134
:104F300071012D8D3E8DB401A3018F8D98A10E942A
:104F4000EE23BC0199230CF4FBC2892B09F42BC37B
:104F50008D8D9E8D0E9472219AA389A3009709F4DA
:104F60005FCDFC011081153009F442CDF3C1F4E0AE
:104F7000DF1609F059C028892F5F2F83243040F0B5
:104F800081E08093BB091C861D861E861F860BC38D
:104F9000498D5A8D5F934F931F921F921F921F92BC
:104FA000AC84BD84CE84DF84EE24FF248701A40179
:104FB00093016D8D7E8D8F8D98A10E94AB23ADB72F
:104FC000BEB716960FB6F894BEBF0FBEADBF9923FD
:104FD0000CF4B6C2820171012D8D3E8DB401A30186
:104FE0008F8D98A10E94EE23BC0199230CF4A8C2D6
:104FF000892B09F4D8C28D8D9E8D0E9472219AA3AF
:1050000089A3009709F40CCDFC011081153009F437
:10501000CBCC163009F0CCC281E08093BB091C8652
:105020001D861E861F86C4C2F5E0DF1609F04AC041
:1050300080EC99E00E946F36E091B709F091B809D1
:10504000E58CF68C078D10A10E94CB3529893A8911
:105050004B895C89621B730B840B950B6E157F0566
:105060008007910710F086E021CEE091B709F0911A
:10507000B809E58CF68C078D10A10E94CB352989E3
:105080003A894B895C89621B730B840B950BE61A7A
:10509000F70A080B190BC801B701683339E8730721
:1050A00031E4830730E0930720F067E379E881E497
:1050B00090E028EE33E040E050E00E948965AB01CB
:1050C000BC016CC246E0D41609F0AEC0E091B7094D
:1050D000F091B809A1A0B2A0C3A0D4A00E94CB3582
:1050E0007B018C01C201B10128EE33E040E050E0C9
:1050F0000E94C86589899A89AB89BC89E81AF90A2E
:105100000A0B1B0BAE18BF08C00AD10AA216B306C1
:10511000C406D506E0F4E091B709F091B80921A0E2
:1051200032A043A054A00E94CB3529893A894B89EB
:105130005C89621B730B840B950B28EE33E040E017
:1051400050E00E948965261A370A480A590AE091F8
:10515000B709F091B809E1A0F2A003A114A10E943F
:10516000CB3529893A894B895C89621B730B840B87
:10517000950B6E157F058007910750F5E091B709F3
:10518000F091B809A180B280C380D480418D528D46
:10519000638D748D898D9A8D9F938F931F921F922B
:1051A0001F921F92DF92CF92BF92AF928401730140
:1051B0002D8D3E8D8F8D98A10E942523ADB7BEB752
:1051C0001A960FB6F894BEBF0FBEADBF97FF02C0D0
:1051D00087E06CCDB889BF5FBF83820171012D8DDF
:1051E0003E8DB401A3018F8D98A10E94EE23BC01D6
:1051F00099230CF4A5C1892B09F4D5C18D8D9E8D01
:105200000E9472219AA389A3009709F409CCFC019A
:105210001081153009F4ECCB163009F0C9C187E0D4
:105220008093BB091F82C4C1F7E0DF1609F099C063
:10523000E091B709F091B809E1A0F2A003A114A18F
:105240000E94CB3529893A894B895C89621B730B93
:10525000840B950BE61AF70A080B190BE214F304FA
:1052600004051505B0F4E091B709F091B80921A043
:1052700032A043A054A00E94CB35261A370A480A10
:10528000590A89899A89AB89BC89281A390A4A0A34
:105290005B0AE091B709F091B809E1A0F2A003A17F
:1052A00014A10E94CB3529893A894B895C89621BFC
:1052B000730B840B950B6E157F058007910718F013
:1052C000D092BB096FC138893F5F3F83E091B70936
:1052D000F091B809E180F28003811481498D5A8DE3
:1052E0005F934F931F921F921F921F925701680165
:1052F000A40193016D8D7E8D8F8D98A10E94AB23AB
:10530000ADB7BEB716960FB6F894BEBF0FBEADBF11
:1053100099230CF415C1820171012D8D3E8DB401CC
:10532000A3018F8D98A10E94EE23BC0199230CF458
:1053300007C1892B09F437C18D8D9E8D0E94722182
:105340009AA389A3009709F46BCBFC011081153057
:1053500009F437CB163009F02BC181E08093BB09EB
:1053600027C1F8E0DF1609F088C028892F5F2F8356
:105370003889343008F0E4C0AD8CBE8C4CEE50E07F
:10538000A40EB51EEB8DFC8DE780F084018512859F
:10539000CC24DD24A401930168E08D8D9E8D0E94B4
:1053A000801F8C01C501800F911F0E94CA1E080F2B
:1053B000191FACE9BAE0FD0101900020E9F731972F
:1053C000EA1BFB0B51F02E2FAD016CE0C501800FE5
:1053D000911F0E94F31F080F191F40E452E069E378
:1053E000C501800F911F0E94CD1F080F191F2D8D21
:1053F0003E8D488559856A857B858F8D98A10E9451
:10540000F82297FF0BC0288539854A855B852F5F79
:105410003F4F4F4F5F4F09F0C6C092C082017101EC
:105420002D8D3E8DB401A3018F8D98A10E94EE2396
:10543000BC01009709F4B7C0181619060CF080C01B
:105440008D8D9E8D0E9472219AA389A3009709F4E5
:1054500077C0DC018C91853009F072C08091B7096A
:105460009091B8090E942F21E9A1FAA1F093B809FF
:10547000E093B7091AA219A263C0F9E0DF1609F098
:1054800076C0E091B709F091B809309719F42889EE
:105490002F833EC038893F5F3F833130C9F5E180BB
:1054A000F28003811481818D928DA38DB48D8B83C5
:1054B0009C83AD83BE83CC24DD24A401930167E0EB
:1054C0008D8D9E8D0E94801F8C018B819C81AD8172
:1054D000BE810097A105B10579F08D8D9E8D845117
:1054E0009F4F24E0AE014D5F5F4F66E3800F911F39
:1054F0000E94F31F080F191F2D8D3E8D4885598579
:105500006A857B858F8D98A10E94F82297FF0BC03A
:1055100088859985AA85BB858F5F9F4FAF4FBF4F09
:1055200009F041C00DC0820171012D8D3E8DB40185
:10553000A3018F8D98A10E94EE23BC0197FF03C0A9
:105540001092BB0930C0892B71F18D8D9E8D0E9408
:1055500072219AA389A3009709F462CADC018C9195
:10556000853011F0863021F51092BB0921C0DD2075
:1055700019F0B889BF8317C08091B7099091B80915
:105580000E942F211092B8091092B70980EC99E07F
:105590000E946F3640E050E060E070E08EEB99E0F2
:1055A0000E94CD361F82E9A1FAA1EF2B09F438CA77
:1055B00089A19AA10E942F21FF81F88B1AA219A21A
:1055C00031CA7801F092B809E092B7094ACC8091CB
:1055D000BB09E9CAFC01872F99278083618382E098
:1055E00090E00895FC01DB0120813327322F222730
:1055F00011963C932E9381819927282B392B2D933B
:105600003C9382E090E00895EF92FF920F931F93F6
:10561000CF93DF93EC018B01DB018D919C9100977F
:1056200029F00E943C2FF801118210828881807C31
:10563000803C19F482E090E02CC0DE010D90002047
:10564000E9F77D01EC1AFD0AC7010E94C92EFC0191
:10565000D8018D939C9399919E0113C08D9189934C
:105660004150E0F7892F9927D901A80FB91FE80FFA
:10567000F91F9C91992311F08EE281939D012F5F78
:105680003F4F992321F0492FEF01D901E9CF108233
:10569000C701DF91CF911F910F91FF90EF90089577
:1056A0008F929F92AF92BF92CF92DF92EF92FF9232
:1056B0000F931F93CF93DF93EC016B0149015A01C4
:1056C0008091CA099091CB09009731F00E943C2F3C
:1056D0001092CB091092CA098091CC099091CD0902
:1056E000009731F00E943C2F1092CD091092CC0906
:1056F000209781F0FE0101900020E9F7CF018C1B7B
:105700009D0B0E94C92E9093CB098093CA09BE01BC
:105710000E945265C114D10481F0F601019000206D
:10572000E9F7CF018C199D090E94C92E9093CD09EC
:105730008093CC09B6010E9452658092CE09909266
:10574000CF09A092D009B092D109E092D209F0928B
:10575000D3090093D4091093D509DF91CF911F91FC
:105760000F91FF90EF90DF90CF90BF90AF909F9000
:105770008F900895EF92FF920F931F93EE24FF24D2
:1057800087010E94502B1F910F91FF90EF90089579
:105790002F923F924F925F926F927F928F929F9241
:1057A000AF92BF92CF92DF92EF92FF920F931F932F
:1057B000CF93DF93CDB7DEB760970FB6F894DEBF17
:1057C0000FBECDBF9E878D87788B6F878091CE0966
:1057D0009091CF09A091D009B091D1090097A1056E
:1057E000B10569F48091D2099091D309A091D409AF
:1057F000B091D5090097A105B10509F4A2C280E0D6
:1058000090E00E94B6449A878987892B09F499C24F
:1058100080E092E00E94C92E4C011C861B86662403
:10582000772418861F8222243324AB84BC849501FC
:105830002F5F3F4F3C872B876114710439F48CE054
:1058400090E00E94B52F3C01892B69F02B853C85A7
:10585000F3013183208380E091E09383828381E0B0
:1058600090E0958384838F819885892B41F486E02D
:1058700090E00E94B52F98878F83892B31F1EF81BB
:10588000F88580819181009711F00E943C2FED8571
:10589000FE8501900020E9F7CF012D853E85821B12
:1058A000930B0E94C92EEF81F885918380836D85CB
:1058B0007E850E9452652F853889EF81F885338374
:1058C000228381E090E095838483F301608171817C
:1058D000C4010E94EA2A8C01F30162817381C40130
:1058E000800F911F0E94EA2A080F191FF30164819B
:1058F0007581C401800F911F0E94EA2A080F191FA9
:10590000F30166817781C401800F911F0E94EA2A0A
:10591000080F191FF30160857185C401800F911F65
:105920000E94EA2A080F191FF30162857385C401DA
:10593000800F911F0E94EA2A6801C80ED91E7401C7
:10594000EC0CFD1CEF81F885A081B181FD01019077
:105950000020E9F78F01015010400A1B1B0B0E5F5E
:105960001F4F27010894411C511CF7011082970119
:1059700015C0B2016F5F7F4FAD014F5F5F4F8E3239
:1059800029F4F2011082DA01920107C0F20180834A
:10599000DA01F90180818F5F80832B018C9188234C
:1059A00041F7F2011082EF81F88562817381C701AE
:1059B000800F911F0E94EA2A080F191FEF81F885B6
:1059C00064817581C701800F911F0E94EA2A7801C6
:1059D000E80EF91EEC0CFD1CA0FE0DC04091D20992
:1059E0005091D3096091D4097091D50941155105A1
:1059F0006105710541F44091CE095091CF09609144
:105A0000D0097091D109840125E330E089859A8518
:105A10000E94754497FD38C168EEC62E63E0D62E0D
:105A2000E12CF12C00E012E09401AE014F5F5F4FDA
:105A3000BE016D5F7F4F89859A850E94F5441816D7
:105A400019060CF01BC10D973CF3B301C4010E9471
:105A5000F22A8C01B3016E5F7F4FC401800F911F4A
:105A60000E94F22A080F191FB3016C5F7F4FC40117
:105A7000800F911F0E94F22A080F191FB3016A5F5D
:105A80007F4FC401800F911F0E94F22A080F191F37
:105A9000B301685F7F4FC401800F911F0E94F22AFB
:105AA000080F191FB301665F7F4FC401800F911F5C
:105AB0000E94F22A5801A80EB91EF301808191813B
:105AC0002B853C858217930709F0A6CFA114B1045A
:105AD00009F4D4C084819581019709F0CFC0840175
