:100000000C9443030C9491030C9491030C9491036E
:100010000C9491030C9491030C9491030C94910310
:100020000C9491030C9491030C9491030C94910300
:100030000C9491030C9485180C9491030C949103E7
:100040000C9491030C9491030C9491030C949103E0
:100050000C9491030C9491030C9491030C949103D0
:100060000C9491030C94FF180C94EA190C947A19CF
:100070000C9491030C9491030C9491030C949103B0
:100080000C9491030C9491030C9491030C949103A0
:100090000C94641A0C944F1B0C94DF1A0C9491036B
:1000A0000C9491030C9491030C9491030C94910380
:1000B0000C9491030C9491030C9491030C94910370
:1000C0000C9491030C9491030C949103860EBA0E38
:1000D000E00E060F180F3D0F530F780F4C10890FCD
:1000E000CE0FD90FDF0FEA0FF80FF00FF80F4C10FB
:1000F000830E830E830E830E2A104710830E830E09
:10010000830E830E830E830E830E830E830E830E67
:10011000830E830E830E830E830E830E830E0510D3
:100120001310B013F913401466147A14A214AA140D
:10013000CF14AD13F11438153E1544154A15671543
:10014000501567159D15721587150A0A50505020D5
:10015000436C69656E742053616D706C65202D2051
:100160004E75742F4F53202573202D204156524732
:1001700043430A003230302057656C636F6D652051
:10018000746F20746370732E2054797065206865D5
:100190006C7020746F206765742068656C702E0D1C
:1001A0000A00343030204C697374206F6620636F0E
:1001B0006D6D616E647320666F6C6C6F77730D0A82
:1001C0006D5B656D6F72795D0951756572696573F7
:1001D000206E756D626572206F662052414D2062FF
:1001E0007974657320667265652E0D0A745B68729A
:1001F000656164735D094C6973747320616C6C2074
:100200006372656174656420746872656164732EDD
:100210000D0A74695B6D6572735D094C6973747363
:1002200020616C6C2072756E6E696E672074696DEA
:100230006572732E0D0A715B7569745D09095465E9
:10024000726D696E6174657320636F6E6E65637441
:10025000696F6E2E0D0A2E0D0A00323230204C6965
:100260007374206F662074687265616473207769A7
:100270007468206E616D652C73746174652C707286
:10028000696F2C737461636B2C6D656D2C74696D73
:10029000656F757420666F6C6C6F77730D0A003232
:1002A0003231204C697374206F662074696D6572F9
:1002B000732077697468207469636B73206C65665A
:1002C0007420616E6420696E74657276616C20665C
:1002D0006F6C6C6F77730D0A0032313020257520FA
:1002E00062797465732052414D20667265650D0A0E
:1002F00000000011892312329B462457AD653674E5
:10030000BF8C489DC1AF5ABED3CA6CDBE5E97EF80D
:10031000F7108101083393221A56A5472C75B7644C
:100320003E9CC98D40BFDBAE52DAEDCB64F9FFE8ED
:10033000762102308B02101399672676AF4434552C
:10034000BDAD4ABCC38E589FD1EB6EFAE7C87CD9CD
:10035000F53183200A1291031877A7662E54B5450C
:100360003CBDCBAC429ED98F50FBEFEA66D8FDC9AD
:10037000744204538D6116709F042015A9273236EC
:10038000BBCE4CDFC5ED5EFCD7886899E1AB7ABA8D
:10039000F35285430C7197601E14A1052837B326CC
:1003A0003ADECDCF44FDDFEC5698E98960BBFBAA6D
:1003B000726306728F4014519D252234AB063017AC
:1003C000B9EF4EFEC7CC5CDDD5A96AB8E38A789B4D
:1003D000F17387620E5095411C35A3242A16B1078C
:1003E00038FFCFEE46DCDDCD54B9EBA8629AF98B2D
:1003F0007084089581A71AB693C22CD3A5E13EF06C
:10040000B7084019C92B523ADB4E645FED6D767C1C
:10041000FF94898500B79BA612D2ADC324F1BFE03B
:100420003618C109483BD32A5A5EE54F6C7DF76CFC
:100430007EA50AB48386189791E32EF2A7C03CD11B
:10044000B5294238CB0A501BD96F667EEF4C745DDC
:10045000FDB58BA40296998710F3AFE226D0BDC1FB
:100460003439C3284A1AD10B587FE76E6E5CF54DBC
:100470007CC60CD785E51EF497802891A1A33AB2DB
:10048000B34A445BCD695678DF0C601DE92F723E9C
:10049000FBD68DC704F59FE41690A98120B3BBA2BB
:1004A000325AC54B4C79D7685E1CE10D683FF32E7C
:1004B0007AE70EF687C41CD595A12AB0A38238939B
:1004C000B16B467ACF485459DD2D623CEB0E701F5C
:1004D000F9F78FE606D49DC514B1ABA02292B9837B
:1004E000307BC76A4E58D5495C3DE32C6A1EF10F3C
:1004F0007800000000000000000000000000000084
:1005000000000000000000000000000000000000EB
:1005100000000000000000000000000000000000DB
:1005200000000000000000000000000000000000CB
:1005300000000000000000000000000000000000BB
:1005400000000000000000000000000000000000AB
:10055000000000000000000000000000000000009B
:10056000000000000000000000000000000000008B
:10057000000000000000000000000000000000007B
:10058000000000000000000000000000000000006B
:10059000000000000000000000000000000000005B
:1005A000000000000000000000000000000000004B
:1005B000000000000000000000000000000000003B
:1005C000000000000000000000000000000000002B
:1005D000000000000000000000000000000000001B
:1005E000000000000000000000000000000000000B
:1005F00000000000000000000000000000000000FB
:1006000000000000000000000000000000000000EA
:1006100000000000000000000000000000000000DA
:1006200000000000000000000000000000000000CA
:1006300000000000000000000000000000000000BA
:1006400000000000000000000000000000000000AA
:10065000000000000000000000000000000000009A
:10066000000000000000000000000000000000008A
:10067000000000000000000000000000000000007A
:1006800000000000000084E88093740087E08093FD
:10069000C4008093CC0011241FBECFEFD1E2DEBF97
:1006A000CDBF15E0A0E0B2E0E6EFFCEB00E00BBF51
:1006B00002C007900D92A635B107D9F718E0A6E55C
:1006C000B5E001C01D92AB3AB107E1F78FEF9FE7AC
:1006D0009EBF8DBF8FEF9FE78B5A98408158914006
:1006E00040F06FEF7EE76B5A78408BEA98E00E940B
:1006F000F04E0E94E054892B41F061EC73E089E9EF
:1007000098E00E94DF5D0E94C75420E831E040E09D
:1007100050E060E776E08AEC93E00E94BF0A0C9418
:1007200000000C940000EF92FF920F931F93CF9361
:10073000DF938C0180E091E00E946A587C01B8014F
:1007400084E791E00E94FA57C8010E943856A80138
:1007500060E071E0C7010E944057892B09F42AC16B
:100760006DE070E0C7010E94C95DFC01892B09F0B2
:1007700010826AE070E0C7010E94C95DFC01892B0C
:1007800009F01082E70109900020E9F72197CE19BE
:10079000DF09D1F2AE0160E072E0C7010E94E65DC0
:1007A000892BB1F40E94F74E9F938F9389ED92E0CD
:1007B0009F938F931F930F930E94DC572DB73EB7E3
:1007C0002A5F3F4F0FB6F8943EBF0FBE2DBFBCCF80
:1007D000AE0167E072E0C7010E94E65D892B09F077
:1007E00083C0B8018AE592E00E94FA57C091880858
:1007F000D091890875C0B801CE0106960E9489572C
:100800008F85813059F0813028F0823059F0833063
:1008100091F40CC0B8018FE092E00BC0B80186E102
:1008200092E007C0B8018CE192E003C0B80184E215
:1008300092E00E948957888999892B893C89821B7B
:10084000930B9F938F938A8999279F938F938CE221
:1008500092E09F938F931F930F930E946B57EB89A6
:10086000FC898DB79EB708960FB6F8949EBF0FBE51
:100870008DBF80819181A281B3818F5E9E4BAD4AF5
:10088000BE4D21F0B80182E392E003C0B8018EE3CF
:1008900092E00E948957ED89FE893097C9F08085E2
:1008A0009185A285B385BF93AF939F938F9383E484
:1008B00092E09F938F931F930F930E946B578DB776
:1008C0009EB708960FB6F8949EBF0FBE8DBF05C0A9
:1008D000B80189E492E00E9489570990D881C02D1F
:1008E000209709F088CF54C0AE01B70184E592E0AB
:1008F0000E94E65D892B09F051C0B8018FE992E0B2
:100900000E94FA57C0919008D09191083EC0888506
:100910009985AA85BB85BF93AF939F938F938BE5F2
:1009200092E09F938F931F930F930E946B578C813C
:100930009D81AE81BF812DB73EB7285F3F4F0FB677
:10094000F8943EBF0FBE2DBF0097A105B105A9F0D9
:10095000BF93AF939F938F9383E492E09F938F9382
:100960001F930F930E946B578DB79EB708960FB6D3
:10097000F8949EBF0FBE8DBF05C0B80180E692E01F
:100980000E9489570990D881C02D209709F0BFCFC8
:10099000B80180E592E00E948957D6CEAE01B7013A
:1009A0008AE692E00E94E65D892B21F0B80182EA96
:1009B00091E0C8CEDF91CF911F910F91FF90EF9002
:1009C00008958F929F92AF92BF92CF92DF92EF9253
:1009D000FF920F931F93CF93DF93CDB7DEB724978A
:1009E0000FB6F894DEBF0FBECDBF40E060E070E010
:1009F00080E094E00E949B5440E060E070E085ED70
:100A000093E00E949B5440E060E070E082EC94E050
:100A10000E949B544091FF04509100056FE672E0E4
:100A200081E792E00E94D556892B09F4FFCF812CF3
:100A300092EC992E91E0A92EB12C89829A82AB82F8
:100A4000BC828091FF04909100050E9449568E015E
:100A50000F5F1F4FA80161E071E00E9404550E94E2
:100A600001559F938F938AE491E09F938F930E9407
:100A70000E5887E792E09F938F930E949A5762E007
:100A800070E884E892E00E9416556C018DB79EB71D
:100A900006960FB6F8949EBF0FBE8DBF9FEFC91686
:100AA0009FEFD90629F488E992E00E94BA57FFCF58
:100AB0008DEA92E00E94BA5789829A82AB82BC8208
:100AC000A80161E071E0C6010E94045588EE93E040
:100AD000A0E0B0E089839A83AB83BC83A8016BE07C
:100AE00071E0C6010E94045568E873E180E090E07F
:100AF0000E949B5182EB92E09F938F930E949A57A2
:100B000060EC72E0C6010E948F3B0F900F9000973F
:100B100069F09F938F9383EE92E09F938F930E944F
:100B20009A570F900F900F900F90E4CF8DEA92E0BC
:100B30000E94BA578CEF92E09F938F930E949A572E
:100B4000EE24FF24870120E030E040E050E060E048
:100B500070E08DE093E00E9414260F900F90892B97
:100B600029F081E193E00E94BA57C4CF8DEA92E068
:100B70000E94BA57A090D304B090D404F501E1A824
:100B8000F2A803A914A925A536A547A550A960E098
:100B900070E080E090E00E94FF06F501E5A0F6A07D
:100BA00007A110A582ECC82E84E0D82E20E030E00A
:100BB00040E050E060E070E080E090E00E9483223E
:100BC000F50161A172A183A194A10E940B249F93BE
:100BD0008F9388E193E09F938F930E949A57F5013A
:100BE00065A176A187A190A50E940B249F938F9366
:100BF0008BE293E09F938F930E949A57F50165A52E
:100C000076A587A590A90E940B249F938F938EE3CE
:100C100093E09F938F930E949A57F50161A972A95F
:100C200083A994A90E940B249F938F9381E593E05D
:100C30009F938F930E949A578DB79EB740960FB699
:100C4000F8949EBF0FBE8DBF0E949F1F7C01892B11
:100C500079F184E693E09F938F930E949A5767E11E
:100C600070E0C7010E9430200F900F90892BC9F4CB
:100C70008CE793E00E94BA5766E873E0C7010E94D0
:100C8000E7558C01009751F00E9493038AE893E0A6
:100C90000E94BA57C8010E94A75507C088E993E08F
:100CA00002C081E193E00E94BA57C7010E94091F68
:100CB00068EE73E080E090E00E949B510E94F74E46
:100CC0009F938F9382EB93E09F938F930E949A5709
:100CD0000F900F900F900F90B7CF8093D40308958B
:100CE0000E94F15120E033E040E050E061EE74E01A
:100CF0008FEC93E00E94BF0A8EEF0E94F94F0E9492
:100D00007D500E94C44F2091D4032F3FC1F393B76D
:100D100083B7817F822B83BF83B7816083BF889530
:100D200083B78E7F83BF83B7817F9E70892B83BFFC
:100D3000E6CFFC01872F99278083618382E090E0D2
:100D40000895FC01DB0120813327322F22271196E1
:100D50003C932E9381819927282B392B2D933C93FB
:100D600082E090E00895EF92FF920F931F93CF934C
:100D7000DF93EC018B01DB018D919C91009729F0B1
:100D80000E94834EF801118210828881807C803C11
:100D900019F482E090E02CC0DE010D900020E9F70C
:100DA0007D01EC1AFD0AC7010E94104EFC01D8011A
:100DB0008D939C9399919E0113C08D91899341507D
:100DC000E0F7892F9927D901A80FB91FE80FF91F5C
:100DD0009C91992311F08EE281939D012F5F3F4FEB
:100DE000992321F0492FEF01D901E9CF1082C701E2
:100DF000DF91CF911F910F91FF90EF9008958F9207
:100E00009F92AF92BF92CF92DF92EF92FF920F9399
:100E10001F93CF93DF93EC016B0149015A0180913D
:100E2000570590915805009731F00E94834E10921B
:100E30005805109257058091590590915A050097D1
:100E400031F00E94834E10925A0510925905209756
:100E500081F0FE0101900020E9F7CF018C1B9D0B72
:100E60000E94104E9093580580935705BE010E9432
:100E7000DF5DC114D10481F0F60101900020E9F793
:100E8000CF018C199D090E94104E90935A058093B2
:100E90005905B6010E94DF5D80925B0590925C056A
:100EA000A0925D05B0925E05E0925F05F09260054C
:100EB0000093610510936205DF91CF911F910F910F
:100EC000FF90EF90DF90CF90BF90AF909F908F906A
:100ED0000895EF92FF920F931F93EE24FF24870152
:100EE0000E94FF061F910F91FF90EF9008952F929F
:100EF0003F924F925F926F927F928F929F92AF92AA
:100F0000BF92CF92DF92EF92FF920F931F93CF93F6
:100F1000DF93CDB7DEB760970FB6F894DEBF0FBE94
:100F2000CDBF9E878D87788B6F8780915B05909171
:100F30005C05A0915D05B0915E050097A105B10526
:100F400069F480915F0590916005A0916105B09171
:100F500062050097A105B10509F4A2C280E090E006
:100F60000E946F219A878987892B09F499C280E0B2
:100F700092E00E94104E4C011C861B86662477244A
:100F800018861F8222243324AB84BC8495012F5FF2
:100F90003F4F3C872B876114710439F48CE090E05B
:100FA0000E94FC4E3C01892B69F02B853C85F301A6
:100FB0003183208380E091E09383828381E090E01D
:100FC000958384838F819885892B41F486E090E016
:100FD0000E94FC4E98878F83892B31F1EF81F88531
:100FE00080819181009711F00E94834EED85FE85EE
:100FF00001900020E9F7CF012D853E85821B930BE0
:101000000E94104EEF81F885918380836D857E85E7
:101010000E94DF5D2F853889EF81F8853383228335
:1010200081E090E095838483F30160817181C40144
:101030000E9499068C01F30162817381C401800FC3
:10104000911F0E949906080F191FF3016481758191
:10105000C401800F911F0E949906080F191FF30108
:1010600066817781C401800F911F0E949906080F45
:10107000191FF30160857185C401800F911F0E94C3
:101080009906080F191FF30162857385C401800F4B
:10109000911F0E9499066801C80ED91E7401EC0CBC
:1010A000FD1CEF81F885A081B181FD010190002038
:1010B000E9F78F01015010400A1B1B0B0E5F1F4FF9
:1010C00027010894411C511CF7011082970115C09B
:1010D000B2016F5F7F4FAD014F5F5F4F8E3229F4DA
:1010E000F2011082DA01920107C0F2018083DA0175
:1010F000F90180818F5F80832B018C91882341F7D8
:10110000F2011082EF81F88562817381C701800F3F
:10111000911F0E949906080F191FEF81F8856481BD
:101120007581C701800F911F0E9499067801E80E12
:10113000F91EEC0CFD1CA0FE0DC040915F05509106
:101140006005609161057091620541155105610569
:10115000710541F440915B0550915C0560915D051E
:1011600070915E05840125E330E089859A850E94AF
:101170002E2197FD38C168EEC62E63E0D62EE12CF5
:10118000F12C00E012E09401AE014F5F5F4FBE0111
:101190006D5F7F4F89859A850E94AE2118161906CA
:1011A0000CF01BC10D973CF3B301C4010E94A106D2
:1011B0008C01B3016E5F7F4FC401800F911F0E94AD
:1011C000A106080F191FB3016C5F7F4FC401800F88
:1011D000911F0E94A106080F191FB3016A5F7F4F7C
:1011E000C401800F911F0E94A106080F191FB301AF
:1011F000685F7F4FC401800F911F0E94A106080FF6
:10120000191FB301665F7F4FC401800F911F0E94B9
:10121000A1065801A80EB91EF301808191812B858A
:101220003C858217930709F0A6CFA114B10409F4F5
:10123000D4C084819581019709F0CFC084010A0D43
:101240001B1D6F817885C8010E94B3067C016F81E8
:1012500078856E5F7F4FC8018E0D9F1D0E94A1068D
:101260006701C80ED91E6F8178856C5F7F4FC801FA
:101270008C0D9D1D0E94A1067C01F3018681978142
:10128000892B09F4B0C026014E0C5F1C4A0C5B1C74
:1012900051E0A52EB12C95C02114310429F48EE023
:1012A00090E00E94FC4E1C017401E40CF51CB1019D
:1012B000C7010E94B3068C01B1016E5F7F4FC70169
:1012C000800F911F0E94A106080F191FB1016C5FCA
:1012D0007F4FC701800F911F0E94A106080F191FA1
:1012E0009701200F311FF9018191BF019927AA278A
:1012F000BB27BA2FA92F982F8827F10186839783C0
:10130000A087B187F9012181332744275527822BF4
:10131000932BA42BB52BBA2FA92F982F8827F10137
:1013200086839783A087B187FB01218133274427D8
:101330005527822B932BA42BB52BBA2FA92F982F8F
:101340008827F10186839783A087B187FB012281DB
:10135000332744275527822B932BA42BB52BF10140
:1013600086839783A087B1870C5F1F4FB101665FAB
:101370007F4FC701800F911F0E94A106080F191F00
:10138000F101C284D38484859585009711F00E9471
:10139000834EC6010E94104EF10195878487E00EAE
:1013A000F11EA601B7010E94B95DF101828193810E
:1013B000019771F0C00ED11E4C0C5D1C0894A11C4D
:1013C000B11CF301868197818A159B050CF064CFCF
:1013D000F101828593850497D1F12B853C852630D8
:1013E000310509F0D1CDEE24FF2487016114710489
:1013F00019F0C3010E94834E8F819885009759F0A0
:10140000FC0180819181009711F00E94834E8F81B1
:1014100098850E94834E2114310489F0F101808166
:101420009181009711F00E94834EF101848595858A
:10143000009711F00E94834EC1010E94834EC401A7
:101440000E94834E89859A850E9402212CC0F10159
:1014500064857585FB01208181819927AA27BB2797
:10146000EE24F82E092F1A2FE20EF11C011D111D7A
:101470002381332744275527522F442733272227F8
:1014800082819927AA27BB27DC0199278827280F63
:10149000391F4A1F5B1FE20EF31E041F151FA6CF44
:1014A000EE24FF248701C801B70160960FB6F894B7
:1014B000DEBF0FBECDBFDF91CF911F910F91FF9087
:1014C000EF90DF90CF90BF90AF909F908F907F90E4
:1014D0006F905F904F903F902F9008956FE070E075
:1014E0000E947707089561E070E00E9477070895F1
:1014F0009F918F910F900BBE0F900FBE1F9018956C
:101500002F923F924F925F926F927F928F929F9213
:10151000AF92BF92CF92DF92EF92FF920F931F9301
:10152000CF93DF938DB79EB7E0918C08F0918D0833
:10153000918B808BE0918A08F0918B08F0938D0855
:10154000E0938C0881E08787E0918C08F0918D080A
:10155000808991898DBF9EBFDF91CF911F910F919F
:10156000FF90EF90DF90CF90BF90AF909F908F90C3
:101570007F906F905F904F903F902F900895AF9223
:10158000BF92CF92DF92EF92FF920F931F93CF9370
:10159000DF937C016B015A01E901C90149960E9460
:1015A000104EBC01009719F480E090E07CC08C01E3
:1015B0000C0F1D1FE8012897A8014D515040C8018C
:1015C000069628E0D7010D907D01FC010192CF0124
:1015D0002150C1F7F801168641505040518B408B85
:1015E0004F5F5F4F748B638B8FEE9EEBADEABEED6A
:1015F000FB0180839183A283B38384839583A68335
:10160000B78380879187A287B38784879587A687CA
:10161000B78780E4F801828B1D828D2D99278E83F8
:10162000CF8280E88B831A821C82A9828B2D992716
:101630008883FA01128A28E73AE0832F9927838B5F
:10164000248B8091880890918908D8018D939C9370
:10165000109389080093880882E0F82EF801F78635
:10166000168A158A108E178A6AE878E0C8010E94E7
:10167000114FE0918C08F0918D08309721F40FB64E
:10168000F8940F9257CF80918A0890918B08E817B1
:10169000F90741F0F7860FB6F8940F920E94800A7E
:1016A0000F900FBEC801DF91CF911F910F91FF9056
:1016B000EF90DF90CF90BF90AF900895CF93DF93DE
:1016C000DC01EC019B8D8C8D981761F08B8DE98D81
:1016D000FA8DE80FF11D80818093C6008B8D8F5F9E
:1016E0008B8F18C08091C1008F7D8093C100ED0168
:1016F000E889F989309729F48FEF9FEF998B888BD0
:1017000009C08FEFEF3FF80729F08481958101969A
:1017100095838483DF91CF910895CF93DF93DC018C
:10172000EC019B8D8C8D981761F08B8DE98DFA8D76
:10173000E80FF11D80818093CE008B8D8F5F8B8FA2
:1017400018C08091C9008F7D8093C900ED01E889A0
:10175000F989309729F48FEF9FEF998B888B09C017
:101760008FEFEF3FF80729F08481958101969583EB
:101770008483DF91CF910895CF93DF93DC01EC0157
:101780008F89ED89FE89E80FF11D8091C600808365
:101790009F89888D891791F4EA89FB89309729F40C
:1017A0008FEF9FEF9B8B8A8B09C08FEFEF3FF8077E
:1017B00029F084819581019695838483ED018F8939
:1017C0008F5F8F8BDF91CF910895CF93DF93DC01F3
:1017D000EC018F89ED89FE89E80FF11D8091CE0023
:1017E00080839F89888D891791F4EA89FB893097D6
:1017F00029F48FEF9FEF9B8B8A8B09C08FEFEF3F10
:10180000F80729F084819581019695838483ED0101
:101810008F898F5F8F8BDF91CF9108950FB6F894EA
:101820000F92892B21F088E98093C90003C088E9D1
:101830008093C1000F900FBE08959C0101978E5FA9
:101840009F4F18F08FEF9FEF0895C9010E94834EBC
:1018500080E090E00895CF93DF93EC0186E090E084
:101860000E94104E009719F4EFEFFFEF07C0FC0144
:1018700011821082D383C28315821482CF01DF913B
:10188000CF910895CF92DF92EF92FF920F931F9323
:10189000CF93DF936A01EC01EA81FB81C189D28990
:1018A0006115710531F17B0100E010E01EC0988DDB
:1018B0008F89981769F0ED89FE89E90FF11D808104
:1018C000F70181937F019F5F988F0F5F1F4F0DC0BE
:1018D0000115110591F4488559856A857B85CE01EE
:1018E00042960E940554892B41F40C151D05FCF20B
:1018F00004C08F89888F00E010E0C801DF91CF918C
:101900001F910F91FF90EF90DF90CF9008950F936C
:101910001F93CF93DF93EC01162F042F0AC04C8541
:101920005D856E857F85CE0140960E940554892B8A
:1019300029F49B8D8C8D8F5F891789F32C8D9B8D5E
:10194000822F8F5F891719F48FEF9FEF23C0E98DE6
:10195000FA8DE20FF11D10839C8D9F5F9C8F0023F9
:1019600021F48B8D9F5F981799F40FB6F8940F921E
:101970008C89882331F08091C90080628093C900EE
:1019800005C08091C10080628093C1000F900FBE9E
:1019900080E090E0DF91CF911F910F910895AF9279
:1019A000BF92CF92DF92EF92FF920F931F93CF934C
:1019B000DF935A016901EC01E988FA886115710524
:1019C000C1F0EB0100E010E010C0C114D10419F027
:1019D000FE01649101C0688140E0C7010E94870C4C
:1019E000892BC9F421960F5F1F4F0A151B056CF355
:1019F00012C0EC018C859D85892B31F08091C90046
:101A000080628093C90005C08091C100806280938C
:101A1000C10000E010E0C801DF91CF911F910F914C
:101A2000FF90EF90DF90CF90BF90AF90089521E0AE
:101A300030E0FC01828193810E94CF0C089520E068
:101A400030E0FC01828193810E94CF0C08958F9237
:101A50009F92AF92BF92CF92DF92EF92FF920F933D
:101A60001F93CF93DF938C017B015A0169012115EC
:101A7000310519F4C0E0D0E050C0F901C081D18136
:101A80004CC0F7016081E62FEC272E2F3327220F61
:101A9000331FC9018F509D4FFC0184902E503D4F44
:101AA000F9019490603290F4F80183A194A1A5A16A
:101AB000B6A1062E04C0B695A795979587950A946A
:101AC000D2F781709070892B29F40FC06E3711F016
:101AD0006D3759F440E06DE7C8010E94870C892BEF
:101AE00049F5F701608180E2682740E0C8010E9463
:101AF000870C892BF9F4CD2FDD27882D9927982F76
:101B00008827292D3327822B932BC827D927089480
:101B1000E11CF11C0894A108B108A114B10409F05A
:101B2000B0CFC114D10419F0F601D183C08380E095
:101B300090E002C08FEF9FEFDF91CF911F910F9147
:101B4000FF90EF90DF90CF90BF90AF909F908F90DD
:101B50000895CF92DF92EF92FF920F931F93CF934E
:101B6000DF93CDB7DEB722970FB6F894DEBF0FBE76
:101B7000CDBF8B01FC01E188F288F7018081918162
:101B8000A281B381A6FD64C0FB0145815681818598
:101B90009285480F591F8189928925853685820F44
:101BA000931F480F591FF70181A592A58417950728
:101BB00008F451C040E06EE7C7010E94870C8FEF28
:101BC0009FEF9A838983F8014581568163817481EF
:101BD0006E010894C11CD11C9601C7010E94270DFB
:101BE000892BC9F5F8014185528567817085960179
:101BF000C7010E94270D892B71F5F801458556858F
:101C0000638574859601C7010E94270D892B19F5FC
:101C1000F80141895289678570899601C7010E9440
:101C2000270D892BC1F489819A81809590959A839B
:101C3000898320E030E042E050E0B601C7010E9415
:101C4000270D892B41F441E06EE7C7010E94870C04
:101C500080E090E002C08FEF9FEF22960FB6F894DD
:101C6000DEBF0FBECDBFDF91CF911F910F91FF90CF
:101C7000EF90DF90CF900895CF93DF93EC010FB6F4
:101C8000F8940F92892B31F08091C9008F75809361
:101C9000C90005C08091C1008F758093C1000F906D
:101CA0000FBE8AE00E94D217CD2B31F08091C9007F
:101CB000877E8093C90005C08091C100877E809394
:101CC000C100DF91CF910895CF92DF92FF920F93E1
:101CD0001F93CF93DF93EC01CB018A01209711F47E
:101CE000C3E2D4E0FC8469897A89FC01E150F140C7
:101CF000EB32F10540F4EA59FF4FEE0FFF1F05905C
:101D0000F491E02D1994CFEFDFEFC8C1CF2DDD277F
:101D1000CE010E943C0E0E94EA17660F771F881FB3
:101D2000991FF801208131814281538114E0220FF3
:101D3000331F441F551F1A95D1F70E94335E2F5F42
:101D40003F4F4F4F5F4F56954795379527952150F9
:101D50003040832F9927FF2029F02093CC008093D7
:101D6000CD0004C02093C4008093C500CE010E9422
:101D70000E0C92C1FF2029F08091CD002091CC0063
:101D800004C08091C5002091C4009927D82FCC278A
:101D90003327C22BD32B0E94EA1721969E0144279A
:101DA0005527E4E0220F331F441F551FEA95D1F752
:101DB0000E94335EF80120833183428353836CC1D8
:101DC000CF2CDD24C6010E943C0EF8012081255055
:101DD000243008F072C0220FFF2061F08091CA0009
:101DE000897F822B8093CA008091C9008B7F80936A
:101DF000C90078C08091C200897F822B8093C20085
:101E00008091C1008B7F8093C1006CC0FF2019F0CE
:101E10008091CA0002C08091C2009927867090709C
:101E2000959587950596AA2797FDA095BA2F06C187
:101E3000CF2CDD24C6010E943C0EF8012081233006
:101E400018F0CFEFDFEF16C0213009F423E0229520
:101E5000207FFF2039F08091CA008F7C822B8093F5
:101E6000CA0006C08091C2008F7C822B8093C20082
:101E7000C0E0D0E02223C1F120C0FF2019F0809102
:101E8000CA0002C08091C20099278073907064E0FC
:101E9000959587956A95E1F7833009F481E0992754
:101EA000AA27BB27CBC0CF2CDD24C6010E943C0E45
:101EB000F80120812150223018F0CFEFDFEF14C05D
:101EC000220F220F220FFF2039F08091CA00877F56
:101ED000822B8093CA0006C08091C200877F822B2C
:101EE0008093C200C0E0D0E0C6010E940E0CD6C0B4
:101EF000FF2019F08091CA0002C08091C20099278A
:101F00008870907053E0959587955A95E1F7019602
:101F10008ACFF80110821182128213828C859D85EE
:101F2000892B19F08091C80002C08091C000282F31
:101F3000332722FF09C081E090E0A0E0B0E0F80183
:101F400080839183A283B38323703070232B51F05D
:101F5000F80180819181A281B38182608083918325
:101F6000A283B383FB01938D848D981751F4F801FC
:101F700080819181A281B381806880839183A283D3
:101F8000B383FB019789808D891709F085C0F8011B
:101F900080819181A281B381806451C0F8018081E8
:101FA0009181A281B381FB0180879187A287B3874A
:101FB00073C0FB0180859185A285B3853FC0F80180
:101FC00080819181A281B381FB0184879587A68757
:101FD000B78762C0FB0184859585A685B7852EC02D
:101FE000FB0180819181A281B381A0FF2DC022C01D
:101FF000F8018081FB012081318142815381882356
:1020000011F04160D8CE4E7F0CC0F8018081FB01F9
:102010002081318142815381882311F04064CBCEED
:102020004F7BFB01C8CEFB0180819181A281B381EE
:10203000A6FF0AC081E090E0A0E0B0E0F801808354
:102040009183A283B38328C0F80110821182128287
:10205000138222C00115110569F0F8012081318138
:102060002115310539F0388B2F8783E08B87CB0121
:102070004D960AC085E08B878F859889892B61F002
:10208000188A1F86CB0142960E94B25305C08F85E5
:102090009889F80191838083C0E0D0E0CE01DF9180
:1020A000CF911F910F91FF90DF90CF900895EF9205
:1020B000FF920F931F93CF93DF93CDB7DEB7249793
:1020C0000FB6F894DEBF0FBECDBF7C0180E895E26D
:1020D000A0E0B0E089839A83AB83BC83F701848559
:1020E00095850E943C0EF701018912898BE2F80167
:1020F00011928A95E9F7F7018485F801848B80E0D5
:1021000091E00E94104EF801968B858B80E091E063
:102110000E94104EF801928F818F8CED95E090A770
:1021200087A392A781A78FEF9FEFAFEFBFEF83A3A6
:1021300094A3A5A3B6A3F70184859585892B79F08F
:10214000A80165EE7BE08EE594E00E948C36892B39
:1021500071F5A8016DE87BE08AE694E00EC0A80165
:102160006CEB7BE08CE494E00E948C36892BF9F4D4
:10217000A8016EE57BE088E594E00E948C36892B0F
:10218000B1F420E032E0A70164EF70E188EF93E062
:102190000E94BF0A892B59F0AE014F5F5F4F61E08B
:1021A00071E0C7010E94640E80E090E010C0F80169
:1021B00085899689009711F00E94834EF801818DE0
:1021C000928D009711F00E94834E8FEF9FEF24961F
:1021D0000FB6F894DEBF0FBECDBFDF91CF911F9138
:1021E0000F91FF90EF9008953C01EC01E988FA8887
:1021F00089E00E94F94F08C048EE53E060E070E0CB
:10220000C7014D960E940554F301C784D088C114BC
:10221000D10491F3E6012F84388888EE93E0A0E0A2
:10222000B0E0F70180879187A287B38787A190A547
:102230000E94104E5C01892B39F468EE73E080E057
:1022400090E00E949B51E0CF89EA9DE0E1019E8FE2
:102250008D8FE601ED89FE8940E050E063E070E09B
:10226000C60119954424552400E010E088248EC04E
:10227000232B09F48FC0F701408551856285738552
:10228000C70142960E940554F701408D8789F301EA
:1022900027853089481761F3232B09F47BC0F701A8
:1022A00080819181A281B381A6FF07C064E670E0BE
:1022B00080E090E00E949B51E7CFF701A589B689A5
:1022C000A40FB11D5C914F5F408F882009F456C068
:1022D0005E37A9F15D3719F4B1E09B2ED5CF992077
:1022E00011F080E25827B8016F5F7F4FF70187A197
:1022F00090A50817190718F08B0188241EC02D2FF0
:102300003327E52FEC27AE2FBB27AA0FBB1FCD012C
:102310008F509D4FFC018491AE50BD4FFD01449103
:102320009927D82FCC27842F9927C82BD92BC227A0
:10233000D327F20151932F018B019924A5CF0730A8
:102340001105F8F0C85BD04FE1F402501040A8012D
:1023500060E180E090E00E94E43BEC01892B89F091
:10236000A801B5018B819C810E94B95DF101238D8B
:10237000348DBE01C601F901199503C05E3709F01D
:1023800083CF250100E010E031E0832E9924CFEFC8
:10239000DFEF7ACFE601ED89FE8940E050E064E0AE
:1023A00070E0C6011995C5010E94834E2DCF88E1CA
:1023B0008093C90080E090E00895982F8091C80034
:1023C00085FFFCCF9093CE009A3011F49DE0F6CFBC
:1023D0000895EF92FF920F931F93CF93DF937A01AB
:1023E0008B01EA0105C0F80181918F010E94DD1186
:1023F0002197FFEFCF3FDF07B1F7C701DF91CF9103
:102400001F910F91FF90EF900895EF92FF920F931D
:102410001F93CF93DF937A018A01EB0105C0FE0180
:1024200084910E94DD11219601501040FFEF0F3F73
:102430001F07A9F7C701DF91CF911F910F91FF905F
:10244000EF90089510928F0510928E05909391054C
:102450008093900510929305109292058EE895E076
:10246000089580E090E00895CF93DF93EA016150F2
:10247000714019F08FEF9FEF20C00E94EA17660F9E
:10248000771F881F991F288139814A815B81E4E089
:10249000220F331F441F551FEA95D1F70E94335E68
:1024A0002F5F3F4F4F4F5F4F569547953795279575
:1024B00021502093CC0080E090E0DF91CF910895EF
:1024C000CF93DF93FC01A785B089ED0198858985BD
:1024D0009817E1F084859585892B51F08885FD0159
:1024E000E80FF11DE45FFE4F80818093CE0009C0AC
:1024F000FD018085E80FF11DE45FFE4F8081809330
:10250000C600ED0188858F5F888717C0ED011A86A8
:10251000A189B289ED01E885F985309729F48FEF1B
:102520009FEF9987888709C08FEFEF3FF80729F061
:1025300084819581019695838483DF91CF9108955D
:10254000CF93DF93EC01AF85B8898C859D85892B6E
:1025500029F0FD0186819091CE0004C0FD018681A5
:102560009091C600E80FF11D9487FD019681878147
:102570008917A9F40988DA89C02DEA85FB85309787
:1025800029F48FEF9FEF9B878A8709C08FEFEF3F7A
:10259000F80729F084819581019695838483FD0154
:1025A00086818F5F8683DF91CF910895CF93DF93EC
:1025B000FC01A785B089ED018A85882309F59885F6
:1025C00089859817E9F081E08A8784859585892B2C
:1025D00051F08885FD01E80FF11DE45FFE4F808119
:1025E0008093CE0009C0FD018085E80FF11DE45FF6
:1025F000FE4F80818093C600ED0188858F5F8887BC
:1026000080E090E0DF91CF9108950FB6F8940F929B
:10261000892B21F088ED8093C90003C088ED809359
:10262000C1000F900FBE0895CF93DF93EC01EA81B4
:10263000FB810784F089E02D66812781621B772763
:1026400088279927DF91CF9108950E94834E80E0DB
:1026500090E00895EF92FF920F931F93CF93DF9333
:102660008C017A0186E090E00E94104E009719F4E8
:10267000EFEFFFEF17C0E801E989FA892485358576
:1026800046855785F7FE02C04D7F01C04260248712
:10269000358746875787FC01118210821383028396
:1026A00015821482CF01DF91CF911F910F91FF907E
:1026B000EF900895CF93DF93EC010FB6F8940F924B
:1026C000892B31F08091C9008F738093C90005C0B8
:1026D0008091C1008F738093C1000F900FBE8AE07C
:1026E0000E94D217CD2B31F08091C900877E809354
:1026F000C90005C08091C100877E8093C100DF9131
:10270000CF9108958F929F92AF92BF92CF92DF9216
:10271000EF92FF920F931F93CF93DF93DC016A0137
:10272000EA01E880F9800A811B81AE2C892B11F423
:10273000A3E2B4E0FD01B48481889288CB0181508A
:1027400091408431910548F48F569F4FFC01EE0F64
:10275000FF1F0590F491E02D1994CFEFDFEF07C232
:10276000CB2DDD27CE010E945A13BB20A1F0809112
:10277000C80081FF08C032E0EE0CFF1C001F111FD3
:102780003A95D1F71CC023E0EE0CFF1C001F111F6F
:102790002A95D1F714C08091C00081FF08C092E053
:1027A000EE0CFF1C001F111F9A95D1F7C9C183E0E1
:1027B000EE0CFF1C001F111F8A95D1F7C1C10E94AA
:1027C000EA17A80197010E94335E2F5F3F4F4F4FDA
:1027D0005F4F569547953795279521503040209368
:1027E000CC00232F33272093CD00CE010E94051368
:1027F000A4C1BB20A1F08091C80081FF06C0B8E051
:102800008B2E912CA12CB12C05C0A0E18A2E912CED
:10281000A12CB12C8091CD002091CC0013C08091CF
:10282000C00081FF06C0F8E08F2E912CA12CB12CA6
:1028300005C0E0E18E2E912CA12CB12C8091C50019
:102840002091C4009927D82FCC273327C22BD32B14
:102850000E94EA177B018C0121969E01442755278F
:10286000C501B4010E94F45D9B01AC01C801B70130
:102870000E94335EE601288339834A835B835DC10E
:102880000B2D1127C8010E945A138A2D85508430C0
:1028900008F069C0982F990FBB2061F08091CA00A1
:1028A000897F892B8093CA008091C9008B7F809398
:1028B000C9006FC08091C200897F892B8093C200BC
:1028C0008091C1008B7F8093C10063C0BB2049F021
:1028D0008091CA0099278670907095958795059686
:1028E0007BC08091C20099278670907095958795DE
:1028F000059662C00B2D1127C8010E945A13E2E011
:10290000EA1518F4CFEFDFEF1AC0F1E0AF1611F4BB
:1029100043E0A42EAA0CAA0CAA0CAA0CBB2039F0E6
:102920008091CA008F7C8A298093CA0006C080915A
:10293000C2008F7C8A298093C200C0E0D0E0AA2028
:1029400051F111C0BB2019F08091CA00F6C08091EE
:10295000C200F3C00B2D1127C8010E945A138A2D03
:102960008150823018F0CFEFDFEF15C0982F990F0C
:10297000990F990FBB2039F08091CA00877F892B6E
:102980008093CA0006C08091C200877F892B809304
:10299000C200C0E0D0E0C8010E940513E8C0BB201F
:1029A00081F08091CA0099278870907033E09595E6
:1029B00087953A95E1F70196AA2797FDA095BA2F3A
:1029C000B1C08091C20099278870907023E09595DE
:1029D00087952A95E1F70196AA2797FDA095BA2F2A
:1029E0006AC0ED01EF85F889E601188219821A8222
:1029F0001B82ED018C859D85892B19F08091C80083
:102A000002C08091C000282F332722FF09C081E037
:102A100090E0A0E0B0E0E60188839983AA83BB83BD
:102A200023703070232B51F0E60188819981AA81AF
:102A3000BB81826088839983AA83BB8390858185CB
:102A4000981751F4E60188819981AA81BB81806839
:102A500088839983AA83BB8396818781891709F02C
:102A60006CC0F60180819181A281B38180645AC0DB
:102A7000F401E082F182028313835FC0E401888164
:102A80009981AA81BB8117C0E401EC82FD820E838B
:102A90001F8353C0F40184819581A681B78142C010
:102AA000E4018C859D85AE85BF85A0FF0AC081E0CD
:102AB00090E0A0E0B0E0F60180839183A283B3832D
:102AC0003CC0E601188219821A821B8236C0F401CA
:102AD0002485358546855785AA2011F0416011C0AF
:102AE0004E7F08C0E4012C853D854E855F85AA2078
:102AF00039F04260F40124873587468757871DC027
:102B00004D7FE4012C873D874E875F8716C0F40117
:102B100084859585A685B785A1FF0AC081E090E0F0
:102B2000A0E0B0E0E60188839983AA83BB8305C057
:102B3000F6011082118212821382C0E0D0E017C029
:102B40000E94EA17A80197010E94335E2F5F3F4F52
:102B50004F4F5F4F569547953795279521503040F9
:102B60002093C400232F33272093C5003ECECE01EF
:102B7000DF91CF911F910F91FF90EF90DF90CF9059
:102B8000BF90AF909F908F9008950F931F93CF9316
:102B9000DF93CDB7DEB724970FB6F894DEBF0FBE34
:102BA000CDBF8C0180E895E2A0E0B0E089839A83F4
:102BB000AB83BC83F8018385823009F061C08685D0
:102BC000882309F05DC084859585029708F058C078
:102BD000A785B0898CE092E0FD0111920197E9F799
:102BE0008EE297E111969C938E9386ED92E1FD0122
:102BF000938382838DE496E195838483F801218910
:102C0000328980E1F90111928A95E9F780E090E03C
:102C1000A0E1B0E0F90184879587A687B787F8011E
:102C200084859585892B79F0A80160EA72E18EE5AB
:102C300094E00E948C36892B19F5A80160E672E1B8
:102C400084E694E00EC0A80160EA72E18CE494E0AE
:102C50000E948C36892BA1F4A80160E672E182E51E
:102C600094E00E948C36892B59F4AE014F5F5F4F80
:102C700061E071E0C8010E94821380E090E002C030
:102C80008FEF9FEF24960FB6F894DEBF0FBECDBF37
:102C9000DF91CF911F910F9108950F931F93CF93C1
:102CA000DF93FC01C785D089018912890E94D61261
:102CB000892B19F08FEF9FEF14C00FB6F8940F9285
:102CC00008C044E650E060E070E0C80108960E9449
:102CD0000554988589859817A1F70F900FBE80E05D
:102CE00090E0DF91CF911F910F9108954F925F92E5
:102CF0006F927F928F929F92AF92BF92CF92DF920C
:102D0000EF92FF920F931F93CF93DF93CDB7DEB770
:102D100022970FB6F894DEBF0FBECDBF6C013A010B
:102D20004901FC01E784F088A188B288F501248577
:102D30003585468557856115710521F40E944D162C
:102D40008C0164C0DA01C901F5E1B695A7959795A4
:102D50008795FA95D1F781708A83E1E15695479579
:102D600037952795EA95D1F7217029832B0100E04B
:102D700010E038C0F701908581858F5F891731F4A5
:102D8000C6010E944D16892B09F03EC081149104A2
:102D900019F0F201949102C0F2019081F981F130B1
:102DA00069F49A3081F48A81813019F0E2E0E98394
:102DB00003C0F2E0FA83F9839DE00AC08981823082
:102DC00011F4E1E0E9830894411C511C0F5F1F4F8F
:102DD000F7018185E80FF11DE45FFE4F90838F5F5F
:102DE000F7018187061517052CF2FA81F23038F4C5
:102DF000F50184859585A685B785A4FF07C0C60122
:102E00000E944D16892B11F00FEF1FEFC80122967B
:102E10000FB6F894DEBF0FBECDBFDF91CF911F91EB
:102E20000F91FF90EF90DF90CF90BF90AF909F9069
:102E30008F907F906F905F904F90089521E030E0E9
:102E4000FC01828193810E947616089520E030E093
:102E5000FC01828193810E94761608950F931F933F
:102E6000CF93DF93FC01C785D089018912890FB602
:102E7000F8940F929E810F900FBE8F81891719F0E1
:102E800080E090E014C0F80140815181628173813B
:102E9000C8010A960E9405540FB6F8940F923F811C
:102EA0002E810F900FBE009711F4321761F3DF915E
:102EB000CF911F910F9108956F927F928F929F9261
:102EC000AF92BF92CF92DF92EF92FF920F931F9338
:102ED000CF93DF933A01FC01A280B380F501C7854F
:102EE000D089A189B289FD01E484F584068517851E
:102EF00080E090E0A2E0B0E0E822F9220A231B2360
:102F00006115710521F06B018824992438C08E81E8
:102F10008F838824992436C09E818F81891769F414
:102F20008114910431F02EC0C5010E942E17892B07
:102F300049F59E818F818917B9F38F81FE01E80FD2
:102F4000F11D94858F5F8F83E114F1040105110554
:102F500079F09D3011F09A3059F48B85882311F067
:102F6000891769F49B878AE0D6018D936D0104C0AF
:102F70001B86F60191936F010894811C911C8614A5
:102F8000970454F2C401DF91CF911F910F91FF90EC
:102F9000EF90DF90CF90BF90AF909F908F907F90F9
:102FA0006F9008951F93182F6091B0077091B1072B
:102FB0008091B2079091B30720EA3FE040E050E0F3
:102FC0000E94335E822F932F0197F1F71A95D1F764
:102FD0001F9108956091B0077091B1078091B20779
:102FE0009091B30708956AEE73E080E090E0089551
:102FF00020E030E041EE50E02093B0073093B1077D
:103000004093B2075093B307E0E7F0E020812D7FB3
:1030100020831092B20032E03093B00025E020937C
:10302000B10022E72093B30035BB40E050E0BC0183
:1030300086E494E00E948C3608952AEE33E040E066
:1030400050E00E94F45D28EE33E040E050E00E9442
:10305000335E211531054105510521F421E030E0B1
:1030600040E050E0CA01B90108959C01FB01809144
:103070007000482F552742705070809170008D7FEE
:103080008093700020313105D9F0213131053CF4B5
:103090002115310581F02130310551F40EC0223166
:1030A000310579F122313105DCF020323105D9F0DA
:1030B0002FEF3FEF1EC040E050E082E087BB17C01B
:1030C000B99B05C081E090E09183808302C01182AA
:1030D0001082452BB1F0808191818068918380833B
:1030E00020E030E008C088E090E09183808320E019
:1030F00030E0452B41F08091700082608093700039
:1031000002C020E030E0C90108951F920F920FB66F
:103110000F9211242F933F934F935F936F937F935D
:103120008F939F93AF93BF93EF93FF9386E494E0C5
:103130000E947E36FF91EF91BF91AF919F918F9149
:103140007F916F915F914F913F912F910F900FBEA3
:103150000F901F9018959C01FB018091C100482F92
:103160005527407850708091C1008F778093C100BF
:1031700020313105E9F0213131053CF421153105CB
:1031800081F02130310551F40EC02231310599F121
:1031900022313105FCF020323105F9F02FEF3FEFFD
:1031A00022C040E050E08091C6008091C60019C066
:1031B0008091C00087FF05C081E090E0918380830B
:1031C00002C011821082452BB1F08081918180680C
:1031D0009183808320E030E008C080E190E091831B
:1031E000808320E030E0452B41F08091C100806871
:1031F0008093C10002C020E030E0C90108951F9211
:103200000F920FB60F9211242F933F934F935F931A
:103210006F937F938F939F93AF93BF93EF93FF939E
:103220008CE494E00E947E36FF91EF91BF91AF91C4
:103230009F918F917F916F915F914F913F912F91CE
:103240000F900FBE0F901F9018959C01FB0180916D
:10325000C100482F5527407450708091C1008F7B6A
:103260008093C10020313105F1F0213131053CF46A
:103270002115310581F02130310551F40EC0223184
:103280003105A1F12231310504F12032310501F17E
:103290002FEF3FEF23C040E050E08091C0008064FA
:1032A0008093C00019C08091C00086FF05C081E0F6
:1032B00090E09183808302C011821082452BB1F08F
:1032C0008081918180689183808320E030E008C014
:1032D00080E190E09183808320E030E0452B41F055
:1032E0008091C10080648093C10002C020E030E082
:1032F000C90108951F920F920FB60F9211242F93B8
:103300003F934F935F936F937F938F939F93AF936D
:10331000BF93EF93FF9382E594E00E947E36FF9186
:10332000EF91BF91AF919F918F917F916F915F913D
:103330004F913F912F910F900FBE0F901F901895B6
:103340009C01FB018091C100482F552740725070AD
:103350008091C1008F7D8093C1002131310529F119
:10336000223131053CF42115310581F1203131053F
:1033700039F409C02231310549F120323105C1F05B
:103380002FEF3FEF1BC08091C00085FF05C081E09B
:1033900090E09183808302C011821082452BB1F0AE
:1033A0008081918180689183808320E030E008C033
:1033B00080E190E09183808320E030E0452B41F074
:1033C0008091C10080628093C10002C020E030E0A3
:1033D000C90108951F920F920FB60F9211242F93D7
:1033E0003F934F935F936F937F938F939F93AF938D
:1033F000BF93EF93FF9388E594E00E947E36FF91A0
:10340000EF91BF91AF919F918F917F916F915F915C
:103410004F913F912F910F900FBE0F901F901895D5
:103420009C01FB018091C900482F552740785070BE
:103430008091C9008F778093C90020313105E9F070
:10344000213131053CF42115310581F02130310560
:1034500051F40EC02231310599F122313105FCF0D1
:1034600020323105F9F02FEF3FEF22C040E050E06D
:103470008091CE008091CE0019C08091C80087FF56
:1034800005C081E090E09183808302C011821082A8
:10349000452BB1F08081918180689183808320E009
:1034A00030E008C080E190E09183808320E030E04C
:1034B000452B41F08091C90080688093C90002C00B
:1034C00020E030E0C90108951F920F920FB60F92CD
:1034D00011242F933F934F935F936F937F938F9319
:1034E0009F93AF93BF93EF93FF938EE594E00E9479
:1034F0007E36FF91EF91BF91AF919F918F917F9118
:103500006F915F914F913F912F910F900FBE0F9050
:103510001F9018959C01FB018091C900482F5527E9
:10352000407450708091C9008F7B8093C900203116
:103530003105F1F0213131053CF42115310581F0DF
:103540002130310551F40EC022313105A1F1223173
:10355000310504F12032310501F12FEF3FEF23C097
:1035600040E050E08091C80080648093C80019C09A
:103570008091C80086FF05C081E090E09183808340
:1035800002C011821082452BB1F080819181806848
:103590009183808320E030E008C080E190E0918357
:1035A000808320E030E0452B41F08091C9008064A9
:1035B0008093C90002C020E030E0C90108951F9245
:1035C0000F920FB60F9211242F933F934F935F9357
:1035D0006F937F938F939F93AF93BF93EF93FF93DB
:1035E00084E694E00E947E36FF91EF91BF91AF9107
:1035F0009F918F917F916F915F914F913F912F910B
:103600000F900FBE0F901F9018959C01FB018091A9
:10361000C900482F5527407250708091C9008F7D96
:103620008093C9002131310529F1223131053CF463
:103630002115310581F12031310539F409C02231DC
:10364000310549F120323105C1F02FEF3FEF1BC0AA
:103650008091C80085FF05C081E090E09183808360
:1036600002C011821082452BB1F080819181806867
:103670009183808320E030E008C080E190E0918376
:10368000808320E030E0452B41F08091C9008062CA
:103690008093C90002C020E030E0C90108951F9264
:1036A0000F920FB60F9211242F933F934F935F9376
:1036B0006F937F938F939F93AF93BF93EF93FF93FA
:1036C0008AE694E00E947E36FF91EF91BF91AF9120
:1036D0009F918F917F916F915F914F913F912F912A
:1036E0000F900FBE0F901F9018950F931F93CF93BD
:1036F000DF938C01C091B407D091B507FE011BC0C8
:10370000808D918D8017910799F4828D938DA48D72
:10371000B58D82179307A407B50751F4868D978D51
:103720008617970729F48389882311F0CF0117C0E2
:103730000190F081E02D309719F70DC08B89813011
:1037400039F4888D998D8017910711F4CE0107C047
:103750000990D881C02D209789F780E090E0DF9113
:10376000CF911F910F910895CF93DF93FC01EA0150
:10377000892B09F459C080E162307807E1F080E1DB
:103780006330780744F46230710569F0615070412C
:1037900009F044C032C080E165307807B1F066506E
:1037A0007041E1F51AC0452B69F12230310551F520
:1037B000EE5AFF4F07C0452B29F12230310511F594
:1037C000E85BFF4F8081918124C0452BD9F02430E4
:1037D0003105C1F4E659FF4F07C0452B99F024305D
:1037E000310581F4EA59FF4F80819181A281B38133
:1037F00088839983AA83BB830EC0452B19F022309E
:10380000310529F0E05AFF4F86E190E00BC0818935
:1038100092899983888380E090E008C0E05AFF4F46
:103820008AE397E2918380838FEF9FEFDF91CF91BF
:103830000895FC01892B19F486E397E20895E05A74
:10384000FF4F808191810895CF93DF93DC01EA01DE
:103850006A30710561F06A30710534F06B307105C2
:1038600091F06C30710519F08FEF9FEF17C0FD01DB
:10387000E65BFF4FAA5BBF4F8D919C912081318108
:10388000821B930B03C0FC0185859685AA27BB2765
:1038900088839983AA83BB8380E090E0DF91CF91F6
:1038A0000895CF93DF93EC0107C0808191818D93C0
:1038B0009C93CF010E94AC3CDE01A45BBF4FED9115
:1038C000FC911197309789F707C08081918199AF5A
:1038D00088AFCF010E94AC3CE8ADF9AD3097A9F7B5
:1038E00007C0808191818D939C93CF010E94AC3C55
:1038F000DE01A05BBF4FED91FC911197309789F7E6
:10390000DF91CF9108954F925F926F927F928F9245
:103910009F92AF92BF92CF92DF92EF92FF920F935E
:103920001F93CF93DF93EC012B013A010E947D504E
:10393000209761F08B89843061F08B89853049F064
:10394000C05ADF4F89E497E2998388834FEF5FEF96
:10395000B3C04114510409F4A2C061147104A1F46C
:103960009EC08B89843061F7CA59DF4F48815981E5
:103970006A817B81C656D040CE01825B9F4F0E94F8
:103980000554892B09F08BC0CA5BDF4F8881998170
:103990002496C880D980CA54D0408C159D0509F35F
:1039A0008C199D098615970518F08824992441C023
:1039B000009719F46624772470C03C01F6CFC45BED
:1039C000DF4FA880B980CC54D040F501018912891D
:1039D0000C191D097301E818F908C201880D991D19
:1039E000678570890E151F0508F45CC06C0D7D1D80
:1039F000A7010E94B95D8E0C9F1CCE0CDF1CE01647
:103A0000F106B8F0C45BDF4FF501808191819983A5
:103A10008883CC54D040FE01EA5BFF4F80819181C6
:103A20008C199D0991838083C5010E94AC3CCC24F4
:103A3000DD248614970418F2C65BDF4FD982C88252
:103A4000CA54D0408B89843041F5FE01EC5BFF4FB6
:103A5000408151819A01260D371DC85BDF4F888157
:103A60009981C854D0402817390708F4C901CE5AA3
:103A7000DF4F28813981C255D0402417350748F0DF
:103A80002817390730F491838083CE010E945D2985
:103A900004C0CC5BDF4F99838883A3010DC040E055
:103AA00050E00AC06C0D7D1DA8010E94B95D800E1A
:103AB000911EC00ED11EA6CFCA01DF91CF911F91DA
:103AC0000F91FF90EF90DF90CF90BF90AF909F90BD
:103AD0008F907F906F905F904F9008950E94831C0D
:103AE0000895CF92DF92EF92FF920F931F93CF939F
:103AF000DF93EC016B018A010E947D50209709F44D
:103B000051C0C114D10409F450C00115110509F4C4
:103B10004CC0CE5ADF4FE880F980C255D0400E1518
:103B20001F0508F478018B898430B1F549A55AA5A1
:103B30008DA19EA1481B590B9A0136952795369564
:103B40002795CE5ADF4F88819981C255D0402817DA
:103B5000390738F48DA99EA9841B950B8E159F05F6
:103B600078F4C659DF4F488159816A817B81CA56F2
:103B7000D040CE01CA960E940554892BB1F4D3CF10
:103B800088A1806188A3A701B601CE010E94FE260C
:103B9000892B41F4A7010BC0C05ADF4F89E497E29B
:103BA000998388834FEF5FEF02C040E050E0CA0185
:103BB000DF91CF911F910F91FF90EF90DF90CF9009
:103BC0000895CF92DF92EF92FF920F931F93CF93BE
:103BD000DF936C017B018A01C0E0D0E011C0A80135
:103BE0004C1B5D0BB7016C0F7D1FC6010E94711D40
:103BF000181619061CF0CFEFDFEF05C0C80FD91F4C
:103C0000C017D10764F3CE01DF91CF911F910F91BF
:103C1000FF90EF90DF90CF900895AF92BF92CF9238
:103C2000DF92EF92FF920F931F93CF93DF93EC01FC
:103C30005B018A01892B09F4ABC08B89843039F090
:103C4000C05ADF4F89E497E299838883A1C0ED854C
:103C5000FE8541155105A9F4309709F49BC06F8585
:103C60007889AF01CE010E94E11D2F85388997FF29
:103C700002C0C90173C0C9010E94834E1E861D8601
:103C800089C06B0169897A89309729F546175707EA
:103C900010F47A0114C0CA010E941F5E7C01680101
:103CA000C81AD90AA601B501CE010E94E11D97FDEF
:103CB0006FC0E114F10409F46DC0CA0CDB1C8989E2
:103CC0009A890E94104E988B8F87009709F460C0E4
:103CD000A701B60154C0CF01840F951F2F853889E5
:103CE0008617970768F4B501CF01820F931F0E94D2
:103CF000B95D8D859E85800F911F9E878D874AC0F7
:103D00007B01EE1AFF0AA701B501CF01820F931FB5
:103D10000E94B95D49895A896F857889CE010E94D0
:103D2000E11D9923CCF06501CE0CDF1C98012E1902
:103D30003F0969897A8926173707C0F0C8010E94B0
:103D40001F5E7C015901A81AB90AA501B601CE016E
:103D50000E94E11D97FF07C08F8598890E94834EBE
:103D60001E861D8615C0CA0CDB1C01C079012F857B
:103D70003889E114F10431F0A701B601C9010E94AC
:103D8000B95D03C0C9010E94834EFE86ED8602C064
:103D90000FEF1FEFC801DF91CF911F910F91FF909F
:103DA000EF90DF90CF90BF90AF900895CF92DF92C9
:103DB000EF92FF920F931F93CF93DF936C017B01E0
:103DC000EA0141155105A1F0CA010E94104E8C0173
:103DD000009771F0AE01B7010E94935DAE01B8018A
:103DE000C6010E940D1EEC01C8010E94834E07C04F
:103DF000AE0160E070E0C6010E940D1EEC01CE0134
:103E0000DF91CF911F910F91FF90EF90DF90CF90B6
:103E100008950F931F938C0140E050E060E070E044
:103E20000E940D1EC8010E9421311F910F9108951B
:103E30000F931F93CF93DF93EC018A01892B09F431
:103E400077C080E16230780751F1E0E163307E07AE
:103E500044F46230710571F06150704109F062C044
:103E600048C080E16530780759F16650704109F02B
:103E700059C02EC04115510509F440C0223031050A
:103E8000E9F58B89882329F0C05ADF4F88E497E24F
:103E90004DC0CE5ADF4FFA01808191810EC041158D
:103EA000510561F12230310549F5FA018081918196
:103EB000C85BDF4F998388832497998388832FC0B9
:103EC000452BE1F024303105C9F4C659DF4F07C056
:103ED000452BA1F02430310589F4CA59DF4FF80190
:103EE00080819181A281B38188839983AA83BB83D6
:103EF00016C0452B19F02230310529F0C05ADF4F8A
:103F000086E190E013C040E050E060E070E0CE0158
:103F10000E940D1EF801808191819A8B898B80E02F
:103F200090E008C0C05ADF4F8AE397E29983888304
:103F30008FEF9FEFDF91CF911F910F910895CF9356
:103F4000DF938091B607882359F40E94E22820E08D
:103F5000892B09F421E02093B607222309F44BC0F2
:103F600082E790E00E94FC4E009709F444C0EC0107
:103F70001B8A84E08C838EE69DE19E838D838DE099
:103F80009EE198878F8386ED9EE19A87898784E2F8
:103F90009CE19C878B870E94EE5069A37AA38BA338
:103FA0009CA36DA37EA38FA398A769A77AA78BA7CD
:103FB0009CA7CC5BDF4F80E99CE0998388832496A3
:103FC000998388832A9628E132E0398328832696CC
:103FD00088EE93E099838883C855D0408091B407D8
:103FE0009091B507998388833A8B298BD093B50735
:103FF000C093B40702C0C0E0D0E0CE01DF91CF9102
:104000000895CF93DF93EC018091B4079091B507A9
:10401000E4EBF7E006C08C179D0731F0FC018081CE
:1040200091810097C1F719C088819981918380831C
:10403000CE010E94511C8D859E85892B31F08F8584
:1040400098890E94834E1E861D8682E7FE0111928A
:104050008A95E9F7CE010E94834EDF91CF910895B2
:10406000FC01062E672F702D718F608F0E94AD2A84
:104070000895EF92FF920F931F93CF93DF93EC017C
:104080007A018B01A901892B09F46CC08B898130DD
:1040900029F4C05ADF4F8DE397E262C08B898823F1
:1040A00029F0C05ADF4F88E497E25AC06091B40704
:1040B0007091B507A0E0B0E1809170049091710417
:1040C0000196909371048093700480917004909194
:1040D0007104892B21F4B0937104A0937004FB0147
:1040E0000FC08091700490917104082E892F902D3B
:1040F000208D318D28173907F9F20190F081E02DDC
:10410000309779F78091700490917104082E892F6F
:10411000902D998F888F042E452F502D5F8F4E8FB5
:10412000EA8EFB8E0C8F1D8F40E050E0C801B70176
:104130000E946222FC01892B79F00784F089E02D2E
:1041400087819085A185B2858C8B9D8BAE8BBF8B33
:10415000CE010E94902A08C0C05ADF4F81E597E245
:10416000998388838FEF9FEFDF91CF911F910F91FC
:10417000FF90EF9008959C01E0915C08F0915D083C
:104180000AC0828193818217930711F4CF010895A9
:104190000190F081E02D3097A1F780E090E0089544
:1041A000DC01FA01892B81F06250704169F4452BE2
:1041B00059F02230310541F480819181FD019387CE
:1041C000828780E090E008958FEF9FEF0895CF936E
:1041D000DF93DC01FA01892B81F06250704169F4B0
:1041E000452B59F02230310541F4ED018A859B853C
:1041F0009183808380E090E002C08FEF9FEFDF919A
:10420000CF910895CF93DF93EC01E0915C08F0919A
:104210005D08ACE5B8E01BC080819181EC17FD071B
:10422000A1F48D939C9307C0808191819D838C83A1
:10423000CF010E94AC3CEC81FD813097A9F7CE0103
:104240000E94834E80E090E006C0DF01FC013097C1
:1042500019F78FEF9FEFDF91CF9108956F927F92C3
:104260008F929F92AF92BF92CF92DF92EF92FF9286
:104270000F931F93CF93DF933C015A016B014901C8
:10428000A70160E880E090E00E94E43BEC01892B0C
:1042900019F40FEF1FEF13C0A701B8018F8598899C
:1042A0000E94B95D8E019401B601A501C3010E946F
:1042B000B4318C01892B19F4CE010E94AC3CC801A9
:1042C000DF91CF911F910F91FF90EF90DF90CF90F2
:1042D000BF90AF909F908F907F906F900895CF93F5
:1042E000DF93EC01892B01F540915C0850915D084A
:1042F000C0917204D0917304219611F4C0E0D0E112
:104300009E01022E232F302DFA0108C08281938155
:104310008217930789F30190F081E02D3097B1F770
:10432000D0937304C09372048CE090E00E94FC4E22
:10433000FC01892B79F00C2ECD2FD02DD383C28395
:1043400080915C0890915D0891838083F0935D0873
:10435000E0935C08CF01DF91CF9108954F925F9277
:104360006F927F928F929F92AF92BF92CF92DF9285
:10437000EF92FF920F931F93CF93DF935C014B015A
:104380003A012901FC01C481D581209769F4B70164
:10439000A60106960E940554F501C481D581209797
:1043A00019F440E050E032C088819981F50195838D
:1043B0008483EF81F88584859585A685B785F4018A
:1043C00080839183A283B383EB85FC858081918177
:1043D000082E892F902DF30191838083E988FA8834
:1043E00097010E151F0508F47801F5018085918568
:1043F000821B930B918780876F857889A701C20103
:104400000E94B95DCE010E94AC3CA701CA01DF91B8
:10441000CF911F910F91FF90EF90DF90CF90BF90C1
:10442000AF909F908F907F906F905F904F90089586
:10443000EF92FF920F931F93CF93DF937B018C0139
:10444000EA01622F6430A0F5E0915E08F0915F0808
:1044500014C086819781A085B1858E219F21A023DC
:10446000B123228133814481558182179307A407A8
:10447000B50731F00190F081E02D309751F71AC067
:10448000209761F082859385A485B5850097A10565
:10449000B10521F088839983AA83BB83868597859C
:1044A000892B41F46F5FE284F38404851585CACFBC
:1044B000E0E0F0E0CF01DF91CF911F910F91FF90ED
:1044C000EF900895FA01452B21F01082118212829B
:1044D00013826F3F2FEF72072FEF82072FEF9207A4
:1044E00029F4E0915E08F0915F0805C020E0AF017B
:1044F0000E941822FC01309719F480E090E00895A2
:104500008685978508954F925F926F927F928F92E2
:104510009F92AF92BF92CF92DF92EF92FF920F9352
:104520001F93CF93DF93CDB7DEB724970FB6F894E0
:10453000DEBF0FBECDBF2B013C0149015A01E9820C
:10454000FA820B831C83E0905E08F0905F080EE512
:1045500018E004C08701D701ED90FC90E114F1044C
:1045600051F0F70186819781A085B185881699065B
:10457000AA06BB0678F380E190E00E94104E9C01F1
:10458000009719F48FEF9FEF1EC0482059206A2032
:104590007B20FC01428253826482758286829782EC
:1045A000A086B18689819A81AB81BC8182879387FD
:1045B000A487B587D786C686F182E082D8012D937D
:1045C0003C9380E090E024960FB6F894DEBF0FBED7
:1045D000CDBFDF91CF911F910F91FF90EF90DF90B2
:1045E000CF90BF90AF909F908F907F906F905F9093
:1045F0004F900895CF93DF93EC0119821882E091D8
:104600005E08F0915F0806C0019699838883019047
:10461000F081E02D888199813097B1F724E0880FEF
:10462000991F2A95E1F70E94104E009799F0E091AA
:104630005E08F0915F080BC0EC01DF0120E10D90F6
:1046400009922150E1F740960190F081E02D3097DA
:1046500099F702C019821882DF91CF9108954F9285
:104660005F926F927F928F929F92AF92BF92CF9202
:10467000DF92EF92FF920F931F932B013C014901B0
:104680005A012FEF3FEF35C082819381A481B5811C
:1046900084159505A605B70511F586819781A08536
:1046A000B18588159905AA05BB05C9F4828593854E
:1046B000A485B5858E159F05A007B10781F4868571
:1046C00097858C159D0559F48081918190935F08A1
:1046D00080935E08CF010E94834E20E030E0E0919D
:1046E0005E08F0915F088081918190935F088093CC
:1046F0005E08E0915E08F0915F08309729F6C901E5
:104700001F910F91FF90EF90DF90CF90BF90AF90EF
:104710009F908F907F906F905F904F900895CF9370
:10472000DF93EC0117C0868597858C179D0711F0E4
:10473000209751F48081918190935F0880935E0867
:10474000CF010E94834E06C08081918190935F08C3
:1047500080935E08E0915E08F0915F08309719F74A
:1047600080E090E0DF91CF910895CF93DF93CDB7B4
:10477000DEB724970FB6F894DEBF0FBECDBFFC01A5
:1047800019821A821B821C82DE01119640E0808110
:1047900080538A3098F520E030E06AE070E0C9018B
:1047A000869F9001879F300D969F300D1124819137
:1047B000992787FD9095280F391F2053304080811D
:1047C00080333CF08A332CF42F3F310509F0B0F4EC
:1047D000E6CF2F3F310509F088F44F5F2C9380819D
:1047E0008E3239F0443051F469817A818B819C8119
:1047F00009C0443019F011963196C9CF6FEF7FEFA1
:104800008FEF9FEF24960FB6F894DEBF0FBECDBF9B
:10481000DF91CF910895BF92CF92DF92EF92FF92F6
:104820000F931F93CF93DF93CDB7DEB727970FB6C4
:10483000F894DEBF0FBECDBF6C837D838E839F83D4
:1048400094E0E92EF12CEC0EFD1E40E007EB17E0A2
:1048500050E06E010894C11CD11C8EE2B82E01C03C
:10486000492FD7012C91822F6AE00E94135E382FC6
:104870008C93F601E40FF11D822F0E94135E905D70
:104880009083942F9F5F332359F7D801242F2095CD
:10489000240FBE016F5F7F4F05C0FB01E90FF11DC3
:1048A00080818D9391509217C1F74F5FF801E40F0B
:1048B000F11DDF01BD928D015F5F543028F4089433
:1048C000E11CF11C90E0CCCF108287EB97E027969B
:1048D0000FB6F894DEBF0FBECDBFDF91CF911F9111
:1048E0000F91FF90EF90DF90CF90BF9008952F929F
:1048F0003F924F925F926F927F928F929F92AF9270
:10490000BF92CF92DF92EF92FF920F931F93CF93BC
:10491000DF93CDB7DEB72A970FB6F894DEBF0FBE90
:10492000CDBF1C012A013B0148015901CD82DE8225
:10493000EF82F886FC010784F089E02DFA87E98789
:10494000411551056105710581F440907008509042
:1049500071086090720870907308411451046104EA
:10496000710419F48FEF9FEFA4C0E985FA8547829F
:1049700050866186728681149104A104B10431F4D9
:1049800084E794E00E94B5234B015C01E985FA8538
:104990008786908AA18AB28AA301920128213921AF
:1049A0004A215B2129833A834B835C836101EE2496
:1049B000FF248701A501940169817A818B819C8103
:1049C0000E9483228D819E81AF81B8850097A105C9
:1049D000B10561F07C018D0120E030E040E050E065
:1049E00060E070E080E090E00E948322A1E6B8E001
:1049F000F101329689E001900D928150E1F7E9854D
:104A0000FA858181882379F48281882361F4838106
:104A1000882349F48481882331F48581882319F41B
:104A20008681882351F0AAE6B8E0E985FA853196B7
:104A300086E001900D928150E1F74092700850920B
:104A40007108609272087092730880927408909254
:104A50007508A0927608B09277082D813E814F812B
:104A600058852115310541055105A9F48091780833
:104A700090917908A0917A08B0917B0888219921BA
:104A8000AA21BB2129813A814B815C81821793073E
:104A9000A407B50761F08D819E81AF81B8858093B1
:104AA000780890937908A0937A08B0937B080E94C5
:104AB0002A262A960FB6F894DEBF0FBECDBFDF912F
:104AC000CF911F910F91FF90EF90DF90CF90BF900B
:104AD000AF909F908F907F906F905F904F903F909E
:104AE0002F9008952F923F924F925F926F927F92F4
:104AF0008F929F92AF92BF92CF92DF92EF92FF92EE
:104B00000F931F93CF93DF93CDB7DEB724970FB6E4
:104B1000F894DEBF0FBECDBF7C836B8319012A01E1
:104B2000370148010E947F54FC01009709F461C0DD
:104B30009A8389838385833009F05BC0A785B08918
:104B40008C91863071F41196EB81FC8101900D926D
:104B50008150E1F77601650194018301B201A10161
:104B600043C0873109F045C0A188B288F50121A270
:104B700032A243A254A2E114F1040105110541F44B
:104B80008FEF682E8FEF782E8FEF882E8FEF982E75
:104B9000F50161A672A683A694A6C5010E94A7533B
:104BA000F501FF96AE014F5F5F4F67E171E08081D5
:104BB00091810E94045540E65AEE60E070E0C50124
:104BC0000E940554892BA9F4F50184AD893089F43C
:104BD000C5A0D6A0E7A0F0A401A512A523A534A5E1
:104BE00041A152A163A174A189819A810E94772475
:104BF00002C08FEF9FEF24960FB6F894DEBF0FBE72
:104C0000CDBFDF91CF911F910F91FF90EF90DF907B
:104C1000CF90BF90AF909F908F907F906F905F905C
:104C20004F903F902F900895AF92BF92CF92DF9216
:104C3000EF92FF920F931F93AA24BB2465010E9459
:104C400072251F910F91FF90EF90DF90CF90BF9052
:104C5000AF90089580E28093600840E250E060E603
:104C600078E080E490E00E94413D892B19F08FEFBD
:104C70009FEF089580E090E00895CF93DF93EC01DB
:104C800040E250E060E678E080E490E00E94443D3D
:104C9000892BE9F480916008803251F4BE0181E6ED
:104CA00098E00E94D55D892B19F480E090E011C056
:104CB000E0E6F8E080E2DF011D928A95E9F746E040
:104CC00050E06FEF70E0CF010A960E94C25D8FEF57
:104CD0009FEFDF91CF910895AF92BF92CF92DF9275
:104CE000EF92FF920F93CF93DF936C01FC01A780AB
:104CF000B084C385D4858D8582FD71C0F601128A8A
:104D0000118A84E190E096878587288139818A819C
:104D10009B81998388833B832A838D85992784FF90
:104D20000FC084E08D8788859985AA85BB858C8393
:104D30009D83AE83BF83188619861A861B8620C082
:104D40002C813D814E815F8181FF10C0022E252F75
:104D5000502D032E342F402D2F5F3F4F4F4F5F4F6D
:104D6000022E252F502D032E342F402D28873987D2
:104D70004A875B871C821D821E821F8284E18D8789
:104D800080E58C871F861E861B8A1A8A198A188AD4
:104D9000F601E584F6840E2CEF2CF02CF501248529
:104DA000358546855785608971898289938906E0B2
:104DB0000E948A32DC01CB01F60145855685BE0191
:104DC0000E948532998B888BF501448555856685CF
:104DD0007785960186E00E94BC32892B19F4C601C2
:104DE0000E94AC3C80E090E0DF91CF910F91FF906A
:104DF000EF90DF90CF90BF90AF9008956F927F9229
:104E00008F929F92AF92BF92CF92DF92EF92FF92DA
:104E10000F93CF93DF93CDB7DEB722970FB6F894F9
:104E2000DEBF0FBECDBF6C017B013A01452B29F4DB
:104E3000FC0180A18B7009F480C1F60180A181FF83
:104E400002C008E101C004E1402F552760E480E082
:104E500090E00E94E43B4C01009709F48CC0FC01F7
:104E6000A384B484F601808D918DF50191838083B4
:104E7000F601868D978DF50193838283000F000FD5
:104E80000487F60180A1877F80A381A592A5A3A5B1
:104E9000B4A5082E8B2FB02D092E9A2FA02DF50129
:104EA00084839583A683B783F60180A184FF20C005
:104EB00080E1F5018587F60180A18F7E80A320E443
:104EC00030E0C20ED31EF60180819181A281B381B0
:104ED00020EC3FEFC20ED31E082E8B2FB02D092ED3
:104EE0009A2FA02DF50180879187A287B38706C0EE
:104EF000F50115861086118612861386F60180A1AB
:104F0000992781FF2DC022E530E0C20ED31EF601A5
:104F1000808191812EEA3FEFC20ED31E082E892F89
:104F2000902D9A838983F501858582608587F601B6
:104F300080A18D7F80A381A592A5A3A5B4A501968C
:104F4000A11DB11D81A792A7A3A7B4A782E0F50177
:104F5000848B84E0858B8981868B8A81878B46C090
:104F60006114710471F1A30160E8C4010E94E43B83
:104F70004C01009751F420E630E0C20ED31E87E4C6
:104F800097E2F60191838083D2C0A301B701FC01AF
:104F9000878590890E94B95DC301AA27BB27F601C6
:104FA00021A532A543A554A5280F391F4A1F5B1F11
:104FB00021A732A743A754A7F50185858860858777
:104FC00015C080FF13C0F501858581608587F601D6
:104FD00080A18E7F80A381A592A5A3A5B4A50196EB
:104FE000A11DB11D81A792A7A3A7B4A724E430E017
:104FF000C20ED31EF601208131814EE050E0C40E76
:10500000D51EF601808191814EEA5FEFC40ED51E58
:105010002817390720F4F5011786168606C0022ED8
:10502000232F302DF50137872687F501118A108A45
:10503000138A128AF401E584F68481899289E80E44
:10504000F91E0E2CEF2CF02CF601228D338D448DA1
:10505000558D648975898689978906E00E948A3210
:10506000DC01CB01F40145855685B5010E944D3226
:10507000F40141895289678570890E948532F50162
:10508000918B808B672841F4858599278370907078
:10509000892B11F4740140C0F40111821082F601D1
:1050A000A0ADB1AD109789F491AE80AE0E94875249
:1050B0002EE530E0C20ED31EF6017183608322EA32
:1050C0003FEFC20ED31E08C0DC018D919C91119759
:1050D0000097D1F78D929C9296012C5A3F4FF9017F
:1050E00080819181A281B3810097A105B10581F4EE
:1050F000F50184819581A681B781082E8B2FB02D73
:10510000092E9A2FA02DF90180839183A283B38366
:10511000C4010E94C33C7C01F601428D538D648D15
:10512000758D970186E00E94BC32892B19F08FEFB4
:105130009FEF05C0C7010E94AC3C80E090E0229642
:105140000FB6F894DEBF0FBECDBFDF91CF910F91A8
:10515000FF90EF90DF90CF90BF90AF909F908F9097
:105160007F906F900895CF93DF93EC01C05ADF4F8B
:10517000798368831A921A921A921A92CC55D04067
:105180008B89863018F08AE08B8B01C01B8ACE0198
:105190000E94511CCE01825B9F4F0E94A753CE01FB
:1051A000CA960E94A753CE018E599F4F0E94A753C3
:1051B000CE018C599F4F0E94A75380E090E0DF9171
:1051C000CF9108958091C7079091C807892B99F4D2
:1051D00020E032E040E050E065E77CE282E894E0E5
:1051E0000E94BF0A9093C8078093C707892B19F4C0
:1051F0008FEF9FEF089580E090E00895CF92DF92C7
:10520000EF92FF920F931F93CF93DF937C01FC01EA
:10521000118210828091C7079091C807892B21F4D1
:10522000C7010E946C2640C0C0908008D0908108C1
:10523000C114D10429F4F0928108E09280082CC0B6
:10524000F701C185D28585859685C80FD91F8189CB
:105250009289C80FD91F0091C9071091CA07005041
:10526000184F0C0F1D1F0E94F74E08171907C8F49E
:105270008091C9079091CA078C0F9D1F9093CA0710
:105280008093C907F60180819181009711F06C012C
:10529000F9CFF601F182E08282E898E00E94B253F1
:1052A00003C0C7010E94AC3CDF91CF911F910F91C9
:1052B000FF90EF90DF90CF900895FC01892B19F4B7
:1052C0008FEF9FEF089580A1886180A340E050E0B8
:1052D00060E070E0CF010E94FE2680E090E008953B
:1052E000EF92FF920F931F93CF93DF93EC018B010B
:1052F000DC01A45BBF4FED91FC911197309749F011
:1053000080819181009711F0FC01FACF1183008315
:1053100002C06D937C93DE01AA5BBF4F8D919C917F
:105320001197F80121893289820F931F8D939C93E5
:1053300080E4E82EF12CEC0EFD1E618972899B0140
:1053400044275527F70180819181A281B381820F83
:10535000931FA41FB51F80839183A283B383FE0193
:10536000EC5BFF4F808191816817790718F01182FB
:10537000108204C0861B970B9183808328A1822F03
:10538000806188A3F80180819181892B19F01182B5
:10539000108202C0286128A340E050E060E070E085
:1053A000CE010E94FE26DF91CF911F910F91FF90B9
:1053B000EF9008951F93CF93DF93EC01162F8B8905
:1053C000853009F45FC0863088F4823051F1833033
:1053D00038F4882309F45EC0813009F09AC01DC0FA
:1053E000833039F1843009F094C011C0883009F459
:1053F00079C0893030F4863069F1873009F089C08E
:1054000046C08930B9F18A3009F083C06BC065307D
:1054100071F1663009F066C037C0633009F062C0D0
:1054200005C0633019F0643011F108C088A18261B1
:1054300037C0643009F46DC0653020F4113009F0D4
:1054400051C067C0653001F1663009F04BC088A1DA
:10545000816026C0673059F0683020F4663009F06A
:1054600041C057C0862F89508230E0F552C088A1D4
:10547000886116C06A3019F02FEF3FEF14C020E0AA
:1054800030E011C0683071F588A1816109C06A30CF
:1054900049F53FC06130E9F1623021F588A18260B1
:1054A00088A381E007C088A1886188A381E02115D5
:1054B000310589F51B8B8823C1F040E050E060E0A6
:1054C00070E0CE010E94FE26892B79F0123069F43B
:1054D000C05ADF4F80E597E299838883CE01049616
:1054E0000E9423532FEF3FEF16C0153079F4CE0101
:1054F000825B9F4F0E94A753CE018E599F4F0E94FF
:10550000A753CE018C599F4F0E94A75320E030E053
:1055100002C080E0CFCFC901DF91CF911F910895E4
:10552000CF93DF93EC0162E00E94DA298B8982300D
:1055300049F440E050E060E070E0CE018C599F4FAC
:105540000E9405548B89843019F08FEF9FEF02C0C1
:1055500080E090E0DF91CF910895CF93DF93EC014D
:105560008B89882339F0C05ADF4F88E497E299830A
:1055700088830FC061E0CE010E94DA2940E050E04C
:1055800060E070E0CE018E599F4F0E94055480E08C
:1055900090E0DF91CF910895CF93DF93EC01FB0171
:1055A00080899189A289B3898C8B9D8BAE8BBF8BAF
:1055B000FA01808191819F8F8E8FFB018485958573
:1055C000A685B7858A8F9B8FAC8FBD8FFA018481AA
:1055D0009581A681B781082E8B2FB02D092E9A2F89
:1055E000A02D8CAF9DAFAEAFBFAF8DA79EA7AFA7CD
:1055F000B8ABC05CDF4F0196A11DB11D88839983B4
:10560000AA83BB83C054D04086859785082E892FF6
:10561000902D9EAB8DABFB01648575858685978546
:1056200040E050E00E946222FC01892B01F10784D6
:10563000F089E02D838994898897FE01EE5AFF4F07
:10564000208131812115310519F08217930710F45B
:1056500091838083CE5ADF4F28813981C255D04053
:1056600089899A892817390710F43A8B298BDF9199
:10567000CF9108950F931F93CF93DF93EC01FC011B
:10568000E65AFF4F80819181019691838083019733
:10569000089718F06CE477E212C0E8ADF9AD00812C
:1056A00011814A8D5B8D6C8D7D8D9F0186E00E94FE
:1056B000BC32892B51F019AF08AF62E477E2CE011A
:1056C0000E94B3288FEF9FEF08C00E948752C25AF2
:1056D000DF4F7983688380E090E0DF91CF911F9165
:1056E0000F910895CF92DF92EF92FF920F931F9345
:1056F000CF93DF93EC01FB01BA01E084F1840285D2
:1057000013850E2CE12E102D0F2CF02E002D89A5C7
:105710009AA5ABA5BCA58E159F05A007B10720F4DF
:1057200088A1886188A3D6C08DA19EA1AFA1B8A58C
:10573000E816F9060A071B0781F5248135814681A1
:105740005781022E252F502D032E342F402D8DA54D
:105750009EA5AFA5B8A982179307A407B50770F057
:10576000281739074A075B0739F589A99AA9ABA910
:10577000BCA9E816F9060A071B07F0F0868597858D
:10578000082E892F902D9EAB8DAB2DA73EA74FA73E
:1057900058ABE9AAFAAA0BAB1CAB8DA19EA1AFA195
:1057A000B8A5E816F9060A071B0708F493C0E8161F
:1057B000F9060A071B07F9F488AD99AD892B09F49E
:1057C00089C0672B09F086C0858599278370907002
:1057D000892B09F07FC08FA98F5F8FAB833008F4CE
:1057E00079C01FAACE010E943A2B892B09F472C0FE
:1057F0008FEF9FEF71C01FAAEDA2FEA20FA318A703
:1058000086859785082E892F902D9EAB8DABCC5A1F
:10581000DF4F88819981AA81BB81C455D040009710
:10582000A105B10541F08E159F05A007B10718F439
:10583000CE010E947D31CC5ADF4F188219821A8224
:105840001B82C455D0402FC0FB01C384D484F60111
:105850002481358146815781022E252F502D032E1C
:10586000342F402DFB0181899289AA27BB27280F5D
:10587000391F4A1F5B1FF601858599278370907039
:10588000892B21F02F5F3F4F4F4F5F4FE216F306FA
:105890000407150770F0FB018081918199AF88AFF3
:1058A000CB010E94AC3C68AD79AD6115710561F624
:1058B00007C00E948752C25ADF4F7983688304C0B1
:1058C000C25ADF4F19821882CE55D040C65ADF4FD8
:1058D0001982188280E090E0DF91CF911F910F91A3
:1058E000FF90EF90DF90CF900895CF93DF93CDB7E7
:1058F000DEB725970FB6F894DEBF0FBECDBF80E2AE
:105900000E94F94F198229812F5F2983243058F48E
:1059100048EC50E060E070E082E898E00E940554B6
:10592000892B09F46AC0E090B407F090B50760C015
:10593000F70180A184FF09C0886080A340E050E0A7
:1059400060E070E0C7010E94FE26F70180AD91ADD6
:10595000892B01F18701025A1F4FF8018081918143
:10596000892BC1F00E948752F80120813181621B8E
:10597000730B28E530E0E20EF31EF7012081318140
:1059800088EA9FEFE80EF91E2617370718F4C701BB
:105990000E943A2BF70183898A3019F08389893074
:1059A00079F4F701E45AFF4F808191810196918348
:1059B000808301970997C8F0C7010E940120A2CFF8
:1059C000F7018389833089F4D701A45ABF4F8D91A1
:1059D0009C911197019611969C938E9301978D97A8
:1059E00020F081E0838B1D921C92F701E080F18012
:1059F000E114F10409F09CCF85CFC0908008D090CD
:105A0000810810928108109280081092CA071092A3
:105A1000C9070BC4F601A385B48587819085FC0175
:105A200024853585468557856D917C911197FD01BB
:105A3000828193810E94751B9D838C83F601019066
:105A4000F081E02DFB83EA83892B09F4E9C3F60199
:105A500085859685459708F43BC0638574856C5EA3
:105A60007F4F27C0413019F04230F9F403C06F5F17
:105A70007F4F1FC0FB0182819927382F2227838106
:105A80009927282B392B022E232F302DAC81BD8155
:105A9000AE5ABF4F8D919C9111972817390710F47A
:105AA0002D933C936C5F7F4F04C0FB018181680F95
:105AB000711DFB014081442359F0F60183859485D3
:105AC0009B01281B390B858596852817390754F2C9
:105AD000F60183849484F401B584EC81FD8183898B
