:100000000C9439010C9487010C9487010C9487019E
:100010000C9487010C9487010C940D240C94870197
:100020000C9487010C9487010C9487010C94870130
:100030000C9487010C942E1B0C9487010C9487015F
:100040000C9487010C9487010C9487010C94870110
:100050000C9487010C9487010C9487010C94870100
:100060000C9487010C9487240C94F7240C9487013A
:100070000C9487010C9487010C9487010C948701E0
:100080000C9487010C9487010C9487010C948701D0
:100090000C9487010C9487010C9487010C948701C0
:1000A0000C9487010C9487010C9487010C948701B0
:1000B0000C9487010C9487010C9487010C948701A0
:1000C0000C9487010C9487010C948701852688265F
:1000D00094269C269F26A226A526A826B126DB26A6
:1000E000002705270A270F2714271E2725272B2738
:1000F00035274327822682268226822652275527A5
:1001000058276A276D27782782267B27812784270F
:100110008A278D27932796279E270000000000003E
:1001200000000000000000000000000000000000CF
:1001300000000000000000000000000000000000BF
:1001400000000000000000000000000000000000AF
:10015000000000000000000000000000000000009F
:10016000000000000000000000000000000000008F
:10017000000000000000000000000000000000007F
:10018000000000000000000000000000000000006F
:10019000000000000000000000000000000000005F
:1001A000000000000000000000000000000000004F
:1001B000000000000000000000000000000000003F
:1001C000000000000000000000000000000000002F
:1001D000000000000000000000000000000000001F
:1001E000000000000000000000000000000000000F
:1001F00000000000000000000000000000000000FF
:1002000000000000000000000000000000000000EE
:1002100000000000000000000000000000000000DE
:1002200000000000000000000000000000000000CE
:1002300000000000000000000000000000000000BE
:1002400000000000000000000000000000000000AE
:10025000000000000000000000000000000000009E
:10026000000000000000000000000000000000008E
:10027000000084E88093740087E08093C40080933A
:10028000CC0011241FBECFEFD1E2DEBFCDBF13E003
:10029000A0E0B2E0E0EAFBE900E00BBF02C007909B
:1002A0000D92AE35B107D9F714E0AEE5B3E001C069
:1002B0001D92AB35B107E1F78FEF9FE79EBF8DBF72
:1002C0008FEF9FE78B5594408158914040F06FEF3E
:1002D0007EE76B5574408BE594E00E9489130E9481
:1002E0007919892B41F068E372E081E294E00E9481
:1002F000544D0E94601920E831E040E050E061E890
:1003000072E081E492E00E94DC190C9400000C94ED
:100310000000CF92DF92EF92FF920F931F93CF9343
:10032000DF936C017B01EA0180E890E00E94834C3E
:100330008C0120C0960140E850E061E070E0C80107
:100340000E94124CAC0118161906BCF4888188234F
:1003500089F0970161E070E0C8010E945B4C1816BB
:1003600019065CF48881882329F0C7010E94754B27
:10037000892B19F488818823E9F61882C8010E9424
:10038000804CDF91CF911F910F91FF90EF90DF9004
:10039000CF9008958F929F92AF92BF92CF92DF92AB
:1003A000EF92FF920F931F93CF93DF93CDB7DEB7FA
:1003B0002F970FB6F894DEBF0FBECDBF80E895E251
:1003C000A0E0B0E089839A83AB83BC8340E060E027
:1003D00070E088E592E00E94341945E060E073E83F
:1003E00089ED92E00E94341960E072E084E092E0CE
:1003F0000E94B64B9E838D830E94864BAE014F5F59
:100400005F4F61E071E00E94D24A20E63AEE40E0A0
:1004100050E060E070E08AE092E00E94EC03892BFB
:1004200061F1DE011A96E2E3F2E086E001900D92BE
:100430008150E1F78AE0882E912C8C0E9D1E20E6DB
:100440003AEE40E050E0B4018AE092E00E94EC0312
:10045000892B99F08FE092E00E9435345B016C01AA
:100460008FE192E00E9435347B018C01A601950159
:10047000B4018AE092E00E941D3720E032E0AE0134
:100480004B5F5F4F68E672E08DE292E00E94DC19FC
:1004900019860E941F308C0167E170E00E94B03025
:1004A00060E072E0C8010E94244B98878F8321E0AE
:1004B00029876D817E81AE01475F5F4F0E94890170
:1004C0008F8198850E94E44AC8010E94892FE1CF5C
:1004D000EC018C81882379F080E40E949214AE01B3
:1004E0004C5F5F4F6A817B81888199810E9489017D
:1004F00080E80E9492140E941615EBCF80934B0265
:1005000008950E948A1620E033E040E050E06AEC53
:1005100071E086E492E00E94DC198EEF0E94921452
:100520000E9416150E945D1420914B022F3FC1F3CB
:1005300093B783B7817F822B83BF83B7816083BFEB
:10054000889583B78E7F83BF83B7817F9E70892B09
:1005500083BFE6CFCF93DF93DC01FC0187E3819378
:1005600093E0ED019983DF01119681E08183FD0124
:10057000918386E0828385E090E0DF91CF910895BA
:100580008091630399270895809164039091650396
:100590001092650310926403089520E030E080918A
:1005A0006303853011F421E030E0C9010895DF9242
:1005B000EF92FF920F931F93CF93DF93D62E790183
:1005C0008A010E941819EC01892B51F08B85833028
:1005D00039F4EF85F889309719F08081863049F039
:1005E00081E190E090936503809364038FEF9FEF28
:1005F00035C00E94201760936E0370936F03809341
:10060000700390937103E0926A03F0926B0300937E
:100610006C0310936D03D0926303809161039091FA
:100620006203892B69F420E032E0AE016EE578E0E8
:100630008CE492E00E94DC19909362038093610342
:1006400086E693E00E944B1840E050E060E070E0E6
:1006500088E693E00E949E1880E090E0DF91CF91C1
:100660001F910F91FF90EF90DF900895FC019A0188
:10067000AB0180916303882349F083E090E090937D
:100680006503809364038FEF9FEF089568E0CF01C7
:100690000E94D7020895FC019A01AB018091630387
:1006A000853049F083E090E0909365038093640384
:1006B0008FEF9FEF089569E0CF010E94D702089560
:1006C000CF92DF92EF92FF920F931F93CF93DF931E
:1006D000FC0184E292E0DF011D920197E9F781E0DD
:1006E0008083818386E08283DF015C96CFE3D4E060
:1006F00009900D928150E1F7248335834683578317
:100700000C2CCD2CD02CD186C086E486F5860687AD
:100710001787DF01A451BF4F93E6FD01919382E853
:10072000ED018983DF01119683E58183FD01319617
:10073000ED019983DF01119685E3818381E0FD015D
:100740008183628387E090E0DF91CF911F910F91C9
:10075000FF90EF90DF90CF900895CF93DF93CDB7C8
:10076000DEB722970FB6F894DEBF0FBECDBFDC0117
:100770005A834983FC0161939F0182E0FD018183DB
:1007800089819A81082E892F902DF9019283818386
:1007900084E090E022960FB6F894DEBF0FBECDBF86
:1007A000DF91CF9108950F931F93CF93DF93DC01D7
:1007B000CA01022FFD016193ED0129831127A801D0
:1007C000BC01CF0101960E943A4DC8010296DF910B
:1007D000CF911F910F9108954F925F926F927F92E8
:1007E0008F929F92AF92BF92CF92DF92EF92FF9241
:1007F0000F931F93CF93DF93CDB7DEB760970FB6FC
:10080000F894DEBF0FBECDBF3C012B012D873E8784
:100810004F87588B0E9418195C01009769F0FC0102
:100820008385833049F4C784D088C114D10421F072
:10083000F6018081863019F081E190E039C08E01A7
:10084000095F1F4FF80111928A95E9F746E050E0E1
:100850006FEF70E04E010894811C911CC4010E944E
:10086000434D76010894E11CF11C46E050E0B801CC
:10087000C7010E942D4D892B41F046E050E0B401A4
:10088000C7010E942D4D892B31F54114510449F0C7
:10089000AFE3B4E0F20186E001900D92815069F07F
:1008A000FBCFC3010E944637892B39F082E090E0EC
:1008B000909365038093640399C0F701AFE3B4E0BC
:1008C00086E00D9001928150E1F764EF71E080E0E5
:1008D00090E00E94341620915104309152044091CE
:1008E000530450915404E0904904F0904A0400915C
:1008F0004B0410914C04DA01C9018E219F21A023E1
:10090000B1230097A105B10549F020934504309328
:100910004604409347045093480458C02D853E85B3
:100920004F85588961E0C3010E94D702892B09F0E5
:100930005DC080916303853031F5E0915F03F091F4
:100940006003C584D684E784F088058116812781F9
:1009500030854181528163817481C5010E94803557
:10096000E0915F03F0916003E588F6880789108DB8
:10097000218932894389548960E070E080E090E009
:100980000E94300F30C0F60187819085A185B28525
:100990000097A105B10539F5209145043091460431
:1009A0004091470450914804E0904904F0904A0473
:1009B00000914B0410914C04DA01C9018E219F2152
:1009C000A023B1230097A105B10581F0A0904D04AB
:1009D000B0904E04C0904F04D09050046FE374E088
:1009E000C3010E947B3680E090E002C08FEF9FEF52
:1009F00060960FB6F894DEBF0FBECDBFDF91CF91EA
:100A00001F910F91FF90EF90DF90CF90BF90AF902C
:100A10009F908F907F906F905F904F900895CF93AD
:100A2000DF93EC01892B79F089A59AA5009711F045
:100A30000E94804C8BA59CA5009711F00E94804CD1
:100A4000CE010E94804CDF91CF910895EF92FF92EA
:100A50000F931F93CF93DF938C017B01EA01DC019D
:100A60008D919C91009711F00E94804CCE010196CF
:100A70000E94834CF80191838083009761F0209756
:100A800021F0AE01B7010E943A4DD801ED91FC91E1
:100A9000EC0FFD1F1082DF91CF911F910F91FF90FE
:100AA000EF9008954F925F927F928F929F92AF92B4
:100AB000BF92CF92DF92EF92FF920F931F93CF934B
:100AC000DF938C017B018DE290E00E94834CEC016E
:100AD000009709F420C12C018DE2FE0111928A9544
:100AE000E9F780EC98EAA0E0B0E08DA39EA3AFA365
:100AF000B8A7F80180899189A289B38989839A83EB
:100B0000AB83BC8380EFC82ED12CC00ED11E00E178
:100B1000A02E0FEFB02EAE0CBF1CEAC0662339F436
:100B20000894C11CD11C0894A108B108E1C0F601C9
:100B30007180872C9924A814B9040CF4E9C065339A
:100B400041F4F1E07F1609F0E3C0F6018281888369
:100B5000C3C06C3039F4B6016E5F7F4FA401CE0183
:100B6000899608C06F3049F4B6016E5F7F4FA401CB
:100B7000CE018B960E942605AFC0F3E0F71508F072
:100B8000ABC0F601228183819927AA27BB27EE24D7
:100B9000F82E092F1A2FE20EF11C011D111D2581BF
:100BA000332744275527522F442733272227848170
:100BB0009927AA27BB27DC0199278827280F391FE7
:100BC0004A1F5B1FE20EF31E041F151F613029F43C
:100BD000ED82FE820F8318877FC06C3129F4E9868D
:100BE000FA860B871C8778C0633029F4ED86FE8671
:100BF0000F87188B71C0663009F041C0E98AFA8A04
:100C00000B8B1C8BF7E0F71508F066C0F601268108
:100C10003327442755272D8B3E8B4F8B588F878149
:100C20009927AA27BB27BA2FA92F982F8827820F89
:100C3000931FA41FB51F8D8B9E8BAF8BB88F208504
:100C4000332744275527A90133272227280F391F87
:100C50004A1F5B1F2D8B3E8B4F8B588F81859927A9
:100C6000AA27BB27B82FAA2799278827280F391F1B
:100C70004A1F5B1F2D8B3E8B4F8B588F2DC06633C9
:100C800029F4E98EFA8E0B8F1C8F26C06A3359F433
:100C90000E2CE12E102D0F2CF02E002DED8EFE8E41
:100CA0000F8F18A319C06B3359F40E2CE12E102DA1
:100CB0000F2CF02E002DE9A2FAA20BA31CA30CC04E
:100CC000633351F40E2CE12E102D0F2CF02E002D3D
:100CD000EDA2FEA20FA318A7C70CD11C82E090E0E2
:100CE000C80ED91EA818B908EEEFFFEFAE0EBF1E52
:100CF000F60160816F3F29F01A141B040CF40ECF2B
:100D000007C08881823051F0853041F0863031F063
:100D1000CE010E940F054424552439C08D8D9E8D2F
:100D2000AF8DB8A10097A105B10561F48DA19EA179
:100D3000AFA1B8A5B695A795979587958D8F9E8FEE
:100D4000AF8FB8A389A19AA1ABA1BCA10097A105BF
:100D5000B105E9F48D8D9E8DAF8DB8A19C01AD01DB
:100D60005695479537952795280F391F4A1F5B1FC2
:100D700062E0B695A795979587956A95D1F7280F64
:100D8000391F4A1F5B1F29A33AA34BA35CA3C201CF
:100D9000DF91CF911F910F91FF90EF90DF90CF9057
:100DA000BF90AF909F908F907F905F904F900895ED
:100DB000EF92FF920F931F93DC01F801E20FF31FF4
:100DC000E451FF4F8FEF808303511F4F81E00C32BE
:100DD000180710F40CE211E07801890123E430E0F7
:100DE000CD010E94AE3197FD03C080E090E008C0C5
:100DF00083E190E090936503809364038FEF9FEF0E
:100E00001F910F91FF90EF9008952F923F924F9274
:100E10005F926F927F928F929F92AF92BF92CF928A
:100E2000DF92EF92FF920F931F93CF93DF93CDB793
:100E3000DEB71C012A013B014901A8019701860187
:100E400075019CEEA92EB12CA80CB91CCE8CDF8CA0
:100E500063E0C4010E9460038C018E899F89A88D84
:100E6000B98D0097A105B10561F024E0AE014A5E9D
:100E70005F4F62E3C501800F911F0E94D303080FEB
:100E8000191F8A8D9B8DAC8DBD8D0097A105B10575
:100E900061F024E0AE01465E5F4F66E3C501800F5E
:100EA000911F0E94D303080F191FC501800F911FC6
:100EB0000E94AA02080F191FA1E2B4E0FD010190EF
:100EC0000020E9F73197EA1BFB0B1E161F0654F4AE
:100ED0002E2FAD016CE0C501800F911F0E94D3033E
:100EE000080F191F9401B301A201C1010E94D80685
:100EF000DF91CF911F910F91FF90EF90DF90CF90F6
:100F0000BF90AF909F908F907F906F905F904F9029
:100F10003F902F9008956F927F928F929F92AF9201
:100F2000BF92CF92DF92EF92FF920F931F93CF93D6
:100F3000DF93CDB7DEB7EE89FF89FF93EF936A8821
:100F40007B888C889D889F928F927F926F92DF9290
:100F5000CF92BF92AF925701680179018A019B013C
:100F60004FEF5FEF6FEF7FEF0E9405072DB73EB7A2
:100F7000265F3F4F0FB6F8943EBF0FBE2DBFDF91E7
:100F8000CF911F910F91FF90EF90DF90CF90BF9086
:100F9000AF909F908F907F906F9008952F923F9287
:100FA0004F925F926F927F928F929F92AF92BF9279
:100FB000CF92DF92EF92FF920F931F93CF93DF9325
:100FC000CDB7DEB72C970FB6F894DEBF0FBECDBFFE
:100FD00098878F8349875A876B877C8739014701B8
:100FE00058010E9420171B012C016701780104E2BF
:100FF00012E09301AE014F5F5F4FBE016D5F7F4F07
:101000008F8198850E942E329C01181619064CF08B
:10101000892BD1F184E190E0909365038093640380
:1010200033C0823F910590F0D3018C91823071F4EE
:10103000F30184819581A681B78149855A856B85A5
:101040007C8584179507A607B707F1F00E94201743
:101050006B017C01C218D308E408F508D501C4016E
:101060008A5F9040A040B040C816D906EA06FB0649
:1010700048F4C501B4016C197D098E099F096B0103
:101080007C01B5CF20E030E0C9012C960FB6F89472
:10109000DEBF0FBECDBFDF91CF911F910F91FF90AB
:1010A000EF90DF90CF90BF90AF909F908F907F9008
:1010B0006F905F904F903F902F900895CF93DF9364
:1010C000CDB7DEB7A2970FB6F894DEBF0FBECDBF87
:1010D0008C010E949C176D8B7E8B8F8B988F20913B
:1010E00045043091460440914704509148042C87B0
:1010F0003D874E875F87F801078510891C8F0B8F0E
:10110000F80186819927AA27BB27BA2FA92F982FE4
:1011100088272581820F911DA11DB11DBA2FA92FEE
:10112000982F88272481820F911DA11DB11D66244F
:10113000782E892E9A2E8381680E711C811C911C39
:101140001AA219A218A21F8E1E8E1D8E1A8E198E1B
:10115000198A1A8A1B8A1C8A188A70EA272E7FE04D
:10116000372E412C512C3EC080915F03909160033B
:101170000E940F0529A13AA13093600320935F03D9
:101180000CC080915F03909160030E940F0549A1FC
:101190005AA15093600340935F03109363038D89BA
:1011A0009E89AF89B88D898B9A8BAB8BBC8B16C00F
:1011B00080915F03909160030E940F05A9A1BAA1DD
:1011C000B0936003A0935F03109363032D893E895E
:1011D0004F89588D298B3A8B4B8B5C8B1AA219A2A5
:1011E0003F81388B48894423E1F0220C331C441C96
:1011F000551C51E025165AEF350650E0450650E0E3
:10120000550648F48FEF9FEFAFEFBFEF88879987C0
:10121000AA87BB8736C0212C5AEF352E412C512C82
:1012200028C080916303833029F00894611C711CED
:10123000811C911CE0915F03F0916003309799F05D
:10124000818D928DA38DB48D88879987AA87BB875E
:101250000097A105B10539F040EA242E4FE0342E65
:10126000412C512C0EC030EA232E3FE0332E412C6E
:10127000512C2FEF3FEF4FEF5FEF288739874A87D9
:101280005B8780916303882309F481C580916A0399
:1012900090916B03A0916C03B0916D030097A10531
:1012A000B10569F10E9420179B01AC0180916E038A
:1012B00090916F03A0917003B0917103281B390BBB
:1012C0004A0B5B0B80916A0390916B03A0916C03B6
:1012D000B0916D03281739074A075B0718F081E0C2
:1012E00090E08DC0BC01CD01621B730B840B950B8C
:1012F000621573058405950510F41B012C0180917E
:101300006303823021F0863011F0873041F538894F
:101310003323E9F00E949C172D893E894F89588D0F
:10132000621B730B840B950B6050704081409040A2
:1013300028F04FEF5FEF5A8F498F11C00E949C1722
:10134000AD89BE896A1B7B0B7A8F698F08C00E94AA
:101350009C176D8B7E8B8F8B988F1A8E198E809138
:101360006303853011F08823B9F4EF8DF8A130972D
:1013700019F0CF010E9482312D8D3E8D232B19F45F
:1013800018A21F8E52C08D8D9E8D0E94804C18A277
:101390001F8E1E8E1D8E49C080915F039091600349
:1013A000892B51F4EB8DFC8D87819085A185B285C9
:1013B0000097A105B10539F52F8D38A1232B29F010
:1013C0004D8D5E8D452B89F50AC084E490E00E9426
:1013D000EF3198A38F8F8D8D9E8D892B31F484E210
:1013E00092E00E94834C9E8F8D8FAF8DB8A1AB2B66
:1013F00021F0ED8DFE8DEF2B49F482E190E090938A
:1014000065038093640310926303ECCE80EC96E056
:101410009A83898322E030E0AE014F5F5F4F62E044
:1014200070E18F8D98A10E945031D0906303F1E05C
:10143000DF16F9F40894611C711C811C911C8091C9
:10144000490490914A04A0914B04B0914C042C851E
:101450003D854E855F8582239323A423B523009782
:10146000A105B10511F482E001C084E0809363031B
:1014700079C432E0D31609F002C148894F5F4F8327
:101480005889543038F081E090E090936503809360
:10149000640336C48C859D85AE85BF858B839C8314
:1014A000AD83BE83AD8CBE8CACEEB0E0AA0EBB1E8D
:1014B000C98CDA8CEE24FF248701A401930161E03A
:1014C0008D8D9E8D0E9460038C018B819C81AD81EE
:1014D000BE810097A105B10561F024E0AE014D5F2A
:1014E0005F4F62E3C501800F911F0E94D303080F75
:1014F000191FC501800F911F0E94AA02080F191F12
:10150000A1E2B4E0FD0101900020E9F73197EA1B68
:10151000FB0B1E161F0654F42E2FAD016CE0C50107
:10152000800F911F0E94D303080F191F40E452E05F
:1015300069E3C501800F911F0E94AD03080F191FB9
:101540002D8D3E8D4FEF5FEF6FEF7FEF8F8D98A169
:101550000E94D80697FF78C0D3C3E0905F03F09055
:1015600060038D8D9E8D0E9452058C01009709F4B9
:1015700052C0FC018081823021F0C8010E940F0519
:101580004AC0E114F10409F4FCC3209145043091F0
:101590004604409147045091480480914904909139
:1015A0004A04A0914B04B0914C0482239323A423BA
:1015B000B5230097A105B105B9F0F70181819281AA
:1015C000A381B48182179307A407B50709F4DAC38E
:1015D000F80181819281A381B48182179307A407C6
:1015E000B50709F0CFC30FC0F80125A136A147A167
:1015F00050A5F70185A196A1A7A1B0A582179307D1
:10160000A407B50720F4C7010E940F05BAC3C8019B
:101610000E940F05B7C3F0926003E0925F03EF28CA
:1016200099F080916A0390916B03A0916C03B09143
:101630006D03805E9E42A040B040C0F020EA222EA2
:101640002FE0322E412C512C820171012D8D3E8DC7
:10165000B401A3018F8D98A10E94CE07BC0118167A
:1016600019060CF47ACF99230CF44AC380915F03D6
:1016700090916003892B09F476C383E0F7CE23E0D1
:10168000D21609F054C038893F5F3F8348894430FF
:1016900020F081E08093630366C3E0915F03F091E3
:1016A0006003A180B280C380D480898D9A8D9F937E
:1016B0008F93818D928DA38DB48DBF93AF939F93A4
:1016C0008F93EE24FF248701A40193016D8D7E8DFD
:1016D0008F8D98A10E948B07ADB7BEB716960FB637
:1016E000F894BEBF0FBEADBF99230CF409C38201AD
:1016F00071012D8D3E8DB401A3018F8D98A10E94A3
:10170000CE07BC0199230CF4FBC2892B09F42BC32F
:101710008D8D9E8D0E9452059AA389A3009709F48E
:101720005FCDFC011081153009F442CDF3C1F4E026
:10173000DF1609F059C028892F5F2F83243040F02D
:1017400081E0809363031C861D861E861F860BC363
:10175000498D5A8D5F934F931F921F921F921F9234
:10176000AC84BD84CE84DF84EE24FF248701A401F1
:1017700093016D8D7E8D8F8D98A10E948B07ADB7E3
:10178000BEB716960FB6F894BEBF0FBEADBF992375
:101790000CF4B6C2820171012D8D3E8DB401A301FE
:1017A0008F8D98A10E94CE07BC0199230CF4A8C28A
:1017B000892B09F4D8C28D8D9E8D0E9452059AA363
:1017C00089A3009709F40CCDFC011081153009F4B0
:1017D000CBCC163009F0CCC281E0809363031C8629
:1017E0001D861E861F86C4C2F5E0DF1609F04AC0BA
:1017F00088E693E00E944018E0915F03F091600357
:10180000E58CF68C078D10A10E949C1729893A89D6
:101810004B895C89621B730B840B950B6E157F05DE
:101820008007910710F086E021CEE0915F03F091F0
:101830006003E58CF68C078D10A10E949C17298906
:101840003A894B895C89621B730B840B950BE61AF2
:10185000F70A080B190BC801B701683339E8730799
:1018600031E4830730E0930720F067E379E881E40F
:1018700090E028EE33E040E050E00E945B4DAB0189
:10188000BC016CC246E0D41609F0AEC0E0915F0323
:10189000F0916003A1A0B2A0C3A0D4A00E949C17A5
:1018A0007B018C01C201B10128EE33E040E050E041
:1018B0000E949A4D89899A89AB89BC89E81AF90AEC
:1018C0000A0B1B0BAE18BF08C00AD10AA216B3063A
:1018D000C406D506E0F4E0915F03F091600321A017
:1018E00032A043A054A00E949C1729893A894B89B1
:1018F0005C89621B730B840B950B28EE33E040E090
:1019000050E00E945B4D261A370A480A590AE091B6
:101910005F03F0916003E1A0F2A003A114A10E9473
:101920009C1729893A894B895C89621B730B840B4C
:10193000950B6E157F058007910750F5E0915F03C9
:10194000F0916003A180B280C380D480418D528D1C
:10195000638D748D898D9A8D9F938F931F921F92A3
:101960001F921F92DF92CF92BF92AF9284017301B8
:101970002D8D3E8D8F8D98A10E940507ADB7BEB706
:101980001A960FB6F894BEBF0FBEADBF97FF02C048
:1019900087E06CCDB889BF5FBF83820171012D8D57
:1019A0003E8DB401A3018F8D98A10E94CE07BC018A
:1019B00099230CF4A5C1892B09F4D5C18D8D9E8D79
:1019C0000E9452059AA389A3009709F409CCFC014F
:1019D0001081153009F4ECCB163009F0C9C187E04D
:1019E000809363031F82C4C1F7E0DF1609F099C03A
:1019F000E0915F03F0916003E1A0F2A003A114A1C4
:101A00000E949C1729893A894B895C89621B730B58
:101A1000840B950BE61AF70A080B190BE214F30472
:101A200004051505B0F4E0915F03F091600321A077
:101A300032A043A054A00E949C17261A370A480AD5
:101A4000590A89899A89AB89BC89281A390A4A0AAC
:101A50005B0AE0915F03F0916003E1A0F2A003A1B3
:101A600014A10E949C1729893A894B895C89621BC1
:101A7000730B840B950B6E157F058007910718F08B
:101A8000D09263036FC138893F5F3F83E0915F036A
:101A9000F0916003E180F28003811481498D5A8DB9
:101AA0005F934F931F921F921F921F9257016801DD
:101AB000A40193016D8D7E8D8F8D98A10E948B075F
:101AC000ADB7BEB716960FB6F894BEBF0FBEADBF8A
:101AD00099230CF415C1820171012D8D3E8DB40145
:101AE000A3018F8D98A10E94CE07BC0199230CF40D
:101AF00007C1892B09F437C18D8D9E8D0E94520537
:101B00009AA389A3009709F46BCBFC0110811530CF
:101B100009F437CB163009F02BC181E080936303C1
:101B200027C1F8E0DF1609F088C028892F5F2F83CE
:101B30003889343008F0E4C0AD8CBE8C4CEE50E0F7
:101B4000A40EB51EEB8DFC8DE780F0840185128517
:101B5000CC24DD24A401930168E08D8D9E8D0E942C
:101B600060038C01C501800F911F0E94AA02080F1B
:101B7000191FA1E2B4E0FD0101900020E9F73197BF
:101B8000EA1BFB0B51F02E2FAD016CE0C501800F5D
:101B9000911F0E94D303080F191F40E452E069E32C
:101BA000C501800F911F0E94AD03080F191F2D8DD5
:101BB0003E8D488559856A857B858F8D98A10E94C9
:101BC000D80697FF0BC0288539854A855B852F5F2E
:101BD0003F4F4F4F5F4F09F0C6C092C08201710165
:101BE0002D8D3E8DB401A3018F8D98A10E94CE074B
:101BF000BC01009709F4B7C0181619060CF080C094
:101C00008D8D9E8D0E9452059AA389A3009709F499
:101C100077C0DC018C91853009F072C080915F0340
:101C2000909160030E940F05E9A1FAA1F09360036F
:101C3000E0935F031AA219A263C0F9E0DF1609F06E
:101C400076C0E0915F03F0916003309719F4288922
:101C50002F833EC038893F5F3F833130C9F5E18033
:101C6000F28003811481818D928DA38DB48D8B833D
:101C70009C83AD83BE83CC24DD24A401930167E063
:101C80008D8D9E8D0E9460038C018B819C81AD8126
:101C9000BE810097A105B10579F08D8D9E8D84518F
:101CA0009F4F24E0AE014D5F5F4F66E3800F911FB1
:101CB0000E94D303080F191F2D8D3E8D488559852D
:101CC0006A857B858F8D98A10E94D80697FF0BC0EF
:101CD00088859985AA85BB858F5F9F4FAF4FBF4F82
:101CE00009F041C00DC0820171012D8D3E8DB401FE
:101CF000A3018F8D98A10E94CE07BC0197FF03C05E
:101D00001092630330C0892B71F18D8D9E8D0E94DE
:101D100052059AA389A3009709F462CADC018C9149
:101D2000853011F0863021F51092630321C0DD204B
:101D300019F0B889BF8317C080915F039091600349
:101D40000E940F051092600310925F0388E693E0F3
:101D50000E94401840E050E060E070E086E693E0CA
:101D60000E949E181F82E9A1FAA1EF2B09F438CA3C
:101D700089A19AA10E940F05FF81F88B1AA219A2CE
:101D800031CA7801F0926003E0925F034ACC8091FF
:101D90006303E9CAFC01872F99278083618382E06E
:101DA00090E00895FC01DB0120813327322F2227A8
:101DB00011963C932E9381819927282B392B2D93B3
:101DC0003C9382E090E00895EF92FF920F931F936F
:101DD000CF93DF93EC018B01DB018D919C910097F8
:101DE00029F00E941C13F801118210828881807CE6
:101DF000803C19F482E090E02CC0DE010D900020C0
:101E0000E9F77D01EC1AFD0AC7010E94A912FC0145
:101E1000D8018D939C9399919E0113C08D918993C4
:101E20004150E0F7892F9927D901A80FB91FE80F72
:101E3000F91F9C91992311F08EE281939D012F5FF0
:101E40003F4F992321F0492FEF01D901E9CF1082AB
:101E5000C701DF91CF911F910F91FF90EF900895EF
:101E60008F929F92AF92BF92CF92DF92EF92FF92AA
:101E70000F931F93CF93DF93EC016B0149015A013C
:101E80008091720390917303009731F00E941C13AC
:101E900010927303109272038091740390917503F2
:101EA000009731F00E941C13109275031092740376
:101EB000209781F0FE0101900020E9F7CF018C1BF3
:101EC0009D0B0E94A9129093730380937203BE012D
:101ED0000E94544DC114D10481F0F60101900020FC
:101EE000E9F7CF018C199D090E94A91290937503FF
:101EF00080937403B6010E94544D809276039092B1
:101F00007703A0927803B0927903E0927A03F0927B
:101F10007B0300937C0310937D03DF91CF911F918E
:101F20000F91FF90EF90DF90CF90BF90AF909F9078
:101F30008F900895EF92FF920F931F93EE24FF244A
:101F400087010E94300F1F910F91FF90EF9008952D
:101F50002F923F924F925F926F927F928F929F92B9
:101F6000AF92BF92CF92DF92EF92FF920F931F93A7
:101F7000CF93DF93CDB7DEB760970FB6F894DEBF8F
:101F80000FBECDBF9E878D87788B6F87809176033C
:101F900090917703A0917803B09179030097A10500
:101FA000B10569F480917A0390917B03A0917C0341
:101FB000B0917D030097A105B10509F4A2C280E0AC
:101FC00090E00E94EF319A878987892B09F499C2A2
:101FD00080E092E00E94A9124C011C861B866624B8
:101FE000772418861F8222243324AB84BC84950175
:101FF0002F5F3F4F3C872B876114710439F48CE0CD
:1020000090E00E9495133C01892B69F02B853C855B
:10201000F3013183208380E091E09383828381E028
:1020200090E0958384838F819885892B41F486E0A5
:1020300090E00E94951398878F83892B31F1EF816F
:10204000F88580819181009711F00E941C13ED8525
:10205000FE8501900020E9F7CF012D853E85821B8A
:10206000930B0E94A912EF81F885918380836D857F
:102070007E850E94544D2F853889EF81F885338302
:10208000228381E090E095838483F30160817181F4
:10209000C4010E94CA0E8C01F30162817381C401E4
:1020A000800F911F0E94CA0E080F191FF30164814F
:1020B0007581C401800F911F0E94CA0E080F191F5D
:1020C000F30166817781C401800F911F0E94CA0EBF
:1020D000080F191FF30160857185C401800F911FDE
:1020E0000E94CA0E080F191FF30162857385C4018F
:1020F000800F911F0E94CA0E6801C80ED91E74017C
:10210000EC0CFD1CEF81F885A081B181FD010190EF
:102110000020E9F78F01015010400A1B1B0B0E5FD6
:102120001F4F27010894411C511CF7011082970191
:1021300015C0B2016F5F7F4FAD014F5F5F4F8E32B1
:1021400029F4F2011082DA01920107C0F2018083C2
:10215000DA01F90180818F5F80832B018C918823C4
:1021600041F7F2011082EF81F88562817381C70126
:10217000800F911F0E94CA0E080F191FEF81F8856A
:1021800064817581C701800F911F0E94CA0E78017A
:10219000E80EF91EEC0CFD1CA0FE0DC040917A0368
:1021A00050917B0360917C0370917D034115510533
:1021B0006105710541F44091760350917703609178
:1021C000780370917903840125E330E089859A854D
:1021D0000E94AE3197FD38C168EEC62E63E0D62E60
:1021E000E12CF12C00E012E09401AE014F5F5F4F53
:1021F000BE016D5F7F4F89859A850E942E32181629
:1022000019060CF01BC10D973CF3B301C4010E94E9
:10221000D20E8C01B3016E5F7F4FC401800F911FFE
:102220000E94D20E080F191FB3016C5F7F4FC401CB
:10223000800F911F0E94D20E080F191FB3016A5F11
:102240007F4FC401800F911F0E94D20E080F191FEB
:10225000B301685F7F4FC401800F911F0E94D20EAF
:10226000080F191FB301665F7F4FC401800F911FD4
:102270000E94D20E5801A80EB91EF30180819181EF
:102280002B853C858217930709F0A6CFA114B104D2
:1022900009F4D4C084819581019709F0CFC08401ED
:1022A0000A0D1B1D6F817885C8010E94E40E7C0118
:1022B0006F8178856E5F7F4FC8018E0D9F1D0E94D4
:1022C000D20E6701C80ED91E6F8178856C5F7F4F73
:1022D000C8018C0D9D1D0E94D20E7C01F3018681E8
:1022E0009781892B09F4B0C026014E0C5F1C4A0C63
:1022F0005B1C51E0A52EB12C95C02114310429F4AA
:102300008EE090E00E9495131C017401E40CF51C12
:10231000B101C7010E94E40E8C01B1016E5F7F4FD5
:10232000C701800F911F0E94D20E080F191FB10123
:102330006C5F7F4FC701800F911F0E94D20E080F64
:10234000191F9701200F311FF9018191BF019927B2
:10235000AA27BB27BA2FA92F982F8827F101868398
:102360009783A087B187F901218133274427552717
:10237000822B932BA42BB52BBA2FA92F982F88270C
:10238000F10186839783A087B187FB0121813327E1
:1023900044275527822B932BA42BB52BBA2FA92F7B
:1023A000982F8827F10186839783A087B187FB0147
:1023B0002281332744275527822B932BA42BB52B1F
:1023C000F10186839783A087B1870C5F1F4FB1010E
:1023D000665F7F4FC701800F911F0E94D20E080FCA
:1023E000191FF101C284D38484859585009711F06B
:1023F0000E941C13C6010E94A912F10195878487CF
:10240000E00EF11EA601B7010E943A4DF101828152
:102410009381019771F0C00ED11E4C0C5D1C089485
:10242000A11CB11CF301868197818A159B050CF0D4
:1024300064CFF101828593850497D1F12B853C858A
:102440002630310509F0D1CDEE24FF248701611437
:10245000710419F0C3010E941C138F8198850097A5
:1024600059F0FC0180819181009711F00E941C13AA
:102470008F8198850E941C132114310489F0F10189
:1024800080819181009711F00E941C13F1018485D5
:102490009585009711F00E941C13C1010E941C1326
:1024A000C4010E941C1389859A850E9482312CC028
:1024B000F10164857585FB01208181819927AA2717
:1024C000BB27EE24F82E092F1A2FE20EF11C011D56
:1024D000111D2381332744275527522F44273327A3
:1024E000222782819927AA27BB27DC0199278827E1
:1024F000280F391F4A1F5B1FE20EF31E041F151F12
:10250000A6CFEE24FF248701C801B70160960FB65D
:10251000F894DEBF0FBECDBFDF91CF911F910F9119
:10252000FF90EF90DF90CF90BF90AF909F908F90F3
:102530007F906F905F904F903F902F9008956FE045
:1025400070E00E94A80F089561E070E00E94A80F5B
:1025500008950F931F93CF93DF9300917E03109103
:102560007F038017910730F080E090E060C0EF01BA
:10257000DB012FC0AC014A5F5F4F4430510510F4BE
:1025800044E050E0E0910E04F0910F046EE074E03E
:10259000C0E0D0E0A0E0B0E017C020813181241776
:1025A000350760F02417350711F3209729F088814B
:1025B00099812817390710F4EF01DB01BF016E5F25
:1025C0007F4F0280F381E02D309739F7CE012097BD
:1025D00071F128813981CA010A966A817B8182174B
:1025E000930770F4FE01E40FF51F241B350B3183B4
:1025F00020837383628359834883ED93FC9302C0E5
:102600006D937C93E881F9810E1B1F0B10937F0360
:1026100000937E03EC0FFD1F34978FEE9EEBADEA27
:10262000BEED80839183A283B383CE010296DF91B6
:10263000CF911F910F910895CF93DF93DC011297F3
:102640006D917C911197E0910E04F0910F04CEE012
:10265000D4E03AC040815181CF01840F951F8A1781
:102660009B07C1F49A01260F371F31832083828193
:102670009381DF01A20FB31FA817B90791F58D91C0
:102680009C911197280F391F31832083ED018A8196
:102690009B8125C0AE17BF0778F4B983A8832D911D
:1026A0003C911197CD01820F931F8E179F0779F0F0
:1026B000ED01FB83EA8315C0A817B90728F1EF01E4
:1026C00022960280F381E02D309721F617C0240F67
:1026D000351F11963C932E9382819381FD01938344
:1026E000828380917E0390917F03860F971F909342
:1026F0007F0380937E0380E090E008C0FD01138299
:102700001282B983A883EDCF8FEF9FEFDF91CF9136
:102710000895FC0161937193CF010E941C130895E9
:1027200080917E0390917F0308950F931F93CF9321
:10273000DF938C010E94A912EC01009729F0A801F7
:1027400060E070E00E94434DCE01DF91CF911F9178
:102750000F910895CF93DF93DC019B01EC01788FFB
:102760006F8B1D821C820FB6F8940F92EB01E881EB
:10277000F9818FEFEF3FF80749F4ED018C819D81DE
:1027800001969D838C83E0E0F0E015C0309799F0CE
:102790000F900FBEED019A8908C09F012E5F3F4F39
:1027A0000280F381E02D309719F082899817A8F7FD
:1027B0000FB6F8940F92ED01FB83EA83F901B18320
:1027C000A083EA81FB81309771F084819581892B08
:1027D00051F08C819D8124813581820F931F9D83CF
:1027E0008C83158214820F900FBEDF91CF910895D4
:1027F000CF93DF939C01DB010FB6F8940F92ED911C
:10280000FC9111970F900FBE8FEFEF3FF80731F556
:1028100027C082819381E217F307E9F40FB6F89499
:102820000F9211969C938E9384819581892B59F0F8
:10283000A281B381109729F084819581ED019D8358
:102840008C83158214820F900FBEF90113821282BD
:10285000108E178A05C0DF011296FC013097C9F669
:10286000DF91CF910895FB01168A158A82E0878750
:1028700062E174E0CF010E94AA1308950F931F93A1
:10288000CF93DF938C01C0911004D09111040CC040
:10289000B801CE0106960E944A4D892B11F4CE0153
:1028A00007C00990D881C02D209791F780E090E073
:1028B000DF91CF911F910F910895E0911604F0914F
:1028C0001704309741F0838994890E941C13109259
:1028D0001704109216040895CF93DF93C09110044B
:1028E000D09111040E945D142091140430911504BC
:1028F000E0E1F4E00AC088819981C217D30719F496
:102900009183808304C0FE01EC012097A1F78091A0
:102910001404909115049093170480931604DF918A
:10292000CF9108950F931F93182FE0911404F09105
:102930001504028962E174E0CF010E94F813E0916E
:102940001404F0911504128B1F3F49F062E174E00A
:1029500080911404909115040E94AA1302C00E9451
:102960006C14E0911404F09115048091120490917C
:102970001304E817F90719F481E0878709C082E09A
:1029800087870FB6F8940F920E949D190F900FBE83
:10299000802F99271F910F9108958FEF0E94921415
:1029A0000895CF93DF93C0911004D091110420C0FB
:1029B0000FB6F8940F928C819D810F900FBE892BDA
:1029C000A1F0EF89F88D0FB6F8940F928C819D815C
:1029D00001979D838C830F900FBE808191818F5FC3
:1029E0009F4F19F0CF010E94BC170990D881C02DCC
:1029F0002097F1F60E949416E0911404F0911504CA
:102A00008091120490911304E817F90761F087850B
:102A1000813011F482E087870FB6F8940F920E94FC
:102A20009D190F900FBEDF91CF910895E09114048E
:102A3000F091150482819381892B69F062E174E041
:102A4000CF010E94F81362E174E080911404909128
:102A500015040E94AA130E94D114089580911A04AB
:102A600090911B04A0911C04B0911D040196A11D1E
:102A7000B11D80931A0490931B04A0931C04B0937F
:102A80001D040895CF93DF93EC011B821A82E0911D
:102A90001804F09119041AC0288539854A855B8588
:102AA00080859185A285B385281739074A075B077A
:102AB00080F0281B390B4A0B5B0B288739874A8724
:102AC0005B87FB83EA830190F081E02D309721F74B
:102AD00018C0821B930BA40BB50B80879187A2872C
:102AE000B387F983E883D383C283EA81FB8130977C
:102AF00019F0D183C08308C0D0931904C09318047F
:102B000003C019821882F1CFDF91CF9108950FB6DB
:102B1000F8940F9260911A0470911B0480911C0428
:102B200090911D040F900FBE0895CF93DF93EC0199
:102B3000EA81FB8188819981309719F091838083A4
:102B400004C09093190480931804E881F9813097A8
:102B5000A1F08A819B819383828380859185A28560
:102B6000B385288539854A855B85820F931FA41F0D
:102B7000B51F80879187A287B387CE010E941C135F
:102B8000DF91CF910895AF92BF92CF92DF92EF92F3
:102B9000FF920F93CF93DF936B017C01EA01590100
:102BA00080E190E00E94A912FC01892B81F10FB60F
:102BB000F8940F9280911A0490911B04A0911C0428
:102BC000B0911D040F900FBE8C0D9D1DAE1DBF1D3D
:102BD00020918003309181034091820350918303BF
:102BE000821B930BA40BB50B80879187A287B387B9
:102BF00000FF05C0148215821682178204C0C482A9
:102C0000D582E682F782D587C487B786A686CF01AC
:102C1000DF91CF910F91FF90EF90DF90CF90BF9019
:102C2000AF9008950F93CF93DF930E94C315EC01EB
:102C3000009711F00E944215CE01DF91CF910F91C4
:102C40000895CF92DF92EF92FF920F936A0179017C
:102C50000E94C61A9701A6010E9412160F91FF90BA
:102C6000EF90DF90CF900895AF92BF92CF92DF9216
:102C7000EF92FF920F93CF93DF935B016C0161158D
:102C8000710581059105D1F1C2E1D4E0BE018091C9
:102C90001404909115040E94F813E0911404F0912B
:102CA000150483E08787E0901404F090150401E098
:102CB000970143E354E1C601B5010E942116F701D3
:102CC000968B858B892B19F00E94D11419C0E09145
:102CD0001404F0911504D08FC78B80911204909149
:102CE00013049383828381E08787809114049091F9
:102CF0001504909313048093120402C00E941615C9
:102D0000DF91CF910F91FF90EF90DF90CF90BF9028
:102D1000AF9008958EE295E10E94A11AE0E7F0E0FD
:102D20008081826080830895EF92FF920F931F93BA
:102D3000CF93DF930FB6F8940F9220911A0430913D
:102D40001B0440911C0450911D040F900FBE8091F4
:102D5000800390918103A0918203B0918303790154
:102D60008A01E81AF90A0A0B1B0B2093800330939F
:102D7000810340938203509383034FC088859985D4
:102D8000AA85BB85E816F9060A071B07A0F48E1969
:102D90009F09A00BB10B88879987AA87BB870097EB
:102DA000A105B10521F0EE24FF24870136C0EE24F1
:102DB000FF24870108C0E81AF90A0A0B1B0B1886C2
:102DC00019861A861B86EC85FD85309721F06E8565
:102DD0007F85CE0119958C819D81AE81BF818887C9
:102DE0009987AA87BB870097A105B10521F4CE0179
:102DF0000E94951512C0E0911804F09119040190F9
:102E0000F081E02DF0931904E0931804309711F04D
:102E100013821282CE010E944215C0911804D091F3
:102E20001904209731F0E114F1040105110509F0AE
:102E3000A5CFDF91CF911F910F91FF90EF90089553
:102E40002F923F924F925F926F927F928F929F92BA
:102E5000AF92BF92CF92DF92EF92FF920F931F93A8
:102E6000CF93DF93CDB7DEB724970FB6F894DEBFCC
:102E70000FBECDBF0FB6F8940F92A0901A04B09079
:102E80001B04C0901C04D0901D040F900FBE0E9424
:102E90009C1A9B01AC01C601B5010E949A4D3901F3
:102EA0004A010E949C1A1B012C010E949C1A6983F2
:102EB0007A838B839C83C401B30128EE33E040E026
:102EC00050E00E945B4D7B018C01C401B301A20163
:102ED00091010E945B4DA61AB70AC80AD90AC60119
:102EE000B50128EE33E040E050E00E945B4D2981BF
:102EF0003A814B815C810E949A4DE20EF31E041FC1
:102F0000151FC801B70124960FB6F894DEBF0FBE97
:102F1000CDBFDF91CF911F910F91FF90EF90DF9088
:102F2000CF90BF90AF909F908F907F906F905F9069
:102F30004F903F902F900895EF92FF920F931F9321
:102F40000FB6F8940F92E0901A04F0901B040091D1
:102F50001C0410911D040F900FBE0E949C1A9B012F
:102F6000AC01C801B7010E949A4DCA01B9011F9175
:102F70000F91FF90EF900895CF93DF93DC010FB690
:102F8000F8940F92CD91DC9111970F900FBE8FEFB7
:102F9000CF3FD80709F43AC0209771F10FB6F894E3
:102FA0000F92EA81FB811196FC93EE938C819D81B7
:102FB000892B71F0309729F08C819D8195838483D2
:102FC00005C08FEF9FEF11969C938E931D821C82FC
:102FD0000F900FBE8D899E89009721F00E94951554
:102FE0001E8A1D8A82E08F8762E174E0CE010E9412
:102FF000AA1381E090E00CC00FB6F8940F928FEF07
:103000009FEF11969C938E930F900FBE80E090E0FF
:10301000DF91CF9108950F931F93CF93DF93EC012E
:103020000FB6F8940F92888199810F900FBE2FEF01
:103030008F3F920741F40FB6F8940F9219821882CD
:103040000F900FBE02C0892B19F400E010E012C0EF
:1030500000E010E0CE010E94BC17080F191F0FB648
:10306000F8940F92888199810F900FBE01978E5F1F
:103070009F4F80F3C801DF91CF911F910F91089569
:103080000F931F930E940B188C010E941615C80104
:103090001F910F9108950F931F930E94BC178C01ED
:1030A0000E941615C8011F910F910895CF93DF93C9
:1030B000AC01DB010FB6F8940F92CD91DC91119722
:1030C0000F900FBE8FEFCF3FD80799F534C08D8991
:1030D0009E892A813B818417950741F50FB6F894A4
:1030E0000F9211963C932E938C819D81892B81F0B8
:1030F000EA81FB81309729F08C819D8195838483BF
:1031000005C08FEF9FEF11969C938E931D821C82BA
:103110000F900FBE82E08F8762E174E0CE010E94C3
:10312000AA138FEF9FEF9E8B8D8B05C0DE01129649
:10313000E901209761F6DF91CF910895AF92BF9298
:10314000CF92DF92EF92FF920F93CF93DF93EC0138
:103150005A016B010FB6F8940F92888199810F90F4
:103160000FBE8F5F9F4F51F40FB6F8940F921982E4
:1031700018820F900FBE0E94161538C062E174E0ED
:1031800080911404909115040E94F813BE0180915F
:103190001404909115040E94AA13E0911404F09174
:1031A000150483E08787E0901404F0901504A114BF
:1031B000B104C104D10461F001E09E0146E558E18B
:1031C000C601B5010E942116F701968B858B03C0BD
:1031D000F701168A158A0E94D114E0911404F09127
:1031E0001504858996898F5F9F4F19F080E090E0E4
:1031F00004C0168A158A8FEF9FEFDF91CF910F9150
:10320000FF90EF90DF90CF90BF90AF900895FC01BA
:103210000FB6F8940F92808191818F5F9F4F11F4C8
:10322000118210820F900FBECF010E949E18089548
:103230000F931F93CF93DF938C01C0918403D091A0
:1032400085030AC0B801CE0102960E944A4D892B1F
:1032500029F00990D881C02D2097A1F7CE01DF91E8
:10326000CF911F910F910895CF93DF93EC01892B9C
:1032700011F16115710511F07D876C8741114E8741
:10328000CE0102960E941819892BA9F4EB89FC89BA
:10329000309721F0CE011995892B69F48091840330
:1032A0009091850399838883D0938503C093840389
:1032B00080E090E002C08FEF9FEFDF91CF91089503
:1032C00083E180931E048FE480931F0483E5809341
:1032D000200443E150E06EE174E080E090E00E9461
:1032E000BF2B892B19F08FEF9FEF089580E090E0BE
:1032F000089543E150E06EE174E080E090E00E94C8
:10330000C22B892B79F480911E04833159F480916A
:103310001F048F3439F480912004833519F480E040
:1033200090E008958FEF9FEF08959F918F910F90F8
:103330000BBE0F900FBE1F9018952F923F924F9289
:103340005F926F927F928F929F92AF92BF92CF9235
:10335000DF92EF92FF920F931F93CF93DF938DB77E
:103360009EB7E0911404F0911504918B808BE0914D
:103370001204F0911304F0931504E093140481E017
:103380008787E0911404F0911504808991898DBF9D
:103390009EBFDF91CF911F910F91FF90EF90DF9033
:1033A000CF90BF90AF909F908F907F906F905F90E5
:1033B0004F903F902F900895AF92BF92CF92DF929F
:1033C000EF92FF920F931F93CF93DF937C016B01DA
:1033D0005A01E901C90149960E94A912BC0100974E
:1033E00019F480E090E07CC08C010C0F1D1FE801F7
:1033F0002897A8014D515040C801069628E0D701F2
:103400000D907D01FC010192CF012150C1F7F8011F
:10341000168641505040518B408B4F5F5F4F748BED
:10342000638B8FEE9EEBADEABEEDFB018083918353
:10343000A283B38384839583A683B7838087918790
:10344000A287B38784879587A687B78780E4F8012A
:10345000828B1D828D2D99278E83CF8280E88B836E
:103460001A821C82A9828B2D99278883FA01128ADD
:1034700025E939E1832F9927838B248B80911004D0
:1034800090911104D8018D939C9310931104009393
:10349000100482E0F82EF801F786168A158A108E3D
:1034A000178A62E174E0C8010E94AA13E091140433
:1034B000F0911504309721F40FB6F8940F9257CF7E
:1034C0008091120490911304E817F90741F0F786F0
:1034D0000FB6F8940F920E949D190F900FBEC8016D
:1034E000DF91CF911F910F91FF90EF90DF90CF90E0
:1034F000BF90AF9008951F93182F6091860370912D
:103500008703809188039091890320EA3FE040E09F
:1035100050E00E949A4D822F932F0197F1F71A9550
:10352000D1F71F9108956091860370918703809170
:1035300088039091890308956AEE73E080E090E03B
:10354000089520E030E041EE50E020938603309370
:1035500087034093880350938903E0E7F0E02081DC
:103560002D7F20831092B20032E03093B00025E02E
:103570002093B10022E72093B30035BB40E050E038
:10358000BC0182E592E00E942B2508952AEE33E0EB
:1035900040E050E00E945B4D28EE33E040E050E018
:1035A0000E949A4D211531054105510521F421E074
:1035B00030E040E050E0CA01B90108959C01FB01F0
:1035C00080917000482F5527427050708091700094
:1035D0008D7F8093700020313105D9F02131310584
:1035E0003CF42115310581F02130310551F40EC034
:1035F0002231310579F122313105DCF020323105FB
:10360000D9F02FEF3FEF1EC040E050E082E087BBD3
:1036100017C0B99B05C081E090E09183808302C010
:1036200011821082452BB1F0808191818068918355
:10363000808320E030E008C088E090E091838083C0
:1036400020E030E0452B41F0809170008260809353
:10365000700002C020E030E0C90108951F920F926F
:103660000FB60F9211242F933F934F935F936F9355
:103670007F938F939F93AF93BF93EF93FF9382E5D5
:1036800092E00E941D25FF91EF91BF91AF919F9114
:103690008F917F916F915F914F913F912F910F90FB
:1036A0000FBE0F901F901895CF93DF93DC01EC01B4
:1036B000EA81FB8120918B03422F5527CA01807339
:1036C0009070892B99F044FF05C083E18093C60078
:1036D000206404C081E18093C6002F7B20938B037C
:1036E00080918B038F7C80938B0358C027FF06C08B
:1036F0008091C1008F7D8093C10050C0ED018A850B
:103700009B85892B89F18A859B8501979B878A8771
:1037100080918C03882321F08091C100816003C0D7
:103720008091C1008E7F8093C10081918093C600FB
:103730009F01FD01868197812817390711F42481A3
:103740003581ED013B832A832A853B858C859D85C8
:103750002817390719F5E889F989309789F08FEF2B
:10376000EF3FF807D9F015C08091C1008F7D80939D
:10377000C100ED011B861A86E889F989309729F482
:103780008FEF9FEF998B888B09C08FEFEF3FF80782
:1037900029F084819581019695838483DF91CF916F
:1037A0000895CF93DF93DC013091C00080918A03AC
:1037B000382B30938A036091C60020918B0322231B
:1037C000A1F0633139F48091C1008F7D8093C100F5
:1037D000206808C0613149F48091C1008062809303
:1037E000C1002F7720938B0354C0ED014A855B8580
:1037F000888599854817590720F0386030938A03E7
:1038000048C04F5F5F4F41305105A1F4ED01E88999
:10381000F989309729F48FEF9FEF998B888B21C01E
:103820008FEFEF3FF807E9F084819581019695834A
:10383000848317C02223A9F0ED018E859F85481748
:10384000590778F026FD0DC08091C00085FF06C0A5
:1038500083E18093C60020642F7D01C02062209305
:103860008B03ED91FC91119761931196FC93EE936C
:103870002D913C911197FD01868197812817390779
:1038800029F48481958111969C938E93ED015B8739
:103890004A87DF91CF9108958091C10082FF03C0D4
:1038A00089E090E008958091C20082FF0AC0809173
:1038B000C20081FF03C088E090E0089587E090E0B7
:1038C00008958091C20081FF03C086E090E00895D2
:1038D00085E090E008958091C20085FD03C080E0FE
:1038E00090E008958091C20084FF03C081E090E0E1
:1038F000089582E090E008958091C20083FF03C0A4
:1039000082E090E0089581E090E0089580918A033C
:10391000682F7727CB0124E0969587952A95E1F7C4
:103920009C0144275527217030704070507063FD12
:10393000226062FD246080918B03882321F086FD44
:10394000426087FD486041FF416043FF44608091D1
:103950008C03882311F0406401C040688091C0004E
:1039600080FF04C0CA01B90180610895CA01B9018C
:1039700080620895EF92FF920F931F937B018C0159
:1039800080918B038823D9F00FB6F8940F9200FF33
:1039900002C08F7B03C001FF03C0806480938B0350
:1039A00002FF04C080918B038F7705C003FF05C021
:1039B00080918B03806880938B030F900FBE06FF6E
:1039C00003C081E080938C0307FF02C010928C0338
:1039D00004FF05C08091C00081608093C00005FF96
:1039E00005C08091C0008E7F8093C000E0FE05C0BE
:1039F00080918A038F7E80938A03E1FE05C08091C7
:103A00008A03877F80938A03E2FE05C080918A0340
:103A10008B7F80938A030E94861C687F6E157F05CA
:103A20008007910719F08FEF9FEF02C080E090E0D0
:103A30001F910F91FF90EF9008958091C20086FF33
:103A40000BC06A9B02C093E001C091E08091C2006C
:103A500080FF09C0946007C08091C00081FF02C050
:103A600090E201C090E0892F9927089580918B03FF
:103A7000882329F060E270E080E090E0089560E043
:103A800070E080E090E00895E1ECF0E080818062F9
:103A90008083089590918B039923C1F096FF16C0FF
:103AA0000FB6F8940F928091C00085FF05C081E1A8
:103AB0008093C6009F7E01C0906190938B0380919C
:103AC0008B038F7980938B030F900FBE08950F9314
:103AD0001F930FB6F8940F9201EC10E0F80180816B
:103AE0008F77808380818F7B808380818F7D8083AF
:103AF0000F900FBE8AE00E947B1AF80180818F7EB2
:103B000080838081877F80831F910F9108951F9309
:103B1000182F0E94671D8091C1008B7F8093C10088
:103B20008091C2008D7F8093C2008091C2008B7F04
:103B30008093C2001730C1F0183018F41630C9F461
:103B400005C0183061F01930A1F404C08091C200A2
:103B500082600DC08091C10084608093C10080911B
:103B6000C20082608093C2008091C2008460809312
:103B7000C2000FB6F8940F9288EB8093C1000F90AB
:103B80000FBE0E944C1C811719F08FEF9FEF02C0EF
:103B900080E090E01F9108958F929F92AF92BF9224
:103BA000CF92DF92EF92FF920F931F938090C40009
:103BB0009090C5008091C20086FF06C072E0A72EDB
:103BC000B12CC12CD12C0FC08091C00081FF06C048
:103BD00068E0A62EB12CC12CD12C05C050E1A52E39
:103BE000B12CC12CD12C0E94931A7B018C01282D61
:103BF0003327892D9927982F8827282B392B44275D
:103C000055272F5F3F4F4F4F5F4FC601B5010E94B1
:103C10005B4D9B01AC01C801B7010E949A4DCA01DE
:103C2000B9011F910F91FF90EF90DF90CF90BF905F
:103C3000AF909F908F90089540E050E060E070E07A
:103C400089E293E00E942B2540E050E060E070E0C4
:103C50008FE293E00E942B2580E090E008954DE9EB
:103C600052E061ED7BE189E293E00E942B25892BF4
:103C700019F08FEF9FEF08954BE852E064E57BE188
:103C80008FE293E00E942B25892B19F480E090E0CD
:103C9000089540E050E060E070E089E293E00E9427
:103CA0002B258FEF9FEF0895EF92FF920F931F93B5
:103CB0007B018C010E94671D8091C20086FD13C0AC
:103CC0008091C00081FF08C0B2E0EE0CFF1C001F15
:103CD000111FBA95D1F707C0A3E0EE0CFF1C001F1F
:103CE000111FAA95D1F70E94931AA80197010E946B
:103CF0009A4D2F5F3F4F4F4F5F4F569547953795E2
:103D00002795215030402093C400232F3327209340
:103D1000C5000FB6F8940F9288EB8093C1000F9006
:103D20000FBE80E090E01F910F91FF90EF900895FB
:103D30001F93182F0E94671D812F992780FF1BC09A
:103D400081FF02C06A9A01C06A9882FF04C0809114
:103D5000C200816003C08091C2008E7F8093C20048
:103D60008091C0008D7F8093C0008091C0008064EE
:103D70008093C00015C085FF04C08091C0008260A0
:103D800003C08091C0008D7F8093C0008091C200ED
:103D90008E7F8093C2008091C2008F7B8093C2008F
:103DA0000FB6F8940F9288EB8093C1000F900FBE6E
:103DB0000E941D1D811719F08FEF9FEF02C080E058
:103DC00090E01F9108951F93182F0E94671D1130D6
:103DD00071F0113018F01230C1F40DC08091C200A2
:103DE0008F7E8093C2008091C2008F7D0CC0809135
:103DF000C200806103C08091C2008F7E8093C200A8
:103E00008091C20080628093C2000FB6F8940F9236
:103E100088EB8093C1000F900FBE0E946B1C81172E
:103E200019F08FEF9FEF02C080E090E01F9108959E
:103E30001F93182F0E94671D113021F48091C2003A
:103E4000877F05C0123029F48091C200886080937A
:103E5000C2000FB6F8940F9288EB8093C1000F90C8
:103E60000FBE8091C20083FF03C082E090E002C0D9
:103E700081E090E0181719F08FEF9FEF02C080E00B
:103E800090E01F910895EF92FF920F931F937B0193
:103E90008C0165FF11C080918B03882341F40FB61C
:103EA000F8940F9281E480938B030F900FBE20E271
:103EB00030E040E050E00BC00FB6F8940F92109243
:103EC0008B030F900FBE20E030E040E050E02E1555
:103ED0003F054007510719F08FEF9FEF02C080E0C8
:103EE00090E01F910F91FF90EF900895E82F83E0ED
:103EF00080930EC0809108C08A7F982F986020E040
:103F0000782F7960582F5D60709308C0509308C077
:103F10002F5F2132C9F7909308C0492F4460409326
:103F200008C0709308C0509308C0662349F090936E
:103F300008C0409308C0709308C0509308C008C0E0
:103F4000709308C0509308C0909308C0409308C075
:103F500080E0909308C0409308C08F5F8530C9F718
:103F600060E120E030E08E2F862329F0709308C0B6
:103F7000509308C004C0909308C0409308C0669551
:103F80002F5F3F4F2530310571F7909308C0892F7F
:103F90009927089560E00E94761F482F477F40933D
:103FA00008C0642F6460609308C020E030E050E0F7
:103FB000409308C0609308C0220F331F809108C04F
:103FC00099279695879581709070282B392B5F5F84
:103FD000503171F7409308C0C9010895CF93DF9322
:103FE000EB0161E00E94761F282FF82FF160F0931B
:103FF00008C0E82FE560E09308C0809308C0382F20
:104000003460309308C060E070E840E050E0CE01DA
:1040100086239723892B29F0F09308C0E09308C0EA
:1040200004C0209308C0309308C0769567954F5F11
:104030005F4F4031510559F7277F209308C0DF912A
:10404000CF910895CF93DF93FC01C189D2898C85EC
:104050009D85AE85BF850196A11DB11D8C879D876D
:10406000AE87BF8792E090930EC040910DC0109232
:104070000DC080910CC08423282F332722FF05C058
:1040800084E080930CC04B7F14C021FF12C01092BB
:104090000EC0809100C08160809300C0809100C0FC
:1040A000109201C090930EC090930CC080EA809350
:1040B00000C024FF18C080E180930CC088819981E2
:1040C000892B29F48FEF9FEF998388830CC0888117
:1040D00099818F5F9F4F39F0E881F98184819581C3
:1040E00001969583848326FF18C080E480930CC0DA
:1040F00088819981892B29F48FEF9FEF9983888399
:104100000CC0888199818F5F9F4F39F0E881F981D8
:104110008481958101969583848320FF19C081E075
:1041200080930CC04E7F88819981892B29F48FEF71
:104130009FEF998388830CC0888199818F5F9F4FFF
:1041400039F0E881F9818481958101969583848392
:1041500023FF17C0477FE0918F03F09190033097C2
:1041600039F48FEF9FEF9093900380938F0309C0F2
:104170005FEFEF3FF50729F08481958101969583E4
:10418000848340930DC0DF91CF910895FC016115A8
:10419000710569F09B0121503040832F9927982F9A
:1041A0008191809308C02150D8F79150C8F70895A5
:1041B000CF93DF93EC01ED98E989FA8980E21192BF
:1041C0008A95E9F7AE0162E270E283E293E00E9431
:1041D0002B25892B19F08FEF9FEF0BC020E832E0E1
:1041E000AE0164E172E284ED92E00E94DC1980E0AD
:1041F00090E0DF91CF910895CF93DF93EC0107C05A
:10420000809100C080FF09C081E00E947B1A219745
:104210008FEFCF3FD807A1F705C0CD2B19F48FEF53
:104220009FEF02C080E090E0DF91CF910895CF92A0
:10423000DF92EF92FF920F931F93CF93DF93EC01E6
:104240008B014091FC025091FD026091FE02709141
:10425000FF028DE893E00E949E18892B09F0CCC0E4
:10426000C988DA88F801C185D28585859685C80F09
:10427000D91F81899289C80FD91FF5E0CD3DDF078D
:1042800008F0B3C0F0900DC010920DC082E0809392
:104290000EC080E2809300C084E690E00E94FC2083
:1042A000892B09F0A2C088E0F82AF0920DC026966A
:1042B000F80185819681C80FD91FC0FD02C0EE2488
:1042C0002DC0219691E0E92E29C04DE750E060E035
:1042D00070E08FE893E00E949E18892BF9F080E44B
:1042E000809300C088EE93E00E94FC2080E28093DF
:1042F00000C084E690E00E94FC20892B21F480918C
:104300000CC083FD0BC04DE750E060E070E08FE82B
:1043100093E00E949E18892B09F067C080910CC021
:1043200083FFD3CFF0900DC010920DC0809103C0D9
:10433000809302C0109206C080E4809307C0109260
:1043400008C0109208C0C09308C08D2F9927809391
:1043500009C0F80165817681838194810E94C6201D
:10436000F80161857285878190850E94C620F801D9
:1043700065857685838594850E94C620F8016189CC
:104380007289878590890E94C620EE2011F01092D4
:1043900008C0109208C0109209C084E690E00E9404
:1043A000FC20892B11F580EC809300C0F6E0FF2AF9
:1043B000F0920DC0F60180859185A285B3850196A6
:1043C000A11DB11D80879187A287B38788E893E1FB
:1043D000A0E0B0E08093FC029093FD02A093FE0267
:1043E000B093FF02C0E0D0E002C0CFEFDFEF8DE876
:1043F00093E00E944B180EC084EF91E0A0E0B0E083
:104400008093FC029093FD02A093FE02B093FF0202
:10441000CFEFDFEFCE01DF91CF911F910F91FF9092
:10442000EF90DF90CF9008954C01EC01AF84B888F5
:10443000C988DA88F50181819281A381B4810197CD
:10444000A109B1098E5F9F4FAF4FBF4F38F06FE3A7
:1044500070E080E090E00E943416ECCF7501089483
:10446000E11CF11C10920DC010920EC0109204C0FD
:1044700080E8809305C011E010930EC0109200C038
:10448000809301C08AE00E947B1A10920EC01092A5
:1044900004C0109205C0109200C0109201C0109389
:1044A0000EC010920CC088E080930DC082E0809313
:1044B0000EC080E4809300C088EE93E00E94FC2050
:1044C000892B09F075C0EEC06FE370E080E090E0EA
:1044D0000E94341680E00E94CA1F97FF06C0C430B5
:1044E000D10509F465C02196EFCF82E10E94CA1F71
:1044F00060EC7FE383E10E94EE1F10920EC080E12A
:1045000080930AC088E080930BC061EE71E084E084
:104510000E94EE1F6FE370E080E090E00E9434168E
:10452000C0E0D0E0CE018F779070892B59F460E025
:1045300072E180E00E94EE1F6FE370E080E090E0A7
:104540000E94341681E00E94CA1F85FDC5C06FE33A
:1045500070E080E090E00E943416219624E0C030A4
:10456000D20731F1DFCFF701EA0FFB1F8081AC5F8B
:10457000BF438C93A350B04CA630B105A1F782E0A5
:1045800080930EC081E580930DC080916A008460A5
:1045900080936A0080916A00886080936A00ED9A37
:1045A0008DE893E00E944B1889E00E94921407C0A6
:1045B00068EE73E080E090E00E9434164FCF40ED4B
:1045C00057E060E070E0C6010E949E18F0900DC0B8
:1045D00010920DC013C0E6018C819D81AE81BF8118
:1045E0000196A11DB11DF60184839583A683B7832F
:1045F000E501EB8DFC8DBA01C401199582E0809331
:104600000EC0809104C0909105C097FD46C01092E5
:1046100006C080EE809307C000000000000000008C
:10462000809108C0909109C0C09108C0D09109C084
:1046300080709C7A892B09F059C0CE018254904039
:10464000835B954008F052C08E0103501040A801D2
:1046500060E180E090E00E94622AAC01009709F4DA
:1046600041C0FC0183819481012B71F0FC019E010A
:1046700024503040832F9927982F809108C0819330
:104680002150D8F79150C8F780E8809300C0FFEF21
:104690004F3F5F0709F09FCFB1CF21E4F22AF0929C
:1046A0000DC08DCF83E080930EC087E080930CC057
:1046B00010920EC0109204C081E0809305C081E882
:1046C000809300C0109201C060E070E880E00E941A
:1046D000EE1FC0E0D0E0F8CE81E080930EC0A0E0F5
:1046E000B0E041CF80E8809300C0D7CF80E88093CE
:1046F00000C084CF9C01FB018DB3482F5527407229
:104700005070ED9821313105E9F1223131054CF439
:104710002130310519F12031310519F1232BA1F098
:1047200073C02831310589F1293131052CF422314A
:10473000310509F069C06EC029313105D9F1203247
:10474000310509F061C027C080916A008B7F80939A
:104750006A0080916A00877F80936A0080E28CBB48
:104760001EC0E59B05C081E090E09183808302C07C
:1047700011821082452B09F44DC08081918180689F
:104780009183808380E090E043C080916A00982FFD
:10479000987083FF07C085E090E09183808380E07C
:1047A00090E034C0943019F487E090E0F6CF81E0D7
:1047B00090E0F3CF608171816130710521F48091C7
:1047C0006A008B7F06C06730710549F480916A00EA
:1047D000846080936A0080916A00877F12C0653090
:1047E000710521F480916A008B7F06C066307105E7
:1047F00059F480916A00846080936A0080916A0015
:10480000886080936A00CBCF8FEF9FEF452B21F01C
:10481000ED9A089580E090E008951F920F920FB6F0
:104820000F9211242F933F934F935F936F937F9336
:104830008F939F93AF93BF93EF93FF9383E293E0A4
:104840000E941D25FF91EF91BF91AF919F918F9194
:104850007F916F915F914F913F912F910F900FBE7C
:104860000F901F9018959C01FB018091C100482F6B
:104870005527407850708091C1008F778093C10098
:1048800020313105E9F0213131053CF421153105A4
:1048900081F02130310551F40EC02231310599F1FA
:1048A00022313105FCF020323105F9F02FEF3FEFD6
:1048B00022C040E050E08091C6008091C60019C03F
:1048C0008091C00087FF05C081E090E091838083E4
:1048D00002C011821082452BB1F0808191818068E5
:1048E0009183808320E030E008C080E190E09183F4
:1048F000808320E030E0452B41F08091C10080684A
:104900008093C10002C020E030E0C90108951F92E9
:104910000F920FB60F9211242F933F934F935F93F3
:104920006F937F938F939F93AF93BF93EF93FF9377
:1049300089E293E00E941D25FF91EF91BF91AF9115
:104940009F918F917F916F915F914F913F912F91A7
:104950000F900FBE0F901F9018959C01FB01809146
:10496000C100482F5527407250708091C1008F7D43
:104970008093C1002131310529F1223131053CF408
:104980002115310581F12031310539F409C0223179
:10499000310549F120323105C1F02FEF3FEF1BC047
:1049A0008091C00085FF05C081E090E09183808305
:1049B00002C011821082452BB1F080819181806804
:1049C0009183808320E030E008C080E190E0918313
:1049D000808320E030E0452B41F08091C10080626F
:1049E0008093C10002C020E030E0C90108951F9209
:1049F0000F920FB60F9211242F933F934F935F9313
:104A00006F937F938F939F93AF93BF93EF93FF9396
:104A10008FE293E00E941D25FF91EF91BF91AF912E
:104A20009F918F917F916F915F914F913F912F91C6
:104A30000F900FBE0F901F901895CF93DF93DC015E
:104A4000EC01EA81FB81309719F08D919C911995C9
:104A5000DF91CF910895EF92FF920F931F93CF9321
:104A6000DF93EC017B018A01EC81FD81309719F421
:104A700080E090E005C060E070E080E090E0199593
:104A800019830883FB82EA82DF91CF911F910F91F6
:104A9000FF90EF900895CF93DF93EC01EC81FD81BF
:104AA000309719F48FEF9FEF05C060E070E081E16F
:104AB00090E01995DF91CF910895CF93DF93EC01AA
:104AC000EC81FD81309719F48FEF9FEF05C060E016
:104AD00070E082E190E01995DF91CF9108950F93F6
:104AE0001F93CF93DF93CDB7DEB724970FB6F8941B
:104AF000DEBF0FBECDBF8C017C836B83FC012481A4
:104B000035812115310519F48FEF9FEF17C0BE01D4
:104B10006F5F7F4F80E290E0F9011995009771F483
:104B2000F80124813581BE016D5F7F4F81E290E005
:104B3000F9011995009711F489819A8124960FB68D
:104B4000F894DEBF0FBECDBFDF91CF911F910F91C3
:104B500008950F931F93CF93DF93CDB7DEB72497BC
:104B60000FB6F894DEBF0FBECDBF8C017C836B8384
:104B7000FC01248135812115310519F48FEF9FEF58
:104B800017C0BE016F5F7F4F88E190E0F901199572
:104B9000009771F4F80124813581BE016D5F7F4F6C
:104BA00089E190E0F9011995009711F489819A81C2
:104BB00024960FB6F894DEBF0FBECDBFDF91CF9124
:104BC0001F910F9108950F931F93CF93DF93FC01D3
:104BD000C189D289EDA9FEA919958C01892B49F4C7
:104BE000CF5BDF4FE881F98160E072EC81E090E01B
:104BF0001995C801DF91CF911F910F910895CF931F
:104C0000DF93EC01EA81FB810188F289E02D0FB688
:104C1000F8940F9264A575A50F900FBE8827992769
:104C2000DF91CF910895CF92DF92EF92FF920F9391
:104C30001F93CF93DF93EC018B017A0169018C8183
:104C40009D81288539850FB6F8940F9219861886AC
:104C50000F900FBE2617370789F0232B21F00097FE
:104C600011F00E94804C0115110509F1C8010E9444
:104C7000834C009729F48FEF9FEF1BC0672BB9F08F
:104C80009D838C83998388839B838A83800F911F64
:104C90009F838E83FD86EC86DF86CE861B861A86F2
:104CA0000FB6F8940F92198708870F900FBE80E017
:104CB00090E0DF91CF911F910F91FF90EF90DF90E7
:104CC000CF900895CF92DF92EF92FF920F931F93B0
:104CD000CF93DF936A01DA01ED90FD900D911C9165
:104CE0002E2DFC01C189D289615071406732710556
:104CF00048F46A597F4FFB01EE0FFF1F0590F491B6
:104D0000E02D19940FEF1FEF24C1CF5BDF4F50C090
:104D1000CD5BDF4FE881F9811995D6016D937D93C5
:104D20008D939C93139713C1CB5BDF4FE881F9817F
:104D3000822F19958C010DC1C95BDF4F0BC0C75B7A
:104D4000DF4FF4CFC55BDF4F05C0C35BDF4FEECF56
:104D5000C15BDF4FE881F98119959927AA27BB2705
:104D6000F1C0E6FE0EC0FE01B29626853785448569
:104D7000558560857185CF010E941326EBADFCAD92
:104D80001995E7FE0BC0FE01709626853785448590
:104D9000558560857185CF010E941326CF5ADF4F5C
:104DA0008FE39FEFAFEFBFEFE822F9220A231B2327
:104DB000E881F9814CC0CD5ADF4FE881F981C355B4
:104DC000D04019959B01AC01D6016D937D938D93D5
:104DD0009C9313978CA59DA5892B31F42064F60133
:104DE00020833183428353838A8D9B8D892B09F0E5
:104DF000AEC0F60180819181A281B3818068A3C099
:104E0000E886F9860A871B87A2C088859985AA85C6
:104E1000BB8598C0EC86FD860E871F8798C08C8561
:104E20009D85AE85BF858EC088819981AA81BB8111
:104E3000EE2011F0806422C08F7B20C08881998190
:104E4000AA81BB8186FF27C021C0EDADFEADC801A0
:104E5000B70119956FCFEF96E881F9811995F601A1
:104E6000608371838283938372C088819981AA81D0
:104E7000BB81EE2011F0806801C08F778883998311
:104E8000AA83BB8364C0888187FF05C081E090E06E
:104E9000A0E0B0E057C0D6011D921D921D921C9259
:104EA000139755C0CB5ADF4F41CFC95ADF4F52CF6E
:104EB000FE0170962685378544855585B701CF015B
:104EC0000E9413268C01892B09F043C0EBADFCAD89
:104ED00019953FC0888D998D33C0FE01B296268505
:104EE000378544855585B701CF010E94132622CF0F
:104EF0008AA59BA525C00FB6F8940F92FD8EEC8E67
:104F00001AC08C8D9D8D1CC00FB6F8940F92FF8E29
:104F1000EE8E11C08E8D9F8D13C00FB6F8940F9238
:104F2000FFA6EEA608C08EA59FA50AC00FB6F894EE
:104F30000F92F9AAE8AA0F900FBE09C088A999A9F3
:104F4000AA27BB27F60180839183A283B38300E065
:104F500010E0C801DF91CF911F910F91FF90EF906A
:104F6000DF90CF900895CF92DF92EF92FF920F9350
:104F70001F93CF93DF936C018A01FC01C189D28911
:104F800083E0E82EF12CE422F522E114F10481F013
:104F900028E330E048E250E060E470E0CE01409663
:104FA0000E941326892BA1F4F1E0EF16F10499F089
:104FB00020EF30E040ED50E060E071E0CE018296FD
:104FC0000E941326892B39F08C899D890E94804C80
:104FD0000FEF1FEF2CC086E090E00E94834C0097FB
:104FE00039F48C899D890E94804C8EA19FA1EECFBF
:104FF0000070107C288139814A815B810050104803
:1050000011F42F7701C02068288339834A835B839A
:105010008C01FC0111821082D382C282158214821B
:10502000F1E0EF16F10419F0EBADFCAD1995C801F4
:10503000DF91CF911F910F91FF90EF90DF90CF9074
:105040000895CF93DF93DC01EC01EA81FB81C189F4
:10505000D28901978E5F9F4F18F08FEF9FEF19C095
:10506000CD010E94804C20E030E040E050E060E064
:1050700070E0CE0140960E94132620E030E040E030
:1050800050E060E070E0CE0182960E94132680E03E
:1050900090E0DF91CF910895CF92DF92EF92FF924F
:1050A0000F931F93CF93DF937C016A01EC0160960D
:1050B0000FB6F8940F928A859B85860F971F9B8762
:1050C0008A8713C0F70181AD92ADFC011995F701F4
:1050D0004485558566857785CE0140960E949E1849
:1050E000892B51F40FB6F8940F920A851B850F9007
:1050F0000FBEC016D10630F3C801DF91CF911F91CA
:105100000F91FF90EF90DF90CF9008956F927F9274
:105110008F929F92AF92BF92CF92DF92EF92FF92C7
:105120000F931F93CF93DF93CDB7DEB722970FB6C0
:10513000F894DEBF0FBECDBF4A015901FC01E188E2
:10514000F288A0E16A2E712C6E0C7F1CF301808521
:105150009185892B21F4FFEFCF2EDF2E9BC06115A7
:10516000710549F440E050E060E070E0C7010E9442
:105170004C286C018FC0F70180819181A281B3819D
:105180009C01AD01E9E05695479537952795EA953D
:10519000D1F721702A8327E0B695A7959795879533
:1051A0002A95D1F7817089830FB6F8940F92F30195
:1051B000428553850F900FBE8B01CC24DD2460E027
:1051C00070E050C09A01260F371FF301868597853E
:1051D0002817390778F044855585C7010E944C2867
:1051E000AC01F301848595858417950708F452C0B6
:1051F00060E070E0A114B10419F0F801849102C0DC
:10520000D8018C91B981B13069F48A3081F4EA8196
:10521000E13019F0F2E0F98303C082E08A838983E8
:105220008DE00AC09981923011F4A1E0A9830F5F4B
:105230001F4F0894C11CD11CD301ED91FC91119713
:1052400081931196FC93EE932D913C91F30186810D
:1052500097812817390721F4848195819183808370
:105260006F5F7F4FC814D9040CF4ACCF6115710582
:1052700089F00FB6F8940F92F30182859385860F1B
:10528000971F938782870F900FBEF70181AD92AD74
:10529000FC011995C60122960FB6F894DEBF0FBE29
:1052A000CDBFDF91CF911F910F91FF90EF90DF90D5
:1052B000CF90BF90AF909F908F907F906F90089508
:1052C00021E030E0FC01828193810E9486280895CC
:1052D00020E030E0FC01828193810E9486280895BD
:1052E000AF92BF92CF92DF92EF92FF920F931F93F4
:1052F000CF93DF937B015A01EC01EA81FB810189A5
:105300001289E801A296688579856115710519F4FD
:105310008FEF9FEFA1C0E114F10461F42E853F856A
:105320004C855D85CE010E941326E801EBADFCADF6
:1053300019951AC00FB6F8940F926A857B850F9065
:105340000FBE6115710599F4F80183AD94ADFC01B0
:105350001995F8014085518562857385CE01409687
:105360000E949E18892B31F380E090E075C0D70130
:10537000F801808187FF35C0CC24DD24EE24FF2492
:105380005AE02BC0E616F70609F44FC0EA81FB810C
:105390004191FB83EA832A813B818E819F8128177B
:1053A000390721F48C819D819B838A834D3011F0D4
:1053B0004A3051F4F80184A9882311F0841751F47C
:1053C000F80144AB5D9303C0F80114AA4D9308940F
:1053D000C11CD11C0894E11CF11CCA14DB0490F21E
:1053E00021C06B01A616B70608F4650140E050E045
:1053F000D70114C0EA81FB8181918C93FB83EA83FE
:105400002A813B818E819F812817390721F48C8165
:105410009D819B838A834F5F5F4F11964C155D057D
:1054200049F77601E114F104B1F00FB6F8940F9248
:105430008A859B858E199F099B878A870F900FBE4F
:105440002A853B858C859D852817390720F4E8013E
:10545000EBADFCAD1995C601DF91CF911F910F9176
:10546000FF90EF90DF90CF90BF90AF9008950F9393
:105470001F938C01FC01808191810E941C13F80113
:1054800011821082138212821F910F9108950F933F
:105490001F93CF93DF93EC018B01CB010E94A912E4
:1054A00099838883892B29F41B821A828FEF9FEFBF
:1054B00004C01B830A8380E090E0DF91CF911F91AD
:1054C0000F910895BF92CF92DF92EF92FF920F93C8
:1054D0001F93CF93DF93EC01B62E7A01892B41F411
:1054E00083E190E00E949513EC01892B09F4A7C099
:1054F000BB2009F4A4C0E114F10409F480C0CB2C52
:10550000DD24C4FE1CC08A8184FF11C08D819E8170
:105510008E159F0548F48E010D5F1F4FC8010E9434
:10552000372AB701C80106C0FE82ED8208C0B70164
:10553000CE0103960E94472A892B09F057C0C5FE69
:105540001BC08A8185FF11C089859A858E159F05AC
:1055500048F48E01095F1F4FC8010E94372AB70126
:10556000C80106C0FA86E98607C0B701CE010796D2
:105570000E94472A892BD1F5C6FE1BC08A8186FF6F
:1055800011C08D859E858E159F0548F48E01055F9F
:105590001F4FC8010E94372AB701C80106C0FE8606
:1055A000ED8607C0B701CE010B960E94472A892BD2
:1055B000E9F4B7FE21C08A8187FF11C089899A89E1
:1055C0008E159F0548F48E01015F1F4FC8010E9490
:1055D000372AB701C80106C0FA8AE98A0DC0B701A7
:1055E000CE010F960E94472A892B31F0CE010E94EE
:1055F0002A2BC0E0D0E023C08A818B291FC0FA800B
:10560000FB200F2D112704FF04C0CE0103960E943A
:10561000372A05FF04C0CE0107960E94372A06FFED
:1056200004C0CE010B960E94372AF7FE04C0CE01BB
:105630000F960E94372AF0948A818F218A83CE01A7
:10564000DF91CF911F910F91FF90EF90DF90CF905E
:10565000BF900895CF93DF93EC01009769F040E08D
:1056600050E06A810E94622ACE010E941C13892B9D
:1056700019F08FEF9FEF02C080E090E0DF91CF91B3
:105680000895EF92FF920F931F93CF93DF938C01B6
:1056900083E190E00E949513EC01009779F07C0182
:1056A000F8016581768161157105B9F003960E9454
:1056B000472A892B31F0CE010E942A2BEE24FF24A9
:1056C00056C0F80163817481458156818B819C812C
:1056D0000E943A4D8A8180618A83F80161857285D2
:1056E0006115710591F0CE0107960E94472A892B1A
:1056F00081F5F80167817085418552858F81988594
:105700000E943A4D8A8180628A83F8016585768598
:105710006115710591F0CE010B960E94472A892BE5
:10572000C1F4F80163857485458556858B859C8514
:105730000E943A4D8A8180648A83F8016189728966
:1057400061157105A1F0CE010F960E94472A892BA1
:1057500011F0CE01B1CFF801678570894189528976
:105760008F8598890E943A4D8A8180688A83C70113
:10577000DF91CF911F910F91FF90EF9008950E94BC
:10578000C52B08950E94E52B0895CF93DF93EA017E
:105790009C0140E050E0FB0110C0D9010E94BC4DCB
:1057A000802D9081981721F0D901092E0E94C44DB7
:1057B0004F5F5F4F31962F5F3F4F4C175D0769F783
:1057C00080E090E0DF91CF910895CF93DF93EA01DD
:1057D000DC01FB01219724F00E94BC4D0192FACF1D
:1057E00080E090E0DF91CF9108950F931F93CF93C6
:1057F000DF938C01C091B103D091B203FE011BC0B5
:10580000808D918D8017910799F4828D938DA48D51
:10581000B58D82179307A407B50751F4868D978D30
:105820008617970729F48389882311F0CF0117C0C1
:105830000190F081E02D309719F70DC08B898130F0
:1058400039F4888D998D8017910711F4CE0107C026
:105850000990D881C02D209789F780E090E0DF91F2
:10586000CF911F910F910895CF93DF93FC01EA012F
:10587000892B09F459C080E162307807E1F080E1BA
:105880006330780744F46230710569F0615070410B
:1058900009F044C032C080E165307807B1F066504D
:1058A0007041E1F51AC0452B69F12230310551F5FF
:1058B000EE5AFF4F07C0452B29F12230310511F573
:1058C000E85BFF4F8081918124C0452BD9F02430C3
:1058D0003105C1F4E659FF4F07C0452B99F024303C
:1058E000310581F4EA59FF4F80819181A281B38112
:1058F00088839983AA83BB830EC0452B19F022307D
:10590000310529F0E05AFF4F86E190E00BC0818914
:1059100092899983888380E090E008C0E05AFF4F25
:105920008AE397E2918380838FEF9FEFDF91CF919E
:105930000895FC01892B19F486E397E20895E05A53
:10594000FF4F808191810895CF93DF93DC01EA01BD
:105950006A30710561F06A30710534F06B307105A1
:1059600091F06C30710519F08FEF9FEF17C0FD01BA
:10597000E65BFF4FAA5BBF4F8D919C9120813181E7
:10598000821B930B03C0FC0185859685AA27BB2744
:1059900088839983AA83BB8380E090E0DF91CF91D5
:1059A0000895CF93DF93EC0107C0808191818D939F
:1059B0009C93CF010E942A2BDE01A45BBF4FED9187
:1059C000FC911197309789F707C08081918199AF39
:1059D00088AFCF010E942A2BE8ADF9AD3097A9F727
:1059E00007C0808191818D939C93CF010E942A2BC7
:1059F000DE01A05BBF4FED91FC911197309789F7C5
:105A0000DF91CF9108954F925F926F927F928F9224
:105A10009F92AF92BF92CF92DF92EF92FF920F933D
:105A20001F93CF93DF93EC012B013A010E941615CF
:105A3000209761F08B89843061F08B89853049F043
:105A4000C05ADF4F89E497E2998388834FEF5FEF75
:105A5000B3C04114510409F4A2C061147104A1F44B
:105A60009EC08B89843061F7CA59DF4F48815981C4
:105A70006A817B81C656D040CE01825B9F4F0E94D7
:105A80009E18892B09F08BC0CA5BDF4F88819981F2
:105A90002496C880D980CA54D0408C159D0509F33E
:105AA0008C199D098615970518F08824992441C002
:105AB000009719F46624772470C03C01F6CFC45BCC
:105AC000DF4FA880B980CC54D040F50101891289FC
:105AD0000C191D097301E818F908C201880D991DF8
