:100000000C9474000C94C2000C94C2000C94C200B6
:100010000C94C2000C94C2000C94C2000C94C20058
:100020000C94C2000C94C2000C94C2000C94C20048
:100030000C94C2000C942E090C94C2000C94C200C3
:100040000C94C2000C94C2000C94C2000C94C20028
:100050000C94C2000C94C2000C94C2000C94C20018
:100060000C94C2000C94C2000C94C2000C94C20008
:100070000C94C2000C94C2000C94C2000C94C200F8
:100080000C94C2000C94C2000C94C2000C94C200E8
:100090000C94C2000C94C2000C94C2000C94C200D8
:1000A0000C94C2000C94C2000C94C2000C94C200C8
:1000B0000C94C2000C94C2000C94C2000C94C200B8
:1000C0000C94C2000C94C2000C94C200000000000A
:1000D0000000000000000000000000000000000020
:1000E000000000000000000084E88093740087E0B6
:1000F0008093C4008093CC0011241FBECFEFD1E2C7
:10010000DEBFCDBF12E0A0E0B2E0EAE7F5E100E03B
:100110000BBF02C007900D92AA31B107D9F712E0C8
:10012000AAE1B2E001C01D92A838B107E1F78FEF54
:100130009FE79EBF8DBF8FEF9FE788589240815801
:10014000914040F06FEF7EE76858724088E892E097
:100150000E94D1010E947907892B41F060E072E092
:1001600088E792E00E94610A0E94600720E831E07F
:1001700040E050E068EC70E089E092E00E94DC072B
:100180000C9400000C940000FFCF8093130208959C
:100190000E94D20420E033E040E050E064EC70E0E4
:1001A0008EE092E00E94DC078EEF0E94DA020E944D
:1001B0005E030E94A502209113022F3FC1F393B763
:1001C00083B7817F822B83BF83B7816083BF88958C
:1001D00083B78E7F83BF83B7817F9E70892B83BF58
:1001E000E6CF0F931F93CF93DF9300911B021091E3
:1001F0001C028017910730F080E090E060C0EF01B2
:10020000DB012FC0AC014A5F5F4F4430510510F451
:1002100044E050E0E0916502F091660265E672E02C
:10022000C0E0D0E0A0E0B0E017C020813181241709
:10023000350760F02417350711F3209729F08881DE
:1002400099812817390710F4EF01DB01BF016E5FB8
:100250007F4F0280F381E02D309739F7CE01209750
:1002600071F128813981CA010A966A817B818217DE
:10027000930770F4FE01E40FF51F241B350B318347
:1002800020837383628359834883ED93FC9302C078
:100290006D937C93E881F9810E1B1F0B10931C0258
:1002A00000931B02EC0FFD1F34978FEE9EEBADEA1F
:1002B000BEED80839183A283B383CE010296DF914A
:1002C000CF911F910F910895CF93DF93DC01129787
:1002D0006D917C911197E0916502F0916602C5E6FF
:1002E000D2E03AC040815181CF01840F951F8A1717
:1002F0009B07C1F49A01260F371F31832083828127
:100300009381DF01A20FB31FA817B90791F58D9153
:100310009C911197280F391F31832083ED018A8129
:100320009B8125C0AE17BF0778F4B983A8832D91B0
:100330003C911197CD01820F931F8E179F0779F083
:10034000ED01FB83EA8315C0A817B90728F1EF0177
:1003500022960280F381E02D309721F617C0240FFA
:10036000351F11963C932E9382819381FD019383D7
:10037000828380911B0290911C02860F971F90939D
:100380001C0280931B0280E090E008C0FD011382F4
:100390001282B983A883EDCF8FEF9FEFDF91CF91CA
:1003A0000895FC0161937193CF010E946401089547
:1003B00080911B0290911C0208950F931F93CF937D
:1003C000DF938C010E94F100EC01009729F0A80155
:1003D00060E070E00E94500ACE01DF91CF911F9142
:1003E0000F910895CF93DF93DC019B01EC01788F8F
:1003F0006F8B1D821C820FB6F8940F92EB01E8817F
:10040000F9818FEFEF3FF80749F4ED018C819D8171
:1004100001969D838C83E0E0F0E015C0309799F061
:100420000F900FBEED019A8908C09F012E5F3F4FCC
:100430000280F381E02D309719F082899817A8F790
:100440000FB6F8940F92ED01FB83EA83F901B183B3
:10045000A083EA81FB81309771F084819581892B9B
:1004600051F08C819D8124813581820F931F9D8362
:100470008C83158214820F900FBEDF91CF91089567
:10048000CF93DF939C01DB010FB6F8940F92ED91AF
:10049000FC9111970F900FBE8FEFEF3FF80731F5EA
:1004A00027C082819381E217F307E9F40FB6F8942D
:1004B0000F9211969C938E9384819581892B59F08C
:1004C000A281B381109729F084819581ED019D83EC
:1004D0008C83158214820F900FBEF9011382128251
:1004E000108E178A05C0DF011296FC013097C9F6FD
:1004F000DF91CF910895FB01168A158A82E08787E4
:1005000069E672E0CF010E94F20108950F931F93F4
:10051000CF93DF938C01C0916702D09168020CC029
:10052000B801CE0106960E94570A892B11F4CE011C
:1005300007C00990D881C02D209791F780E090E006
:10054000DF91CF911F910F910895E0916D02F0918D
:100550006E02309741F0838994890E946401109261
:100560006E0210926D020895CF93DF93C0916702DF
:10057000D09168020E94A50220916B0230916C021A
:10058000E7E6F2E00AC088819981C217D30719F41F
:100590009183808304C0FE01EC012097A1F7809134
:1005A0006B0290916C0290936E0280936D02DF91CA
:1005B000CF9108950F931F93182FE0916B02F09144
:1005C0006C02028969E672E0CF010E944002E0916C
:1005D0006B02F0916C02128B1F3F49F069E672E0EA
:1005E00080916B0290916C020E94F20102C00E9405
:1005F000B402E0916B02F0916C02809169029091DB
:100600006A02E817F90719F481E0878709C082E0D8
:1006100087870FB6F8940F920E949D070F900FBE28
:10062000802F99271F910F9108958FEF0E94DA0272
:100630000895CF93DF93C0916702D091680220C0E4
:100640000FB6F8940F928C819D810F900FBE892B6D
:10065000A1F0EF89F88D0FB6F8940F928C819D81EF
:1006600001979D838C830F900FBE808191818F5F56
:100670009F4F19F0CF010E9404060990D881C02D28
:100680002097F1F60E94DC04E0916B02F0916C027D
:100690008091690290916A02E817F90761F08785F5
:1006A000813011F482E087870FB6F8940F920E9490
:1006B0009D070F900FBEDF91CF910895E0916B02DF
:1006C000F0916C0282819381892B69F069E672E076
:1006D000CF010E94400269E672E080916B02909126
:1006E0006C020E94F2010E94190308958091710228
:1006F00090917202A0917302B09174020196A11DB3
:10070000B11D8093710290937202A0937302B09313
:1007100074020895CF93DF93EC011B821A82E0915B
:100720006F02F09170021AC0288539854A855B8571
:1007300080859185A285B385281739074A075B070D
:1007400080F0281B390B4A0B5B0B288739874A87B7
:100750005B87FB83EA830190F081E02D309721F7DE
:1007600018C0821B930BA40BB50B80879187A287BF
:10077000B387F983E883D383C283EA81FB8130970F
:1007800019F0D183C08308C0D0937002C0936F0268
:1007900003C019821882F1CFDF91CF9108950FB66F
:1007A000F8940F92609171027091720280917302BD
:1007B000909174020F900FBE0895CF93DF93EC01D8
:1007C000EA81FB8188819981309719F09183808338
:1007D00004C09093700280936F02E881F981309792
:1007E000A1F08A819B819383828380859185A285F4
:1007F000B385288539854A855B85820F931FA41FA1
:10080000B51F80879187A287B387CE010E946401BC
:10081000DF91CF910895AF92BF92CF92DF92EF9286
:10082000FF920F93CF93DF936B017C01EA01590193
:1008300080E190E00E94F100FC01892B81F10FB66C
:10084000F8940F928091710290917202A0917302BC
:10085000B09174020F900FBE8C0D9D1DAE1DBF1D7B
:1008600020911D0230911E0240911F0250912002E2
:10087000821B930BA40BB50B80879187A287B3874C
:1008800000FF05C0148215821682178204C0C4823C
:10089000D582E682F782D587C487B786A686CF0140
:1008A000DF91CF910F91FF90EF90DF90CF90BF90AD
:1008B000AF9008950F93CF93DF930E940B04EC0148
:1008C000009711F00E948A03CE01DF91CF910F9122
:1008D0000895CF92DF92EF92FF920F936A01790110
:1008E0000E94C6089701A6010E945A040F91FF902A
:1008F000EF90DF90CF900895AF92BF92CF92DF92AA
:10090000EF92FF920F93CF93DF935B016C01611520
:10091000710581059105D1F1C9E6D2E0BE01809152
:100920006B0290916C020E944002E0916B02F09188
:100930006C0283E08787E0906B02F0906C0201E02C
:1009400097014BE752E0C601B5010E946904F70127
:10095000968B858B892B19F00E94190319C0E091A1
:100960006B02F0916C02D08FC78B809169029091DD
:100970006A029383828381E0878780916B029091E2
:100980006C0290936A028093690202C00E945E0327
:10099000DF91CF910F91FF90EF90DF90CF90BF90BC
:1009A000AF90089586E793E00E94A108E0E7F0E0A9
:1009B0008081826080830895EF92FF920F931F934E
:1009C000CF93DF930FB6F8940F922091710230917C
:1009D000720240917302509174020F900FBE809189
:1009E0001D0290911E02A0911F02B0912002790178
:1009F0008A01E81AF90A0A0B1B0B20931D02309397
:100A00001E0240931F02509320024FC08885998593
:100A1000AA85BB85E816F9060A071B07A0F48E19FC
:100A20009F09A00BB10B88879987AA87BB8700977E
:100A3000A105B10521F0EE24FF24870136C0EE2484
:100A4000FF24870108C0E81AF90A0A0B1B0B188655
:100A500019861A861B86EC85FD85309721F06E85F8
:100A60007F85CE0119958C819D81AE81BF8188875C
:100A70009987AA87BB870097A105B10521F4CE010C
:100A80000E94DD0312C0E0916F02F09170020190AC
:100A9000F081E02DF0937002E0936F02309711F037
:100AA00013821282CE010E948A03C0916F02D091FC
:100AB0007002209731F0E114F1040105110509F0ED
:100AC000A5CFDF91CF911F910F91FF90EF900895E7
:100AD0002F923F924F925F926F927F928F929F924E
:100AE000AF92BF92CF92DF92EF92FF920F931F933C
:100AF000CF93DF93CDB7DEB724970FB6F894DEBF60
:100B00000FBECDBF0FB6F8940F92A0907102B090B7
:100B10007202C0907302D09074020F900FBE0E94B8
:100B20009C089B01AC01C601B5010E94870A3901EE
:100B30004A010E949C081B012C010E949C086983A9
:100B40007A838B839C83C401B30128EE33E040E0B9
:100B500050E00E94680A7B018C01C401B301A2012C
:100B600091010E94680AA61AB70AC80AD90AC601E2
:100B7000B50128EE33E040E050E00E94680A298188
:100B80003A814B815C810E94870AE20EF31E041FAA
:100B9000151FC801B70124960FB6F894DEBF0FBE2B
:100BA000CDBFDF91CF911F910F91FF90EF90DF901C
:100BB000CF90BF90AF909F908F907F906F905F90FD
:100BC0004F903F902F900895EF92FF920F931F93B5
:100BD0000FB6F8940F92E0907102F09072020091BB
:100BE0007302109174020F900FBE0E949C089B012B
:100BF000AC01C801B7010E94870ACA01B9011F915F
:100C00000F91FF90EF900895CF93DF93DC010FB623
:100C1000F8940F92CD91DC9111970F900FBE8FEF4A
:100C2000CF3FD80709F43AC0209771F10FB6F89476
:100C30000F92EA81FB811196FC93EE938C819D814A
:100C4000892B71F0309729F08C819D819583848365
:100C500005C08FEF9FEF11969C938E931D821C828F
:100C60000F900FBE8D899E89009721F00E94DD03B1
:100C70001E8A1D8A82E08F8769E672E0CE010E949B
:100C8000F20181E090E00CC00FB6F8940F928FEF64
:100C90009FEF11969C938E930F900FBE80E090E093
:100CA000DF91CF9108950F931F93CF93DF93EC01C2
:100CB0000FB6F8940F92888199810F900FBE2FEF95
:100CC0008F3F920741F40FB6F8940F921982188261
:100CD0000F900FBE02C0892B19F400E010E012C083
:100CE00000E010E0CE010E940406080F191F0FB6A5
:100CF000F8940F92888199810F900FBE01978E5FB3
:100D00009F4F80F3C801DF91CF911F910F910895FC
:100D10000F931F930E9453068C010E945E03C8012B
:100D20001F910F9108950F931F930E9404068C0149
:100D30000E945E03C8011F910F910895CF93DF9326
:100D4000AC01DB010FB6F8940F92CD91DC911197B5
:100D50000F900FBE8FEFCF3FD80799F534C08D8924
:100D60009E892A813B818417950741F50FB6F89437
:100D70000F9211963C932E938C819D81892B81F04B
:100D8000EA81FB81309729F08C819D819583848352
:100D900005C08FEF9FEF11969C938E931D821C824E
:100DA0000F900FBE82E08F8769E672E0CE010E944D
:100DB000F2018FEF9FEF9E8B8D8B05C0DE011296A7
:100DC000E901209761F6DF91CF910895AF92BF922C
:100DD000CF92DF92EF92FF920F93CF93DF93EC01CC
:100DE0005A016B010FB6F8940F92888199810F9088
:100DF0000FBE8F5F9F4F51F40FB6F8940F92198278
:100E000018820F900FBE0E945E0338C069E672E040
:100E100080916B0290916C020E944002BE01809111
:100E20006B0290916C020E94F201E0916B02F091D2
:100E30006C0283E08787E0906B02F0906C02A11453
:100E4000B104C104D10461F001E09E014EE956E015
:100E5000C601B5010E946904F701968B858B03C01A
:100E6000F701168A158A0E941903E0916B02F0912E
:100E70006C02858996898F5F9F4F19F080E090E022
:100E800004C0168A158A8FEF9FEFDF91CF910F91E3
:100E9000FF90EF90DF90CF90BF90AF900895FC014E
:100EA0000FB6F8940F92808191818F5F9F4F11F45C
:100EB000118210820F900FBECF010E94E6060895A6
:100EC00083E1809375028FE48093760283E58093BB
:100ED000770243E150E065E772E080E090E00E9435
:100EE0001A0A892B19F08FEF9FEF089580E090E0A8
:100EF000089543E150E065E772E080E090E00E94F1
:100F00001D0A892B79F480917502833159F48091FF
:100F100076028F3439F480917702833519F480E0BA
:100F200090E008958FEF9FEF08959F918F910F901C
:100F30000BBE0F900FBE1F9018952F923F924F92AD
:100F40005F926F927F928F929F92AF92BF92CF9259
:100F5000DF92EF92FF920F931F93CF93DF938DB7A2
:100F60009EB7E0916B02F0916C02918B808BE091C7
:100F70006902F0916A02F0936C02E0936B0281E0E7
:100F80008787E0916B02F0916C02808991898DBF17
:100F90009EBFDF91CF911F910F91FF90EF90DF9057
:100FA000CF90BF90AF909F908F907F906F905F9009
:100FB0004F903F902F900895AF92BF92CF92DF92C3
:100FC000EF92FF920F931F93CF93DF937C016B01FE
:100FD0005A01E901C90149960E94F100BC0100973C
:100FE00019F480E090E07CC08C010C0F1D1FE8011B
:100FF0002897A8014D515040C801069628E0D70116
:101000000D907D01FC010192CF012150C1F7F80143
:10101000168641505040518B408B4F5F5F4F748B11
:10102000638B8FEE9EEBADEABEEDFB018083918377
:10103000A283B38384839583A683B78380879187B4
:10104000A287B38784879587A687B78780E4F8014E
:10105000828B1D828D2D99278E83CF8280E88B8392
:101060001A821C82A9828B2D99278883FA01128A01
:1010700025E937E0832F9927838B248B80916702A2
:1010800090916802D8018D939C931093680200930D
:10109000670282E0F82EF801F786168A158A108E0C
:1010A000178A69E672E0C8010E94F201E0916B02C2
:1010B000F0916C02309721F40FB6F8940F9257CF4D
:1010C0008091690290916A02E817F90741F0F7866A
:1010D0000FB6F8940F920E949D070F900FBEC801A3
:1010E000DF91CF911F910F91FF90EF90DF90CF9004
:1010F000BF90AF9008951F93182F609121027091B7
:101100002202809123029091240220EA3FE040E0F5
:1011100050E00E94870A822F932F0197F1F71A95CA
:10112000D1F71F9108956091210270912202809160
:1011300023029091240208956AEE73E080E090E02B
:10114000089520E030E041EE50E0209321023093FA
:1011500022024093230250932402E0E7F0E0208132
:101160002D7F20831092B20032E03093B00025E052
:101170002093B10022E72093B30035BB40E050E05C
:10118000BC0184E192E00E94620908952AEE33E0F6
:1011900040E050E00E94680A28EE33E040E050E072
:1011A0000E94870A211531054105510521F421E0EE
:1011B00030E040E050E0CA01B90108959C01FB0114
:1011C00080917000482F55274270507080917000B8
:1011D0008D7F8093700020313105D9F021313105A8
:1011E0003CF42115310581F02130310551F40EC058
:1011F0002231310579F122313105DCF0203231051F
:10120000D9F02FEF3FEF1EC040E050E082E087BBF7
:1012100017C0B99B05C081E090E09183808302C034
:1012200011821082452BB1F0808191818068918379
:10123000808320E030E008C088E090E091838083E4
:1012400020E030E0452B41F0809170008260809377
:10125000700002C020E030E0C90108951F920F9293
:101260000FB60F9211242F933F934F935F936F9379
:101270007F938F939F93AF93BF93EF93FF9384E1FB
:1012800092E00E945409FF91EF91BF91AF919F911D
:101290008F917F916F915F914F913F912F910F901F
:1012A0000FBE0F901F901895CF93DF93DC01EC01D8
:1012B000EA81FB81309719F08D919C911995DF910E
:1012C000CF910895EF92FF920F931F93CF93DF93E7
:1012D000EC017B018A01EC81FD81309719F480E0FB
:1012E00090E005C060E070E080E090E0199519831F
:1012F0000883FB82EA82DF91CF911F910F91FF90CB
:10130000EF900895CF93DF93EC01EC81FD8130974E
:1013100019F48FEF9FEF05C060E070E081E190E08D
:101320001995DF91CF910895CF93DF93EC01EC8174
:10133000FD81309719F48FEF9FEF05C060E070E0FA
:1013400082E190E01995DF91CF9108950F931F935B
:10135000CF93DF93CDB7DEB724970FB6F894DEBFF7
:101360000FBECDBF8C017C836B83FC012481358152
:101370002115310519F48FEF9FEF17C0BE016F5F84
:101380007F4F80E290E0F9011995009771F4F80120
:1013900024813581BE016D5F7F4F81E290E0F901CC
:1013A0001995009711F489819A8124960FB6F894C3
:1013B000DEBF0FBECDBFDF91CF911F910F9108957A
:1013C0000F931F93CF93DF93CDB7DEB724970FB65C
:1013D000F894DEBF0FBECDBF8C017C836B83FC0114
:1013E000248135812115310519F48FEF9FEF17C046
:1013F000BE016F5F7F4F88E190E0F901199500977A
:1014000071F4F80124813581BE016D5F7F4F89E160
:1014100090E0F9011995009711F489819A81249639
:101420000FB6F894DEBF0FBECDBFDF91CF911F91F5
:101430000F9108950E94200A08950E94400A08957D
:10144000CF93DF93EA019C0140E050E0FB0110C024
:10145000D9010E94A90A802D9081981721F0D90105
:10146000092E0E94B10A4F5F5F4F31962F5F3F4FA9
:101470004C175D0769F780E090E0DF91CF91089508
:10148000CF93DF93EA01DC01FB01219724F00E9456
:10149000A90A0192FACF80E090E0DF91CF91089500
:1014A000DC0101C06D9341505040E0F70895FB010D
:1014B000DC018D910190801911F40020D1F7990B76
:1014C0000895FB01DC0101900D920020E1F70895E1
:1014D000629FD001739FF001829FE00DF11D649F18
:1014E000E00DF11D929FF00D839FF00D749FF00DA4
:1014F000659FF00D9927729FB00DE11DF91F639F45
:10150000B00DE11DF91FBD01CF0111240895A1E225
:101510001A2EAA1BBB1BFD010DC0AA1FBB1FEE1F6D
:10152000FF1FA217B307E407F50720F0A21BB30BB8
:10153000E40BF50B661F771F881F991F1A9469F734
:1015400060957095809590959B01AC01BD01CF0190
:101550000895F999FECFB2BDA1BDF89A119600B4D5
:101560000895F999FECFB2BDA1BD00BC11960FB68A
:0A157000F894FA9AF99A0FBE089554
:10157A0065746865726E75740069646C65006D6186
:0A158A00696E00FF00000000DE089B
:00000001FF
