:100000000C9494000C94E2000C94E2000C94E20036
:100010000C94E2000C94E2000C94E2000C94E200D8
:100020000C94E2000C94E2000C94E2000C94E200C8
:100030000C94E2000C94520C0C94E2000C94E2003C
:100040000C94E2000C94E2000C94E2000C94E200A8
:100050000C94E2000C94E2000C94E2000C94E20098
:100060000C94E2000C94E2000C94E2000C94E20088
:100070000C94E2000C94E2000C94E2000C94E20078
:100080000C94E2000C94E2000C94E2000C94E20068
:100090000C94E2000C94E2000C94E2000C94E20058
:1000A0000C94E2000C94E2000C94E2000C94E20048
:1000B0000C94E2000C94E2000C94E2000C94E20038
:1000C0000C94E2000C94E2000C94E20000000000AA
:1000D0000000000000000000000000000000000020
:1000E0000000000000000000000000000000000010
:1000F0000000000000000000000000000000000000
:1001000000000000000000000000000000000000EF
:1001100000000000000000000000000000000000DF
:10012000000000000000000084E88093740087E075
:100130008093C4008093CC0011241FBECFEFD1E286
:10014000DEBFCDBF14E0A0E0B2E0E6EFF7E200E0F2
:100150000BBF02C007900D92A231B107D9F714E08E
:10016000A2E1B4E001C01D92AA38B107E1F78FEF18
:100170009FE79EBF8DBF8FEF9FE78A5894408158BD
:10018000914040F06FEF7EE76A5874408AE894E04F
:100190000E94AD040E949D0A892B41F06CE773E038
:1001A00088E794E00E949F130E94840A20E831E0CF
:1001B00040E050E064EA73E085E893E00E94000BC1
:1001C0000C9400000C94000083E80E94B60564EFD4
:1001D00071E080E090E00E94580780E092E09F93F9
:1001E0008F930E94DA0E0F900F90F1CF82E80E9459
:1001F000B60564EF71E080E090E00E94580784E06B
:1002000092E09F938F930E94DA0E0F900F90F1CFA0
:1002100081E80E94B60564EF71E080E090E00E9402
:10022000580788E092E09F938F930E94DA0E0F9018
:100230000F90F1CF2F923F924F925F926F927F92E9
:100240008F929F92AF92BF92CF92DF92EF92FF92E6
:100250000F931F93CF93DF93CDB7DEB72E970FB6D3
:10026000F894DEBF0FBECDBF80E092ECA1E0B0E01D
:1002700089879A87AB87BC871A8219821C821B8266
:100280001E821D8218861F8240E060E070E086E9D1
:1002900093E00E94580A4091BB035091BC036CE06C
:1002A00072E08EE092E00E946F0E8091BB0390910D
:1002B000BC030E940F0EAE01475F5F4F61E071E02B
:1002C0000E94FD0D88E00E94B6050E94B70B7B01DD
:1002D0008C0184E192E00E94FA0EC801B70120E48B
:1002E00032E44FE050E00E94C51359016A01CA018F
:1002F000B90120E432E44FE050E00E94A613E61A70
:10030000F70A080B190BC801B70124E630E040E0FA
:1003100050E00E94C5133F932F93BF92AF9285E6A2
:1003200092E09F938F930E94DA0E20E032E0AE01BC
:100330004F5F5F4F6EE773E08EE892E00E94000B24
:1003400020E032E0AE014D5F5F4F6FE573E083E97F
:1003500092E00E94000B20E032E0AE014B5F5F4F65
:1003600060E473E088E992E00E94000B20E032E054
:10037000AE01495F5F4F61E273E08DE992E00E9458
:10038000000B20E032E040E050E06FEF72E082EAE4
:1003900092E00E94000B20E032E040E050E068E094
:1003A00071E088EA92E00E94000B20E032E040E039
:1003B00050E066EF70E08EEA92E00E94000B20E0D1
:1003C00032E040E050E064EE70E084EB92E00E94A6
:1003D000000B1E861D86E0EDAE2EE7E0BE2EC12C82
:1003E000D12C2DB73EB72A5F3F4F0FB6F8943EBFD2
:1003F0000FBE2DBF4E010894811C911C73E0472E47
:10040000512C4C0E5D1E82EC92E060ED662E62E097
:10041000762E3D8530FFB6C05AEBE52E52E0F52E24
:10042000FF92EF929F938F930E94DA0E01E0940166
:100430004DE953E06DE770E080E090E00E944507F1
:100440001C01FF92EF927F926F920E94DA0E92014E
:100450004DE953E06DE770E080E090E00E944507D1
:100460002C01FF92EF928EED92E09F938F930E946A
:10047000DA0E9E012B5F3F4F4DE953E06DE770E0D0
:1004800080E090E00E9445073C01C70141E0E42E76
:10049000F12CADB7BEB71C960FB6F894BEBF0FBE19
:1004A000ADBF9F938F938CEE92E09F938F930E94AA
:1004B000DA0E9E01295F3F4F4DE953E06DE770E092
:1004C00080E090E00E9445074C0188EE93E0A0E0B8
:1004D000B0E0A80EB91ECA1EDB1E0F900F900F9041
:1004E0000F9091E3A91695E7B90690E0C90690E050
:1004F000D90630F038EEA32E33E0B32EC12CD12C28
:10050000C601B50128EE33E040E050E00E94C5137B
:100510003F932F938AEF92E09F938F930E94DA0E7E
:10052000C601B5010E9458070F900F900F900F90D1
:10053000EF28A1F480E193E09F938F930E94DA0E5D
:10054000C1010E94B906C2010E94B906C3010E94FE
:10055000B906C4010E94B9060F900F900E94B4041E
:100560009F938F938EE193E09F938F930E94DA0E77
:10057000AD85BE851196BE87AD870F900F900F9009
:100580000F9038CF2EE2E22E23E0F22EFF92EF9270
:100590009F938F930E94DA0E00E094014DE953E09F
:1005A0006DE770E080E090E00E9445071C01FF923B
:1005B000EF927F926F920E94DA0E92014DE953E022
:1005C0006DE770E080E090E00E9445072C01FF920B
:1005D000EF922EED32E03F932F930E94DA0E9E01B0
:1005E0002B5F3F4F4DE953E06DE770E080E090E016
:1005F0000E9445073C01C701EE24FF244ACF80E852
:100600000E94B6050E94B404855F914078F00E9474
:10061000B4049F938F9387E393E09F938F930E94FB
:10062000DA0E0F900F900F900F9004C081E493E0CA
:100630000E94FA0E64EF71E080E090E00E9458079B
:10064000E1CFEC018CE493E09F938F930E94DA0E4C
:1006500080E20E94B6050F900F9044ED50E360E0F9
:1006600070E0CE010E94C209892B19F080E593E069
:1006700002C084E593E09F938F930E94DA0EEBCF44
:10068000EC0188E593E09F938F930E94DA0E80E15E
:100690000E94B6050F900F9044ED50E360E070E0CB
:1006A000CE010E94C209892B19F08CE593E002C0AB
:1006B00080E693E09F938F930E94DA0EEBCFEC01DC
:1006C00084E693E09F938F930E94DA0E88E00E9465
:1006D000B6050F900F9044ED50E360E070E0CE015E
:1006E0000E94C209892B19F088E693E002C08CE6CB
:1006F00093E09F938F930E94DA0EEBCFEC0180E79B
:1007000093E09F938F930E94DA0E84E00E94B605D7
:100710000F900F9044ED50E360E070E0CE010E9436
:10072000C209892B19F084E793E002C088E793E0BF
:100730009F938F930E94DA0EEBCFCB010E94E008CB
:10074000089580938F0308950E94AE0720E033E060
:1007500040E050E06AE171E08AE893E00E94000B1B
:100760008EEF0E94B6050E943A060E9481052091F4
:100770008F032F3FC1F393B783B7817F822B83BF52
:1007800083B7816083BF889583B78E7F83BF83B72C
:10079000817F9E70892B83BFE6CF0F931F93CF93EA
:1007A000DF9300911304109114048017910730F027
:1007B00080E090E060C0EF01DB012FC0AC014A5F38
:1007C0005F4F4430510510F444E050E0E09165047F
:1007D000F091660465E674E0C0E0D0E0A0E0B0E02F
:1007E00017C0208131812417350760F024173507A1
:1007F00011F3209729F0888199812817390710F47F
:10080000EF01DB01BF016E5F7F4F0280F381E02DBE
:10081000309739F7CE01209771F128813981CA01CB
:100820000A966A817B818217930770F4FE01E40FB8
:10083000F51F241B350B3183208373836283598317
:100840004883ED93FC9302C06D937C93E881F9811A
:100850000E1B1F0B1093140400931304EC0FFD1FC9
:1008600034978FEE9EEBADEABEED80839183A28339
:10087000B383CE010296DF91CF911F910F9108951E
:10088000CF93DF93DC0112976D917C911197E091EA
:100890006504F0916604C5E6D4E03AC04081518118
:1008A000CF01840F951F8A179B07C1F49A01260F69
:1008B000371F3183208382819381DF01A20FB31F11
:1008C000A817B90791F58D919C911197280F391FA1
:1008D00031832083ED018A819B8125C0AE17BF073C
:1008E00078F4B983A8832D913C911197CD01820FA3
:1008F000931F8E179F0779F0ED01FB83EA8315C0E4
:10090000A817B90728F1EF0122960280F381E02DA4
:10091000309721F617C0240F351F11963C932E9364
:1009200082819381FD01938382838091130490914E
:100930001404860F971F909314048093130480E08F
:1009400090E008C0FD0113821282B983A883EDCF25
:100950008FEF9FEFDF91CF910895FC016193719329
:10096000CF010E94400408958091130490911404D3
:1009700008950F931F93CF93DF938C010E94CD03B3
:10098000EC01009729F0A80160E070E00E948E134E
:10099000CE01DF91CF911F910F910895CF93DF93F7
:1009A000DC019B01EC01788F6F8B1D821C820FB6DE
:1009B000F8940F92EB01E881F9818FEFEF3FF80790
:1009C00049F4ED018C819D8101969D838C83E0E04B
:1009D000F0E015C0309799F00F900FBEED019A89A5
:1009E00008C09F012E5F3F4F0280F381E02D3097BA
:1009F00019F082899817A8F70FB6F8940F92ED01B5
:100A0000FB83EA83F901B183A083EA81FB813097FC
:100A100071F084819581892B51F08C819D81248195
:100A20003581820F931F9D838C83158214820F90D2
:100A30000FBEDF91CF910895CF93DF939C01DB012F
:100A40000FB6F8940F92ED91FC9111970F900FBE95
:100A50008FEFEF3FF80731F527C082819381E217CE
:100A6000F307E9F40FB6F8940F9211969C938E93C6
:100A700084819581892B59F0A281B381109729F047
:100A800084819581ED019D838C83158214820F9062
:100A90000FBEF90113821282108E178A05C0DF0182
:100AA0001296FC013097C9F6DF91CF910895FB01B2
:100AB000168A158A82E0878769E674E0CF010E9472
:100AC000CE0408950F931F93CF93DF938C01C091B1
:100AD0006704D09168040CC0B801CE0106960E944C
:100AE0009513892B11F4CE0107C00990D881C02D30
:100AF000209791F780E090E0DF91CF911F910F91C7
:100B00000895E0916D04F0916E04309741F083896F
:100B100094890E94400410926E0410926D0408950E
:100B2000CF93DF93C0916704D09168040E94810540
:100B300020916B0430916C04E7E6F4E00AC08881F0
:100B40009981C217D30719F49183808304C0FE01F1
:100B5000EC012097A1F780916B0490916C04909325
:100B60006E0480936D04DF91CF9108950F931F93CE
:100B7000182FE0916B04F0916C04028969E674E02F
:100B8000CF010E941C05E0916B04F0916C04128B64
:100B90001F3F49F069E674E080916B0490916C040A
:100BA0000E94CE0402C00E949005E0916B04F09177
:100BB0006C048091690490916A04E817F90719F4AC
:100BC00081E0878709C082E087870FB6F8940F928B
:100BD0000E94C10A0F900FBE802F99271F910F917D
:100BE00008958FEF0E94B6050895CF93DF93C091CB
:100BF0006704D091680420C00FB6F8940F928C81DE
:100C00009D810F900FBE892BA1F0EF89F88D0FB653
:100C1000F8940F928C819D8101979D838C830F9016
:100C20000FBE808191818F5F9F4F19F0CF010E948D
:100C3000E0080990D881C02D2097F1F60E94B807EE
:100C4000E0916B04F0916C048091690490916A04C6
:100C5000E817F90761F08785813011F482E0878712
:100C60000FB6F8940F920E94C10A0F900FBEDF9149
:100C7000CF910895E0916B04F0916C04828193818F
:100C8000892B69F069E674E0CF010E941C0569E6D2
:100C900074E080916B0490916C040E94CE040E94D9
:100CA000F50508958091710490917204A0917304E8
:100CB000B09174040196A11DB11D809371049093AD
:100CC0007204A0937304B09374040895CF93DF93D8
:100CD000EC011B821A82E0916F04F09170041AC03B
:100CE000288539854A855B8580859185A285B38570
:100CF000281739074A075B0780F0281B390B4A0B76
:100D00005B0B288739874A875B87FB83EA830190DF
:100D1000F081E02D309721F718C0821B930BA40BB4
:100D2000B50B80879187A287B387F983E883D38344
:100D3000C283EA81FB81309719F0D183C08308C058
:100D4000D0937004C0936F0403C019821882F1CF4E
:100D5000DF91CF9108950FB6F8940F9260917104CE
:100D60007091720480917304909174040F900FBE7F
:100D70000895CF93DF93EC01EA81FB81888199810B
:100D8000309719F09183808304C09093700480930E
:100D90006F04E881F9813097A1F08A819B81938368
:100DA000828380859185A285B385288539854A858A
:100DB0005B85820F931FA41FB51F80879187A28731
:100DC000B387CE010E944004DF91CF910895AF9286
:100DD000BF92CF92DF92EF92FF920F93CF93DF9368
:100DE0006B017C01EA01590180E190E00E94CD0392
:100DF000FC01892B81F10FB6F8940F928091710458
:100E000090917204A0917304B09174040F900FBE7E
:100E10008C0D9D1DAE1DBF1D209115043091160433
:100E20004091170450911804821B930BA40BB50B2F
:100E300080879187A287B38700FF05C0148215823F
:100E40001682178204C0C482D582E682F782D587D3
:100E5000C487B786A686CF01DF91CF910F91FF900F
:100E6000EF90DF90CF90BF90AF9008950F93CF9306
:100E7000DF930E94E706EC01009711F00E946606DE
:100E8000CE01DF91CF910F910895CF92DF92EF9233
:100E9000FF920F936A0179010E94EA0B9701A60164
:100EA0000E9436070F91FF90EF90DF90CF9008954A
:100EB000AF92BF92CF92DF92EF92FF920F93CF93B8
:100EC000DF935B016C016115710581059105D1F11D
:100ED000C9E6D4E0BE0180916B0490916C040E943D
:100EE0001C05E0916B04F0916C0483E08787E0902F
:100EF0006B04F0906C0401E0970147E555E0C601F2
:100F0000B5010E944507F701968B858B892B19F057
:100F10000E94F50519C0E0916B04F0916C04D08F2C
:100F2000C78B8091690490916A049383828381E0E6
:100F3000878780916B0490916C0490936A048093EE
:100F4000690402C00E943A06DF91CF910F91FF9091
:100F5000EF90DF90CF90BF90AF90089582E596E03C
:100F60000E94C50BE0E7F0E08081826080830895F5
:100F7000EF92FF920F931F93CF93DF930FB6F894E6
:100F80000F9220917104309172044091730450913A
:100F900074040F900FBE8091150490911604A091D7
:100FA0001704B091180479018A01E81AF90A0A0BAA
:100FB0001B0B209315043093160440931704509391
:100FC00018044FC088859985AA85BB85E816F9065F
:100FD0000A071B07A0F48E199F09A00BB10B888785
:100FE0009987AA87BB870097A105B10521F0EE2458
:100FF000FF24870136C0EE24FF24870108C0E81AC9
:10100000F90A0A0B1B0B188619861A861B86EC85B3
:10101000FD85309721F06E857F85CE0119958C81F5
:101020009D81AE81BF8188879987AA87BB870097FA
:10103000A105B10521F4CE010E94B90612C0E091CC
:101040006F04F09170040190F081E02DF093700432
:10105000E0936F04309711F013821282CE010E9448
:101060006606C0916F04D0917004209731F0E114AE
:10107000F1040105110509F0A5CFDF91CF911F9172
:101080000F91FF90EF9008952F923F924F925F92B1
:101090006F927F928F929F92AF92BF92CF92DF9288
:1010A000EF92FF920F931F93CF93DF93CDB7DEB7ED
:1010B00024970FB6F894DEBF0FBECDBF0FB6F894DD
:1010C0000F92A0907104B0907204C0907304D090FD
:1010D00074040F900FBE0E94C00B9B01AC01C601AF
:1010E000B5010E94C51339014A010E94C00B1B01C2
:1010F0002C010E94C00B69837A838B839C83C4017B
:10110000B30128EE33E040E050E00E94A6137B01DB
:101110008C01C401B301A20191010E94A613A61A79
:10112000B70AC80AD90AC601B50128EE33E040E083
:1011300050E00E94A61329813A814B815C810E9474
:10114000C513E20EF31E041F151FC801B701249634
:101150000FB6F894DEBF0FBECDBFDF91CF911F91C8
:101160000F91FF90EF90DF90CF90BF90AF909F9046
:101170008F907F906F905F904F903F902F90089549
:10118000EF92FF920F931F930FB6F8940F92E09097
:101190007104F090720400917304109174040F9024
:1011A0000FBE0E94C00B9B01AC01C801B7010E9499
:1011B000C513CA01B9011F910F91FF90EF900895D7
:1011C000CF93DF93DC010FB6F8940F92CD91DC91B1
:1011D00011970F900FBE8FEFCF3FD80709F43AC099
:1011E000209771F10FB6F8940F92EA81FB81119666
:1011F000FC93EE938C819D81892B71F0309729F0BF
:101200008C819D819583848305C08FEF9FEF11961C
:101210009C938E931D821C820F900FBE8D899E8998
:10122000009721F00E94B9061E8A1D8A82E08F87EE
:1012300069E674E0CE010E94CE0481E090E00CC02B
:101240000FB6F8940F928FEF9FEF11969C938E93A9
:101250000F900FBE80E090E0DF91CF9108950F9343
:101260001F93CF93DF93EC010FB6F8940F92888110
:1012700099810F900FBE2FEF8F3F920741F40FB669
:10128000F8940F92198218820F900FBE02C0892B1A
:1012900019F400E010E012C000E010E0CE010E945E
:1012A000E008080F191F0FB6F8940F9288819981F2
:1012B0000F900FBE01978E5F9F4F80F3C801DF91A3
:1012C000CF911F910F9108950F931F930E942F09A3
:1012D0008C010E943A06C8011F910F9108950F9347
:1012E0001F930E94E0088C010E943A06C8011F91DA
:1012F0000F910895CF93DF93AC01DB010FB6F89403
:101300000F92CD91DC9111970F900FBE8FEFCF3FD1
:10131000D80799F534C08D899E892A813B8184172D
:10132000950741F50FB6F8940F9211963C932E93C2
:101330008C819D81892B81F0EA81FB81309729F096
:101340008C819D819583848305C08FEF9FEF1196DB
:101350009C938E931D821C820F900FBE82E08F871C
:1013600069E674E0CE010E94CE048FEF9FEF9E8B62
:101370008D8B05C0DE011296E901209761F6DF91A1
:10138000CF910895AF92BF92CF92DF92EF92FF92EA
:101390000F93CF93DF93EC015A016B010FB6F894D2
:1013A0000F92888199810F900FBE8F5F9F4F51F4EC
:1013B0000FB6F8940F92198218820F900FBE0E94F8
:1013C0003A0638C069E674E080916B0490916C0431
:1013D0000E941C05BE0180916B0490916C040E94D8
:1013E000CE04E0916B04F0916C0483E08787E09079
:1013F0006B04F0906C04A114B104C104D10461F039
:1014000001E09E014AE759E0C601B5010E94450787
:10141000F701968B858B03C0F701168A158A0E9407
:10142000F505E0916B04F0916C04858996898F5FD6
:101430009F4F19F080E090E004C0168A158A8FEF64
:101440009FEFDF91CF910F91FF90EF90DF90CF90C2
:10145000BF90AF900895FC010FB6F8940F92808171
:1014600091818F5F9F4F11F4118210820F900FBEF8
:10147000CF010E94C20908950F931F93CF93DF936A
:101480008C01C0911904D0911A040AC0B801CE0190
:1014900002960E949513892B29F00990D881C02DBE
:1014A0002097A1F7CE01DF91CF911F910F91089561
:1014B000CF93DF93EC01892B11F16115710511F0C8
:1014C0007D876C8741114E87CE0102960E943C0AAF
:1014D000892BA9F4EB89FC89309721F0CE0119956D
:1014E000892B69F48091190490911A049983888357
:1014F000D0931A04C093190480E090E002C08FEFEB
:101500009FEFDF91CF91089583E1809375048FE47D
:101510008093760483E58093770443E150E065E7A8
:1015200074E080E090E00E94C70D892B19F08FEFE6
:101530009FEF089580E090E0089543E150E065E773
:1015400074E080E090E00E94CA0D892B79F48091CC
:101550007504833159F4809176048F3439F4809185
:101560007704833519F480E090E008958FEF9FEFC2
:1015700008959F918F910F900BBE0F900FBE1F90FB
:1015800018952F923F924F925F926F927F928F9217
:101590009F92AF92BF92CF92DF92EF92FF920F9302
:1015A0001F93CF93DF938DB79EB7E0916B04F091BB
:1015B0006C04918B808BE0916904F0916A04F09344
:1015C0006C04E0936B0481E08787E0916B04F091F9
:1015D0006C04808991898DBF9EBFDF91CF911F914F
:1015E0000F91FF90EF90DF90CF90BF90AF909F90C2
:1015F0008F907F906F905F904F903F902F900895C5
:10160000AF92BF92CF92DF92EF92FF920F931F9310
:10161000CF93DF937C016B015A01E901C90149961F
:101620000E94CD03BC01009719F480E090E07CC0DB
:101630008C010C0F1D1FE8012897A8014D51504047
:10164000C801069628E0D7010D907D01FC010192AA
:10165000CF012150C1F7F801168641505040518BFF
:10166000408B4F5F5F4F748B638B8FEE9EEBADEAC9
:10167000BEEDFB0180839183A283B3838483958332
:10168000A683B78380879187A287B387848795874E
:10169000A687B78780E4F801828B1D828D2D99275C
:1016A0008E83CF8280E88B831A821C82A9828B2D45
:1016B00099278883FA01128A29EB3AE0832F992728
:1016C000838B248B8091670490916804D8018D935B
:1016D0009C93109368040093670482E0F82EF8014D
:1016E000F786168A158A108E178A69E674E0C80193
:1016F0000E94CE04E0916B04F0916C04309721F4C9
:101700000FB6F8940F9257CF8091690490916A04B4
:10171000E817F90741F0F7860FB6F8940F920E9488
:10172000C10A0F900FBEC801DF91CF911F910F9199
:10173000FF90EF90DF90CF90BF90AF9008951F93F0
:10174000182F60911B0470911C0480911D049091CE
:101750001E0420EA3FE040E050E00E94C513822FC3
:10176000932F0197F1F71A95D1F71F910895609182
:101770001B0470911C0480911D0490911E04089517
:101780006AEE73E080E090E0089520E030E041EE02
:1017900050E020931B0430931C0440931D0450938D
:1017A0001E04E0E7F0E020812D7F20831092B2003C
:1017B00032E03093B00025E02093B10022E720937F
:1017C000B30035BB40E050E0BC0180E993E00E94EB
:1017D0000F0D08952AEE33E040E050E00E94A6137A
:1017E00028EE33E040E050E00E94C513211531059A
:1017F0004105510521F421E030E040E050E0CA010C
:10180000B90108959C01FB0180917000482F552774
:1018100042705070809170008D7F809370002031F5
:101820003105D9F0213131053CF42115310581F024
:101830002130310551F40EC02231310579F12231C8
:101840003105DCF020323105D9F02FEF3FEF1EC01B
:1018500040E050E082E087BB17C0B99B05C081E043
:1018600090E09183808302C011821082452BB1F0F9
:101870008081918180689183808320E030E008C07E
:1018800088E090E09183808320E030E0452B41F0B8
:101890008091700082608093700002C020E030E090
:1018A000C90108951F920F920FB60F9211242F9322
:1018B0003F934F935F936F937F938F939F93AF93D8
:1018C000BF93EF93FF9380E993E00E94010DFF9196
:1018D000EF91BF91AF919F918F917F916F915F91A8
:1018E0004F913F912F910F900FBE0F901F90189521
:1018F00088E18093C10080E090E00895982F809166
:10190000C00085FFFCCF9093C6009A3011F49DE093
:10191000F6CF0895EF92FF920F931F93CF93DF932B
:101920007A018B01EA0105C0F80181918F010E94C3
:101930007E0C2197FFEFCF3FDF07B1F7C701DF91A3
:10194000CF911F910F91FF90EF900895EF92FF922A
:101950000F931F93CF93DF937A018A01EB0105C0A8
:10196000FE0184910E947E0C219601501040FFEFF1
:101970000F3F1F07A9F7C701DF91CF911F910F916B
:10198000FF90EF9008951092200410921F049093FE
:1019900022048093210410922404109223048FE1E6
:1019A00094E0089580E090E00895CF93DF93EA01FA
:1019B0006150714019F08FEF9FEF20C00E94B70B6C
:1019C000660F771F881F991F288139814A815B81A3
:1019D000E4E0220F331F441F551FEA95D1F70E9400
:1019E000C5132F5F3F4F4F4F5F4F56954795379524
:1019F000279521502093C40080E090E0DF91CF91A3
:101A00000895CF93DF93DC01EC01EA81FB813097ED
:101A100019F08D919C911995DF91CF910895EF92D6
:101A2000FF920F931F93CF93DF93EC017B018A0109
:101A3000EC81FD81309719F480E090E005C060E012
:101A400070E080E090E0199519830883FB82EA82B8
:101A5000DF91CF911F910F91FF90EF900895CF9359
:101A6000DF93EC01EC81FD81309719F48FEF9FEF4C
:101A700005C060E070E081E190E01995DF91CF91C1
:101A80000895CF93DF93EC01EC81FD81309719F439
:101A90008FEF9FEF05C060E070E082E190E0199564
:101AA000DF91CF9108950F931F93CF93DF93CDB71D
:101AB000DEB724970FB6F894DEBF0FBECDBF8C0102
:101AC0007C836B83FC01248135812115310519F458
:101AD0008FEF9FEF17C0BE016F5F7F4F80E290E0F6
:101AE000F9011995009771F4F80124813581BE013F
:101AF0006D5F7F4F81E290E0F9011995009711F435
:101B000089819A8124960FB6F894DEBF0FBECDBFAF
:101B1000DF91CF911F910F9108950F931F93CF9352
:101B2000DF93CDB7DEB724970FB6F894DEBF0FBEB4
:101B3000CDBF8C017C836B83FC0124813581211511
:101B4000310519F48FEF9FEF17C0BE016F5F7F4F14
:101B500088E190E0F9011995009771F4F80124816A
:101B60003581BE016D5F7F4F89E190E0F9011995E4
:101B7000009711F489819A8124960FB6F894DEBFFC
:101B80000FBECDBFDF91CF911F910F9108950E949D
:101B9000CD0D08950E94ED0D0895CF93DF93EA01D6
:101BA0009C0140E050E0FB0110C0D9010E94E71306
:101BB000802D9081981721F0D901092E0E94EF13F2
:101BC0004F5F5F4F31962F5F3F4F4C175D0769F7AF
:101BD00080E090E0DF91CF910895CF93DF93EA0109
:101BE000DC01FB01219724F00E94E7130192FACF58
:101BF00080E090E0DF91CF910895CF93DF93EC01E7
:101C0000AA81BB81109719F4EB85FC8504C0ED0116
:101C1000ED89FE89CD011995DF91CF910895FC01E1
:101C2000808191810895CF92DF92EF92FF920F937E
:101C30001F93CF93DF936C01CB010E940C137C01A7
:101C40008F5F9F4F71F440C00F5F1F4F3296083077
:101C5000110559F487E190E09093890480938804FA
:101C600033C003E010E0EFEBF3E080819181892B3A
:101C700059F787E090E00E941F0FEC01000F111F41
:101C800007541C4FD801CD93DC932097E9F0B7019E
:101C9000C6010E942C0F99838883D801ED91FC9195
:101CA0008F5F9F4F39F4CF010E941C0FF801118202
:101CB00010820AC0F382E2821482D801ED91FC9175
:101CC00016821582CF0102C080E090E0DF91CF91B3
:101CD0001F910F91FF90EF90DF90CF9008959F920A
:101CE000AF92BF92CF92DF92EF92FF920F931F932A
:101CF000CF93DF935C01CB01EA010E940C136C01CE
:101D00008F5F9F4F71F448C00F5F1F4F32960830AE
:101D1000110559F489E090E0909389048093880438
:101D20003BC000E010E0E9EBF3E0808191818C178B
:101D30009D0751F787E090E00E941F0F7C01E801AA
:101D4000CC0FDD1FC754DC4FF982E882E114F104A7
:101D500019F1B601C5010E942C0FF7019183808310
:101D6000E881F9818F5F9F4F71F4CF010E941C0FB2
:101D700082E0801728F00F5F1F4F198308830CC083
:101D80001982188209C0D382C2821482E881F98143
:101D900016821582CF0102C080E090E0DF91CF91E2
:101DA0001F910F91FF90EF90DF90CF90BF90AF9079
:101DB0009F900895CF93DF93CDB7DEB722970FB6EC
:101DC000F894DEBF0FBECDBFFE01389661917191D0
:101DD000FA83E983AF018091BB039091BC030E9419
:101DE000110F22960FB6F894DEBF0FBECDBFDF9164
:101DF000CF9108956091BB037091BC030E94601362
:101E00008F5F9F4F19F48FEF9FEF08956091BB0391
:101E10007091BC038AE090E00E94381380E090E06B
:101E20000895FC01CB019A0160817181AC0189EFB9
:101E300092E10E94AC0F08950E94400408950E9410
:101E4000CD039C01892B31F48CE090E090938904C0
:101E500080938804C9010895EF92FF920F931F9316
:101E6000CF93DF93CDB7DEB729970FB6F894DEBFD7
:101E70000FBECDBF7B018C01FE013196AE01475FE5
:101E80005F4F03C021930F5F1F4F302F381BD801C6
:101E90002C91222329F02A3319F0E417F50791F742
:101EA000CE010196FC01E30FF11D10820E943C0A55
:101EB000DC01892B49F482E090E0909389048093BF
:101EC00088048FEF9FEF13C0F80180818A3319F0E7
:101ED00060E070E003C0B8016F5F7F4FFD01058DCA
:101EE000168D20E030E0A701CD01F8011995299663
:101EF0000FB6F894DEBF0FBECDBFDF91CF911F911B
:101F00000F91FF90EF900895CF92DF92EF92FF92A2
:101F10000F931F93CF93DF936C017B018A01E9013B
:101F200007C040E150E0B801C701F601199560977C
:101F3000C131D105B4F71C161D062CF4AE01B80151
:101F4000C701F6011995DF91CF911F910F91FF9075
:101F5000EF90DF90CF9008952F923F924F925F9233
:101F60006F927F928F929F92BF92CF92DF92EF9269
:101F7000FF920F931F93CF93DF93CDB7DEB76B978D
:101F80000FB6F894DEBF0FBECDBF998F888F7B8FC1
:101F90006A8F1A0149011D8A1C8AB10103C0089485
:101FA000211C311CD101FC90FF2019F0B5E2FB1679
:101FB000B1F78101061B170B61F0A8018A8D9B8D7B
:101FC000E88DF98D19952C893D89200F311F3D8BA6
:101FD0002C8BFF2009F4F3C2F101319619825524AC
:101FE0001B8A1A8A7FEF672E772E02C04C01F101FF
:101FF000DF01BD901D01B0E2BB1621F48981882369
:10200000B1F703C02BE2B21611F4B982F0CF3DE272
:10201000B31619F444E0542AEACF53E2B51619F482
:1020200061E0562AE4CF70E3B71619F480E1582A2C
:10203000DECF9CE6B91619F4A8E05A2AD8CFBAE741
:10204000BB16A9F22AE2B21691F4C4010296D40199
:102050008D909C909B8A8A8A97FEC8CFB4E05B2AB9
:10206000F401F095E195FF4FFB8BEA8BBFCF2EE299
:10207000B21691F581818A3219F0662477241FC047
:102080000894211C311CD4016D907C90E2E0F0E0BA
:102090008E0E9F1E1BC08AE090E0A301489F300176
:1020A000499F700C589F700C1124822F992787FD2F
:1020B0009095680E791E60ED7FEF660E771E218188
:1020C0003196822F80538A3030F31F0177FE8FCFF5
:1020D0006FEF662E762E8BCF8B2D8153893010F5C6
:1020E0008B2D9927C0979B8B8A8B2AE030E012C0FA
:1020F0004A895B89429FD001439FB00D529FB00D2A
:102100001124892F992787FD9095A80FB91FD09783
:10211000BB8BAA8B91813196892F80538A3040F3F3
:102120001F0165CFF4014B2C57E65B15E8F065E61F
:10213000B61608F0B4C170E5B716D1F17B1548F0BA
:1021400085E4B81609F4ABC197E4B91609F0ABC140
:10215000A6C1A3E6BA1621F1AB1508F475C0B8E51F
:10216000BB1609F0A0C13BC120E7B21609F437C184
:102170002B1548F039E6B31609F466C04FE6B416DD
:1021800009F091C1DEC055E7B51609F45CC068E7F7
:10219000B61609F424C173E7B71609F084C124C048
:1021A00082E090E0880E991E80818A83198281C125
:1021B000A2E0B0E08A0E9B1EE080F180E114F10401
:1021C00039F459ECC52E53E0D52E43E7442E19C0FF
:1021D000C7010E94781301960E941F0F8C01B7015E
:1021E0000E947113680106C022E030E0820E931E47
:1021F000C080D180C114D10421F439ECC32E33E066
:10220000D32E77FC12C0A30160E070E0C6010E94EB
:102210008113009711F4730112C08C199D09730189
:102220008615970564F47C010AC0D6010D90002044
:10223000E9F77D010894E108F108EC18FD0819821E
:1022400066247724B5C1198253FE0CC024E030E027
:10225000820E931EE080F1800281138135E7B31670
:10226000B1F421C0D4011296F40100811181F5E787
:10227000BF1631F44D01980179010027112713C0D1
:102280004D01A8017A010027F7FC0095102F17FFD8
:102290000AC010950095F094E094E11CF11C011D1A
:1022A000111D8DE2898377FC02C05FEE5522E11497
:1022B000F1040105110539F46114710451F422E1AE
:1022C000C22ED12C0CC06AE0E616F10401051105FE
:1022D00048F48E2D805D898B91E1C92ED12CCC0ED6
:1022E000DD1E20C082E1C82ED12CCC0EDD1EC8011F
:1022F000B7012AE030E040E050E00E94C513605D85
:10230000D6016E936D01C801B7012AE030E040E0CC
:1023100050E00E94C51379018A012115310541055C
:10232000510529F78E010C191D090E5E1F4F78010A
:10233000061517050CF483018981882309F0C4C0B0
:10234000C5C053FE09C024E030E0820E931E008118
:1023500011812281338109C042E050E0840E951E34
:10236000808191818C012227332777FC02C05FEEA8
:102370005522011511052105310549F46114710437
:1023800031F4B2E1CB2ED12CCC0EDD1E1FC0A2E168
:10239000CA2ED12CCC0EDD1E802F8770805DD60119
:1023A0008E936D01F3E03695279517950795FA956D
:1023B000D1F7011511052105310571F750FE06C051
:1023C000803321F080E3FD0182936F0119827E0149
:1023D000EC18FD0822E130E0E20EF31EE9C030E720
:1023E000B31671F442E050E0840E951E8081918115
:1023F0008C012227332751E0552AE8E7BE2E14C06E
:1024000053FE09C064E070E0860E971E00811181C2
:102410002281338109C082E090E0880E991E80817C
:1024200091818C0122273327198277FC02C09FEE0D
:102430005922A8E5BA1619F040ED53E002C041EE6A
:1024400053E072E1C72ED12CCC0EDD1EF801EF70E7
:10245000F070E40FF51F8081F60182936F0164E054
:1024600036952795179507956A95D1F701151105AA
:102470002105310559F750FE09C03197B0826F012F
:102480000894C108D10880E3D6018C937E01EC1832
:10249000FD08E2E1F0E0EE0EFF1E4B2C89C024E0C7
:1024A00030E0820E931EBB2009F489C0BA821982E3
:1024B0004B2C92E0C92ED12CCC0EDD1E6624772445
:1024C00081E0E82EF12C74C00F5F1F4F452D55277A
:1024D0005F8B4E8B2A0154E145225524411451044F
:1024E00061F42A893B89201B310B42EF53E06A8D4E
:1024F0007B8D888D998D0E94840F8981882359F066
:1025000041E050E0BE016F5F7F4F8A8D9B8DA88DAB
:10251000B98DFD011995B0E14B16510461F42A897A
:102520003B89201B310B42E054E06A8D7B8D888D06
:10253000998D0E94840F6E187F08930142E054E049
:102540006A8D7B8D888D998D0E94840FE114F10432
:1025500039F0A701B6018A8D9B8DE88DF98D19950B
:10256000F0E5BF1619F4C6010E941C0F2E8922FF48
:102570000CC02A893B89201B310B42EF53E06A8D46
:102580007B8D888D998D0E94840F4A895B894017C5
:1025900051073CF06C897D89640F751F7D8B6C8BB6
:1025A000FCCC8C899D89800F911F9D8B8C8BF5CCE9
:1025B0008701E614F7040CF48301B42C87CF8C89CF
:1025C0009D896B960FB6F894DEBF0FBECDBFDF912D
:1025D000CF911F910F91FF90EF90DF90CF90BF9020
:1025E0009F908F907F906F905F904F903F902F9033
:1025F0000895CF93DF93DC01EC01EA81FB813097F2
:1026000019F4EF81F88503C0018CF28DE02DCD0126
:102610001995DF91CF910895FC018081823759F09F
:10262000873719F08136B1F403C081E093E41BC011
:1026300088E091E418C080E090E415C02B3219F0D6
:10264000223641F404C08E7F826093600CC09F7B71
:10265000906809C086E190E0909389048093880493
:102660008FEF9FEF089531962081222339F7089547
:102670000F931F93CF93DF93CDB7DEB721970FB69C
:10268000F894DEBF0FBECDBF8C01FB01898341E012
:1026900050E0BE016F5F7F4F808191810E94F912EF
:1026A000019711F00FEF1FEFC80121960FB6F894B4
:1026B000DEBF0FBECDBFDF91CF911F910F91089567
:1026C000FC01CB01DF010D900020E9F71197AE1B53
:1026D000BF0BAD01BF01FC01808191810E94F91205
:1026E0000895FB01DC0105900D920020E1F70895AB
:1026F000FC0105900020E9F7809590958E0F9F1FB3
:102700000895FC014150504030F001900616D1F779
:102710003197CF010895882799270895DC0101C0DA
:102720006D9341505040E0F70895FB01DC018D911D
:102730000190801911F40020D1F7990B0895FB0145
:10274000DC0101900D920020E1F70895629FD00115
:10275000739FF001829FE00DF11D649FE00DF11D5C
:10276000929FF00D839FF00D749FF00D659FF00D0B
:102770009927729FB00DE11DF91F639FB00DE11DF8
:10278000F91FBD01CF0111240895A1E21A2EAA1B41
:10279000BB1BFD010DC0AA1FBB1FEE1FFF1FA21711
:1027A000B307E407F50720F0A21BB30BE40BF50B0E
:1027B000661F771F881F991F1A9469F76095709597
:1027C000809590959B01AC01BD01CF010895F999C9
:1027D000FECFB2BDA1BDF89A119600B40895F99943
:1027E000FECFB2BDA1BD00BC11960FB6F894FA9A07
:0627F000F99A0FBE0895E6
:1027F6002053340020533300205332007700756194
:10280600727430000A2A2A2A2A2A2A2A2A2A2A2AD4
:102816002A2A2A2A2A2A2A2A2A2A2A2A2A2A2A2A12
:102826002A2A2A2A2A2A2A2A2A2A2A2A2A2A2A2A02
:102836002A2A2A2A2A2A2A2A2A2A2A2A2A2A2A2AF2
:102846002A2A2A2A2A2A2A2A2A2A2A2A2A2A2A2AE2
:102856002A2A2A2A0054696D65722073616D706C8C
:10286600652072756E6E696E67206F6E2025752EF7
:1028760025303475204D487A204350550A00746D32
:10288600723100746D723200746D723300746D7241
:102896003400736C70723100736C70723200736C3A
:1028A60070723300736C707234006F6E6573686F8C
:1028B60074000A53746172742025732074312000E9
:1028C6000A537461727420257320743220000A53EF
:1028D6007461727420257320743320000A53746166
:1028E600727420257320743420000A536C65657059
:1028F600696E67202575207365636F6E64732000AB
:102906000A53746F702074696D65727320000A250E
:102916007520627974657320667265650A00706554
:1029260072696F646963000A2575206672656520A1
:10293600004D656D6F7279206C6F77002049340009
:1029460020543400204534002049330020543300FD
:102956002045330020493200205432002045320001
:1029660020493100205431002045310065746865E6
:10297600726E75740069646C65006D61696E00FF46
:1029860000000000020C0000756172743000000047
:10299600000000000000000000780CD50C00008A42
:1029A6000CA60CC30CD20C000001000200030000B0
:1029B600000000000000000000286E756C6C290005
:1029C600303132333435363738396162636465669F
:1029D6000030313233343536373839414243444595
:1029E60046002020202020202020202020202020DB
:1029F60020203030303030303030303030303030F1
:022A060030306E
:00000001FF
